{"abi":[{"type":"constructor","inputs":[{"name":"_tokenAddress","type":"address","internalType":"address"}],"stateMutability":"nonpayable"},{"type":"function","name":"balances","inputs":[{"name":"","type":"address","internalType":"address"}],"outputs":[{"name":"","type":"uint256","internalType":"uint256"}],"stateMutability":"view"},{"type":"function","name":"deposit","inputs":[{"name":"_amount","type":"uint256","internalType":"uint256"}],"outputs":[],"stateMutability":"nonpayable"},{"type":"function","name":"getBalance","inputs":[{"name":"_user","type":"address","internalType":"address"}],"outputs":[{"name":"","type":"uint256","internalType":"uint256"}],"stateMutability":"view"},{"type":"function","name":"token","inputs":[],"outputs":[{"name":"","type":"address","internalType":"contract MyERC20"}],"stateMutability":"view"},{"type":"function","name":"withdraw","inputs":[{"name":"_amount","type":"uint256","internalType":"uint256"}],"outputs":[],"stateMutability":"payable"}],"bytecode":{"object":"0x608060405234801561000f575f5ffd5b50604051610cb4380380610cb483398181016040528101906100319190610142565b5f73ffffffffffffffffffffffffffffffffffffffff168173ffffffffffffffffffffffffffffffffffffffff160361009f576040517f08c379a0000000000000000000000000000000000000000000000000000000008152600401610096906101c7565b60405180910390fd5b805f5f6101000a81548173ffffffffffffffffffffffffffffffffffffffff021916908373ffffffffffffffffffffffffffffffffffffffff160217905550506101e5565b5f5ffd5b5f73ffffffffffffffffffffffffffffffffffffffff82169050919050565b5f610111826100e8565b9050919050565b61012181610107565b811461012b575f5ffd5b50565b5f8151905061013c81610118565b92915050565b5f60208284031215610157576101566100e4565b5b5f6101648482850161012e565b91505092915050565b5f82825260208201905092915050565b7f546f6b656e20616464726573732063616e6e6f74206265207a65726f000000005f82015250565b5f6101b1601c8361016d565b91506101bc8261017d565b602082019050919050565b5f6020820190508181035f8301526101de816101a5565b9050919050565b610ac2806101f25f395ff3fe608060405260043610610049575f3560e01c806327e235e31461004d5780632e1a7d4d14610089578063b6b55f25146100a5578063f8b2cb4f146100cd578063fc0c546a14610109575b5f5ffd5b348015610058575f5ffd5b50610073600480360381019061006e919061057f565b610133565b60405161008091906105c2565b60405180910390f35b6100a3600480360381019061009e9190610605565b610148565b005b3480156100b0575f5ffd5b506100cb60048036038101906100c69190610605565b61033e565b005b3480156100d8575f5ffd5b506100f360048036038101906100ee919061057f565b6104b7565b60405161010091906105c2565b60405180910390f35b348015610114575f5ffd5b5061011d6104fd565b60405161012a919061068b565b60405180910390f35b6001602052805f5260405f205f915090505481565b5f811161018a576040517f08c379a000000000000000000000000000000000000000000000000000000000815260040161018190610724565b60405180910390fd5b8060015f3373ffffffffffffffffffffffffffffffffffffffff1673ffffffffffffffffffffffffffffffffffffffff1681526020019081526020015f205411610209576040517f08c379a00000000000000000000000000000000000000000000000000000000081526004016102009061078c565b60405180910390fd5b8060015f3373ffffffffffffffffffffffffffffffffffffffff1673ffffffffffffffffffffffffffffffffffffffff1681526020019081526020015f205f82825461025591906107d7565b925050819055505f5f5f9054906101000a900473ffffffffffffffffffffffffffffffffffffffff1673ffffffffffffffffffffffffffffffffffffffff1663a9059cbb33846040518363ffffffff1660e01b81526004016102b8929190610819565b6020604051808303815f875af11580156102d4573d5f5f3e3d5ffd5b505050506040513d601f19601f820116820180604052508101906102f89190610875565b90508061033a576040517f08c379a0000000000000000000000000000000000000000000000000000000008152600401610331906108ea565b60405180910390fd5b5050565b5f8111610380576040517f08c379a000000000000000000000000000000000000000000000000000000000815260040161037790610978565b60405180910390fd5b5f5f5f9054906101000a900473ffffffffffffffffffffffffffffffffffffffff1673ffffffffffffffffffffffffffffffffffffffff166323b872dd3330856040518463ffffffff1660e01b81526004016103de93929190610996565b6020604051808303815f875af11580156103fa573d5f5f3e3d5ffd5b505050506040513d601f19601f8201168201806040525081019061041e9190610875565b905080610460576040517f08c379a000000000000000000000000000000000000000000000000000000000815260040161045790610a3b565b60405180910390fd5b8160015f3373ffffffffffffffffffffffffffffffffffffffff1673ffffffffffffffffffffffffffffffffffffffff1681526020019081526020015f205f8282546104ac9190610a59565b925050819055505050565b5f60015f8373ffffffffffffffffffffffffffffffffffffffff1673ffffffffffffffffffffffffffffffffffffffff1681526020019081526020015f20549050919050565b5f5f9054906101000a900473ffffffffffffffffffffffffffffffffffffffff1681565b5f5ffd5b5f73ffffffffffffffffffffffffffffffffffffffff82169050919050565b5f61054e82610525565b9050919050565b61055e81610544565b8114610568575f5ffd5b50565b5f8135905061057981610555565b92915050565b5f6020828403121561059457610593610521565b5b5f6105a18482850161056b565b91505092915050565b5f819050919050565b6105bc816105aa565b82525050565b5f6020820190506105d55f8301846105b3565b92915050565b6105e4816105aa565b81146105ee575f5ffd5b50565b5f813590506105ff816105db565b92915050565b5f6020828403121561061a57610619610521565b5b5f610627848285016105f1565b91505092915050565b5f819050919050565b5f61065361064e61064984610525565b610630565b610525565b9050919050565b5f61066482610639565b9050919050565b5f6106758261065a565b9050919050565b6106858161066b565b82525050565b5f60208201905061069e5f83018461067c565b92915050565b5f82825260208201905092915050565b7f576974686472617720616d6f756e74206d7573742062652067726561746572205f8201527f7468616e207a65726f2021000000000000000000000000000000000000000000602082015250565b5f61070e602b836106a4565b9150610719826106b4565b604082019050919050565b5f6020820190508181035f83015261073b81610702565b9050919050565b7f496e73756666696369656e742062616c616e636520696e2062616e6b000000005f82015250565b5f610776601c836106a4565b915061078182610742565b602082019050919050565b5f6020820190508181035f8301526107a38161076a565b9050919050565b7f4e487b71000000000000000000000000000000000000000000000000000000005f52601160045260245ffd5b5f6107e1826105aa565b91506107ec836105aa565b9250828203905081811115610804576108036107aa565b5b92915050565b61081381610544565b82525050565b5f60408201905061082c5f83018561080a565b61083960208301846105b3565b9392505050565b5f8115159050919050565b61085481610840565b811461085e575f5ffd5b50565b5f8151905061086f8161084b565b92915050565b5f6020828403121561088a57610889610521565b5b5f61089784828501610861565b91505092915050565b7f546f6b656e207472616e73666572206661696c656400000000000000000000005f82015250565b5f6108d46015836106a4565b91506108df826108a0565b602082019050919050565b5f6020820190508181035f830152610901816108c8565b9050919050565b7f4465706f73697420616d6f756e74206d757374206265206772656174657220745f8201527f68616e207a65726f000000000000000000000000000000000000000000000000602082015250565b5f6109626028836106a4565b915061096d82610908565b604082019050919050565b5f6020820190508181035f83015261098f81610956565b9050919050565b5f6060820190506109a95f83018661080a565b6109b6602083018561080a565b6109c360408301846105b3565b949350505050565b7f546f6b656e207472616e73666572206661696c65642028636865636b20616c6c5f8201527f6f77616e63652900000000000000000000000000000000000000000000000000602082015250565b5f610a256027836106a4565b9150610a30826109cb565b604082019050919050565b5f6020820190508181035f830152610a5281610a19565b9050919050565b5f610a63826105aa565b9150610a6e836105aa565b9250828201905080821115610a8657610a856107aa565b5b9291505056fea264697066735822122007e20e173031d5f2600df3402111fca6b4d8cd5fb2d99872dadbc845acc1923a64736f6c634300081e0033","linkReferences":{}},"methodIdentifiers":{"balances(address)":"27e235e3","deposit(uint256)":"b6b55f25","getBalance(address)":"f8b2cb4f","token()":"fc0c546a","withdraw(uint256)":"2e1a7d4d"},"id":7}