{
    "abi": [
        {
            "type": "constructor",
            "inputs": [
                {
                    "name": "_permit2",
                    "type": "address",
                    "internalType": "address"
                }
            ],
            "stateMutability": "nonpayable"
        },
        {
            "type": "function",
            "name": "PERMIT2",
            "inputs": [],
            "outputs": [
                {
                    "name": "",
                    "type": "address",
                    "internalType": "address"
                }
            ],
            "stateMutability": "view"
        },
        {
            "type": "function",
            "name": "balances",
            "inputs": [
                {
                    "name": "",
                    "type": "address",
                    "internalType": "address"
                },
                {
                    "name": "",
                    "type": "address",
                    "internalType": "address"
                }
            ],
            "outputs": [
                {
                    "name": "",
                    "type": "uint256",
                    "internalType": "uint256"
                }
            ],
            "stateMutability": "view"
        },
        {
            "type": "function",
            "name": "depositWithPermit2",
            "inputs": [
                {
                    "name": "permit",
                    "type": "tuple",
                    "internalType": "struct ISignatureTransfer.PermitTransferFrom",
                    "components": [
                        {
                            "name": "permitted",
                            "type": "tuple",
                            "internalType": "struct ISignatureTransfer.TokenPermissions",
                            "components": [
                                {
                                    "name": "token",
                                    "type": "address",
                                    "internalType": "address"
                                },
                                {
                                    "name": "amount",
                                    "type": "uint256",
                                    "internalType": "uint256"
                                }
                            ]
                        },
                        {
                            "name": "nonce",
                            "type": "uint256",
                            "internalType": "uint256"
                        },
                        {
                            "name": "deadline",
                            "type": "uint256",
                            "internalType": "uint256"
                        }
                    ]
                },
                {
                    "name": "transferDetails",
                    "type": "tuple",
                    "internalType": "struct ISignatureTransfer.SignatureTransferDetails",
                    "components": [
                        {
                            "name": "to",
                            "type": "address",
                            "internalType": "address"
                        },
                        {
                            "name": "requestedAmount",
                            "type": "uint256",
                            "internalType": "uint256"
                        }
                    ]
                },
                {
                    "name": "owner",
                    "type": "address",
                    "internalType": "address"
                },
                {
                    "name": "signature",
                    "type": "bytes",
                    "internalType": "bytes"
                }
            ],
            "outputs": [],
            "stateMutability": "nonpayable"
        },
        {
            "type": "function",
            "name": "getBalance",
            "inputs": [
                {
                    "name": "_token",
                    "type": "address",
                    "internalType": "address"
                },
                {
                    "name": "_user",
                    "type": "address",
                    "internalType": "address"
                }
            ],
            "outputs": [
                {
                    "name": "",
                    "type": "uint256",
                    "internalType": "uint256"
                }
            ],
            "stateMutability": "view"
        },
        {
            "type": "event",
            "name": "Deposit",
            "inputs": [
                {
                    "name": "user",
                    "type": "address",
                    "indexed": true,
                    "internalType": "address"
                },
                {
                    "name": "token",
                    "type": "address",
                    "indexed": true,
                    "internalType": "address"
                },
                {
                    "name": "amount",
                    "type": "uint256",
                    "indexed": false,
                    "internalType": "uint256"
                }
            ],
            "anonymous": false
        }
    ],
    "bytecode": {
        "object": "0x60a0346100c357601f61056338819003918201601f19168301916001600160401b038311848410176100c8578084926020946040528339810103126100c357516001600160a01b0381168082036100c3571561007e5760805260405161048490816100df82396080518181816101bc0152818161028201526103ee0152f35b60405162461bcd60e51b815260206004820152601760248201527f496e76616c6964205065726d69743220616464726573730000000000000000006044820152606490fd5b600080fd5b634e487b7160e01b600052604160045260246000fdfe60806040818152600436101561001457600080fd5b600091823560e01c9081636afdd850146103da575080638b5bb9b1146100b9578063c23f001f1461009d5763d4fac45d1461004e57600080fd5b3461009957806003193601126100995760209161006961041d565b82610072610438565b6001600160a01b039283168452838652922091166000908152908352819020549051908152f35b5080fd5b503461009957806003193601126100995760209161006961041d565b503461009957366003190161010081126103d657608081126103d657815190606082019082821067ffffffffffffffff8311176103be5783136103d25760a0820181811067ffffffffffffffff8211176103be57835261011761041d565b8152602435608083015281526020808201916044358352838101926064358452846083193601126103ba5760c435936001600160a01b03851685036103b65767ffffffffffffffff60e435116103b65736602360e4350112156103b65767ffffffffffffffff60e43560040135116103b65736602460e4356004013560e4350101116103b6576084356001600160a01b038116919082900361037a5730820361037e577f00000000000000000000000000000000000000000000000000000000000000006001600160a01b03163b1561037a5786519263187945bd60e11b845285855160018060a01b03815116600487015201516024850152516044840152516064830152608482015260a43560a482015260018060a01b03841660c482015261010060e482015260e43560040135610104820152858161012460e43560040135602460e4350182840137600460e43501358281018201849052601f01601f191682018290030181837f00000000000000000000000000000000000000000000000000000000000000006001600160a01b03165af1801561037057610341575b508051516001600160a01b0390811686528583528486209084166000908152908352849020805460a43581019190821061032d57555151925160a43581526001600160a01b039384169392909216917f5548c837ab068cf56a2c2479df0882a4922fd203edb7517321831d95078c5f629190a380f35b634e487b7160e01b87526011600452602487fd5b67ffffffffffffffff819692961161035c57845293386102b7565b634e487b7160e01b82526041600452602482fd5b85513d88823e3d90fd5b8780fd5b865162461bcd60e51b8152600481018690526011602482015270125b9d985b1a59081c9958da5c1a595b9d607a1b6044820152606490fd5b8680fd5b8580fd5b634e487b7160e01b85526041600452602485fd5b8380fd5b8280fd5b8390346100995781600319360112610099577f00000000000000000000000000000000000000000000000000000000000000006001600160a01b03168152602090f35b600435906001600160a01b038216820361043357565b600080fd5b602435906001600160a01b03821682036104335756fea2646970667358221220de74ae3e3a5a071fd94898cb4c2d6b9e25348efa9047f46516df7e031ba86e8064736f6c63430008110033",
        "linkReferences": {}
    },
    "methodIdentifiers": {
        "PERMIT2()": "6afdd850",
        "balances(address,address)": "c23f001f",
        "depositWithPermit2(((address,uint256),uint256,uint256),(address,uint256),address,bytes)": "8b5bb9b1",
        "getBalance(address,address)": "d4fac45d"
    },
    "id": 19
}