{
    "abi": [
        {
            "type": "constructor",
            "inputs": [
                {
                    "name": "_permit2",
                    "type": "address",
                    "internalType": "address"
                }
            ],
            "stateMutability": "nonpayable"
        },
        {
            "type": "function",
            "name": "PERMIT2",
            "inputs": [],
            "outputs": [
                {
                    "name": "",
                    "type": "address",
                    "internalType": "address"
                }
            ],
            "stateMutability": "view"
        },
        {
            "type": "function",
            "name": "balances",
            "inputs": [
                {
                    "name": "",
                    "type": "address",
                    "internalType": "address"
                },
                {
                    "name": "",
                    "type": "address",
                    "internalType": "address"
                }
            ],
            "outputs": [
                {
                    "name": "",
                    "type": "uint256",
                    "internalType": "uint256"
                }
            ],
            "stateMutability": "view"
        },
        {
            "type": "function",
            "name": "depositWithPermit2",
            "inputs": [
                {
                    "name": "permit",
                    "type": "tuple",
                    "internalType": "struct ISignatureTransfer.PermitTransferFrom",
                    "components": [
                        {
                            "name": "permitted",
                            "type": "tuple",
                            "internalType": "struct ISignatureTransfer.TokenPermissions",
                            "components": [
                                {
                                    "name": "token",
                                    "type": "address",
                                    "internalType": "address"
                                },
                                {
                                    "name": "amount",
                                    "type": "uint256",
                                    "internalType": "uint256"
                                }
                            ]
                        },
                        {
                            "name": "nonce",
                            "type": "uint256",
                            "internalType": "uint256"
                        },
                        {
                            "name": "deadline",
                            "type": "uint256",
                            "internalType": "uint256"
                        }
                    ]
                },
                {
                    "name": "transferDetails",
                    "type": "tuple",
                    "internalType": "struct ISignatureTransfer.SignatureTransferDetails",
                    "components": [
                        {
                            "name": "to",
                            "type": "address",
                            "internalType": "address"
                        },
                        {
                            "name": "requestedAmount",
                            "type": "uint256",
                            "internalType": "uint256"
                        }
                    ]
                },
                {
                    "name": "signature",
                    "type": "bytes",
                    "internalType": "bytes"
                }
            ],
            "outputs": [],
            "stateMutability": "nonpayable"
        },
        {
            "type": "function",
            "name": "getBalance",
            "inputs": [
                {
                    "name": "_token",
                    "type": "address",
                    "internalType": "address"
                },
                {
                    "name": "_user",
                    "type": "address",
                    "internalType": "address"
                }
            ],
            "outputs": [
                {
                    "name": "",
                    "type": "uint256",
                    "internalType": "uint256"
                }
            ],
            "stateMutability": "view"
        },
        {
            "type": "event",
            "name": "Deposit",
            "inputs": [
                {
                    "name": "user",
                    "type": "address",
                    "indexed": true,
                    "internalType": "address"
                },
                {
                    "name": "token",
                    "type": "address",
                    "indexed": true,
                    "internalType": "address"
                },
                {
                    "name": "amount",
                    "type": "uint256",
                    "indexed": false,
                    "internalType": "uint256"
                }
            ],
            "anonymous": false
        }
    ],
    "bytecode": {
        "object": "0x60a0346100bc57601f6104cb38819003918201601f19168301916001600160401b038311848410176100c1578084926020946040528339810103126100bc57516001600160a01b0381168082036100bc5715610077576080526040516103f390816100d88239608051818181610193015261035d0152f35b60405162461bcd60e51b815260206004820152601760248201527f496e76616c6964205065726d69743220616464726573730000000000000000006044820152606490fd5b600080fd5b634e487b7160e01b600052604160045260246000fdfe608060408181526004918236101561001657600080fd5b600092833560e01c9182636afdd8501461034957508163a861e408146100bc57508063c23f001f146100a05763d4fac45d1461005157600080fd5b3461009c578060031936011261009c5760209161006c61038c565b826100756103a7565b6001600160a01b039283168452838652922091166000908152908352819020549051908152f35b5080fd5b503461009c578060031936011261009c5760209161006c61038c565b90503461034557366003190160e081126103415760808112610341578251606081019267ffffffffffffffff928285108486111761032a57851361033d5760a082018481108482111761032a57855261011361038c565b845260249384356080840152825260208201936044358552858301936064358552866083193601126103265760c43590808211610322573660238301121561032257818401359681881161031e573684898501011161031e576001600160a01b039660843588811692919083900361031a573083036102e457908b9291897f00000000000000000000000000000000000000000000000000000000000000001691823b156102e0578a9689948b938f9360208995519b8c998a9863187945bd60e11b8a5251918251169089015201518c87015251604486015251606485015260848401528260a4359d8e60a48301523360c483015261010060e483015280610104830152808b6101249401848401378181018301849052601f01601f191681010301925af180156102d6576102b1575b505083835151168752866020528587203360005260205285600020908154928684018094116102a05750505551511691519081527f5548c837ab068cf56a2c2479df0882a4922fd203edb7517321831d95078c5f6260203392a380f35b634e487b7160e01b89526011905287fd5b81989298116102c4578652953880610243565b5060418792634e487b7160e01b835252fd5b88513d8b823e3d90fd5b8480fd5b8a5162461bcd60e51b815260208189015260118188015270125b9d985b1a59081c9958da5c1a595b9d607a1b6044820152606490fd5b8b80fd5b8980fd5b8880fd5b8780fd5b634e487b7160e01b875260418252602487fd5b8580fd5b8380fd5b8280fd5b84903461009c578160031936011261009c577f00000000000000000000000000000000000000000000000000000000000000006001600160a01b03168152602090f35b600435906001600160a01b03821682036103a257565b600080fd5b602435906001600160a01b03821682036103a25756fea2646970667358221220d085283c854133409550c5b46208c474bf8a64ba1cadd673ae506723f763abef64736f6c63430008110033",
        "linkReferences": {}
    },
    "methodIdentifiers": {
        "PERMIT2()": "6afdd850",
        "balances(address,address)": "c23f001f",
        "depositWithPermit2(((address,uint256),uint256,uint256),(address,uint256),bytes)": "a861e408",
        "getBalance(address,address)": "d4fac45d"
    },
    "id": 31
}