{
	"w2d1/BaseERC20.sol": {
		"TokenBankV2": {
			"abi": [
				{
					"inputs": [
						{
							"internalType": "address",
							"name": "_tokenAddress",
							"type": "address"
						}
					],
					"stateMutability": "nonpayable",
					"type": "constructor"
				},
				{
					"inputs": [
						{
							"internalType": "address",
							"name": "",
							"type": "address"
						}
					],
					"name": "balances",
					"outputs": [
						{
							"internalType": "uint256",
							"name": "",
							"type": "uint256"
						}
					],
					"stateMutability": "view",
					"type": "function"
				},
				{
					"inputs": [
						{
							"internalType": "uint256",
							"name": "_amount",
							"type": "uint256"
						}
					],
					"name": "deposit",
					"outputs": [],
					"stateMutability": "nonpayable",
					"type": "function"
				},
				{
					"inputs": [
						{
							"internalType": "address",
							"name": "_user",
							"type": "address"
						}
					],
					"name": "getBalance",
					"outputs": [
						{
							"internalType": "uint256",
							"name": "",
							"type": "uint256"
						}
					],
					"stateMutability": "view",
					"type": "function"
				},
				{
					"inputs": [],
					"name": "token",
					"outputs": [
						{
							"internalType": "contract BaseERC20",
							"name": "",
							"type": "address"
						}
					],
					"stateMutability": "view",
					"type": "function"
				},
				{
					"inputs": [
						{
							"internalType": "address",
							"name": "_from",
							"type": "address"
						},
						{
							"internalType": "uint256",
							"name": "_amount",
							"type": "uint256"
						}
					],
					"name": "tokensReceived",
					"outputs": [
						{
							"internalType": "bool",
							"name": "",
							"type": "bool"
						}
					],
					"stateMutability": "nonpayable",
					"type": "function"
				},
				{
					"inputs": [
						{
							"internalType": "uint256",
							"name": "_amount",
							"type": "uint256"
						}
					],
					"name": "withdraw",
					"outputs": [],
					"stateMutability": "payable",
					"type": "function"
				}
			],
			"devdoc": {
				"kind": "dev",
				"methods": {
					"getBalance(address)": {
						"params": {
							"_user": "address 用户地址"
						}
					}
				},
				"version": 1
			},
			"evm": {
				"assembly": "    /* \"w2d1/BaseERC20.sol\":6645:7212  contract TokenBankV2 is TokenBank, TokenRecipient{... */\n  mstore(0x40, 0x80)\n    /* \"w2d1/BaseERC20.sol\":6724:6786  constructor(address _tokenAddress) TokenBank(_tokenAddress) {} */\n  callvalue\n  dup1\n  iszero\n  tag_1\n  jumpi\n  0x00\n  dup1\n  revert\ntag_1:\n  pop\n  mload(0x40)\n  sub(codesize, bytecodeSize)\n  dup1\n  bytecodeSize\n  dup4\n  codecopy\n  dup2\n  dup2\n  add\n  0x40\n  mstore\n  dup2\n  add\n  swap1\n  tag_2\n  swap2\n  swap1\n  tag_3\n  jump\t// in\ntag_2:\n    /* \"w2d1/BaseERC20.sol\":6769:6782  _tokenAddress */\n  dup1\n    /* \"w2d1/BaseERC20.sol\":5350:5351  0 */\n  0x00\n    /* \"w2d1/BaseERC20.sol\":5325:5352  _tokenAddress != address(0) */\n  0xffffffffffffffffffffffffffffffffffffffff\n  and\n    /* \"w2d1/BaseERC20.sol\":5325:5338  _tokenAddress */\n  dup2\n    /* \"w2d1/BaseERC20.sol\":5325:5352  _tokenAddress != address(0) */\n  0xffffffffffffffffffffffffffffffffffffffff\n  and\n  sub\n    /* \"w2d1/BaseERC20.sol\":5317:5385  require(_tokenAddress != address(0), \"Token address cannot be zero\") */\n  tag_7\n  jumpi\n  mload(0x40)\n  0x08c379a000000000000000000000000000000000000000000000000000000000\n  dup2\n  mstore\n  0x04\n  add\n  tag_8\n  swap1\n  tag_9\n  jump\t// in\ntag_8:\n  mload(0x40)\n  dup1\n  swap2\n  sub\n  swap1\n  revert\ntag_7:\n    /* \"w2d1/BaseERC20.sol\":5414:5427  _tokenAddress */\n  dup1\n    /* \"w2d1/BaseERC20.sol\":5396:5401  token */\n  0x00\n  dup1\n    /* \"w2d1/BaseERC20.sol\":5396:5428  token = BaseERC20(_tokenAddress) */\n  0x0100\n  exp\n  dup2\n  sload\n  dup2\n  0xffffffffffffffffffffffffffffffffffffffff\n  mul\n  not\n  and\n  swap1\n  dup4\n  0xffffffffffffffffffffffffffffffffffffffff\n  and\n  mul\n  or\n  swap1\n  sstore\n  pop\n    /* \"w2d1/BaseERC20.sol\":5271:5436  constructor(address _tokenAddress) {... */\n  pop\n    /* \"w2d1/BaseERC20.sol\":6724:6786  constructor(address _tokenAddress) TokenBank(_tokenAddress) {} */\n  pop\n    /* \"w2d1/BaseERC20.sol\":6645:7212  contract TokenBankV2 is TokenBank, TokenRecipient{... */\n  jump(tag_11)\n    /* \"#utility.yul\":88:205   */\ntag_13:\n    /* \"#utility.yul\":197:198   */\n  0x00\n    /* \"#utility.yul\":194:195   */\n  dup1\n    /* \"#utility.yul\":187:199   */\n  revert\n    /* \"#utility.yul\":334:460   */\ntag_15:\n    /* \"#utility.yul\":371:378   */\n  0x00\n    /* \"#utility.yul\":411:453   */\n  0xffffffffffffffffffffffffffffffffffffffff\n    /* \"#utility.yul\":404:409   */\n  dup3\n    /* \"#utility.yul\":400:454   */\n  and\n    /* \"#utility.yul\":389:454   */\n  swap1\n  pop\n    /* \"#utility.yul\":334:460   */\n  swap2\n  swap1\n  pop\n  jump\t// out\n    /* \"#utility.yul\":466:562   */\ntag_16:\n    /* \"#utility.yul\":503:510   */\n  0x00\n    /* \"#utility.yul\":532:556   */\n  tag_28\n    /* \"#utility.yul\":550:555   */\n  dup3\n    /* \"#utility.yul\":532:556   */\n  tag_15\n  jump\t// in\ntag_28:\n    /* \"#utility.yul\":521:556   */\n  swap1\n  pop\n    /* \"#utility.yul\":466:562   */\n  swap2\n  swap1\n  pop\n  jump\t// out\n    /* \"#utility.yul\":568:690   */\ntag_17:\n    /* \"#utility.yul\":641:665   */\n  tag_30\n    /* \"#utility.yul\":659:664   */\n  dup2\n    /* \"#utility.yul\":641:665   */\n  tag_16\n  jump\t// in\ntag_30:\n    /* \"#utility.yul\":634:639   */\n  dup2\n    /* \"#utility.yul\":631:666   */\n  eq\n    /* \"#utility.yul\":621:684   */\n  tag_31\n  jumpi\n    /* \"#utility.yul\":680:681   */\n  0x00\n    /* \"#utility.yul\":677:678   */\n  dup1\n    /* \"#utility.yul\":670:682   */\n  revert\n    /* \"#utility.yul\":621:684   */\ntag_31:\n    /* \"#utility.yul\":568:690   */\n  pop\n  jump\t// out\n    /* \"#utility.yul\":696:839   */\ntag_18:\n    /* \"#utility.yul\":753:758   */\n  0x00\n    /* \"#utility.yul\":784:790   */\n  dup2\n    /* \"#utility.yul\":778:791   */\n  mload\n    /* \"#utility.yul\":769:791   */\n  swap1\n  pop\n    /* \"#utility.yul\":800:833   */\n  tag_33\n    /* \"#utility.yul\":827:832   */\n  dup2\n    /* \"#utility.yul\":800:833   */\n  tag_17\n  jump\t// in\ntag_33:\n    /* \"#utility.yul\":696:839   */\n  swap3\n  swap2\n  pop\n  pop\n  jump\t// out\n    /* \"#utility.yul\":845:1196   */\ntag_3:\n    /* \"#utility.yul\":915:921   */\n  0x00\n    /* \"#utility.yul\":964:966   */\n  0x20\n    /* \"#utility.yul\":952:961   */\n  dup3\n    /* \"#utility.yul\":943:950   */\n  dup5\n    /* \"#utility.yul\":939:962   */\n  sub\n    /* \"#utility.yul\":935:967   */\n  slt\n    /* \"#utility.yul\":932:1051   */\n  iszero\n  tag_35\n  jumpi\n    /* \"#utility.yul\":970:1049   */\n  tag_36\n  tag_13\n  jump\t// in\ntag_36:\n    /* \"#utility.yul\":932:1051   */\ntag_35:\n    /* \"#utility.yul\":1090:1091   */\n  0x00\n    /* \"#utility.yul\":1115:1179   */\n  tag_37\n    /* \"#utility.yul\":1171:1178   */\n  dup5\n    /* \"#utility.yul\":1162:1168   */\n  dup3\n    /* \"#utility.yul\":1151:1160   */\n  dup6\n    /* \"#utility.yul\":1147:1169   */\n  add\n    /* \"#utility.yul\":1115:1179   */\n  tag_18\n  jump\t// in\ntag_37:\n    /* \"#utility.yul\":1105:1179   */\n  swap2\n  pop\n    /* \"#utility.yul\":1061:1189   */\n  pop\n    /* \"#utility.yul\":845:1196   */\n  swap3\n  swap2\n  pop\n  pop\n  jump\t// out\n    /* \"#utility.yul\":1202:1371   */\ntag_19:\n    /* \"#utility.yul\":1286:1297   */\n  0x00\n    /* \"#utility.yul\":1320:1326   */\n  dup3\n    /* \"#utility.yul\":1315:1318   */\n  dup3\n    /* \"#utility.yul\":1308:1327   */\n  mstore\n    /* \"#utility.yul\":1360:1364   */\n  0x20\n    /* \"#utility.yul\":1355:1358   */\n  dup3\n    /* \"#utility.yul\":1351:1365   */\n  add\n    /* \"#utility.yul\":1336:1365   */\n  swap1\n  pop\n    /* \"#utility.yul\":1202:1371   */\n  swap3\n  swap2\n  pop\n  pop\n  jump\t// out\n    /* \"#utility.yul\":1377:1555   */\ntag_20:\n    /* \"#utility.yul\":1517:1547   */\n  0x546f6b656e20616464726573732063616e6e6f74206265207a65726f00000000\n    /* \"#utility.yul\":1513:1514   */\n  0x00\n    /* \"#utility.yul\":1505:1511   */\n  dup3\n    /* \"#utility.yul\":1501:1515   */\n  add\n    /* \"#utility.yul\":1494:1548   */\n  mstore\n    /* \"#utility.yul\":1377:1555   */\n  pop\n  jump\t// out\n    /* \"#utility.yul\":1561:1927   */\ntag_21:\n    /* \"#utility.yul\":1703:1706   */\n  0x00\n    /* \"#utility.yul\":1724:1791   */\n  tag_41\n    /* \"#utility.yul\":1788:1790   */\n  0x1c\n    /* \"#utility.yul\":1783:1786   */\n  dup4\n    /* \"#utility.yul\":1724:1791   */\n  tag_19\n  jump\t// in\ntag_41:\n    /* \"#utility.yul\":1717:1791   */\n  swap2\n  pop\n    /* \"#utility.yul\":1800:1893   */\n  tag_42\n    /* \"#utility.yul\":1889:1892   */\n  dup3\n    /* \"#utility.yul\":1800:1893   */\n  tag_20\n  jump\t// in\ntag_42:\n    /* \"#utility.yul\":1918:1920   */\n  0x20\n    /* \"#utility.yul\":1913:1916   */\n  dup3\n    /* \"#utility.yul\":1909:1921   */\n  add\n    /* \"#utility.yul\":1902:1921   */\n  swap1\n  pop\n    /* \"#utility.yul\":1561:1927   */\n  swap2\n  swap1\n  pop\n  jump\t// out\n    /* \"#utility.yul\":1933:2352   */\ntag_9:\n    /* \"#utility.yul\":2099:2103   */\n  0x00\n    /* \"#utility.yul\":2137:2139   */\n  0x20\n    /* \"#utility.yul\":2126:2135   */\n  dup3\n    /* \"#utility.yul\":2122:2140   */\n  add\n    /* \"#utility.yul\":2114:2140   */\n  swap1\n  pop\n    /* \"#utility.yul\":2186:2195   */\n  dup2\n    /* \"#utility.yul\":2180:2184   */\n  dup2\n    /* \"#utility.yul\":2176:2196   */\n  sub\n    /* \"#utility.yul\":2172:2173   */\n  0x00\n    /* \"#utility.yul\":2161:2170   */\n  dup4\n    /* \"#utility.yul\":2157:2174   */\n  add\n    /* \"#utility.yul\":2150:2197   */\n  mstore\n    /* \"#utility.yul\":2214:2345   */\n  tag_44\n    /* \"#utility.yul\":2340:2344   */\n  dup2\n    /* \"#utility.yul\":2214:2345   */\n  tag_21\n  jump\t// in\ntag_44:\n    /* \"#utility.yul\":2206:2345   */\n  swap1\n  pop\n    /* \"#utility.yul\":1933:2352   */\n  swap2\n  swap1\n  pop\n  jump\t// out\n    /* \"w2d1/BaseERC20.sol\":6645:7212  contract TokenBankV2 is TokenBank, TokenRecipient{... */\ntag_11:\n  dataSize(sub_0)\n  dup1\n  dataOffset(sub_0)\n  0x00\n  codecopy\n  0x00\n  return\nstop\n\nsub_0: assembly {\n        /* \"w2d1/BaseERC20.sol\":6645:7212  contract TokenBankV2 is TokenBank, TokenRecipient{... */\n      mstore(0x40, 0x80)\n      jumpi(tag_1, lt(calldatasize, 0x04))\n      shr(0xe0, calldataload(0x00))\n      dup1\n      0x24a756d1\n      eq\n      tag_2\n      jumpi\n      dup1\n      0x27e235e3\n      eq\n      tag_3\n      jumpi\n      dup1\n      0x2e1a7d4d\n      eq\n      tag_4\n      jumpi\n      dup1\n      0xb6b55f25\n      eq\n      tag_5\n      jumpi\n      dup1\n      0xf8b2cb4f\n      eq\n      tag_6\n      jumpi\n      dup1\n      0xfc0c546a\n      eq\n      tag_7\n      jumpi\n    tag_1:\n      0x00\n      dup1\n      revert\n        /* \"w2d1/BaseERC20.sol\":6836:7209  function tokensReceived (address _from, uint _amount) external override returns(bool) {... */\n    tag_2:\n      callvalue\n      dup1\n      iszero\n      tag_8\n      jumpi\n      0x00\n      dup1\n      revert\n    tag_8:\n      pop\n      tag_9\n      0x04\n      dup1\n      calldatasize\n      sub\n      dup2\n      add\n      swap1\n      tag_10\n      swap2\n      swap1\n      tag_11\n      jump\t// in\n    tag_10:\n      tag_12\n      jump\t// in\n    tag_9:\n      mload(0x40)\n      tag_13\n      swap2\n      swap1\n      tag_14\n      jump\t// in\n    tag_13:\n      mload(0x40)\n      dup1\n      swap2\n      sub\n      swap1\n      return\n        /* \"w2d1/BaseERC20.sol\":5218:5262  mapping (address => uint256) public balances */\n    tag_3:\n      callvalue\n      dup1\n      iszero\n      tag_15\n      jumpi\n      0x00\n      dup1\n      revert\n    tag_15:\n      pop\n      tag_16\n      0x04\n      dup1\n      calldatasize\n      sub\n      dup2\n      add\n      swap1\n      tag_17\n      swap2\n      swap1\n      tag_18\n      jump\t// in\n    tag_17:\n      tag_19\n      jump\t// in\n    tag_16:\n      mload(0x40)\n      tag_20\n      swap2\n      swap1\n      tag_21\n      jump\t// in\n    tag_20:\n      mload(0x40)\n      dup1\n      swap2\n      sub\n      swap1\n      return\n        /* \"w2d1/BaseERC20.sol\":5832:6297  function withdraw(uint256 _amount) public payable {... */\n    tag_4:\n      tag_22\n      0x04\n      dup1\n      calldatasize\n      sub\n      dup2\n      add\n      swap1\n      tag_23\n      swap2\n      swap1\n      tag_24\n      jump\t// in\n    tag_23:\n      tag_25\n      jump\t// in\n    tag_22:\n      stop\n        /* \"w2d1/BaseERC20.sol\":5464:5777  function deposit(uint _amount) public {... */\n    tag_5:\n      callvalue\n      dup1\n      iszero\n      tag_26\n      jumpi\n      0x00\n      dup1\n      revert\n    tag_26:\n      pop\n      tag_27\n      0x04\n      dup1\n      calldatasize\n      sub\n      dup2\n      add\n      swap1\n      tag_28\n      swap2\n      swap1\n      tag_24\n      jump\t// in\n    tag_28:\n      tag_29\n      jump\t// in\n    tag_27:\n      stop\n        /* \"w2d1/BaseERC20.sol\":6416:6521  function getBalance(address _user) public view returns (uint256){... */\n    tag_6:\n      callvalue\n      dup1\n      iszero\n      tag_30\n      jumpi\n      0x00\n      dup1\n      revert\n    tag_30:\n      pop\n      tag_31\n      0x04\n      dup1\n      calldatasize\n      sub\n      dup2\n      add\n      swap1\n      tag_32\n      swap2\n      swap1\n      tag_18\n      jump\t// in\n    tag_32:\n      tag_33\n      jump\t// in\n    tag_31:\n      mload(0x40)\n      tag_34\n      swap2\n      swap1\n      tag_21\n      jump\t// in\n    tag_34:\n      mload(0x40)\n      dup1\n      swap2\n      sub\n      swap1\n      return\n        /* \"w2d1/BaseERC20.sol\":5148:5170  BaseERC20 public token */\n    tag_7:\n      callvalue\n      dup1\n      iszero\n      tag_35\n      jumpi\n      0x00\n      dup1\n      revert\n    tag_35:\n      pop\n      tag_36\n      tag_37\n      jump\t// in\n    tag_36:\n      mload(0x40)\n      tag_38\n      swap2\n      swap1\n      tag_39\n      jump\t// in\n    tag_38:\n      mload(0x40)\n      dup1\n      swap2\n      sub\n      swap1\n      return\n        /* \"w2d1/BaseERC20.sol\":6836:7209  function tokensReceived (address _from, uint _amount) external override returns(bool) {... */\n    tag_12:\n        /* \"w2d1/BaseERC20.sol\":6916:6920  bool */\n      0x00\n        /* \"w2d1/BaseERC20.sol\":7009:7014  _from */\n      dup3\n        /* \"w2d1/BaseERC20.sol\":6987:7015  msg.sender == address(_from) */\n      0xffffffffffffffffffffffffffffffffffffffff\n      and\n        /* \"w2d1/BaseERC20.sol\":6987:6997  msg.sender */\n      caller\n        /* \"w2d1/BaseERC20.sol\":6987:7015  msg.sender == address(_from) */\n      0xffffffffffffffffffffffffffffffffffffffff\n      and\n      eq\n        /* \"w2d1/BaseERC20.sol\":6979:7042  require(msg.sender == address(_from), \"Not the valid address!\") */\n      tag_41\n      jumpi\n      mload(0x40)\n      0x08c379a000000000000000000000000000000000000000000000000000000000\n      dup2\n      mstore\n      0x04\n      add\n      tag_42\n      swap1\n      tag_43\n      jump\t// in\n    tag_42:\n      mload(0x40)\n      dup1\n      swap2\n      sub\n      swap1\n      revert\n    tag_41:\n        /* \"w2d1/BaseERC20.sol\":7096:7097  0 */\n      0x00\n        /* \"w2d1/BaseERC20.sol\":7086:7093  _amount */\n      dup3\n        /* \"w2d1/BaseERC20.sol\":7086:7097  _amount > 0 */\n      gt\n        /* \"w2d1/BaseERC20.sol\":7078:7142  require(_amount > 0, \"Deposit amount must be greater than zero\") */\n      tag_44\n      jumpi\n      mload(0x40)\n      0x08c379a000000000000000000000000000000000000000000000000000000000\n      dup2\n      mstore\n      0x04\n      add\n      tag_45\n      swap1\n      tag_46\n      jump\t// in\n    tag_45:\n      mload(0x40)\n      dup1\n      swap2\n      sub\n      swap1\n      revert\n    tag_44:\n        /* \"w2d1/BaseERC20.sol\":7172:7179  _amount */\n      dup2\n        /* \"w2d1/BaseERC20.sol\":7153:7161  balances */\n      0x01\n        /* \"w2d1/BaseERC20.sol\":7153:7168  balances[_from] */\n      0x00\n        /* \"w2d1/BaseERC20.sol\":7162:7167  _from */\n      dup6\n        /* \"w2d1/BaseERC20.sol\":7153:7168  balances[_from] */\n      0xffffffffffffffffffffffffffffffffffffffff\n      and\n      0xffffffffffffffffffffffffffffffffffffffff\n      and\n      dup2\n      mstore\n      0x20\n      add\n      swap1\n      dup2\n      mstore\n      0x20\n      add\n      0x00\n      keccak256\n      0x00\n        /* \"w2d1/BaseERC20.sol\":7153:7179  balances[_from] += _amount */\n      dup3\n      dup3\n      sload\n      tag_47\n      swap2\n      swap1\n      tag_48\n      jump\t// in\n    tag_47:\n      swap3\n      pop\n      pop\n      dup2\n      swap1\n      sstore\n      pop\n        /* \"w2d1/BaseERC20.sol\":7197:7201  true */\n      0x01\n        /* \"w2d1/BaseERC20.sol\":7190:7201  return true */\n      swap1\n      pop\n        /* \"w2d1/BaseERC20.sol\":6836:7209  function tokensReceived (address _from, uint _amount) external override returns(bool) {... */\n      swap3\n      swap2\n      pop\n      pop\n      jump\t// out\n        /* \"w2d1/BaseERC20.sol\":5218:5262  mapping (address => uint256) public balances */\n    tag_19:\n      mstore(0x20, 0x01)\n      dup1\n      0x00\n      mstore\n      keccak256(0x00, 0x40)\n      0x00\n      swap2\n      pop\n      swap1\n      pop\n      sload\n      dup2\n      jump\t// out\n        /* \"w2d1/BaseERC20.sol\":5832:6297  function withdraw(uint256 _amount) public payable {... */\n    tag_25:\n        /* \"w2d1/BaseERC20.sol\":5911:5912  0 */\n      0x00\n        /* \"w2d1/BaseERC20.sol\":5901:5908  _amount */\n      dup2\n        /* \"w2d1/BaseERC20.sol\":5901:5912  _amount > 0 */\n      gt\n        /* \"w2d1/BaseERC20.sol\":5893:5960  require(_amount > 0, \"Withdraw amount must be greater than zero !\") */\n      tag_50\n      jumpi\n      mload(0x40)\n      0x08c379a000000000000000000000000000000000000000000000000000000000\n      dup2\n      mstore\n      0x04\n      add\n      tag_51\n      swap1\n      tag_52\n      jump\t// in\n    tag_51:\n      mload(0x40)\n      dup1\n      swap2\n      sub\n      swap1\n      revert\n    tag_50:\n        /* \"w2d1/BaseERC20.sol\":6002:6009  _amount */\n      dup1\n        /* \"w2d1/BaseERC20.sol\":5979:5987  balances */\n      0x01\n        /* \"w2d1/BaseERC20.sol\":5979:5999  balances[msg.sender] */\n      0x00\n        /* \"w2d1/BaseERC20.sol\":5988:5998  msg.sender */\n      caller\n        /* \"w2d1/BaseERC20.sol\":5979:5999  balances[msg.sender] */\n      0xffffffffffffffffffffffffffffffffffffffff\n      and\n      0xffffffffffffffffffffffffffffffffffffffff\n      and\n      dup2\n      mstore\n      0x20\n      add\n      swap1\n      dup2\n      mstore\n      0x20\n      add\n      0x00\n      keccak256\n      sload\n        /* \"w2d1/BaseERC20.sol\":5979:6009  balances[msg.sender] > _amount */\n      gt\n        /* \"w2d1/BaseERC20.sol\":5971:6042  require(balances[msg.sender] > _amount, \"Insufficient balance in bank\") */\n      tag_53\n      jumpi\n      mload(0x40)\n      0x08c379a000000000000000000000000000000000000000000000000000000000\n      dup2\n      mstore\n      0x04\n      add\n      tag_54\n      swap1\n      tag_55\n      jump\t// in\n    tag_54:\n      mload(0x40)\n      dup1\n      swap2\n      sub\n      swap1\n      revert\n    tag_53:\n        /* \"w2d1/BaseERC20.sol\":6114:6121  _amount */\n      dup1\n        /* \"w2d1/BaseERC20.sol\":6090:6098  balances */\n      0x01\n        /* \"w2d1/BaseERC20.sol\":6090:6110  balances[msg.sender] */\n      0x00\n        /* \"w2d1/BaseERC20.sol\":6099:6109  msg.sender */\n      caller\n        /* \"w2d1/BaseERC20.sol\":6090:6110  balances[msg.sender] */\n      0xffffffffffffffffffffffffffffffffffffffff\n      and\n      0xffffffffffffffffffffffffffffffffffffffff\n      and\n      dup2\n      mstore\n      0x20\n      add\n      swap1\n      dup2\n      mstore\n      0x20\n      add\n      0x00\n      keccak256\n      0x00\n        /* \"w2d1/BaseERC20.sol\":6090:6121  balances[msg.sender] -= _amount */\n      dup3\n      dup3\n      sload\n      tag_56\n      swap2\n      swap1\n      tag_57\n      jump\t// in\n    tag_56:\n      swap3\n      pop\n      pop\n      dup2\n      swap1\n      sstore\n      pop\n        /* \"w2d1/BaseERC20.sol\":6187:6199  bool success */\n      0x00\n        /* \"w2d1/BaseERC20.sol\":6202:6207  token */\n      dup1\n      0x00\n      swap1\n      sload\n      swap1\n      0x0100\n      exp\n      swap1\n      div\n      0xffffffffffffffffffffffffffffffffffffffff\n      and\n        /* \"w2d1/BaseERC20.sol\":6202:6216  token.transfer */\n      0xffffffffffffffffffffffffffffffffffffffff\n      and\n      0xa9059cbb\n        /* \"w2d1/BaseERC20.sol\":6217:6227  msg.sender */\n      caller\n        /* \"w2d1/BaseERC20.sol\":6229:6236  _amount */\n      dup5\n        /* \"w2d1/BaseERC20.sol\":6202:6237  token.transfer(msg.sender, _amount) */\n      mload(0x40)\n      dup4\n      0xffffffff\n      and\n      0xe0\n      shl\n      dup2\n      mstore\n      0x04\n      add\n      tag_58\n      swap3\n      swap2\n      swap1\n      tag_59\n      jump\t// in\n    tag_58:\n      0x20\n      mload(0x40)\n      dup1\n      dup4\n      sub\n      dup2\n      0x00\n      dup8\n      gas\n      call\n      iszero\n      dup1\n      iszero\n      tag_61\n      jumpi\n      returndatasize\n      0x00\n      dup1\n      returndatacopy\n      revert(0x00, returndatasize)\n    tag_61:\n      pop\n      pop\n      pop\n      pop\n      mload(0x40)\n      returndatasize\n      not(0x1f)\n      0x1f\n      dup3\n      add\n      and\n      dup3\n      add\n      dup1\n      0x40\n      mstore\n      pop\n      dup2\n      add\n      swap1\n      tag_62\n      swap2\n      swap1\n      tag_63\n      jump\t// in\n    tag_62:\n        /* \"w2d1/BaseERC20.sol\":6187:6237  bool success = token.transfer(msg.sender, _amount) */\n      swap1\n      pop\n        /* \"w2d1/BaseERC20.sol\":6256:6263  success */\n      dup1\n        /* \"w2d1/BaseERC20.sol\":6248:6289  require(success, \"Token transfer failed\") */\n      tag_64\n      jumpi\n      mload(0x40)\n      0x08c379a000000000000000000000000000000000000000000000000000000000\n      dup2\n      mstore\n      0x04\n      add\n      tag_65\n      swap1\n      tag_66\n      jump\t// in\n    tag_65:\n      mload(0x40)\n      dup1\n      swap2\n      sub\n      swap1\n      revert\n    tag_64:\n        /* \"w2d1/BaseERC20.sol\":5882:6297  {... */\n      pop\n        /* \"w2d1/BaseERC20.sol\":5832:6297  function withdraw(uint256 _amount) public payable {... */\n      pop\n      jump\t// out\n        /* \"w2d1/BaseERC20.sol\":5464:5777  function deposit(uint _amount) public {... */\n    tag_29:\n        /* \"w2d1/BaseERC20.sol\":5531:5532  0 */\n      0x00\n        /* \"w2d1/BaseERC20.sol\":5521:5528  _amount */\n      dup2\n        /* \"w2d1/BaseERC20.sol\":5521:5532  _amount > 0 */\n      gt\n        /* \"w2d1/BaseERC20.sol\":5513:5577  require(_amount > 0, \"Deposit amount must be greater than zero\") */\n      tag_68\n      jumpi\n      mload(0x40)\n      0x08c379a000000000000000000000000000000000000000000000000000000000\n      dup2\n      mstore\n      0x04\n      add\n      tag_69\n      swap1\n      tag_46\n      jump\t// in\n    tag_69:\n      mload(0x40)\n      dup1\n      swap2\n      sub\n      swap1\n      revert\n    tag_68:\n        /* \"w2d1/BaseERC20.sol\":5588:5600  bool suncess */\n      0x00\n        /* \"w2d1/BaseERC20.sol\":5603:5608  token */\n      dup1\n      0x00\n      swap1\n      sload\n      swap1\n      0x0100\n      exp\n      swap1\n      div\n      0xffffffffffffffffffffffffffffffffffffffff\n      and\n        /* \"w2d1/BaseERC20.sol\":5603:5621  token.transferFrom */\n      0xffffffffffffffffffffffffffffffffffffffff\n      and\n      0x23b872dd\n        /* \"w2d1/BaseERC20.sol\":5622:5632  msg.sender */\n      caller\n        /* \"w2d1/BaseERC20.sol\":5642:5646  this */\n      address\n        /* \"w2d1/BaseERC20.sol\":5649:5656  _amount */\n      dup6\n        /* \"w2d1/BaseERC20.sol\":5603:5657  token.transferFrom(msg.sender, address(this), _amount) */\n      mload(0x40)\n      dup5\n      0xffffffff\n      and\n      0xe0\n      shl\n      dup2\n      mstore\n      0x04\n      add\n      tag_70\n      swap4\n      swap3\n      swap2\n      swap1\n      tag_71\n      jump\t// in\n    tag_70:\n      0x20\n      mload(0x40)\n      dup1\n      dup4\n      sub\n      dup2\n      0x00\n      dup8\n      gas\n      call\n      iszero\n      dup1\n      iszero\n      tag_73\n      jumpi\n      returndatasize\n      0x00\n      dup1\n      returndatacopy\n      revert(0x00, returndatasize)\n    tag_73:\n      pop\n      pop\n      pop\n      pop\n      mload(0x40)\n      returndatasize\n      not(0x1f)\n      0x1f\n      dup3\n      add\n      and\n      dup3\n      add\n      dup1\n      0x40\n      mstore\n      pop\n      dup2\n      add\n      swap1\n      tag_74\n      swap2\n      swap1\n      tag_63\n      jump\t// in\n    tag_74:\n        /* \"w2d1/BaseERC20.sol\":5588:5657  bool suncess = token.transferFrom(msg.sender, address(this), _amount) */\n      swap1\n      pop\n        /* \"w2d1/BaseERC20.sol\":5676:5683  suncess */\n      dup1\n        /* \"w2d1/BaseERC20.sol\":5668:5727  require(suncess, \"Token transfer failed (check allowance)\") */\n      tag_75\n      jumpi\n      mload(0x40)\n      0x08c379a000000000000000000000000000000000000000000000000000000000\n      dup2\n      mstore\n      0x04\n      add\n      tag_76\n      swap1\n      tag_77\n      jump\t// in\n    tag_76:\n      mload(0x40)\n      dup1\n      swap2\n      sub\n      swap1\n      revert\n    tag_75:\n        /* \"w2d1/BaseERC20.sol\":5762:5769  _amount */\n      dup2\n        /* \"w2d1/BaseERC20.sol\":5738:5746  balances */\n      0x01\n        /* \"w2d1/BaseERC20.sol\":5738:5758  balances[msg.sender] */\n      0x00\n        /* \"w2d1/BaseERC20.sol\":5747:5757  msg.sender */\n      caller\n        /* \"w2d1/BaseERC20.sol\":5738:5758  balances[msg.sender] */\n      0xffffffffffffffffffffffffffffffffffffffff\n      and\n      0xffffffffffffffffffffffffffffffffffffffff\n      and\n      dup2\n      mstore\n      0x20\n      add\n      swap1\n      dup2\n      mstore\n      0x20\n      add\n      0x00\n      keccak256\n      0x00\n        /* \"w2d1/BaseERC20.sol\":5738:5769  balances[msg.sender] += _amount */\n      dup3\n      dup3\n      sload\n      tag_78\n      swap2\n      swap1\n      tag_48\n      jump\t// in\n    tag_78:\n      swap3\n      pop\n      pop\n      dup2\n      swap1\n      sstore\n      pop\n        /* \"w2d1/BaseERC20.sol\":5502:5777  {... */\n      pop\n        /* \"w2d1/BaseERC20.sol\":5464:5777  function deposit(uint _amount) public {... */\n      pop\n      jump\t// out\n        /* \"w2d1/BaseERC20.sol\":6416:6521  function getBalance(address _user) public view returns (uint256){... */\n    tag_33:\n        /* \"w2d1/BaseERC20.sol\":6472:6479  uint256 */\n      0x00\n        /* \"w2d1/BaseERC20.sol\":6498:6506  balances */\n      0x01\n        /* \"w2d1/BaseERC20.sol\":6498:6513  balances[_user] */\n      0x00\n        /* \"w2d1/BaseERC20.sol\":6507:6512  _user */\n      dup4\n        /* \"w2d1/BaseERC20.sol\":6498:6513  balances[_user] */\n      0xffffffffffffffffffffffffffffffffffffffff\n      and\n      0xffffffffffffffffffffffffffffffffffffffff\n      and\n      dup2\n      mstore\n      0x20\n      add\n      swap1\n      dup2\n      mstore\n      0x20\n      add\n      0x00\n      keccak256\n      sload\n        /* \"w2d1/BaseERC20.sol\":6491:6513  return balances[_user] */\n      swap1\n      pop\n        /* \"w2d1/BaseERC20.sol\":6416:6521  function getBalance(address _user) public view returns (uint256){... */\n      swap2\n      swap1\n      pop\n      jump\t// out\n        /* \"w2d1/BaseERC20.sol\":5148:5170  BaseERC20 public token */\n    tag_37:\n      0x00\n      dup1\n      sload\n      swap1\n      0x0100\n      exp\n      swap1\n      div\n      0xffffffffffffffffffffffffffffffffffffffff\n      and\n      dup2\n      jump\t// out\n        /* \"#utility.yul\":88:205   */\n    tag_81:\n        /* \"#utility.yul\":197:198   */\n      0x00\n        /* \"#utility.yul\":194:195   */\n      dup1\n        /* \"#utility.yul\":187:199   */\n      revert\n        /* \"#utility.yul\":334:460   */\n    tag_83:\n        /* \"#utility.yul\":371:378   */\n      0x00\n        /* \"#utility.yul\":411:453   */\n      0xffffffffffffffffffffffffffffffffffffffff\n        /* \"#utility.yul\":404:409   */\n      dup3\n        /* \"#utility.yul\":400:454   */\n      and\n        /* \"#utility.yul\":389:454   */\n      swap1\n      pop\n        /* \"#utility.yul\":334:460   */\n      swap2\n      swap1\n      pop\n      jump\t// out\n        /* \"#utility.yul\":466:562   */\n    tag_84:\n        /* \"#utility.yul\":503:510   */\n      0x00\n        /* \"#utility.yul\":532:556   */\n      tag_121\n        /* \"#utility.yul\":550:555   */\n      dup3\n        /* \"#utility.yul\":532:556   */\n      tag_83\n      jump\t// in\n    tag_121:\n        /* \"#utility.yul\":521:556   */\n      swap1\n      pop\n        /* \"#utility.yul\":466:562   */\n      swap2\n      swap1\n      pop\n      jump\t// out\n        /* \"#utility.yul\":568:690   */\n    tag_85:\n        /* \"#utility.yul\":641:665   */\n      tag_123\n        /* \"#utility.yul\":659:664   */\n      dup2\n        /* \"#utility.yul\":641:665   */\n      tag_84\n      jump\t// in\n    tag_123:\n        /* \"#utility.yul\":634:639   */\n      dup2\n        /* \"#utility.yul\":631:666   */\n      eq\n        /* \"#utility.yul\":621:684   */\n      tag_124\n      jumpi\n        /* \"#utility.yul\":680:681   */\n      0x00\n        /* \"#utility.yul\":677:678   */\n      dup1\n        /* \"#utility.yul\":670:682   */\n      revert\n        /* \"#utility.yul\":621:684   */\n    tag_124:\n        /* \"#utility.yul\":568:690   */\n      pop\n      jump\t// out\n        /* \"#utility.yul\":696:835   */\n    tag_86:\n        /* \"#utility.yul\":742:747   */\n      0x00\n        /* \"#utility.yul\":780:786   */\n      dup2\n        /* \"#utility.yul\":767:787   */\n      calldataload\n        /* \"#utility.yul\":758:787   */\n      swap1\n      pop\n        /* \"#utility.yul\":796:829   */\n      tag_126\n        /* \"#utility.yul\":823:828   */\n      dup2\n        /* \"#utility.yul\":796:829   */\n      tag_85\n      jump\t// in\n    tag_126:\n        /* \"#utility.yul\":696:835   */\n      swap3\n      swap2\n      pop\n      pop\n      jump\t// out\n        /* \"#utility.yul\":841:918   */\n    tag_87:\n        /* \"#utility.yul\":878:885   */\n      0x00\n        /* \"#utility.yul\":907:912   */\n      dup2\n        /* \"#utility.yul\":896:912   */\n      swap1\n      pop\n        /* \"#utility.yul\":841:918   */\n      swap2\n      swap1\n      pop\n      jump\t// out\n        /* \"#utility.yul\":924:1046   */\n    tag_88:\n        /* \"#utility.yul\":997:1021   */\n      tag_129\n        /* \"#utility.yul\":1015:1020   */\n      dup2\n        /* \"#utility.yul\":997:1021   */\n      tag_87\n      jump\t// in\n    tag_129:\n        /* \"#utility.yul\":990:995   */\n      dup2\n        /* \"#utility.yul\":987:1022   */\n      eq\n        /* \"#utility.yul\":977:1040   */\n      tag_130\n      jumpi\n        /* \"#utility.yul\":1036:1037   */\n      0x00\n        /* \"#utility.yul\":1033:1034   */\n      dup1\n        /* \"#utility.yul\":1026:1038   */\n      revert\n        /* \"#utility.yul\":977:1040   */\n    tag_130:\n        /* \"#utility.yul\":924:1046   */\n      pop\n      jump\t// out\n        /* \"#utility.yul\":1052:1191   */\n    tag_89:\n        /* \"#utility.yul\":1098:1103   */\n      0x00\n        /* \"#utility.yul\":1136:1142   */\n      dup2\n        /* \"#utility.yul\":1123:1143   */\n      calldataload\n        /* \"#utility.yul\":1114:1143   */\n      swap1\n      pop\n        /* \"#utility.yul\":1152:1185   */\n      tag_132\n        /* \"#utility.yul\":1179:1184   */\n      dup2\n        /* \"#utility.yul\":1152:1185   */\n      tag_88\n      jump\t// in\n    tag_132:\n        /* \"#utility.yul\":1052:1191   */\n      swap3\n      swap2\n      pop\n      pop\n      jump\t// out\n        /* \"#utility.yul\":1197:1671   */\n    tag_11:\n        /* \"#utility.yul\":1265:1271   */\n      0x00\n        /* \"#utility.yul\":1273:1279   */\n      dup1\n        /* \"#utility.yul\":1322:1324   */\n      0x40\n        /* \"#utility.yul\":1310:1319   */\n      dup4\n        /* \"#utility.yul\":1301:1308   */\n      dup6\n        /* \"#utility.yul\":1297:1320   */\n      sub\n        /* \"#utility.yul\":1293:1325   */\n      slt\n        /* \"#utility.yul\":1290:1409   */\n      iszero\n      tag_134\n      jumpi\n        /* \"#utility.yul\":1328:1407   */\n      tag_135\n      tag_81\n      jump\t// in\n    tag_135:\n        /* \"#utility.yul\":1290:1409   */\n    tag_134:\n        /* \"#utility.yul\":1448:1449   */\n      0x00\n        /* \"#utility.yul\":1473:1526   */\n      tag_136\n        /* \"#utility.yul\":1518:1525   */\n      dup6\n        /* \"#utility.yul\":1509:1515   */\n      dup3\n        /* \"#utility.yul\":1498:1507   */\n      dup7\n        /* \"#utility.yul\":1494:1516   */\n      add\n        /* \"#utility.yul\":1473:1526   */\n      tag_86\n      jump\t// in\n    tag_136:\n        /* \"#utility.yul\":1463:1526   */\n      swap3\n      pop\n        /* \"#utility.yul\":1419:1536   */\n      pop\n        /* \"#utility.yul\":1575:1577   */\n      0x20\n        /* \"#utility.yul\":1601:1654   */\n      tag_137\n        /* \"#utility.yul\":1646:1653   */\n      dup6\n        /* \"#utility.yul\":1637:1643   */\n      dup3\n        /* \"#utility.yul\":1626:1635   */\n      dup7\n        /* \"#utility.yul\":1622:1644   */\n      add\n        /* \"#utility.yul\":1601:1654   */\n      tag_89\n      jump\t// in\n    tag_137:\n        /* \"#utility.yul\":1591:1654   */\n      swap2\n      pop\n        /* \"#utility.yul\":1546:1664   */\n      pop\n        /* \"#utility.yul\":1197:1671   */\n      swap3\n      pop\n      swap3\n      swap1\n      pop\n      jump\t// out\n        /* \"#utility.yul\":1677:1767   */\n    tag_90:\n        /* \"#utility.yul\":1711:1718   */\n      0x00\n        /* \"#utility.yul\":1754:1759   */\n      dup2\n        /* \"#utility.yul\":1747:1760   */\n      iszero\n        /* \"#utility.yul\":1740:1761   */\n      iszero\n        /* \"#utility.yul\":1729:1761   */\n      swap1\n      pop\n        /* \"#utility.yul\":1677:1767   */\n      swap2\n      swap1\n      pop\n      jump\t// out\n        /* \"#utility.yul\":1773:1882   */\n    tag_91:\n        /* \"#utility.yul\":1854:1875   */\n      tag_140\n        /* \"#utility.yul\":1869:1874   */\n      dup2\n        /* \"#utility.yul\":1854:1875   */\n      tag_90\n      jump\t// in\n    tag_140:\n        /* \"#utility.yul\":1849:1852   */\n      dup3\n        /* \"#utility.yul\":1842:1876   */\n      mstore\n        /* \"#utility.yul\":1773:1882   */\n      pop\n      pop\n      jump\t// out\n        /* \"#utility.yul\":1888:2098   */\n    tag_14:\n        /* \"#utility.yul\":1975:1979   */\n      0x00\n        /* \"#utility.yul\":2013:2015   */\n      0x20\n        /* \"#utility.yul\":2002:2011   */\n      dup3\n        /* \"#utility.yul\":1998:2016   */\n      add\n        /* \"#utility.yul\":1990:2016   */\n      swap1\n      pop\n        /* \"#utility.yul\":2026:2091   */\n      tag_142\n        /* \"#utility.yul\":2088:2089   */\n      0x00\n        /* \"#utility.yul\":2077:2086   */\n      dup4\n        /* \"#utility.yul\":2073:2090   */\n      add\n        /* \"#utility.yul\":2064:2070   */\n      dup5\n        /* \"#utility.yul\":2026:2091   */\n      tag_91\n      jump\t// in\n    tag_142:\n        /* \"#utility.yul\":1888:2098   */\n      swap3\n      swap2\n      pop\n      pop\n      jump\t// out\n        /* \"#utility.yul\":2104:2433   */\n    tag_18:\n        /* \"#utility.yul\":2163:2169   */\n      0x00\n        /* \"#utility.yul\":2212:2214   */\n      0x20\n        /* \"#utility.yul\":2200:2209   */\n      dup3\n        /* \"#utility.yul\":2191:2198   */\n      dup5\n        /* \"#utility.yul\":2187:2210   */\n      sub\n        /* \"#utility.yul\":2183:2215   */\n      slt\n        /* \"#utility.yul\":2180:2299   */\n      iszero\n      tag_144\n      jumpi\n        /* \"#utility.yul\":2218:2297   */\n      tag_145\n      tag_81\n      jump\t// in\n    tag_145:\n        /* \"#utility.yul\":2180:2299   */\n    tag_144:\n        /* \"#utility.yul\":2338:2339   */\n      0x00\n        /* \"#utility.yul\":2363:2416   */\n      tag_146\n        /* \"#utility.yul\":2408:2415   */\n      dup5\n        /* \"#utility.yul\":2399:2405   */\n      dup3\n        /* \"#utility.yul\":2388:2397   */\n      dup6\n        /* \"#utility.yul\":2384:2406   */\n      add\n        /* \"#utility.yul\":2363:2416   */\n      tag_86\n      jump\t// in\n    tag_146:\n        /* \"#utility.yul\":2353:2416   */\n      swap2\n      pop\n        /* \"#utility.yul\":2309:2426   */\n      pop\n        /* \"#utility.yul\":2104:2433   */\n      swap3\n      swap2\n      pop\n      pop\n      jump\t// out\n        /* \"#utility.yul\":2439:2557   */\n    tag_92:\n        /* \"#utility.yul\":2526:2550   */\n      tag_148\n        /* \"#utility.yul\":2544:2549   */\n      dup2\n        /* \"#utility.yul\":2526:2550   */\n      tag_87\n      jump\t// in\n    tag_148:\n        /* \"#utility.yul\":2521:2524   */\n      dup3\n        /* \"#utility.yul\":2514:2551   */\n      mstore\n        /* \"#utility.yul\":2439:2557   */\n      pop\n      pop\n      jump\t// out\n        /* \"#utility.yul\":2563:2785   */\n    tag_21:\n        /* \"#utility.yul\":2656:2660   */\n      0x00\n        /* \"#utility.yul\":2694:2696   */\n      0x20\n        /* \"#utility.yul\":2683:2692   */\n      dup3\n        /* \"#utility.yul\":2679:2697   */\n      add\n        /* \"#utility.yul\":2671:2697   */\n      swap1\n      pop\n        /* \"#utility.yul\":2707:2778   */\n      tag_150\n        /* \"#utility.yul\":2775:2776   */\n      0x00\n        /* \"#utility.yul\":2764:2773   */\n      dup4\n        /* \"#utility.yul\":2760:2777   */\n      add\n        /* \"#utility.yul\":2751:2757   */\n      dup5\n        /* \"#utility.yul\":2707:2778   */\n      tag_92\n      jump\t// in\n    tag_150:\n        /* \"#utility.yul\":2563:2785   */\n      swap3\n      swap2\n      pop\n      pop\n      jump\t// out\n        /* \"#utility.yul\":2791:3120   */\n    tag_24:\n        /* \"#utility.yul\":2850:2856   */\n      0x00\n        /* \"#utility.yul\":2899:2901   */\n      0x20\n        /* \"#utility.yul\":2887:2896   */\n      dup3\n        /* \"#utility.yul\":2878:2885   */\n      dup5\n        /* \"#utility.yul\":2874:2897   */\n      sub\n        /* \"#utility.yul\":2870:2902   */\n      slt\n        /* \"#utility.yul\":2867:2986   */\n      iszero\n      tag_152\n      jumpi\n        /* \"#utility.yul\":2905:2984   */\n      tag_153\n      tag_81\n      jump\t// in\n    tag_153:\n        /* \"#utility.yul\":2867:2986   */\n    tag_152:\n        /* \"#utility.yul\":3025:3026   */\n      0x00\n        /* \"#utility.yul\":3050:3103   */\n      tag_154\n        /* \"#utility.yul\":3095:3102   */\n      dup5\n        /* \"#utility.yul\":3086:3092   */\n      dup3\n        /* \"#utility.yul\":3075:3084   */\n      dup6\n        /* \"#utility.yul\":3071:3093   */\n      add\n        /* \"#utility.yul\":3050:3103   */\n      tag_89\n      jump\t// in\n    tag_154:\n        /* \"#utility.yul\":3040:3103   */\n      swap2\n      pop\n        /* \"#utility.yul\":2996:3113   */\n      pop\n        /* \"#utility.yul\":2791:3120   */\n      swap3\n      swap2\n      pop\n      pop\n      jump\t// out\n        /* \"#utility.yul\":3126:3186   */\n    tag_93:\n        /* \"#utility.yul\":3154:3157   */\n      0x00\n        /* \"#utility.yul\":3175:3180   */\n      dup2\n        /* \"#utility.yul\":3168:3180   */\n      swap1\n      pop\n        /* \"#utility.yul\":3126:3186   */\n      swap2\n      swap1\n      pop\n      jump\t// out\n        /* \"#utility.yul\":3192:3334   */\n    tag_94:\n        /* \"#utility.yul\":3242:3251   */\n      0x00\n        /* \"#utility.yul\":3275:3328   */\n      tag_157\n        /* \"#utility.yul\":3293:3327   */\n      tag_158\n        /* \"#utility.yul\":3302:3326   */\n      tag_159\n        /* \"#utility.yul\":3320:3325   */\n      dup5\n        /* \"#utility.yul\":3302:3326   */\n      tag_83\n      jump\t// in\n    tag_159:\n        /* \"#utility.yul\":3293:3327   */\n      tag_93\n      jump\t// in\n    tag_158:\n        /* \"#utility.yul\":3275:3328   */\n      tag_83\n      jump\t// in\n    tag_157:\n        /* \"#utility.yul\":3262:3328   */\n      swap1\n      pop\n        /* \"#utility.yul\":3192:3334   */\n      swap2\n      swap1\n      pop\n      jump\t// out\n        /* \"#utility.yul\":3340:3466   */\n    tag_95:\n        /* \"#utility.yul\":3390:3399   */\n      0x00\n        /* \"#utility.yul\":3423:3460   */\n      tag_161\n        /* \"#utility.yul\":3454:3459   */\n      dup3\n        /* \"#utility.yul\":3423:3460   */\n      tag_94\n      jump\t// in\n    tag_161:\n        /* \"#utility.yul\":3410:3460   */\n      swap1\n      pop\n        /* \"#utility.yul\":3340:3466   */\n      swap2\n      swap1\n      pop\n      jump\t// out\n        /* \"#utility.yul\":3472:3615   */\n    tag_96:\n        /* \"#utility.yul\":3539:3548   */\n      0x00\n        /* \"#utility.yul\":3572:3609   */\n      tag_163\n        /* \"#utility.yul\":3603:3608   */\n      dup3\n        /* \"#utility.yul\":3572:3609   */\n      tag_95\n      jump\t// in\n    tag_163:\n        /* \"#utility.yul\":3559:3609   */\n      swap1\n      pop\n        /* \"#utility.yul\":3472:3615   */\n      swap2\n      swap1\n      pop\n      jump\t// out\n        /* \"#utility.yul\":3621:3786   */\n    tag_97:\n        /* \"#utility.yul\":3725:3779   */\n      tag_165\n        /* \"#utility.yul\":3773:3778   */\n      dup2\n        /* \"#utility.yul\":3725:3779   */\n      tag_96\n      jump\t// in\n    tag_165:\n        /* \"#utility.yul\":3720:3723   */\n      dup3\n        /* \"#utility.yul\":3713:3780   */\n      mstore\n        /* \"#utility.yul\":3621:3786   */\n      pop\n      pop\n      jump\t// out\n        /* \"#utility.yul\":3792:4048   */\n    tag_39:\n        /* \"#utility.yul\":3902:3906   */\n      0x00\n        /* \"#utility.yul\":3940:3942   */\n      0x20\n        /* \"#utility.yul\":3929:3938   */\n      dup3\n        /* \"#utility.yul\":3925:3943   */\n      add\n        /* \"#utility.yul\":3917:3943   */\n      swap1\n      pop\n        /* \"#utility.yul\":3953:4041   */\n      tag_167\n        /* \"#utility.yul\":4038:4039   */\n      0x00\n        /* \"#utility.yul\":4027:4036   */\n      dup4\n        /* \"#utility.yul\":4023:4040   */\n      add\n        /* \"#utility.yul\":4014:4020   */\n      dup5\n        /* \"#utility.yul\":3953:4041   */\n      tag_97\n      jump\t// in\n    tag_167:\n        /* \"#utility.yul\":3792:4048   */\n      swap3\n      swap2\n      pop\n      pop\n      jump\t// out\n        /* \"#utility.yul\":4054:4223   */\n    tag_98:\n        /* \"#utility.yul\":4138:4149   */\n      0x00\n        /* \"#utility.yul\":4172:4178   */\n      dup3\n        /* \"#utility.yul\":4167:4170   */\n      dup3\n        /* \"#utility.yul\":4160:4179   */\n      mstore\n        /* \"#utility.yul\":4212:4216   */\n      0x20\n        /* \"#utility.yul\":4207:4210   */\n      dup3\n        /* \"#utility.yul\":4203:4217   */\n      add\n        /* \"#utility.yul\":4188:4217   */\n      swap1\n      pop\n        /* \"#utility.yul\":4054:4223   */\n      swap3\n      swap2\n      pop\n      pop\n      jump\t// out\n        /* \"#utility.yul\":4229:4401   */\n    tag_99:\n        /* \"#utility.yul\":4369:4393   */\n      0x4e6f74207468652076616c696420616464726573732100000000000000000000\n        /* \"#utility.yul\":4365:4366   */\n      0x00\n        /* \"#utility.yul\":4357:4363   */\n      dup3\n        /* \"#utility.yul\":4353:4367   */\n      add\n        /* \"#utility.yul\":4346:4394   */\n      mstore\n        /* \"#utility.yul\":4229:4401   */\n      pop\n      jump\t// out\n        /* \"#utility.yul\":4407:4773   */\n    tag_100:\n        /* \"#utility.yul\":4549:4552   */\n      0x00\n        /* \"#utility.yul\":4570:4637   */\n      tag_171\n        /* \"#utility.yul\":4634:4636   */\n      0x16\n        /* \"#utility.yul\":4629:4632   */\n      dup4\n        /* \"#utility.yul\":4570:4637   */\n      tag_98\n      jump\t// in\n    tag_171:\n        /* \"#utility.yul\":4563:4637   */\n      swap2\n      pop\n        /* \"#utility.yul\":4646:4739   */\n      tag_172\n        /* \"#utility.yul\":4735:4738   */\n      dup3\n        /* \"#utility.yul\":4646:4739   */\n      tag_99\n      jump\t// in\n    tag_172:\n        /* \"#utility.yul\":4764:4766   */\n      0x20\n        /* \"#utility.yul\":4759:4762   */\n      dup3\n        /* \"#utility.yul\":4755:4767   */\n      add\n        /* \"#utility.yul\":4748:4767   */\n      swap1\n      pop\n        /* \"#utility.yul\":4407:4773   */\n      swap2\n      swap1\n      pop\n      jump\t// out\n        /* \"#utility.yul\":4779:5198   */\n    tag_43:\n        /* \"#utility.yul\":4945:4949   */\n      0x00\n        /* \"#utility.yul\":4983:4985   */\n      0x20\n        /* \"#utility.yul\":4972:4981   */\n      dup3\n        /* \"#utility.yul\":4968:4986   */\n      add\n        /* \"#utility.yul\":4960:4986   */\n      swap1\n      pop\n        /* \"#utility.yul\":5032:5041   */\n      dup2\n        /* \"#utility.yul\":5026:5030   */\n      dup2\n        /* \"#utility.yul\":5022:5042   */\n      sub\n        /* \"#utility.yul\":5018:5019   */\n      0x00\n        /* \"#utility.yul\":5007:5016   */\n      dup4\n        /* \"#utility.yul\":5003:5020   */\n      add\n        /* \"#utility.yul\":4996:5043   */\n      mstore\n        /* \"#utility.yul\":5060:5191   */\n      tag_174\n        /* \"#utility.yul\":5186:5190   */\n      dup2\n        /* \"#utility.yul\":5060:5191   */\n      tag_100\n      jump\t// in\n    tag_174:\n        /* \"#utility.yul\":5052:5191   */\n      swap1\n      pop\n        /* \"#utility.yul\":4779:5198   */\n      swap2\n      swap1\n      pop\n      jump\t// out\n        /* \"#utility.yul\":5204:5431   */\n    tag_101:\n        /* \"#utility.yul\":5344:5378   */\n      0x4465706f73697420616d6f756e74206d75737420626520677265617465722074\n        /* \"#utility.yul\":5340:5341   */\n      0x00\n        /* \"#utility.yul\":5332:5338   */\n      dup3\n        /* \"#utility.yul\":5328:5342   */\n      add\n        /* \"#utility.yul\":5321:5379   */\n      mstore\n        /* \"#utility.yul\":5413:5423   */\n      0x68616e207a65726f000000000000000000000000000000000000000000000000\n        /* \"#utility.yul\":5408:5410   */\n      0x20\n        /* \"#utility.yul\":5400:5406   */\n      dup3\n        /* \"#utility.yul\":5396:5411   */\n      add\n        /* \"#utility.yul\":5389:5424   */\n      mstore\n        /* \"#utility.yul\":5204:5431   */\n      pop\n      jump\t// out\n        /* \"#utility.yul\":5437:5803   */\n    tag_102:\n        /* \"#utility.yul\":5579:5582   */\n      0x00\n        /* \"#utility.yul\":5600:5667   */\n      tag_177\n        /* \"#utility.yul\":5664:5666   */\n      0x28\n        /* \"#utility.yul\":5659:5662   */\n      dup4\n        /* \"#utility.yul\":5600:5667   */\n      tag_98\n      jump\t// in\n    tag_177:\n        /* \"#utility.yul\":5593:5667   */\n      swap2\n      pop\n        /* \"#utility.yul\":5676:5769   */\n      tag_178\n        /* \"#utility.yul\":5765:5768   */\n      dup3\n        /* \"#utility.yul\":5676:5769   */\n      tag_101\n      jump\t// in\n    tag_178:\n        /* \"#utility.yul\":5794:5796   */\n      0x40\n        /* \"#utility.yul\":5789:5792   */\n      dup3\n        /* \"#utility.yul\":5785:5797   */\n      add\n        /* \"#utility.yul\":5778:5797   */\n      swap1\n      pop\n        /* \"#utility.yul\":5437:5803   */\n      swap2\n      swap1\n      pop\n      jump\t// out\n        /* \"#utility.yul\":5809:6228   */\n    tag_46:\n        /* \"#utility.yul\":5975:5979   */\n      0x00\n        /* \"#utility.yul\":6013:6015   */\n      0x20\n        /* \"#utility.yul\":6002:6011   */\n      dup3\n        /* \"#utility.yul\":5998:6016   */\n      add\n        /* \"#utility.yul\":5990:6016   */\n      swap1\n      pop\n        /* \"#utility.yul\":6062:6071   */\n      dup2\n        /* \"#utility.yul\":6056:6060   */\n      dup2\n        /* \"#utility.yul\":6052:6072   */\n      sub\n        /* \"#utility.yul\":6048:6049   */\n      0x00\n        /* \"#utility.yul\":6037:6046   */\n      dup4\n        /* \"#utility.yul\":6033:6050   */\n      add\n        /* \"#utility.yul\":6026:6073   */\n      mstore\n        /* \"#utility.yul\":6090:6221   */\n      tag_180\n        /* \"#utility.yul\":6216:6220   */\n      dup2\n        /* \"#utility.yul\":6090:6221   */\n      tag_102\n      jump\t// in\n    tag_180:\n        /* \"#utility.yul\":6082:6221   */\n      swap1\n      pop\n        /* \"#utility.yul\":5809:6228   */\n      swap2\n      swap1\n      pop\n      jump\t// out\n        /* \"#utility.yul\":6234:6414   */\n    tag_103:\n        /* \"#utility.yul\":6282:6359   */\n      0x4e487b7100000000000000000000000000000000000000000000000000000000\n        /* \"#utility.yul\":6279:6280   */\n      0x00\n        /* \"#utility.yul\":6272:6360   */\n      mstore\n        /* \"#utility.yul\":6379:6383   */\n      0x11\n        /* \"#utility.yul\":6376:6377   */\n      0x04\n        /* \"#utility.yul\":6369:6384   */\n      mstore\n        /* \"#utility.yul\":6403:6407   */\n      0x24\n        /* \"#utility.yul\":6400:6401   */\n      0x00\n        /* \"#utility.yul\":6393:6408   */\n      revert\n        /* \"#utility.yul\":6420:6611   */\n    tag_48:\n        /* \"#utility.yul\":6460:6463   */\n      0x00\n        /* \"#utility.yul\":6479:6499   */\n      tag_183\n        /* \"#utility.yul\":6497:6498   */\n      dup3\n        /* \"#utility.yul\":6479:6499   */\n      tag_87\n      jump\t// in\n    tag_183:\n        /* \"#utility.yul\":6474:6499   */\n      swap2\n      pop\n        /* \"#utility.yul\":6513:6533   */\n      tag_184\n        /* \"#utility.yul\":6531:6532   */\n      dup4\n        /* \"#utility.yul\":6513:6533   */\n      tag_87\n      jump\t// in\n    tag_184:\n        /* \"#utility.yul\":6508:6533   */\n      swap3\n      pop\n        /* \"#utility.yul\":6556:6557   */\n      dup3\n        /* \"#utility.yul\":6553:6554   */\n      dup3\n        /* \"#utility.yul\":6549:6558   */\n      add\n        /* \"#utility.yul\":6542:6558   */\n      swap1\n      pop\n        /* \"#utility.yul\":6577:6580   */\n      dup1\n        /* \"#utility.yul\":6574:6575   */\n      dup3\n        /* \"#utility.yul\":6571:6581   */\n      gt\n        /* \"#utility.yul\":6568:6604   */\n      iszero\n      tag_185\n      jumpi\n        /* \"#utility.yul\":6584:6602   */\n      tag_186\n      tag_103\n      jump\t// in\n    tag_186:\n        /* \"#utility.yul\":6568:6604   */\n    tag_185:\n        /* \"#utility.yul\":6420:6611   */\n      swap3\n      swap2\n      pop\n      pop\n      jump\t// out\n        /* \"#utility.yul\":6617:6847   */\n    tag_104:\n        /* \"#utility.yul\":6757:6791   */\n      0x576974686472617720616d6f756e74206d757374206265206772656174657220\n        /* \"#utility.yul\":6753:6754   */\n      0x00\n        /* \"#utility.yul\":6745:6751   */\n      dup3\n        /* \"#utility.yul\":6741:6755   */\n      add\n        /* \"#utility.yul\":6734:6792   */\n      mstore\n        /* \"#utility.yul\":6826:6839   */\n      0x7468616e207a65726f2021000000000000000000000000000000000000000000\n        /* \"#utility.yul\":6821:6823   */\n      0x20\n        /* \"#utility.yul\":6813:6819   */\n      dup3\n        /* \"#utility.yul\":6809:6824   */\n      add\n        /* \"#utility.yul\":6802:6840   */\n      mstore\n        /* \"#utility.yul\":6617:6847   */\n      pop\n      jump\t// out\n        /* \"#utility.yul\":6853:7219   */\n    tag_105:\n        /* \"#utility.yul\":6995:6998   */\n      0x00\n        /* \"#utility.yul\":7016:7083   */\n      tag_189\n        /* \"#utility.yul\":7080:7082   */\n      0x2b\n        /* \"#utility.yul\":7075:7078   */\n      dup4\n        /* \"#utility.yul\":7016:7083   */\n      tag_98\n      jump\t// in\n    tag_189:\n        /* \"#utility.yul\":7009:7083   */\n      swap2\n      pop\n        /* \"#utility.yul\":7092:7185   */\n      tag_190\n        /* \"#utility.yul\":7181:7184   */\n      dup3\n        /* \"#utility.yul\":7092:7185   */\n      tag_104\n      jump\t// in\n    tag_190:\n        /* \"#utility.yul\":7210:7212   */\n      0x40\n        /* \"#utility.yul\":7205:7208   */\n      dup3\n        /* \"#utility.yul\":7201:7213   */\n      add\n        /* \"#utility.yul\":7194:7213   */\n      swap1\n      pop\n        /* \"#utility.yul\":6853:7219   */\n      swap2\n      swap1\n      pop\n      jump\t// out\n        /* \"#utility.yul\":7225:7644   */\n    tag_52:\n        /* \"#utility.yul\":7391:7395   */\n      0x00\n        /* \"#utility.yul\":7429:7431   */\n      0x20\n        /* \"#utility.yul\":7418:7427   */\n      dup3\n        /* \"#utility.yul\":7414:7432   */\n      add\n        /* \"#utility.yul\":7406:7432   */\n      swap1\n      pop\n        /* \"#utility.yul\":7478:7487   */\n      dup2\n        /* \"#utility.yul\":7472:7476   */\n      dup2\n        /* \"#utility.yul\":7468:7488   */\n      sub\n        /* \"#utility.yul\":7464:7465   */\n      0x00\n        /* \"#utility.yul\":7453:7462   */\n      dup4\n        /* \"#utility.yul\":7449:7466   */\n      add\n        /* \"#utility.yul\":7442:7489   */\n      mstore\n        /* \"#utility.yul\":7506:7637   */\n      tag_192\n        /* \"#utility.yul\":7632:7636   */\n      dup2\n        /* \"#utility.yul\":7506:7637   */\n      tag_105\n      jump\t// in\n    tag_192:\n        /* \"#utility.yul\":7498:7637   */\n      swap1\n      pop\n        /* \"#utility.yul\":7225:7644   */\n      swap2\n      swap1\n      pop\n      jump\t// out\n        /* \"#utility.yul\":7650:7828   */\n    tag_106:\n        /* \"#utility.yul\":7790:7820   */\n      0x496e73756666696369656e742062616c616e636520696e2062616e6b00000000\n        /* \"#utility.yul\":7786:7787   */\n      0x00\n        /* \"#utility.yul\":7778:7784   */\n      dup3\n        /* \"#utility.yul\":7774:7788   */\n      add\n        /* \"#utility.yul\":7767:7821   */\n      mstore\n        /* \"#utility.yul\":7650:7828   */\n      pop\n      jump\t// out\n        /* \"#utility.yul\":7834:8200   */\n    tag_107:\n        /* \"#utility.yul\":7976:7979   */\n      0x00\n        /* \"#utility.yul\":7997:8064   */\n      tag_195\n        /* \"#utility.yul\":8061:8063   */\n      0x1c\n        /* \"#utility.yul\":8056:8059   */\n      dup4\n        /* \"#utility.yul\":7997:8064   */\n      tag_98\n      jump\t// in\n    tag_195:\n        /* \"#utility.yul\":7990:8064   */\n      swap2\n      pop\n        /* \"#utility.yul\":8073:8166   */\n      tag_196\n        /* \"#utility.yul\":8162:8165   */\n      dup3\n        /* \"#utility.yul\":8073:8166   */\n      tag_106\n      jump\t// in\n    tag_196:\n        /* \"#utility.yul\":8191:8193   */\n      0x20\n        /* \"#utility.yul\":8186:8189   */\n      dup3\n        /* \"#utility.yul\":8182:8194   */\n      add\n        /* \"#utility.yul\":8175:8194   */\n      swap1\n      pop\n        /* \"#utility.yul\":7834:8200   */\n      swap2\n      swap1\n      pop\n      jump\t// out\n        /* \"#utility.yul\":8206:8625   */\n    tag_55:\n        /* \"#utility.yul\":8372:8376   */\n      0x00\n        /* \"#utility.yul\":8410:8412   */\n      0x20\n        /* \"#utility.yul\":8399:8408   */\n      dup3\n        /* \"#utility.yul\":8395:8413   */\n      add\n        /* \"#utility.yul\":8387:8413   */\n      swap1\n      pop\n        /* \"#utility.yul\":8459:8468   */\n      dup2\n        /* \"#utility.yul\":8453:8457   */\n      dup2\n        /* \"#utility.yul\":8449:8469   */\n      sub\n        /* \"#utility.yul\":8445:8446   */\n      0x00\n        /* \"#utility.yul\":8434:8443   */\n      dup4\n        /* \"#utility.yul\":8430:8447   */\n      add\n        /* \"#utility.yul\":8423:8470   */\n      mstore\n        /* \"#utility.yul\":8487:8618   */\n      tag_198\n        /* \"#utility.yul\":8613:8617   */\n      dup2\n        /* \"#utility.yul\":8487:8618   */\n      tag_107\n      jump\t// in\n    tag_198:\n        /* \"#utility.yul\":8479:8618   */\n      swap1\n      pop\n        /* \"#utility.yul\":8206:8625   */\n      swap2\n      swap1\n      pop\n      jump\t// out\n        /* \"#utility.yul\":8631:8825   */\n    tag_57:\n        /* \"#utility.yul\":8671:8675   */\n      0x00\n        /* \"#utility.yul\":8691:8711   */\n      tag_200\n        /* \"#utility.yul\":8709:8710   */\n      dup3\n        /* \"#utility.yul\":8691:8711   */\n      tag_87\n      jump\t// in\n    tag_200:\n        /* \"#utility.yul\":8686:8711   */\n      swap2\n      pop\n        /* \"#utility.yul\":8725:8745   */\n      tag_201\n        /* \"#utility.yul\":8743:8744   */\n      dup4\n        /* \"#utility.yul\":8725:8745   */\n      tag_87\n      jump\t// in\n    tag_201:\n        /* \"#utility.yul\":8720:8745   */\n      swap3\n      pop\n        /* \"#utility.yul\":8769:8770   */\n      dup3\n        /* \"#utility.yul\":8766:8767   */\n      dup3\n        /* \"#utility.yul\":8762:8771   */\n      sub\n        /* \"#utility.yul\":8754:8771   */\n      swap1\n      pop\n        /* \"#utility.yul\":8793:8794   */\n      dup2\n        /* \"#utility.yul\":8787:8791   */\n      dup2\n        /* \"#utility.yul\":8784:8795   */\n      gt\n        /* \"#utility.yul\":8781:8818   */\n      iszero\n      tag_202\n      jumpi\n        /* \"#utility.yul\":8798:8816   */\n      tag_203\n      tag_103\n      jump\t// in\n    tag_203:\n        /* \"#utility.yul\":8781:8818   */\n    tag_202:\n        /* \"#utility.yul\":8631:8825   */\n      swap3\n      swap2\n      pop\n      pop\n      jump\t// out\n        /* \"#utility.yul\":8831:8949   */\n    tag_108:\n        /* \"#utility.yul\":8918:8942   */\n      tag_205\n        /* \"#utility.yul\":8936:8941   */\n      dup2\n        /* \"#utility.yul\":8918:8942   */\n      tag_84\n      jump\t// in\n    tag_205:\n        /* \"#utility.yul\":8913:8916   */\n      dup3\n        /* \"#utility.yul\":8906:8943   */\n      mstore\n        /* \"#utility.yul\":8831:8949   */\n      pop\n      pop\n      jump\t// out\n        /* \"#utility.yul\":8955:9287   */\n    tag_59:\n        /* \"#utility.yul\":9076:9080   */\n      0x00\n        /* \"#utility.yul\":9114:9116   */\n      0x40\n        /* \"#utility.yul\":9103:9112   */\n      dup3\n        /* \"#utility.yul\":9099:9117   */\n      add\n        /* \"#utility.yul\":9091:9117   */\n      swap1\n      pop\n        /* \"#utility.yul\":9127:9198   */\n      tag_207\n        /* \"#utility.yul\":9195:9196   */\n      0x00\n        /* \"#utility.yul\":9184:9193   */\n      dup4\n        /* \"#utility.yul\":9180:9197   */\n      add\n        /* \"#utility.yul\":9171:9177   */\n      dup6\n        /* \"#utility.yul\":9127:9198   */\n      tag_108\n      jump\t// in\n    tag_207:\n        /* \"#utility.yul\":9208:9280   */\n      tag_208\n        /* \"#utility.yul\":9276:9278   */\n      0x20\n        /* \"#utility.yul\":9265:9274   */\n      dup4\n        /* \"#utility.yul\":9261:9279   */\n      add\n        /* \"#utility.yul\":9252:9258   */\n      dup5\n        /* \"#utility.yul\":9208:9280   */\n      tag_92\n      jump\t// in\n    tag_208:\n        /* \"#utility.yul\":8955:9287   */\n      swap4\n      swap3\n      pop\n      pop\n      pop\n      jump\t// out\n        /* \"#utility.yul\":9293:9409   */\n    tag_109:\n        /* \"#utility.yul\":9363:9384   */\n      tag_210\n        /* \"#utility.yul\":9378:9383   */\n      dup2\n        /* \"#utility.yul\":9363:9384   */\n      tag_90\n      jump\t// in\n    tag_210:\n        /* \"#utility.yul\":9356:9361   */\n      dup2\n        /* \"#utility.yul\":9353:9385   */\n      eq\n        /* \"#utility.yul\":9343:9403   */\n      tag_211\n      jumpi\n        /* \"#utility.yul\":9399:9400   */\n      0x00\n        /* \"#utility.yul\":9396:9397   */\n      dup1\n        /* \"#utility.yul\":9389:9401   */\n      revert\n        /* \"#utility.yul\":9343:9403   */\n    tag_211:\n        /* \"#utility.yul\":9293:9409   */\n      pop\n      jump\t// out\n        /* \"#utility.yul\":9415:9552   */\n    tag_110:\n        /* \"#utility.yul\":9469:9474   */\n      0x00\n        /* \"#utility.yul\":9500:9506   */\n      dup2\n        /* \"#utility.yul\":9494:9507   */\n      mload\n        /* \"#utility.yul\":9485:9507   */\n      swap1\n      pop\n        /* \"#utility.yul\":9516:9546   */\n      tag_213\n        /* \"#utility.yul\":9540:9545   */\n      dup2\n        /* \"#utility.yul\":9516:9546   */\n      tag_109\n      jump\t// in\n    tag_213:\n        /* \"#utility.yul\":9415:9552   */\n      swap3\n      swap2\n      pop\n      pop\n      jump\t// out\n        /* \"#utility.yul\":9558:9903   */\n    tag_63:\n        /* \"#utility.yul\":9625:9631   */\n      0x00\n        /* \"#utility.yul\":9674:9676   */\n      0x20\n        /* \"#utility.yul\":9662:9671   */\n      dup3\n        /* \"#utility.yul\":9653:9660   */\n      dup5\n        /* \"#utility.yul\":9649:9672   */\n      sub\n        /* \"#utility.yul\":9645:9677   */\n      slt\n        /* \"#utility.yul\":9642:9761   */\n      iszero\n      tag_215\n      jumpi\n        /* \"#utility.yul\":9680:9759   */\n      tag_216\n      tag_81\n      jump\t// in\n    tag_216:\n        /* \"#utility.yul\":9642:9761   */\n    tag_215:\n        /* \"#utility.yul\":9800:9801   */\n      0x00\n        /* \"#utility.yul\":9825:9886   */\n      tag_217\n        /* \"#utility.yul\":9878:9885   */\n      dup5\n        /* \"#utility.yul\":9869:9875   */\n      dup3\n        /* \"#utility.yul\":9858:9867   */\n      dup6\n        /* \"#utility.yul\":9854:9876   */\n      add\n        /* \"#utility.yul\":9825:9886   */\n      tag_110\n      jump\t// in\n    tag_217:\n        /* \"#utility.yul\":9815:9886   */\n      swap2\n      pop\n        /* \"#utility.yul\":9771:9896   */\n      pop\n        /* \"#utility.yul\":9558:9903   */\n      swap3\n      swap2\n      pop\n      pop\n      jump\t// out\n        /* \"#utility.yul\":9909:10080   */\n    tag_111:\n        /* \"#utility.yul\":10049:10072   */\n      0x546f6b656e207472616e73666572206661696c65640000000000000000000000\n        /* \"#utility.yul\":10045:10046   */\n      0x00\n        /* \"#utility.yul\":10037:10043   */\n      dup3\n        /* \"#utility.yul\":10033:10047   */\n      add\n        /* \"#utility.yul\":10026:10073   */\n      mstore\n        /* \"#utility.yul\":9909:10080   */\n      pop\n      jump\t// out\n        /* \"#utility.yul\":10086:10452   */\n    tag_112:\n        /* \"#utility.yul\":10228:10231   */\n      0x00\n        /* \"#utility.yul\":10249:10316   */\n      tag_220\n        /* \"#utility.yul\":10313:10315   */\n      0x15\n        /* \"#utility.yul\":10308:10311   */\n      dup4\n        /* \"#utility.yul\":10249:10316   */\n      tag_98\n      jump\t// in\n    tag_220:\n        /* \"#utility.yul\":10242:10316   */\n      swap2\n      pop\n        /* \"#utility.yul\":10325:10418   */\n      tag_221\n        /* \"#utility.yul\":10414:10417   */\n      dup3\n        /* \"#utility.yul\":10325:10418   */\n      tag_111\n      jump\t// in\n    tag_221:\n        /* \"#utility.yul\":10443:10445   */\n      0x20\n        /* \"#utility.yul\":10438:10441   */\n      dup3\n        /* \"#utility.yul\":10434:10446   */\n      add\n        /* \"#utility.yul\":10427:10446   */\n      swap1\n      pop\n        /* \"#utility.yul\":10086:10452   */\n      swap2\n      swap1\n      pop\n      jump\t// out\n        /* \"#utility.yul\":10458:10877   */\n    tag_66:\n        /* \"#utility.yul\":10624:10628   */\n      0x00\n        /* \"#utility.yul\":10662:10664   */\n      0x20\n        /* \"#utility.yul\":10651:10660   */\n      dup3\n        /* \"#utility.yul\":10647:10665   */\n      add\n        /* \"#utility.yul\":10639:10665   */\n      swap1\n      pop\n        /* \"#utility.yul\":10711:10720   */\n      dup2\n        /* \"#utility.yul\":10705:10709   */\n      dup2\n        /* \"#utility.yul\":10701:10721   */\n      sub\n        /* \"#utility.yul\":10697:10698   */\n      0x00\n        /* \"#utility.yul\":10686:10695   */\n      dup4\n        /* \"#utility.yul\":10682:10699   */\n      add\n        /* \"#utility.yul\":10675:10722   */\n      mstore\n        /* \"#utility.yul\":10739:10870   */\n      tag_223\n        /* \"#utility.yul\":10865:10869   */\n      dup2\n        /* \"#utility.yul\":10739:10870   */\n      tag_112\n      jump\t// in\n    tag_223:\n        /* \"#utility.yul\":10731:10870   */\n      swap1\n      pop\n        /* \"#utility.yul\":10458:10877   */\n      swap2\n      swap1\n      pop\n      jump\t// out\n        /* \"#utility.yul\":10883:11325   */\n    tag_71:\n        /* \"#utility.yul\":11032:11036   */\n      0x00\n        /* \"#utility.yul\":11070:11072   */\n      0x60\n        /* \"#utility.yul\":11059:11068   */\n      dup3\n        /* \"#utility.yul\":11055:11073   */\n      add\n        /* \"#utility.yul\":11047:11073   */\n      swap1\n      pop\n        /* \"#utility.yul\":11083:11154   */\n      tag_225\n        /* \"#utility.yul\":11151:11152   */\n      0x00\n        /* \"#utility.yul\":11140:11149   */\n      dup4\n        /* \"#utility.yul\":11136:11153   */\n      add\n        /* \"#utility.yul\":11127:11133   */\n      dup7\n        /* \"#utility.yul\":11083:11154   */\n      tag_108\n      jump\t// in\n    tag_225:\n        /* \"#utility.yul\":11164:11236   */\n      tag_226\n        /* \"#utility.yul\":11232:11234   */\n      0x20\n        /* \"#utility.yul\":11221:11230   */\n      dup4\n        /* \"#utility.yul\":11217:11235   */\n      add\n        /* \"#utility.yul\":11208:11214   */\n      dup6\n        /* \"#utility.yul\":11164:11236   */\n      tag_108\n      jump\t// in\n    tag_226:\n        /* \"#utility.yul\":11246:11318   */\n      tag_227\n        /* \"#utility.yul\":11314:11316   */\n      0x40\n        /* \"#utility.yul\":11303:11312   */\n      dup4\n        /* \"#utility.yul\":11299:11317   */\n      add\n        /* \"#utility.yul\":11290:11296   */\n      dup5\n        /* \"#utility.yul\":11246:11318   */\n      tag_92\n      jump\t// in\n    tag_227:\n        /* \"#utility.yul\":10883:11325   */\n      swap5\n      swap4\n      pop\n      pop\n      pop\n      pop\n      jump\t// out\n        /* \"#utility.yul\":11331:11557   */\n    tag_113:\n        /* \"#utility.yul\":11471:11505   */\n      0x546f6b656e207472616e73666572206661696c65642028636865636b20616c6c\n        /* \"#utility.yul\":11467:11468   */\n      0x00\n        /* \"#utility.yul\":11459:11465   */\n      dup3\n        /* \"#utility.yul\":11455:11469   */\n      add\n        /* \"#utility.yul\":11448:11506   */\n      mstore\n        /* \"#utility.yul\":11540:11549   */\n      0x6f77616e63652900000000000000000000000000000000000000000000000000\n        /* \"#utility.yul\":11535:11537   */\n      0x20\n        /* \"#utility.yul\":11527:11533   */\n      dup3\n        /* \"#utility.yul\":11523:11538   */\n      add\n        /* \"#utility.yul\":11516:11550   */\n      mstore\n        /* \"#utility.yul\":11331:11557   */\n      pop\n      jump\t// out\n        /* \"#utility.yul\":11563:11929   */\n    tag_114:\n        /* \"#utility.yul\":11705:11708   */\n      0x00\n        /* \"#utility.yul\":11726:11793   */\n      tag_230\n        /* \"#utility.yul\":11790:11792   */\n      0x27\n        /* \"#utility.yul\":11785:11788   */\n      dup4\n        /* \"#utility.yul\":11726:11793   */\n      tag_98\n      jump\t// in\n    tag_230:\n        /* \"#utility.yul\":11719:11793   */\n      swap2\n      pop\n        /* \"#utility.yul\":11802:11895   */\n      tag_231\n        /* \"#utility.yul\":11891:11894   */\n      dup3\n        /* \"#utility.yul\":11802:11895   */\n      tag_113\n      jump\t// in\n    tag_231:\n        /* \"#utility.yul\":11920:11922   */\n      0x40\n        /* \"#utility.yul\":11915:11918   */\n      dup3\n        /* \"#utility.yul\":11911:11923   */\n      add\n        /* \"#utility.yul\":11904:11923   */\n      swap1\n      pop\n        /* \"#utility.yul\":11563:11929   */\n      swap2\n      swap1\n      pop\n      jump\t// out\n        /* \"#utility.yul\":11935:12354   */\n    tag_77:\n        /* \"#utility.yul\":12101:12105   */\n      0x00\n        /* \"#utility.yul\":12139:12141   */\n      0x20\n        /* \"#utility.yul\":12128:12137   */\n      dup3\n        /* \"#utility.yul\":12124:12142   */\n      add\n        /* \"#utility.yul\":12116:12142   */\n      swap1\n      pop\n        /* \"#utility.yul\":12188:12197   */\n      dup2\n        /* \"#utility.yul\":12182:12186   */\n      dup2\n        /* \"#utility.yul\":12178:12198   */\n      sub\n        /* \"#utility.yul\":12174:12175   */\n      0x00\n        /* \"#utility.yul\":12163:12172   */\n      dup4\n        /* \"#utility.yul\":12159:12176   */\n      add\n        /* \"#utility.yul\":12152:12199   */\n      mstore\n        /* \"#utility.yul\":12216:12347   */\n      tag_233\n        /* \"#utility.yul\":12342:12346   */\n      dup2\n        /* \"#utility.yul\":12216:12347   */\n      tag_114\n      jump\t// in\n    tag_233:\n        /* \"#utility.yul\":12208:12347   */\n      swap1\n      pop\n        /* \"#utility.yul\":11935:12354   */\n      swap2\n      swap1\n      pop\n      jump\t// out\n\n    auxdata: 0xa2646970667358221220edf9920594d69b99a67e4213b784a0356623ad6d1255122cf1d2b2d8d763a22e64736f6c634300081a0033\n}\n",
				"bytecode": {
					"linkReferences": {},
					"object": "608060405234801561000f575f80fd5b50604051610ed8380380610ed883398181016040528101906100319190610144565b805f73ffffffffffffffffffffffffffffffffffffffff168173ffffffffffffffffffffffffffffffffffffffff16036100a0576040517f08c379a0000000000000000000000000000000000000000000000000000000008152600401610097906101c9565b60405180910390fd5b805f806101000a81548173ffffffffffffffffffffffffffffffffffffffff021916908373ffffffffffffffffffffffffffffffffffffffff16021790555050506101e7565b5f80fd5b5f73ffffffffffffffffffffffffffffffffffffffff82169050919050565b5f610113826100ea565b9050919050565b61012381610109565b811461012d575f80fd5b50565b5f8151905061013e8161011a565b92915050565b5f60208284031215610159576101586100e6565b5b5f61016684828501610130565b91505092915050565b5f82825260208201905092915050565b7f546f6b656e20616464726573732063616e6e6f74206265207a65726f000000005f82015250565b5f6101b3601c8361016f565b91506101be8261017f565b602082019050919050565b5f6020820190508181035f8301526101e0816101a7565b9050919050565b610ce4806101f45f395ff3fe608060405260043610610054575f3560e01c806324a756d11461005857806327e235e3146100945780632e1a7d4d146100d0578063b6b55f25146100ec578063f8b2cb4f14610114578063fc0c546a14610150575b5f80fd5b348015610063575f80fd5b5061007e60048036038101906100799190610706565b61017a565b60405161008b919061075e565b60405180910390f35b34801561009f575f80fd5b506100ba60048036038101906100b59190610777565b610288565b6040516100c791906107b1565b60405180910390f35b6100ea60048036038101906100e591906107ca565b61029d565b005b3480156100f7575f80fd5b50610112600480360381019061010d91906107ca565b610493565b005b34801561011f575f80fd5b5061013a60048036038101906101359190610777565b61060c565b60405161014791906107b1565b60405180910390f35b34801561015b575f80fd5b50610164610652565b6040516101719190610850565b60405180910390f35b5f8273ffffffffffffffffffffffffffffffffffffffff163373ffffffffffffffffffffffffffffffffffffffff16146101e9576040517f08c379a00000000000000000000000000000000000000000000000000000000081526004016101e0906108c3565b60405180910390fd5b5f821161022b576040517f08c379a000000000000000000000000000000000000000000000000000000000815260040161022290610951565b60405180910390fd5b8160015f8573ffffffffffffffffffffffffffffffffffffffff1673ffffffffffffffffffffffffffffffffffffffff1681526020019081526020015f205f828254610277919061099c565b925050819055506001905092915050565b6001602052805f5260405f205f915090505481565b5f81116102df576040517f08c379a00000000000000000000000000000000000000000000000000000000081526004016102d690610a3f565b60405180910390fd5b8060015f3373ffffffffffffffffffffffffffffffffffffffff1673ffffffffffffffffffffffffffffffffffffffff1681526020019081526020015f20541161035e576040517f08c379a000000000000000000000000000000000000000000000000000000000815260040161035590610aa7565b60405180910390fd5b8060015f3373ffffffffffffffffffffffffffffffffffffffff1673ffffffffffffffffffffffffffffffffffffffff1681526020019081526020015f205f8282546103aa9190610ac5565b925050819055505f805f9054906101000a900473ffffffffffffffffffffffffffffffffffffffff1673ffffffffffffffffffffffffffffffffffffffff1663a9059cbb33846040518363ffffffff1660e01b815260040161040d929190610b07565b6020604051808303815f875af1158015610429573d5f803e3d5ffd5b505050506040513d601f19601f8201168201806040525081019061044d9190610b58565b90508061048f576040517f08c379a000000000000000000000000000000000000000000000000000000000815260040161048690610bcd565b60405180910390fd5b5050565b5f81116104d5576040517f08c379a00000000000000000000000000000000000000000000000000000000081526004016104cc90610951565b60405180910390fd5b5f805f9054906101000a900473ffffffffffffffffffffffffffffffffffffffff1673ffffffffffffffffffffffffffffffffffffffff166323b872dd3330856040518463ffffffff1660e01b815260040161053393929190610beb565b6020604051808303815f875af115801561054f573d5f803e3d5ffd5b505050506040513d601f19601f820116820180604052508101906105739190610b58565b9050806105b5576040517f08c379a00000000000000000000000000000000000000000000000000000000081526004016105ac90610c90565b60405180910390fd5b8160015f3373ffffffffffffffffffffffffffffffffffffffff1673ffffffffffffffffffffffffffffffffffffffff1681526020019081526020015f205f828254610601919061099c565b925050819055505050565b5f60015f8373ffffffffffffffffffffffffffffffffffffffff1673ffffffffffffffffffffffffffffffffffffffff1681526020019081526020015f20549050919050565b5f8054906101000a900473ffffffffffffffffffffffffffffffffffffffff1681565b5f80fd5b5f73ffffffffffffffffffffffffffffffffffffffff82169050919050565b5f6106a282610679565b9050919050565b6106b281610698565b81146106bc575f80fd5b50565b5f813590506106cd816106a9565b92915050565b5f819050919050565b6106e5816106d3565b81146106ef575f80fd5b50565b5f81359050610700816106dc565b92915050565b5f806040838503121561071c5761071b610675565b5b5f610729858286016106bf565b925050602061073a858286016106f2565b9150509250929050565b5f8115159050919050565b61075881610744565b82525050565b5f6020820190506107715f83018461074f565b92915050565b5f6020828403121561078c5761078b610675565b5b5f610799848285016106bf565b91505092915050565b6107ab816106d3565b82525050565b5f6020820190506107c45f8301846107a2565b92915050565b5f602082840312156107df576107de610675565b5b5f6107ec848285016106f2565b91505092915050565b5f819050919050565b5f61081861081361080e84610679565b6107f5565b610679565b9050919050565b5f610829826107fe565b9050919050565b5f61083a8261081f565b9050919050565b61084a81610830565b82525050565b5f6020820190506108635f830184610841565b92915050565b5f82825260208201905092915050565b7f4e6f74207468652076616c6964206164647265737321000000000000000000005f82015250565b5f6108ad601683610869565b91506108b882610879565b602082019050919050565b5f6020820190508181035f8301526108da816108a1565b9050919050565b7f4465706f73697420616d6f756e74206d757374206265206772656174657220745f8201527f68616e207a65726f000000000000000000000000000000000000000000000000602082015250565b5f61093b602883610869565b9150610946826108e1565b604082019050919050565b5f6020820190508181035f8301526109688161092f565b9050919050565b7f4e487b71000000000000000000000000000000000000000000000000000000005f52601160045260245ffd5b5f6109a6826106d3565b91506109b1836106d3565b92508282019050808211156109c9576109c861096f565b5b92915050565b7f576974686472617720616d6f756e74206d7573742062652067726561746572205f8201527f7468616e207a65726f2021000000000000000000000000000000000000000000602082015250565b5f610a29602b83610869565b9150610a34826109cf565b604082019050919050565b5f6020820190508181035f830152610a5681610a1d565b9050919050565b7f496e73756666696369656e742062616c616e636520696e2062616e6b000000005f82015250565b5f610a91601c83610869565b9150610a9c82610a5d565b602082019050919050565b5f6020820190508181035f830152610abe81610a85565b9050919050565b5f610acf826106d3565b9150610ada836106d3565b9250828203905081811115610af257610af161096f565b5b92915050565b610b0181610698565b82525050565b5f604082019050610b1a5f830185610af8565b610b2760208301846107a2565b9392505050565b610b3781610744565b8114610b41575f80fd5b50565b5f81519050610b5281610b2e565b92915050565b5f60208284031215610b6d57610b6c610675565b5b5f610b7a84828501610b44565b91505092915050565b7f546f6b656e207472616e73666572206661696c656400000000000000000000005f82015250565b5f610bb7601583610869565b9150610bc282610b83565b602082019050919050565b5f6020820190508181035f830152610be481610bab565b9050919050565b5f606082019050610bfe5f830186610af8565b610c0b6020830185610af8565b610c1860408301846107a2565b949350505050565b7f546f6b656e207472616e73666572206661696c65642028636865636b20616c6c5f8201527f6f77616e63652900000000000000000000000000000000000000000000000000602082015250565b5f610c7a602783610869565b9150610c8582610c20565b604082019050919050565b5f6020820190508181035f830152610ca781610c6e565b905091905056fea2646970667358221220edf9920594d69b99a67e4213b784a0356623ad6d1255122cf1d2b2d8d763a22e64736f6c634300081a0033",
					"opcodes": "PUSH1 0x80 PUSH1 0x40 MSTORE CALLVALUE DUP1 ISZERO PUSH2 0xF JUMPI PUSH0 DUP1 REVERT JUMPDEST POP PUSH1 0x40 MLOAD PUSH2 0xED8 CODESIZE SUB DUP1 PUSH2 0xED8 DUP4 CODECOPY DUP2 DUP2 ADD PUSH1 0x40 MSTORE DUP2 ADD SWAP1 PUSH2 0x31 SWAP2 SWAP1 PUSH2 0x144 JUMP JUMPDEST DUP1 PUSH0 PUSH20 0xFFFFFFFFFFFFFFFFFFFFFFFFFFFFFFFFFFFFFFFF AND DUP2 PUSH20 0xFFFFFFFFFFFFFFFFFFFFFFFFFFFFFFFFFFFFFFFF AND SUB PUSH2 0xA0 JUMPI PUSH1 0x40 MLOAD PUSH32 0x8C379A000000000000000000000000000000000000000000000000000000000 DUP2 MSTORE PUSH1 0x4 ADD PUSH2 0x97 SWAP1 PUSH2 0x1C9 JUMP JUMPDEST PUSH1 0x40 MLOAD DUP1 SWAP2 SUB SWAP1 REVERT JUMPDEST DUP1 PUSH0 DUP1 PUSH2 0x100 EXP DUP2 SLOAD DUP2 PUSH20 0xFFFFFFFFFFFFFFFFFFFFFFFFFFFFFFFFFFFFFFFF MUL NOT AND SWAP1 DUP4 PUSH20 0xFFFFFFFFFFFFFFFFFFFFFFFFFFFFFFFFFFFFFFFF AND MUL OR SWAP1 SSTORE POP POP POP PUSH2 0x1E7 JUMP JUMPDEST PUSH0 DUP1 REVERT JUMPDEST PUSH0 PUSH20 0xFFFFFFFFFFFFFFFFFFFFFFFFFFFFFFFFFFFFFFFF DUP3 AND SWAP1 POP SWAP2 SWAP1 POP JUMP JUMPDEST PUSH0 PUSH2 0x113 DUP3 PUSH2 0xEA JUMP JUMPDEST SWAP1 POP SWAP2 SWAP1 POP JUMP JUMPDEST PUSH2 0x123 DUP2 PUSH2 0x109 JUMP JUMPDEST DUP2 EQ PUSH2 0x12D JUMPI PUSH0 DUP1 REVERT JUMPDEST POP JUMP JUMPDEST PUSH0 DUP2 MLOAD SWAP1 POP PUSH2 0x13E DUP2 PUSH2 0x11A JUMP JUMPDEST SWAP3 SWAP2 POP POP JUMP JUMPDEST PUSH0 PUSH1 0x20 DUP3 DUP5 SUB SLT ISZERO PUSH2 0x159 JUMPI PUSH2 0x158 PUSH2 0xE6 JUMP JUMPDEST JUMPDEST PUSH0 PUSH2 0x166 DUP5 DUP3 DUP6 ADD PUSH2 0x130 JUMP JUMPDEST SWAP2 POP POP SWAP3 SWAP2 POP POP JUMP JUMPDEST PUSH0 DUP3 DUP3 MSTORE PUSH1 0x20 DUP3 ADD SWAP1 POP SWAP3 SWAP2 POP POP JUMP JUMPDEST PUSH32 0x546F6B656E20616464726573732063616E6E6F74206265207A65726F00000000 PUSH0 DUP3 ADD MSTORE POP JUMP JUMPDEST PUSH0 PUSH2 0x1B3 PUSH1 0x1C DUP4 PUSH2 0x16F JUMP JUMPDEST SWAP2 POP PUSH2 0x1BE DUP3 PUSH2 0x17F JUMP JUMPDEST PUSH1 0x20 DUP3 ADD SWAP1 POP SWAP2 SWAP1 POP JUMP JUMPDEST PUSH0 PUSH1 0x20 DUP3 ADD SWAP1 POP DUP2 DUP2 SUB PUSH0 DUP4 ADD MSTORE PUSH2 0x1E0 DUP2 PUSH2 0x1A7 JUMP JUMPDEST SWAP1 POP SWAP2 SWAP1 POP JUMP JUMPDEST PUSH2 0xCE4 DUP1 PUSH2 0x1F4 PUSH0 CODECOPY PUSH0 RETURN INVALID PUSH1 0x80 PUSH1 0x40 MSTORE PUSH1 0x4 CALLDATASIZE LT PUSH2 0x54 JUMPI PUSH0 CALLDATALOAD PUSH1 0xE0 SHR DUP1 PUSH4 0x24A756D1 EQ PUSH2 0x58 JUMPI DUP1 PUSH4 0x27E235E3 EQ PUSH2 0x94 JUMPI DUP1 PUSH4 0x2E1A7D4D EQ PUSH2 0xD0 JUMPI DUP1 PUSH4 0xB6B55F25 EQ PUSH2 0xEC JUMPI DUP1 PUSH4 0xF8B2CB4F EQ PUSH2 0x114 JUMPI DUP1 PUSH4 0xFC0C546A EQ PUSH2 0x150 JUMPI JUMPDEST PUSH0 DUP1 REVERT JUMPDEST CALLVALUE DUP1 ISZERO PUSH2 0x63 JUMPI PUSH0 DUP1 REVERT JUMPDEST POP PUSH2 0x7E PUSH1 0x4 DUP1 CALLDATASIZE SUB DUP2 ADD SWAP1 PUSH2 0x79 SWAP2 SWAP1 PUSH2 0x706 JUMP JUMPDEST PUSH2 0x17A JUMP JUMPDEST PUSH1 0x40 MLOAD PUSH2 0x8B SWAP2 SWAP1 PUSH2 0x75E JUMP JUMPDEST PUSH1 0x40 MLOAD DUP1 SWAP2 SUB SWAP1 RETURN JUMPDEST CALLVALUE DUP1 ISZERO PUSH2 0x9F JUMPI PUSH0 DUP1 REVERT JUMPDEST POP PUSH2 0xBA PUSH1 0x4 DUP1 CALLDATASIZE SUB DUP2 ADD SWAP1 PUSH2 0xB5 SWAP2 SWAP1 PUSH2 0x777 JUMP JUMPDEST PUSH2 0x288 JUMP JUMPDEST PUSH1 0x40 MLOAD PUSH2 0xC7 SWAP2 SWAP1 PUSH2 0x7B1 JUMP JUMPDEST PUSH1 0x40 MLOAD DUP1 SWAP2 SUB SWAP1 RETURN JUMPDEST PUSH2 0xEA PUSH1 0x4 DUP1 CALLDATASIZE SUB DUP2 ADD SWAP1 PUSH2 0xE5 SWAP2 SWAP1 PUSH2 0x7CA JUMP JUMPDEST PUSH2 0x29D JUMP JUMPDEST STOP JUMPDEST CALLVALUE DUP1 ISZERO PUSH2 0xF7 JUMPI PUSH0 DUP1 REVERT JUMPDEST POP PUSH2 0x112 PUSH1 0x4 DUP1 CALLDATASIZE SUB DUP2 ADD SWAP1 PUSH2 0x10D SWAP2 SWAP1 PUSH2 0x7CA JUMP JUMPDEST PUSH2 0x493 JUMP JUMPDEST STOP JUMPDEST CALLVALUE DUP1 ISZERO PUSH2 0x11F JUMPI PUSH0 DUP1 REVERT JUMPDEST POP PUSH2 0x13A PUSH1 0x4 DUP1 CALLDATASIZE SUB DUP2 ADD SWAP1 PUSH2 0x135 SWAP2 SWAP1 PUSH2 0x777 JUMP JUMPDEST PUSH2 0x60C JUMP JUMPDEST PUSH1 0x40 MLOAD PUSH2 0x147 SWAP2 SWAP1 PUSH2 0x7B1 JUMP JUMPDEST PUSH1 0x40 MLOAD DUP1 SWAP2 SUB SWAP1 RETURN JUMPDEST CALLVALUE DUP1 ISZERO PUSH2 0x15B JUMPI PUSH0 DUP1 REVERT JUMPDEST POP PUSH2 0x164 PUSH2 0x652 JUMP JUMPDEST PUSH1 0x40 MLOAD PUSH2 0x171 SWAP2 SWAP1 PUSH2 0x850 JUMP JUMPDEST PUSH1 0x40 MLOAD DUP1 SWAP2 SUB SWAP1 RETURN JUMPDEST PUSH0 DUP3 PUSH20 0xFFFFFFFFFFFFFFFFFFFFFFFFFFFFFFFFFFFFFFFF AND CALLER PUSH20 0xFFFFFFFFFFFFFFFFFFFFFFFFFFFFFFFFFFFFFFFF AND EQ PUSH2 0x1E9 JUMPI PUSH1 0x40 MLOAD PUSH32 0x8C379A000000000000000000000000000000000000000000000000000000000 DUP2 MSTORE PUSH1 0x4 ADD PUSH2 0x1E0 SWAP1 PUSH2 0x8C3 JUMP JUMPDEST PUSH1 0x40 MLOAD DUP1 SWAP2 SUB SWAP1 REVERT JUMPDEST PUSH0 DUP3 GT PUSH2 0x22B JUMPI PUSH1 0x40 MLOAD PUSH32 0x8C379A000000000000000000000000000000000000000000000000000000000 DUP2 MSTORE PUSH1 0x4 ADD PUSH2 0x222 SWAP1 PUSH2 0x951 JUMP JUMPDEST PUSH1 0x40 MLOAD DUP1 SWAP2 SUB SWAP1 REVERT JUMPDEST DUP2 PUSH1 0x1 PUSH0 DUP6 PUSH20 0xFFFFFFFFFFFFFFFFFFFFFFFFFFFFFFFFFFFFFFFF AND PUSH20 0xFFFFFFFFFFFFFFFFFFFFFFFFFFFFFFFFFFFFFFFF AND DUP2 MSTORE PUSH1 0x20 ADD SWAP1 DUP2 MSTORE PUSH1 0x20 ADD PUSH0 KECCAK256 PUSH0 DUP3 DUP3 SLOAD PUSH2 0x277 SWAP2 SWAP1 PUSH2 0x99C JUMP JUMPDEST SWAP3 POP POP DUP2 SWAP1 SSTORE POP PUSH1 0x1 SWAP1 POP SWAP3 SWAP2 POP POP JUMP JUMPDEST PUSH1 0x1 PUSH1 0x20 MSTORE DUP1 PUSH0 MSTORE PUSH1 0x40 PUSH0 KECCAK256 PUSH0 SWAP2 POP SWAP1 POP SLOAD DUP2 JUMP JUMPDEST PUSH0 DUP2 GT PUSH2 0x2DF JUMPI PUSH1 0x40 MLOAD PUSH32 0x8C379A000000000000000000000000000000000000000000000000000000000 DUP2 MSTORE PUSH1 0x4 ADD PUSH2 0x2D6 SWAP1 PUSH2 0xA3F JUMP JUMPDEST PUSH1 0x40 MLOAD DUP1 SWAP2 SUB SWAP1 REVERT JUMPDEST DUP1 PUSH1 0x1 PUSH0 CALLER PUSH20 0xFFFFFFFFFFFFFFFFFFFFFFFFFFFFFFFFFFFFFFFF AND PUSH20 0xFFFFFFFFFFFFFFFFFFFFFFFFFFFFFFFFFFFFFFFF AND DUP2 MSTORE PUSH1 0x20 ADD SWAP1 DUP2 MSTORE PUSH1 0x20 ADD PUSH0 KECCAK256 SLOAD GT PUSH2 0x35E JUMPI PUSH1 0x40 MLOAD PUSH32 0x8C379A000000000000000000000000000000000000000000000000000000000 DUP2 MSTORE PUSH1 0x4 ADD PUSH2 0x355 SWAP1 PUSH2 0xAA7 JUMP JUMPDEST PUSH1 0x40 MLOAD DUP1 SWAP2 SUB SWAP1 REVERT JUMPDEST DUP1 PUSH1 0x1 PUSH0 CALLER PUSH20 0xFFFFFFFFFFFFFFFFFFFFFFFFFFFFFFFFFFFFFFFF AND PUSH20 0xFFFFFFFFFFFFFFFFFFFFFFFFFFFFFFFFFFFFFFFF AND DUP2 MSTORE PUSH1 0x20 ADD SWAP1 DUP2 MSTORE PUSH1 0x20 ADD PUSH0 KECCAK256 PUSH0 DUP3 DUP3 SLOAD PUSH2 0x3AA SWAP2 SWAP1 PUSH2 0xAC5 JUMP JUMPDEST SWAP3 POP POP DUP2 SWAP1 SSTORE POP PUSH0 DUP1 PUSH0 SWAP1 SLOAD SWAP1 PUSH2 0x100 EXP SWAP1 DIV PUSH20 0xFFFFFFFFFFFFFFFFFFFFFFFFFFFFFFFFFFFFFFFF AND PUSH20 0xFFFFFFFFFFFFFFFFFFFFFFFFFFFFFFFFFFFFFFFF AND PUSH4 0xA9059CBB CALLER DUP5 PUSH1 0x40 MLOAD DUP4 PUSH4 0xFFFFFFFF AND PUSH1 0xE0 SHL DUP2 MSTORE PUSH1 0x4 ADD PUSH2 0x40D SWAP3 SWAP2 SWAP1 PUSH2 0xB07 JUMP JUMPDEST PUSH1 0x20 PUSH1 0x40 MLOAD DUP1 DUP4 SUB DUP2 PUSH0 DUP8 GAS CALL ISZERO DUP1 ISZERO PUSH2 0x429 JUMPI RETURNDATASIZE PUSH0 DUP1 RETURNDATACOPY RETURNDATASIZE PUSH0 REVERT JUMPDEST POP POP POP POP PUSH1 0x40 MLOAD RETURNDATASIZE PUSH1 0x1F NOT PUSH1 0x1F DUP3 ADD AND DUP3 ADD DUP1 PUSH1 0x40 MSTORE POP DUP2 ADD SWAP1 PUSH2 0x44D SWAP2 SWAP1 PUSH2 0xB58 JUMP JUMPDEST SWAP1 POP DUP1 PUSH2 0x48F JUMPI PUSH1 0x40 MLOAD PUSH32 0x8C379A000000000000000000000000000000000000000000000000000000000 DUP2 MSTORE PUSH1 0x4 ADD PUSH2 0x486 SWAP1 PUSH2 0xBCD JUMP JUMPDEST PUSH1 0x40 MLOAD DUP1 SWAP2 SUB SWAP1 REVERT JUMPDEST POP POP JUMP JUMPDEST PUSH0 DUP2 GT PUSH2 0x4D5 JUMPI PUSH1 0x40 MLOAD PUSH32 0x8C379A000000000000000000000000000000000000000000000000000000000 DUP2 MSTORE PUSH1 0x4 ADD PUSH2 0x4CC SWAP1 PUSH2 0x951 JUMP JUMPDEST PUSH1 0x40 MLOAD DUP1 SWAP2 SUB SWAP1 REVERT JUMPDEST PUSH0 DUP1 PUSH0 SWAP1 SLOAD SWAP1 PUSH2 0x100 EXP SWAP1 DIV PUSH20 0xFFFFFFFFFFFFFFFFFFFFFFFFFFFFFFFFFFFFFFFF AND PUSH20 0xFFFFFFFFFFFFFFFFFFFFFFFFFFFFFFFFFFFFFFFF AND PUSH4 0x23B872DD CALLER ADDRESS DUP6 PUSH1 0x40 MLOAD DUP5 PUSH4 0xFFFFFFFF AND PUSH1 0xE0 SHL DUP2 MSTORE PUSH1 0x4 ADD PUSH2 0x533 SWAP4 SWAP3 SWAP2 SWAP1 PUSH2 0xBEB JUMP JUMPDEST PUSH1 0x20 PUSH1 0x40 MLOAD DUP1 DUP4 SUB DUP2 PUSH0 DUP8 GAS CALL ISZERO DUP1 ISZERO PUSH2 0x54F JUMPI RETURNDATASIZE PUSH0 DUP1 RETURNDATACOPY RETURNDATASIZE PUSH0 REVERT JUMPDEST POP POP POP POP PUSH1 0x40 MLOAD RETURNDATASIZE PUSH1 0x1F NOT PUSH1 0x1F DUP3 ADD AND DUP3 ADD DUP1 PUSH1 0x40 MSTORE POP DUP2 ADD SWAP1 PUSH2 0x573 SWAP2 SWAP1 PUSH2 0xB58 JUMP JUMPDEST SWAP1 POP DUP1 PUSH2 0x5B5 JUMPI PUSH1 0x40 MLOAD PUSH32 0x8C379A000000000000000000000000000000000000000000000000000000000 DUP2 MSTORE PUSH1 0x4 ADD PUSH2 0x5AC SWAP1 PUSH2 0xC90 JUMP JUMPDEST PUSH1 0x40 MLOAD DUP1 SWAP2 SUB SWAP1 REVERT JUMPDEST DUP2 PUSH1 0x1 PUSH0 CALLER PUSH20 0xFFFFFFFFFFFFFFFFFFFFFFFFFFFFFFFFFFFFFFFF AND PUSH20 0xFFFFFFFFFFFFFFFFFFFFFFFFFFFFFFFFFFFFFFFF AND DUP2 MSTORE PUSH1 0x20 ADD SWAP1 DUP2 MSTORE PUSH1 0x20 ADD PUSH0 KECCAK256 PUSH0 DUP3 DUP3 SLOAD PUSH2 0x601 SWAP2 SWAP1 PUSH2 0x99C JUMP JUMPDEST SWAP3 POP POP DUP2 SWAP1 SSTORE POP POP POP JUMP JUMPDEST PUSH0 PUSH1 0x1 PUSH0 DUP4 PUSH20 0xFFFFFFFFFFFFFFFFFFFFFFFFFFFFFFFFFFFFFFFF AND PUSH20 0xFFFFFFFFFFFFFFFFFFFFFFFFFFFFFFFFFFFFFFFF AND DUP2 MSTORE PUSH1 0x20 ADD SWAP1 DUP2 MSTORE PUSH1 0x20 ADD PUSH0 KECCAK256 SLOAD SWAP1 POP SWAP2 SWAP1 POP JUMP JUMPDEST PUSH0 DUP1 SLOAD SWAP1 PUSH2 0x100 EXP SWAP1 DIV PUSH20 0xFFFFFFFFFFFFFFFFFFFFFFFFFFFFFFFFFFFFFFFF AND DUP2 JUMP JUMPDEST PUSH0 DUP1 REVERT JUMPDEST PUSH0 PUSH20 0xFFFFFFFFFFFFFFFFFFFFFFFFFFFFFFFFFFFFFFFF DUP3 AND SWAP1 POP SWAP2 SWAP1 POP JUMP JUMPDEST PUSH0 PUSH2 0x6A2 DUP3 PUSH2 0x679 JUMP JUMPDEST SWAP1 POP SWAP2 SWAP1 POP JUMP JUMPDEST PUSH2 0x6B2 DUP2 PUSH2 0x698 JUMP JUMPDEST DUP2 EQ PUSH2 0x6BC JUMPI PUSH0 DUP1 REVERT JUMPDEST POP JUMP JUMPDEST PUSH0 DUP2 CALLDATALOAD SWAP1 POP PUSH2 0x6CD DUP2 PUSH2 0x6A9 JUMP JUMPDEST SWAP3 SWAP2 POP POP JUMP JUMPDEST PUSH0 DUP2 SWAP1 POP SWAP2 SWAP1 POP JUMP JUMPDEST PUSH2 0x6E5 DUP2 PUSH2 0x6D3 JUMP JUMPDEST DUP2 EQ PUSH2 0x6EF JUMPI PUSH0 DUP1 REVERT JUMPDEST POP JUMP JUMPDEST PUSH0 DUP2 CALLDATALOAD SWAP1 POP PUSH2 0x700 DUP2 PUSH2 0x6DC JUMP JUMPDEST SWAP3 SWAP2 POP POP JUMP JUMPDEST PUSH0 DUP1 PUSH1 0x40 DUP4 DUP6 SUB SLT ISZERO PUSH2 0x71C JUMPI PUSH2 0x71B PUSH2 0x675 JUMP JUMPDEST JUMPDEST PUSH0 PUSH2 0x729 DUP6 DUP3 DUP7 ADD PUSH2 0x6BF JUMP JUMPDEST SWAP3 POP POP PUSH1 0x20 PUSH2 0x73A DUP6 DUP3 DUP7 ADD PUSH2 0x6F2 JUMP JUMPDEST SWAP2 POP POP SWAP3 POP SWAP3 SWAP1 POP JUMP JUMPDEST PUSH0 DUP2 ISZERO ISZERO SWAP1 POP SWAP2 SWAP1 POP JUMP JUMPDEST PUSH2 0x758 DUP2 PUSH2 0x744 JUMP JUMPDEST DUP3 MSTORE POP POP JUMP JUMPDEST PUSH0 PUSH1 0x20 DUP3 ADD SWAP1 POP PUSH2 0x771 PUSH0 DUP4 ADD DUP5 PUSH2 0x74F JUMP JUMPDEST SWAP3 SWAP2 POP POP JUMP JUMPDEST PUSH0 PUSH1 0x20 DUP3 DUP5 SUB SLT ISZERO PUSH2 0x78C JUMPI PUSH2 0x78B PUSH2 0x675 JUMP JUMPDEST JUMPDEST PUSH0 PUSH2 0x799 DUP5 DUP3 DUP6 ADD PUSH2 0x6BF JUMP JUMPDEST SWAP2 POP POP SWAP3 SWAP2 POP POP JUMP JUMPDEST PUSH2 0x7AB DUP2 PUSH2 0x6D3 JUMP JUMPDEST DUP3 MSTORE POP POP JUMP JUMPDEST PUSH0 PUSH1 0x20 DUP3 ADD SWAP1 POP PUSH2 0x7C4 PUSH0 DUP4 ADD DUP5 PUSH2 0x7A2 JUMP JUMPDEST SWAP3 SWAP2 POP POP JUMP JUMPDEST PUSH0 PUSH1 0x20 DUP3 DUP5 SUB SLT ISZERO PUSH2 0x7DF JUMPI PUSH2 0x7DE PUSH2 0x675 JUMP JUMPDEST JUMPDEST PUSH0 PUSH2 0x7EC DUP5 DUP3 DUP6 ADD PUSH2 0x6F2 JUMP JUMPDEST SWAP2 POP POP SWAP3 SWAP2 POP POP JUMP JUMPDEST PUSH0 DUP2 SWAP1 POP SWAP2 SWAP1 POP JUMP JUMPDEST PUSH0 PUSH2 0x818 PUSH2 0x813 PUSH2 0x80E DUP5 PUSH2 0x679 JUMP JUMPDEST PUSH2 0x7F5 JUMP JUMPDEST PUSH2 0x679 JUMP JUMPDEST SWAP1 POP SWAP2 SWAP1 POP JUMP JUMPDEST PUSH0 PUSH2 0x829 DUP3 PUSH2 0x7FE JUMP JUMPDEST SWAP1 POP SWAP2 SWAP1 POP JUMP JUMPDEST PUSH0 PUSH2 0x83A DUP3 PUSH2 0x81F JUMP JUMPDEST SWAP1 POP SWAP2 SWAP1 POP JUMP JUMPDEST PUSH2 0x84A DUP2 PUSH2 0x830 JUMP JUMPDEST DUP3 MSTORE POP POP JUMP JUMPDEST PUSH0 PUSH1 0x20 DUP3 ADD SWAP1 POP PUSH2 0x863 PUSH0 DUP4 ADD DUP5 PUSH2 0x841 JUMP JUMPDEST SWAP3 SWAP2 POP POP JUMP JUMPDEST PUSH0 DUP3 DUP3 MSTORE PUSH1 0x20 DUP3 ADD SWAP1 POP SWAP3 SWAP2 POP POP JUMP JUMPDEST PUSH32 0x4E6F74207468652076616C696420616464726573732100000000000000000000 PUSH0 DUP3 ADD MSTORE POP JUMP JUMPDEST PUSH0 PUSH2 0x8AD PUSH1 0x16 DUP4 PUSH2 0x869 JUMP JUMPDEST SWAP2 POP PUSH2 0x8B8 DUP3 PUSH2 0x879 JUMP JUMPDEST PUSH1 0x20 DUP3 ADD SWAP1 POP SWAP2 SWAP1 POP JUMP JUMPDEST PUSH0 PUSH1 0x20 DUP3 ADD SWAP1 POP DUP2 DUP2 SUB PUSH0 DUP4 ADD MSTORE PUSH2 0x8DA DUP2 PUSH2 0x8A1 JUMP JUMPDEST SWAP1 POP SWAP2 SWAP1 POP JUMP JUMPDEST PUSH32 0x4465706F73697420616D6F756E74206D75737420626520677265617465722074 PUSH0 DUP3 ADD MSTORE PUSH32 0x68616E207A65726F000000000000000000000000000000000000000000000000 PUSH1 0x20 DUP3 ADD MSTORE POP JUMP JUMPDEST PUSH0 PUSH2 0x93B PUSH1 0x28 DUP4 PUSH2 0x869 JUMP JUMPDEST SWAP2 POP PUSH2 0x946 DUP3 PUSH2 0x8E1 JUMP JUMPDEST PUSH1 0x40 DUP3 ADD SWAP1 POP SWAP2 SWAP1 POP JUMP JUMPDEST PUSH0 PUSH1 0x20 DUP3 ADD SWAP1 POP DUP2 DUP2 SUB PUSH0 DUP4 ADD MSTORE PUSH2 0x968 DUP2 PUSH2 0x92F JUMP JUMPDEST SWAP1 POP SWAP2 SWAP1 POP JUMP JUMPDEST PUSH32 0x4E487B7100000000000000000000000000000000000000000000000000000000 PUSH0 MSTORE PUSH1 0x11 PUSH1 0x4 MSTORE PUSH1 0x24 PUSH0 REVERT JUMPDEST PUSH0 PUSH2 0x9A6 DUP3 PUSH2 0x6D3 JUMP JUMPDEST SWAP2 POP PUSH2 0x9B1 DUP4 PUSH2 0x6D3 JUMP JUMPDEST SWAP3 POP DUP3 DUP3 ADD SWAP1 POP DUP1 DUP3 GT ISZERO PUSH2 0x9C9 JUMPI PUSH2 0x9C8 PUSH2 0x96F JUMP JUMPDEST JUMPDEST SWAP3 SWAP2 POP POP JUMP JUMPDEST PUSH32 0x576974686472617720616D6F756E74206D757374206265206772656174657220 PUSH0 DUP3 ADD MSTORE PUSH32 0x7468616E207A65726F2021000000000000000000000000000000000000000000 PUSH1 0x20 DUP3 ADD MSTORE POP JUMP JUMPDEST PUSH0 PUSH2 0xA29 PUSH1 0x2B DUP4 PUSH2 0x869 JUMP JUMPDEST SWAP2 POP PUSH2 0xA34 DUP3 PUSH2 0x9CF JUMP JUMPDEST PUSH1 0x40 DUP3 ADD SWAP1 POP SWAP2 SWAP1 POP JUMP JUMPDEST PUSH0 PUSH1 0x20 DUP3 ADD SWAP1 POP DUP2 DUP2 SUB PUSH0 DUP4 ADD MSTORE PUSH2 0xA56 DUP2 PUSH2 0xA1D JUMP JUMPDEST SWAP1 POP SWAP2 SWAP1 POP JUMP JUMPDEST PUSH32 0x496E73756666696369656E742062616C616E636520696E2062616E6B00000000 PUSH0 DUP3 ADD MSTORE POP JUMP JUMPDEST PUSH0 PUSH2 0xA91 PUSH1 0x1C DUP4 PUSH2 0x869 JUMP JUMPDEST SWAP2 POP PUSH2 0xA9C DUP3 PUSH2 0xA5D JUMP JUMPDEST PUSH1 0x20 DUP3 ADD SWAP1 POP SWAP2 SWAP1 POP JUMP JUMPDEST PUSH0 PUSH1 0x20 DUP3 ADD SWAP1 POP DUP2 DUP2 SUB PUSH0 DUP4 ADD MSTORE PUSH2 0xABE DUP2 PUSH2 0xA85 JUMP JUMPDEST SWAP1 POP SWAP2 SWAP1 POP JUMP JUMPDEST PUSH0 PUSH2 0xACF DUP3 PUSH2 0x6D3 JUMP JUMPDEST SWAP2 POP PUSH2 0xADA DUP4 PUSH2 0x6D3 JUMP JUMPDEST SWAP3 POP DUP3 DUP3 SUB SWAP1 POP DUP2 DUP2 GT ISZERO PUSH2 0xAF2 JUMPI PUSH2 0xAF1 PUSH2 0x96F JUMP JUMPDEST JUMPDEST SWAP3 SWAP2 POP POP JUMP JUMPDEST PUSH2 0xB01 DUP2 PUSH2 0x698 JUMP JUMPDEST DUP3 MSTORE POP POP JUMP JUMPDEST PUSH0 PUSH1 0x40 DUP3 ADD SWAP1 POP PUSH2 0xB1A PUSH0 DUP4 ADD DUP6 PUSH2 0xAF8 JUMP JUMPDEST PUSH2 0xB27 PUSH1 0x20 DUP4 ADD DUP5 PUSH2 0x7A2 JUMP JUMPDEST SWAP4 SWAP3 POP POP POP JUMP JUMPDEST PUSH2 0xB37 DUP2 PUSH2 0x744 JUMP JUMPDEST DUP2 EQ PUSH2 0xB41 JUMPI PUSH0 DUP1 REVERT JUMPDEST POP JUMP JUMPDEST PUSH0 DUP2 MLOAD SWAP1 POP PUSH2 0xB52 DUP2 PUSH2 0xB2E JUMP JUMPDEST SWAP3 SWAP2 POP POP JUMP JUMPDEST PUSH0 PUSH1 0x20 DUP3 DUP5 SUB SLT ISZERO PUSH2 0xB6D JUMPI PUSH2 0xB6C PUSH2 0x675 JUMP JUMPDEST JUMPDEST PUSH0 PUSH2 0xB7A DUP5 DUP3 DUP6 ADD PUSH2 0xB44 JUMP JUMPDEST SWAP2 POP POP SWAP3 SWAP2 POP POP JUMP JUMPDEST PUSH32 0x546F6B656E207472616E73666572206661696C65640000000000000000000000 PUSH0 DUP3 ADD MSTORE POP JUMP JUMPDEST PUSH0 PUSH2 0xBB7 PUSH1 0x15 DUP4 PUSH2 0x869 JUMP JUMPDEST SWAP2 POP PUSH2 0xBC2 DUP3 PUSH2 0xB83 JUMP JUMPDEST PUSH1 0x20 DUP3 ADD SWAP1 POP SWAP2 SWAP1 POP JUMP JUMPDEST PUSH0 PUSH1 0x20 DUP3 ADD SWAP1 POP DUP2 DUP2 SUB PUSH0 DUP4 ADD MSTORE PUSH2 0xBE4 DUP2 PUSH2 0xBAB JUMP JUMPDEST SWAP1 POP SWAP2 SWAP1 POP JUMP JUMPDEST PUSH0 PUSH1 0x60 DUP3 ADD SWAP1 POP PUSH2 0xBFE PUSH0 DUP4 ADD DUP7 PUSH2 0xAF8 JUMP JUMPDEST PUSH2 0xC0B PUSH1 0x20 DUP4 ADD DUP6 PUSH2 0xAF8 JUMP JUMPDEST PUSH2 0xC18 PUSH1 0x40 DUP4 ADD DUP5 PUSH2 0x7A2 JUMP JUMPDEST SWAP5 SWAP4 POP POP POP POP JUMP JUMPDEST PUSH32 0x546F6B656E207472616E73666572206661696C65642028636865636B20616C6C PUSH0 DUP3 ADD MSTORE PUSH32 0x6F77616E63652900000000000000000000000000000000000000000000000000 PUSH1 0x20 DUP3 ADD MSTORE POP JUMP JUMPDEST PUSH0 PUSH2 0xC7A PUSH1 0x27 DUP4 PUSH2 0x869 JUMP JUMPDEST SWAP2 POP PUSH2 0xC85 DUP3 PUSH2 0xC20 JUMP JUMPDEST PUSH1 0x40 DUP3 ADD SWAP1 POP SWAP2 SWAP1 POP JUMP JUMPDEST PUSH0 PUSH1 0x20 DUP3 ADD SWAP1 POP DUP2 DUP2 SUB PUSH0 DUP4 ADD MSTORE PUSH2 0xCA7 DUP2 PUSH2 0xC6E JUMP JUMPDEST SWAP1 POP SWAP2 SWAP1 POP JUMP INVALID LOG2 PUSH5 0x6970667358 0x22 SLT KECCAK256 0xED 0xF9 SWAP3 SDIV SWAP5 0xD6 SWAP12 SWAP10 0xA6 PUSH31 0x4213B784A0356623AD6D1255122CF1D2B2D8D763A22E64736F6C634300081A STOP CALLER "
				},
				"gasEstimates": {
					"creation": {
						"codeDepositCost": "660000",
						"executionCost": "infinite",
						"totalCost": "infinite"
					},
					"external": {
						"balances(address)": "2802",
						"deposit(uint256)": "infinite",
						"getBalance(address)": "2895",
						"token()": "infinite",
						"tokensReceived(address,uint256)": "infinite",
						"withdraw(uint256)": "infinite"
					}
				},
				"methodIdentifiers": {
					"balances(address)": "27e235e3",
					"deposit(uint256)": "b6b55f25",
					"getBalance(address)": "f8b2cb4f",
					"token()": "fc0c546a",
					"tokensReceived(address,uint256)": "24a756d1",
					"withdraw(uint256)": "2e1a7d4d"
				}
			},
			"storageLayout": {
				"storage": [
					{
						"astId": 543,
						"contract": "w2d1/BaseERC20.sol:TokenBankV2",
						"label": "token",
						"offset": 0,
						"slot": "0",
						"type": "t_contract(BaseERC20)540"
					},
					{
						"astId": 547,
						"contract": "w2d1/BaseERC20.sol:TokenBankV2",
						"label": "balances",
						"offset": 0,
						"slot": "1",
						"type": "t_mapping(t_address,t_uint256)"
					}
				],
				"types": {
					"t_address": {
						"encoding": "inplace",
						"label": "address",
						"numberOfBytes": "20"
					},
					"t_contract(BaseERC20)540": {
						"encoding": "inplace",
						"label": "contract BaseERC20",
						"numberOfBytes": "20"
					},
					"t_mapping(t_address,t_uint256)": {
						"encoding": "mapping",
						"key": "t_address",
						"label": "mapping(address => uint256)",
						"numberOfBytes": "32",
						"value": "t_uint256"
					},
					"t_uint256": {
						"encoding": "inplace",
						"label": "uint256",
						"numberOfBytes": "32"
					}
				}
			},
			"userdoc": {
				"kind": "user",
				"methods": {
					"getBalance(address)": {
						"notice": "查询银行存款余额（自测使用）"
					},
					"withdraw(uint256)": {
						"notice": "从银行取出token"
					}
				},
				"version": 1
			}
		}
	}
}