{
	"w1d4/Bank.sol": {
		"BigBank": {
			"abi": [
				{
					"inputs": [
						{
							"internalType": "uint256",
							"name": "current",
							"type": "uint256"
						},
						{
							"internalType": "uint256",
							"name": "required",
							"type": "uint256"
						}
					],
					"name": "InsufficientBalance",
					"type": "error"
				},
				{
					"anonymous": false,
					"inputs": [
						{
							"indexed": true,
							"internalType": "address",
							"name": "oldOwner",
							"type": "address"
						},
						{
							"indexed": true,
							"internalType": "address",
							"name": "newOwner",
							"type": "address"
						}
					],
					"name": "OwnershipTransferred",
					"type": "event"
				},
				{
					"anonymous": false,
					"inputs": [
						{
							"indexed": false,
							"internalType": "string",
							"name": "message",
							"type": "string"
						},
						{
							"indexed": false,
							"internalType": "uint256",
							"name": "value",
							"type": "uint256"
						},
						{
							"indexed": false,
							"internalType": "address",
							"name": "sender",
							"type": "address"
						},
						{
							"indexed": false,
							"internalType": "address",
							"name": "owner",
							"type": "address"
						}
					],
					"name": "adminWithdrawMessage",
					"type": "event"
				},
				{
					"inputs": [
						{
							"internalType": "address",
							"name": "",
							"type": "address"
						}
					],
					"name": "balance_map",
					"outputs": [
						{
							"internalType": "uint256",
							"name": "",
							"type": "uint256"
						}
					],
					"stateMutability": "view",
					"type": "function"
				},
				{
					"inputs": [],
					"name": "owner",
					"outputs": [
						{
							"internalType": "address payable",
							"name": "",
							"type": "address"
						}
					],
					"stateMutability": "view",
					"type": "function"
				},
				{
					"inputs": [
						{
							"internalType": "uint256",
							"name": "",
							"type": "uint256"
						}
					],
					"name": "top3Address",
					"outputs": [
						{
							"internalType": "address",
							"name": "",
							"type": "address"
						}
					],
					"stateMutability": "view",
					"type": "function"
				},
				{
					"inputs": [
						{
							"internalType": "uint256",
							"name": "",
							"type": "uint256"
						}
					],
					"name": "top3Balance",
					"outputs": [
						{
							"internalType": "uint256",
							"name": "",
							"type": "uint256"
						}
					],
					"stateMutability": "view",
					"type": "function"
				},
				{
					"inputs": [
						{
							"internalType": "address",
							"name": "newOwner",
							"type": "address"
						}
					],
					"name": "transferOwnership",
					"outputs": [],
					"stateMutability": "nonpayable",
					"type": "function"
				},
				{
					"inputs": [
						{
							"internalType": "uint256",
							"name": "amount",
							"type": "uint256"
						}
					],
					"name": "withdraw",
					"outputs": [],
					"stateMutability": "payable",
					"type": "function"
				},
				{
					"stateMutability": "payable",
					"type": "receive"
				}
			],
			"devdoc": {
				"kind": "dev",
				"methods": {},
				"version": 1
			},
			"evm": {
				"assembly": "    /* \"w1d4/Bank.sol\":2346:3127  contract BigBank is Bank{... */\n  mstore(0x40, 0x80)\n  callvalue\n  dup1\n  iszero\n  tag_1\n  jumpi\n  0x00\n  dup1\n  revert\ntag_1:\n  pop\n    /* \"w1d4/Bank.sol\":673:683  msg.sender */\n  caller\n    /* \"w1d4/Bank.sol\":657:662  owner */\n  0x00\n  dup1\n    /* \"w1d4/Bank.sol\":657:684  owner = payable(msg.sender) */\n  0x0100\n  exp\n  dup2\n  sload\n  dup2\n  0xffffffffffffffffffffffffffffffffffffffff\n  mul\n  not\n  and\n  swap1\n  dup4\n  0xffffffffffffffffffffffffffffffffffffffff\n  and\n  mul\n  or\n  swap1\n  sstore\n  pop\n    /* \"w1d4/Bank.sol\":2346:3127  contract BigBank is Bank{... */\n  dataSize(sub_0)\n  dup1\n  dataOffset(sub_0)\n  0x00\n  codecopy\n  0x00\n  return\nstop\n\nsub_0: assembly {\n        /* \"w1d4/Bank.sol\":2346:3127  contract BigBank is Bank{... */\n      mstore(0x40, 0x80)\n      jumpi(tag_1, lt(calldatasize, 0x04))\n      shr(0xe0, calldataload(0x00))\n      dup1\n      0x2e1a7d4d\n      eq\n      tag_3\n      jumpi\n      dup1\n      0x8da5cb5b\n      eq\n      tag_4\n      jumpi\n      dup1\n      0xc7d484c4\n      eq\n      tag_5\n      jumpi\n      dup1\n      0xdf0c032d\n      eq\n      tag_6\n      jumpi\n      dup1\n      0xf2fde38b\n      eq\n      tag_7\n      jumpi\n      dup1\n      0xf4dc0d61\n      eq\n      tag_8\n      jumpi\n      jump(tag_2)\n    tag_1:\n      jumpi(tag_2, calldatasize)\n        /* \"w1d4/Bank.sol\":2643:2652  msg.value */\n      callvalue\n        /* \"w1d4/Bank.sol\":2463:2474  0.001 ether */\n      0x038d7ea4c68000\n        /* \"w1d4/Bank.sol\":2454:2460  amount */\n      dup2\n        /* \"w1d4/Bank.sol\":2454:2474  amount > 0.001 ether */\n      gt\n        /* \"w1d4/Bank.sol\":2446:2531  require(amount > 0.001 ether, \"The deposit amount must be greater than 0.001 ether.\") */\n      tag_11\n      jumpi\n      mload(0x40)\n      0x08c379a000000000000000000000000000000000000000000000000000000000\n      dup2\n      mstore\n      0x04\n      add\n      tag_12\n      swap1\n      tag_13\n      jump\t// in\n    tag_12:\n      mload(0x40)\n      dup1\n      swap2\n      sub\n      swap1\n      revert\n    tag_11:\n        /* \"w1d4/Bank.sol\":2702:2711  msg.value */\n      callvalue\n        /* \"w1d4/Bank.sol\":2675:2686  balance_map */\n      0x01\n        /* \"w1d4/Bank.sol\":2675:2698  balance_map[msg.sender] */\n      0x00\n        /* \"w1d4/Bank.sol\":2687:2697  msg.sender */\n      caller\n        /* \"w1d4/Bank.sol\":2675:2698  balance_map[msg.sender] */\n      0xffffffffffffffffffffffffffffffffffffffff\n      and\n      0xffffffffffffffffffffffffffffffffffffffff\n      and\n      dup2\n      mstore\n      0x20\n      add\n      swap1\n      dup2\n      mstore\n      0x20\n      add\n      0x00\n      keccak256\n      0x00\n        /* \"w1d4/Bank.sol\":2675:2711  balance_map[msg.sender] += msg.value */\n      dup3\n      dup3\n      sload\n      tag_15\n      swap2\n      swap1\n      tag_16\n      jump\t// in\n    tag_15:\n      swap3\n      pop\n      pop\n      dup2\n      swap1\n      sstore\n      stop\n        /* \"w1d4/Bank.sol\":2346:3127  contract BigBank is Bank{... */\n    tag_2:\n      0x00\n      dup1\n      revert\n        /* \"w1d4/Bank.sol\":1115:1643  function withdraw(uint amount) public payable override {... */\n    tag_3:\n      tag_17\n      0x04\n      dup1\n      calldatasize\n      sub\n      dup2\n      add\n      swap1\n      tag_18\n      swap2\n      swap1\n      tag_19\n      jump\t// in\n    tag_18:\n      tag_20\n      jump\t// in\n    tag_17:\n      stop\n        /* \"w1d4/Bank.sol\":374:402  address payable public owner */\n    tag_4:\n      callvalue\n      dup1\n      iszero\n      tag_21\n      jumpi\n      0x00\n      dup1\n      revert\n    tag_21:\n      pop\n      tag_22\n      tag_23\n      jump\t// in\n    tag_22:\n      mload(0x40)\n      tag_24\n      swap2\n      swap1\n      tag_25\n      jump\t// in\n    tag_24:\n      mload(0x40)\n      dup1\n      swap2\n      sub\n      swap1\n      return\n        /* \"w1d4/Bank.sol\":561:590  address[3] public top3Address */\n    tag_5:\n      callvalue\n      dup1\n      iszero\n      tag_26\n      jumpi\n      0x00\n      dup1\n      revert\n    tag_26:\n      pop\n      tag_27\n      0x04\n      dup1\n      calldatasize\n      sub\n      dup2\n      add\n      swap1\n      tag_28\n      swap2\n      swap1\n      tag_19\n      jump\t// in\n    tag_28:\n      tag_29\n      jump\t// in\n    tag_27:\n      mload(0x40)\n      tag_30\n      swap2\n      swap1\n      tag_31\n      jump\t// in\n    tag_30:\n      mload(0x40)\n      dup1\n      swap2\n      sub\n      swap1\n      return\n        /* \"w1d4/Bank.sol\":444:487  mapping(address => uint) public balance_map */\n    tag_6:\n      callvalue\n      dup1\n      iszero\n      tag_32\n      jumpi\n      0x00\n      dup1\n      revert\n    tag_32:\n      pop\n      tag_33\n      0x04\n      dup1\n      calldatasize\n      sub\n      dup2\n      add\n      swap1\n      tag_34\n      swap2\n      swap1\n      tag_35\n      jump\t// in\n    tag_34:\n      tag_36\n      jump\t// in\n    tag_33:\n      mload(0x40)\n      tag_37\n      swap2\n      swap1\n      tag_38\n      jump\t// in\n    tag_37:\n      mload(0x40)\n      dup1\n      swap2\n      sub\n      swap1\n      return\n        /* \"w1d4/Bank.sol\":2757:3124  function transferOwnership(address newOwner) public {... */\n    tag_7:\n      callvalue\n      dup1\n      iszero\n      tag_39\n      jumpi\n      0x00\n      dup1\n      revert\n    tag_39:\n      pop\n      tag_40\n      0x04\n      dup1\n      calldatasize\n      sub\n      dup2\n      add\n      swap1\n      tag_41\n      swap2\n      swap1\n      tag_35\n      jump\t// in\n    tag_41:\n      tag_42\n      jump\t// in\n    tag_40:\n      stop\n        /* \"w1d4/Bank.sol\":597:623  uint[3] public top3Balance */\n    tag_8:\n      callvalue\n      dup1\n      iszero\n      tag_43\n      jumpi\n      0x00\n      dup1\n      revert\n    tag_43:\n      pop\n      tag_44\n      0x04\n      dup1\n      calldatasize\n      sub\n      dup2\n      add\n      swap1\n      tag_45\n      swap2\n      swap1\n      tag_19\n      jump\t// in\n    tag_45:\n      tag_46\n      jump\t// in\n    tag_44:\n      mload(0x40)\n      tag_47\n      swap2\n      swap1\n      tag_38\n      jump\t// in\n    tag_47:\n      mload(0x40)\n      dup1\n      swap2\n      sub\n      swap1\n      return\n        /* \"w1d4/Bank.sol\":1115:1643  function withdraw(uint amount) public payable override {... */\n    tag_20:\n        /* \"w1d4/Bank.sol\":1186:1243  adminWithdrawMessage(\"withdraw\", amount,msg.sender,owner) */\n      0x14cd41f98ad044348b48b9a073e6de9d77dc3e7dc8685b0c8757030f2b075a1c\n        /* \"w1d4/Bank.sol\":1219:1225  amount */\n      dup2\n        /* \"w1d4/Bank.sol\":1226:1236  msg.sender */\n      caller\n        /* \"w1d4/Bank.sol\":1237:1242  owner */\n      0x00\n      dup1\n      sload\n      swap1\n      0x0100\n      exp\n      swap1\n      div\n      0xffffffffffffffffffffffffffffffffffffffff\n      and\n        /* \"w1d4/Bank.sol\":1186:1243  adminWithdrawMessage(\"withdraw\", amount,msg.sender,owner) */\n      mload(0x40)\n      tag_49\n      swap4\n      swap3\n      swap2\n      swap1\n      tag_50\n      jump\t// in\n    tag_49:\n      mload(0x40)\n      dup1\n      swap2\n      sub\n      swap1\n      log1\n        /* \"w1d4/Bank.sol\":1301:1306  owner */\n      0x00\n      dup1\n      sload\n      swap1\n      0x0100\n      exp\n      swap1\n      div\n      0xffffffffffffffffffffffffffffffffffffffff\n      and\n        /* \"w1d4/Bank.sol\":1287:1306  msg.sender == owner */\n      0xffffffffffffffffffffffffffffffffffffffff\n      and\n        /* \"w1d4/Bank.sol\":1287:1297  msg.sender */\n      caller\n        /* \"w1d4/Bank.sol\":1287:1306  msg.sender == owner */\n      0xffffffffffffffffffffffffffffffffffffffff\n      and\n      eq\n        /* \"w1d4/Bank.sol\":1279:1323  require(msg.sender == owner, \"Not an owner\") */\n      tag_51\n      jumpi\n      mload(0x40)\n      0x08c379a000000000000000000000000000000000000000000000000000000000\n      dup2\n      mstore\n      0x04\n      add\n      tag_52\n      swap1\n      tag_53\n      jump\t// in\n    tag_52:\n      mload(0x40)\n      dup1\n      swap2\n      sub\n      swap1\n      revert\n    tag_51:\n        /* \"w1d4/Bank.sol\":1420:1426  amount */\n      dup1\n        /* \"w1d4/Bank.sol\":1396:1417  address(this).balance */\n      selfbalance\n        /* \"w1d4/Bank.sol\":1396:1426  address(this).balance < amount */\n      lt\n        /* \"w1d4/Bank.sol\":1392:1511  if (address(this).balance < amount){... */\n      iszero\n      tag_54\n      jumpi\n        /* \"w1d4/Bank.sol\":1469:1490  address(this).balance */\n      selfbalance\n        /* \"w1d4/Bank.sol\":1492:1498  amount */\n      dup2\n        /* \"w1d4/Bank.sol\":1449:1499  InsufficientBalance(address(this).balance, amount) */\n      mload(0x40)\n      0xcf47918100000000000000000000000000000000000000000000000000000000\n      dup2\n      mstore\n      0x04\n      add\n      tag_55\n      swap3\n      swap2\n      swap1\n      tag_56\n      jump\t// in\n    tag_55:\n      mload(0x40)\n      dup1\n      swap2\n      sub\n      swap1\n      revert\n        /* \"w1d4/Bank.sol\":1392:1511  if (address(this).balance < amount){... */\n    tag_54:\n        /* \"w1d4/Bank.sol\":1545:1556  bool sucess */\n      0x00\n        /* \"w1d4/Bank.sol\":1562:1567  owner */\n      dup1\n      0x00\n      swap1\n      sload\n      swap1\n      0x0100\n      exp\n      swap1\n      div\n      0xffffffffffffffffffffffffffffffffffffffff\n      and\n        /* \"w1d4/Bank.sol\":1562:1572  owner.call */\n      0xffffffffffffffffffffffffffffffffffffffff\n      and\n        /* \"w1d4/Bank.sol\":1579:1585  amount */\n      dup3\n        /* \"w1d4/Bank.sol\":1562:1590  owner.call{value:amount}(\"\") */\n      mload(0x40)\n      tag_57\n      swap1\n      tag_58\n      jump\t// in\n    tag_57:\n      0x00\n      mload(0x40)\n      dup1\n      dup4\n      sub\n      dup2\n      dup6\n      dup8\n      gas\n      call\n      swap3\n      pop\n      pop\n      pop\n      returndatasize\n      dup1\n      0x00\n      dup2\n      eq\n      tag_61\n      jumpi\n      mload(0x40)\n      swap2\n      pop\n      and(add(returndatasize, 0x3f), not(0x1f))\n      dup3\n      add\n      0x40\n      mstore\n      returndatasize\n      dup3\n      mstore\n      returndatasize\n      0x00\n      0x20\n      dup5\n      add\n      returndatacopy\n      jump(tag_60)\n    tag_61:\n      0x60\n      swap2\n      pop\n    tag_60:\n      pop\n        /* \"w1d4/Bank.sol\":1544:1590  (bool sucess, ) = owner.call{value:amount}(\"\") */\n      pop\n      swap1\n      pop\n        /* \"w1d4/Bank.sol\":1609:1615  sucess */\n      dup1\n        /* \"w1d4/Bank.sol\":1601:1635  require(sucess, \"Transfer failed\") */\n      tag_62\n      jumpi\n      mload(0x40)\n      0x08c379a000000000000000000000000000000000000000000000000000000000\n      dup2\n      mstore\n      0x04\n      add\n      tag_63\n      swap1\n      tag_64\n      jump\t// in\n    tag_63:\n      mload(0x40)\n      dup1\n      swap2\n      sub\n      swap1\n      revert\n    tag_62:\n        /* \"w1d4/Bank.sol\":1170:1643  {... */\n      pop\n        /* \"w1d4/Bank.sol\":1115:1643  function withdraw(uint amount) public payable override {... */\n      pop\n      jump\t// out\n        /* \"w1d4/Bank.sol\":374:402  address payable public owner */\n    tag_23:\n      0x00\n      dup1\n      sload\n      swap1\n      0x0100\n      exp\n      swap1\n      div\n      0xffffffffffffffffffffffffffffffffffffffff\n      and\n      dup2\n      jump\t// out\n        /* \"w1d4/Bank.sol\":561:590  address[3] public top3Address */\n    tag_29:\n      0x02\n      dup2\n      0x03\n      dup2\n      lt\n      tag_65\n      jumpi\n      0x00\n      dup1\n      revert\n    tag_65:\n      add\n      0x00\n      swap2\n      pop\n      sload\n      swap1\n      0x0100\n      exp\n      swap1\n      div\n      0xffffffffffffffffffffffffffffffffffffffff\n      and\n      dup2\n      jump\t// out\n        /* \"w1d4/Bank.sol\":444:487  mapping(address => uint) public balance_map */\n    tag_36:\n      mstore(0x20, 0x01)\n      dup1\n      0x00\n      mstore\n      keccak256(0x00, 0x40)\n      0x00\n      swap2\n      pop\n      swap1\n      pop\n      sload\n      dup2\n      jump\t// out\n        /* \"w1d4/Bank.sol\":2757:3124  function transferOwnership(address newOwner) public {... */\n    tag_42:\n        /* \"w1d4/Bank.sol\":2842:2847  owner */\n      0x00\n      dup1\n      sload\n      swap1\n      0x0100\n      exp\n      swap1\n      div\n      0xffffffffffffffffffffffffffffffffffffffff\n      and\n        /* \"w1d4/Bank.sol\":2828:2847  msg.sender == owner */\n      0xffffffffffffffffffffffffffffffffffffffff\n      and\n        /* \"w1d4/Bank.sol\":2828:2838  msg.sender */\n      caller\n        /* \"w1d4/Bank.sol\":2828:2847  msg.sender == owner */\n      0xffffffffffffffffffffffffffffffffffffffff\n      and\n      eq\n        /* \"w1d4/Bank.sol\":2820:2864  require(msg.sender == owner, \"Not an owner\") */\n      tag_68\n      jumpi\n      mload(0x40)\n      0x08c379a000000000000000000000000000000000000000000000000000000000\n      dup2\n      mstore\n      0x04\n      add\n      tag_69\n      swap1\n      tag_53\n      jump\t// in\n    tag_69:\n      mload(0x40)\n      dup1\n      swap2\n      sub\n      swap1\n      revert\n    tag_68:\n        /* \"w1d4/Bank.sol\":2903:2904  0 */\n      0x00\n        /* \"w1d4/Bank.sol\":2883:2905  newOwner != address(0) */\n      0xffffffffffffffffffffffffffffffffffffffff\n      and\n        /* \"w1d4/Bank.sol\":2883:2891  newOwner */\n      dup2\n        /* \"w1d4/Bank.sol\":2883:2905  newOwner != address(0) */\n      0xffffffffffffffffffffffffffffffffffffffff\n      and\n      sub\n        /* \"w1d4/Bank.sol\":2875:2947  require(newOwner != address(0), \"New owner cannot be the zero address.\") */\n      tag_70\n      jumpi\n      mload(0x40)\n      0x08c379a000000000000000000000000000000000000000000000000000000000\n      dup2\n      mstore\n      0x04\n      add\n      tag_71\n      swap1\n      tag_72\n      jump\t// in\n    tag_71:\n      mload(0x40)\n      dup1\n      swap2\n      sub\n      swap1\n      revert\n    tag_70:\n        /* \"w1d4/Bank.sol\":2978:2983  owner */\n      0x00\n      dup1\n      sload\n      swap1\n      0x0100\n      exp\n      swap1\n      div\n      0xffffffffffffffffffffffffffffffffffffffff\n      and\n        /* \"w1d4/Bank.sol\":2966:2983  newOwner != owner */\n      0xffffffffffffffffffffffffffffffffffffffff\n      and\n        /* \"w1d4/Bank.sol\":2966:2974  newOwner */\n      dup2\n        /* \"w1d4/Bank.sol\":2966:2983  newOwner != owner */\n      0xffffffffffffffffffffffffffffffffffffffff\n      and\n      sub\n        /* \"w1d4/Bank.sol\":2958:3027  require(newOwner != owner, \"New owner is already the current owner.\") */\n      tag_73\n      jumpi\n      mload(0x40)\n      0x08c379a000000000000000000000000000000000000000000000000000000000\n      dup2\n      mstore\n      0x04\n      add\n      tag_74\n      swap1\n      tag_75\n      jump\t// in\n    tag_74:\n      mload(0x40)\n      dup1\n      swap2\n      sub\n      swap1\n      revert\n    tag_73:\n        /* \"w1d4/Bank.sol\":3071:3079  newOwner */\n      dup1\n        /* \"w1d4/Bank.sol\":3043:3080  OwnershipTransferred(owner, newOwner) */\n      0xffffffffffffffffffffffffffffffffffffffff\n      and\n        /* \"w1d4/Bank.sol\":3064:3069  owner */\n      0x00\n      dup1\n      sload\n      swap1\n      0x0100\n      exp\n      swap1\n      div\n      0xffffffffffffffffffffffffffffffffffffffff\n      and\n        /* \"w1d4/Bank.sol\":3043:3080  OwnershipTransferred(owner, newOwner) */\n      0xffffffffffffffffffffffffffffffffffffffff\n      and\n      0x8be0079c531659141344cd1fd0a4f28419497f9722a3daafe3b4186f6b6457e0\n      mload(0x40)\n      mload(0x40)\n      dup1\n      swap2\n      sub\n      swap1\n      log3\n        /* \"w1d4/Bank.sol\":3107:3115  newOwner */\n      dup1\n        /* \"w1d4/Bank.sol\":3091:3096  owner */\n      0x00\n      dup1\n        /* \"w1d4/Bank.sol\":3091:3116  owner = payable(newOwner) */\n      0x0100\n      exp\n      dup2\n      sload\n      dup2\n      0xffffffffffffffffffffffffffffffffffffffff\n      mul\n      not\n      and\n      swap1\n      dup4\n      0xffffffffffffffffffffffffffffffffffffffff\n      and\n      mul\n      or\n      swap1\n      sstore\n      pop\n        /* \"w1d4/Bank.sol\":2757:3124  function transferOwnership(address newOwner) public {... */\n      pop\n      jump\t// out\n        /* \"w1d4/Bank.sol\":597:623  uint[3] public top3Balance */\n    tag_46:\n      0x05\n      dup2\n      0x03\n      dup2\n      lt\n      tag_76\n      jumpi\n      0x00\n      dup1\n      revert\n    tag_76:\n      add\n      0x00\n      swap2\n      pop\n      swap1\n      pop\n      sload\n      dup2\n      jump\t// out\n        /* \"#utility.yul\":7:176   */\n    tag_78:\n        /* \"#utility.yul\":91:102   */\n      0x00\n        /* \"#utility.yul\":125:131   */\n      dup3\n        /* \"#utility.yul\":120:123   */\n      dup3\n        /* \"#utility.yul\":113:132   */\n      mstore\n        /* \"#utility.yul\":165:169   */\n      0x20\n        /* \"#utility.yul\":160:163   */\n      dup3\n        /* \"#utility.yul\":156:170   */\n      add\n        /* \"#utility.yul\":141:170   */\n      swap1\n      pop\n        /* \"#utility.yul\":7:176   */\n      swap3\n      swap2\n      pop\n      pop\n      jump\t// out\n        /* \"#utility.yul\":182:421   */\n    tag_79:\n        /* \"#utility.yul\":322:356   */\n      0x546865206465706f73697420616d6f756e74206d757374206265206772656174\n        /* \"#utility.yul\":318:319   */\n      0x00\n        /* \"#utility.yul\":310:316   */\n      dup3\n        /* \"#utility.yul\":306:320   */\n      add\n        /* \"#utility.yul\":299:357   */\n      mstore\n        /* \"#utility.yul\":391:413   */\n      0x6572207468616e20302e3030312065746865722e000000000000000000000000\n        /* \"#utility.yul\":386:388   */\n      0x20\n        /* \"#utility.yul\":378:384   */\n      dup3\n        /* \"#utility.yul\":374:389   */\n      add\n        /* \"#utility.yul\":367:414   */\n      mstore\n        /* \"#utility.yul\":182:421   */\n      pop\n      jump\t// out\n        /* \"#utility.yul\":427:793   */\n    tag_80:\n        /* \"#utility.yul\":569:572   */\n      0x00\n        /* \"#utility.yul\":590:657   */\n      tag_118\n        /* \"#utility.yul\":654:656   */\n      0x34\n        /* \"#utility.yul\":649:652   */\n      dup4\n        /* \"#utility.yul\":590:657   */\n      tag_78\n      jump\t// in\n    tag_118:\n        /* \"#utility.yul\":583:657   */\n      swap2\n      pop\n        /* \"#utility.yul\":666:759   */\n      tag_119\n        /* \"#utility.yul\":755:758   */\n      dup3\n        /* \"#utility.yul\":666:759   */\n      tag_79\n      jump\t// in\n    tag_119:\n        /* \"#utility.yul\":784:786   */\n      0x40\n        /* \"#utility.yul\":779:782   */\n      dup3\n        /* \"#utility.yul\":775:787   */\n      add\n        /* \"#utility.yul\":768:787   */\n      swap1\n      pop\n        /* \"#utility.yul\":427:793   */\n      swap2\n      swap1\n      pop\n      jump\t// out\n        /* \"#utility.yul\":799:1218   */\n    tag_13:\n        /* \"#utility.yul\":965:969   */\n      0x00\n        /* \"#utility.yul\":1003:1005   */\n      0x20\n        /* \"#utility.yul\":992:1001   */\n      dup3\n        /* \"#utility.yul\":988:1006   */\n      add\n        /* \"#utility.yul\":980:1006   */\n      swap1\n      pop\n        /* \"#utility.yul\":1052:1061   */\n      dup2\n        /* \"#utility.yul\":1046:1050   */\n      dup2\n        /* \"#utility.yul\":1042:1062   */\n      sub\n        /* \"#utility.yul\":1038:1039   */\n      0x00\n        /* \"#utility.yul\":1027:1036   */\n      dup4\n        /* \"#utility.yul\":1023:1040   */\n      add\n        /* \"#utility.yul\":1016:1063   */\n      mstore\n        /* \"#utility.yul\":1080:1211   */\n      tag_121\n        /* \"#utility.yul\":1206:1210   */\n      dup2\n        /* \"#utility.yul\":1080:1211   */\n      tag_80\n      jump\t// in\n    tag_121:\n        /* \"#utility.yul\":1072:1211   */\n      swap1\n      pop\n        /* \"#utility.yul\":799:1218   */\n      swap2\n      swap1\n      pop\n      jump\t// out\n        /* \"#utility.yul\":1224:1301   */\n    tag_81:\n        /* \"#utility.yul\":1261:1268   */\n      0x00\n        /* \"#utility.yul\":1290:1295   */\n      dup2\n        /* \"#utility.yul\":1279:1295   */\n      swap1\n      pop\n        /* \"#utility.yul\":1224:1301   */\n      swap2\n      swap1\n      pop\n      jump\t// out\n        /* \"#utility.yul\":1307:1487   */\n    tag_82:\n        /* \"#utility.yul\":1355:1432   */\n      0x4e487b7100000000000000000000000000000000000000000000000000000000\n        /* \"#utility.yul\":1352:1353   */\n      0x00\n        /* \"#utility.yul\":1345:1433   */\n      mstore\n        /* \"#utility.yul\":1452:1456   */\n      0x11\n        /* \"#utility.yul\":1449:1450   */\n      0x04\n        /* \"#utility.yul\":1442:1457   */\n      mstore\n        /* \"#utility.yul\":1476:1480   */\n      0x24\n        /* \"#utility.yul\":1473:1474   */\n      0x00\n        /* \"#utility.yul\":1466:1481   */\n      revert\n        /* \"#utility.yul\":1493:1684   */\n    tag_16:\n        /* \"#utility.yul\":1533:1536   */\n      0x00\n        /* \"#utility.yul\":1552:1572   */\n      tag_125\n        /* \"#utility.yul\":1570:1571   */\n      dup3\n        /* \"#utility.yul\":1552:1572   */\n      tag_81\n      jump\t// in\n    tag_125:\n        /* \"#utility.yul\":1547:1572   */\n      swap2\n      pop\n        /* \"#utility.yul\":1586:1606   */\n      tag_126\n        /* \"#utility.yul\":1604:1605   */\n      dup4\n        /* \"#utility.yul\":1586:1606   */\n      tag_81\n      jump\t// in\n    tag_126:\n        /* \"#utility.yul\":1581:1606   */\n      swap3\n      pop\n        /* \"#utility.yul\":1629:1630   */\n      dup3\n        /* \"#utility.yul\":1626:1627   */\n      dup3\n        /* \"#utility.yul\":1622:1631   */\n      add\n        /* \"#utility.yul\":1615:1631   */\n      swap1\n      pop\n        /* \"#utility.yul\":1650:1653   */\n      dup1\n        /* \"#utility.yul\":1647:1648   */\n      dup3\n        /* \"#utility.yul\":1644:1654   */\n      gt\n        /* \"#utility.yul\":1641:1677   */\n      iszero\n      tag_127\n      jumpi\n        /* \"#utility.yul\":1657:1675   */\n      tag_128\n      tag_82\n      jump\t// in\n    tag_128:\n        /* \"#utility.yul\":1641:1677   */\n    tag_127:\n        /* \"#utility.yul\":1493:1684   */\n      swap3\n      swap2\n      pop\n      pop\n      jump\t// out\n        /* \"#utility.yul\":1771:1888   */\n    tag_84:\n        /* \"#utility.yul\":1880:1881   */\n      0x00\n        /* \"#utility.yul\":1877:1878   */\n      dup1\n        /* \"#utility.yul\":1870:1882   */\n      revert\n        /* \"#utility.yul\":2017:2139   */\n    tag_86:\n        /* \"#utility.yul\":2090:2114   */\n      tag_133\n        /* \"#utility.yul\":2108:2113   */\n      dup2\n        /* \"#utility.yul\":2090:2114   */\n      tag_81\n      jump\t// in\n    tag_133:\n        /* \"#utility.yul\":2083:2088   */\n      dup2\n        /* \"#utility.yul\":2080:2115   */\n      eq\n        /* \"#utility.yul\":2070:2133   */\n      tag_134\n      jumpi\n        /* \"#utility.yul\":2129:2130   */\n      0x00\n        /* \"#utility.yul\":2126:2127   */\n      dup1\n        /* \"#utility.yul\":2119:2131   */\n      revert\n        /* \"#utility.yul\":2070:2133   */\n    tag_134:\n        /* \"#utility.yul\":2017:2139   */\n      pop\n      jump\t// out\n        /* \"#utility.yul\":2145:2284   */\n    tag_87:\n        /* \"#utility.yul\":2191:2196   */\n      0x00\n        /* \"#utility.yul\":2229:2235   */\n      dup2\n        /* \"#utility.yul\":2216:2236   */\n      calldataload\n        /* \"#utility.yul\":2207:2236   */\n      swap1\n      pop\n        /* \"#utility.yul\":2245:2278   */\n      tag_136\n        /* \"#utility.yul\":2272:2277   */\n      dup2\n        /* \"#utility.yul\":2245:2278   */\n      tag_86\n      jump\t// in\n    tag_136:\n        /* \"#utility.yul\":2145:2284   */\n      swap3\n      swap2\n      pop\n      pop\n      jump\t// out\n        /* \"#utility.yul\":2290:2619   */\n    tag_19:\n        /* \"#utility.yul\":2349:2355   */\n      0x00\n        /* \"#utility.yul\":2398:2400   */\n      0x20\n        /* \"#utility.yul\":2386:2395   */\n      dup3\n        /* \"#utility.yul\":2377:2384   */\n      dup5\n        /* \"#utility.yul\":2373:2396   */\n      sub\n        /* \"#utility.yul\":2369:2401   */\n      slt\n        /* \"#utility.yul\":2366:2485   */\n      iszero\n      tag_138\n      jumpi\n        /* \"#utility.yul\":2404:2483   */\n      tag_139\n      tag_84\n      jump\t// in\n    tag_139:\n        /* \"#utility.yul\":2366:2485   */\n    tag_138:\n        /* \"#utility.yul\":2524:2525   */\n      0x00\n        /* \"#utility.yul\":2549:2602   */\n      tag_140\n        /* \"#utility.yul\":2594:2601   */\n      dup5\n        /* \"#utility.yul\":2585:2591   */\n      dup3\n        /* \"#utility.yul\":2574:2583   */\n      dup6\n        /* \"#utility.yul\":2570:2592   */\n      add\n        /* \"#utility.yul\":2549:2602   */\n      tag_87\n      jump\t// in\n    tag_140:\n        /* \"#utility.yul\":2539:2602   */\n      swap2\n      pop\n        /* \"#utility.yul\":2495:2612   */\n      pop\n        /* \"#utility.yul\":2290:2619   */\n      swap3\n      swap2\n      pop\n      pop\n      jump\t// out\n        /* \"#utility.yul\":2625:2751   */\n    tag_88:\n        /* \"#utility.yul\":2662:2669   */\n      0x00\n        /* \"#utility.yul\":2702:2744   */\n      0xffffffffffffffffffffffffffffffffffffffff\n        /* \"#utility.yul\":2695:2700   */\n      dup3\n        /* \"#utility.yul\":2691:2745   */\n      and\n        /* \"#utility.yul\":2680:2745   */\n      swap1\n      pop\n        /* \"#utility.yul\":2625:2751   */\n      swap2\n      swap1\n      pop\n      jump\t// out\n        /* \"#utility.yul\":2757:2861   */\n    tag_89:\n        /* \"#utility.yul\":2802:2809   */\n      0x00\n        /* \"#utility.yul\":2831:2855   */\n      tag_143\n        /* \"#utility.yul\":2849:2854   */\n      dup3\n        /* \"#utility.yul\":2831:2855   */\n      tag_88\n      jump\t// in\n    tag_143:\n        /* \"#utility.yul\":2820:2855   */\n      swap1\n      pop\n        /* \"#utility.yul\":2757:2861   */\n      swap2\n      swap1\n      pop\n      jump\t// out\n        /* \"#utility.yul\":2867:3009   */\n    tag_90:\n        /* \"#utility.yul\":2970:3002   */\n      tag_145\n        /* \"#utility.yul\":2996:3001   */\n      dup2\n        /* \"#utility.yul\":2970:3002   */\n      tag_89\n      jump\t// in\n    tag_145:\n        /* \"#utility.yul\":2965:2968   */\n      dup3\n        /* \"#utility.yul\":2958:3003   */\n      mstore\n        /* \"#utility.yul\":2867:3009   */\n      pop\n      pop\n      jump\t// out\n        /* \"#utility.yul\":3015:3269   */\n    tag_25:\n        /* \"#utility.yul\":3124:3128   */\n      0x00\n        /* \"#utility.yul\":3162:3164   */\n      0x20\n        /* \"#utility.yul\":3151:3160   */\n      dup3\n        /* \"#utility.yul\":3147:3165   */\n      add\n        /* \"#utility.yul\":3139:3165   */\n      swap1\n      pop\n        /* \"#utility.yul\":3175:3262   */\n      tag_147\n        /* \"#utility.yul\":3259:3260   */\n      0x00\n        /* \"#utility.yul\":3248:3257   */\n      dup4\n        /* \"#utility.yul\":3244:3261   */\n      add\n        /* \"#utility.yul\":3235:3241   */\n      dup5\n        /* \"#utility.yul\":3175:3262   */\n      tag_90\n      jump\t// in\n    tag_147:\n        /* \"#utility.yul\":3015:3269   */\n      swap3\n      swap2\n      pop\n      pop\n      jump\t// out\n        /* \"#utility.yul\":3275:3371   */\n    tag_91:\n        /* \"#utility.yul\":3312:3319   */\n      0x00\n        /* \"#utility.yul\":3341:3365   */\n      tag_149\n        /* \"#utility.yul\":3359:3364   */\n      dup3\n        /* \"#utility.yul\":3341:3365   */\n      tag_88\n      jump\t// in\n    tag_149:\n        /* \"#utility.yul\":3330:3365   */\n      swap1\n      pop\n        /* \"#utility.yul\":3275:3371   */\n      swap2\n      swap1\n      pop\n      jump\t// out\n        /* \"#utility.yul\":3377:3495   */\n    tag_92:\n        /* \"#utility.yul\":3464:3488   */\n      tag_151\n        /* \"#utility.yul\":3482:3487   */\n      dup2\n        /* \"#utility.yul\":3464:3488   */\n      tag_91\n      jump\t// in\n    tag_151:\n        /* \"#utility.yul\":3459:3462   */\n      dup3\n        /* \"#utility.yul\":3452:3489   */\n      mstore\n        /* \"#utility.yul\":3377:3495   */\n      pop\n      pop\n      jump\t// out\n        /* \"#utility.yul\":3501:3723   */\n    tag_31:\n        /* \"#utility.yul\":3594:3598   */\n      0x00\n        /* \"#utility.yul\":3632:3634   */\n      0x20\n        /* \"#utility.yul\":3621:3630   */\n      dup3\n        /* \"#utility.yul\":3617:3635   */\n      add\n        /* \"#utility.yul\":3609:3635   */\n      swap1\n      pop\n        /* \"#utility.yul\":3645:3716   */\n      tag_153\n        /* \"#utility.yul\":3713:3714   */\n      0x00\n        /* \"#utility.yul\":3702:3711   */\n      dup4\n        /* \"#utility.yul\":3698:3715   */\n      add\n        /* \"#utility.yul\":3689:3695   */\n      dup5\n        /* \"#utility.yul\":3645:3716   */\n      tag_92\n      jump\t// in\n    tag_153:\n        /* \"#utility.yul\":3501:3723   */\n      swap3\n      swap2\n      pop\n      pop\n      jump\t// out\n        /* \"#utility.yul\":3729:3851   */\n    tag_93:\n        /* \"#utility.yul\":3802:3826   */\n      tag_155\n        /* \"#utility.yul\":3820:3825   */\n      dup2\n        /* \"#utility.yul\":3802:3826   */\n      tag_91\n      jump\t// in\n    tag_155:\n        /* \"#utility.yul\":3795:3800   */\n      dup2\n        /* \"#utility.yul\":3792:3827   */\n      eq\n        /* \"#utility.yul\":3782:3845   */\n      tag_156\n      jumpi\n        /* \"#utility.yul\":3841:3842   */\n      0x00\n        /* \"#utility.yul\":3838:3839   */\n      dup1\n        /* \"#utility.yul\":3831:3843   */\n      revert\n        /* \"#utility.yul\":3782:3845   */\n    tag_156:\n        /* \"#utility.yul\":3729:3851   */\n      pop\n      jump\t// out\n        /* \"#utility.yul\":3857:3996   */\n    tag_94:\n        /* \"#utility.yul\":3903:3908   */\n      0x00\n        /* \"#utility.yul\":3941:3947   */\n      dup2\n        /* \"#utility.yul\":3928:3948   */\n      calldataload\n        /* \"#utility.yul\":3919:3948   */\n      swap1\n      pop\n        /* \"#utility.yul\":3957:3990   */\n      tag_158\n        /* \"#utility.yul\":3984:3989   */\n      dup2\n        /* \"#utility.yul\":3957:3990   */\n      tag_93\n      jump\t// in\n    tag_158:\n        /* \"#utility.yul\":3857:3996   */\n      swap3\n      swap2\n      pop\n      pop\n      jump\t// out\n        /* \"#utility.yul\":4002:4331   */\n    tag_35:\n        /* \"#utility.yul\":4061:4067   */\n      0x00\n        /* \"#utility.yul\":4110:4112   */\n      0x20\n        /* \"#utility.yul\":4098:4107   */\n      dup3\n        /* \"#utility.yul\":4089:4096   */\n      dup5\n        /* \"#utility.yul\":4085:4108   */\n      sub\n        /* \"#utility.yul\":4081:4113   */\n      slt\n        /* \"#utility.yul\":4078:4197   */\n      iszero\n      tag_160\n      jumpi\n        /* \"#utility.yul\":4116:4195   */\n      tag_161\n      tag_84\n      jump\t// in\n    tag_161:\n        /* \"#utility.yul\":4078:4197   */\n    tag_160:\n        /* \"#utility.yul\":4236:4237   */\n      0x00\n        /* \"#utility.yul\":4261:4314   */\n      tag_162\n        /* \"#utility.yul\":4306:4313   */\n      dup5\n        /* \"#utility.yul\":4297:4303   */\n      dup3\n        /* \"#utility.yul\":4286:4295   */\n      dup6\n        /* \"#utility.yul\":4282:4304   */\n      add\n        /* \"#utility.yul\":4261:4314   */\n      tag_94\n      jump\t// in\n    tag_162:\n        /* \"#utility.yul\":4251:4314   */\n      swap2\n      pop\n        /* \"#utility.yul\":4207:4324   */\n      pop\n        /* \"#utility.yul\":4002:4331   */\n      swap3\n      swap2\n      pop\n      pop\n      jump\t// out\n        /* \"#utility.yul\":4337:4455   */\n    tag_95:\n        /* \"#utility.yul\":4424:4448   */\n      tag_164\n        /* \"#utility.yul\":4442:4447   */\n      dup2\n        /* \"#utility.yul\":4424:4448   */\n      tag_81\n      jump\t// in\n    tag_164:\n        /* \"#utility.yul\":4419:4422   */\n      dup3\n        /* \"#utility.yul\":4412:4449   */\n      mstore\n        /* \"#utility.yul\":4337:4455   */\n      pop\n      pop\n      jump\t// out\n        /* \"#utility.yul\":4461:4683   */\n    tag_38:\n        /* \"#utility.yul\":4554:4558   */\n      0x00\n        /* \"#utility.yul\":4592:4594   */\n      0x20\n        /* \"#utility.yul\":4581:4590   */\n      dup3\n        /* \"#utility.yul\":4577:4595   */\n      add\n        /* \"#utility.yul\":4569:4595   */\n      swap1\n      pop\n        /* \"#utility.yul\":4605:4676   */\n      tag_166\n        /* \"#utility.yul\":4673:4674   */\n      0x00\n        /* \"#utility.yul\":4662:4671   */\n      dup4\n        /* \"#utility.yul\":4658:4675   */\n      add\n        /* \"#utility.yul\":4649:4655   */\n      dup5\n        /* \"#utility.yul\":4605:4676   */\n      tag_95\n      jump\t// in\n    tag_166:\n        /* \"#utility.yul\":4461:4683   */\n      swap3\n      swap2\n      pop\n      pop\n      jump\t// out\n        /* \"#utility.yul\":4689:4847   */\n    tag_96:\n        /* \"#utility.yul\":4829:4839   */\n      0x7769746864726177000000000000000000000000000000000000000000000000\n        /* \"#utility.yul\":4825:4826   */\n      0x00\n        /* \"#utility.yul\":4817:4823   */\n      dup3\n        /* \"#utility.yul\":4813:4827   */\n      add\n        /* \"#utility.yul\":4806:4840   */\n      mstore\n        /* \"#utility.yul\":4689:4847   */\n      pop\n      jump\t// out\n        /* \"#utility.yul\":4853:5218   */\n    tag_97:\n        /* \"#utility.yul\":4995:4998   */\n      0x00\n        /* \"#utility.yul\":5016:5082   */\n      tag_169\n        /* \"#utility.yul\":5080:5081   */\n      0x08\n        /* \"#utility.yul\":5075:5078   */\n      dup4\n        /* \"#utility.yul\":5016:5082   */\n      tag_78\n      jump\t// in\n    tag_169:\n        /* \"#utility.yul\":5009:5082   */\n      swap2\n      pop\n        /* \"#utility.yul\":5091:5184   */\n      tag_170\n        /* \"#utility.yul\":5180:5183   */\n      dup3\n        /* \"#utility.yul\":5091:5184   */\n      tag_96\n      jump\t// in\n    tag_170:\n        /* \"#utility.yul\":5209:5211   */\n      0x20\n        /* \"#utility.yul\":5204:5207   */\n      dup3\n        /* \"#utility.yul\":5200:5212   */\n      add\n        /* \"#utility.yul\":5193:5212   */\n      swap1\n      pop\n        /* \"#utility.yul\":4853:5218   */\n      swap2\n      swap1\n      pop\n      jump\t// out\n        /* \"#utility.yul\":5224:5284   */\n    tag_98:\n        /* \"#utility.yul\":5252:5255   */\n      0x00\n        /* \"#utility.yul\":5273:5278   */\n      dup2\n        /* \"#utility.yul\":5266:5278   */\n      swap1\n      pop\n        /* \"#utility.yul\":5224:5284   */\n      swap2\n      swap1\n      pop\n      jump\t// out\n        /* \"#utility.yul\":5290:5432   */\n    tag_99:\n        /* \"#utility.yul\":5340:5349   */\n      0x00\n        /* \"#utility.yul\":5373:5426   */\n      tag_173\n        /* \"#utility.yul\":5391:5425   */\n      tag_174\n        /* \"#utility.yul\":5400:5424   */\n      tag_175\n        /* \"#utility.yul\":5418:5423   */\n      dup5\n        /* \"#utility.yul\":5400:5424   */\n      tag_88\n      jump\t// in\n    tag_175:\n        /* \"#utility.yul\":5391:5425   */\n      tag_98\n      jump\t// in\n    tag_174:\n        /* \"#utility.yul\":5373:5426   */\n      tag_88\n      jump\t// in\n    tag_173:\n        /* \"#utility.yul\":5360:5426   */\n      swap1\n      pop\n        /* \"#utility.yul\":5290:5432   */\n      swap2\n      swap1\n      pop\n      jump\t// out\n        /* \"#utility.yul\":5438:5564   */\n    tag_100:\n        /* \"#utility.yul\":5488:5497   */\n      0x00\n        /* \"#utility.yul\":5521:5558   */\n      tag_177\n        /* \"#utility.yul\":5552:5557   */\n      dup3\n        /* \"#utility.yul\":5521:5558   */\n      tag_99\n      jump\t// in\n    tag_177:\n        /* \"#utility.yul\":5508:5558   */\n      swap1\n      pop\n        /* \"#utility.yul\":5438:5564   */\n      swap2\n      swap1\n      pop\n      jump\t// out\n        /* \"#utility.yul\":5570:5704   */\n    tag_101:\n        /* \"#utility.yul\":5628:5637   */\n      0x00\n        /* \"#utility.yul\":5661:5698   */\n      tag_179\n        /* \"#utility.yul\":5692:5697   */\n      dup3\n        /* \"#utility.yul\":5661:5698   */\n      tag_100\n      jump\t// in\n    tag_179:\n        /* \"#utility.yul\":5648:5698   */\n      swap1\n      pop\n        /* \"#utility.yul\":5570:5704   */\n      swap2\n      swap1\n      pop\n      jump\t// out\n        /* \"#utility.yul\":5710:5857   */\n    tag_102:\n        /* \"#utility.yul\":5805:5850   */\n      tag_181\n        /* \"#utility.yul\":5844:5849   */\n      dup2\n        /* \"#utility.yul\":5805:5850   */\n      tag_101\n      jump\t// in\n    tag_181:\n        /* \"#utility.yul\":5800:5803   */\n      dup3\n        /* \"#utility.yul\":5793:5851   */\n      mstore\n        /* \"#utility.yul\":5710:5857   */\n      pop\n      pop\n      jump\t// out\n        /* \"#utility.yul\":5863:6629   */\n    tag_50:\n        /* \"#utility.yul\":6121:6125   */\n      0x00\n        /* \"#utility.yul\":6159:6162   */\n      0x80\n        /* \"#utility.yul\":6148:6157   */\n      dup3\n        /* \"#utility.yul\":6144:6163   */\n      add\n        /* \"#utility.yul\":6136:6163   */\n      swap1\n      pop\n        /* \"#utility.yul\":6209:6218   */\n      dup2\n        /* \"#utility.yul\":6203:6207   */\n      dup2\n        /* \"#utility.yul\":6199:6219   */\n      sub\n        /* \"#utility.yul\":6195:6196   */\n      0x00\n        /* \"#utility.yul\":6184:6193   */\n      dup4\n        /* \"#utility.yul\":6180:6197   */\n      add\n        /* \"#utility.yul\":6173:6220   */\n      mstore\n        /* \"#utility.yul\":6237:6368   */\n      tag_183\n        /* \"#utility.yul\":6363:6367   */\n      dup2\n        /* \"#utility.yul\":6237:6368   */\n      tag_97\n      jump\t// in\n    tag_183:\n        /* \"#utility.yul\":6229:6368   */\n      swap1\n      pop\n        /* \"#utility.yul\":6378:6450   */\n      tag_184\n        /* \"#utility.yul\":6446:6448   */\n      0x20\n        /* \"#utility.yul\":6435:6444   */\n      dup4\n        /* \"#utility.yul\":6431:6449   */\n      add\n        /* \"#utility.yul\":6422:6428   */\n      dup7\n        /* \"#utility.yul\":6378:6450   */\n      tag_95\n      jump\t// in\n    tag_184:\n        /* \"#utility.yul\":6460:6532   */\n      tag_185\n        /* \"#utility.yul\":6528:6530   */\n      0x40\n        /* \"#utility.yul\":6517:6526   */\n      dup4\n        /* \"#utility.yul\":6513:6531   */\n      add\n        /* \"#utility.yul\":6504:6510   */\n      dup6\n        /* \"#utility.yul\":6460:6532   */\n      tag_92\n      jump\t// in\n    tag_185:\n        /* \"#utility.yul\":6542:6622   */\n      tag_186\n        /* \"#utility.yul\":6618:6620   */\n      0x60\n        /* \"#utility.yul\":6607:6616   */\n      dup4\n        /* \"#utility.yul\":6603:6621   */\n      add\n        /* \"#utility.yul\":6594:6600   */\n      dup5\n        /* \"#utility.yul\":6542:6622   */\n      tag_102\n      jump\t// in\n    tag_186:\n        /* \"#utility.yul\":5863:6629   */\n      swap5\n      swap4\n      pop\n      pop\n      pop\n      pop\n      jump\t// out\n        /* \"#utility.yul\":6635:6797   */\n    tag_103:\n        /* \"#utility.yul\":6775:6789   */\n      0x4e6f7420616e206f776e65720000000000000000000000000000000000000000\n        /* \"#utility.yul\":6771:6772   */\n      0x00\n        /* \"#utility.yul\":6763:6769   */\n      dup3\n        /* \"#utility.yul\":6759:6773   */\n      add\n        /* \"#utility.yul\":6752:6790   */\n      mstore\n        /* \"#utility.yul\":6635:6797   */\n      pop\n      jump\t// out\n        /* \"#utility.yul\":6803:7169   */\n    tag_104:\n        /* \"#utility.yul\":6945:6948   */\n      0x00\n        /* \"#utility.yul\":6966:7033   */\n      tag_189\n        /* \"#utility.yul\":7030:7032   */\n      0x0c\n        /* \"#utility.yul\":7025:7028   */\n      dup4\n        /* \"#utility.yul\":6966:7033   */\n      tag_78\n      jump\t// in\n    tag_189:\n        /* \"#utility.yul\":6959:7033   */\n      swap2\n      pop\n        /* \"#utility.yul\":7042:7135   */\n      tag_190\n        /* \"#utility.yul\":7131:7134   */\n      dup3\n        /* \"#utility.yul\":7042:7135   */\n      tag_103\n      jump\t// in\n    tag_190:\n        /* \"#utility.yul\":7160:7162   */\n      0x20\n        /* \"#utility.yul\":7155:7158   */\n      dup3\n        /* \"#utility.yul\":7151:7163   */\n      add\n        /* \"#utility.yul\":7144:7163   */\n      swap1\n      pop\n        /* \"#utility.yul\":6803:7169   */\n      swap2\n      swap1\n      pop\n      jump\t// out\n        /* \"#utility.yul\":7175:7594   */\n    tag_53:\n        /* \"#utility.yul\":7341:7345   */\n      0x00\n        /* \"#utility.yul\":7379:7381   */\n      0x20\n        /* \"#utility.yul\":7368:7377   */\n      dup3\n        /* \"#utility.yul\":7364:7382   */\n      add\n        /* \"#utility.yul\":7356:7382   */\n      swap1\n      pop\n        /* \"#utility.yul\":7428:7437   */\n      dup2\n        /* \"#utility.yul\":7422:7426   */\n      dup2\n        /* \"#utility.yul\":7418:7438   */\n      sub\n        /* \"#utility.yul\":7414:7415   */\n      0x00\n        /* \"#utility.yul\":7403:7412   */\n      dup4\n        /* \"#utility.yul\":7399:7416   */\n      add\n        /* \"#utility.yul\":7392:7439   */\n      mstore\n        /* \"#utility.yul\":7456:7587   */\n      tag_192\n        /* \"#utility.yul\":7582:7586   */\n      dup2\n        /* \"#utility.yul\":7456:7587   */\n      tag_104\n      jump\t// in\n    tag_192:\n        /* \"#utility.yul\":7448:7587   */\n      swap1\n      pop\n        /* \"#utility.yul\":7175:7594   */\n      swap2\n      swap1\n      pop\n      jump\t// out\n        /* \"#utility.yul\":7600:7932   */\n    tag_56:\n        /* \"#utility.yul\":7721:7725   */\n      0x00\n        /* \"#utility.yul\":7759:7761   */\n      0x40\n        /* \"#utility.yul\":7748:7757   */\n      dup3\n        /* \"#utility.yul\":7744:7762   */\n      add\n        /* \"#utility.yul\":7736:7762   */\n      swap1\n      pop\n        /* \"#utility.yul\":7772:7843   */\n      tag_194\n        /* \"#utility.yul\":7840:7841   */\n      0x00\n        /* \"#utility.yul\":7829:7838   */\n      dup4\n        /* \"#utility.yul\":7825:7842   */\n      add\n        /* \"#utility.yul\":7816:7822   */\n      dup6\n        /* \"#utility.yul\":7772:7843   */\n      tag_95\n      jump\t// in\n    tag_194:\n        /* \"#utility.yul\":7853:7925   */\n      tag_195\n        /* \"#utility.yul\":7921:7923   */\n      0x20\n        /* \"#utility.yul\":7910:7919   */\n      dup4\n        /* \"#utility.yul\":7906:7924   */\n      add\n        /* \"#utility.yul\":7897:7903   */\n      dup5\n        /* \"#utility.yul\":7853:7925   */\n      tag_95\n      jump\t// in\n    tag_195:\n        /* \"#utility.yul\":7600:7932   */\n      swap4\n      swap3\n      pop\n      pop\n      pop\n      jump\t// out\n        /* \"#utility.yul\":7938:8085   */\n    tag_105:\n        /* \"#utility.yul\":8039:8050   */\n      0x00\n        /* \"#utility.yul\":8076:8079   */\n      dup2\n        /* \"#utility.yul\":8061:8079   */\n      swap1\n      pop\n        /* \"#utility.yul\":7938:8085   */\n      swap3\n      swap2\n      pop\n      pop\n      jump\t// out\n        /* \"#utility.yul\":8091:8205   */\n    tag_106:\n      pop\n      jump\t// out\n        /* \"#utility.yul\":8211:8609   */\n    tag_107:\n        /* \"#utility.yul\":8370:8373   */\n      0x00\n        /* \"#utility.yul\":8391:8474   */\n      tag_199\n        /* \"#utility.yul\":8472:8473   */\n      0x00\n        /* \"#utility.yul\":8467:8470   */\n      dup4\n        /* \"#utility.yul\":8391:8474   */\n      tag_105\n      jump\t// in\n    tag_199:\n        /* \"#utility.yul\":8384:8474   */\n      swap2\n      pop\n        /* \"#utility.yul\":8483:8576   */\n      tag_200\n        /* \"#utility.yul\":8572:8575   */\n      dup3\n        /* \"#utility.yul\":8483:8576   */\n      tag_106\n      jump\t// in\n    tag_200:\n        /* \"#utility.yul\":8601:8602   */\n      0x00\n        /* \"#utility.yul\":8596:8599   */\n      dup3\n        /* \"#utility.yul\":8592:8603   */\n      add\n        /* \"#utility.yul\":8585:8603   */\n      swap1\n      pop\n        /* \"#utility.yul\":8211:8609   */\n      swap2\n      swap1\n      pop\n      jump\t// out\n        /* \"#utility.yul\":8615:8994   */\n    tag_58:\n        /* \"#utility.yul\":8799:8802   */\n      0x00\n        /* \"#utility.yul\":8821:8968   */\n      tag_202\n        /* \"#utility.yul\":8964:8967   */\n      dup3\n        /* \"#utility.yul\":8821:8968   */\n      tag_107\n      jump\t// in\n    tag_202:\n        /* \"#utility.yul\":8814:8968   */\n      swap2\n      pop\n        /* \"#utility.yul\":8985:8988   */\n      dup2\n        /* \"#utility.yul\":8978:8988   */\n      swap1\n      pop\n        /* \"#utility.yul\":8615:8994   */\n      swap2\n      swap1\n      pop\n      jump\t// out\n        /* \"#utility.yul\":9000:9165   */\n    tag_108:\n        /* \"#utility.yul\":9140:9157   */\n      0x5472616e73666572206661696c65640000000000000000000000000000000000\n        /* \"#utility.yul\":9136:9137   */\n      0x00\n        /* \"#utility.yul\":9128:9134   */\n      dup3\n        /* \"#utility.yul\":9124:9138   */\n      add\n        /* \"#utility.yul\":9117:9158   */\n      mstore\n        /* \"#utility.yul\":9000:9165   */\n      pop\n      jump\t// out\n        /* \"#utility.yul\":9171:9537   */\n    tag_109:\n        /* \"#utility.yul\":9313:9316   */\n      0x00\n        /* \"#utility.yul\":9334:9401   */\n      tag_205\n        /* \"#utility.yul\":9398:9400   */\n      0x0f\n        /* \"#utility.yul\":9393:9396   */\n      dup4\n        /* \"#utility.yul\":9334:9401   */\n      tag_78\n      jump\t// in\n    tag_205:\n        /* \"#utility.yul\":9327:9401   */\n      swap2\n      pop\n        /* \"#utility.yul\":9410:9503   */\n      tag_206\n        /* \"#utility.yul\":9499:9502   */\n      dup3\n        /* \"#utility.yul\":9410:9503   */\n      tag_108\n      jump\t// in\n    tag_206:\n        /* \"#utility.yul\":9528:9530   */\n      0x20\n        /* \"#utility.yul\":9523:9526   */\n      dup3\n        /* \"#utility.yul\":9519:9531   */\n      add\n        /* \"#utility.yul\":9512:9531   */\n      swap1\n      pop\n        /* \"#utility.yul\":9171:9537   */\n      swap2\n      swap1\n      pop\n      jump\t// out\n        /* \"#utility.yul\":9543:9962   */\n    tag_64:\n        /* \"#utility.yul\":9709:9713   */\n      0x00\n        /* \"#utility.yul\":9747:9749   */\n      0x20\n        /* \"#utility.yul\":9736:9745   */\n      dup3\n        /* \"#utility.yul\":9732:9750   */\n      add\n        /* \"#utility.yul\":9724:9750   */\n      swap1\n      pop\n        /* \"#utility.yul\":9796:9805   */\n      dup2\n        /* \"#utility.yul\":9790:9794   */\n      dup2\n        /* \"#utility.yul\":9786:9806   */\n      sub\n        /* \"#utility.yul\":9782:9783   */\n      0x00\n        /* \"#utility.yul\":9771:9780   */\n      dup4\n        /* \"#utility.yul\":9767:9784   */\n      add\n        /* \"#utility.yul\":9760:9807   */\n      mstore\n        /* \"#utility.yul\":9824:9955   */\n      tag_208\n        /* \"#utility.yul\":9950:9954   */\n      dup2\n        /* \"#utility.yul\":9824:9955   */\n      tag_109\n      jump\t// in\n    tag_208:\n        /* \"#utility.yul\":9816:9955   */\n      swap1\n      pop\n        /* \"#utility.yul\":9543:9962   */\n      swap2\n      swap1\n      pop\n      jump\t// out\n        /* \"#utility.yul\":9968:10192   */\n    tag_110:\n        /* \"#utility.yul\":10108:10142   */\n      0x4e6577206f776e65722063616e6e6f7420626520746865207a65726f20616464\n        /* \"#utility.yul\":10104:10105   */\n      0x00\n        /* \"#utility.yul\":10096:10102   */\n      dup3\n        /* \"#utility.yul\":10092:10106   */\n      add\n        /* \"#utility.yul\":10085:10143   */\n      mstore\n        /* \"#utility.yul\":10177:10184   */\n      0x726573732e000000000000000000000000000000000000000000000000000000\n        /* \"#utility.yul\":10172:10174   */\n      0x20\n        /* \"#utility.yul\":10164:10170   */\n      dup3\n        /* \"#utility.yul\":10160:10175   */\n      add\n        /* \"#utility.yul\":10153:10185   */\n      mstore\n        /* \"#utility.yul\":9968:10192   */\n      pop\n      jump\t// out\n        /* \"#utility.yul\":10198:10564   */\n    tag_111:\n        /* \"#utility.yul\":10340:10343   */\n      0x00\n        /* \"#utility.yul\":10361:10428   */\n      tag_211\n        /* \"#utility.yul\":10425:10427   */\n      0x25\n        /* \"#utility.yul\":10420:10423   */\n      dup4\n        /* \"#utility.yul\":10361:10428   */\n      tag_78\n      jump\t// in\n    tag_211:\n        /* \"#utility.yul\":10354:10428   */\n      swap2\n      pop\n        /* \"#utility.yul\":10437:10530   */\n      tag_212\n        /* \"#utility.yul\":10526:10529   */\n      dup3\n        /* \"#utility.yul\":10437:10530   */\n      tag_110\n      jump\t// in\n    tag_212:\n        /* \"#utility.yul\":10555:10557   */\n      0x40\n        /* \"#utility.yul\":10550:10553   */\n      dup3\n        /* \"#utility.yul\":10546:10558   */\n      add\n        /* \"#utility.yul\":10539:10558   */\n      swap1\n      pop\n        /* \"#utility.yul\":10198:10564   */\n      swap2\n      swap1\n      pop\n      jump\t// out\n        /* \"#utility.yul\":10570:10989   */\n    tag_72:\n        /* \"#utility.yul\":10736:10740   */\n      0x00\n        /* \"#utility.yul\":10774:10776   */\n      0x20\n        /* \"#utility.yul\":10763:10772   */\n      dup3\n        /* \"#utility.yul\":10759:10777   */\n      add\n        /* \"#utility.yul\":10751:10777   */\n      swap1\n      pop\n        /* \"#utility.yul\":10823:10832   */\n      dup2\n        /* \"#utility.yul\":10817:10821   */\n      dup2\n        /* \"#utility.yul\":10813:10833   */\n      sub\n        /* \"#utility.yul\":10809:10810   */\n      0x00\n        /* \"#utility.yul\":10798:10807   */\n      dup4\n        /* \"#utility.yul\":10794:10811   */\n      add\n        /* \"#utility.yul\":10787:10834   */\n      mstore\n        /* \"#utility.yul\":10851:10982   */\n      tag_214\n        /* \"#utility.yul\":10977:10981   */\n      dup2\n        /* \"#utility.yul\":10851:10982   */\n      tag_111\n      jump\t// in\n    tag_214:\n        /* \"#utility.yul\":10843:10982   */\n      swap1\n      pop\n        /* \"#utility.yul\":10570:10989   */\n      swap2\n      swap1\n      pop\n      jump\t// out\n        /* \"#utility.yul\":10995:11221   */\n    tag_112:\n        /* \"#utility.yul\":11135:11169   */\n      0x4e6577206f776e657220697320616c7265616479207468652063757272656e74\n        /* \"#utility.yul\":11131:11132   */\n      0x00\n        /* \"#utility.yul\":11123:11129   */\n      dup3\n        /* \"#utility.yul\":11119:11133   */\n      add\n        /* \"#utility.yul\":11112:11170   */\n      mstore\n        /* \"#utility.yul\":11204:11213   */\n      0x206f776e65722e00000000000000000000000000000000000000000000000000\n        /* \"#utility.yul\":11199:11201   */\n      0x20\n        /* \"#utility.yul\":11191:11197   */\n      dup3\n        /* \"#utility.yul\":11187:11202   */\n      add\n        /* \"#utility.yul\":11180:11214   */\n      mstore\n        /* \"#utility.yul\":10995:11221   */\n      pop\n      jump\t// out\n        /* \"#utility.yul\":11227:11593   */\n    tag_113:\n        /* \"#utility.yul\":11369:11372   */\n      0x00\n        /* \"#utility.yul\":11390:11457   */\n      tag_217\n        /* \"#utility.yul\":11454:11456   */\n      0x27\n        /* \"#utility.yul\":11449:11452   */\n      dup4\n        /* \"#utility.yul\":11390:11457   */\n      tag_78\n      jump\t// in\n    tag_217:\n        /* \"#utility.yul\":11383:11457   */\n      swap2\n      pop\n        /* \"#utility.yul\":11466:11559   */\n      tag_218\n        /* \"#utility.yul\":11555:11558   */\n      dup3\n        /* \"#utility.yul\":11466:11559   */\n      tag_112\n      jump\t// in\n    tag_218:\n        /* \"#utility.yul\":11584:11586   */\n      0x40\n        /* \"#utility.yul\":11579:11582   */\n      dup3\n        /* \"#utility.yul\":11575:11587   */\n      add\n        /* \"#utility.yul\":11568:11587   */\n      swap1\n      pop\n        /* \"#utility.yul\":11227:11593   */\n      swap2\n      swap1\n      pop\n      jump\t// out\n        /* \"#utility.yul\":11599:12018   */\n    tag_75:\n        /* \"#utility.yul\":11765:11769   */\n      0x00\n        /* \"#utility.yul\":11803:11805   */\n      0x20\n        /* \"#utility.yul\":11792:11801   */\n      dup3\n        /* \"#utility.yul\":11788:11806   */\n      add\n        /* \"#utility.yul\":11780:11806   */\n      swap1\n      pop\n        /* \"#utility.yul\":11852:11861   */\n      dup2\n        /* \"#utility.yul\":11846:11850   */\n      dup2\n        /* \"#utility.yul\":11842:11862   */\n      sub\n        /* \"#utility.yul\":11838:11839   */\n      0x00\n        /* \"#utility.yul\":11827:11836   */\n      dup4\n        /* \"#utility.yul\":11823:11840   */\n      add\n        /* \"#utility.yul\":11816:11863   */\n      mstore\n        /* \"#utility.yul\":11880:12011   */\n      tag_220\n        /* \"#utility.yul\":12006:12010   */\n      dup2\n        /* \"#utility.yul\":11880:12011   */\n      tag_113\n      jump\t// in\n    tag_220:\n        /* \"#utility.yul\":11872:12011   */\n      swap1\n      pop\n        /* \"#utility.yul\":11599:12018   */\n      swap2\n      swap1\n      pop\n      jump\t// out\n\n    auxdata: 0xa264697066735822122060267e91defdd2eadee1ecbbd6003f6d5fb05cdd273f2bd0ac4ae41ed6556c9464736f6c634300081a0033\n}\n",
				"bytecode": {
					"linkReferences": {},
					"object": "6080604052348015600e575f80fd5b50335f806101000a81548173ffffffffffffffffffffffffffffffffffffffff021916908373ffffffffffffffffffffffffffffffffffffffff160217905550610cc88061005b5f395ff3fe608060405260043610610058575f3560e01c80632e1a7d4d146100ff5780638da5cb5b1461011b578063c7d484c414610145578063df0c032d14610181578063f2fde38b146101bd578063f4dc0d61146101e5576100fb565b366100fb573466038d7ea4c6800081116100a7576040517f08c379a000000000000000000000000000000000000000000000000000000000815260040161009e90610763565b60405180910390fd5b3460015f3373ffffffffffffffffffffffffffffffffffffffff1673ffffffffffffffffffffffffffffffffffffffff1681526020019081526020015f205f8282546100f391906107b7565b925050819055005b5f80fd5b61011960048036038101906101149190610818565b610221565b005b348015610126575f80fd5b5061012f61041b565b60405161013c9190610882565b60405180910390f35b348015610150575f80fd5b5061016b60048036038101906101669190610818565b61043e565b60405161017891906108bb565b60405180910390f35b34801561018c575f80fd5b506101a760048036038101906101a291906108fe565b610472565b6040516101b49190610938565b60405180910390f35b3480156101c8575f80fd5b506101e360048036038101906101de91906108fe565b610487565b005b3480156101f0575f80fd5b5061020b60048036038101906102069190610818565b6106ca565b6040516102189190610938565b60405180910390f35b7f14cd41f98ad044348b48b9a073e6de9d77dc3e7dc8685b0c8757030f2b075a1c81335f8054906101000a900473ffffffffffffffffffffffffffffffffffffffff16604051610273939291906109f6565b60405180910390a15f8054906101000a900473ffffffffffffffffffffffffffffffffffffffff1673ffffffffffffffffffffffffffffffffffffffff163373ffffffffffffffffffffffffffffffffffffffff1614610308576040517f08c379a00000000000000000000000000000000000000000000000000000000081526004016102ff90610a88565b60405180910390fd5b8047101561034f5747816040517fcf479181000000000000000000000000000000000000000000000000000000008152600401610346929190610aa6565b60405180910390fd5b5f805f9054906101000a900473ffffffffffffffffffffffffffffffffffffffff1673ffffffffffffffffffffffffffffffffffffffff168260405161039490610afa565b5f6040518083038185875af1925050503d805f81146103ce576040519150601f19603f3d011682016040523d82523d5f602084013e6103d3565b606091505b5050905080610417576040517f08c379a000000000000000000000000000000000000000000000000000000000815260040161040e90610b58565b60405180910390fd5b5050565b5f8054906101000a900473ffffffffffffffffffffffffffffffffffffffff1681565b6002816003811061044d575f80fd5b015f915054906101000a900473ffffffffffffffffffffffffffffffffffffffff1681565b6001602052805f5260405f205f915090505481565b5f8054906101000a900473ffffffffffffffffffffffffffffffffffffffff1673ffffffffffffffffffffffffffffffffffffffff163373ffffffffffffffffffffffffffffffffffffffff1614610514576040517f08c379a000000000000000000000000000000000000000000000000000000000815260040161050b90610a88565b60405180910390fd5b5f73ffffffffffffffffffffffffffffffffffffffff168173ffffffffffffffffffffffffffffffffffffffff1603610582576040517f08c379a000000000000000000000000000000000000000000000000000000000815260040161057990610be6565b60405180910390fd5b5f8054906101000a900473ffffffffffffffffffffffffffffffffffffffff1673ffffffffffffffffffffffffffffffffffffffff168173ffffffffffffffffffffffffffffffffffffffff160361060f576040517f08c379a000000000000000000000000000000000000000000000000000000000815260040161060690610c74565b60405180910390fd5b8073ffffffffffffffffffffffffffffffffffffffff165f8054906101000a900473ffffffffffffffffffffffffffffffffffffffff1673ffffffffffffffffffffffffffffffffffffffff167f8be0079c531659141344cd1fd0a4f28419497f9722a3daafe3b4186f6b6457e060405160405180910390a3805f806101000a81548173ffffffffffffffffffffffffffffffffffffffff021916908373ffffffffffffffffffffffffffffffffffffffff16021790555050565b600581600381106106d9575f80fd5b015f915090505481565b5f82825260208201905092915050565b7f546865206465706f73697420616d6f756e74206d7573742062652067726561745f8201527f6572207468616e20302e3030312065746865722e000000000000000000000000602082015250565b5f61074d6034836106e3565b9150610758826106f3565b604082019050919050565b5f6020820190508181035f83015261077a81610741565b9050919050565b5f819050919050565b7f4e487b71000000000000000000000000000000000000000000000000000000005f52601160045260245ffd5b5f6107c182610781565b91506107cc83610781565b92508282019050808211156107e4576107e361078a565b5b92915050565b5f80fd5b6107f781610781565b8114610801575f80fd5b50565b5f81359050610812816107ee565b92915050565b5f6020828403121561082d5761082c6107ea565b5b5f61083a84828501610804565b91505092915050565b5f73ffffffffffffffffffffffffffffffffffffffff82169050919050565b5f61086c82610843565b9050919050565b61087c81610862565b82525050565b5f6020820190506108955f830184610873565b92915050565b5f6108a582610843565b9050919050565b6108b58161089b565b82525050565b5f6020820190506108ce5f8301846108ac565b92915050565b6108dd8161089b565b81146108e7575f80fd5b50565b5f813590506108f8816108d4565b92915050565b5f60208284031215610913576109126107ea565b5b5f610920848285016108ea565b91505092915050565b61093281610781565b82525050565b5f60208201905061094b5f830184610929565b92915050565b7f77697468647261770000000000000000000000000000000000000000000000005f82015250565b5f6109856008836106e3565b915061099082610951565b602082019050919050565b5f819050919050565b5f6109be6109b96109b484610843565b61099b565b610843565b9050919050565b5f6109cf826109a4565b9050919050565b5f6109e0826109c5565b9050919050565b6109f0816109d6565b82525050565b5f6080820190508181035f830152610a0d81610979565b9050610a1c6020830186610929565b610a2960408301856108ac565b610a3660608301846109e7565b949350505050565b7f4e6f7420616e206f776e657200000000000000000000000000000000000000005f82015250565b5f610a72600c836106e3565b9150610a7d82610a3e565b602082019050919050565b5f6020820190508181035f830152610a9f81610a66565b9050919050565b5f604082019050610ab95f830185610929565b610ac66020830184610929565b9392505050565b5f81905092915050565b50565b5f610ae55f83610acd565b9150610af082610ad7565b5f82019050919050565b5f610b0482610ada565b9150819050919050565b7f5472616e73666572206661696c656400000000000000000000000000000000005f82015250565b5f610b42600f836106e3565b9150610b4d82610b0e565b602082019050919050565b5f6020820190508181035f830152610b6f81610b36565b9050919050565b7f4e6577206f776e65722063616e6e6f7420626520746865207a65726f206164645f8201527f726573732e000000000000000000000000000000000000000000000000000000602082015250565b5f610bd06025836106e3565b9150610bdb82610b76565b604082019050919050565b5f6020820190508181035f830152610bfd81610bc4565b9050919050565b7f4e6577206f776e657220697320616c7265616479207468652063757272656e745f8201527f206f776e65722e00000000000000000000000000000000000000000000000000602082015250565b5f610c5e6027836106e3565b9150610c6982610c04565b604082019050919050565b5f6020820190508181035f830152610c8b81610c52565b905091905056fea264697066735822122060267e91defdd2eadee1ecbbd6003f6d5fb05cdd273f2bd0ac4ae41ed6556c9464736f6c634300081a0033",
					"opcodes": "PUSH1 0x80 PUSH1 0x40 MSTORE CALLVALUE DUP1 ISZERO PUSH1 0xE JUMPI PUSH0 DUP1 REVERT JUMPDEST POP CALLER PUSH0 DUP1 PUSH2 0x100 EXP DUP2 SLOAD DUP2 PUSH20 0xFFFFFFFFFFFFFFFFFFFFFFFFFFFFFFFFFFFFFFFF MUL NOT AND SWAP1 DUP4 PUSH20 0xFFFFFFFFFFFFFFFFFFFFFFFFFFFFFFFFFFFFFFFF AND MUL OR SWAP1 SSTORE POP PUSH2 0xCC8 DUP1 PUSH2 0x5B PUSH0 CODECOPY PUSH0 RETURN INVALID PUSH1 0x80 PUSH1 0x40 MSTORE PUSH1 0x4 CALLDATASIZE LT PUSH2 0x58 JUMPI PUSH0 CALLDATALOAD PUSH1 0xE0 SHR DUP1 PUSH4 0x2E1A7D4D EQ PUSH2 0xFF JUMPI DUP1 PUSH4 0x8DA5CB5B EQ PUSH2 0x11B JUMPI DUP1 PUSH4 0xC7D484C4 EQ PUSH2 0x145 JUMPI DUP1 PUSH4 0xDF0C032D EQ PUSH2 0x181 JUMPI DUP1 PUSH4 0xF2FDE38B EQ PUSH2 0x1BD JUMPI DUP1 PUSH4 0xF4DC0D61 EQ PUSH2 0x1E5 JUMPI PUSH2 0xFB JUMP JUMPDEST CALLDATASIZE PUSH2 0xFB JUMPI CALLVALUE PUSH7 0x38D7EA4C68000 DUP2 GT PUSH2 0xA7 JUMPI PUSH1 0x40 MLOAD PUSH32 0x8C379A000000000000000000000000000000000000000000000000000000000 DUP2 MSTORE PUSH1 0x4 ADD PUSH2 0x9E SWAP1 PUSH2 0x763 JUMP JUMPDEST PUSH1 0x40 MLOAD DUP1 SWAP2 SUB SWAP1 REVERT JUMPDEST CALLVALUE PUSH1 0x1 PUSH0 CALLER PUSH20 0xFFFFFFFFFFFFFFFFFFFFFFFFFFFFFFFFFFFFFFFF AND PUSH20 0xFFFFFFFFFFFFFFFFFFFFFFFFFFFFFFFFFFFFFFFF AND DUP2 MSTORE PUSH1 0x20 ADD SWAP1 DUP2 MSTORE PUSH1 0x20 ADD PUSH0 KECCAK256 PUSH0 DUP3 DUP3 SLOAD PUSH2 0xF3 SWAP2 SWAP1 PUSH2 0x7B7 JUMP JUMPDEST SWAP3 POP POP DUP2 SWAP1 SSTORE STOP JUMPDEST PUSH0 DUP1 REVERT JUMPDEST PUSH2 0x119 PUSH1 0x4 DUP1 CALLDATASIZE SUB DUP2 ADD SWAP1 PUSH2 0x114 SWAP2 SWAP1 PUSH2 0x818 JUMP JUMPDEST PUSH2 0x221 JUMP JUMPDEST STOP JUMPDEST CALLVALUE DUP1 ISZERO PUSH2 0x126 JUMPI PUSH0 DUP1 REVERT JUMPDEST POP PUSH2 0x12F PUSH2 0x41B JUMP JUMPDEST PUSH1 0x40 MLOAD PUSH2 0x13C SWAP2 SWAP1 PUSH2 0x882 JUMP JUMPDEST PUSH1 0x40 MLOAD DUP1 SWAP2 SUB SWAP1 RETURN JUMPDEST CALLVALUE DUP1 ISZERO PUSH2 0x150 JUMPI PUSH0 DUP1 REVERT JUMPDEST POP PUSH2 0x16B PUSH1 0x4 DUP1 CALLDATASIZE SUB DUP2 ADD SWAP1 PUSH2 0x166 SWAP2 SWAP1 PUSH2 0x818 JUMP JUMPDEST PUSH2 0x43E JUMP JUMPDEST PUSH1 0x40 MLOAD PUSH2 0x178 SWAP2 SWAP1 PUSH2 0x8BB JUMP JUMPDEST PUSH1 0x40 MLOAD DUP1 SWAP2 SUB SWAP1 RETURN JUMPDEST CALLVALUE DUP1 ISZERO PUSH2 0x18C JUMPI PUSH0 DUP1 REVERT JUMPDEST POP PUSH2 0x1A7 PUSH1 0x4 DUP1 CALLDATASIZE SUB DUP2 ADD SWAP1 PUSH2 0x1A2 SWAP2 SWAP1 PUSH2 0x8FE JUMP JUMPDEST PUSH2 0x472 JUMP JUMPDEST PUSH1 0x40 MLOAD PUSH2 0x1B4 SWAP2 SWAP1 PUSH2 0x938 JUMP JUMPDEST PUSH1 0x40 MLOAD DUP1 SWAP2 SUB SWAP1 RETURN JUMPDEST CALLVALUE DUP1 ISZERO PUSH2 0x1C8 JUMPI PUSH0 DUP1 REVERT JUMPDEST POP PUSH2 0x1E3 PUSH1 0x4 DUP1 CALLDATASIZE SUB DUP2 ADD SWAP1 PUSH2 0x1DE SWAP2 SWAP1 PUSH2 0x8FE JUMP JUMPDEST PUSH2 0x487 JUMP JUMPDEST STOP JUMPDEST CALLVALUE DUP1 ISZERO PUSH2 0x1F0 JUMPI PUSH0 DUP1 REVERT JUMPDEST POP PUSH2 0x20B PUSH1 0x4 DUP1 CALLDATASIZE SUB DUP2 ADD SWAP1 PUSH2 0x206 SWAP2 SWAP1 PUSH2 0x818 JUMP JUMPDEST PUSH2 0x6CA JUMP JUMPDEST PUSH1 0x40 MLOAD PUSH2 0x218 SWAP2 SWAP1 PUSH2 0x938 JUMP JUMPDEST PUSH1 0x40 MLOAD DUP1 SWAP2 SUB SWAP1 RETURN JUMPDEST PUSH32 0x14CD41F98AD044348B48B9A073E6DE9D77DC3E7DC8685B0C8757030F2B075A1C DUP2 CALLER PUSH0 DUP1 SLOAD SWAP1 PUSH2 0x100 EXP SWAP1 DIV PUSH20 0xFFFFFFFFFFFFFFFFFFFFFFFFFFFFFFFFFFFFFFFF AND PUSH1 0x40 MLOAD PUSH2 0x273 SWAP4 SWAP3 SWAP2 SWAP1 PUSH2 0x9F6 JUMP JUMPDEST PUSH1 0x40 MLOAD DUP1 SWAP2 SUB SWAP1 LOG1 PUSH0 DUP1 SLOAD SWAP1 PUSH2 0x100 EXP SWAP1 DIV PUSH20 0xFFFFFFFFFFFFFFFFFFFFFFFFFFFFFFFFFFFFFFFF AND PUSH20 0xFFFFFFFFFFFFFFFFFFFFFFFFFFFFFFFFFFFFFFFF AND CALLER PUSH20 0xFFFFFFFFFFFFFFFFFFFFFFFFFFFFFFFFFFFFFFFF AND EQ PUSH2 0x308 JUMPI PUSH1 0x40 MLOAD PUSH32 0x8C379A000000000000000000000000000000000000000000000000000000000 DUP2 MSTORE PUSH1 0x4 ADD PUSH2 0x2FF SWAP1 PUSH2 0xA88 JUMP JUMPDEST PUSH1 0x40 MLOAD DUP1 SWAP2 SUB SWAP1 REVERT JUMPDEST DUP1 SELFBALANCE LT ISZERO PUSH2 0x34F JUMPI SELFBALANCE DUP2 PUSH1 0x40 MLOAD PUSH32 0xCF47918100000000000000000000000000000000000000000000000000000000 DUP2 MSTORE PUSH1 0x4 ADD PUSH2 0x346 SWAP3 SWAP2 SWAP1 PUSH2 0xAA6 JUMP JUMPDEST PUSH1 0x40 MLOAD DUP1 SWAP2 SUB SWAP1 REVERT JUMPDEST PUSH0 DUP1 PUSH0 SWAP1 SLOAD SWAP1 PUSH2 0x100 EXP SWAP1 DIV PUSH20 0xFFFFFFFFFFFFFFFFFFFFFFFFFFFFFFFFFFFFFFFF AND PUSH20 0xFFFFFFFFFFFFFFFFFFFFFFFFFFFFFFFFFFFFFFFF AND DUP3 PUSH1 0x40 MLOAD PUSH2 0x394 SWAP1 PUSH2 0xAFA JUMP JUMPDEST PUSH0 PUSH1 0x40 MLOAD DUP1 DUP4 SUB DUP2 DUP6 DUP8 GAS CALL SWAP3 POP POP POP RETURNDATASIZE DUP1 PUSH0 DUP2 EQ PUSH2 0x3CE JUMPI PUSH1 0x40 MLOAD SWAP2 POP PUSH1 0x1F NOT PUSH1 0x3F RETURNDATASIZE ADD AND DUP3 ADD PUSH1 0x40 MSTORE RETURNDATASIZE DUP3 MSTORE RETURNDATASIZE PUSH0 PUSH1 0x20 DUP5 ADD RETURNDATACOPY PUSH2 0x3D3 JUMP JUMPDEST PUSH1 0x60 SWAP2 POP JUMPDEST POP POP SWAP1 POP DUP1 PUSH2 0x417 JUMPI PUSH1 0x40 MLOAD PUSH32 0x8C379A000000000000000000000000000000000000000000000000000000000 DUP2 MSTORE PUSH1 0x4 ADD PUSH2 0x40E SWAP1 PUSH2 0xB58 JUMP JUMPDEST PUSH1 0x40 MLOAD DUP1 SWAP2 SUB SWAP1 REVERT JUMPDEST POP POP JUMP JUMPDEST PUSH0 DUP1 SLOAD SWAP1 PUSH2 0x100 EXP SWAP1 DIV PUSH20 0xFFFFFFFFFFFFFFFFFFFFFFFFFFFFFFFFFFFFFFFF AND DUP2 JUMP JUMPDEST PUSH1 0x2 DUP2 PUSH1 0x3 DUP2 LT PUSH2 0x44D JUMPI PUSH0 DUP1 REVERT JUMPDEST ADD PUSH0 SWAP2 POP SLOAD SWAP1 PUSH2 0x100 EXP SWAP1 DIV PUSH20 0xFFFFFFFFFFFFFFFFFFFFFFFFFFFFFFFFFFFFFFFF AND DUP2 JUMP JUMPDEST PUSH1 0x1 PUSH1 0x20 MSTORE DUP1 PUSH0 MSTORE PUSH1 0x40 PUSH0 KECCAK256 PUSH0 SWAP2 POP SWAP1 POP SLOAD DUP2 JUMP JUMPDEST PUSH0 DUP1 SLOAD SWAP1 PUSH2 0x100 EXP SWAP1 DIV PUSH20 0xFFFFFFFFFFFFFFFFFFFFFFFFFFFFFFFFFFFFFFFF AND PUSH20 0xFFFFFFFFFFFFFFFFFFFFFFFFFFFFFFFFFFFFFFFF AND CALLER PUSH20 0xFFFFFFFFFFFFFFFFFFFFFFFFFFFFFFFFFFFFFFFF AND EQ PUSH2 0x514 JUMPI PUSH1 0x40 MLOAD PUSH32 0x8C379A000000000000000000000000000000000000000000000000000000000 DUP2 MSTORE PUSH1 0x4 ADD PUSH2 0x50B SWAP1 PUSH2 0xA88 JUMP JUMPDEST PUSH1 0x40 MLOAD DUP1 SWAP2 SUB SWAP1 REVERT JUMPDEST PUSH0 PUSH20 0xFFFFFFFFFFFFFFFFFFFFFFFFFFFFFFFFFFFFFFFF AND DUP2 PUSH20 0xFFFFFFFFFFFFFFFFFFFFFFFFFFFFFFFFFFFFFFFF AND SUB PUSH2 0x582 JUMPI PUSH1 0x40 MLOAD PUSH32 0x8C379A000000000000000000000000000000000000000000000000000000000 DUP2 MSTORE PUSH1 0x4 ADD PUSH2 0x579 SWAP1 PUSH2 0xBE6 JUMP JUMPDEST PUSH1 0x40 MLOAD DUP1 SWAP2 SUB SWAP1 REVERT JUMPDEST PUSH0 DUP1 SLOAD SWAP1 PUSH2 0x100 EXP SWAP1 DIV PUSH20 0xFFFFFFFFFFFFFFFFFFFFFFFFFFFFFFFFFFFFFFFF AND PUSH20 0xFFFFFFFFFFFFFFFFFFFFFFFFFFFFFFFFFFFFFFFF AND DUP2 PUSH20 0xFFFFFFFFFFFFFFFFFFFFFFFFFFFFFFFFFFFFFFFF AND SUB PUSH2 0x60F JUMPI PUSH1 0x40 MLOAD PUSH32 0x8C379A000000000000000000000000000000000000000000000000000000000 DUP2 MSTORE PUSH1 0x4 ADD PUSH2 0x606 SWAP1 PUSH2 0xC74 JUMP JUMPDEST PUSH1 0x40 MLOAD DUP1 SWAP2 SUB SWAP1 REVERT JUMPDEST DUP1 PUSH20 0xFFFFFFFFFFFFFFFFFFFFFFFFFFFFFFFFFFFFFFFF AND PUSH0 DUP1 SLOAD SWAP1 PUSH2 0x100 EXP SWAP1 DIV PUSH20 0xFFFFFFFFFFFFFFFFFFFFFFFFFFFFFFFFFFFFFFFF AND PUSH20 0xFFFFFFFFFFFFFFFFFFFFFFFFFFFFFFFFFFFFFFFF AND PUSH32 0x8BE0079C531659141344CD1FD0A4F28419497F9722A3DAAFE3B4186F6B6457E0 PUSH1 0x40 MLOAD PUSH1 0x40 MLOAD DUP1 SWAP2 SUB SWAP1 LOG3 DUP1 PUSH0 DUP1 PUSH2 0x100 EXP DUP2 SLOAD DUP2 PUSH20 0xFFFFFFFFFFFFFFFFFFFFFFFFFFFFFFFFFFFFFFFF MUL NOT AND SWAP1 DUP4 PUSH20 0xFFFFFFFFFFFFFFFFFFFFFFFFFFFFFFFFFFFFFFFF AND MUL OR SWAP1 SSTORE POP POP JUMP JUMPDEST PUSH1 0x5 DUP2 PUSH1 0x3 DUP2 LT PUSH2 0x6D9 JUMPI PUSH0 DUP1 REVERT JUMPDEST ADD PUSH0 SWAP2 POP SWAP1 POP SLOAD DUP2 JUMP JUMPDEST PUSH0 DUP3 DUP3 MSTORE PUSH1 0x20 DUP3 ADD SWAP1 POP SWAP3 SWAP2 POP POP JUMP JUMPDEST PUSH32 0x546865206465706F73697420616D6F756E74206D757374206265206772656174 PUSH0 DUP3 ADD MSTORE PUSH32 0x6572207468616E20302E3030312065746865722E000000000000000000000000 PUSH1 0x20 DUP3 ADD MSTORE POP JUMP JUMPDEST PUSH0 PUSH2 0x74D PUSH1 0x34 DUP4 PUSH2 0x6E3 JUMP JUMPDEST SWAP2 POP PUSH2 0x758 DUP3 PUSH2 0x6F3 JUMP JUMPDEST PUSH1 0x40 DUP3 ADD SWAP1 POP SWAP2 SWAP1 POP JUMP JUMPDEST PUSH0 PUSH1 0x20 DUP3 ADD SWAP1 POP DUP2 DUP2 SUB PUSH0 DUP4 ADD MSTORE PUSH2 0x77A DUP2 PUSH2 0x741 JUMP JUMPDEST SWAP1 POP SWAP2 SWAP1 POP JUMP JUMPDEST PUSH0 DUP2 SWAP1 POP SWAP2 SWAP1 POP JUMP JUMPDEST PUSH32 0x4E487B7100000000000000000000000000000000000000000000000000000000 PUSH0 MSTORE PUSH1 0x11 PUSH1 0x4 MSTORE PUSH1 0x24 PUSH0 REVERT JUMPDEST PUSH0 PUSH2 0x7C1 DUP3 PUSH2 0x781 JUMP JUMPDEST SWAP2 POP PUSH2 0x7CC DUP4 PUSH2 0x781 JUMP JUMPDEST SWAP3 POP DUP3 DUP3 ADD SWAP1 POP DUP1 DUP3 GT ISZERO PUSH2 0x7E4 JUMPI PUSH2 0x7E3 PUSH2 0x78A JUMP JUMPDEST JUMPDEST SWAP3 SWAP2 POP POP JUMP JUMPDEST PUSH0 DUP1 REVERT JUMPDEST PUSH2 0x7F7 DUP2 PUSH2 0x781 JUMP JUMPDEST DUP2 EQ PUSH2 0x801 JUMPI PUSH0 DUP1 REVERT JUMPDEST POP JUMP JUMPDEST PUSH0 DUP2 CALLDATALOAD SWAP1 POP PUSH2 0x812 DUP2 PUSH2 0x7EE JUMP JUMPDEST SWAP3 SWAP2 POP POP JUMP JUMPDEST PUSH0 PUSH1 0x20 DUP3 DUP5 SUB SLT ISZERO PUSH2 0x82D JUMPI PUSH2 0x82C PUSH2 0x7EA JUMP JUMPDEST JUMPDEST PUSH0 PUSH2 0x83A DUP5 DUP3 DUP6 ADD PUSH2 0x804 JUMP JUMPDEST SWAP2 POP POP SWAP3 SWAP2 POP POP JUMP JUMPDEST PUSH0 PUSH20 0xFFFFFFFFFFFFFFFFFFFFFFFFFFFFFFFFFFFFFFFF DUP3 AND SWAP1 POP SWAP2 SWAP1 POP JUMP JUMPDEST PUSH0 PUSH2 0x86C DUP3 PUSH2 0x843 JUMP JUMPDEST SWAP1 POP SWAP2 SWAP1 POP JUMP JUMPDEST PUSH2 0x87C DUP2 PUSH2 0x862 JUMP JUMPDEST DUP3 MSTORE POP POP JUMP JUMPDEST PUSH0 PUSH1 0x20 DUP3 ADD SWAP1 POP PUSH2 0x895 PUSH0 DUP4 ADD DUP5 PUSH2 0x873 JUMP JUMPDEST SWAP3 SWAP2 POP POP JUMP JUMPDEST PUSH0 PUSH2 0x8A5 DUP3 PUSH2 0x843 JUMP JUMPDEST SWAP1 POP SWAP2 SWAP1 POP JUMP JUMPDEST PUSH2 0x8B5 DUP2 PUSH2 0x89B JUMP JUMPDEST DUP3 MSTORE POP POP JUMP JUMPDEST PUSH0 PUSH1 0x20 DUP3 ADD SWAP1 POP PUSH2 0x8CE PUSH0 DUP4 ADD DUP5 PUSH2 0x8AC JUMP JUMPDEST SWAP3 SWAP2 POP POP JUMP JUMPDEST PUSH2 0x8DD DUP2 PUSH2 0x89B JUMP JUMPDEST DUP2 EQ PUSH2 0x8E7 JUMPI PUSH0 DUP1 REVERT JUMPDEST POP JUMP JUMPDEST PUSH0 DUP2 CALLDATALOAD SWAP1 POP PUSH2 0x8F8 DUP2 PUSH2 0x8D4 JUMP JUMPDEST SWAP3 SWAP2 POP POP JUMP JUMPDEST PUSH0 PUSH1 0x20 DUP3 DUP5 SUB SLT ISZERO PUSH2 0x913 JUMPI PUSH2 0x912 PUSH2 0x7EA JUMP JUMPDEST JUMPDEST PUSH0 PUSH2 0x920 DUP5 DUP3 DUP6 ADD PUSH2 0x8EA JUMP JUMPDEST SWAP2 POP POP SWAP3 SWAP2 POP POP JUMP JUMPDEST PUSH2 0x932 DUP2 PUSH2 0x781 JUMP JUMPDEST DUP3 MSTORE POP POP JUMP JUMPDEST PUSH0 PUSH1 0x20 DUP3 ADD SWAP1 POP PUSH2 0x94B PUSH0 DUP4 ADD DUP5 PUSH2 0x929 JUMP JUMPDEST SWAP3 SWAP2 POP POP JUMP JUMPDEST PUSH32 0x7769746864726177000000000000000000000000000000000000000000000000 PUSH0 DUP3 ADD MSTORE POP JUMP JUMPDEST PUSH0 PUSH2 0x985 PUSH1 0x8 DUP4 PUSH2 0x6E3 JUMP JUMPDEST SWAP2 POP PUSH2 0x990 DUP3 PUSH2 0x951 JUMP JUMPDEST PUSH1 0x20 DUP3 ADD SWAP1 POP SWAP2 SWAP1 POP JUMP JUMPDEST PUSH0 DUP2 SWAP1 POP SWAP2 SWAP1 POP JUMP JUMPDEST PUSH0 PUSH2 0x9BE PUSH2 0x9B9 PUSH2 0x9B4 DUP5 PUSH2 0x843 JUMP JUMPDEST PUSH2 0x99B JUMP JUMPDEST PUSH2 0x843 JUMP JUMPDEST SWAP1 POP SWAP2 SWAP1 POP JUMP JUMPDEST PUSH0 PUSH2 0x9CF DUP3 PUSH2 0x9A4 JUMP JUMPDEST SWAP1 POP SWAP2 SWAP1 POP JUMP JUMPDEST PUSH0 PUSH2 0x9E0 DUP3 PUSH2 0x9C5 JUMP JUMPDEST SWAP1 POP SWAP2 SWAP1 POP JUMP JUMPDEST PUSH2 0x9F0 DUP2 PUSH2 0x9D6 JUMP JUMPDEST DUP3 MSTORE POP POP JUMP JUMPDEST PUSH0 PUSH1 0x80 DUP3 ADD SWAP1 POP DUP2 DUP2 SUB PUSH0 DUP4 ADD MSTORE PUSH2 0xA0D DUP2 PUSH2 0x979 JUMP JUMPDEST SWAP1 POP PUSH2 0xA1C PUSH1 0x20 DUP4 ADD DUP7 PUSH2 0x929 JUMP JUMPDEST PUSH2 0xA29 PUSH1 0x40 DUP4 ADD DUP6 PUSH2 0x8AC JUMP JUMPDEST PUSH2 0xA36 PUSH1 0x60 DUP4 ADD DUP5 PUSH2 0x9E7 JUMP JUMPDEST SWAP5 SWAP4 POP POP POP POP JUMP JUMPDEST PUSH32 0x4E6F7420616E206F776E65720000000000000000000000000000000000000000 PUSH0 DUP3 ADD MSTORE POP JUMP JUMPDEST PUSH0 PUSH2 0xA72 PUSH1 0xC DUP4 PUSH2 0x6E3 JUMP JUMPDEST SWAP2 POP PUSH2 0xA7D DUP3 PUSH2 0xA3E JUMP JUMPDEST PUSH1 0x20 DUP3 ADD SWAP1 POP SWAP2 SWAP1 POP JUMP JUMPDEST PUSH0 PUSH1 0x20 DUP3 ADD SWAP1 POP DUP2 DUP2 SUB PUSH0 DUP4 ADD MSTORE PUSH2 0xA9F DUP2 PUSH2 0xA66 JUMP JUMPDEST SWAP1 POP SWAP2 SWAP1 POP JUMP JUMPDEST PUSH0 PUSH1 0x40 DUP3 ADD SWAP1 POP PUSH2 0xAB9 PUSH0 DUP4 ADD DUP6 PUSH2 0x929 JUMP JUMPDEST PUSH2 0xAC6 PUSH1 0x20 DUP4 ADD DUP5 PUSH2 0x929 JUMP JUMPDEST SWAP4 SWAP3 POP POP POP JUMP JUMPDEST PUSH0 DUP2 SWAP1 POP SWAP3 SWAP2 POP POP JUMP JUMPDEST POP JUMP JUMPDEST PUSH0 PUSH2 0xAE5 PUSH0 DUP4 PUSH2 0xACD JUMP JUMPDEST SWAP2 POP PUSH2 0xAF0 DUP3 PUSH2 0xAD7 JUMP JUMPDEST PUSH0 DUP3 ADD SWAP1 POP SWAP2 SWAP1 POP JUMP JUMPDEST PUSH0 PUSH2 0xB04 DUP3 PUSH2 0xADA JUMP JUMPDEST SWAP2 POP DUP2 SWAP1 POP SWAP2 SWAP1 POP JUMP JUMPDEST PUSH32 0x5472616E73666572206661696C65640000000000000000000000000000000000 PUSH0 DUP3 ADD MSTORE POP JUMP JUMPDEST PUSH0 PUSH2 0xB42 PUSH1 0xF DUP4 PUSH2 0x6E3 JUMP JUMPDEST SWAP2 POP PUSH2 0xB4D DUP3 PUSH2 0xB0E JUMP JUMPDEST PUSH1 0x20 DUP3 ADD SWAP1 POP SWAP2 SWAP1 POP JUMP JUMPDEST PUSH0 PUSH1 0x20 DUP3 ADD SWAP1 POP DUP2 DUP2 SUB PUSH0 DUP4 ADD MSTORE PUSH2 0xB6F DUP2 PUSH2 0xB36 JUMP JUMPDEST SWAP1 POP SWAP2 SWAP1 POP JUMP JUMPDEST PUSH32 0x4E6577206F776E65722063616E6E6F7420626520746865207A65726F20616464 PUSH0 DUP3 ADD MSTORE PUSH32 0x726573732E000000000000000000000000000000000000000000000000000000 PUSH1 0x20 DUP3 ADD MSTORE POP JUMP JUMPDEST PUSH0 PUSH2 0xBD0 PUSH1 0x25 DUP4 PUSH2 0x6E3 JUMP JUMPDEST SWAP2 POP PUSH2 0xBDB DUP3 PUSH2 0xB76 JUMP JUMPDEST PUSH1 0x40 DUP3 ADD SWAP1 POP SWAP2 SWAP1 POP JUMP JUMPDEST PUSH0 PUSH1 0x20 DUP3 ADD SWAP1 POP DUP2 DUP2 SUB PUSH0 DUP4 ADD MSTORE PUSH2 0xBFD DUP2 PUSH2 0xBC4 JUMP JUMPDEST SWAP1 POP SWAP2 SWAP1 POP JUMP JUMPDEST PUSH32 0x4E6577206F776E657220697320616C7265616479207468652063757272656E74 PUSH0 DUP3 ADD MSTORE PUSH32 0x206F776E65722E00000000000000000000000000000000000000000000000000 PUSH1 0x20 DUP3 ADD MSTORE POP JUMP JUMPDEST PUSH0 PUSH2 0xC5E PUSH1 0x27 DUP4 PUSH2 0x6E3 JUMP JUMPDEST SWAP2 POP PUSH2 0xC69 DUP3 PUSH2 0xC04 JUMP JUMPDEST PUSH1 0x40 DUP3 ADD SWAP1 POP SWAP2 SWAP1 POP JUMP JUMPDEST PUSH0 PUSH1 0x20 DUP3 ADD SWAP1 POP DUP2 DUP2 SUB PUSH0 DUP4 ADD MSTORE PUSH2 0xC8B DUP2 PUSH2 0xC52 JUMP JUMPDEST SWAP1 POP SWAP2 SWAP1 POP JUMP INVALID LOG2 PUSH5 0x6970667358 0x22 SLT KECCAK256 PUSH1 0x26 PUSH31 0x91DEFDD2EADEE1ECBBD6003F6D5FB05CDD273F2BD0AC4AE41ED6556C946473 PUSH16 0x6C634300081A00330000000000000000 "
				},
				"gasEstimates": {
					"creation": {
						"codeDepositCost": "654400",
						"executionCost": "24952",
						"totalCost": "679352"
					},
					"external": {
						"balance_map(address)": "2846",
						"owner()": "2505",
						"top3Address(uint256)": "2817",
						"top3Balance(uint256)": "infinite",
						"transferOwnership(address)": "32825",
						"withdraw(uint256)": "infinite"
					}
				},
				"methodIdentifiers": {
					"balance_map(address)": "df0c032d",
					"owner()": "8da5cb5b",
					"top3Address(uint256)": "c7d484c4",
					"top3Balance(uint256)": "f4dc0d61",
					"transferOwnership(address)": "f2fde38b",
					"withdraw(uint256)": "2e1a7d4d"
				}
			},
			"storageLayout": {
				"storage": [
					{
						"astId": 21,
						"contract": "w1d4/Bank.sol:BigBank",
						"label": "owner",
						"offset": 0,
						"slot": "0",
						"type": "t_address_payable"
					},
					{
						"astId": 25,
						"contract": "w1d4/Bank.sol:BigBank",
						"label": "balance_map",
						"offset": 0,
						"slot": "1",
						"type": "t_mapping(t_address,t_uint256)"
					},
					{
						"astId": 29,
						"contract": "w1d4/Bank.sol:BigBank",
						"label": "top3Address",
						"offset": 0,
						"slot": "2",
						"type": "t_array(t_address)3_storage"
					},
					{
						"astId": 33,
						"contract": "w1d4/Bank.sol:BigBank",
						"label": "top3Balance",
						"offset": 0,
						"slot": "5",
						"type": "t_array(t_uint256)3_storage"
					}
				],
				"types": {
					"t_address": {
						"encoding": "inplace",
						"label": "address",
						"numberOfBytes": "20"
					},
					"t_address_payable": {
						"encoding": "inplace",
						"label": "address payable",
						"numberOfBytes": "20"
					},
					"t_array(t_address)3_storage": {
						"base": "t_address",
						"encoding": "inplace",
						"label": "address[3]",
						"numberOfBytes": "96"
					},
					"t_array(t_uint256)3_storage": {
						"base": "t_uint256",
						"encoding": "inplace",
						"label": "uint256[3]",
						"numberOfBytes": "96"
					},
					"t_mapping(t_address,t_uint256)": {
						"encoding": "mapping",
						"key": "t_address",
						"label": "mapping(address => uint256)",
						"numberOfBytes": "32",
						"value": "t_uint256"
					},
					"t_uint256": {
						"encoding": "inplace",
						"label": "uint256",
						"numberOfBytes": "32"
					}
				}
			},
			"userdoc": {
				"kind": "user",
				"methods": {},
				"version": 1
			}
		}
	}
}