{
	"w1d4/Bank.sol": {
		"Bank": {
			"abi": [
				{
					"inputs": [],
					"stateMutability": "nonpayable",
					"type": "constructor"
				},
				{
					"inputs": [
						{
							"internalType": "uint256",
							"name": "current",
							"type": "uint256"
						},
						{
							"internalType": "uint256",
							"name": "required",
							"type": "uint256"
						}
					],
					"name": "InsufficientBalance",
					"type": "error"
				},
				{
					"anonymous": false,
					"inputs": [
						{
							"indexed": true,
							"internalType": "address",
							"name": "oldOwner",
							"type": "address"
						},
						{
							"indexed": true,
							"internalType": "address",
							"name": "newOwner",
							"type": "address"
						}
					],
					"name": "OwnershipTransferred",
					"type": "event"
				},
				{
					"anonymous": false,
					"inputs": [
						{
							"indexed": false,
							"internalType": "string",
							"name": "message",
							"type": "string"
						},
						{
							"indexed": false,
							"internalType": "uint256",
							"name": "value",
							"type": "uint256"
						},
						{
							"indexed": false,
							"internalType": "address",
							"name": "sender",
							"type": "address"
						},
						{
							"indexed": false,
							"internalType": "address",
							"name": "owner",
							"type": "address"
						}
					],
					"name": "adminWithdrawMessage",
					"type": "event"
				},
				{
					"inputs": [
						{
							"internalType": "address",
							"name": "",
							"type": "address"
						}
					],
					"name": "balance_map",
					"outputs": [
						{
							"internalType": "uint256",
							"name": "",
							"type": "uint256"
						}
					],
					"stateMutability": "view",
					"type": "function"
				},
				{
					"inputs": [],
					"name": "owner",
					"outputs": [
						{
							"internalType": "address payable",
							"name": "",
							"type": "address"
						}
					],
					"stateMutability": "view",
					"type": "function"
				},
				{
					"inputs": [
						{
							"internalType": "uint256",
							"name": "",
							"type": "uint256"
						}
					],
					"name": "top3Address",
					"outputs": [
						{
							"internalType": "address",
							"name": "",
							"type": "address"
						}
					],
					"stateMutability": "view",
					"type": "function"
				},
				{
					"inputs": [
						{
							"internalType": "uint256",
							"name": "",
							"type": "uint256"
						}
					],
					"name": "top3Balance",
					"outputs": [
						{
							"internalType": "uint256",
							"name": "",
							"type": "uint256"
						}
					],
					"stateMutability": "view",
					"type": "function"
				},
				{
					"inputs": [
						{
							"internalType": "uint256",
							"name": "amount",
							"type": "uint256"
						}
					],
					"name": "withdraw",
					"outputs": [],
					"stateMutability": "payable",
					"type": "function"
				},
				{
					"stateMutability": "payable",
					"type": "receive"
				}
			],
			"devdoc": {
				"kind": "dev",
				"methods": {},
				"version": 1
			},
			"evm": {
				"assembly": "    /* \"w1d4/Bank.sol\":313:2340  contract Bank is IBank{... */\n  mstore(0x40, 0x80)\n    /* \"w1d4/Bank.sol\":632:692  constructor() {... */\n  callvalue\n  dup1\n  iszero\n  tag_1\n  jumpi\n  0x00\n  dup1\n  revert\ntag_1:\n  pop\n    /* \"w1d4/Bank.sol\":673:683  msg.sender */\n  caller\n    /* \"w1d4/Bank.sol\":657:662  owner */\n  0x00\n  dup1\n    /* \"w1d4/Bank.sol\":657:684  owner = payable(msg.sender) */\n  0x0100\n  exp\n  dup2\n  sload\n  dup2\n  0xffffffffffffffffffffffffffffffffffffffff\n  mul\n  not\n  and\n  swap1\n  dup4\n  0xffffffffffffffffffffffffffffffffffffffff\n  and\n  mul\n  or\n  swap1\n  sstore\n  pop\n    /* \"w1d4/Bank.sol\":313:2340  contract Bank is IBank{... */\n  dataSize(sub_0)\n  dup1\n  dataOffset(sub_0)\n  0x00\n  codecopy\n  0x00\n  return\nstop\n\nsub_0: assembly {\n        /* \"w1d4/Bank.sol\":313:2340  contract Bank is IBank{... */\n      mstore(0x40, 0x80)\n      jumpi(tag_1, lt(calldatasize, 0x04))\n      shr(0xe0, calldataload(0x00))\n      dup1\n      0x2e1a7d4d\n      eq\n      tag_3\n      jumpi\n      dup1\n      0x8da5cb5b\n      eq\n      tag_4\n      jumpi\n      dup1\n      0xc7d484c4\n      eq\n      tag_5\n      jumpi\n      dup1\n      0xdf0c032d\n      eq\n      tag_6\n      jumpi\n      dup1\n      0xf4dc0d61\n      eq\n      tag_7\n      jumpi\n      jump(tag_2)\n    tag_1:\n      jumpi(tag_2, calldatasize)\n        /* \"w1d4/Bank.sol\":977:986  msg.value */\n      callvalue\n        /* \"w1d4/Bank.sol\":950:961  balance_map */\n      0x01\n        /* \"w1d4/Bank.sol\":950:973  balance_map[msg.sender] */\n      0x00\n        /* \"w1d4/Bank.sol\":962:972  msg.sender */\n      caller\n        /* \"w1d4/Bank.sol\":950:973  balance_map[msg.sender] */\n      0xffffffffffffffffffffffffffffffffffffffff\n      and\n      0xffffffffffffffffffffffffffffffffffffffff\n      and\n      dup2\n      mstore\n      0x20\n      add\n      swap1\n      dup2\n      mstore\n      0x20\n      add\n      0x00\n      keccak256\n      0x00\n        /* \"w1d4/Bank.sol\":950:986  balance_map[msg.sender] += msg.value */\n      dup3\n      dup3\n      sload\n      tag_10\n      swap2\n      swap1\n      tag_11\n      jump\t// in\n    tag_10:\n      swap3\n      pop\n      pop\n      dup2\n      swap1\n      sstore\n      pop\n        /* \"w1d4/Bank.sol\":1028:1082  updateTop3Account(msg.sender, balance_map[msg.sender]) */\n      tag_12\n        /* \"w1d4/Bank.sol\":1046:1056  msg.sender */\n      caller\n        /* \"w1d4/Bank.sol\":1058:1069  balance_map */\n      0x01\n        /* \"w1d4/Bank.sol\":1058:1081  balance_map[msg.sender] */\n      0x00\n        /* \"w1d4/Bank.sol\":1070:1080  msg.sender */\n      caller\n        /* \"w1d4/Bank.sol\":1058:1081  balance_map[msg.sender] */\n      0xffffffffffffffffffffffffffffffffffffffff\n      and\n      0xffffffffffffffffffffffffffffffffffffffff\n      and\n      dup2\n      mstore\n      0x20\n      add\n      swap1\n      dup2\n      mstore\n      0x20\n      add\n      0x00\n      keccak256\n      sload\n        /* \"w1d4/Bank.sol\":1028:1045  updateTop3Account */\n      tag_13\n        /* \"w1d4/Bank.sol\":1028:1082  updateTop3Account(msg.sender, balance_map[msg.sender]) */\n      jump\t// in\n    tag_12:\n        /* \"w1d4/Bank.sol\":313:2340  contract Bank is IBank{... */\n      stop\n    tag_2:\n      0x00\n      dup1\n      revert\n        /* \"w1d4/Bank.sol\":1115:1643  function withdraw(uint amount) public payable override {... */\n    tag_3:\n      tag_14\n      0x04\n      dup1\n      calldatasize\n      sub\n      dup2\n      add\n      swap1\n      tag_15\n      swap2\n      swap1\n      tag_16\n      jump\t// in\n    tag_15:\n      tag_17\n      jump\t// in\n    tag_14:\n      stop\n        /* \"w1d4/Bank.sol\":374:402  address payable public owner */\n    tag_4:\n      callvalue\n      dup1\n      iszero\n      tag_18\n      jumpi\n      0x00\n      dup1\n      revert\n    tag_18:\n      pop\n      tag_19\n      tag_20\n      jump\t// in\n    tag_19:\n      mload(0x40)\n      tag_21\n      swap2\n      swap1\n      tag_22\n      jump\t// in\n    tag_21:\n      mload(0x40)\n      dup1\n      swap2\n      sub\n      swap1\n      return\n        /* \"w1d4/Bank.sol\":561:590  address[3] public top3Address */\n    tag_5:\n      callvalue\n      dup1\n      iszero\n      tag_23\n      jumpi\n      0x00\n      dup1\n      revert\n    tag_23:\n      pop\n      tag_24\n      0x04\n      dup1\n      calldatasize\n      sub\n      dup2\n      add\n      swap1\n      tag_25\n      swap2\n      swap1\n      tag_16\n      jump\t// in\n    tag_25:\n      tag_26\n      jump\t// in\n    tag_24:\n      mload(0x40)\n      tag_27\n      swap2\n      swap1\n      tag_28\n      jump\t// in\n    tag_27:\n      mload(0x40)\n      dup1\n      swap2\n      sub\n      swap1\n      return\n        /* \"w1d4/Bank.sol\":444:487  mapping(address => uint) public balance_map */\n    tag_6:\n      callvalue\n      dup1\n      iszero\n      tag_29\n      jumpi\n      0x00\n      dup1\n      revert\n    tag_29:\n      pop\n      tag_30\n      0x04\n      dup1\n      calldatasize\n      sub\n      dup2\n      add\n      swap1\n      tag_31\n      swap2\n      swap1\n      tag_32\n      jump\t// in\n    tag_31:\n      tag_33\n      jump\t// in\n    tag_30:\n      mload(0x40)\n      tag_34\n      swap2\n      swap1\n      tag_35\n      jump\t// in\n    tag_34:\n      mload(0x40)\n      dup1\n      swap2\n      sub\n      swap1\n      return\n        /* \"w1d4/Bank.sol\":597:623  uint[3] public top3Balance */\n    tag_7:\n      callvalue\n      dup1\n      iszero\n      tag_36\n      jumpi\n      0x00\n      dup1\n      revert\n    tag_36:\n      pop\n      tag_37\n      0x04\n      dup1\n      calldatasize\n      sub\n      dup2\n      add\n      swap1\n      tag_38\n      swap2\n      swap1\n      tag_16\n      jump\t// in\n    tag_38:\n      tag_39\n      jump\t// in\n    tag_37:\n      mload(0x40)\n      tag_40\n      swap2\n      swap1\n      tag_35\n      jump\t// in\n    tag_40:\n      mload(0x40)\n      dup1\n      swap2\n      sub\n      swap1\n      return\n        /* \"w1d4/Bank.sol\":1678:2337  function updateTop3Account(address account, uint balance) private {... */\n    tag_13:\n        /* \"w1d4/Bank.sol\":1790:1796  uint i */\n      0x00\n        /* \"w1d4/Bank.sol\":1786:2330  for(uint i=0;i<top3Balance.length;i++){... */\n    tag_42:\n        /* \"w1d4/Bank.sol\":1801:1819  top3Balance.length */\n      0x03\n        /* \"w1d4/Bank.sol\":1799:1800  i */\n      dup2\n        /* \"w1d4/Bank.sol\":1799:1819  i<top3Balance.length */\n      lt\n        /* \"w1d4/Bank.sol\":1786:2330  for(uint i=0;i<top3Balance.length;i++){... */\n      iszero\n      tag_43\n      jumpi\n        /* \"w1d4/Bank.sol\":1853:1864  top3Balance */\n      0x05\n        /* \"w1d4/Bank.sol\":1865:1866  i */\n      dup2\n        /* \"w1d4/Bank.sol\":1853:1867  top3Balance[i] */\n      0x03\n      dup2\n      lt\n      tag_45\n      jumpi\n      tag_46\n      tag_47\n      jump\t// in\n    tag_46:\n    tag_45:\n      add\n      sload\n        /* \"w1d4/Bank.sol\":1843:1850  balance */\n      dup3\n        /* \"w1d4/Bank.sol\":1843:1867  balance > top3Balance[i] */\n      gt\n        /* \"w1d4/Bank.sol\":1839:2319  if (balance > top3Balance[i]) {... */\n      iszero\n      tag_49\n      jumpi\n        /* \"w1d4/Bank.sol\":1965:1971  uint j */\n      0x00\n        /* \"w1d4/Bank.sol\":1995:1996  1 */\n      0x01\n        /* \"w1d4/Bank.sol\":1974:1992  top3Balance.length */\n      0x03\n        /* \"w1d4/Bank.sol\":1974:1996  top3Balance.length - 1 */\n      tag_53\n      swap2\n      swap1\n      tag_54\n      jump\t// in\n    tag_53:\n        /* \"w1d4/Bank.sol\":1965:1996  uint j = top3Balance.length - 1 */\n      swap1\n      pop\n        /* \"w1d4/Bank.sol\":1960:2146  for (uint j = top3Balance.length - 1; j > i; j--) {... */\n    tag_50:\n        /* \"w1d4/Bank.sol\":2002:2003  i */\n      dup2\n        /* \"w1d4/Bank.sol\":1998:1999  j */\n      dup2\n        /* \"w1d4/Bank.sol\":1998:2003  j > i */\n      gt\n        /* \"w1d4/Bank.sol\":1960:2146  for (uint j = top3Balance.length - 1; j > i; j--) {... */\n      iszero\n      tag_51\n      jumpi\n        /* \"w1d4/Bank.sol\":2050:2061  top3Balance */\n      0x05\n        /* \"w1d4/Bank.sol\":2066:2067  1 */\n      0x01\n        /* \"w1d4/Bank.sol\":2062:2063  j */\n      dup3\n        /* \"w1d4/Bank.sol\":2062:2067  j - 1 */\n      tag_55\n      swap2\n      swap1\n      tag_54\n      jump\t// in\n    tag_55:\n        /* \"w1d4/Bank.sol\":2050:2068  top3Balance[j - 1] */\n      0x03\n      dup2\n      lt\n      tag_56\n      jumpi\n      tag_57\n      tag_47\n      jump\t// in\n    tag_57:\n    tag_56:\n      add\n      sload\n        /* \"w1d4/Bank.sol\":2033:2044  top3Balance */\n      0x05\n        /* \"w1d4/Bank.sol\":2045:2046  j */\n      dup3\n        /* \"w1d4/Bank.sol\":2033:2047  top3Balance[j] */\n      0x03\n      dup2\n      lt\n      tag_59\n      jumpi\n      tag_60\n      tag_47\n      jump\t// in\n    tag_60:\n    tag_59:\n      add\n        /* \"w1d4/Bank.sol\":2033:2068  top3Balance[j] = top3Balance[j - 1] */\n      dup2\n      swap1\n      sstore\n      pop\n        /* \"w1d4/Bank.sol\":2108:2119  top3Address */\n      0x02\n        /* \"w1d4/Bank.sol\":2124:2125  1 */\n      0x01\n        /* \"w1d4/Bank.sol\":2120:2121  j */\n      dup3\n        /* \"w1d4/Bank.sol\":2120:2125  j - 1 */\n      tag_62\n      swap2\n      swap1\n      tag_54\n      jump\t// in\n    tag_62:\n        /* \"w1d4/Bank.sol\":2108:2126  top3Address[j - 1] */\n      0x03\n      dup2\n      lt\n      tag_63\n      jumpi\n      tag_64\n      tag_47\n      jump\t// in\n    tag_64:\n    tag_63:\n      add\n      0x00\n      swap1\n      sload\n      swap1\n      0x0100\n      exp\n      swap1\n      div\n      0xffffffffffffffffffffffffffffffffffffffff\n      and\n        /* \"w1d4/Bank.sol\":2091:2102  top3Address */\n      0x02\n        /* \"w1d4/Bank.sol\":2103:2104  j */\n      dup3\n        /* \"w1d4/Bank.sol\":2091:2105  top3Address[j] */\n      0x03\n      dup2\n      lt\n      tag_66\n      jumpi\n      tag_67\n      tag_47\n      jump\t// in\n    tag_67:\n    tag_66:\n      add\n      0x00\n        /* \"w1d4/Bank.sol\":2091:2126  top3Address[j] = top3Address[j - 1] */\n      0x0100\n      exp\n      dup2\n      sload\n      dup2\n      0xffffffffffffffffffffffffffffffffffffffff\n      mul\n      not\n      and\n      swap1\n      dup4\n      0xffffffffffffffffffffffffffffffffffffffff\n      and\n      mul\n      or\n      swap1\n      sstore\n      pop\n        /* \"w1d4/Bank.sol\":2005:2008  j-- */\n      dup1\n      dup1\n      tag_69\n      swap1\n      tag_70\n      jump\t// in\n    tag_69:\n      swap2\n      pop\n      pop\n        /* \"w1d4/Bank.sol\":1960:2146  for (uint j = top3Balance.length - 1; j > i; j--) {... */\n      jump(tag_50)\n    tag_51:\n      pop\n        /* \"w1d4/Bank.sol\":2229:2236  balance */\n      dup2\n        /* \"w1d4/Bank.sol\":2212:2223  top3Balance */\n      0x05\n        /* \"w1d4/Bank.sol\":2224:2225  i */\n      dup3\n        /* \"w1d4/Bank.sol\":2212:2226  top3Balance[i] */\n      0x03\n      dup2\n      lt\n      tag_71\n      jumpi\n      tag_72\n      tag_47\n      jump\t// in\n    tag_72:\n    tag_71:\n      add\n        /* \"w1d4/Bank.sol\":2212:2236  top3Balance[i] = balance */\n      dup2\n      swap1\n      sstore\n      pop\n        /* \"w1d4/Bank.sol\":2272:2279  account */\n      dup3\n        /* \"w1d4/Bank.sol\":2255:2266  top3Address */\n      0x02\n        /* \"w1d4/Bank.sol\":2267:2268  i */\n      dup3\n        /* \"w1d4/Bank.sol\":2255:2269  top3Address[i] */\n      0x03\n      dup2\n      lt\n      tag_74\n      jumpi\n      tag_75\n      tag_47\n      jump\t// in\n    tag_75:\n    tag_74:\n      add\n      0x00\n        /* \"w1d4/Bank.sol\":2255:2279  top3Address[i] = account */\n      0x0100\n      exp\n      dup2\n      sload\n      dup2\n      0xffffffffffffffffffffffffffffffffffffffff\n      mul\n      not\n      and\n      swap1\n      dup4\n      0xffffffffffffffffffffffffffffffffffffffff\n      and\n      mul\n      or\n      swap1\n      sstore\n      pop\n        /* \"w1d4/Bank.sol\":2298:2303  break */\n      jump(tag_43)\n        /* \"w1d4/Bank.sol\":1839:2319  if (balance > top3Balance[i]) {... */\n    tag_49:\n        /* \"w1d4/Bank.sol\":1820:1823  i++ */\n      dup1\n      dup1\n      0x01\n      add\n      swap2\n      pop\n      pop\n        /* \"w1d4/Bank.sol\":1786:2330  for(uint i=0;i<top3Balance.length;i++){... */\n      jump(tag_42)\n    tag_43:\n      pop\n        /* \"w1d4/Bank.sol\":1678:2337  function updateTop3Account(address account, uint balance) private {... */\n      pop\n      pop\n      jump\t// out\n        /* \"w1d4/Bank.sol\":1115:1643  function withdraw(uint amount) public payable override {... */\n    tag_17:\n        /* \"w1d4/Bank.sol\":1186:1243  adminWithdrawMessage(\"withdraw\", amount,msg.sender,owner) */\n      0x14cd41f98ad044348b48b9a073e6de9d77dc3e7dc8685b0c8757030f2b075a1c\n        /* \"w1d4/Bank.sol\":1219:1225  amount */\n      dup2\n        /* \"w1d4/Bank.sol\":1226:1236  msg.sender */\n      caller\n        /* \"w1d4/Bank.sol\":1237:1242  owner */\n      0x00\n      dup1\n      sload\n      swap1\n      0x0100\n      exp\n      swap1\n      div\n      0xffffffffffffffffffffffffffffffffffffffff\n      and\n        /* \"w1d4/Bank.sol\":1186:1243  adminWithdrawMessage(\"withdraw\", amount,msg.sender,owner) */\n      mload(0x40)\n      tag_78\n      swap4\n      swap3\n      swap2\n      swap1\n      tag_79\n      jump\t// in\n    tag_78:\n      mload(0x40)\n      dup1\n      swap2\n      sub\n      swap1\n      log1\n        /* \"w1d4/Bank.sol\":1301:1306  owner */\n      0x00\n      dup1\n      sload\n      swap1\n      0x0100\n      exp\n      swap1\n      div\n      0xffffffffffffffffffffffffffffffffffffffff\n      and\n        /* \"w1d4/Bank.sol\":1287:1306  msg.sender == owner */\n      0xffffffffffffffffffffffffffffffffffffffff\n      and\n        /* \"w1d4/Bank.sol\":1287:1297  msg.sender */\n      caller\n        /* \"w1d4/Bank.sol\":1287:1306  msg.sender == owner */\n      0xffffffffffffffffffffffffffffffffffffffff\n      and\n      eq\n        /* \"w1d4/Bank.sol\":1279:1323  require(msg.sender == owner, \"Not an owner\") */\n      tag_80\n      jumpi\n      mload(0x40)\n      0x08c379a000000000000000000000000000000000000000000000000000000000\n      dup2\n      mstore\n      0x04\n      add\n      tag_81\n      swap1\n      tag_82\n      jump\t// in\n    tag_81:\n      mload(0x40)\n      dup1\n      swap2\n      sub\n      swap1\n      revert\n    tag_80:\n        /* \"w1d4/Bank.sol\":1420:1426  amount */\n      dup1\n        /* \"w1d4/Bank.sol\":1396:1417  address(this).balance */\n      selfbalance\n        /* \"w1d4/Bank.sol\":1396:1426  address(this).balance < amount */\n      lt\n        /* \"w1d4/Bank.sol\":1392:1511  if (address(this).balance < amount){... */\n      iszero\n      tag_83\n      jumpi\n        /* \"w1d4/Bank.sol\":1469:1490  address(this).balance */\n      selfbalance\n        /* \"w1d4/Bank.sol\":1492:1498  amount */\n      dup2\n        /* \"w1d4/Bank.sol\":1449:1499  InsufficientBalance(address(this).balance, amount) */\n      mload(0x40)\n      0xcf47918100000000000000000000000000000000000000000000000000000000\n      dup2\n      mstore\n      0x04\n      add\n      tag_84\n      swap3\n      swap2\n      swap1\n      tag_85\n      jump\t// in\n    tag_84:\n      mload(0x40)\n      dup1\n      swap2\n      sub\n      swap1\n      revert\n        /* \"w1d4/Bank.sol\":1392:1511  if (address(this).balance < amount){... */\n    tag_83:\n        /* \"w1d4/Bank.sol\":1545:1556  bool sucess */\n      0x00\n        /* \"w1d4/Bank.sol\":1562:1567  owner */\n      dup1\n      0x00\n      swap1\n      sload\n      swap1\n      0x0100\n      exp\n      swap1\n      div\n      0xffffffffffffffffffffffffffffffffffffffff\n      and\n        /* \"w1d4/Bank.sol\":1562:1572  owner.call */\n      0xffffffffffffffffffffffffffffffffffffffff\n      and\n        /* \"w1d4/Bank.sol\":1579:1585  amount */\n      dup3\n        /* \"w1d4/Bank.sol\":1562:1590  owner.call{value:amount}(\"\") */\n      mload(0x40)\n      tag_86\n      swap1\n      tag_87\n      jump\t// in\n    tag_86:\n      0x00\n      mload(0x40)\n      dup1\n      dup4\n      sub\n      dup2\n      dup6\n      dup8\n      gas\n      call\n      swap3\n      pop\n      pop\n      pop\n      returndatasize\n      dup1\n      0x00\n      dup2\n      eq\n      tag_90\n      jumpi\n      mload(0x40)\n      swap2\n      pop\n      and(add(returndatasize, 0x3f), not(0x1f))\n      dup3\n      add\n      0x40\n      mstore\n      returndatasize\n      dup3\n      mstore\n      returndatasize\n      0x00\n      0x20\n      dup5\n      add\n      returndatacopy\n      jump(tag_89)\n    tag_90:\n      0x60\n      swap2\n      pop\n    tag_89:\n      pop\n        /* \"w1d4/Bank.sol\":1544:1590  (bool sucess, ) = owner.call{value:amount}(\"\") */\n      pop\n      swap1\n      pop\n        /* \"w1d4/Bank.sol\":1609:1615  sucess */\n      dup1\n        /* \"w1d4/Bank.sol\":1601:1635  require(sucess, \"Transfer failed\") */\n      tag_91\n      jumpi\n      mload(0x40)\n      0x08c379a000000000000000000000000000000000000000000000000000000000\n      dup2\n      mstore\n      0x04\n      add\n      tag_92\n      swap1\n      tag_93\n      jump\t// in\n    tag_92:\n      mload(0x40)\n      dup1\n      swap2\n      sub\n      swap1\n      revert\n    tag_91:\n        /* \"w1d4/Bank.sol\":1170:1643  {... */\n      pop\n        /* \"w1d4/Bank.sol\":1115:1643  function withdraw(uint amount) public payable override {... */\n      pop\n      jump\t// out\n        /* \"w1d4/Bank.sol\":374:402  address payable public owner */\n    tag_20:\n      0x00\n      dup1\n      sload\n      swap1\n      0x0100\n      exp\n      swap1\n      div\n      0xffffffffffffffffffffffffffffffffffffffff\n      and\n      dup2\n      jump\t// out\n        /* \"w1d4/Bank.sol\":561:590  address[3] public top3Address */\n    tag_26:\n      0x02\n      dup2\n      0x03\n      dup2\n      lt\n      tag_94\n      jumpi\n      0x00\n      dup1\n      revert\n    tag_94:\n      add\n      0x00\n      swap2\n      pop\n      sload\n      swap1\n      0x0100\n      exp\n      swap1\n      div\n      0xffffffffffffffffffffffffffffffffffffffff\n      and\n      dup2\n      jump\t// out\n        /* \"w1d4/Bank.sol\":444:487  mapping(address => uint) public balance_map */\n    tag_33:\n      mstore(0x20, 0x01)\n      dup1\n      0x00\n      mstore\n      keccak256(0x00, 0x40)\n      0x00\n      swap2\n      pop\n      swap1\n      pop\n      sload\n      dup2\n      jump\t// out\n        /* \"w1d4/Bank.sol\":597:623  uint[3] public top3Balance */\n    tag_39:\n      0x05\n      dup2\n      0x03\n      dup2\n      lt\n      tag_96\n      jumpi\n      0x00\n      dup1\n      revert\n    tag_96:\n      add\n      0x00\n      swap2\n      pop\n      swap1\n      pop\n      sload\n      dup2\n      jump\t// out\n        /* \"#utility.yul\":7:84   */\n    tag_98:\n        /* \"#utility.yul\":44:51   */\n      0x00\n        /* \"#utility.yul\":73:78   */\n      dup2\n        /* \"#utility.yul\":62:78   */\n      swap1\n      pop\n        /* \"#utility.yul\":7:84   */\n      swap2\n      swap1\n      pop\n      jump\t// out\n        /* \"#utility.yul\":90:270   */\n    tag_99:\n        /* \"#utility.yul\":138:215   */\n      0x4e487b7100000000000000000000000000000000000000000000000000000000\n        /* \"#utility.yul\":135:136   */\n      0x00\n        /* \"#utility.yul\":128:216   */\n      mstore\n        /* \"#utility.yul\":235:239   */\n      0x11\n        /* \"#utility.yul\":232:233   */\n      0x04\n        /* \"#utility.yul\":225:240   */\n      mstore\n        /* \"#utility.yul\":259:263   */\n      0x24\n        /* \"#utility.yul\":256:257   */\n      0x00\n        /* \"#utility.yul\":249:264   */\n      revert\n        /* \"#utility.yul\":276:467   */\n    tag_11:\n        /* \"#utility.yul\":316:319   */\n      0x00\n        /* \"#utility.yul\":335:355   */\n      tag_132\n        /* \"#utility.yul\":353:354   */\n      dup3\n        /* \"#utility.yul\":335:355   */\n      tag_98\n      jump\t// in\n    tag_132:\n        /* \"#utility.yul\":330:355   */\n      swap2\n      pop\n        /* \"#utility.yul\":369:389   */\n      tag_133\n        /* \"#utility.yul\":387:388   */\n      dup4\n        /* \"#utility.yul\":369:389   */\n      tag_98\n      jump\t// in\n    tag_133:\n        /* \"#utility.yul\":364:389   */\n      swap3\n      pop\n        /* \"#utility.yul\":412:413   */\n      dup3\n        /* \"#utility.yul\":409:410   */\n      dup3\n        /* \"#utility.yul\":405:414   */\n      add\n        /* \"#utility.yul\":398:414   */\n      swap1\n      pop\n        /* \"#utility.yul\":433:436   */\n      dup1\n        /* \"#utility.yul\":430:431   */\n      dup3\n        /* \"#utility.yul\":427:437   */\n      gt\n        /* \"#utility.yul\":424:460   */\n      iszero\n      tag_134\n      jumpi\n        /* \"#utility.yul\":440:458   */\n      tag_135\n      tag_99\n      jump\t// in\n    tag_135:\n        /* \"#utility.yul\":424:460   */\n    tag_134:\n        /* \"#utility.yul\":276:467   */\n      swap3\n      swap2\n      pop\n      pop\n      jump\t// out\n        /* \"#utility.yul\":554:671   */\n    tag_101:\n        /* \"#utility.yul\":663:664   */\n      0x00\n        /* \"#utility.yul\":660:661   */\n      dup1\n        /* \"#utility.yul\":653:665   */\n      revert\n        /* \"#utility.yul\":800:922   */\n    tag_103:\n        /* \"#utility.yul\":873:897   */\n      tag_140\n        /* \"#utility.yul\":891:896   */\n      dup2\n        /* \"#utility.yul\":873:897   */\n      tag_98\n      jump\t// in\n    tag_140:\n        /* \"#utility.yul\":866:871   */\n      dup2\n        /* \"#utility.yul\":863:898   */\n      eq\n        /* \"#utility.yul\":853:916   */\n      tag_141\n      jumpi\n        /* \"#utility.yul\":912:913   */\n      0x00\n        /* \"#utility.yul\":909:910   */\n      dup1\n        /* \"#utility.yul\":902:914   */\n      revert\n        /* \"#utility.yul\":853:916   */\n    tag_141:\n        /* \"#utility.yul\":800:922   */\n      pop\n      jump\t// out\n        /* \"#utility.yul\":928:1067   */\n    tag_104:\n        /* \"#utility.yul\":974:979   */\n      0x00\n        /* \"#utility.yul\":1012:1018   */\n      dup2\n        /* \"#utility.yul\":999:1019   */\n      calldataload\n        /* \"#utility.yul\":990:1019   */\n      swap1\n      pop\n        /* \"#utility.yul\":1028:1061   */\n      tag_143\n        /* \"#utility.yul\":1055:1060   */\n      dup2\n        /* \"#utility.yul\":1028:1061   */\n      tag_103\n      jump\t// in\n    tag_143:\n        /* \"#utility.yul\":928:1067   */\n      swap3\n      swap2\n      pop\n      pop\n      jump\t// out\n        /* \"#utility.yul\":1073:1402   */\n    tag_16:\n        /* \"#utility.yul\":1132:1138   */\n      0x00\n        /* \"#utility.yul\":1181:1183   */\n      0x20\n        /* \"#utility.yul\":1169:1178   */\n      dup3\n        /* \"#utility.yul\":1160:1167   */\n      dup5\n        /* \"#utility.yul\":1156:1179   */\n      sub\n        /* \"#utility.yul\":1152:1184   */\n      slt\n        /* \"#utility.yul\":1149:1268   */\n      iszero\n      tag_145\n      jumpi\n        /* \"#utility.yul\":1187:1266   */\n      tag_146\n      tag_101\n      jump\t// in\n    tag_146:\n        /* \"#utility.yul\":1149:1268   */\n    tag_145:\n        /* \"#utility.yul\":1307:1308   */\n      0x00\n        /* \"#utility.yul\":1332:1385   */\n      tag_147\n        /* \"#utility.yul\":1377:1384   */\n      dup5\n        /* \"#utility.yul\":1368:1374   */\n      dup3\n        /* \"#utility.yul\":1357:1366   */\n      dup6\n        /* \"#utility.yul\":1353:1375   */\n      add\n        /* \"#utility.yul\":1332:1385   */\n      tag_104\n      jump\t// in\n    tag_147:\n        /* \"#utility.yul\":1322:1385   */\n      swap2\n      pop\n        /* \"#utility.yul\":1278:1395   */\n      pop\n        /* \"#utility.yul\":1073:1402   */\n      swap3\n      swap2\n      pop\n      pop\n      jump\t// out\n        /* \"#utility.yul\":1408:1534   */\n    tag_105:\n        /* \"#utility.yul\":1445:1452   */\n      0x00\n        /* \"#utility.yul\":1485:1527   */\n      0xffffffffffffffffffffffffffffffffffffffff\n        /* \"#utility.yul\":1478:1483   */\n      dup3\n        /* \"#utility.yul\":1474:1528   */\n      and\n        /* \"#utility.yul\":1463:1528   */\n      swap1\n      pop\n        /* \"#utility.yul\":1408:1534   */\n      swap2\n      swap1\n      pop\n      jump\t// out\n        /* \"#utility.yul\":1540:1644   */\n    tag_106:\n        /* \"#utility.yul\":1585:1592   */\n      0x00\n        /* \"#utility.yul\":1614:1638   */\n      tag_150\n        /* \"#utility.yul\":1632:1637   */\n      dup3\n        /* \"#utility.yul\":1614:1638   */\n      tag_105\n      jump\t// in\n    tag_150:\n        /* \"#utility.yul\":1603:1638   */\n      swap1\n      pop\n        /* \"#utility.yul\":1540:1644   */\n      swap2\n      swap1\n      pop\n      jump\t// out\n        /* \"#utility.yul\":1650:1792   */\n    tag_107:\n        /* \"#utility.yul\":1753:1785   */\n      tag_152\n        /* \"#utility.yul\":1779:1784   */\n      dup2\n        /* \"#utility.yul\":1753:1785   */\n      tag_106\n      jump\t// in\n    tag_152:\n        /* \"#utility.yul\":1748:1751   */\n      dup3\n        /* \"#utility.yul\":1741:1786   */\n      mstore\n        /* \"#utility.yul\":1650:1792   */\n      pop\n      pop\n      jump\t// out\n        /* \"#utility.yul\":1798:2052   */\n    tag_22:\n        /* \"#utility.yul\":1907:1911   */\n      0x00\n        /* \"#utility.yul\":1945:1947   */\n      0x20\n        /* \"#utility.yul\":1934:1943   */\n      dup3\n        /* \"#utility.yul\":1930:1948   */\n      add\n        /* \"#utility.yul\":1922:1948   */\n      swap1\n      pop\n        /* \"#utility.yul\":1958:2045   */\n      tag_154\n        /* \"#utility.yul\":2042:2043   */\n      0x00\n        /* \"#utility.yul\":2031:2040   */\n      dup4\n        /* \"#utility.yul\":2027:2044   */\n      add\n        /* \"#utility.yul\":2018:2024   */\n      dup5\n        /* \"#utility.yul\":1958:2045   */\n      tag_107\n      jump\t// in\n    tag_154:\n        /* \"#utility.yul\":1798:2052   */\n      swap3\n      swap2\n      pop\n      pop\n      jump\t// out\n        /* \"#utility.yul\":2058:2154   */\n    tag_108:\n        /* \"#utility.yul\":2095:2102   */\n      0x00\n        /* \"#utility.yul\":2124:2148   */\n      tag_156\n        /* \"#utility.yul\":2142:2147   */\n      dup3\n        /* \"#utility.yul\":2124:2148   */\n      tag_105\n      jump\t// in\n    tag_156:\n        /* \"#utility.yul\":2113:2148   */\n      swap1\n      pop\n        /* \"#utility.yul\":2058:2154   */\n      swap2\n      swap1\n      pop\n      jump\t// out\n        /* \"#utility.yul\":2160:2278   */\n    tag_109:\n        /* \"#utility.yul\":2247:2271   */\n      tag_158\n        /* \"#utility.yul\":2265:2270   */\n      dup2\n        /* \"#utility.yul\":2247:2271   */\n      tag_108\n      jump\t// in\n    tag_158:\n        /* \"#utility.yul\":2242:2245   */\n      dup3\n        /* \"#utility.yul\":2235:2272   */\n      mstore\n        /* \"#utility.yul\":2160:2278   */\n      pop\n      pop\n      jump\t// out\n        /* \"#utility.yul\":2284:2506   */\n    tag_28:\n        /* \"#utility.yul\":2377:2381   */\n      0x00\n        /* \"#utility.yul\":2415:2417   */\n      0x20\n        /* \"#utility.yul\":2404:2413   */\n      dup3\n        /* \"#utility.yul\":2400:2418   */\n      add\n        /* \"#utility.yul\":2392:2418   */\n      swap1\n      pop\n        /* \"#utility.yul\":2428:2499   */\n      tag_160\n        /* \"#utility.yul\":2496:2497   */\n      0x00\n        /* \"#utility.yul\":2485:2494   */\n      dup4\n        /* \"#utility.yul\":2481:2498   */\n      add\n        /* \"#utility.yul\":2472:2478   */\n      dup5\n        /* \"#utility.yul\":2428:2499   */\n      tag_109\n      jump\t// in\n    tag_160:\n        /* \"#utility.yul\":2284:2506   */\n      swap3\n      swap2\n      pop\n      pop\n      jump\t// out\n        /* \"#utility.yul\":2512:2634   */\n    tag_110:\n        /* \"#utility.yul\":2585:2609   */\n      tag_162\n        /* \"#utility.yul\":2603:2608   */\n      dup2\n        /* \"#utility.yul\":2585:2609   */\n      tag_108\n      jump\t// in\n    tag_162:\n        /* \"#utility.yul\":2578:2583   */\n      dup2\n        /* \"#utility.yul\":2575:2610   */\n      eq\n        /* \"#utility.yul\":2565:2628   */\n      tag_163\n      jumpi\n        /* \"#utility.yul\":2624:2625   */\n      0x00\n        /* \"#utility.yul\":2621:2622   */\n      dup1\n        /* \"#utility.yul\":2614:2626   */\n      revert\n        /* \"#utility.yul\":2565:2628   */\n    tag_163:\n        /* \"#utility.yul\":2512:2634   */\n      pop\n      jump\t// out\n        /* \"#utility.yul\":2640:2779   */\n    tag_111:\n        /* \"#utility.yul\":2686:2691   */\n      0x00\n        /* \"#utility.yul\":2724:2730   */\n      dup2\n        /* \"#utility.yul\":2711:2731   */\n      calldataload\n        /* \"#utility.yul\":2702:2731   */\n      swap1\n      pop\n        /* \"#utility.yul\":2740:2773   */\n      tag_165\n        /* \"#utility.yul\":2767:2772   */\n      dup2\n        /* \"#utility.yul\":2740:2773   */\n      tag_110\n      jump\t// in\n    tag_165:\n        /* \"#utility.yul\":2640:2779   */\n      swap3\n      swap2\n      pop\n      pop\n      jump\t// out\n        /* \"#utility.yul\":2785:3114   */\n    tag_32:\n        /* \"#utility.yul\":2844:2850   */\n      0x00\n        /* \"#utility.yul\":2893:2895   */\n      0x20\n        /* \"#utility.yul\":2881:2890   */\n      dup3\n        /* \"#utility.yul\":2872:2879   */\n      dup5\n        /* \"#utility.yul\":2868:2891   */\n      sub\n        /* \"#utility.yul\":2864:2896   */\n      slt\n        /* \"#utility.yul\":2861:2980   */\n      iszero\n      tag_167\n      jumpi\n        /* \"#utility.yul\":2899:2978   */\n      tag_168\n      tag_101\n      jump\t// in\n    tag_168:\n        /* \"#utility.yul\":2861:2980   */\n    tag_167:\n        /* \"#utility.yul\":3019:3020   */\n      0x00\n        /* \"#utility.yul\":3044:3097   */\n      tag_169\n        /* \"#utility.yul\":3089:3096   */\n      dup5\n        /* \"#utility.yul\":3080:3086   */\n      dup3\n        /* \"#utility.yul\":3069:3078   */\n      dup6\n        /* \"#utility.yul\":3065:3087   */\n      add\n        /* \"#utility.yul\":3044:3097   */\n      tag_111\n      jump\t// in\n    tag_169:\n        /* \"#utility.yul\":3034:3097   */\n      swap2\n      pop\n        /* \"#utility.yul\":2990:3107   */\n      pop\n        /* \"#utility.yul\":2785:3114   */\n      swap3\n      swap2\n      pop\n      pop\n      jump\t// out\n        /* \"#utility.yul\":3120:3238   */\n    tag_112:\n        /* \"#utility.yul\":3207:3231   */\n      tag_171\n        /* \"#utility.yul\":3225:3230   */\n      dup2\n        /* \"#utility.yul\":3207:3231   */\n      tag_98\n      jump\t// in\n    tag_171:\n        /* \"#utility.yul\":3202:3205   */\n      dup3\n        /* \"#utility.yul\":3195:3232   */\n      mstore\n        /* \"#utility.yul\":3120:3238   */\n      pop\n      pop\n      jump\t// out\n        /* \"#utility.yul\":3244:3466   */\n    tag_35:\n        /* \"#utility.yul\":3337:3341   */\n      0x00\n        /* \"#utility.yul\":3375:3377   */\n      0x20\n        /* \"#utility.yul\":3364:3373   */\n      dup3\n        /* \"#utility.yul\":3360:3378   */\n      add\n        /* \"#utility.yul\":3352:3378   */\n      swap1\n      pop\n        /* \"#utility.yul\":3388:3459   */\n      tag_173\n        /* \"#utility.yul\":3456:3457   */\n      0x00\n        /* \"#utility.yul\":3445:3454   */\n      dup4\n        /* \"#utility.yul\":3441:3458   */\n      add\n        /* \"#utility.yul\":3432:3438   */\n      dup5\n        /* \"#utility.yul\":3388:3459   */\n      tag_112\n      jump\t// in\n    tag_173:\n        /* \"#utility.yul\":3244:3466   */\n      swap3\n      swap2\n      pop\n      pop\n      jump\t// out\n        /* \"#utility.yul\":3472:3652   */\n    tag_47:\n        /* \"#utility.yul\":3520:3597   */\n      0x4e487b7100000000000000000000000000000000000000000000000000000000\n        /* \"#utility.yul\":3517:3518   */\n      0x00\n        /* \"#utility.yul\":3510:3598   */\n      mstore\n        /* \"#utility.yul\":3617:3621   */\n      0x32\n        /* \"#utility.yul\":3614:3615   */\n      0x04\n        /* \"#utility.yul\":3607:3622   */\n      mstore\n        /* \"#utility.yul\":3641:3645   */\n      0x24\n        /* \"#utility.yul\":3638:3639   */\n      0x00\n        /* \"#utility.yul\":3631:3646   */\n      revert\n        /* \"#utility.yul\":3658:3852   */\n    tag_54:\n        /* \"#utility.yul\":3698:3702   */\n      0x00\n        /* \"#utility.yul\":3718:3738   */\n      tag_176\n        /* \"#utility.yul\":3736:3737   */\n      dup3\n        /* \"#utility.yul\":3718:3738   */\n      tag_98\n      jump\t// in\n    tag_176:\n        /* \"#utility.yul\":3713:3738   */\n      swap2\n      pop\n        /* \"#utility.yul\":3752:3772   */\n      tag_177\n        /* \"#utility.yul\":3770:3771   */\n      dup4\n        /* \"#utility.yul\":3752:3772   */\n      tag_98\n      jump\t// in\n    tag_177:\n        /* \"#utility.yul\":3747:3772   */\n      swap3\n      pop\n        /* \"#utility.yul\":3796:3797   */\n      dup3\n        /* \"#utility.yul\":3793:3794   */\n      dup3\n        /* \"#utility.yul\":3789:3798   */\n      sub\n        /* \"#utility.yul\":3781:3798   */\n      swap1\n      pop\n        /* \"#utility.yul\":3820:3821   */\n      dup2\n        /* \"#utility.yul\":3814:3818   */\n      dup2\n        /* \"#utility.yul\":3811:3822   */\n      gt\n        /* \"#utility.yul\":3808:3845   */\n      iszero\n      tag_178\n      jumpi\n        /* \"#utility.yul\":3825:3843   */\n      tag_179\n      tag_99\n      jump\t// in\n    tag_179:\n        /* \"#utility.yul\":3808:3845   */\n    tag_178:\n        /* \"#utility.yul\":3658:3852   */\n      swap3\n      swap2\n      pop\n      pop\n      jump\t// out\n        /* \"#utility.yul\":3858:4029   */\n    tag_70:\n        /* \"#utility.yul\":3897:3900   */\n      0x00\n        /* \"#utility.yul\":3920:3944   */\n      tag_181\n        /* \"#utility.yul\":3938:3943   */\n      dup3\n        /* \"#utility.yul\":3920:3944   */\n      tag_98\n      jump\t// in\n    tag_181:\n        /* \"#utility.yul\":3911:3944   */\n      swap2\n      pop\n        /* \"#utility.yul\":3966:3970   */\n      0x00\n        /* \"#utility.yul\":3959:3964   */\n      dup3\n        /* \"#utility.yul\":3956:3971   */\n      sub\n        /* \"#utility.yul\":3953:3994   */\n      tag_182\n      jumpi\n        /* \"#utility.yul\":3974:3992   */\n      tag_183\n      tag_99\n      jump\t// in\n    tag_183:\n        /* \"#utility.yul\":3953:3994   */\n    tag_182:\n        /* \"#utility.yul\":4021:4022   */\n      0x01\n        /* \"#utility.yul\":4014:4019   */\n      dup3\n        /* \"#utility.yul\":4010:4023   */\n      sub\n        /* \"#utility.yul\":4003:4023   */\n      swap1\n      pop\n        /* \"#utility.yul\":3858:4029   */\n      swap2\n      swap1\n      pop\n      jump\t// out\n        /* \"#utility.yul\":4035:4204   */\n    tag_113:\n        /* \"#utility.yul\":4119:4130   */\n      0x00\n        /* \"#utility.yul\":4153:4159   */\n      dup3\n        /* \"#utility.yul\":4148:4151   */\n      dup3\n        /* \"#utility.yul\":4141:4160   */\n      mstore\n        /* \"#utility.yul\":4193:4197   */\n      0x20\n        /* \"#utility.yul\":4188:4191   */\n      dup3\n        /* \"#utility.yul\":4184:4198   */\n      add\n        /* \"#utility.yul\":4169:4198   */\n      swap1\n      pop\n        /* \"#utility.yul\":4035:4204   */\n      swap3\n      swap2\n      pop\n      pop\n      jump\t// out\n        /* \"#utility.yul\":4210:4368   */\n    tag_114:\n        /* \"#utility.yul\":4350:4360   */\n      0x7769746864726177000000000000000000000000000000000000000000000000\n        /* \"#utility.yul\":4346:4347   */\n      0x00\n        /* \"#utility.yul\":4338:4344   */\n      dup3\n        /* \"#utility.yul\":4334:4348   */\n      add\n        /* \"#utility.yul\":4327:4361   */\n      mstore\n        /* \"#utility.yul\":4210:4368   */\n      pop\n      jump\t// out\n        /* \"#utility.yul\":4374:4739   */\n    tag_115:\n        /* \"#utility.yul\":4516:4519   */\n      0x00\n        /* \"#utility.yul\":4537:4603   */\n      tag_187\n        /* \"#utility.yul\":4601:4602   */\n      0x08\n        /* \"#utility.yul\":4596:4599   */\n      dup4\n        /* \"#utility.yul\":4537:4603   */\n      tag_113\n      jump\t// in\n    tag_187:\n        /* \"#utility.yul\":4530:4603   */\n      swap2\n      pop\n        /* \"#utility.yul\":4612:4705   */\n      tag_188\n        /* \"#utility.yul\":4701:4704   */\n      dup3\n        /* \"#utility.yul\":4612:4705   */\n      tag_114\n      jump\t// in\n    tag_188:\n        /* \"#utility.yul\":4730:4732   */\n      0x20\n        /* \"#utility.yul\":4725:4728   */\n      dup3\n        /* \"#utility.yul\":4721:4733   */\n      add\n        /* \"#utility.yul\":4714:4733   */\n      swap1\n      pop\n        /* \"#utility.yul\":4374:4739   */\n      swap2\n      swap1\n      pop\n      jump\t// out\n        /* \"#utility.yul\":4745:4805   */\n    tag_116:\n        /* \"#utility.yul\":4773:4776   */\n      0x00\n        /* \"#utility.yul\":4794:4799   */\n      dup2\n        /* \"#utility.yul\":4787:4799   */\n      swap1\n      pop\n        /* \"#utility.yul\":4745:4805   */\n      swap2\n      swap1\n      pop\n      jump\t// out\n        /* \"#utility.yul\":4811:4953   */\n    tag_117:\n        /* \"#utility.yul\":4861:4870   */\n      0x00\n        /* \"#utility.yul\":4894:4947   */\n      tag_191\n        /* \"#utility.yul\":4912:4946   */\n      tag_192\n        /* \"#utility.yul\":4921:4945   */\n      tag_193\n        /* \"#utility.yul\":4939:4944   */\n      dup5\n        /* \"#utility.yul\":4921:4945   */\n      tag_105\n      jump\t// in\n    tag_193:\n        /* \"#utility.yul\":4912:4946   */\n      tag_116\n      jump\t// in\n    tag_192:\n        /* \"#utility.yul\":4894:4947   */\n      tag_105\n      jump\t// in\n    tag_191:\n        /* \"#utility.yul\":4881:4947   */\n      swap1\n      pop\n        /* \"#utility.yul\":4811:4953   */\n      swap2\n      swap1\n      pop\n      jump\t// out\n        /* \"#utility.yul\":4959:5085   */\n    tag_118:\n        /* \"#utility.yul\":5009:5018   */\n      0x00\n        /* \"#utility.yul\":5042:5079   */\n      tag_195\n        /* \"#utility.yul\":5073:5078   */\n      dup3\n        /* \"#utility.yul\":5042:5079   */\n      tag_117\n      jump\t// in\n    tag_195:\n        /* \"#utility.yul\":5029:5079   */\n      swap1\n      pop\n        /* \"#utility.yul\":4959:5085   */\n      swap2\n      swap1\n      pop\n      jump\t// out\n        /* \"#utility.yul\":5091:5225   */\n    tag_119:\n        /* \"#utility.yul\":5149:5158   */\n      0x00\n        /* \"#utility.yul\":5182:5219   */\n      tag_197\n        /* \"#utility.yul\":5213:5218   */\n      dup3\n        /* \"#utility.yul\":5182:5219   */\n      tag_118\n      jump\t// in\n    tag_197:\n        /* \"#utility.yul\":5169:5219   */\n      swap1\n      pop\n        /* \"#utility.yul\":5091:5225   */\n      swap2\n      swap1\n      pop\n      jump\t// out\n        /* \"#utility.yul\":5231:5378   */\n    tag_120:\n        /* \"#utility.yul\":5326:5371   */\n      tag_199\n        /* \"#utility.yul\":5365:5370   */\n      dup2\n        /* \"#utility.yul\":5326:5371   */\n      tag_119\n      jump\t// in\n    tag_199:\n        /* \"#utility.yul\":5321:5324   */\n      dup3\n        /* \"#utility.yul\":5314:5372   */\n      mstore\n        /* \"#utility.yul\":5231:5378   */\n      pop\n      pop\n      jump\t// out\n        /* \"#utility.yul\":5384:6150   */\n    tag_79:\n        /* \"#utility.yul\":5642:5646   */\n      0x00\n        /* \"#utility.yul\":5680:5683   */\n      0x80\n        /* \"#utility.yul\":5669:5678   */\n      dup3\n        /* \"#utility.yul\":5665:5684   */\n      add\n        /* \"#utility.yul\":5657:5684   */\n      swap1\n      pop\n        /* \"#utility.yul\":5730:5739   */\n      dup2\n        /* \"#utility.yul\":5724:5728   */\n      dup2\n        /* \"#utility.yul\":5720:5740   */\n      sub\n        /* \"#utility.yul\":5716:5717   */\n      0x00\n        /* \"#utility.yul\":5705:5714   */\n      dup4\n        /* \"#utility.yul\":5701:5718   */\n      add\n        /* \"#utility.yul\":5694:5741   */\n      mstore\n        /* \"#utility.yul\":5758:5889   */\n      tag_201\n        /* \"#utility.yul\":5884:5888   */\n      dup2\n        /* \"#utility.yul\":5758:5889   */\n      tag_115\n      jump\t// in\n    tag_201:\n        /* \"#utility.yul\":5750:5889   */\n      swap1\n      pop\n        /* \"#utility.yul\":5899:5971   */\n      tag_202\n        /* \"#utility.yul\":5967:5969   */\n      0x20\n        /* \"#utility.yul\":5956:5965   */\n      dup4\n        /* \"#utility.yul\":5952:5970   */\n      add\n        /* \"#utility.yul\":5943:5949   */\n      dup7\n        /* \"#utility.yul\":5899:5971   */\n      tag_112\n      jump\t// in\n    tag_202:\n        /* \"#utility.yul\":5981:6053   */\n      tag_203\n        /* \"#utility.yul\":6049:6051   */\n      0x40\n        /* \"#utility.yul\":6038:6047   */\n      dup4\n        /* \"#utility.yul\":6034:6052   */\n      add\n        /* \"#utility.yul\":6025:6031   */\n      dup6\n        /* \"#utility.yul\":5981:6053   */\n      tag_109\n      jump\t// in\n    tag_203:\n        /* \"#utility.yul\":6063:6143   */\n      tag_204\n        /* \"#utility.yul\":6139:6141   */\n      0x60\n        /* \"#utility.yul\":6128:6137   */\n      dup4\n        /* \"#utility.yul\":6124:6142   */\n      add\n        /* \"#utility.yul\":6115:6121   */\n      dup5\n        /* \"#utility.yul\":6063:6143   */\n      tag_120\n      jump\t// in\n    tag_204:\n        /* \"#utility.yul\":5384:6150   */\n      swap5\n      swap4\n      pop\n      pop\n      pop\n      pop\n      jump\t// out\n        /* \"#utility.yul\":6156:6318   */\n    tag_121:\n        /* \"#utility.yul\":6296:6310   */\n      0x4e6f7420616e206f776e65720000000000000000000000000000000000000000\n        /* \"#utility.yul\":6292:6293   */\n      0x00\n        /* \"#utility.yul\":6284:6290   */\n      dup3\n        /* \"#utility.yul\":6280:6294   */\n      add\n        /* \"#utility.yul\":6273:6311   */\n      mstore\n        /* \"#utility.yul\":6156:6318   */\n      pop\n      jump\t// out\n        /* \"#utility.yul\":6324:6690   */\n    tag_122:\n        /* \"#utility.yul\":6466:6469   */\n      0x00\n        /* \"#utility.yul\":6487:6554   */\n      tag_207\n        /* \"#utility.yul\":6551:6553   */\n      0x0c\n        /* \"#utility.yul\":6546:6549   */\n      dup4\n        /* \"#utility.yul\":6487:6554   */\n      tag_113\n      jump\t// in\n    tag_207:\n        /* \"#utility.yul\":6480:6554   */\n      swap2\n      pop\n        /* \"#utility.yul\":6563:6656   */\n      tag_208\n        /* \"#utility.yul\":6652:6655   */\n      dup3\n        /* \"#utility.yul\":6563:6656   */\n      tag_121\n      jump\t// in\n    tag_208:\n        /* \"#utility.yul\":6681:6683   */\n      0x20\n        /* \"#utility.yul\":6676:6679   */\n      dup3\n        /* \"#utility.yul\":6672:6684   */\n      add\n        /* \"#utility.yul\":6665:6684   */\n      swap1\n      pop\n        /* \"#utility.yul\":6324:6690   */\n      swap2\n      swap1\n      pop\n      jump\t// out\n        /* \"#utility.yul\":6696:7115   */\n    tag_82:\n        /* \"#utility.yul\":6862:6866   */\n      0x00\n        /* \"#utility.yul\":6900:6902   */\n      0x20\n        /* \"#utility.yul\":6889:6898   */\n      dup3\n        /* \"#utility.yul\":6885:6903   */\n      add\n        /* \"#utility.yul\":6877:6903   */\n      swap1\n      pop\n        /* \"#utility.yul\":6949:6958   */\n      dup2\n        /* \"#utility.yul\":6943:6947   */\n      dup2\n        /* \"#utility.yul\":6939:6959   */\n      sub\n        /* \"#utility.yul\":6935:6936   */\n      0x00\n        /* \"#utility.yul\":6924:6933   */\n      dup4\n        /* \"#utility.yul\":6920:6937   */\n      add\n        /* \"#utility.yul\":6913:6960   */\n      mstore\n        /* \"#utility.yul\":6977:7108   */\n      tag_210\n        /* \"#utility.yul\":7103:7107   */\n      dup2\n        /* \"#utility.yul\":6977:7108   */\n      tag_122\n      jump\t// in\n    tag_210:\n        /* \"#utility.yul\":6969:7108   */\n      swap1\n      pop\n        /* \"#utility.yul\":6696:7115   */\n      swap2\n      swap1\n      pop\n      jump\t// out\n        /* \"#utility.yul\":7121:7453   */\n    tag_85:\n        /* \"#utility.yul\":7242:7246   */\n      0x00\n        /* \"#utility.yul\":7280:7282   */\n      0x40\n        /* \"#utility.yul\":7269:7278   */\n      dup3\n        /* \"#utility.yul\":7265:7283   */\n      add\n        /* \"#utility.yul\":7257:7283   */\n      swap1\n      pop\n        /* \"#utility.yul\":7293:7364   */\n      tag_212\n        /* \"#utility.yul\":7361:7362   */\n      0x00\n        /* \"#utility.yul\":7350:7359   */\n      dup4\n        /* \"#utility.yul\":7346:7363   */\n      add\n        /* \"#utility.yul\":7337:7343   */\n      dup6\n        /* \"#utility.yul\":7293:7364   */\n      tag_112\n      jump\t// in\n    tag_212:\n        /* \"#utility.yul\":7374:7446   */\n      tag_213\n        /* \"#utility.yul\":7442:7444   */\n      0x20\n        /* \"#utility.yul\":7431:7440   */\n      dup4\n        /* \"#utility.yul\":7427:7445   */\n      add\n        /* \"#utility.yul\":7418:7424   */\n      dup5\n        /* \"#utility.yul\":7374:7446   */\n      tag_112\n      jump\t// in\n    tag_213:\n        /* \"#utility.yul\":7121:7453   */\n      swap4\n      swap3\n      pop\n      pop\n      pop\n      jump\t// out\n        /* \"#utility.yul\":7459:7606   */\n    tag_123:\n        /* \"#utility.yul\":7560:7571   */\n      0x00\n        /* \"#utility.yul\":7597:7600   */\n      dup2\n        /* \"#utility.yul\":7582:7600   */\n      swap1\n      pop\n        /* \"#utility.yul\":7459:7606   */\n      swap3\n      swap2\n      pop\n      pop\n      jump\t// out\n        /* \"#utility.yul\":7612:7726   */\n    tag_124:\n      pop\n      jump\t// out\n        /* \"#utility.yul\":7732:8130   */\n    tag_125:\n        /* \"#utility.yul\":7891:7894   */\n      0x00\n        /* \"#utility.yul\":7912:7995   */\n      tag_217\n        /* \"#utility.yul\":7993:7994   */\n      0x00\n        /* \"#utility.yul\":7988:7991   */\n      dup4\n        /* \"#utility.yul\":7912:7995   */\n      tag_123\n      jump\t// in\n    tag_217:\n        /* \"#utility.yul\":7905:7995   */\n      swap2\n      pop\n        /* \"#utility.yul\":8004:8097   */\n      tag_218\n        /* \"#utility.yul\":8093:8096   */\n      dup3\n        /* \"#utility.yul\":8004:8097   */\n      tag_124\n      jump\t// in\n    tag_218:\n        /* \"#utility.yul\":8122:8123   */\n      0x00\n        /* \"#utility.yul\":8117:8120   */\n      dup3\n        /* \"#utility.yul\":8113:8124   */\n      add\n        /* \"#utility.yul\":8106:8124   */\n      swap1\n      pop\n        /* \"#utility.yul\":7732:8130   */\n      swap2\n      swap1\n      pop\n      jump\t// out\n        /* \"#utility.yul\":8136:8515   */\n    tag_87:\n        /* \"#utility.yul\":8320:8323   */\n      0x00\n        /* \"#utility.yul\":8342:8489   */\n      tag_220\n        /* \"#utility.yul\":8485:8488   */\n      dup3\n        /* \"#utility.yul\":8342:8489   */\n      tag_125\n      jump\t// in\n    tag_220:\n        /* \"#utility.yul\":8335:8489   */\n      swap2\n      pop\n        /* \"#utility.yul\":8506:8509   */\n      dup2\n        /* \"#utility.yul\":8499:8509   */\n      swap1\n      pop\n        /* \"#utility.yul\":8136:8515   */\n      swap2\n      swap1\n      pop\n      jump\t// out\n        /* \"#utility.yul\":8521:8686   */\n    tag_126:\n        /* \"#utility.yul\":8661:8678   */\n      0x5472616e73666572206661696c65640000000000000000000000000000000000\n        /* \"#utility.yul\":8657:8658   */\n      0x00\n        /* \"#utility.yul\":8649:8655   */\n      dup3\n        /* \"#utility.yul\":8645:8659   */\n      add\n        /* \"#utility.yul\":8638:8679   */\n      mstore\n        /* \"#utility.yul\":8521:8686   */\n      pop\n      jump\t// out\n        /* \"#utility.yul\":8692:9058   */\n    tag_127:\n        /* \"#utility.yul\":8834:8837   */\n      0x00\n        /* \"#utility.yul\":8855:8922   */\n      tag_223\n        /* \"#utility.yul\":8919:8921   */\n      0x0f\n        /* \"#utility.yul\":8914:8917   */\n      dup4\n        /* \"#utility.yul\":8855:8922   */\n      tag_113\n      jump\t// in\n    tag_223:\n        /* \"#utility.yul\":8848:8922   */\n      swap2\n      pop\n        /* \"#utility.yul\":8931:9024   */\n      tag_224\n        /* \"#utility.yul\":9020:9023   */\n      dup3\n        /* \"#utility.yul\":8931:9024   */\n      tag_126\n      jump\t// in\n    tag_224:\n        /* \"#utility.yul\":9049:9051   */\n      0x20\n        /* \"#utility.yul\":9044:9047   */\n      dup3\n        /* \"#utility.yul\":9040:9052   */\n      add\n        /* \"#utility.yul\":9033:9052   */\n      swap1\n      pop\n        /* \"#utility.yul\":8692:9058   */\n      swap2\n      swap1\n      pop\n      jump\t// out\n        /* \"#utility.yul\":9064:9483   */\n    tag_93:\n        /* \"#utility.yul\":9230:9234   */\n      0x00\n        /* \"#utility.yul\":9268:9270   */\n      0x20\n        /* \"#utility.yul\":9257:9266   */\n      dup3\n        /* \"#utility.yul\":9253:9271   */\n      add\n        /* \"#utility.yul\":9245:9271   */\n      swap1\n      pop\n        /* \"#utility.yul\":9317:9326   */\n      dup2\n        /* \"#utility.yul\":9311:9315   */\n      dup2\n        /* \"#utility.yul\":9307:9327   */\n      sub\n        /* \"#utility.yul\":9303:9304   */\n      0x00\n        /* \"#utility.yul\":9292:9301   */\n      dup4\n        /* \"#utility.yul\":9288:9305   */\n      add\n        /* \"#utility.yul\":9281:9328   */\n      mstore\n        /* \"#utility.yul\":9345:9476   */\n      tag_226\n        /* \"#utility.yul\":9471:9475   */\n      dup2\n        /* \"#utility.yul\":9345:9476   */\n      tag_127\n      jump\t// in\n    tag_226:\n        /* \"#utility.yul\":9337:9476   */\n      swap1\n      pop\n        /* \"#utility.yul\":9064:9483   */\n      swap2\n      swap1\n      pop\n      jump\t// out\n\n    auxdata: 0xa264697066735822122066b69336b14cf917ab381fee00b61d207eb3d03de71c62e455e9d792a053874b64736f6c634300081a0033\n}\n",
				"bytecode": {
					"linkReferences": {},
					"object": "6080604052348015600e575f80fd5b50335f806101000a81548173ffffffffffffffffffffffffffffffffffffffff021916908373ffffffffffffffffffffffffffffffffffffffff160217905550610ad58061005b5f395ff3fe60806040526004361061004d575f3560e01c80632e1a7d4d146100f25780638da5cb5b1461010e578063c7d484c414610138578063df0c032d14610174578063f4dc0d61146101b0576100ee565b366100ee573460015f3373ffffffffffffffffffffffffffffffffffffffff1673ffffffffffffffffffffffffffffffffffffffff1681526020019081526020015f205f82825461009e9190610649565b925050819055506100ec3360015f3373ffffffffffffffffffffffffffffffffffffffff1673ffffffffffffffffffffffffffffffffffffffff1681526020019081526020015f20546101ec565b005b5f80fd5b61010c600480360381019061010791906106aa565b610394565b005b348015610119575f80fd5b5061012261058e565b60405161012f9190610714565b60405180910390f35b348015610143575f80fd5b5061015e600480360381019061015991906106aa565b6105b1565b60405161016b919061074d565b60405180910390f35b34801561017f575f80fd5b5061019a60048036038101906101959190610790565b6105e5565b6040516101a791906107ca565b60405180910390f35b3480156101bb575f80fd5b506101d660048036038101906101d191906106aa565b6105fa565b6040516101e391906107ca565b60405180910390f35b5f5b600381101561038f576005816003811061020b5761020a6107e3565b5b0154821115610382575f600160036102239190610810565b90505b8181111561030f57600560018261023d9190610810565b6003811061024e5761024d6107e3565b5b015460058260038110610264576102636107e3565b5b018190555060026001826102789190610810565b60038110610289576102886107e3565b5b015f9054906101000a900473ffffffffffffffffffffffffffffffffffffffff16600282600381106102be576102bd6107e3565b5b015f6101000a81548173ffffffffffffffffffffffffffffffffffffffff021916908373ffffffffffffffffffffffffffffffffffffffff160217905550808061030790610843565b915050610226565b508160058260038110610325576103246107e3565b5b0181905550826002826003811061033f5761033e6107e3565b5b015f6101000a81548173ffffffffffffffffffffffffffffffffffffffff021916908373ffffffffffffffffffffffffffffffffffffffff16021790555061038f565b80806001019150506101ee565b505050565b7f14cd41f98ad044348b48b9a073e6de9d77dc3e7dc8685b0c8757030f2b075a1c81335f8054906101000a900473ffffffffffffffffffffffffffffffffffffffff166040516103e69392919061091f565b60405180910390a15f8054906101000a900473ffffffffffffffffffffffffffffffffffffffff1673ffffffffffffffffffffffffffffffffffffffff163373ffffffffffffffffffffffffffffffffffffffff161461047b576040517f08c379a0000000000000000000000000000000000000000000000000000000008152600401610472906109b1565b60405180910390fd5b804710156104c25747816040517fcf4791810000000000000000000000000000000000000000000000000000000081526004016104b99291906109cf565b60405180910390fd5b5f805f9054906101000a900473ffffffffffffffffffffffffffffffffffffffff1673ffffffffffffffffffffffffffffffffffffffff168260405161050790610a23565b5f6040518083038185875af1925050503d805f8114610541576040519150601f19603f3d011682016040523d82523d5f602084013e610546565b606091505b505090508061058a576040517f08c379a000000000000000000000000000000000000000000000000000000000815260040161058190610a81565b60405180910390fd5b5050565b5f8054906101000a900473ffffffffffffffffffffffffffffffffffffffff1681565b600281600381106105c0575f80fd5b015f915054906101000a900473ffffffffffffffffffffffffffffffffffffffff1681565b6001602052805f5260405f205f915090505481565b60058160038110610609575f80fd5b015f915090505481565b5f819050919050565b7f4e487b71000000000000000000000000000000000000000000000000000000005f52601160045260245ffd5b5f61065382610613565b915061065e83610613565b92508282019050808211156106765761067561061c565b5b92915050565b5f80fd5b61068981610613565b8114610693575f80fd5b50565b5f813590506106a481610680565b92915050565b5f602082840312156106bf576106be61067c565b5b5f6106cc84828501610696565b91505092915050565b5f73ffffffffffffffffffffffffffffffffffffffff82169050919050565b5f6106fe826106d5565b9050919050565b61070e816106f4565b82525050565b5f6020820190506107275f830184610705565b92915050565b5f610737826106d5565b9050919050565b6107478161072d565b82525050565b5f6020820190506107605f83018461073e565b92915050565b61076f8161072d565b8114610779575f80fd5b50565b5f8135905061078a81610766565b92915050565b5f602082840312156107a5576107a461067c565b5b5f6107b28482850161077c565b91505092915050565b6107c481610613565b82525050565b5f6020820190506107dd5f8301846107bb565b92915050565b7f4e487b71000000000000000000000000000000000000000000000000000000005f52603260045260245ffd5b5f61081a82610613565b915061082583610613565b925082820390508181111561083d5761083c61061c565b5b92915050565b5f61084d82610613565b91505f820361085f5761085e61061c565b5b600182039050919050565b5f82825260208201905092915050565b7f77697468647261770000000000000000000000000000000000000000000000005f82015250565b5f6108ae60088361086a565b91506108b98261087a565b602082019050919050565b5f819050919050565b5f6108e76108e26108dd846106d5565b6108c4565b6106d5565b9050919050565b5f6108f8826108cd565b9050919050565b5f610909826108ee565b9050919050565b610919816108ff565b82525050565b5f6080820190508181035f830152610936816108a2565b905061094560208301866107bb565b610952604083018561073e565b61095f6060830184610910565b949350505050565b7f4e6f7420616e206f776e657200000000000000000000000000000000000000005f82015250565b5f61099b600c8361086a565b91506109a682610967565b602082019050919050565b5f6020820190508181035f8301526109c88161098f565b9050919050565b5f6040820190506109e25f8301856107bb565b6109ef60208301846107bb565b9392505050565b5f81905092915050565b50565b5f610a0e5f836109f6565b9150610a1982610a00565b5f82019050919050565b5f610a2d82610a03565b9150819050919050565b7f5472616e73666572206661696c656400000000000000000000000000000000005f82015250565b5f610a6b600f8361086a565b9150610a7682610a37565b602082019050919050565b5f6020820190508181035f830152610a9881610a5f565b905091905056fea264697066735822122066b69336b14cf917ab381fee00b61d207eb3d03de71c62e455e9d792a053874b64736f6c634300081a0033",
					"opcodes": "PUSH1 0x80 PUSH1 0x40 MSTORE CALLVALUE DUP1 ISZERO PUSH1 0xE JUMPI PUSH0 DUP1 REVERT JUMPDEST POP CALLER PUSH0 DUP1 PUSH2 0x100 EXP DUP2 SLOAD DUP2 PUSH20 0xFFFFFFFFFFFFFFFFFFFFFFFFFFFFFFFFFFFFFFFF MUL NOT AND SWAP1 DUP4 PUSH20 0xFFFFFFFFFFFFFFFFFFFFFFFFFFFFFFFFFFFFFFFF AND MUL OR SWAP1 SSTORE POP PUSH2 0xAD5 DUP1 PUSH2 0x5B PUSH0 CODECOPY PUSH0 RETURN INVALID PUSH1 0x80 PUSH1 0x40 MSTORE PUSH1 0x4 CALLDATASIZE LT PUSH2 0x4D JUMPI PUSH0 CALLDATALOAD PUSH1 0xE0 SHR DUP1 PUSH4 0x2E1A7D4D EQ PUSH2 0xF2 JUMPI DUP1 PUSH4 0x8DA5CB5B EQ PUSH2 0x10E JUMPI DUP1 PUSH4 0xC7D484C4 EQ PUSH2 0x138 JUMPI DUP1 PUSH4 0xDF0C032D EQ PUSH2 0x174 JUMPI DUP1 PUSH4 0xF4DC0D61 EQ PUSH2 0x1B0 JUMPI PUSH2 0xEE JUMP JUMPDEST CALLDATASIZE PUSH2 0xEE JUMPI CALLVALUE PUSH1 0x1 PUSH0 CALLER PUSH20 0xFFFFFFFFFFFFFFFFFFFFFFFFFFFFFFFFFFFFFFFF AND PUSH20 0xFFFFFFFFFFFFFFFFFFFFFFFFFFFFFFFFFFFFFFFF AND DUP2 MSTORE PUSH1 0x20 ADD SWAP1 DUP2 MSTORE PUSH1 0x20 ADD PUSH0 KECCAK256 PUSH0 DUP3 DUP3 SLOAD PUSH2 0x9E SWAP2 SWAP1 PUSH2 0x649 JUMP JUMPDEST SWAP3 POP POP DUP2 SWAP1 SSTORE POP PUSH2 0xEC CALLER PUSH1 0x1 PUSH0 CALLER PUSH20 0xFFFFFFFFFFFFFFFFFFFFFFFFFFFFFFFFFFFFFFFF AND PUSH20 0xFFFFFFFFFFFFFFFFFFFFFFFFFFFFFFFFFFFFFFFF AND DUP2 MSTORE PUSH1 0x20 ADD SWAP1 DUP2 MSTORE PUSH1 0x20 ADD PUSH0 KECCAK256 SLOAD PUSH2 0x1EC JUMP JUMPDEST STOP JUMPDEST PUSH0 DUP1 REVERT JUMPDEST PUSH2 0x10C PUSH1 0x4 DUP1 CALLDATASIZE SUB DUP2 ADD SWAP1 PUSH2 0x107 SWAP2 SWAP1 PUSH2 0x6AA JUMP JUMPDEST PUSH2 0x394 JUMP JUMPDEST STOP JUMPDEST CALLVALUE DUP1 ISZERO PUSH2 0x119 JUMPI PUSH0 DUP1 REVERT JUMPDEST POP PUSH2 0x122 PUSH2 0x58E JUMP JUMPDEST PUSH1 0x40 MLOAD PUSH2 0x12F SWAP2 SWAP1 PUSH2 0x714 JUMP JUMPDEST PUSH1 0x40 MLOAD DUP1 SWAP2 SUB SWAP1 RETURN JUMPDEST CALLVALUE DUP1 ISZERO PUSH2 0x143 JUMPI PUSH0 DUP1 REVERT JUMPDEST POP PUSH2 0x15E PUSH1 0x4 DUP1 CALLDATASIZE SUB DUP2 ADD SWAP1 PUSH2 0x159 SWAP2 SWAP1 PUSH2 0x6AA JUMP JUMPDEST PUSH2 0x5B1 JUMP JUMPDEST PUSH1 0x40 MLOAD PUSH2 0x16B SWAP2 SWAP1 PUSH2 0x74D JUMP JUMPDEST PUSH1 0x40 MLOAD DUP1 SWAP2 SUB SWAP1 RETURN JUMPDEST CALLVALUE DUP1 ISZERO PUSH2 0x17F JUMPI PUSH0 DUP1 REVERT JUMPDEST POP PUSH2 0x19A PUSH1 0x4 DUP1 CALLDATASIZE SUB DUP2 ADD SWAP1 PUSH2 0x195 SWAP2 SWAP1 PUSH2 0x790 JUMP JUMPDEST PUSH2 0x5E5 JUMP JUMPDEST PUSH1 0x40 MLOAD PUSH2 0x1A7 SWAP2 SWAP1 PUSH2 0x7CA JUMP JUMPDEST PUSH1 0x40 MLOAD DUP1 SWAP2 SUB SWAP1 RETURN JUMPDEST CALLVALUE DUP1 ISZERO PUSH2 0x1BB JUMPI PUSH0 DUP1 REVERT JUMPDEST POP PUSH2 0x1D6 PUSH1 0x4 DUP1 CALLDATASIZE SUB DUP2 ADD SWAP1 PUSH2 0x1D1 SWAP2 SWAP1 PUSH2 0x6AA JUMP JUMPDEST PUSH2 0x5FA JUMP JUMPDEST PUSH1 0x40 MLOAD PUSH2 0x1E3 SWAP2 SWAP1 PUSH2 0x7CA JUMP JUMPDEST PUSH1 0x40 MLOAD DUP1 SWAP2 SUB SWAP1 RETURN JUMPDEST PUSH0 JUMPDEST PUSH1 0x3 DUP2 LT ISZERO PUSH2 0x38F JUMPI PUSH1 0x5 DUP2 PUSH1 0x3 DUP2 LT PUSH2 0x20B JUMPI PUSH2 0x20A PUSH2 0x7E3 JUMP JUMPDEST JUMPDEST ADD SLOAD DUP3 GT ISZERO PUSH2 0x382 JUMPI PUSH0 PUSH1 0x1 PUSH1 0x3 PUSH2 0x223 SWAP2 SWAP1 PUSH2 0x810 JUMP JUMPDEST SWAP1 POP JUMPDEST DUP2 DUP2 GT ISZERO PUSH2 0x30F JUMPI PUSH1 0x5 PUSH1 0x1 DUP3 PUSH2 0x23D SWAP2 SWAP1 PUSH2 0x810 JUMP JUMPDEST PUSH1 0x3 DUP2 LT PUSH2 0x24E JUMPI PUSH2 0x24D PUSH2 0x7E3 JUMP JUMPDEST JUMPDEST ADD SLOAD PUSH1 0x5 DUP3 PUSH1 0x3 DUP2 LT PUSH2 0x264 JUMPI PUSH2 0x263 PUSH2 0x7E3 JUMP JUMPDEST JUMPDEST ADD DUP2 SWAP1 SSTORE POP PUSH1 0x2 PUSH1 0x1 DUP3 PUSH2 0x278 SWAP2 SWAP1 PUSH2 0x810 JUMP JUMPDEST PUSH1 0x3 DUP2 LT PUSH2 0x289 JUMPI PUSH2 0x288 PUSH2 0x7E3 JUMP JUMPDEST JUMPDEST ADD PUSH0 SWAP1 SLOAD SWAP1 PUSH2 0x100 EXP SWAP1 DIV PUSH20 0xFFFFFFFFFFFFFFFFFFFFFFFFFFFFFFFFFFFFFFFF AND PUSH1 0x2 DUP3 PUSH1 0x3 DUP2 LT PUSH2 0x2BE JUMPI PUSH2 0x2BD PUSH2 0x7E3 JUMP JUMPDEST JUMPDEST ADD PUSH0 PUSH2 0x100 EXP DUP2 SLOAD DUP2 PUSH20 0xFFFFFFFFFFFFFFFFFFFFFFFFFFFFFFFFFFFFFFFF MUL NOT AND SWAP1 DUP4 PUSH20 0xFFFFFFFFFFFFFFFFFFFFFFFFFFFFFFFFFFFFFFFF AND MUL OR SWAP1 SSTORE POP DUP1 DUP1 PUSH2 0x307 SWAP1 PUSH2 0x843 JUMP JUMPDEST SWAP2 POP POP PUSH2 0x226 JUMP JUMPDEST POP DUP2 PUSH1 0x5 DUP3 PUSH1 0x3 DUP2 LT PUSH2 0x325 JUMPI PUSH2 0x324 PUSH2 0x7E3 JUMP JUMPDEST JUMPDEST ADD DUP2 SWAP1 SSTORE POP DUP3 PUSH1 0x2 DUP3 PUSH1 0x3 DUP2 LT PUSH2 0x33F JUMPI PUSH2 0x33E PUSH2 0x7E3 JUMP JUMPDEST JUMPDEST ADD PUSH0 PUSH2 0x100 EXP DUP2 SLOAD DUP2 PUSH20 0xFFFFFFFFFFFFFFFFFFFFFFFFFFFFFFFFFFFFFFFF MUL NOT AND SWAP1 DUP4 PUSH20 0xFFFFFFFFFFFFFFFFFFFFFFFFFFFFFFFFFFFFFFFF AND MUL OR SWAP1 SSTORE POP PUSH2 0x38F JUMP JUMPDEST DUP1 DUP1 PUSH1 0x1 ADD SWAP2 POP POP PUSH2 0x1EE JUMP JUMPDEST POP POP POP JUMP JUMPDEST PUSH32 0x14CD41F98AD044348B48B9A073E6DE9D77DC3E7DC8685B0C8757030F2B075A1C DUP2 CALLER PUSH0 DUP1 SLOAD SWAP1 PUSH2 0x100 EXP SWAP1 DIV PUSH20 0xFFFFFFFFFFFFFFFFFFFFFFFFFFFFFFFFFFFFFFFF AND PUSH1 0x40 MLOAD PUSH2 0x3E6 SWAP4 SWAP3 SWAP2 SWAP1 PUSH2 0x91F JUMP JUMPDEST PUSH1 0x40 MLOAD DUP1 SWAP2 SUB SWAP1 LOG1 PUSH0 DUP1 SLOAD SWAP1 PUSH2 0x100 EXP SWAP1 DIV PUSH20 0xFFFFFFFFFFFFFFFFFFFFFFFFFFFFFFFFFFFFFFFF AND PUSH20 0xFFFFFFFFFFFFFFFFFFFFFFFFFFFFFFFFFFFFFFFF AND CALLER PUSH20 0xFFFFFFFFFFFFFFFFFFFFFFFFFFFFFFFFFFFFFFFF AND EQ PUSH2 0x47B JUMPI PUSH1 0x40 MLOAD PUSH32 0x8C379A000000000000000000000000000000000000000000000000000000000 DUP2 MSTORE PUSH1 0x4 ADD PUSH2 0x472 SWAP1 PUSH2 0x9B1 JUMP JUMPDEST PUSH1 0x40 MLOAD DUP1 SWAP2 SUB SWAP1 REVERT JUMPDEST DUP1 SELFBALANCE LT ISZERO PUSH2 0x4C2 JUMPI SELFBALANCE DUP2 PUSH1 0x40 MLOAD PUSH32 0xCF47918100000000000000000000000000000000000000000000000000000000 DUP2 MSTORE PUSH1 0x4 ADD PUSH2 0x4B9 SWAP3 SWAP2 SWAP1 PUSH2 0x9CF JUMP JUMPDEST PUSH1 0x40 MLOAD DUP1 SWAP2 SUB SWAP1 REVERT JUMPDEST PUSH0 DUP1 PUSH0 SWAP1 SLOAD SWAP1 PUSH2 0x100 EXP SWAP1 DIV PUSH20 0xFFFFFFFFFFFFFFFFFFFFFFFFFFFFFFFFFFFFFFFF AND PUSH20 0xFFFFFFFFFFFFFFFFFFFFFFFFFFFFFFFFFFFFFFFF AND DUP3 PUSH1 0x40 MLOAD PUSH2 0x507 SWAP1 PUSH2 0xA23 JUMP JUMPDEST PUSH0 PUSH1 0x40 MLOAD DUP1 DUP4 SUB DUP2 DUP6 DUP8 GAS CALL SWAP3 POP POP POP RETURNDATASIZE DUP1 PUSH0 DUP2 EQ PUSH2 0x541 JUMPI PUSH1 0x40 MLOAD SWAP2 POP PUSH1 0x1F NOT PUSH1 0x3F RETURNDATASIZE ADD AND DUP3 ADD PUSH1 0x40 MSTORE RETURNDATASIZE DUP3 MSTORE RETURNDATASIZE PUSH0 PUSH1 0x20 DUP5 ADD RETURNDATACOPY PUSH2 0x546 JUMP JUMPDEST PUSH1 0x60 SWAP2 POP JUMPDEST POP POP SWAP1 POP DUP1 PUSH2 0x58A JUMPI PUSH1 0x40 MLOAD PUSH32 0x8C379A000000000000000000000000000000000000000000000000000000000 DUP2 MSTORE PUSH1 0x4 ADD PUSH2 0x581 SWAP1 PUSH2 0xA81 JUMP JUMPDEST PUSH1 0x40 MLOAD DUP1 SWAP2 SUB SWAP1 REVERT JUMPDEST POP POP JUMP JUMPDEST PUSH0 DUP1 SLOAD SWAP1 PUSH2 0x100 EXP SWAP1 DIV PUSH20 0xFFFFFFFFFFFFFFFFFFFFFFFFFFFFFFFFFFFFFFFF AND DUP2 JUMP JUMPDEST PUSH1 0x2 DUP2 PUSH1 0x3 DUP2 LT PUSH2 0x5C0 JUMPI PUSH0 DUP1 REVERT JUMPDEST ADD PUSH0 SWAP2 POP SLOAD SWAP1 PUSH2 0x100 EXP SWAP1 DIV PUSH20 0xFFFFFFFFFFFFFFFFFFFFFFFFFFFFFFFFFFFFFFFF AND DUP2 JUMP JUMPDEST PUSH1 0x1 PUSH1 0x20 MSTORE DUP1 PUSH0 MSTORE PUSH1 0x40 PUSH0 KECCAK256 PUSH0 SWAP2 POP SWAP1 POP SLOAD DUP2 JUMP JUMPDEST PUSH1 0x5 DUP2 PUSH1 0x3 DUP2 LT PUSH2 0x609 JUMPI PUSH0 DUP1 REVERT JUMPDEST ADD PUSH0 SWAP2 POP SWAP1 POP SLOAD DUP2 JUMP JUMPDEST PUSH0 DUP2 SWAP1 POP SWAP2 SWAP1 POP JUMP JUMPDEST PUSH32 0x4E487B7100000000000000000000000000000000000000000000000000000000 PUSH0 MSTORE PUSH1 0x11 PUSH1 0x4 MSTORE PUSH1 0x24 PUSH0 REVERT JUMPDEST PUSH0 PUSH2 0x653 DUP3 PUSH2 0x613 JUMP JUMPDEST SWAP2 POP PUSH2 0x65E DUP4 PUSH2 0x613 JUMP JUMPDEST SWAP3 POP DUP3 DUP3 ADD SWAP1 POP DUP1 DUP3 GT ISZERO PUSH2 0x676 JUMPI PUSH2 0x675 PUSH2 0x61C JUMP JUMPDEST JUMPDEST SWAP3 SWAP2 POP POP JUMP JUMPDEST PUSH0 DUP1 REVERT JUMPDEST PUSH2 0x689 DUP2 PUSH2 0x613 JUMP JUMPDEST DUP2 EQ PUSH2 0x693 JUMPI PUSH0 DUP1 REVERT JUMPDEST POP JUMP JUMPDEST PUSH0 DUP2 CALLDATALOAD SWAP1 POP PUSH2 0x6A4 DUP2 PUSH2 0x680 JUMP JUMPDEST SWAP3 SWAP2 POP POP JUMP JUMPDEST PUSH0 PUSH1 0x20 DUP3 DUP5 SUB SLT ISZERO PUSH2 0x6BF JUMPI PUSH2 0x6BE PUSH2 0x67C JUMP JUMPDEST JUMPDEST PUSH0 PUSH2 0x6CC DUP5 DUP3 DUP6 ADD PUSH2 0x696 JUMP JUMPDEST SWAP2 POP POP SWAP3 SWAP2 POP POP JUMP JUMPDEST PUSH0 PUSH20 0xFFFFFFFFFFFFFFFFFFFFFFFFFFFFFFFFFFFFFFFF DUP3 AND SWAP1 POP SWAP2 SWAP1 POP JUMP JUMPDEST PUSH0 PUSH2 0x6FE DUP3 PUSH2 0x6D5 JUMP JUMPDEST SWAP1 POP SWAP2 SWAP1 POP JUMP JUMPDEST PUSH2 0x70E DUP2 PUSH2 0x6F4 JUMP JUMPDEST DUP3 MSTORE POP POP JUMP JUMPDEST PUSH0 PUSH1 0x20 DUP3 ADD SWAP1 POP PUSH2 0x727 PUSH0 DUP4 ADD DUP5 PUSH2 0x705 JUMP JUMPDEST SWAP3 SWAP2 POP POP JUMP JUMPDEST PUSH0 PUSH2 0x737 DUP3 PUSH2 0x6D5 JUMP JUMPDEST SWAP1 POP SWAP2 SWAP1 POP JUMP JUMPDEST PUSH2 0x747 DUP2 PUSH2 0x72D JUMP JUMPDEST DUP3 MSTORE POP POP JUMP JUMPDEST PUSH0 PUSH1 0x20 DUP3 ADD SWAP1 POP PUSH2 0x760 PUSH0 DUP4 ADD DUP5 PUSH2 0x73E JUMP JUMPDEST SWAP3 SWAP2 POP POP JUMP JUMPDEST PUSH2 0x76F DUP2 PUSH2 0x72D JUMP JUMPDEST DUP2 EQ PUSH2 0x779 JUMPI PUSH0 DUP1 REVERT JUMPDEST POP JUMP JUMPDEST PUSH0 DUP2 CALLDATALOAD SWAP1 POP PUSH2 0x78A DUP2 PUSH2 0x766 JUMP JUMPDEST SWAP3 SWAP2 POP POP JUMP JUMPDEST PUSH0 PUSH1 0x20 DUP3 DUP5 SUB SLT ISZERO PUSH2 0x7A5 JUMPI PUSH2 0x7A4 PUSH2 0x67C JUMP JUMPDEST JUMPDEST PUSH0 PUSH2 0x7B2 DUP5 DUP3 DUP6 ADD PUSH2 0x77C JUMP JUMPDEST SWAP2 POP POP SWAP3 SWAP2 POP POP JUMP JUMPDEST PUSH2 0x7C4 DUP2 PUSH2 0x613 JUMP JUMPDEST DUP3 MSTORE POP POP JUMP JUMPDEST PUSH0 PUSH1 0x20 DUP3 ADD SWAP1 POP PUSH2 0x7DD PUSH0 DUP4 ADD DUP5 PUSH2 0x7BB JUMP JUMPDEST SWAP3 SWAP2 POP POP JUMP JUMPDEST PUSH32 0x4E487B7100000000000000000000000000000000000000000000000000000000 PUSH0 MSTORE PUSH1 0x32 PUSH1 0x4 MSTORE PUSH1 0x24 PUSH0 REVERT JUMPDEST PUSH0 PUSH2 0x81A DUP3 PUSH2 0x613 JUMP JUMPDEST SWAP2 POP PUSH2 0x825 DUP4 PUSH2 0x613 JUMP JUMPDEST SWAP3 POP DUP3 DUP3 SUB SWAP1 POP DUP2 DUP2 GT ISZERO PUSH2 0x83D JUMPI PUSH2 0x83C PUSH2 0x61C JUMP JUMPDEST JUMPDEST SWAP3 SWAP2 POP POP JUMP JUMPDEST PUSH0 PUSH2 0x84D DUP3 PUSH2 0x613 JUMP JUMPDEST SWAP2 POP PUSH0 DUP3 SUB PUSH2 0x85F JUMPI PUSH2 0x85E PUSH2 0x61C JUMP JUMPDEST JUMPDEST PUSH1 0x1 DUP3 SUB SWAP1 POP SWAP2 SWAP1 POP JUMP JUMPDEST PUSH0 DUP3 DUP3 MSTORE PUSH1 0x20 DUP3 ADD SWAP1 POP SWAP3 SWAP2 POP POP JUMP JUMPDEST PUSH32 0x7769746864726177000000000000000000000000000000000000000000000000 PUSH0 DUP3 ADD MSTORE POP JUMP JUMPDEST PUSH0 PUSH2 0x8AE PUSH1 0x8 DUP4 PUSH2 0x86A JUMP JUMPDEST SWAP2 POP PUSH2 0x8B9 DUP3 PUSH2 0x87A JUMP JUMPDEST PUSH1 0x20 DUP3 ADD SWAP1 POP SWAP2 SWAP1 POP JUMP JUMPDEST PUSH0 DUP2 SWAP1 POP SWAP2 SWAP1 POP JUMP JUMPDEST PUSH0 PUSH2 0x8E7 PUSH2 0x8E2 PUSH2 0x8DD DUP5 PUSH2 0x6D5 JUMP JUMPDEST PUSH2 0x8C4 JUMP JUMPDEST PUSH2 0x6D5 JUMP JUMPDEST SWAP1 POP SWAP2 SWAP1 POP JUMP JUMPDEST PUSH0 PUSH2 0x8F8 DUP3 PUSH2 0x8CD JUMP JUMPDEST SWAP1 POP SWAP2 SWAP1 POP JUMP JUMPDEST PUSH0 PUSH2 0x909 DUP3 PUSH2 0x8EE JUMP JUMPDEST SWAP1 POP SWAP2 SWAP1 POP JUMP JUMPDEST PUSH2 0x919 DUP2 PUSH2 0x8FF JUMP JUMPDEST DUP3 MSTORE POP POP JUMP JUMPDEST PUSH0 PUSH1 0x80 DUP3 ADD SWAP1 POP DUP2 DUP2 SUB PUSH0 DUP4 ADD MSTORE PUSH2 0x936 DUP2 PUSH2 0x8A2 JUMP JUMPDEST SWAP1 POP PUSH2 0x945 PUSH1 0x20 DUP4 ADD DUP7 PUSH2 0x7BB JUMP JUMPDEST PUSH2 0x952 PUSH1 0x40 DUP4 ADD DUP6 PUSH2 0x73E JUMP JUMPDEST PUSH2 0x95F PUSH1 0x60 DUP4 ADD DUP5 PUSH2 0x910 JUMP JUMPDEST SWAP5 SWAP4 POP POP POP POP JUMP JUMPDEST PUSH32 0x4E6F7420616E206F776E65720000000000000000000000000000000000000000 PUSH0 DUP3 ADD MSTORE POP JUMP JUMPDEST PUSH0 PUSH2 0x99B PUSH1 0xC DUP4 PUSH2 0x86A JUMP JUMPDEST SWAP2 POP PUSH2 0x9A6 DUP3 PUSH2 0x967 JUMP JUMPDEST PUSH1 0x20 DUP3 ADD SWAP1 POP SWAP2 SWAP1 POP JUMP JUMPDEST PUSH0 PUSH1 0x20 DUP3 ADD SWAP1 POP DUP2 DUP2 SUB PUSH0 DUP4 ADD MSTORE PUSH2 0x9C8 DUP2 PUSH2 0x98F JUMP JUMPDEST SWAP1 POP SWAP2 SWAP1 POP JUMP JUMPDEST PUSH0 PUSH1 0x40 DUP3 ADD SWAP1 POP PUSH2 0x9E2 PUSH0 DUP4 ADD DUP6 PUSH2 0x7BB JUMP JUMPDEST PUSH2 0x9EF PUSH1 0x20 DUP4 ADD DUP5 PUSH2 0x7BB JUMP JUMPDEST SWAP4 SWAP3 POP POP POP JUMP JUMPDEST PUSH0 DUP2 SWAP1 POP SWAP3 SWAP2 POP POP JUMP JUMPDEST POP JUMP JUMPDEST PUSH0 PUSH2 0xA0E PUSH0 DUP4 PUSH2 0x9F6 JUMP JUMPDEST SWAP2 POP PUSH2 0xA19 DUP3 PUSH2 0xA00 JUMP JUMPDEST PUSH0 DUP3 ADD SWAP1 POP SWAP2 SWAP1 POP JUMP JUMPDEST PUSH0 PUSH2 0xA2D DUP3 PUSH2 0xA03 JUMP JUMPDEST SWAP2 POP DUP2 SWAP1 POP SWAP2 SWAP1 POP JUMP JUMPDEST PUSH32 0x5472616E73666572206661696C65640000000000000000000000000000000000 PUSH0 DUP3 ADD MSTORE POP JUMP JUMPDEST PUSH0 PUSH2 0xA6B PUSH1 0xF DUP4 PUSH2 0x86A JUMP JUMPDEST SWAP2 POP PUSH2 0xA76 DUP3 PUSH2 0xA37 JUMP JUMPDEST PUSH1 0x20 DUP3 ADD SWAP1 POP SWAP2 SWAP1 POP JUMP JUMPDEST PUSH0 PUSH1 0x20 DUP3 ADD SWAP1 POP DUP2 DUP2 SUB PUSH0 DUP4 ADD MSTORE PUSH2 0xA98 DUP2 PUSH2 0xA5F JUMP JUMPDEST SWAP1 POP SWAP2 SWAP1 POP JUMP INVALID LOG2 PUSH5 0x6970667358 0x22 SLT KECCAK256 PUSH7 0xB69336B14CF917 0xAB CODESIZE 0x1F 0xEE STOP 0xB6 SAR KECCAK256 PUSH31 0xB3D03DE71C62E455E9D792A053874B64736F6C634300081A00330000000000 "
				},
				"gasEstimates": {
					"creation": {
						"codeDepositCost": "554600",
						"executionCost": "24850",
						"totalCost": "579450"
					},
					"external": {
						"balance_map(address)": "2846",
						"owner()": "2505",
						"top3Address(uint256)": "2817",
						"top3Balance(uint256)": "infinite",
						"withdraw(uint256)": "infinite"
					},
					"internal": {
						"updateTop3Account(address,uint256)": "infinite"
					}
				},
				"methodIdentifiers": {
					"balance_map(address)": "df0c032d",
					"owner()": "8da5cb5b",
					"top3Address(uint256)": "c7d484c4",
					"top3Balance(uint256)": "f4dc0d61",
					"withdraw(uint256)": "2e1a7d4d"
				}
			},
			"storageLayout": {
				"storage": [
					{
						"astId": 21,
						"contract": "w1d4/Bank.sol:Bank",
						"label": "owner",
						"offset": 0,
						"slot": "0",
						"type": "t_address_payable"
					},
					{
						"astId": 25,
						"contract": "w1d4/Bank.sol:Bank",
						"label": "balance_map",
						"offset": 0,
						"slot": "1",
						"type": "t_mapping(t_address,t_uint256)"
					},
					{
						"astId": 29,
						"contract": "w1d4/Bank.sol:Bank",
						"label": "top3Address",
						"offset": 0,
						"slot": "2",
						"type": "t_array(t_address)3_storage"
					},
					{
						"astId": 33,
						"contract": "w1d4/Bank.sol:Bank",
						"label": "top3Balance",
						"offset": 0,
						"slot": "5",
						"type": "t_array(t_uint256)3_storage"
					}
				],
				"types": {
					"t_address": {
						"encoding": "inplace",
						"label": "address",
						"numberOfBytes": "20"
					},
					"t_address_payable": {
						"encoding": "inplace",
						"label": "address payable",
						"numberOfBytes": "20"
					},
					"t_array(t_address)3_storage": {
						"base": "t_address",
						"encoding": "inplace",
						"label": "address[3]",
						"numberOfBytes": "96"
					},
					"t_array(t_uint256)3_storage": {
						"base": "t_uint256",
						"encoding": "inplace",
						"label": "uint256[3]",
						"numberOfBytes": "96"
					},
					"t_mapping(t_address,t_uint256)": {
						"encoding": "mapping",
						"key": "t_address",
						"label": "mapping(address => uint256)",
						"numberOfBytes": "32",
						"value": "t_uint256"
					},
					"t_uint256": {
						"encoding": "inplace",
						"label": "uint256",
						"numberOfBytes": "32"
					}
				}
			},
			"userdoc": {
				"kind": "user",
				"methods": {},
				"version": 1
			}
		}
	}
}