{
	"w1d5/BaseERC20.sol": {
		"TokenBank": {
			"abi": [
				{
					"inputs": [
						{
							"internalType": "address",
							"name": "_tokenAddress",
							"type": "address"
						}
					],
					"stateMutability": "nonpayable",
					"type": "constructor"
				},
				{
					"inputs": [
						{
							"internalType": "address",
							"name": "",
							"type": "address"
						}
					],
					"name": "balances",
					"outputs": [
						{
							"internalType": "uint256",
							"name": "",
							"type": "uint256"
						}
					],
					"stateMutability": "view",
					"type": "function"
				},
				{
					"inputs": [
						{
							"internalType": "uint256",
							"name": "_amount",
							"type": "uint256"
						}
					],
					"name": "deposit",
					"outputs": [],
					"stateMutability": "nonpayable",
					"type": "function"
				},
				{
					"inputs": [
						{
							"internalType": "address",
							"name": "_user",
							"type": "address"
						}
					],
					"name": "getBalance",
					"outputs": [
						{
							"internalType": "uint256",
							"name": "",
							"type": "uint256"
						}
					],
					"stateMutability": "view",
					"type": "function"
				},
				{
					"inputs": [],
					"name": "token",
					"outputs": [
						{
							"internalType": "contract BaseERC20",
							"name": "",
							"type": "address"
						}
					],
					"stateMutability": "view",
					"type": "function"
				},
				{
					"inputs": [
						{
							"internalType": "uint256",
							"name": "_amount",
							"type": "uint256"
						}
					],
					"name": "withdraw",
					"outputs": [],
					"stateMutability": "payable",
					"type": "function"
				}
			],
			"devdoc": {
				"kind": "dev",
				"methods": {
					"getBalance(address)": {
						"params": {
							"_user": "address 用户地址"
						}
					}
				},
				"version": 1
			},
			"evm": {
				"assembly": "    /* \"w1d5/BaseERC20.sol\":4433:5879  contract TokenBank {... */\n  mstore(0x40, 0x80)\n    /* \"w1d5/BaseERC20.sol\":4627:4791  constructor(address _tokenAddress){... */\n  callvalue\n  dup1\n  iszero\n  tag_1\n  jumpi\n  0x00\n  dup1\n  revert\ntag_1:\n  pop\n  mload(0x40)\n  sub(codesize, bytecodeSize)\n  dup1\n  bytecodeSize\n  dup4\n  codecopy\n  dup2\n  dup2\n  add\n  0x40\n  mstore\n  dup2\n  add\n  swap1\n  tag_2\n  swap2\n  swap1\n  tag_3\n  jump\t// in\ntag_2:\n    /* \"w1d5/BaseERC20.sol\":4705:4706  0 */\n  0x00\n    /* \"w1d5/BaseERC20.sol\":4680:4707  _tokenAddress != address(0) */\n  0xffffffffffffffffffffffffffffffffffffffff\n  and\n    /* \"w1d5/BaseERC20.sol\":4680:4693  _tokenAddress */\n  dup2\n    /* \"w1d5/BaseERC20.sol\":4680:4707  _tokenAddress != address(0) */\n  0xffffffffffffffffffffffffffffffffffffffff\n  and\n  sub\n    /* \"w1d5/BaseERC20.sol\":4672:4740  require(_tokenAddress != address(0), \"Token address cannot be zero\") */\n  tag_6\n  jumpi\n  mload(0x40)\n  0x08c379a000000000000000000000000000000000000000000000000000000000\n  dup2\n  mstore\n  0x04\n  add\n  tag_7\n  swap1\n  tag_8\n  jump\t// in\ntag_7:\n  mload(0x40)\n  dup1\n  swap2\n  sub\n  swap1\n  revert\ntag_6:\n    /* \"w1d5/BaseERC20.sol\":4769:4782  _tokenAddress */\n  dup1\n    /* \"w1d5/BaseERC20.sol\":4751:4756  token */\n  0x00\n  dup1\n    /* \"w1d5/BaseERC20.sol\":4751:4783  token = BaseERC20(_tokenAddress) */\n  0x0100\n  exp\n  dup2\n  sload\n  dup2\n  0xffffffffffffffffffffffffffffffffffffffff\n  mul\n  not\n  and\n  swap1\n  dup4\n  0xffffffffffffffffffffffffffffffffffffffff\n  and\n  mul\n  or\n  swap1\n  sstore\n  pop\n    /* \"w1d5/BaseERC20.sol\":4627:4791  constructor(address _tokenAddress){... */\n  pop\n    /* \"w1d5/BaseERC20.sol\":4433:5879  contract TokenBank {... */\n  jump(tag_9)\n    /* \"#utility.yul\":88:205   */\ntag_11:\n    /* \"#utility.yul\":197:198   */\n  0x00\n    /* \"#utility.yul\":194:195   */\n  dup1\n    /* \"#utility.yul\":187:199   */\n  revert\n    /* \"#utility.yul\":334:460   */\ntag_13:\n    /* \"#utility.yul\":371:378   */\n  0x00\n    /* \"#utility.yul\":411:453   */\n  0xffffffffffffffffffffffffffffffffffffffff\n    /* \"#utility.yul\":404:409   */\n  dup3\n    /* \"#utility.yul\":400:454   */\n  and\n    /* \"#utility.yul\":389:454   */\n  swap1\n  pop\n    /* \"#utility.yul\":334:460   */\n  swap2\n  swap1\n  pop\n  jump\t// out\n    /* \"#utility.yul\":466:562   */\ntag_14:\n    /* \"#utility.yul\":503:510   */\n  0x00\n    /* \"#utility.yul\":532:556   */\n  tag_26\n    /* \"#utility.yul\":550:555   */\n  dup3\n    /* \"#utility.yul\":532:556   */\n  tag_13\n  jump\t// in\ntag_26:\n    /* \"#utility.yul\":521:556   */\n  swap1\n  pop\n    /* \"#utility.yul\":466:562   */\n  swap2\n  swap1\n  pop\n  jump\t// out\n    /* \"#utility.yul\":568:690   */\ntag_15:\n    /* \"#utility.yul\":641:665   */\n  tag_28\n    /* \"#utility.yul\":659:664   */\n  dup2\n    /* \"#utility.yul\":641:665   */\n  tag_14\n  jump\t// in\ntag_28:\n    /* \"#utility.yul\":634:639   */\n  dup2\n    /* \"#utility.yul\":631:666   */\n  eq\n    /* \"#utility.yul\":621:684   */\n  tag_29\n  jumpi\n    /* \"#utility.yul\":680:681   */\n  0x00\n    /* \"#utility.yul\":677:678   */\n  dup1\n    /* \"#utility.yul\":670:682   */\n  revert\n    /* \"#utility.yul\":621:684   */\ntag_29:\n    /* \"#utility.yul\":568:690   */\n  pop\n  jump\t// out\n    /* \"#utility.yul\":696:839   */\ntag_16:\n    /* \"#utility.yul\":753:758   */\n  0x00\n    /* \"#utility.yul\":784:790   */\n  dup2\n    /* \"#utility.yul\":778:791   */\n  mload\n    /* \"#utility.yul\":769:791   */\n  swap1\n  pop\n    /* \"#utility.yul\":800:833   */\n  tag_31\n    /* \"#utility.yul\":827:832   */\n  dup2\n    /* \"#utility.yul\":800:833   */\n  tag_15\n  jump\t// in\ntag_31:\n    /* \"#utility.yul\":696:839   */\n  swap3\n  swap2\n  pop\n  pop\n  jump\t// out\n    /* \"#utility.yul\":845:1196   */\ntag_3:\n    /* \"#utility.yul\":915:921   */\n  0x00\n    /* \"#utility.yul\":964:966   */\n  0x20\n    /* \"#utility.yul\":952:961   */\n  dup3\n    /* \"#utility.yul\":943:950   */\n  dup5\n    /* \"#utility.yul\":939:962   */\n  sub\n    /* \"#utility.yul\":935:967   */\n  slt\n    /* \"#utility.yul\":932:1051   */\n  iszero\n  tag_33\n  jumpi\n    /* \"#utility.yul\":970:1049   */\n  tag_34\n  tag_11\n  jump\t// in\ntag_34:\n    /* \"#utility.yul\":932:1051   */\ntag_33:\n    /* \"#utility.yul\":1090:1091   */\n  0x00\n    /* \"#utility.yul\":1115:1179   */\n  tag_35\n    /* \"#utility.yul\":1171:1178   */\n  dup5\n    /* \"#utility.yul\":1162:1168   */\n  dup3\n    /* \"#utility.yul\":1151:1160   */\n  dup6\n    /* \"#utility.yul\":1147:1169   */\n  add\n    /* \"#utility.yul\":1115:1179   */\n  tag_16\n  jump\t// in\ntag_35:\n    /* \"#utility.yul\":1105:1179   */\n  swap2\n  pop\n    /* \"#utility.yul\":1061:1189   */\n  pop\n    /* \"#utility.yul\":845:1196   */\n  swap3\n  swap2\n  pop\n  pop\n  jump\t// out\n    /* \"#utility.yul\":1202:1371   */\ntag_17:\n    /* \"#utility.yul\":1286:1297   */\n  0x00\n    /* \"#utility.yul\":1320:1326   */\n  dup3\n    /* \"#utility.yul\":1315:1318   */\n  dup3\n    /* \"#utility.yul\":1308:1327   */\n  mstore\n    /* \"#utility.yul\":1360:1364   */\n  0x20\n    /* \"#utility.yul\":1355:1358   */\n  dup3\n    /* \"#utility.yul\":1351:1365   */\n  add\n    /* \"#utility.yul\":1336:1365   */\n  swap1\n  pop\n    /* \"#utility.yul\":1202:1371   */\n  swap3\n  swap2\n  pop\n  pop\n  jump\t// out\n    /* \"#utility.yul\":1377:1555   */\ntag_18:\n    /* \"#utility.yul\":1517:1547   */\n  0x546f6b656e20616464726573732063616e6e6f74206265207a65726f00000000\n    /* \"#utility.yul\":1513:1514   */\n  0x00\n    /* \"#utility.yul\":1505:1511   */\n  dup3\n    /* \"#utility.yul\":1501:1515   */\n  add\n    /* \"#utility.yul\":1494:1548   */\n  mstore\n    /* \"#utility.yul\":1377:1555   */\n  pop\n  jump\t// out\n    /* \"#utility.yul\":1561:1927   */\ntag_19:\n    /* \"#utility.yul\":1703:1706   */\n  0x00\n    /* \"#utility.yul\":1724:1791   */\n  tag_39\n    /* \"#utility.yul\":1788:1790   */\n  0x1c\n    /* \"#utility.yul\":1783:1786   */\n  dup4\n    /* \"#utility.yul\":1724:1791   */\n  tag_17\n  jump\t// in\ntag_39:\n    /* \"#utility.yul\":1717:1791   */\n  swap2\n  pop\n    /* \"#utility.yul\":1800:1893   */\n  tag_40\n    /* \"#utility.yul\":1889:1892   */\n  dup3\n    /* \"#utility.yul\":1800:1893   */\n  tag_18\n  jump\t// in\ntag_40:\n    /* \"#utility.yul\":1918:1920   */\n  0x20\n    /* \"#utility.yul\":1913:1916   */\n  dup3\n    /* \"#utility.yul\":1909:1921   */\n  add\n    /* \"#utility.yul\":1902:1921   */\n  swap1\n  pop\n    /* \"#utility.yul\":1561:1927   */\n  swap2\n  swap1\n  pop\n  jump\t// out\n    /* \"#utility.yul\":1933:2352   */\ntag_8:\n    /* \"#utility.yul\":2099:2103   */\n  0x00\n    /* \"#utility.yul\":2137:2139   */\n  0x20\n    /* \"#utility.yul\":2126:2135   */\n  dup3\n    /* \"#utility.yul\":2122:2140   */\n  add\n    /* \"#utility.yul\":2114:2140   */\n  swap1\n  pop\n    /* \"#utility.yul\":2186:2195   */\n  dup2\n    /* \"#utility.yul\":2180:2184   */\n  dup2\n    /* \"#utility.yul\":2176:2196   */\n  sub\n    /* \"#utility.yul\":2172:2173   */\n  0x00\n    /* \"#utility.yul\":2161:2170   */\n  dup4\n    /* \"#utility.yul\":2157:2174   */\n  add\n    /* \"#utility.yul\":2150:2197   */\n  mstore\n    /* \"#utility.yul\":2214:2345   */\n  tag_42\n    /* \"#utility.yul\":2340:2344   */\n  dup2\n    /* \"#utility.yul\":2214:2345   */\n  tag_19\n  jump\t// in\ntag_42:\n    /* \"#utility.yul\":2206:2345   */\n  swap1\n  pop\n    /* \"#utility.yul\":1933:2352   */\n  swap2\n  swap1\n  pop\n  jump\t// out\n    /* \"w1d5/BaseERC20.sol\":4433:5879  contract TokenBank {... */\ntag_9:\n  dataSize(sub_0)\n  dup1\n  dataOffset(sub_0)\n  0x00\n  codecopy\n  0x00\n  return\nstop\n\nsub_0: assembly {\n        /* \"w1d5/BaseERC20.sol\":4433:5879  contract TokenBank {... */\n      mstore(0x40, 0x80)\n      jumpi(tag_1, lt(calldatasize, 0x04))\n      shr(0xe0, calldataload(0x00))\n      dup1\n      0x27e235e3\n      eq\n      tag_2\n      jumpi\n      dup1\n      0x2e1a7d4d\n      eq\n      tag_3\n      jumpi\n      dup1\n      0xb6b55f25\n      eq\n      tag_4\n      jumpi\n      dup1\n      0xf8b2cb4f\n      eq\n      tag_5\n      jumpi\n      dup1\n      0xfc0c546a\n      eq\n      tag_6\n      jumpi\n    tag_1:\n      0x00\n      dup1\n      revert\n        /* \"w1d5/BaseERC20.sol\":4574:4618  mapping (address => uint256) public balances */\n    tag_2:\n      callvalue\n      dup1\n      iszero\n      tag_7\n      jumpi\n      0x00\n      dup1\n      revert\n    tag_7:\n      pop\n      tag_8\n      0x04\n      dup1\n      calldatasize\n      sub\n      dup2\n      add\n      swap1\n      tag_9\n      swap2\n      swap1\n      tag_10\n      jump\t// in\n    tag_9:\n      tag_11\n      jump\t// in\n    tag_8:\n      mload(0x40)\n      tag_12\n      swap2\n      swap1\n      tag_13\n      jump\t// in\n    tag_12:\n      mload(0x40)\n      dup1\n      swap2\n      sub\n      swap1\n      return\n        /* \"w1d5/BaseERC20.sol\":5187:5652  function withdraw(uint256 _amount) public payable {... */\n    tag_3:\n      tag_14\n      0x04\n      dup1\n      calldatasize\n      sub\n      dup2\n      add\n      swap1\n      tag_15\n      swap2\n      swap1\n      tag_16\n      jump\t// in\n    tag_15:\n      tag_17\n      jump\t// in\n    tag_14:\n      stop\n        /* \"w1d5/BaseERC20.sol\":4819:5132  function deposit(uint _amount) public {... */\n    tag_4:\n      callvalue\n      dup1\n      iszero\n      tag_18\n      jumpi\n      0x00\n      dup1\n      revert\n    tag_18:\n      pop\n      tag_19\n      0x04\n      dup1\n      calldatasize\n      sub\n      dup2\n      add\n      swap1\n      tag_20\n      swap2\n      swap1\n      tag_16\n      jump\t// in\n    tag_20:\n      tag_21\n      jump\t// in\n    tag_19:\n      stop\n        /* \"w1d5/BaseERC20.sol\":5771:5876  function getBalance(address _user) public view returns (uint256){... */\n    tag_5:\n      callvalue\n      dup1\n      iszero\n      tag_22\n      jumpi\n      0x00\n      dup1\n      revert\n    tag_22:\n      pop\n      tag_23\n      0x04\n      dup1\n      calldatasize\n      sub\n      dup2\n      add\n      swap1\n      tag_24\n      swap2\n      swap1\n      tag_10\n      jump\t// in\n    tag_24:\n      tag_25\n      jump\t// in\n    tag_23:\n      mload(0x40)\n      tag_26\n      swap2\n      swap1\n      tag_13\n      jump\t// in\n    tag_26:\n      mload(0x40)\n      dup1\n      swap2\n      sub\n      swap1\n      return\n        /* \"w1d5/BaseERC20.sol\":4504:4526  BaseERC20 public token */\n    tag_6:\n      callvalue\n      dup1\n      iszero\n      tag_27\n      jumpi\n      0x00\n      dup1\n      revert\n    tag_27:\n      pop\n      tag_28\n      tag_29\n      jump\t// in\n    tag_28:\n      mload(0x40)\n      tag_30\n      swap2\n      swap1\n      tag_31\n      jump\t// in\n    tag_30:\n      mload(0x40)\n      dup1\n      swap2\n      sub\n      swap1\n      return\n        /* \"w1d5/BaseERC20.sol\":4574:4618  mapping (address => uint256) public balances */\n    tag_11:\n      mstore(0x20, 0x01)\n      dup1\n      0x00\n      mstore\n      keccak256(0x00, 0x40)\n      0x00\n      swap2\n      pop\n      swap1\n      pop\n      sload\n      dup2\n      jump\t// out\n        /* \"w1d5/BaseERC20.sol\":5187:5652  function withdraw(uint256 _amount) public payable {... */\n    tag_17:\n        /* \"w1d5/BaseERC20.sol\":5266:5267  0 */\n      0x00\n        /* \"w1d5/BaseERC20.sol\":5256:5263  _amount */\n      dup2\n        /* \"w1d5/BaseERC20.sol\":5256:5267  _amount > 0 */\n      gt\n        /* \"w1d5/BaseERC20.sol\":5248:5315  require(_amount > 0, \"Withdraw amount must be greater than zero !\") */\n      tag_33\n      jumpi\n      mload(0x40)\n      0x08c379a000000000000000000000000000000000000000000000000000000000\n      dup2\n      mstore\n      0x04\n      add\n      tag_34\n      swap1\n      tag_35\n      jump\t// in\n    tag_34:\n      mload(0x40)\n      dup1\n      swap2\n      sub\n      swap1\n      revert\n    tag_33:\n        /* \"w1d5/BaseERC20.sol\":5357:5364  _amount */\n      dup1\n        /* \"w1d5/BaseERC20.sol\":5334:5342  balances */\n      0x01\n        /* \"w1d5/BaseERC20.sol\":5334:5354  balances[msg.sender] */\n      0x00\n        /* \"w1d5/BaseERC20.sol\":5343:5353  msg.sender */\n      caller\n        /* \"w1d5/BaseERC20.sol\":5334:5354  balances[msg.sender] */\n      0xffffffffffffffffffffffffffffffffffffffff\n      and\n      0xffffffffffffffffffffffffffffffffffffffff\n      and\n      dup2\n      mstore\n      0x20\n      add\n      swap1\n      dup2\n      mstore\n      0x20\n      add\n      0x00\n      keccak256\n      sload\n        /* \"w1d5/BaseERC20.sol\":5334:5364  balances[msg.sender] > _amount */\n      gt\n        /* \"w1d5/BaseERC20.sol\":5326:5397  require(balances[msg.sender] > _amount, \"Insufficient balance in bank\") */\n      tag_36\n      jumpi\n      mload(0x40)\n      0x08c379a000000000000000000000000000000000000000000000000000000000\n      dup2\n      mstore\n      0x04\n      add\n      tag_37\n      swap1\n      tag_38\n      jump\t// in\n    tag_37:\n      mload(0x40)\n      dup1\n      swap2\n      sub\n      swap1\n      revert\n    tag_36:\n        /* \"w1d5/BaseERC20.sol\":5469:5476  _amount */\n      dup1\n        /* \"w1d5/BaseERC20.sol\":5445:5453  balances */\n      0x01\n        /* \"w1d5/BaseERC20.sol\":5445:5465  balances[msg.sender] */\n      0x00\n        /* \"w1d5/BaseERC20.sol\":5454:5464  msg.sender */\n      caller\n        /* \"w1d5/BaseERC20.sol\":5445:5465  balances[msg.sender] */\n      0xffffffffffffffffffffffffffffffffffffffff\n      and\n      0xffffffffffffffffffffffffffffffffffffffff\n      and\n      dup2\n      mstore\n      0x20\n      add\n      swap1\n      dup2\n      mstore\n      0x20\n      add\n      0x00\n      keccak256\n      0x00\n        /* \"w1d5/BaseERC20.sol\":5445:5476  balances[msg.sender] -= _amount */\n      dup3\n      dup3\n      sload\n      tag_39\n      swap2\n      swap1\n      tag_40\n      jump\t// in\n    tag_39:\n      swap3\n      pop\n      pop\n      dup2\n      swap1\n      sstore\n      pop\n        /* \"w1d5/BaseERC20.sol\":5542:5554  bool success */\n      0x00\n        /* \"w1d5/BaseERC20.sol\":5557:5562  token */\n      dup1\n      0x00\n      swap1\n      sload\n      swap1\n      0x0100\n      exp\n      swap1\n      div\n      0xffffffffffffffffffffffffffffffffffffffff\n      and\n        /* \"w1d5/BaseERC20.sol\":5557:5571  token.transfer */\n      0xffffffffffffffffffffffffffffffffffffffff\n      and\n      0xa9059cbb\n        /* \"w1d5/BaseERC20.sol\":5572:5582  msg.sender */\n      caller\n        /* \"w1d5/BaseERC20.sol\":5584:5591  _amount */\n      dup5\n        /* \"w1d5/BaseERC20.sol\":5557:5592  token.transfer(msg.sender, _amount) */\n      mload(0x40)\n      dup4\n      0xffffffff\n      and\n      0xe0\n      shl\n      dup2\n      mstore\n      0x04\n      add\n      tag_41\n      swap3\n      swap2\n      swap1\n      tag_42\n      jump\t// in\n    tag_41:\n      0x20\n      mload(0x40)\n      dup1\n      dup4\n      sub\n      dup2\n      0x00\n      dup8\n      gas\n      call\n      iszero\n      dup1\n      iszero\n      tag_44\n      jumpi\n      returndatasize\n      0x00\n      dup1\n      returndatacopy\n      revert(0x00, returndatasize)\n    tag_44:\n      pop\n      pop\n      pop\n      pop\n      mload(0x40)\n      returndatasize\n      not(0x1f)\n      0x1f\n      dup3\n      add\n      and\n      dup3\n      add\n      dup1\n      0x40\n      mstore\n      pop\n      dup2\n      add\n      swap1\n      tag_45\n      swap2\n      swap1\n      tag_46\n      jump\t// in\n    tag_45:\n        /* \"w1d5/BaseERC20.sol\":5542:5592  bool success = token.transfer(msg.sender, _amount) */\n      swap1\n      pop\n        /* \"w1d5/BaseERC20.sol\":5611:5618  success */\n      dup1\n        /* \"w1d5/BaseERC20.sol\":5603:5644  require(success, \"Token transfer failed\") */\n      tag_47\n      jumpi\n      mload(0x40)\n      0x08c379a000000000000000000000000000000000000000000000000000000000\n      dup2\n      mstore\n      0x04\n      add\n      tag_48\n      swap1\n      tag_49\n      jump\t// in\n    tag_48:\n      mload(0x40)\n      dup1\n      swap2\n      sub\n      swap1\n      revert\n    tag_47:\n        /* \"w1d5/BaseERC20.sol\":5237:5652  {... */\n      pop\n        /* \"w1d5/BaseERC20.sol\":5187:5652  function withdraw(uint256 _amount) public payable {... */\n      pop\n      jump\t// out\n        /* \"w1d5/BaseERC20.sol\":4819:5132  function deposit(uint _amount) public {... */\n    tag_21:\n        /* \"w1d5/BaseERC20.sol\":4886:4887  0 */\n      0x00\n        /* \"w1d5/BaseERC20.sol\":4876:4883  _amount */\n      dup2\n        /* \"w1d5/BaseERC20.sol\":4876:4887  _amount > 0 */\n      gt\n        /* \"w1d5/BaseERC20.sol\":4868:4932  require(_amount > 0, \"Deposit amount must be greater than zero\") */\n      tag_51\n      jumpi\n      mload(0x40)\n      0x08c379a000000000000000000000000000000000000000000000000000000000\n      dup2\n      mstore\n      0x04\n      add\n      tag_52\n      swap1\n      tag_53\n      jump\t// in\n    tag_52:\n      mload(0x40)\n      dup1\n      swap2\n      sub\n      swap1\n      revert\n    tag_51:\n        /* \"w1d5/BaseERC20.sol\":4943:4955  bool suncess */\n      0x00\n        /* \"w1d5/BaseERC20.sol\":4958:4963  token */\n      dup1\n      0x00\n      swap1\n      sload\n      swap1\n      0x0100\n      exp\n      swap1\n      div\n      0xffffffffffffffffffffffffffffffffffffffff\n      and\n        /* \"w1d5/BaseERC20.sol\":4958:4976  token.transferFrom */\n      0xffffffffffffffffffffffffffffffffffffffff\n      and\n      0x23b872dd\n        /* \"w1d5/BaseERC20.sol\":4977:4987  msg.sender */\n      caller\n        /* \"w1d5/BaseERC20.sol\":4997:5001  this */\n      address\n        /* \"w1d5/BaseERC20.sol\":5004:5011  _amount */\n      dup6\n        /* \"w1d5/BaseERC20.sol\":4958:5012  token.transferFrom(msg.sender, address(this), _amount) */\n      mload(0x40)\n      dup5\n      0xffffffff\n      and\n      0xe0\n      shl\n      dup2\n      mstore\n      0x04\n      add\n      tag_54\n      swap4\n      swap3\n      swap2\n      swap1\n      tag_55\n      jump\t// in\n    tag_54:\n      0x20\n      mload(0x40)\n      dup1\n      dup4\n      sub\n      dup2\n      0x00\n      dup8\n      gas\n      call\n      iszero\n      dup1\n      iszero\n      tag_57\n      jumpi\n      returndatasize\n      0x00\n      dup1\n      returndatacopy\n      revert(0x00, returndatasize)\n    tag_57:\n      pop\n      pop\n      pop\n      pop\n      mload(0x40)\n      returndatasize\n      not(0x1f)\n      0x1f\n      dup3\n      add\n      and\n      dup3\n      add\n      dup1\n      0x40\n      mstore\n      pop\n      dup2\n      add\n      swap1\n      tag_58\n      swap2\n      swap1\n      tag_46\n      jump\t// in\n    tag_58:\n        /* \"w1d5/BaseERC20.sol\":4943:5012  bool suncess = token.transferFrom(msg.sender, address(this), _amount) */\n      swap1\n      pop\n        /* \"w1d5/BaseERC20.sol\":5031:5038  suncess */\n      dup1\n        /* \"w1d5/BaseERC20.sol\":5023:5082  require(suncess, \"Token transfer failed (check allowance)\") */\n      tag_59\n      jumpi\n      mload(0x40)\n      0x08c379a000000000000000000000000000000000000000000000000000000000\n      dup2\n      mstore\n      0x04\n      add\n      tag_60\n      swap1\n      tag_61\n      jump\t// in\n    tag_60:\n      mload(0x40)\n      dup1\n      swap2\n      sub\n      swap1\n      revert\n    tag_59:\n        /* \"w1d5/BaseERC20.sol\":5117:5124  _amount */\n      dup2\n        /* \"w1d5/BaseERC20.sol\":5093:5101  balances */\n      0x01\n        /* \"w1d5/BaseERC20.sol\":5093:5113  balances[msg.sender] */\n      0x00\n        /* \"w1d5/BaseERC20.sol\":5102:5112  msg.sender */\n      caller\n        /* \"w1d5/BaseERC20.sol\":5093:5113  balances[msg.sender] */\n      0xffffffffffffffffffffffffffffffffffffffff\n      and\n      0xffffffffffffffffffffffffffffffffffffffff\n      and\n      dup2\n      mstore\n      0x20\n      add\n      swap1\n      dup2\n      mstore\n      0x20\n      add\n      0x00\n      keccak256\n      0x00\n        /* \"w1d5/BaseERC20.sol\":5093:5124  balances[msg.sender] += _amount */\n      dup3\n      dup3\n      sload\n      tag_62\n      swap2\n      swap1\n      tag_63\n      jump\t// in\n    tag_62:\n      swap3\n      pop\n      pop\n      dup2\n      swap1\n      sstore\n      pop\n        /* \"w1d5/BaseERC20.sol\":4857:5132  {... */\n      pop\n        /* \"w1d5/BaseERC20.sol\":4819:5132  function deposit(uint _amount) public {... */\n      pop\n      jump\t// out\n        /* \"w1d5/BaseERC20.sol\":5771:5876  function getBalance(address _user) public view returns (uint256){... */\n    tag_25:\n        /* \"w1d5/BaseERC20.sol\":5827:5834  uint256 */\n      0x00\n        /* \"w1d5/BaseERC20.sol\":5853:5861  balances */\n      0x01\n        /* \"w1d5/BaseERC20.sol\":5853:5868  balances[_user] */\n      0x00\n        /* \"w1d5/BaseERC20.sol\":5862:5867  _user */\n      dup4\n        /* \"w1d5/BaseERC20.sol\":5853:5868  balances[_user] */\n      0xffffffffffffffffffffffffffffffffffffffff\n      and\n      0xffffffffffffffffffffffffffffffffffffffff\n      and\n      dup2\n      mstore\n      0x20\n      add\n      swap1\n      dup2\n      mstore\n      0x20\n      add\n      0x00\n      keccak256\n      sload\n        /* \"w1d5/BaseERC20.sol\":5846:5868  return balances[_user] */\n      swap1\n      pop\n        /* \"w1d5/BaseERC20.sol\":5771:5876  function getBalance(address _user) public view returns (uint256){... */\n      swap2\n      swap1\n      pop\n      jump\t// out\n        /* \"w1d5/BaseERC20.sol\":4504:4526  BaseERC20 public token */\n    tag_29:\n      0x00\n      dup1\n      sload\n      swap1\n      0x0100\n      exp\n      swap1\n      div\n      0xffffffffffffffffffffffffffffffffffffffff\n      and\n      dup2\n      jump\t// out\n        /* \"#utility.yul\":88:205   */\n    tag_66:\n        /* \"#utility.yul\":197:198   */\n      0x00\n        /* \"#utility.yul\":194:195   */\n      dup1\n        /* \"#utility.yul\":187:199   */\n      revert\n        /* \"#utility.yul\":334:460   */\n    tag_68:\n        /* \"#utility.yul\":371:378   */\n      0x00\n        /* \"#utility.yul\":411:453   */\n      0xffffffffffffffffffffffffffffffffffffffff\n        /* \"#utility.yul\":404:409   */\n      dup3\n        /* \"#utility.yul\":400:454   */\n      and\n        /* \"#utility.yul\":389:454   */\n      swap1\n      pop\n        /* \"#utility.yul\":334:460   */\n      swap2\n      swap1\n      pop\n      jump\t// out\n        /* \"#utility.yul\":466:562   */\n    tag_69:\n        /* \"#utility.yul\":503:510   */\n      0x00\n        /* \"#utility.yul\":532:556   */\n      tag_103\n        /* \"#utility.yul\":550:555   */\n      dup3\n        /* \"#utility.yul\":532:556   */\n      tag_68\n      jump\t// in\n    tag_103:\n        /* \"#utility.yul\":521:556   */\n      swap1\n      pop\n        /* \"#utility.yul\":466:562   */\n      swap2\n      swap1\n      pop\n      jump\t// out\n        /* \"#utility.yul\":568:690   */\n    tag_70:\n        /* \"#utility.yul\":641:665   */\n      tag_105\n        /* \"#utility.yul\":659:664   */\n      dup2\n        /* \"#utility.yul\":641:665   */\n      tag_69\n      jump\t// in\n    tag_105:\n        /* \"#utility.yul\":634:639   */\n      dup2\n        /* \"#utility.yul\":631:666   */\n      eq\n        /* \"#utility.yul\":621:684   */\n      tag_106\n      jumpi\n        /* \"#utility.yul\":680:681   */\n      0x00\n        /* \"#utility.yul\":677:678   */\n      dup1\n        /* \"#utility.yul\":670:682   */\n      revert\n        /* \"#utility.yul\":621:684   */\n    tag_106:\n        /* \"#utility.yul\":568:690   */\n      pop\n      jump\t// out\n        /* \"#utility.yul\":696:835   */\n    tag_71:\n        /* \"#utility.yul\":742:747   */\n      0x00\n        /* \"#utility.yul\":780:786   */\n      dup2\n        /* \"#utility.yul\":767:787   */\n      calldataload\n        /* \"#utility.yul\":758:787   */\n      swap1\n      pop\n        /* \"#utility.yul\":796:829   */\n      tag_108\n        /* \"#utility.yul\":823:828   */\n      dup2\n        /* \"#utility.yul\":796:829   */\n      tag_70\n      jump\t// in\n    tag_108:\n        /* \"#utility.yul\":696:835   */\n      swap3\n      swap2\n      pop\n      pop\n      jump\t// out\n        /* \"#utility.yul\":841:1170   */\n    tag_10:\n        /* \"#utility.yul\":900:906   */\n      0x00\n        /* \"#utility.yul\":949:951   */\n      0x20\n        /* \"#utility.yul\":937:946   */\n      dup3\n        /* \"#utility.yul\":928:935   */\n      dup5\n        /* \"#utility.yul\":924:947   */\n      sub\n        /* \"#utility.yul\":920:952   */\n      slt\n        /* \"#utility.yul\":917:1036   */\n      iszero\n      tag_110\n      jumpi\n        /* \"#utility.yul\":955:1034   */\n      tag_111\n      tag_66\n      jump\t// in\n    tag_111:\n        /* \"#utility.yul\":917:1036   */\n    tag_110:\n        /* \"#utility.yul\":1075:1076   */\n      0x00\n        /* \"#utility.yul\":1100:1153   */\n      tag_112\n        /* \"#utility.yul\":1145:1152   */\n      dup5\n        /* \"#utility.yul\":1136:1142   */\n      dup3\n        /* \"#utility.yul\":1125:1134   */\n      dup6\n        /* \"#utility.yul\":1121:1143   */\n      add\n        /* \"#utility.yul\":1100:1153   */\n      tag_71\n      jump\t// in\n    tag_112:\n        /* \"#utility.yul\":1090:1153   */\n      swap2\n      pop\n        /* \"#utility.yul\":1046:1163   */\n      pop\n        /* \"#utility.yul\":841:1170   */\n      swap3\n      swap2\n      pop\n      pop\n      jump\t// out\n        /* \"#utility.yul\":1176:1253   */\n    tag_72:\n        /* \"#utility.yul\":1213:1220   */\n      0x00\n        /* \"#utility.yul\":1242:1247   */\n      dup2\n        /* \"#utility.yul\":1231:1247   */\n      swap1\n      pop\n        /* \"#utility.yul\":1176:1253   */\n      swap2\n      swap1\n      pop\n      jump\t// out\n        /* \"#utility.yul\":1259:1377   */\n    tag_73:\n        /* \"#utility.yul\":1346:1370   */\n      tag_115\n        /* \"#utility.yul\":1364:1369   */\n      dup2\n        /* \"#utility.yul\":1346:1370   */\n      tag_72\n      jump\t// in\n    tag_115:\n        /* \"#utility.yul\":1341:1344   */\n      dup3\n        /* \"#utility.yul\":1334:1371   */\n      mstore\n        /* \"#utility.yul\":1259:1377   */\n      pop\n      pop\n      jump\t// out\n        /* \"#utility.yul\":1383:1605   */\n    tag_13:\n        /* \"#utility.yul\":1476:1480   */\n      0x00\n        /* \"#utility.yul\":1514:1516   */\n      0x20\n        /* \"#utility.yul\":1503:1512   */\n      dup3\n        /* \"#utility.yul\":1499:1517   */\n      add\n        /* \"#utility.yul\":1491:1517   */\n      swap1\n      pop\n        /* \"#utility.yul\":1527:1598   */\n      tag_117\n        /* \"#utility.yul\":1595:1596   */\n      0x00\n        /* \"#utility.yul\":1584:1593   */\n      dup4\n        /* \"#utility.yul\":1580:1597   */\n      add\n        /* \"#utility.yul\":1571:1577   */\n      dup5\n        /* \"#utility.yul\":1527:1598   */\n      tag_73\n      jump\t// in\n    tag_117:\n        /* \"#utility.yul\":1383:1605   */\n      swap3\n      swap2\n      pop\n      pop\n      jump\t// out\n        /* \"#utility.yul\":1611:1733   */\n    tag_74:\n        /* \"#utility.yul\":1684:1708   */\n      tag_119\n        /* \"#utility.yul\":1702:1707   */\n      dup2\n        /* \"#utility.yul\":1684:1708   */\n      tag_72\n      jump\t// in\n    tag_119:\n        /* \"#utility.yul\":1677:1682   */\n      dup2\n        /* \"#utility.yul\":1674:1709   */\n      eq\n        /* \"#utility.yul\":1664:1727   */\n      tag_120\n      jumpi\n        /* \"#utility.yul\":1723:1724   */\n      0x00\n        /* \"#utility.yul\":1720:1721   */\n      dup1\n        /* \"#utility.yul\":1713:1725   */\n      revert\n        /* \"#utility.yul\":1664:1727   */\n    tag_120:\n        /* \"#utility.yul\":1611:1733   */\n      pop\n      jump\t// out\n        /* \"#utility.yul\":1739:1878   */\n    tag_75:\n        /* \"#utility.yul\":1785:1790   */\n      0x00\n        /* \"#utility.yul\":1823:1829   */\n      dup2\n        /* \"#utility.yul\":1810:1830   */\n      calldataload\n        /* \"#utility.yul\":1801:1830   */\n      swap1\n      pop\n        /* \"#utility.yul\":1839:1872   */\n      tag_122\n        /* \"#utility.yul\":1866:1871   */\n      dup2\n        /* \"#utility.yul\":1839:1872   */\n      tag_74\n      jump\t// in\n    tag_122:\n        /* \"#utility.yul\":1739:1878   */\n      swap3\n      swap2\n      pop\n      pop\n      jump\t// out\n        /* \"#utility.yul\":1884:2213   */\n    tag_16:\n        /* \"#utility.yul\":1943:1949   */\n      0x00\n        /* \"#utility.yul\":1992:1994   */\n      0x20\n        /* \"#utility.yul\":1980:1989   */\n      dup3\n        /* \"#utility.yul\":1971:1978   */\n      dup5\n        /* \"#utility.yul\":1967:1990   */\n      sub\n        /* \"#utility.yul\":1963:1995   */\n      slt\n        /* \"#utility.yul\":1960:2079   */\n      iszero\n      tag_124\n      jumpi\n        /* \"#utility.yul\":1998:2077   */\n      tag_125\n      tag_66\n      jump\t// in\n    tag_125:\n        /* \"#utility.yul\":1960:2079   */\n    tag_124:\n        /* \"#utility.yul\":2118:2119   */\n      0x00\n        /* \"#utility.yul\":2143:2196   */\n      tag_126\n        /* \"#utility.yul\":2188:2195   */\n      dup5\n        /* \"#utility.yul\":2179:2185   */\n      dup3\n        /* \"#utility.yul\":2168:2177   */\n      dup6\n        /* \"#utility.yul\":2164:2186   */\n      add\n        /* \"#utility.yul\":2143:2196   */\n      tag_75\n      jump\t// in\n    tag_126:\n        /* \"#utility.yul\":2133:2196   */\n      swap2\n      pop\n        /* \"#utility.yul\":2089:2206   */\n      pop\n        /* \"#utility.yul\":1884:2213   */\n      swap3\n      swap2\n      pop\n      pop\n      jump\t// out\n        /* \"#utility.yul\":2219:2279   */\n    tag_76:\n        /* \"#utility.yul\":2247:2250   */\n      0x00\n        /* \"#utility.yul\":2268:2273   */\n      dup2\n        /* \"#utility.yul\":2261:2273   */\n      swap1\n      pop\n        /* \"#utility.yul\":2219:2279   */\n      swap2\n      swap1\n      pop\n      jump\t// out\n        /* \"#utility.yul\":2285:2427   */\n    tag_77:\n        /* \"#utility.yul\":2335:2344   */\n      0x00\n        /* \"#utility.yul\":2368:2421   */\n      tag_129\n        /* \"#utility.yul\":2386:2420   */\n      tag_130\n        /* \"#utility.yul\":2395:2419   */\n      tag_131\n        /* \"#utility.yul\":2413:2418   */\n      dup5\n        /* \"#utility.yul\":2395:2419   */\n      tag_68\n      jump\t// in\n    tag_131:\n        /* \"#utility.yul\":2386:2420   */\n      tag_76\n      jump\t// in\n    tag_130:\n        /* \"#utility.yul\":2368:2421   */\n      tag_68\n      jump\t// in\n    tag_129:\n        /* \"#utility.yul\":2355:2421   */\n      swap1\n      pop\n        /* \"#utility.yul\":2285:2427   */\n      swap2\n      swap1\n      pop\n      jump\t// out\n        /* \"#utility.yul\":2433:2559   */\n    tag_78:\n        /* \"#utility.yul\":2483:2492   */\n      0x00\n        /* \"#utility.yul\":2516:2553   */\n      tag_133\n        /* \"#utility.yul\":2547:2552   */\n      dup3\n        /* \"#utility.yul\":2516:2553   */\n      tag_77\n      jump\t// in\n    tag_133:\n        /* \"#utility.yul\":2503:2553   */\n      swap1\n      pop\n        /* \"#utility.yul\":2433:2559   */\n      swap2\n      swap1\n      pop\n      jump\t// out\n        /* \"#utility.yul\":2565:2708   */\n    tag_79:\n        /* \"#utility.yul\":2632:2641   */\n      0x00\n        /* \"#utility.yul\":2665:2702   */\n      tag_135\n        /* \"#utility.yul\":2696:2701   */\n      dup3\n        /* \"#utility.yul\":2665:2702   */\n      tag_78\n      jump\t// in\n    tag_135:\n        /* \"#utility.yul\":2652:2702   */\n      swap1\n      pop\n        /* \"#utility.yul\":2565:2708   */\n      swap2\n      swap1\n      pop\n      jump\t// out\n        /* \"#utility.yul\":2714:2879   */\n    tag_80:\n        /* \"#utility.yul\":2818:2872   */\n      tag_137\n        /* \"#utility.yul\":2866:2871   */\n      dup2\n        /* \"#utility.yul\":2818:2872   */\n      tag_79\n      jump\t// in\n    tag_137:\n        /* \"#utility.yul\":2813:2816   */\n      dup3\n        /* \"#utility.yul\":2806:2873   */\n      mstore\n        /* \"#utility.yul\":2714:2879   */\n      pop\n      pop\n      jump\t// out\n        /* \"#utility.yul\":2885:3141   */\n    tag_31:\n        /* \"#utility.yul\":2995:2999   */\n      0x00\n        /* \"#utility.yul\":3033:3035   */\n      0x20\n        /* \"#utility.yul\":3022:3031   */\n      dup3\n        /* \"#utility.yul\":3018:3036   */\n      add\n        /* \"#utility.yul\":3010:3036   */\n      swap1\n      pop\n        /* \"#utility.yul\":3046:3134   */\n      tag_139\n        /* \"#utility.yul\":3131:3132   */\n      0x00\n        /* \"#utility.yul\":3120:3129   */\n      dup4\n        /* \"#utility.yul\":3116:3133   */\n      add\n        /* \"#utility.yul\":3107:3113   */\n      dup5\n        /* \"#utility.yul\":3046:3134   */\n      tag_80\n      jump\t// in\n    tag_139:\n        /* \"#utility.yul\":2885:3141   */\n      swap3\n      swap2\n      pop\n      pop\n      jump\t// out\n        /* \"#utility.yul\":3147:3316   */\n    tag_81:\n        /* \"#utility.yul\":3231:3242   */\n      0x00\n        /* \"#utility.yul\":3265:3271   */\n      dup3\n        /* \"#utility.yul\":3260:3263   */\n      dup3\n        /* \"#utility.yul\":3253:3272   */\n      mstore\n        /* \"#utility.yul\":3305:3309   */\n      0x20\n        /* \"#utility.yul\":3300:3303   */\n      dup3\n        /* \"#utility.yul\":3296:3310   */\n      add\n        /* \"#utility.yul\":3281:3310   */\n      swap1\n      pop\n        /* \"#utility.yul\":3147:3316   */\n      swap3\n      swap2\n      pop\n      pop\n      jump\t// out\n        /* \"#utility.yul\":3322:3552   */\n    tag_82:\n        /* \"#utility.yul\":3462:3496   */\n      0x576974686472617720616d6f756e74206d757374206265206772656174657220\n        /* \"#utility.yul\":3458:3459   */\n      0x00\n        /* \"#utility.yul\":3450:3456   */\n      dup3\n        /* \"#utility.yul\":3446:3460   */\n      add\n        /* \"#utility.yul\":3439:3497   */\n      mstore\n        /* \"#utility.yul\":3531:3544   */\n      0x7468616e207a65726f2021000000000000000000000000000000000000000000\n        /* \"#utility.yul\":3526:3528   */\n      0x20\n        /* \"#utility.yul\":3518:3524   */\n      dup3\n        /* \"#utility.yul\":3514:3529   */\n      add\n        /* \"#utility.yul\":3507:3545   */\n      mstore\n        /* \"#utility.yul\":3322:3552   */\n      pop\n      jump\t// out\n        /* \"#utility.yul\":3558:3924   */\n    tag_83:\n        /* \"#utility.yul\":3700:3703   */\n      0x00\n        /* \"#utility.yul\":3721:3788   */\n      tag_143\n        /* \"#utility.yul\":3785:3787   */\n      0x2b\n        /* \"#utility.yul\":3780:3783   */\n      dup4\n        /* \"#utility.yul\":3721:3788   */\n      tag_81\n      jump\t// in\n    tag_143:\n        /* \"#utility.yul\":3714:3788   */\n      swap2\n      pop\n        /* \"#utility.yul\":3797:3890   */\n      tag_144\n        /* \"#utility.yul\":3886:3889   */\n      dup3\n        /* \"#utility.yul\":3797:3890   */\n      tag_82\n      jump\t// in\n    tag_144:\n        /* \"#utility.yul\":3915:3917   */\n      0x40\n        /* \"#utility.yul\":3910:3913   */\n      dup3\n        /* \"#utility.yul\":3906:3918   */\n      add\n        /* \"#utility.yul\":3899:3918   */\n      swap1\n      pop\n        /* \"#utility.yul\":3558:3924   */\n      swap2\n      swap1\n      pop\n      jump\t// out\n        /* \"#utility.yul\":3930:4349   */\n    tag_35:\n        /* \"#utility.yul\":4096:4100   */\n      0x00\n        /* \"#utility.yul\":4134:4136   */\n      0x20\n        /* \"#utility.yul\":4123:4132   */\n      dup3\n        /* \"#utility.yul\":4119:4137   */\n      add\n        /* \"#utility.yul\":4111:4137   */\n      swap1\n      pop\n        /* \"#utility.yul\":4183:4192   */\n      dup2\n        /* \"#utility.yul\":4177:4181   */\n      dup2\n        /* \"#utility.yul\":4173:4193   */\n      sub\n        /* \"#utility.yul\":4169:4170   */\n      0x00\n        /* \"#utility.yul\":4158:4167   */\n      dup4\n        /* \"#utility.yul\":4154:4171   */\n      add\n        /* \"#utility.yul\":4147:4194   */\n      mstore\n        /* \"#utility.yul\":4211:4342   */\n      tag_146\n        /* \"#utility.yul\":4337:4341   */\n      dup2\n        /* \"#utility.yul\":4211:4342   */\n      tag_83\n      jump\t// in\n    tag_146:\n        /* \"#utility.yul\":4203:4342   */\n      swap1\n      pop\n        /* \"#utility.yul\":3930:4349   */\n      swap2\n      swap1\n      pop\n      jump\t// out\n        /* \"#utility.yul\":4355:4533   */\n    tag_84:\n        /* \"#utility.yul\":4495:4525   */\n      0x496e73756666696369656e742062616c616e636520696e2062616e6b00000000\n        /* \"#utility.yul\":4491:4492   */\n      0x00\n        /* \"#utility.yul\":4483:4489   */\n      dup3\n        /* \"#utility.yul\":4479:4493   */\n      add\n        /* \"#utility.yul\":4472:4526   */\n      mstore\n        /* \"#utility.yul\":4355:4533   */\n      pop\n      jump\t// out\n        /* \"#utility.yul\":4539:4905   */\n    tag_85:\n        /* \"#utility.yul\":4681:4684   */\n      0x00\n        /* \"#utility.yul\":4702:4769   */\n      tag_149\n        /* \"#utility.yul\":4766:4768   */\n      0x1c\n        /* \"#utility.yul\":4761:4764   */\n      dup4\n        /* \"#utility.yul\":4702:4769   */\n      tag_81\n      jump\t// in\n    tag_149:\n        /* \"#utility.yul\":4695:4769   */\n      swap2\n      pop\n        /* \"#utility.yul\":4778:4871   */\n      tag_150\n        /* \"#utility.yul\":4867:4870   */\n      dup3\n        /* \"#utility.yul\":4778:4871   */\n      tag_84\n      jump\t// in\n    tag_150:\n        /* \"#utility.yul\":4896:4898   */\n      0x20\n        /* \"#utility.yul\":4891:4894   */\n      dup3\n        /* \"#utility.yul\":4887:4899   */\n      add\n        /* \"#utility.yul\":4880:4899   */\n      swap1\n      pop\n        /* \"#utility.yul\":4539:4905   */\n      swap2\n      swap1\n      pop\n      jump\t// out\n        /* \"#utility.yul\":4911:5330   */\n    tag_38:\n        /* \"#utility.yul\":5077:5081   */\n      0x00\n        /* \"#utility.yul\":5115:5117   */\n      0x20\n        /* \"#utility.yul\":5104:5113   */\n      dup3\n        /* \"#utility.yul\":5100:5118   */\n      add\n        /* \"#utility.yul\":5092:5118   */\n      swap1\n      pop\n        /* \"#utility.yul\":5164:5173   */\n      dup2\n        /* \"#utility.yul\":5158:5162   */\n      dup2\n        /* \"#utility.yul\":5154:5174   */\n      sub\n        /* \"#utility.yul\":5150:5151   */\n      0x00\n        /* \"#utility.yul\":5139:5148   */\n      dup4\n        /* \"#utility.yul\":5135:5152   */\n      add\n        /* \"#utility.yul\":5128:5175   */\n      mstore\n        /* \"#utility.yul\":5192:5323   */\n      tag_152\n        /* \"#utility.yul\":5318:5322   */\n      dup2\n        /* \"#utility.yul\":5192:5323   */\n      tag_85\n      jump\t// in\n    tag_152:\n        /* \"#utility.yul\":5184:5323   */\n      swap1\n      pop\n        /* \"#utility.yul\":4911:5330   */\n      swap2\n      swap1\n      pop\n      jump\t// out\n        /* \"#utility.yul\":5336:5516   */\n    tag_86:\n        /* \"#utility.yul\":5384:5461   */\n      0x4e487b7100000000000000000000000000000000000000000000000000000000\n        /* \"#utility.yul\":5381:5382   */\n      0x00\n        /* \"#utility.yul\":5374:5462   */\n      mstore\n        /* \"#utility.yul\":5481:5485   */\n      0x11\n        /* \"#utility.yul\":5478:5479   */\n      0x04\n        /* \"#utility.yul\":5471:5486   */\n      mstore\n        /* \"#utility.yul\":5505:5509   */\n      0x24\n        /* \"#utility.yul\":5502:5503   */\n      0x00\n        /* \"#utility.yul\":5495:5510   */\n      revert\n        /* \"#utility.yul\":5522:5716   */\n    tag_40:\n        /* \"#utility.yul\":5562:5566   */\n      0x00\n        /* \"#utility.yul\":5582:5602   */\n      tag_155\n        /* \"#utility.yul\":5600:5601   */\n      dup3\n        /* \"#utility.yul\":5582:5602   */\n      tag_72\n      jump\t// in\n    tag_155:\n        /* \"#utility.yul\":5577:5602   */\n      swap2\n      pop\n        /* \"#utility.yul\":5616:5636   */\n      tag_156\n        /* \"#utility.yul\":5634:5635   */\n      dup4\n        /* \"#utility.yul\":5616:5636   */\n      tag_72\n      jump\t// in\n    tag_156:\n        /* \"#utility.yul\":5611:5636   */\n      swap3\n      pop\n        /* \"#utility.yul\":5660:5661   */\n      dup3\n        /* \"#utility.yul\":5657:5658   */\n      dup3\n        /* \"#utility.yul\":5653:5662   */\n      sub\n        /* \"#utility.yul\":5645:5662   */\n      swap1\n      pop\n        /* \"#utility.yul\":5684:5685   */\n      dup2\n        /* \"#utility.yul\":5678:5682   */\n      dup2\n        /* \"#utility.yul\":5675:5686   */\n      gt\n        /* \"#utility.yul\":5672:5709   */\n      iszero\n      tag_157\n      jumpi\n        /* \"#utility.yul\":5689:5707   */\n      tag_158\n      tag_86\n      jump\t// in\n    tag_158:\n        /* \"#utility.yul\":5672:5709   */\n    tag_157:\n        /* \"#utility.yul\":5522:5716   */\n      swap3\n      swap2\n      pop\n      pop\n      jump\t// out\n        /* \"#utility.yul\":5722:5840   */\n    tag_87:\n        /* \"#utility.yul\":5809:5833   */\n      tag_160\n        /* \"#utility.yul\":5827:5832   */\n      dup2\n        /* \"#utility.yul\":5809:5833   */\n      tag_69\n      jump\t// in\n    tag_160:\n        /* \"#utility.yul\":5804:5807   */\n      dup3\n        /* \"#utility.yul\":5797:5834   */\n      mstore\n        /* \"#utility.yul\":5722:5840   */\n      pop\n      pop\n      jump\t// out\n        /* \"#utility.yul\":5846:6178   */\n    tag_42:\n        /* \"#utility.yul\":5967:5971   */\n      0x00\n        /* \"#utility.yul\":6005:6007   */\n      0x40\n        /* \"#utility.yul\":5994:6003   */\n      dup3\n        /* \"#utility.yul\":5990:6008   */\n      add\n        /* \"#utility.yul\":5982:6008   */\n      swap1\n      pop\n        /* \"#utility.yul\":6018:6089   */\n      tag_162\n        /* \"#utility.yul\":6086:6087   */\n      0x00\n        /* \"#utility.yul\":6075:6084   */\n      dup4\n        /* \"#utility.yul\":6071:6088   */\n      add\n        /* \"#utility.yul\":6062:6068   */\n      dup6\n        /* \"#utility.yul\":6018:6089   */\n      tag_87\n      jump\t// in\n    tag_162:\n        /* \"#utility.yul\":6099:6171   */\n      tag_163\n        /* \"#utility.yul\":6167:6169   */\n      0x20\n        /* \"#utility.yul\":6156:6165   */\n      dup4\n        /* \"#utility.yul\":6152:6170   */\n      add\n        /* \"#utility.yul\":6143:6149   */\n      dup5\n        /* \"#utility.yul\":6099:6171   */\n      tag_73\n      jump\t// in\n    tag_163:\n        /* \"#utility.yul\":5846:6178   */\n      swap4\n      swap3\n      pop\n      pop\n      pop\n      jump\t// out\n        /* \"#utility.yul\":6184:6274   */\n    tag_88:\n        /* \"#utility.yul\":6218:6225   */\n      0x00\n        /* \"#utility.yul\":6261:6266   */\n      dup2\n        /* \"#utility.yul\":6254:6267   */\n      iszero\n        /* \"#utility.yul\":6247:6268   */\n      iszero\n        /* \"#utility.yul\":6236:6268   */\n      swap1\n      pop\n        /* \"#utility.yul\":6184:6274   */\n      swap2\n      swap1\n      pop\n      jump\t// out\n        /* \"#utility.yul\":6280:6396   */\n    tag_89:\n        /* \"#utility.yul\":6350:6371   */\n      tag_166\n        /* \"#utility.yul\":6365:6370   */\n      dup2\n        /* \"#utility.yul\":6350:6371   */\n      tag_88\n      jump\t// in\n    tag_166:\n        /* \"#utility.yul\":6343:6348   */\n      dup2\n        /* \"#utility.yul\":6340:6372   */\n      eq\n        /* \"#utility.yul\":6330:6390   */\n      tag_167\n      jumpi\n        /* \"#utility.yul\":6386:6387   */\n      0x00\n        /* \"#utility.yul\":6383:6384   */\n      dup1\n        /* \"#utility.yul\":6376:6388   */\n      revert\n        /* \"#utility.yul\":6330:6390   */\n    tag_167:\n        /* \"#utility.yul\":6280:6396   */\n      pop\n      jump\t// out\n        /* \"#utility.yul\":6402:6539   */\n    tag_90:\n        /* \"#utility.yul\":6456:6461   */\n      0x00\n        /* \"#utility.yul\":6487:6493   */\n      dup2\n        /* \"#utility.yul\":6481:6494   */\n      mload\n        /* \"#utility.yul\":6472:6494   */\n      swap1\n      pop\n        /* \"#utility.yul\":6503:6533   */\n      tag_169\n        /* \"#utility.yul\":6527:6532   */\n      dup2\n        /* \"#utility.yul\":6503:6533   */\n      tag_89\n      jump\t// in\n    tag_169:\n        /* \"#utility.yul\":6402:6539   */\n      swap3\n      swap2\n      pop\n      pop\n      jump\t// out\n        /* \"#utility.yul\":6545:6890   */\n    tag_46:\n        /* \"#utility.yul\":6612:6618   */\n      0x00\n        /* \"#utility.yul\":6661:6663   */\n      0x20\n        /* \"#utility.yul\":6649:6658   */\n      dup3\n        /* \"#utility.yul\":6640:6647   */\n      dup5\n        /* \"#utility.yul\":6636:6659   */\n      sub\n        /* \"#utility.yul\":6632:6664   */\n      slt\n        /* \"#utility.yul\":6629:6748   */\n      iszero\n      tag_171\n      jumpi\n        /* \"#utility.yul\":6667:6746   */\n      tag_172\n      tag_66\n      jump\t// in\n    tag_172:\n        /* \"#utility.yul\":6629:6748   */\n    tag_171:\n        /* \"#utility.yul\":6787:6788   */\n      0x00\n        /* \"#utility.yul\":6812:6873   */\n      tag_173\n        /* \"#utility.yul\":6865:6872   */\n      dup5\n        /* \"#utility.yul\":6856:6862   */\n      dup3\n        /* \"#utility.yul\":6845:6854   */\n      dup6\n        /* \"#utility.yul\":6841:6863   */\n      add\n        /* \"#utility.yul\":6812:6873   */\n      tag_90\n      jump\t// in\n    tag_173:\n        /* \"#utility.yul\":6802:6873   */\n      swap2\n      pop\n        /* \"#utility.yul\":6758:6883   */\n      pop\n        /* \"#utility.yul\":6545:6890   */\n      swap3\n      swap2\n      pop\n      pop\n      jump\t// out\n        /* \"#utility.yul\":6896:7067   */\n    tag_91:\n        /* \"#utility.yul\":7036:7059   */\n      0x546f6b656e207472616e73666572206661696c65640000000000000000000000\n        /* \"#utility.yul\":7032:7033   */\n      0x00\n        /* \"#utility.yul\":7024:7030   */\n      dup3\n        /* \"#utility.yul\":7020:7034   */\n      add\n        /* \"#utility.yul\":7013:7060   */\n      mstore\n        /* \"#utility.yul\":6896:7067   */\n      pop\n      jump\t// out\n        /* \"#utility.yul\":7073:7439   */\n    tag_92:\n        /* \"#utility.yul\":7215:7218   */\n      0x00\n        /* \"#utility.yul\":7236:7303   */\n      tag_176\n        /* \"#utility.yul\":7300:7302   */\n      0x15\n        /* \"#utility.yul\":7295:7298   */\n      dup4\n        /* \"#utility.yul\":7236:7303   */\n      tag_81\n      jump\t// in\n    tag_176:\n        /* \"#utility.yul\":7229:7303   */\n      swap2\n      pop\n        /* \"#utility.yul\":7312:7405   */\n      tag_177\n        /* \"#utility.yul\":7401:7404   */\n      dup3\n        /* \"#utility.yul\":7312:7405   */\n      tag_91\n      jump\t// in\n    tag_177:\n        /* \"#utility.yul\":7430:7432   */\n      0x20\n        /* \"#utility.yul\":7425:7428   */\n      dup3\n        /* \"#utility.yul\":7421:7433   */\n      add\n        /* \"#utility.yul\":7414:7433   */\n      swap1\n      pop\n        /* \"#utility.yul\":7073:7439   */\n      swap2\n      swap1\n      pop\n      jump\t// out\n        /* \"#utility.yul\":7445:7864   */\n    tag_49:\n        /* \"#utility.yul\":7611:7615   */\n      0x00\n        /* \"#utility.yul\":7649:7651   */\n      0x20\n        /* \"#utility.yul\":7638:7647   */\n      dup3\n        /* \"#utility.yul\":7634:7652   */\n      add\n        /* \"#utility.yul\":7626:7652   */\n      swap1\n      pop\n        /* \"#utility.yul\":7698:7707   */\n      dup2\n        /* \"#utility.yul\":7692:7696   */\n      dup2\n        /* \"#utility.yul\":7688:7708   */\n      sub\n        /* \"#utility.yul\":7684:7685   */\n      0x00\n        /* \"#utility.yul\":7673:7682   */\n      dup4\n        /* \"#utility.yul\":7669:7686   */\n      add\n        /* \"#utility.yul\":7662:7709   */\n      mstore\n        /* \"#utility.yul\":7726:7857   */\n      tag_179\n        /* \"#utility.yul\":7852:7856   */\n      dup2\n        /* \"#utility.yul\":7726:7857   */\n      tag_92\n      jump\t// in\n    tag_179:\n        /* \"#utility.yul\":7718:7857   */\n      swap1\n      pop\n        /* \"#utility.yul\":7445:7864   */\n      swap2\n      swap1\n      pop\n      jump\t// out\n        /* \"#utility.yul\":7870:8097   */\n    tag_93:\n        /* \"#utility.yul\":8010:8044   */\n      0x4465706f73697420616d6f756e74206d75737420626520677265617465722074\n        /* \"#utility.yul\":8006:8007   */\n      0x00\n        /* \"#utility.yul\":7998:8004   */\n      dup3\n        /* \"#utility.yul\":7994:8008   */\n      add\n        /* \"#utility.yul\":7987:8045   */\n      mstore\n        /* \"#utility.yul\":8079:8089   */\n      0x68616e207a65726f000000000000000000000000000000000000000000000000\n        /* \"#utility.yul\":8074:8076   */\n      0x20\n        /* \"#utility.yul\":8066:8072   */\n      dup3\n        /* \"#utility.yul\":8062:8077   */\n      add\n        /* \"#utility.yul\":8055:8090   */\n      mstore\n        /* \"#utility.yul\":7870:8097   */\n      pop\n      jump\t// out\n        /* \"#utility.yul\":8103:8469   */\n    tag_94:\n        /* \"#utility.yul\":8245:8248   */\n      0x00\n        /* \"#utility.yul\":8266:8333   */\n      tag_182\n        /* \"#utility.yul\":8330:8332   */\n      0x28\n        /* \"#utility.yul\":8325:8328   */\n      dup4\n        /* \"#utility.yul\":8266:8333   */\n      tag_81\n      jump\t// in\n    tag_182:\n        /* \"#utility.yul\":8259:8333   */\n      swap2\n      pop\n        /* \"#utility.yul\":8342:8435   */\n      tag_183\n        /* \"#utility.yul\":8431:8434   */\n      dup3\n        /* \"#utility.yul\":8342:8435   */\n      tag_93\n      jump\t// in\n    tag_183:\n        /* \"#utility.yul\":8460:8462   */\n      0x40\n        /* \"#utility.yul\":8455:8458   */\n      dup3\n        /* \"#utility.yul\":8451:8463   */\n      add\n        /* \"#utility.yul\":8444:8463   */\n      swap1\n      pop\n        /* \"#utility.yul\":8103:8469   */\n      swap2\n      swap1\n      pop\n      jump\t// out\n        /* \"#utility.yul\":8475:8894   */\n    tag_53:\n        /* \"#utility.yul\":8641:8645   */\n      0x00\n        /* \"#utility.yul\":8679:8681   */\n      0x20\n        /* \"#utility.yul\":8668:8677   */\n      dup3\n        /* \"#utility.yul\":8664:8682   */\n      add\n        /* \"#utility.yul\":8656:8682   */\n      swap1\n      pop\n        /* \"#utility.yul\":8728:8737   */\n      dup2\n        /* \"#utility.yul\":8722:8726   */\n      dup2\n        /* \"#utility.yul\":8718:8738   */\n      sub\n        /* \"#utility.yul\":8714:8715   */\n      0x00\n        /* \"#utility.yul\":8703:8712   */\n      dup4\n        /* \"#utility.yul\":8699:8716   */\n      add\n        /* \"#utility.yul\":8692:8739   */\n      mstore\n        /* \"#utility.yul\":8756:8887   */\n      tag_185\n        /* \"#utility.yul\":8882:8886   */\n      dup2\n        /* \"#utility.yul\":8756:8887   */\n      tag_94\n      jump\t// in\n    tag_185:\n        /* \"#utility.yul\":8748:8887   */\n      swap1\n      pop\n        /* \"#utility.yul\":8475:8894   */\n      swap2\n      swap1\n      pop\n      jump\t// out\n        /* \"#utility.yul\":8900:9342   */\n    tag_55:\n        /* \"#utility.yul\":9049:9053   */\n      0x00\n        /* \"#utility.yul\":9087:9089   */\n      0x60\n        /* \"#utility.yul\":9076:9085   */\n      dup3\n        /* \"#utility.yul\":9072:9090   */\n      add\n        /* \"#utility.yul\":9064:9090   */\n      swap1\n      pop\n        /* \"#utility.yul\":9100:9171   */\n      tag_187\n        /* \"#utility.yul\":9168:9169   */\n      0x00\n        /* \"#utility.yul\":9157:9166   */\n      dup4\n        /* \"#utility.yul\":9153:9170   */\n      add\n        /* \"#utility.yul\":9144:9150   */\n      dup7\n        /* \"#utility.yul\":9100:9171   */\n      tag_87\n      jump\t// in\n    tag_187:\n        /* \"#utility.yul\":9181:9253   */\n      tag_188\n        /* \"#utility.yul\":9249:9251   */\n      0x20\n        /* \"#utility.yul\":9238:9247   */\n      dup4\n        /* \"#utility.yul\":9234:9252   */\n      add\n        /* \"#utility.yul\":9225:9231   */\n      dup6\n        /* \"#utility.yul\":9181:9253   */\n      tag_87\n      jump\t// in\n    tag_188:\n        /* \"#utility.yul\":9263:9335   */\n      tag_189\n        /* \"#utility.yul\":9331:9333   */\n      0x40\n        /* \"#utility.yul\":9320:9329   */\n      dup4\n        /* \"#utility.yul\":9316:9334   */\n      add\n        /* \"#utility.yul\":9307:9313   */\n      dup5\n        /* \"#utility.yul\":9263:9335   */\n      tag_73\n      jump\t// in\n    tag_189:\n        /* \"#utility.yul\":8900:9342   */\n      swap5\n      swap4\n      pop\n      pop\n      pop\n      pop\n      jump\t// out\n        /* \"#utility.yul\":9348:9574   */\n    tag_95:\n        /* \"#utility.yul\":9488:9522   */\n      0x546f6b656e207472616e73666572206661696c65642028636865636b20616c6c\n        /* \"#utility.yul\":9484:9485   */\n      0x00\n        /* \"#utility.yul\":9476:9482   */\n      dup3\n        /* \"#utility.yul\":9472:9486   */\n      add\n        /* \"#utility.yul\":9465:9523   */\n      mstore\n        /* \"#utility.yul\":9557:9566   */\n      0x6f77616e63652900000000000000000000000000000000000000000000000000\n        /* \"#utility.yul\":9552:9554   */\n      0x20\n        /* \"#utility.yul\":9544:9550   */\n      dup3\n        /* \"#utility.yul\":9540:9555   */\n      add\n        /* \"#utility.yul\":9533:9567   */\n      mstore\n        /* \"#utility.yul\":9348:9574   */\n      pop\n      jump\t// out\n        /* \"#utility.yul\":9580:9946   */\n    tag_96:\n        /* \"#utility.yul\":9722:9725   */\n      0x00\n        /* \"#utility.yul\":9743:9810   */\n      tag_192\n        /* \"#utility.yul\":9807:9809   */\n      0x27\n        /* \"#utility.yul\":9802:9805   */\n      dup4\n        /* \"#utility.yul\":9743:9810   */\n      tag_81\n      jump\t// in\n    tag_192:\n        /* \"#utility.yul\":9736:9810   */\n      swap2\n      pop\n        /* \"#utility.yul\":9819:9912   */\n      tag_193\n        /* \"#utility.yul\":9908:9911   */\n      dup3\n        /* \"#utility.yul\":9819:9912   */\n      tag_95\n      jump\t// in\n    tag_193:\n        /* \"#utility.yul\":9937:9939   */\n      0x40\n        /* \"#utility.yul\":9932:9935   */\n      dup3\n        /* \"#utility.yul\":9928:9940   */\n      add\n        /* \"#utility.yul\":9921:9940   */\n      swap1\n      pop\n        /* \"#utility.yul\":9580:9946   */\n      swap2\n      swap1\n      pop\n      jump\t// out\n        /* \"#utility.yul\":9952:10371   */\n    tag_61:\n        /* \"#utility.yul\":10118:10122   */\n      0x00\n        /* \"#utility.yul\":10156:10158   */\n      0x20\n        /* \"#utility.yul\":10145:10154   */\n      dup3\n        /* \"#utility.yul\":10141:10159   */\n      add\n        /* \"#utility.yul\":10133:10159   */\n      swap1\n      pop\n        /* \"#utility.yul\":10205:10214   */\n      dup2\n        /* \"#utility.yul\":10199:10203   */\n      dup2\n        /* \"#utility.yul\":10195:10215   */\n      sub\n        /* \"#utility.yul\":10191:10192   */\n      0x00\n        /* \"#utility.yul\":10180:10189   */\n      dup4\n        /* \"#utility.yul\":10176:10193   */\n      add\n        /* \"#utility.yul\":10169:10216   */\n      mstore\n        /* \"#utility.yul\":10233:10364   */\n      tag_195\n        /* \"#utility.yul\":10359:10363   */\n      dup2\n        /* \"#utility.yul\":10233:10364   */\n      tag_96\n      jump\t// in\n    tag_195:\n        /* \"#utility.yul\":10225:10364   */\n      swap1\n      pop\n        /* \"#utility.yul\":9952:10371   */\n      swap2\n      swap1\n      pop\n      jump\t// out\n        /* \"#utility.yul\":10377:10568   */\n    tag_63:\n        /* \"#utility.yul\":10417:10420   */\n      0x00\n        /* \"#utility.yul\":10436:10456   */\n      tag_197\n        /* \"#utility.yul\":10454:10455   */\n      dup3\n        /* \"#utility.yul\":10436:10456   */\n      tag_72\n      jump\t// in\n    tag_197:\n        /* \"#utility.yul\":10431:10456   */\n      swap2\n      pop\n        /* \"#utility.yul\":10470:10490   */\n      tag_198\n        /* \"#utility.yul\":10488:10489   */\n      dup4\n        /* \"#utility.yul\":10470:10490   */\n      tag_72\n      jump\t// in\n    tag_198:\n        /* \"#utility.yul\":10465:10490   */\n      swap3\n      pop\n        /* \"#utility.yul\":10513:10514   */\n      dup3\n        /* \"#utility.yul\":10510:10511   */\n      dup3\n        /* \"#utility.yul\":10506:10515   */\n      add\n        /* \"#utility.yul\":10499:10515   */\n      swap1\n      pop\n        /* \"#utility.yul\":10534:10537   */\n      dup1\n        /* \"#utility.yul\":10531:10532   */\n      dup3\n        /* \"#utility.yul\":10528:10538   */\n      gt\n        /* \"#utility.yul\":10525:10561   */\n      iszero\n      tag_199\n      jumpi\n        /* \"#utility.yul\":10541:10559   */\n      tag_200\n      tag_86\n      jump\t// in\n    tag_200:\n        /* \"#utility.yul\":10525:10561   */\n    tag_199:\n        /* \"#utility.yul\":10377:10568   */\n      swap3\n      swap2\n      pop\n      pop\n      jump\t// out\n\n    auxdata: 0xa2646970667358221220120917fc7e6a182db0aa7dc248cc4f4e2f44679b6829eebad0925879d8b1ba3464736f6c634300081a0033\n}\n",
				"bytecode": {
					"linkReferences": {},
					"object": "608060405234801561000f575f80fd5b50604051610cb3380380610cb383398181016040528101906100319190610142565b5f73ffffffffffffffffffffffffffffffffffffffff168173ffffffffffffffffffffffffffffffffffffffff160361009f576040517f08c379a0000000000000000000000000000000000000000000000000000000008152600401610096906101c7565b60405180910390fd5b805f806101000a81548173ffffffffffffffffffffffffffffffffffffffff021916908373ffffffffffffffffffffffffffffffffffffffff160217905550506101e5565b5f80fd5b5f73ffffffffffffffffffffffffffffffffffffffff82169050919050565b5f610111826100e8565b9050919050565b61012181610107565b811461012b575f80fd5b50565b5f8151905061013c81610118565b92915050565b5f60208284031215610157576101566100e4565b5b5f6101648482850161012e565b91505092915050565b5f82825260208201905092915050565b7f546f6b656e20616464726573732063616e6e6f74206265207a65726f000000005f82015250565b5f6101b1601c8361016d565b91506101bc8261017d565b602082019050919050565b5f6020820190508181035f8301526101de816101a5565b9050919050565b610ac1806101f25f395ff3fe608060405260043610610049575f3560e01c806327e235e31461004d5780632e1a7d4d14610089578063b6b55f25146100a5578063f8b2cb4f146100cd578063fc0c546a14610109575b5f80fd5b348015610058575f80fd5b50610073600480360381019061006e919061057e565b610133565b60405161008091906105c1565b60405180910390f35b6100a3600480360381019061009e9190610604565b610148565b005b3480156100b0575f80fd5b506100cb60048036038101906100c69190610604565b61033e565b005b3480156100d8575f80fd5b506100f360048036038101906100ee919061057e565b6104b7565b60405161010091906105c1565b60405180910390f35b348015610114575f80fd5b5061011d6104fd565b60405161012a919061068a565b60405180910390f35b6001602052805f5260405f205f915090505481565b5f811161018a576040517f08c379a000000000000000000000000000000000000000000000000000000000815260040161018190610723565b60405180910390fd5b8060015f3373ffffffffffffffffffffffffffffffffffffffff1673ffffffffffffffffffffffffffffffffffffffff1681526020019081526020015f205411610209576040517f08c379a00000000000000000000000000000000000000000000000000000000081526004016102009061078b565b60405180910390fd5b8060015f3373ffffffffffffffffffffffffffffffffffffffff1673ffffffffffffffffffffffffffffffffffffffff1681526020019081526020015f205f82825461025591906107d6565b925050819055505f805f9054906101000a900473ffffffffffffffffffffffffffffffffffffffff1673ffffffffffffffffffffffffffffffffffffffff1663a9059cbb33846040518363ffffffff1660e01b81526004016102b8929190610818565b6020604051808303815f875af11580156102d4573d5f803e3d5ffd5b505050506040513d601f19601f820116820180604052508101906102f89190610874565b90508061033a576040517f08c379a0000000000000000000000000000000000000000000000000000000008152600401610331906108e9565b60405180910390fd5b5050565b5f8111610380576040517f08c379a000000000000000000000000000000000000000000000000000000000815260040161037790610977565b60405180910390fd5b5f805f9054906101000a900473ffffffffffffffffffffffffffffffffffffffff1673ffffffffffffffffffffffffffffffffffffffff166323b872dd3330856040518463ffffffff1660e01b81526004016103de93929190610995565b6020604051808303815f875af11580156103fa573d5f803e3d5ffd5b505050506040513d601f19601f8201168201806040525081019061041e9190610874565b905080610460576040517f08c379a000000000000000000000000000000000000000000000000000000000815260040161045790610a3a565b60405180910390fd5b8160015f3373ffffffffffffffffffffffffffffffffffffffff1673ffffffffffffffffffffffffffffffffffffffff1681526020019081526020015f205f8282546104ac9190610a58565b925050819055505050565b5f60015f8373ffffffffffffffffffffffffffffffffffffffff1673ffffffffffffffffffffffffffffffffffffffff1681526020019081526020015f20549050919050565b5f8054906101000a900473ffffffffffffffffffffffffffffffffffffffff1681565b5f80fd5b5f73ffffffffffffffffffffffffffffffffffffffff82169050919050565b5f61054d82610524565b9050919050565b61055d81610543565b8114610567575f80fd5b50565b5f8135905061057881610554565b92915050565b5f6020828403121561059357610592610520565b5b5f6105a08482850161056a565b91505092915050565b5f819050919050565b6105bb816105a9565b82525050565b5f6020820190506105d45f8301846105b2565b92915050565b6105e3816105a9565b81146105ed575f80fd5b50565b5f813590506105fe816105da565b92915050565b5f6020828403121561061957610618610520565b5b5f610626848285016105f0565b91505092915050565b5f819050919050565b5f61065261064d61064884610524565b61062f565b610524565b9050919050565b5f61066382610638565b9050919050565b5f61067482610659565b9050919050565b6106848161066a565b82525050565b5f60208201905061069d5f83018461067b565b92915050565b5f82825260208201905092915050565b7f576974686472617720616d6f756e74206d7573742062652067726561746572205f8201527f7468616e207a65726f2021000000000000000000000000000000000000000000602082015250565b5f61070d602b836106a3565b9150610718826106b3565b604082019050919050565b5f6020820190508181035f83015261073a81610701565b9050919050565b7f496e73756666696369656e742062616c616e636520696e2062616e6b000000005f82015250565b5f610775601c836106a3565b915061078082610741565b602082019050919050565b5f6020820190508181035f8301526107a281610769565b9050919050565b7f4e487b71000000000000000000000000000000000000000000000000000000005f52601160045260245ffd5b5f6107e0826105a9565b91506107eb836105a9565b9250828203905081811115610803576108026107a9565b5b92915050565b61081281610543565b82525050565b5f60408201905061082b5f830185610809565b61083860208301846105b2565b9392505050565b5f8115159050919050565b6108538161083f565b811461085d575f80fd5b50565b5f8151905061086e8161084a565b92915050565b5f6020828403121561088957610888610520565b5b5f61089684828501610860565b91505092915050565b7f546f6b656e207472616e73666572206661696c656400000000000000000000005f82015250565b5f6108d36015836106a3565b91506108de8261089f565b602082019050919050565b5f6020820190508181035f830152610900816108c7565b9050919050565b7f4465706f73697420616d6f756e74206d757374206265206772656174657220745f8201527f68616e207a65726f000000000000000000000000000000000000000000000000602082015250565b5f6109616028836106a3565b915061096c82610907565b604082019050919050565b5f6020820190508181035f83015261098e81610955565b9050919050565b5f6060820190506109a85f830186610809565b6109b56020830185610809565b6109c260408301846105b2565b949350505050565b7f546f6b656e207472616e73666572206661696c65642028636865636b20616c6c5f8201527f6f77616e63652900000000000000000000000000000000000000000000000000602082015250565b5f610a246027836106a3565b9150610a2f826109ca565b604082019050919050565b5f6020820190508181035f830152610a5181610a18565b9050919050565b5f610a62826105a9565b9150610a6d836105a9565b9250828201905080821115610a8557610a846107a9565b5b9291505056fea2646970667358221220120917fc7e6a182db0aa7dc248cc4f4e2f44679b6829eebad0925879d8b1ba3464736f6c634300081a0033",
					"opcodes": "PUSH1 0x80 PUSH1 0x40 MSTORE CALLVALUE DUP1 ISZERO PUSH2 0xF JUMPI PUSH0 DUP1 REVERT JUMPDEST POP PUSH1 0x40 MLOAD PUSH2 0xCB3 CODESIZE SUB DUP1 PUSH2 0xCB3 DUP4 CODECOPY DUP2 DUP2 ADD PUSH1 0x40 MSTORE DUP2 ADD SWAP1 PUSH2 0x31 SWAP2 SWAP1 PUSH2 0x142 JUMP JUMPDEST PUSH0 PUSH20 0xFFFFFFFFFFFFFFFFFFFFFFFFFFFFFFFFFFFFFFFF AND DUP2 PUSH20 0xFFFFFFFFFFFFFFFFFFFFFFFFFFFFFFFFFFFFFFFF AND SUB PUSH2 0x9F JUMPI PUSH1 0x40 MLOAD PUSH32 0x8C379A000000000000000000000000000000000000000000000000000000000 DUP2 MSTORE PUSH1 0x4 ADD PUSH2 0x96 SWAP1 PUSH2 0x1C7 JUMP JUMPDEST PUSH1 0x40 MLOAD DUP1 SWAP2 SUB SWAP1 REVERT JUMPDEST DUP1 PUSH0 DUP1 PUSH2 0x100 EXP DUP2 SLOAD DUP2 PUSH20 0xFFFFFFFFFFFFFFFFFFFFFFFFFFFFFFFFFFFFFFFF MUL NOT AND SWAP1 DUP4 PUSH20 0xFFFFFFFFFFFFFFFFFFFFFFFFFFFFFFFFFFFFFFFF AND MUL OR SWAP1 SSTORE POP POP PUSH2 0x1E5 JUMP JUMPDEST PUSH0 DUP1 REVERT JUMPDEST PUSH0 PUSH20 0xFFFFFFFFFFFFFFFFFFFFFFFFFFFFFFFFFFFFFFFF DUP3 AND SWAP1 POP SWAP2 SWAP1 POP JUMP JUMPDEST PUSH0 PUSH2 0x111 DUP3 PUSH2 0xE8 JUMP JUMPDEST SWAP1 POP SWAP2 SWAP1 POP JUMP JUMPDEST PUSH2 0x121 DUP2 PUSH2 0x107 JUMP JUMPDEST DUP2 EQ PUSH2 0x12B JUMPI PUSH0 DUP1 REVERT JUMPDEST POP JUMP JUMPDEST PUSH0 DUP2 MLOAD SWAP1 POP PUSH2 0x13C DUP2 PUSH2 0x118 JUMP JUMPDEST SWAP3 SWAP2 POP POP JUMP JUMPDEST PUSH0 PUSH1 0x20 DUP3 DUP5 SUB SLT ISZERO PUSH2 0x157 JUMPI PUSH2 0x156 PUSH2 0xE4 JUMP JUMPDEST JUMPDEST PUSH0 PUSH2 0x164 DUP5 DUP3 DUP6 ADD PUSH2 0x12E JUMP JUMPDEST SWAP2 POP POP SWAP3 SWAP2 POP POP JUMP JUMPDEST PUSH0 DUP3 DUP3 MSTORE PUSH1 0x20 DUP3 ADD SWAP1 POP SWAP3 SWAP2 POP POP JUMP JUMPDEST PUSH32 0x546F6B656E20616464726573732063616E6E6F74206265207A65726F00000000 PUSH0 DUP3 ADD MSTORE POP JUMP JUMPDEST PUSH0 PUSH2 0x1B1 PUSH1 0x1C DUP4 PUSH2 0x16D JUMP JUMPDEST SWAP2 POP PUSH2 0x1BC DUP3 PUSH2 0x17D JUMP JUMPDEST PUSH1 0x20 DUP3 ADD SWAP1 POP SWAP2 SWAP1 POP JUMP JUMPDEST PUSH0 PUSH1 0x20 DUP3 ADD SWAP1 POP DUP2 DUP2 SUB PUSH0 DUP4 ADD MSTORE PUSH2 0x1DE DUP2 PUSH2 0x1A5 JUMP JUMPDEST SWAP1 POP SWAP2 SWAP1 POP JUMP JUMPDEST PUSH2 0xAC1 DUP1 PUSH2 0x1F2 PUSH0 CODECOPY PUSH0 RETURN INVALID PUSH1 0x80 PUSH1 0x40 MSTORE PUSH1 0x4 CALLDATASIZE LT PUSH2 0x49 JUMPI PUSH0 CALLDATALOAD PUSH1 0xE0 SHR DUP1 PUSH4 0x27E235E3 EQ PUSH2 0x4D JUMPI DUP1 PUSH4 0x2E1A7D4D EQ PUSH2 0x89 JUMPI DUP1 PUSH4 0xB6B55F25 EQ PUSH2 0xA5 JUMPI DUP1 PUSH4 0xF8B2CB4F EQ PUSH2 0xCD JUMPI DUP1 PUSH4 0xFC0C546A EQ PUSH2 0x109 JUMPI JUMPDEST PUSH0 DUP1 REVERT JUMPDEST CALLVALUE DUP1 ISZERO PUSH2 0x58 JUMPI PUSH0 DUP1 REVERT JUMPDEST POP PUSH2 0x73 PUSH1 0x4 DUP1 CALLDATASIZE SUB DUP2 ADD SWAP1 PUSH2 0x6E SWAP2 SWAP1 PUSH2 0x57E JUMP JUMPDEST PUSH2 0x133 JUMP JUMPDEST PUSH1 0x40 MLOAD PUSH2 0x80 SWAP2 SWAP1 PUSH2 0x5C1 JUMP JUMPDEST PUSH1 0x40 MLOAD DUP1 SWAP2 SUB SWAP1 RETURN JUMPDEST PUSH2 0xA3 PUSH1 0x4 DUP1 CALLDATASIZE SUB DUP2 ADD SWAP1 PUSH2 0x9E SWAP2 SWAP1 PUSH2 0x604 JUMP JUMPDEST PUSH2 0x148 JUMP JUMPDEST STOP JUMPDEST CALLVALUE DUP1 ISZERO PUSH2 0xB0 JUMPI PUSH0 DUP1 REVERT JUMPDEST POP PUSH2 0xCB PUSH1 0x4 DUP1 CALLDATASIZE SUB DUP2 ADD SWAP1 PUSH2 0xC6 SWAP2 SWAP1 PUSH2 0x604 JUMP JUMPDEST PUSH2 0x33E JUMP JUMPDEST STOP JUMPDEST CALLVALUE DUP1 ISZERO PUSH2 0xD8 JUMPI PUSH0 DUP1 REVERT JUMPDEST POP PUSH2 0xF3 PUSH1 0x4 DUP1 CALLDATASIZE SUB DUP2 ADD SWAP1 PUSH2 0xEE SWAP2 SWAP1 PUSH2 0x57E JUMP JUMPDEST PUSH2 0x4B7 JUMP JUMPDEST PUSH1 0x40 MLOAD PUSH2 0x100 SWAP2 SWAP1 PUSH2 0x5C1 JUMP JUMPDEST PUSH1 0x40 MLOAD DUP1 SWAP2 SUB SWAP1 RETURN JUMPDEST CALLVALUE DUP1 ISZERO PUSH2 0x114 JUMPI PUSH0 DUP1 REVERT JUMPDEST POP PUSH2 0x11D PUSH2 0x4FD JUMP JUMPDEST PUSH1 0x40 MLOAD PUSH2 0x12A SWAP2 SWAP1 PUSH2 0x68A JUMP JUMPDEST PUSH1 0x40 MLOAD DUP1 SWAP2 SUB SWAP1 RETURN JUMPDEST PUSH1 0x1 PUSH1 0x20 MSTORE DUP1 PUSH0 MSTORE PUSH1 0x40 PUSH0 KECCAK256 PUSH0 SWAP2 POP SWAP1 POP SLOAD DUP2 JUMP JUMPDEST PUSH0 DUP2 GT PUSH2 0x18A JUMPI PUSH1 0x40 MLOAD PUSH32 0x8C379A000000000000000000000000000000000000000000000000000000000 DUP2 MSTORE PUSH1 0x4 ADD PUSH2 0x181 SWAP1 PUSH2 0x723 JUMP JUMPDEST PUSH1 0x40 MLOAD DUP1 SWAP2 SUB SWAP1 REVERT JUMPDEST DUP1 PUSH1 0x1 PUSH0 CALLER PUSH20 0xFFFFFFFFFFFFFFFFFFFFFFFFFFFFFFFFFFFFFFFF AND PUSH20 0xFFFFFFFFFFFFFFFFFFFFFFFFFFFFFFFFFFFFFFFF AND DUP2 MSTORE PUSH1 0x20 ADD SWAP1 DUP2 MSTORE PUSH1 0x20 ADD PUSH0 KECCAK256 SLOAD GT PUSH2 0x209 JUMPI PUSH1 0x40 MLOAD PUSH32 0x8C379A000000000000000000000000000000000000000000000000000000000 DUP2 MSTORE PUSH1 0x4 ADD PUSH2 0x200 SWAP1 PUSH2 0x78B JUMP JUMPDEST PUSH1 0x40 MLOAD DUP1 SWAP2 SUB SWAP1 REVERT JUMPDEST DUP1 PUSH1 0x1 PUSH0 CALLER PUSH20 0xFFFFFFFFFFFFFFFFFFFFFFFFFFFFFFFFFFFFFFFF AND PUSH20 0xFFFFFFFFFFFFFFFFFFFFFFFFFFFFFFFFFFFFFFFF AND DUP2 MSTORE PUSH1 0x20 ADD SWAP1 DUP2 MSTORE PUSH1 0x20 ADD PUSH0 KECCAK256 PUSH0 DUP3 DUP3 SLOAD PUSH2 0x255 SWAP2 SWAP1 PUSH2 0x7D6 JUMP JUMPDEST SWAP3 POP POP DUP2 SWAP1 SSTORE POP PUSH0 DUP1 PUSH0 SWAP1 SLOAD SWAP1 PUSH2 0x100 EXP SWAP1 DIV PUSH20 0xFFFFFFFFFFFFFFFFFFFFFFFFFFFFFFFFFFFFFFFF AND PUSH20 0xFFFFFFFFFFFFFFFFFFFFFFFFFFFFFFFFFFFFFFFF AND PUSH4 0xA9059CBB CALLER DUP5 PUSH1 0x40 MLOAD DUP4 PUSH4 0xFFFFFFFF AND PUSH1 0xE0 SHL DUP2 MSTORE PUSH1 0x4 ADD PUSH2 0x2B8 SWAP3 SWAP2 SWAP1 PUSH2 0x818 JUMP JUMPDEST PUSH1 0x20 PUSH1 0x40 MLOAD DUP1 DUP4 SUB DUP2 PUSH0 DUP8 GAS CALL ISZERO DUP1 ISZERO PUSH2 0x2D4 JUMPI RETURNDATASIZE PUSH0 DUP1 RETURNDATACOPY RETURNDATASIZE PUSH0 REVERT JUMPDEST POP POP POP POP PUSH1 0x40 MLOAD RETURNDATASIZE PUSH1 0x1F NOT PUSH1 0x1F DUP3 ADD AND DUP3 ADD DUP1 PUSH1 0x40 MSTORE POP DUP2 ADD SWAP1 PUSH2 0x2F8 SWAP2 SWAP1 PUSH2 0x874 JUMP JUMPDEST SWAP1 POP DUP1 PUSH2 0x33A JUMPI PUSH1 0x40 MLOAD PUSH32 0x8C379A000000000000000000000000000000000000000000000000000000000 DUP2 MSTORE PUSH1 0x4 ADD PUSH2 0x331 SWAP1 PUSH2 0x8E9 JUMP JUMPDEST PUSH1 0x40 MLOAD DUP1 SWAP2 SUB SWAP1 REVERT JUMPDEST POP POP JUMP JUMPDEST PUSH0 DUP2 GT PUSH2 0x380 JUMPI PUSH1 0x40 MLOAD PUSH32 0x8C379A000000000000000000000000000000000000000000000000000000000 DUP2 MSTORE PUSH1 0x4 ADD PUSH2 0x377 SWAP1 PUSH2 0x977 JUMP JUMPDEST PUSH1 0x40 MLOAD DUP1 SWAP2 SUB SWAP1 REVERT JUMPDEST PUSH0 DUP1 PUSH0 SWAP1 SLOAD SWAP1 PUSH2 0x100 EXP SWAP1 DIV PUSH20 0xFFFFFFFFFFFFFFFFFFFFFFFFFFFFFFFFFFFFFFFF AND PUSH20 0xFFFFFFFFFFFFFFFFFFFFFFFFFFFFFFFFFFFFFFFF AND PUSH4 0x23B872DD CALLER ADDRESS DUP6 PUSH1 0x40 MLOAD DUP5 PUSH4 0xFFFFFFFF AND PUSH1 0xE0 SHL DUP2 MSTORE PUSH1 0x4 ADD PUSH2 0x3DE SWAP4 SWAP3 SWAP2 SWAP1 PUSH2 0x995 JUMP JUMPDEST PUSH1 0x20 PUSH1 0x40 MLOAD DUP1 DUP4 SUB DUP2 PUSH0 DUP8 GAS CALL ISZERO DUP1 ISZERO PUSH2 0x3FA JUMPI RETURNDATASIZE PUSH0 DUP1 RETURNDATACOPY RETURNDATASIZE PUSH0 REVERT JUMPDEST POP POP POP POP PUSH1 0x40 MLOAD RETURNDATASIZE PUSH1 0x1F NOT PUSH1 0x1F DUP3 ADD AND DUP3 ADD DUP1 PUSH1 0x40 MSTORE POP DUP2 ADD SWAP1 PUSH2 0x41E SWAP2 SWAP1 PUSH2 0x874 JUMP JUMPDEST SWAP1 POP DUP1 PUSH2 0x460 JUMPI PUSH1 0x40 MLOAD PUSH32 0x8C379A000000000000000000000000000000000000000000000000000000000 DUP2 MSTORE PUSH1 0x4 ADD PUSH2 0x457 SWAP1 PUSH2 0xA3A JUMP JUMPDEST PUSH1 0x40 MLOAD DUP1 SWAP2 SUB SWAP1 REVERT JUMPDEST DUP2 PUSH1 0x1 PUSH0 CALLER PUSH20 0xFFFFFFFFFFFFFFFFFFFFFFFFFFFFFFFFFFFFFFFF AND PUSH20 0xFFFFFFFFFFFFFFFFFFFFFFFFFFFFFFFFFFFFFFFF AND DUP2 MSTORE PUSH1 0x20 ADD SWAP1 DUP2 MSTORE PUSH1 0x20 ADD PUSH0 KECCAK256 PUSH0 DUP3 DUP3 SLOAD PUSH2 0x4AC SWAP2 SWAP1 PUSH2 0xA58 JUMP JUMPDEST SWAP3 POP POP DUP2 SWAP1 SSTORE POP POP POP JUMP JUMPDEST PUSH0 PUSH1 0x1 PUSH0 DUP4 PUSH20 0xFFFFFFFFFFFFFFFFFFFFFFFFFFFFFFFFFFFFFFFF AND PUSH20 0xFFFFFFFFFFFFFFFFFFFFFFFFFFFFFFFFFFFFFFFF AND DUP2 MSTORE PUSH1 0x20 ADD SWAP1 DUP2 MSTORE PUSH1 0x20 ADD PUSH0 KECCAK256 SLOAD SWAP1 POP SWAP2 SWAP1 POP JUMP JUMPDEST PUSH0 DUP1 SLOAD SWAP1 PUSH2 0x100 EXP SWAP1 DIV PUSH20 0xFFFFFFFFFFFFFFFFFFFFFFFFFFFFFFFFFFFFFFFF AND DUP2 JUMP JUMPDEST PUSH0 DUP1 REVERT JUMPDEST PUSH0 PUSH20 0xFFFFFFFFFFFFFFFFFFFFFFFFFFFFFFFFFFFFFFFF DUP3 AND SWAP1 POP SWAP2 SWAP1 POP JUMP JUMPDEST PUSH0 PUSH2 0x54D DUP3 PUSH2 0x524 JUMP JUMPDEST SWAP1 POP SWAP2 SWAP1 POP JUMP JUMPDEST PUSH2 0x55D DUP2 PUSH2 0x543 JUMP JUMPDEST DUP2 EQ PUSH2 0x567 JUMPI PUSH0 DUP1 REVERT JUMPDEST POP JUMP JUMPDEST PUSH0 DUP2 CALLDATALOAD SWAP1 POP PUSH2 0x578 DUP2 PUSH2 0x554 JUMP JUMPDEST SWAP3 SWAP2 POP POP JUMP JUMPDEST PUSH0 PUSH1 0x20 DUP3 DUP5 SUB SLT ISZERO PUSH2 0x593 JUMPI PUSH2 0x592 PUSH2 0x520 JUMP JUMPDEST JUMPDEST PUSH0 PUSH2 0x5A0 DUP5 DUP3 DUP6 ADD PUSH2 0x56A JUMP JUMPDEST SWAP2 POP POP SWAP3 SWAP2 POP POP JUMP JUMPDEST PUSH0 DUP2 SWAP1 POP SWAP2 SWAP1 POP JUMP JUMPDEST PUSH2 0x5BB DUP2 PUSH2 0x5A9 JUMP JUMPDEST DUP3 MSTORE POP POP JUMP JUMPDEST PUSH0 PUSH1 0x20 DUP3 ADD SWAP1 POP PUSH2 0x5D4 PUSH0 DUP4 ADD DUP5 PUSH2 0x5B2 JUMP JUMPDEST SWAP3 SWAP2 POP POP JUMP JUMPDEST PUSH2 0x5E3 DUP2 PUSH2 0x5A9 JUMP JUMPDEST DUP2 EQ PUSH2 0x5ED JUMPI PUSH0 DUP1 REVERT JUMPDEST POP JUMP JUMPDEST PUSH0 DUP2 CALLDATALOAD SWAP1 POP PUSH2 0x5FE DUP2 PUSH2 0x5DA JUMP JUMPDEST SWAP3 SWAP2 POP POP JUMP JUMPDEST PUSH0 PUSH1 0x20 DUP3 DUP5 SUB SLT ISZERO PUSH2 0x619 JUMPI PUSH2 0x618 PUSH2 0x520 JUMP JUMPDEST JUMPDEST PUSH0 PUSH2 0x626 DUP5 DUP3 DUP6 ADD PUSH2 0x5F0 JUMP JUMPDEST SWAP2 POP POP SWAP3 SWAP2 POP POP JUMP JUMPDEST PUSH0 DUP2 SWAP1 POP SWAP2 SWAP1 POP JUMP JUMPDEST PUSH0 PUSH2 0x652 PUSH2 0x64D PUSH2 0x648 DUP5 PUSH2 0x524 JUMP JUMPDEST PUSH2 0x62F JUMP JUMPDEST PUSH2 0x524 JUMP JUMPDEST SWAP1 POP SWAP2 SWAP1 POP JUMP JUMPDEST PUSH0 PUSH2 0x663 DUP3 PUSH2 0x638 JUMP JUMPDEST SWAP1 POP SWAP2 SWAP1 POP JUMP JUMPDEST PUSH0 PUSH2 0x674 DUP3 PUSH2 0x659 JUMP JUMPDEST SWAP1 POP SWAP2 SWAP1 POP JUMP JUMPDEST PUSH2 0x684 DUP2 PUSH2 0x66A JUMP JUMPDEST DUP3 MSTORE POP POP JUMP JUMPDEST PUSH0 PUSH1 0x20 DUP3 ADD SWAP1 POP PUSH2 0x69D PUSH0 DUP4 ADD DUP5 PUSH2 0x67B JUMP JUMPDEST SWAP3 SWAP2 POP POP JUMP JUMPDEST PUSH0 DUP3 DUP3 MSTORE PUSH1 0x20 DUP3 ADD SWAP1 POP SWAP3 SWAP2 POP POP JUMP JUMPDEST PUSH32 0x576974686472617720616D6F756E74206D757374206265206772656174657220 PUSH0 DUP3 ADD MSTORE PUSH32 0x7468616E207A65726F2021000000000000000000000000000000000000000000 PUSH1 0x20 DUP3 ADD MSTORE POP JUMP JUMPDEST PUSH0 PUSH2 0x70D PUSH1 0x2B DUP4 PUSH2 0x6A3 JUMP JUMPDEST SWAP2 POP PUSH2 0x718 DUP3 PUSH2 0x6B3 JUMP JUMPDEST PUSH1 0x40 DUP3 ADD SWAP1 POP SWAP2 SWAP1 POP JUMP JUMPDEST PUSH0 PUSH1 0x20 DUP3 ADD SWAP1 POP DUP2 DUP2 SUB PUSH0 DUP4 ADD MSTORE PUSH2 0x73A DUP2 PUSH2 0x701 JUMP JUMPDEST SWAP1 POP SWAP2 SWAP1 POP JUMP JUMPDEST PUSH32 0x496E73756666696369656E742062616C616E636520696E2062616E6B00000000 PUSH0 DUP3 ADD MSTORE POP JUMP JUMPDEST PUSH0 PUSH2 0x775 PUSH1 0x1C DUP4 PUSH2 0x6A3 JUMP JUMPDEST SWAP2 POP PUSH2 0x780 DUP3 PUSH2 0x741 JUMP JUMPDEST PUSH1 0x20 DUP3 ADD SWAP1 POP SWAP2 SWAP1 POP JUMP JUMPDEST PUSH0 PUSH1 0x20 DUP3 ADD SWAP1 POP DUP2 DUP2 SUB PUSH0 DUP4 ADD MSTORE PUSH2 0x7A2 DUP2 PUSH2 0x769 JUMP JUMPDEST SWAP1 POP SWAP2 SWAP1 POP JUMP JUMPDEST PUSH32 0x4E487B7100000000000000000000000000000000000000000000000000000000 PUSH0 MSTORE PUSH1 0x11 PUSH1 0x4 MSTORE PUSH1 0x24 PUSH0 REVERT JUMPDEST PUSH0 PUSH2 0x7E0 DUP3 PUSH2 0x5A9 JUMP JUMPDEST SWAP2 POP PUSH2 0x7EB DUP4 PUSH2 0x5A9 JUMP JUMPDEST SWAP3 POP DUP3 DUP3 SUB SWAP1 POP DUP2 DUP2 GT ISZERO PUSH2 0x803 JUMPI PUSH2 0x802 PUSH2 0x7A9 JUMP JUMPDEST JUMPDEST SWAP3 SWAP2 POP POP JUMP JUMPDEST PUSH2 0x812 DUP2 PUSH2 0x543 JUMP JUMPDEST DUP3 MSTORE POP POP JUMP JUMPDEST PUSH0 PUSH1 0x40 DUP3 ADD SWAP1 POP PUSH2 0x82B PUSH0 DUP4 ADD DUP6 PUSH2 0x809 JUMP JUMPDEST PUSH2 0x838 PUSH1 0x20 DUP4 ADD DUP5 PUSH2 0x5B2 JUMP JUMPDEST SWAP4 SWAP3 POP POP POP JUMP JUMPDEST PUSH0 DUP2 ISZERO ISZERO SWAP1 POP SWAP2 SWAP1 POP JUMP JUMPDEST PUSH2 0x853 DUP2 PUSH2 0x83F JUMP JUMPDEST DUP2 EQ PUSH2 0x85D JUMPI PUSH0 DUP1 REVERT JUMPDEST POP JUMP JUMPDEST PUSH0 DUP2 MLOAD SWAP1 POP PUSH2 0x86E DUP2 PUSH2 0x84A JUMP JUMPDEST SWAP3 SWAP2 POP POP JUMP JUMPDEST PUSH0 PUSH1 0x20 DUP3 DUP5 SUB SLT ISZERO PUSH2 0x889 JUMPI PUSH2 0x888 PUSH2 0x520 JUMP JUMPDEST JUMPDEST PUSH0 PUSH2 0x896 DUP5 DUP3 DUP6 ADD PUSH2 0x860 JUMP JUMPDEST SWAP2 POP POP SWAP3 SWAP2 POP POP JUMP JUMPDEST PUSH32 0x546F6B656E207472616E73666572206661696C65640000000000000000000000 PUSH0 DUP3 ADD MSTORE POP JUMP JUMPDEST PUSH0 PUSH2 0x8D3 PUSH1 0x15 DUP4 PUSH2 0x6A3 JUMP JUMPDEST SWAP2 POP PUSH2 0x8DE DUP3 PUSH2 0x89F JUMP JUMPDEST PUSH1 0x20 DUP3 ADD SWAP1 POP SWAP2 SWAP1 POP JUMP JUMPDEST PUSH0 PUSH1 0x20 DUP3 ADD SWAP1 POP DUP2 DUP2 SUB PUSH0 DUP4 ADD MSTORE PUSH2 0x900 DUP2 PUSH2 0x8C7 JUMP JUMPDEST SWAP1 POP SWAP2 SWAP1 POP JUMP JUMPDEST PUSH32 0x4465706F73697420616D6F756E74206D75737420626520677265617465722074 PUSH0 DUP3 ADD MSTORE PUSH32 0x68616E207A65726F000000000000000000000000000000000000000000000000 PUSH1 0x20 DUP3 ADD MSTORE POP JUMP JUMPDEST PUSH0 PUSH2 0x961 PUSH1 0x28 DUP4 PUSH2 0x6A3 JUMP JUMPDEST SWAP2 POP PUSH2 0x96C DUP3 PUSH2 0x907 JUMP JUMPDEST PUSH1 0x40 DUP3 ADD SWAP1 POP SWAP2 SWAP1 POP JUMP JUMPDEST PUSH0 PUSH1 0x20 DUP3 ADD SWAP1 POP DUP2 DUP2 SUB PUSH0 DUP4 ADD MSTORE PUSH2 0x98E DUP2 PUSH2 0x955 JUMP JUMPDEST SWAP1 POP SWAP2 SWAP1 POP JUMP JUMPDEST PUSH0 PUSH1 0x60 DUP3 ADD SWAP1 POP PUSH2 0x9A8 PUSH0 DUP4 ADD DUP7 PUSH2 0x809 JUMP JUMPDEST PUSH2 0x9B5 PUSH1 0x20 DUP4 ADD DUP6 PUSH2 0x809 JUMP JUMPDEST PUSH2 0x9C2 PUSH1 0x40 DUP4 ADD DUP5 PUSH2 0x5B2 JUMP JUMPDEST SWAP5 SWAP4 POP POP POP POP JUMP JUMPDEST PUSH32 0x546F6B656E207472616E73666572206661696C65642028636865636B20616C6C PUSH0 DUP3 ADD MSTORE PUSH32 0x6F77616E63652900000000000000000000000000000000000000000000000000 PUSH1 0x20 DUP3 ADD MSTORE POP JUMP JUMPDEST PUSH0 PUSH2 0xA24 PUSH1 0x27 DUP4 PUSH2 0x6A3 JUMP JUMPDEST SWAP2 POP PUSH2 0xA2F DUP3 PUSH2 0x9CA JUMP JUMPDEST PUSH1 0x40 DUP3 ADD SWAP1 POP SWAP2 SWAP1 POP JUMP JUMPDEST PUSH0 PUSH1 0x20 DUP3 ADD SWAP1 POP DUP2 DUP2 SUB PUSH0 DUP4 ADD MSTORE PUSH2 0xA51 DUP2 PUSH2 0xA18 JUMP JUMPDEST SWAP1 POP SWAP2 SWAP1 POP JUMP JUMPDEST PUSH0 PUSH2 0xA62 DUP3 PUSH2 0x5A9 JUMP JUMPDEST SWAP2 POP PUSH2 0xA6D DUP4 PUSH2 0x5A9 JUMP JUMPDEST SWAP3 POP DUP3 DUP3 ADD SWAP1 POP DUP1 DUP3 GT ISZERO PUSH2 0xA85 JUMPI PUSH2 0xA84 PUSH2 0x7A9 JUMP JUMPDEST JUMPDEST SWAP3 SWAP2 POP POP JUMP INVALID LOG2 PUSH5 0x6970667358 0x22 SLT KECCAK256 SLT MULMOD OR 0xFC PUSH31 0x6A182DB0AA7DC248CC4F4E2F44679B6829EEBAD0925879D8B1BA3464736F6C PUSH4 0x4300081A STOP CALLER "
				},
				"gasEstimates": {
					"creation": {
						"codeDepositCost": "550600",
						"executionCost": "infinite",
						"totalCost": "infinite"
					},
					"external": {
						"balances(address)": "2780",
						"deposit(uint256)": "infinite",
						"getBalance(address)": "2873",
						"token()": "infinite",
						"withdraw(uint256)": "infinite"
					}
				},
				"methodIdentifiers": {
					"balances(address)": "27e235e3",
					"deposit(uint256)": "b6b55f25",
					"getBalance(address)": "f8b2cb4f",
					"token()": "fc0c546a",
					"withdraw(uint256)": "2e1a7d4d"
				}
			},
			"storageLayout": {
				"storage": [
					{
						"astId": 486,
						"contract": "w1d5/BaseERC20.sol:TokenBank",
						"label": "token",
						"offset": 0,
						"slot": "0",
						"type": "t_contract(BaseERC20)483"
					},
					{
						"astId": 490,
						"contract": "w1d5/BaseERC20.sol:TokenBank",
						"label": "balances",
						"offset": 0,
						"slot": "1",
						"type": "t_mapping(t_address,t_uint256)"
					}
				],
				"types": {
					"t_address": {
						"encoding": "inplace",
						"label": "address",
						"numberOfBytes": "20"
					},
					"t_contract(BaseERC20)483": {
						"encoding": "inplace",
						"label": "contract BaseERC20",
						"numberOfBytes": "20"
					},
					"t_mapping(t_address,t_uint256)": {
						"encoding": "mapping",
						"key": "t_address",
						"label": "mapping(address => uint256)",
						"numberOfBytes": "32",
						"value": "t_uint256"
					},
					"t_uint256": {
						"encoding": "inplace",
						"label": "uint256",
						"numberOfBytes": "32"
					}
				}
			},
			"userdoc": {
				"kind": "user",
				"methods": {
					"getBalance(address)": {
						"notice": "查询银行存款余额（自测使用）"
					},
					"withdraw(uint256)": {
						"notice": "从银行取出token"
					}
				},
				"version": 1
			}
		}
	}
}