{
	"baisc/07-array-demo.sol": {
		"array_demo": {
			"abi": [
				{
					"inputs": [],
					"stateMutability": "nonpayable",
					"type": "constructor"
				},
				{
					"inputs": [
						{
							"internalType": "uint8",
							"name": "_age",
							"type": "uint8"
						}
					],
					"name": "addAge",
					"outputs": [],
					"stateMutability": "nonpayable",
					"type": "function"
				},
				{
					"inputs": [
						{
							"internalType": "string",
							"name": "_name",
							"type": "string"
						}
					],
					"name": "addName",
					"outputs": [],
					"stateMutability": "nonpayable",
					"type": "function"
				},
				{
					"inputs": [
						{
							"internalType": "uint256",
							"name": "",
							"type": "uint256"
						}
					],
					"name": "ages",
					"outputs": [
						{
							"internalType": "uint8",
							"name": "",
							"type": "uint8"
						}
					],
					"stateMutability": "view",
					"type": "function"
				},
				{
					"inputs": [],
					"name": "getLength",
					"outputs": [
						{
							"internalType": "uint256",
							"name": "",
							"type": "uint256"
						},
						{
							"internalType": "uint256",
							"name": "",
							"type": "uint256"
						}
					],
					"stateMutability": "view",
					"type": "function"
				},
				{
					"inputs": [
						{
							"internalType": "uint256",
							"name": "",
							"type": "uint256"
						}
					],
					"name": "names",
					"outputs": [
						{
							"internalType": "string",
							"name": "",
							"type": "string"
						}
					],
					"stateMutability": "view",
					"type": "function"
				}
			],
			"devdoc": {
				"kind": "dev",
				"methods": {},
				"version": 1
			},
			"evm": {
				"assembly": "    /* \"baisc/07-array-demo.sol\":169:1233  contract array_demo {... */\n  mstore(0x40, 0x80)\n    /* \"baisc/07-array-demo.sol\":348:709  constructor() {... */\n  callvalue\n  dup1\n  iszero\n  tag_1\n  jumpi\n  0x00\n  dup1\n  revert\ntag_1:\n  pop\n    /* \"baisc/07-array-demo.sol\":433:454  names[0] = \"zhangsan\" */\n  mload(0x40)\n  dup1\n  0x40\n  add\n  0x40\n  mstore\n  dup1\n  0x08\n  dup2\n  mstore\n  0x20\n  add\n  0x7a68616e6773616e000000000000000000000000000000000000000000000000\n  dup2\n  mstore\n  pop\n    /* \"baisc/07-array-demo.sol\":433:438  names */\n  0x00\n    /* \"baisc/07-array-demo.sol\":439:440  0 */\n  dup1\n    /* \"baisc/07-array-demo.sol\":433:441  names[0] */\n  0x05\n  dup2\n  lt\n  tag_4\n  jumpi\n  tag_5\n  tag_6\n  jump\t// in\ntag_5:\ntag_4:\n  add\n    /* \"baisc/07-array-demo.sol\":433:454  names[0] = \"zhangsan\" */\n  swap1\n  dup2\n  tag_8\n  swap2\n  swap1\n  tag_9\n  jump\t// in\ntag_8:\n  pop\n    /* \"baisc/07-array-demo.sol\":465:482  names[1] = \"lisi\" */\n  mload(0x40)\n  dup1\n  0x40\n  add\n  0x40\n  mstore\n  dup1\n  0x04\n  dup2\n  mstore\n  0x20\n  add\n  0x6c69736900000000000000000000000000000000000000000000000000000000\n  dup2\n  mstore\n  pop\n    /* \"baisc/07-array-demo.sol\":465:470  names */\n  0x00\n    /* \"baisc/07-array-demo.sol\":471:472  1 */\n  0x01\n    /* \"baisc/07-array-demo.sol\":465:473  names[1] */\n  0x05\n  dup2\n  lt\n  tag_10\n  jumpi\n  tag_11\n  tag_6\n  jump\t// in\ntag_11:\ntag_10:\n  add\n    /* \"baisc/07-array-demo.sol\":465:482  names[1] = \"lisi\" */\n  swap1\n  dup2\n  tag_13\n  swap2\n  swap1\n  tag_9\n  jump\t// in\ntag_13:\n  pop\n    /* \"baisc/07-array-demo.sol\":493:517  names[2] = \"sunzhenning\" */\n  mload(0x40)\n  dup1\n  0x40\n  add\n  0x40\n  mstore\n  dup1\n  0x0b\n  dup2\n  mstore\n  0x20\n  add\n  0x73756e7a68656e6e696e67000000000000000000000000000000000000000000\n  dup2\n  mstore\n  pop\n    /* \"baisc/07-array-demo.sol\":493:498  names */\n  0x00\n    /* \"baisc/07-array-demo.sol\":499:500  2 */\n  0x02\n    /* \"baisc/07-array-demo.sol\":493:501  names[2] */\n  0x05\n  dup2\n  lt\n  tag_14\n  jumpi\n  tag_15\n  tag_6\n  jump\t// in\ntag_15:\ntag_14:\n  add\n    /* \"baisc/07-array-demo.sol\":493:517  names[2] = \"sunzhenning\" */\n  swap1\n  dup2\n  tag_17\n  swap2\n  swap1\n  tag_9\n  jump\t// in\ntag_17:\n  pop\n    /* \"baisc/07-array-demo.sol\":530:534  ages */\n  0x05\n    /* \"baisc/07-array-demo.sol\":540:542  20 */\n  0x14\n    /* \"baisc/07-array-demo.sol\":530:543  ages.push(20) */\n  swap1\n  dup1\n  0x01\n  dup2\n  sload\n  add\n  dup1\n  dup3\n  sstore\n  dup1\n  swap2\n  pop\n  pop\n  0x01\n  swap1\n  sub\n  swap1\n  0x00\n  mstore\n  keccak256(0x00, 0x20)\n  swap1\n  0x20\n  swap2\n  dup3\n  dup3\n  div\n  add\n  swap2\n  swap1\n  mod\n  swap1\n  swap2\n  swap1\n  swap2\n  swap1\n  swap2\n  0x0100\n  exp\n  dup2\n  sload\n  dup2\n  0xff\n  mul\n  not\n  and\n  swap1\n  dup4\n  0xff\n  and\n  mul\n  or\n  swap1\n  sstore\n  pop\n    /* \"baisc/07-array-demo.sol\":169:1233  contract array_demo {... */\n  jump(tag_19)\n    /* \"#utility.yul\":7:187   */\ntag_6:\n    /* \"#utility.yul\":55:132   */\n  0x4e487b7100000000000000000000000000000000000000000000000000000000\n    /* \"#utility.yul\":52:53   */\n  0x00\n    /* \"#utility.yul\":45:133   */\n  mstore\n    /* \"#utility.yul\":152:156   */\n  0x32\n    /* \"#utility.yul\":149:150   */\n  0x04\n    /* \"#utility.yul\":142:157   */\n  mstore\n    /* \"#utility.yul\":176:180   */\n  0x24\n    /* \"#utility.yul\":173:174   */\n  0x00\n    /* \"#utility.yul\":166:181   */\n  revert\n    /* \"#utility.yul\":193:292   */\ntag_20:\n    /* \"#utility.yul\":245:251   */\n  0x00\n    /* \"#utility.yul\":279:284   */\n  dup2\n    /* \"#utility.yul\":273:285   */\n  mload\n    /* \"#utility.yul\":263:285   */\n  swap1\n  pop\n    /* \"#utility.yul\":193:292   */\n  swap2\n  swap1\n  pop\n  jump\t// out\n    /* \"#utility.yul\":298:478   */\ntag_21:\n    /* \"#utility.yul\":346:423   */\n  0x4e487b7100000000000000000000000000000000000000000000000000000000\n    /* \"#utility.yul\":343:344   */\n  0x00\n    /* \"#utility.yul\":336:424   */\n  mstore\n    /* \"#utility.yul\":443:447   */\n  0x41\n    /* \"#utility.yul\":440:441   */\n  0x04\n    /* \"#utility.yul\":433:448   */\n  mstore\n    /* \"#utility.yul\":467:471   */\n  0x24\n    /* \"#utility.yul\":464:465   */\n  0x00\n    /* \"#utility.yul\":457:472   */\n  revert\n    /* \"#utility.yul\":484:664   */\ntag_22:\n    /* \"#utility.yul\":532:609   */\n  0x4e487b7100000000000000000000000000000000000000000000000000000000\n    /* \"#utility.yul\":529:530   */\n  0x00\n    /* \"#utility.yul\":522:610   */\n  mstore\n    /* \"#utility.yul\":629:633   */\n  0x22\n    /* \"#utility.yul\":626:627   */\n  0x04\n    /* \"#utility.yul\":619:634   */\n  mstore\n    /* \"#utility.yul\":653:657   */\n  0x24\n    /* \"#utility.yul\":650:651   */\n  0x00\n    /* \"#utility.yul\":643:658   */\n  revert\n    /* \"#utility.yul\":670:990   */\ntag_23:\n    /* \"#utility.yul\":714:720   */\n  0x00\n    /* \"#utility.yul\":751:752   */\n  0x02\n    /* \"#utility.yul\":745:749   */\n  dup3\n    /* \"#utility.yul\":741:753   */\n  div\n    /* \"#utility.yul\":731:753   */\n  swap1\n  pop\n    /* \"#utility.yul\":798:799   */\n  0x01\n    /* \"#utility.yul\":792:796   */\n  dup3\n    /* \"#utility.yul\":788:800   */\n  and\n    /* \"#utility.yul\":819:837   */\n  dup1\n    /* \"#utility.yul\":809:890   */\n  tag_46\n  jumpi\n    /* \"#utility.yul\":875:879   */\n  0x7f\n    /* \"#utility.yul\":867:873   */\n  dup3\n    /* \"#utility.yul\":863:880   */\n  and\n    /* \"#utility.yul\":853:880   */\n  swap2\n  pop\n    /* \"#utility.yul\":809:890   */\ntag_46:\n    /* \"#utility.yul\":937:939   */\n  0x20\n    /* \"#utility.yul\":929:935   */\n  dup3\n    /* \"#utility.yul\":926:940   */\n  lt\n    /* \"#utility.yul\":906:924   */\n  dup2\n    /* \"#utility.yul\":903:941   */\n  sub\n    /* \"#utility.yul\":900:984   */\n  tag_47\n  jumpi\n    /* \"#utility.yul\":956:974   */\n  tag_48\n  tag_22\n  jump\t// in\ntag_48:\n    /* \"#utility.yul\":900:984   */\ntag_47:\n    /* \"#utility.yul\":721:990   */\n  pop\n    /* \"#utility.yul\":670:990   */\n  swap2\n  swap1\n  pop\n  jump\t// out\n    /* \"#utility.yul\":996:1137   */\ntag_24:\n    /* \"#utility.yul\":1045:1049   */\n  0x00\n    /* \"#utility.yul\":1068:1071   */\n  dup2\n    /* \"#utility.yul\":1060:1071   */\n  swap1\n  pop\n    /* \"#utility.yul\":1091:1094   */\n  dup2\n    /* \"#utility.yul\":1088:1089   */\n  0x00\n    /* \"#utility.yul\":1081:1095   */\n  mstore\n    /* \"#utility.yul\":1125:1129   */\n  0x20\n    /* \"#utility.yul\":1122:1123   */\n  0x00\n    /* \"#utility.yul\":1112:1130   */\n  keccak256\n    /* \"#utility.yul\":1104:1130   */\n  swap1\n  pop\n    /* \"#utility.yul\":996:1137   */\n  swap2\n  swap1\n  pop\n  jump\t// out\n    /* \"#utility.yul\":1143:1236   */\ntag_25:\n    /* \"#utility.yul\":1180:1186   */\n  0x00\n    /* \"#utility.yul\":1227:1229   */\n  0x20\n    /* \"#utility.yul\":1222:1224   */\n  0x1f\n    /* \"#utility.yul\":1215:1220   */\n  dup4\n    /* \"#utility.yul\":1211:1225   */\n  add\n    /* \"#utility.yul\":1207:1230   */\n  div\n    /* \"#utility.yul\":1197:1230   */\n  swap1\n  pop\n    /* \"#utility.yul\":1143:1236   */\n  swap2\n  swap1\n  pop\n  jump\t// out\n    /* \"#utility.yul\":1242:1349   */\ntag_26:\n    /* \"#utility.yul\":1286:1294   */\n  0x00\n    /* \"#utility.yul\":1336:1341   */\n  dup3\n    /* \"#utility.yul\":1330:1334   */\n  dup3\n    /* \"#utility.yul\":1326:1342   */\n  shl\n    /* \"#utility.yul\":1305:1342   */\n  swap1\n  pop\n    /* \"#utility.yul\":1242:1349   */\n  swap3\n  swap2\n  pop\n  pop\n  jump\t// out\n    /* \"#utility.yul\":1355:1748   */\ntag_27:\n    /* \"#utility.yul\":1424:1430   */\n  0x00\n    /* \"#utility.yul\":1474:1475   */\n  0x08\n    /* \"#utility.yul\":1462:1472   */\n  dup4\n    /* \"#utility.yul\":1458:1476   */\n  mul\n    /* \"#utility.yul\":1497:1594   */\n  tag_53\n    /* \"#utility.yul\":1527:1593   */\n  0xffffffffffffffffffffffffffffffffffffffffffffffffffffffffffffffff\n    /* \"#utility.yul\":1516:1525   */\n  dup3\n    /* \"#utility.yul\":1497:1594   */\n  tag_26\n  jump\t// in\ntag_53:\n    /* \"#utility.yul\":1615:1654   */\n  tag_54\n    /* \"#utility.yul\":1645:1653   */\n  dup7\n    /* \"#utility.yul\":1634:1643   */\n  dup4\n    /* \"#utility.yul\":1615:1654   */\n  tag_26\n  jump\t// in\ntag_54:\n    /* \"#utility.yul\":1603:1654   */\n  swap6\n  pop\n    /* \"#utility.yul\":1687:1691   */\n  dup1\n    /* \"#utility.yul\":1683:1692   */\n  not\n    /* \"#utility.yul\":1676:1681   */\n  dup5\n    /* \"#utility.yul\":1672:1693   */\n  and\n    /* \"#utility.yul\":1663:1693   */\n  swap4\n  pop\n    /* \"#utility.yul\":1736:1740   */\n  dup1\n    /* \"#utility.yul\":1726:1734   */\n  dup7\n    /* \"#utility.yul\":1722:1741   */\n  and\n    /* \"#utility.yul\":1715:1720   */\n  dup5\n    /* \"#utility.yul\":1712:1742   */\n  or\n    /* \"#utility.yul\":1702:1742   */\n  swap3\n  pop\n    /* \"#utility.yul\":1431:1748   */\n  pop\n  pop\n    /* \"#utility.yul\":1355:1748   */\n  swap4\n  swap3\n  pop\n  pop\n  pop\n  jump\t// out\n    /* \"#utility.yul\":1754:1831   */\ntag_28:\n    /* \"#utility.yul\":1791:1798   */\n  0x00\n    /* \"#utility.yul\":1820:1825   */\n  dup2\n    /* \"#utility.yul\":1809:1825   */\n  swap1\n  pop\n    /* \"#utility.yul\":1754:1831   */\n  swap2\n  swap1\n  pop\n  jump\t// out\n    /* \"#utility.yul\":1837:1897   */\ntag_29:\n    /* \"#utility.yul\":1865:1868   */\n  0x00\n    /* \"#utility.yul\":1886:1891   */\n  dup2\n    /* \"#utility.yul\":1879:1891   */\n  swap1\n  pop\n    /* \"#utility.yul\":1837:1897   */\n  swap2\n  swap1\n  pop\n  jump\t// out\n    /* \"#utility.yul\":1903:2045   */\ntag_30:\n    /* \"#utility.yul\":1953:1962   */\n  0x00\n    /* \"#utility.yul\":1986:2039   */\n  tag_58\n    /* \"#utility.yul\":2004:2038   */\n  tag_59\n    /* \"#utility.yul\":2013:2037   */\n  tag_60\n    /* \"#utility.yul\":2031:2036   */\n  dup5\n    /* \"#utility.yul\":2013:2037   */\n  tag_28\n  jump\t// in\ntag_60:\n    /* \"#utility.yul\":2004:2038   */\n  tag_29\n  jump\t// in\ntag_59:\n    /* \"#utility.yul\":1986:2039   */\n  tag_28\n  jump\t// in\ntag_58:\n    /* \"#utility.yul\":1973:2039   */\n  swap1\n  pop\n    /* \"#utility.yul\":1903:2045   */\n  swap2\n  swap1\n  pop\n  jump\t// out\n    /* \"#utility.yul\":2051:2126   */\ntag_31:\n    /* \"#utility.yul\":2094:2097   */\n  0x00\n    /* \"#utility.yul\":2115:2120   */\n  dup2\n    /* \"#utility.yul\":2108:2120   */\n  swap1\n  pop\n    /* \"#utility.yul\":2051:2126   */\n  swap2\n  swap1\n  pop\n  jump\t// out\n    /* \"#utility.yul\":2132:2401   */\ntag_32:\n    /* \"#utility.yul\":2242:2281   */\n  tag_63\n    /* \"#utility.yul\":2273:2280   */\n  dup4\n    /* \"#utility.yul\":2242:2281   */\n  tag_30\n  jump\t// in\ntag_63:\n    /* \"#utility.yul\":2303:2394   */\n  tag_64\n    /* \"#utility.yul\":2352:2393   */\n  tag_65\n    /* \"#utility.yul\":2376:2392   */\n  dup3\n    /* \"#utility.yul\":2352:2393   */\n  tag_31\n  jump\t// in\ntag_65:\n    /* \"#utility.yul\":2344:2350   */\n  dup5\n    /* \"#utility.yul\":2337:2341   */\n  dup5\n    /* \"#utility.yul\":2331:2342   */\n  sload\n    /* \"#utility.yul\":2303:2394   */\n  tag_27\n  jump\t// in\ntag_64:\n    /* \"#utility.yul\":2297:2301   */\n  dup3\n    /* \"#utility.yul\":2290:2395   */\n  sstore\n    /* \"#utility.yul\":2208:2401   */\n  pop\n    /* \"#utility.yul\":2132:2401   */\n  pop\n  pop\n  pop\n  jump\t// out\n    /* \"#utility.yul\":2407:2480   */\ntag_33:\n    /* \"#utility.yul\":2452:2455   */\n  0x00\n    /* \"#utility.yul\":2407:2480   */\n  swap1\n  jump\t// out\n    /* \"#utility.yul\":2486:2675   */\ntag_34:\n    /* \"#utility.yul\":2563:2595   */\n  tag_68\n  tag_33\n  jump\t// in\ntag_68:\n    /* \"#utility.yul\":2604:2669   */\n  tag_69\n    /* \"#utility.yul\":2662:2668   */\n  dup2\n    /* \"#utility.yul\":2654:2660   */\n  dup5\n    /* \"#utility.yul\":2648:2652   */\n  dup5\n    /* \"#utility.yul\":2604:2669   */\n  tag_32\n  jump\t// in\ntag_69:\n    /* \"#utility.yul\":2539:2675   */\n  pop\n    /* \"#utility.yul\":2486:2675   */\n  pop\n  pop\n  jump\t// out\n    /* \"#utility.yul\":2681:2867   */\ntag_35:\n    /* \"#utility.yul\":2741:2861   */\ntag_71:\n    /* \"#utility.yul\":2758:2761   */\n  dup2\n    /* \"#utility.yul\":2751:2756   */\n  dup2\n    /* \"#utility.yul\":2748:2762   */\n  lt\n    /* \"#utility.yul\":2741:2861   */\n  iszero\n  tag_73\n  jumpi\n    /* \"#utility.yul\":2812:2851   */\n  tag_74\n    /* \"#utility.yul\":2849:2850   */\n  0x00\n    /* \"#utility.yul\":2842:2847   */\n  dup3\n    /* \"#utility.yul\":2812:2851   */\n  tag_34\n  jump\t// in\ntag_74:\n    /* \"#utility.yul\":2785:2786   */\n  0x01\n    /* \"#utility.yul\":2778:2783   */\n  dup2\n    /* \"#utility.yul\":2774:2787   */\n  add\n    /* \"#utility.yul\":2765:2787   */\n  swap1\n  pop\n    /* \"#utility.yul\":2741:2861   */\n  jump(tag_71)\ntag_73:\n    /* \"#utility.yul\":2681:2867   */\n  pop\n  pop\n  jump\t// out\n    /* \"#utility.yul\":2873:3416   */\ntag_36:\n    /* \"#utility.yul\":2974:2976   */\n  0x1f\n    /* \"#utility.yul\":2969:2972   */\n  dup3\n    /* \"#utility.yul\":2966:2977   */\n  gt\n    /* \"#utility.yul\":2963:3409   */\n  iszero\n  tag_76\n  jumpi\n    /* \"#utility.yul\":3008:3046   */\n  tag_77\n    /* \"#utility.yul\":3040:3045   */\n  dup2\n    /* \"#utility.yul\":3008:3046   */\n  tag_24\n  jump\t// in\ntag_77:\n    /* \"#utility.yul\":3092:3121   */\n  tag_78\n    /* \"#utility.yul\":3110:3120   */\n  dup5\n    /* \"#utility.yul\":3092:3121   */\n  tag_25\n  jump\t// in\ntag_78:\n    /* \"#utility.yul\":3082:3090   */\n  dup2\n    /* \"#utility.yul\":3078:3122   */\n  add\n    /* \"#utility.yul\":3275:3277   */\n  0x20\n    /* \"#utility.yul\":3263:3273   */\n  dup6\n    /* \"#utility.yul\":3260:3278   */\n  lt\n    /* \"#utility.yul\":3257:3306   */\n  iszero\n  tag_79\n  jumpi\n    /* \"#utility.yul\":3296:3304   */\n  dup2\n    /* \"#utility.yul\":3281:3304   */\n  swap1\n  pop\n    /* \"#utility.yul\":3257:3306   */\ntag_79:\n    /* \"#utility.yul\":3319:3399   */\n  tag_80\n    /* \"#utility.yul\":3375:3397   */\n  tag_81\n    /* \"#utility.yul\":3393:3396   */\n  dup6\n    /* \"#utility.yul\":3375:3397   */\n  tag_25\n  jump\t// in\ntag_81:\n    /* \"#utility.yul\":3365:3373   */\n  dup4\n    /* \"#utility.yul\":3361:3398   */\n  add\n    /* \"#utility.yul\":3348:3359   */\n  dup3\n    /* \"#utility.yul\":3319:3399   */\n  tag_35\n  jump\t// in\ntag_80:\n    /* \"#utility.yul\":2978:3409   */\n  pop\n  pop\n    /* \"#utility.yul\":2963:3409   */\ntag_76:\n    /* \"#utility.yul\":2873:3416   */\n  pop\n  pop\n  pop\n  jump\t// out\n    /* \"#utility.yul\":3422:3539   */\ntag_37:\n    /* \"#utility.yul\":3476:3484   */\n  0x00\n    /* \"#utility.yul\":3526:3531   */\n  dup3\n    /* \"#utility.yul\":3520:3524   */\n  dup3\n    /* \"#utility.yul\":3516:3532   */\n  shr\n    /* \"#utility.yul\":3495:3532   */\n  swap1\n  pop\n    /* \"#utility.yul\":3422:3539   */\n  swap3\n  swap2\n  pop\n  pop\n  jump\t// out\n    /* \"#utility.yul\":3545:3714   */\ntag_38:\n    /* \"#utility.yul\":3589:3595   */\n  0x00\n    /* \"#utility.yul\":3622:3673   */\n  tag_84\n    /* \"#utility.yul\":3670:3671   */\n  0x00\n    /* \"#utility.yul\":3666:3672   */\n  not\n    /* \"#utility.yul\":3658:3663   */\n  dup5\n    /* \"#utility.yul\":3655:3656   */\n  0x08\n    /* \"#utility.yul\":3651:3664   */\n  mul\n    /* \"#utility.yul\":3622:3673   */\n  tag_37\n  jump\t// in\ntag_84:\n    /* \"#utility.yul\":3618:3674   */\n  not\n    /* \"#utility.yul\":3703:3707   */\n  dup1\n    /* \"#utility.yul\":3697:3701   */\n  dup4\n    /* \"#utility.yul\":3693:3708   */\n  and\n    /* \"#utility.yul\":3683:3708   */\n  swap2\n  pop\n    /* \"#utility.yul\":3596:3714   */\n  pop\n    /* \"#utility.yul\":3545:3714   */\n  swap3\n  swap2\n  pop\n  pop\n  jump\t// out\n    /* \"#utility.yul\":3719:4014   */\ntag_39:\n    /* \"#utility.yul\":3795:3799   */\n  0x00\n    /* \"#utility.yul\":3941:3970   */\n  tag_86\n    /* \"#utility.yul\":3966:3969   */\n  dup4\n    /* \"#utility.yul\":3960:3964   */\n  dup4\n    /* \"#utility.yul\":3941:3970   */\n  tag_38\n  jump\t// in\ntag_86:\n    /* \"#utility.yul\":3933:3970   */\n  swap2\n  pop\n    /* \"#utility.yul\":4003:4006   */\n  dup3\n    /* \"#utility.yul\":4000:4001   */\n  0x02\n    /* \"#utility.yul\":3996:4007   */\n  mul\n    /* \"#utility.yul\":3990:3994   */\n  dup3\n    /* \"#utility.yul\":3987:4008   */\n  or\n    /* \"#utility.yul\":3979:4008   */\n  swap1\n  pop\n    /* \"#utility.yul\":3719:4014   */\n  swap3\n  swap2\n  pop\n  pop\n  jump\t// out\n    /* \"#utility.yul\":4019:5414   */\ntag_9:\n    /* \"#utility.yul\":4136:4173   */\n  tag_88\n    /* \"#utility.yul\":4169:4172   */\n  dup3\n    /* \"#utility.yul\":4136:4173   */\n  tag_20\n  jump\t// in\ntag_88:\n    /* \"#utility.yul\":4238:4256   */\n  0xffffffffffffffff\n    /* \"#utility.yul\":4230:4236   */\n  dup2\n    /* \"#utility.yul\":4227:4257   */\n  gt\n    /* \"#utility.yul\":4224:4280   */\n  iszero\n  tag_89\n  jumpi\n    /* \"#utility.yul\":4260:4278   */\n  tag_90\n  tag_21\n  jump\t// in\ntag_90:\n    /* \"#utility.yul\":4224:4280   */\ntag_89:\n    /* \"#utility.yul\":4304:4342   */\n  tag_91\n    /* \"#utility.yul\":4336:4340   */\n  dup3\n    /* \"#utility.yul\":4330:4341   */\n  sload\n    /* \"#utility.yul\":4304:4342   */\n  tag_23\n  jump\t// in\ntag_91:\n    /* \"#utility.yul\":4389:4456   */\n  tag_92\n    /* \"#utility.yul\":4449:4455   */\n  dup3\n    /* \"#utility.yul\":4441:4447   */\n  dup3\n    /* \"#utility.yul\":4435:4439   */\n  dup6\n    /* \"#utility.yul\":4389:4456   */\n  tag_36\n  jump\t// in\ntag_92:\n    /* \"#utility.yul\":4483:4484   */\n  0x00\n    /* \"#utility.yul\":4507:4511   */\n  0x20\n    /* \"#utility.yul\":4494:4511   */\n  swap1\n  pop\n    /* \"#utility.yul\":4539:4541   */\n  0x1f\n    /* \"#utility.yul\":4531:4537   */\n  dup4\n    /* \"#utility.yul\":4528:4542   */\n  gt\n    /* \"#utility.yul\":4556:4557   */\n  0x01\n    /* \"#utility.yul\":4551:5169   */\n  dup2\n  eq\n  tag_94\n  jumpi\n    /* \"#utility.yul\":5213:5214   */\n  0x00\n    /* \"#utility.yul\":5230:5236   */\n  dup5\n    /* \"#utility.yul\":5227:5304   */\n  iszero\n  tag_95\n  jumpi\n    /* \"#utility.yul\":5279:5288   */\n  dup3\n    /* \"#utility.yul\":5274:5277   */\n  dup8\n    /* \"#utility.yul\":5270:5289   */\n  add\n    /* \"#utility.yul\":5264:5290   */\n  mload\n    /* \"#utility.yul\":5255:5290   */\n  swap1\n  pop\n    /* \"#utility.yul\":5227:5304   */\ntag_95:\n    /* \"#utility.yul\":5330:5397   */\n  tag_96\n    /* \"#utility.yul\":5390:5396   */\n  dup6\n    /* \"#utility.yul\":5383:5388   */\n  dup3\n    /* \"#utility.yul\":5330:5397   */\n  tag_39\n  jump\t// in\ntag_96:\n    /* \"#utility.yul\":5324:5328   */\n  dup7\n    /* \"#utility.yul\":5317:5398   */\n  sstore\n    /* \"#utility.yul\":5186:5408   */\n  pop\n    /* \"#utility.yul\":4521:5408   */\n  jump(tag_93)\n    /* \"#utility.yul\":4551:5169   */\ntag_94:\n    /* \"#utility.yul\":4603:4607   */\n  0x1f\n    /* \"#utility.yul\":4599:4608   */\n  not\n    /* \"#utility.yul\":4591:4597   */\n  dup5\n    /* \"#utility.yul\":4587:4609   */\n  and\n    /* \"#utility.yul\":4637:4674   */\n  tag_97\n    /* \"#utility.yul\":4669:4673   */\n  dup7\n    /* \"#utility.yul\":4637:4674   */\n  tag_24\n  jump\t// in\ntag_97:\n    /* \"#utility.yul\":4696:4697   */\n  0x00\n    /* \"#utility.yul\":4710:4918   */\ntag_98:\n    /* \"#utility.yul\":4724:4731   */\n  dup3\n    /* \"#utility.yul\":4721:4722   */\n  dup2\n    /* \"#utility.yul\":4718:4732   */\n  lt\n    /* \"#utility.yul\":4710:4918   */\n  iszero\n  tag_100\n  jumpi\n    /* \"#utility.yul\":4803:4812   */\n  dup5\n    /* \"#utility.yul\":4798:4801   */\n  dup10\n    /* \"#utility.yul\":4794:4813   */\n  add\n    /* \"#utility.yul\":4788:4814   */\n  mload\n    /* \"#utility.yul\":4780:4786   */\n  dup3\n    /* \"#utility.yul\":4773:4815   */\n  sstore\n    /* \"#utility.yul\":4854:4855   */\n  0x01\n    /* \"#utility.yul\":4846:4852   */\n  dup3\n    /* \"#utility.yul\":4842:4856   */\n  add\n    /* \"#utility.yul\":4832:4856   */\n  swap2\n  pop\n    /* \"#utility.yul\":4901:4903   */\n  0x20\n    /* \"#utility.yul\":4890:4899   */\n  dup6\n    /* \"#utility.yul\":4886:4904   */\n  add\n    /* \"#utility.yul\":4873:4904   */\n  swap5\n  pop\n    /* \"#utility.yul\":4747:4751   */\n  0x20\n    /* \"#utility.yul\":4744:4745   */\n  dup2\n    /* \"#utility.yul\":4740:4752   */\n  add\n    /* \"#utility.yul\":4735:4752   */\n  swap1\n  pop\n    /* \"#utility.yul\":4710:4918   */\n  jump(tag_98)\ntag_100:\n    /* \"#utility.yul\":4946:4952   */\n  dup7\n    /* \"#utility.yul\":4937:4944   */\n  dup4\n    /* \"#utility.yul\":4934:4953   */\n  lt\n    /* \"#utility.yul\":4931:5110   */\n  iszero\n  tag_101\n  jumpi\n    /* \"#utility.yul\":5004:5013   */\n  dup5\n    /* \"#utility.yul\":4999:5002   */\n  dup10\n    /* \"#utility.yul\":4995:5014   */\n  add\n    /* \"#utility.yul\":4989:5015   */\n  mload\n    /* \"#utility.yul\":5047:5095   */\n  tag_102\n    /* \"#utility.yul\":5089:5093   */\n  0x1f\n    /* \"#utility.yul\":5081:5087   */\n  dup10\n    /* \"#utility.yul\":5077:5094   */\n  and\n    /* \"#utility.yul\":5066:5075   */\n  dup3\n    /* \"#utility.yul\":5047:5095   */\n  tag_38\n  jump\t// in\ntag_102:\n    /* \"#utility.yul\":5039:5045   */\n  dup4\n    /* \"#utility.yul\":5032:5096   */\n  sstore\n    /* \"#utility.yul\":4954:5110   */\n  pop\n    /* \"#utility.yul\":4931:5110   */\ntag_101:\n    /* \"#utility.yul\":5156:5157   */\n  0x01\n    /* \"#utility.yul\":5152:5153   */\n  0x02\n    /* \"#utility.yul\":5144:5150   */\n  dup9\n    /* \"#utility.yul\":5140:5154   */\n  mul\n    /* \"#utility.yul\":5136:5158   */\n  add\n    /* \"#utility.yul\":5130:5134   */\n  dup9\n    /* \"#utility.yul\":5123:5159   */\n  sstore\n    /* \"#utility.yul\":4558:5169   */\n  pop\n  pop\n  pop\n    /* \"#utility.yul\":4521:5408   */\ntag_93:\n  pop\n    /* \"#utility.yul\":4111:5414   */\n  pop\n  pop\n  pop\n    /* \"#utility.yul\":4019:5414   */\n  pop\n  pop\n  jump\t// out\n    /* \"baisc/07-array-demo.sol\":169:1233  contract array_demo {... */\ntag_19:\n  dataSize(sub_0)\n  dup1\n  dataOffset(sub_0)\n  0x00\n  codecopy\n  0x00\n  return\nstop\n\nsub_0: assembly {\n        /* \"baisc/07-array-demo.sol\":169:1233  contract array_demo {... */\n      mstore(0x40, 0x80)\n      callvalue\n      dup1\n      iszero\n      tag_1\n      jumpi\n      0x00\n      dup1\n      revert\n    tag_1:\n      pop\n      jumpi(tag_2, lt(calldatasize, 0x04))\n      shr(0xe0, calldataload(0x00))\n      dup1\n      0x11456b47\n      eq\n      tag_3\n      jumpi\n      dup1\n      0x2f7b8d26\n      eq\n      tag_4\n      jumpi\n      dup1\n      0x4622ab03\n      eq\n      tag_5\n      jumpi\n      dup1\n      0xbe1c766b\n      eq\n      tag_6\n      jumpi\n      dup1\n      0xc4a1a8db\n      eq\n      tag_7\n      jumpi\n    tag_2:\n      0x00\n      dup1\n      revert\n        /* \"baisc/07-array-demo.sol\":1003:1083  function addName(string memory _name) public {... */\n    tag_3:\n      tag_8\n      0x04\n      dup1\n      calldatasize\n      sub\n      dup2\n      add\n      swap1\n      tag_9\n      swap2\n      swap1\n      tag_10\n      jump\t// in\n    tag_9:\n      tag_11\n      jump\t// in\n    tag_8:\n      stop\n        /* \"baisc/07-array-demo.sol\":737:805  function addAge(uint8 _age) public{... */\n    tag_4:\n      tag_12\n      0x04\n      dup1\n      calldatasize\n      sub\n      dup2\n      add\n      swap1\n      tag_13\n      swap2\n      swap1\n      tag_14\n      jump\t// in\n    tag_13:\n      tag_15\n      jump\t// in\n    tag_12:\n      stop\n        /* \"baisc/07-array-demo.sol\":251:273  string[5] public names */\n    tag_5:\n      tag_16\n      0x04\n      dup1\n      calldatasize\n      sub\n      dup2\n      add\n      swap1\n      tag_17\n      swap2\n      swap1\n      tag_18\n      jump\t// in\n    tag_17:\n      tag_19\n      jump\t// in\n    tag_16:\n      mload(0x40)\n      tag_20\n      swap2\n      swap1\n      tag_21\n      jump\t// in\n    tag_20:\n      mload(0x40)\n      dup1\n      swap2\n      sub\n      swap1\n      return\n        /* \"baisc/07-array-demo.sol\":1117:1228  function getLength() public view returns(uint256, uint256){... */\n    tag_6:\n      tag_22\n      tag_23\n      jump\t// in\n    tag_22:\n      mload(0x40)\n      tag_24\n      swap3\n      swap2\n      swap1\n      tag_25\n      jump\t// in\n    tag_24:\n      mload(0x40)\n      dup1\n      swap2\n      sub\n      swap1\n      return\n        /* \"baisc/07-array-demo.sol\":300:319  uint8[] public ages */\n    tag_7:\n      tag_26\n      0x04\n      dup1\n      calldatasize\n      sub\n      dup2\n      add\n      swap1\n      tag_27\n      swap2\n      swap1\n      tag_18\n      jump\t// in\n    tag_27:\n      tag_28\n      jump\t// in\n    tag_26:\n      mload(0x40)\n      tag_29\n      swap2\n      swap1\n      tag_30\n      jump\t// in\n    tag_29:\n      mload(0x40)\n      dup1\n      swap2\n      sub\n      swap1\n      return\n        /* \"baisc/07-array-demo.sol\":1003:1083  function addName(string memory _name) public {... */\n    tag_11:\n        /* \"baisc/07-array-demo.sol\":1070:1075  _name */\n      dup1\n        /* \"baisc/07-array-demo.sol\":1059:1064  names */\n      0x00\n        /* \"baisc/07-array-demo.sol\":1065:1066  3 */\n      0x03\n        /* \"baisc/07-array-demo.sol\":1059:1067  names[3] */\n      0x05\n      dup2\n      lt\n      tag_32\n      jumpi\n      tag_33\n      tag_34\n      jump\t// in\n    tag_33:\n    tag_32:\n      add\n        /* \"baisc/07-array-demo.sol\":1059:1075  names[3] = _name */\n      swap1\n      dup2\n      tag_36\n      swap2\n      swap1\n      tag_37\n      jump\t// in\n    tag_36:\n      pop\n        /* \"baisc/07-array-demo.sol\":1003:1083  function addName(string memory _name) public {... */\n      pop\n      jump\t// out\n        /* \"baisc/07-array-demo.sol\":737:805  function addAge(uint8 _age) public{... */\n    tag_15:\n        /* \"baisc/07-array-demo.sol\":782:786  ages */\n      0x05\n        /* \"baisc/07-array-demo.sol\":792:796  _age */\n      dup2\n        /* \"baisc/07-array-demo.sol\":782:797  ages.push(_age) */\n      swap1\n      dup1\n      0x01\n      dup2\n      sload\n      add\n      dup1\n      dup3\n      sstore\n      dup1\n      swap2\n      pop\n      pop\n      0x01\n      swap1\n      sub\n      swap1\n      0x00\n      mstore\n      keccak256(0x00, 0x20)\n      swap1\n      0x20\n      swap2\n      dup3\n      dup3\n      div\n      add\n      swap2\n      swap1\n      mod\n      swap1\n      swap2\n      swap1\n      swap2\n      swap1\n      swap2\n      0x0100\n      exp\n      dup2\n      sload\n      dup2\n      0xff\n      mul\n      not\n      and\n      swap1\n      dup4\n      0xff\n      and\n      mul\n      or\n      swap1\n      sstore\n      pop\n        /* \"baisc/07-array-demo.sol\":737:805  function addAge(uint8 _age) public{... */\n      pop\n      jump\t// out\n        /* \"baisc/07-array-demo.sol\":251:273  string[5] public names */\n    tag_19:\n      0x00\n      dup2\n      0x05\n      dup2\n      lt\n      tag_40\n      jumpi\n      0x00\n      dup1\n      revert\n    tag_40:\n      add\n      0x00\n      swap2\n      pop\n      swap1\n      pop\n      dup1\n      sload\n      tag_42\n      swap1\n      tag_43\n      jump\t// in\n    tag_42:\n      dup1\n      0x1f\n      add\n      0x20\n      dup1\n      swap2\n      div\n      mul\n      0x20\n      add\n      mload(0x40)\n      swap1\n      dup2\n      add\n      0x40\n      mstore\n      dup1\n      swap3\n      swap2\n      swap1\n      dup2\n      dup2\n      mstore\n      0x20\n      add\n      dup3\n      dup1\n      sload\n      tag_44\n      swap1\n      tag_43\n      jump\t// in\n    tag_44:\n      dup1\n      iszero\n      tag_45\n      jumpi\n      dup1\n      0x1f\n      lt\n      tag_46\n      jumpi\n      0x0100\n      dup1\n      dup4\n      sload\n      div\n      mul\n      dup4\n      mstore\n      swap2\n      0x20\n      add\n      swap2\n      jump(tag_45)\n    tag_46:\n      dup3\n      add\n      swap2\n      swap1\n      0x00\n      mstore\n      keccak256(0x00, 0x20)\n      swap1\n    tag_47:\n      dup2\n      sload\n      dup2\n      mstore\n      swap1\n      0x01\n      add\n      swap1\n      0x20\n      add\n      dup1\n      dup4\n      gt\n      tag_47\n      jumpi\n      dup3\n      swap1\n      sub\n      0x1f\n      and\n      dup3\n      add\n      swap2\n    tag_45:\n      pop\n      pop\n      pop\n      pop\n      pop\n      dup2\n      jump\t// out\n        /* \"baisc/07-array-demo.sol\":1117:1228  function getLength() public view returns(uint256, uint256){... */\n    tag_23:\n        /* \"baisc/07-array-demo.sol\":1158:1165  uint256 */\n      0x00\n        /* \"baisc/07-array-demo.sol\":1167:1174  uint256 */\n      dup1\n        /* \"baisc/07-array-demo.sol\":1194:1206  names.length */\n      0x05\n        /* \"baisc/07-array-demo.sol\":1208:1212  ages */\n      dup1\n        /* \"baisc/07-array-demo.sol\":1208:1219  ages.length */\n      dup1\n      sload\n      swap1\n      pop\n        /* \"baisc/07-array-demo.sol\":1186:1220  return (names.length, ages.length) */\n      swap2\n      pop\n      swap2\n      pop\n        /* \"baisc/07-array-demo.sol\":1117:1228  function getLength() public view returns(uint256, uint256){... */\n      swap1\n      swap2\n      jump\t// out\n        /* \"baisc/07-array-demo.sol\":300:319  uint8[] public ages */\n    tag_28:\n      0x05\n      dup2\n      dup2\n      sload\n      dup2\n      lt\n      tag_49\n      jumpi\n      0x00\n      dup1\n      revert\n    tag_49:\n      swap1\n      0x00\n      mstore\n      keccak256(0x00, 0x20)\n      swap1\n      0x20\n      swap2\n      dup3\n      dup3\n      div\n      add\n      swap2\n      swap1\n      mod\n      swap2\n      pop\n      sload\n      swap1\n      0x0100\n      exp\n      swap1\n      div\n      0xff\n      and\n      dup2\n      jump\t// out\n        /* \"#utility.yul\":7:82   */\n    tag_51:\n        /* \"#utility.yul\":40:46   */\n      0x00\n        /* \"#utility.yul\":73:75   */\n      0x40\n        /* \"#utility.yul\":67:76   */\n      mload\n        /* \"#utility.yul\":57:76   */\n      swap1\n      pop\n        /* \"#utility.yul\":7:82   */\n      swap1\n      jump\t// out\n        /* \"#utility.yul\":88:205   */\n    tag_52:\n        /* \"#utility.yul\":197:198   */\n      0x00\n        /* \"#utility.yul\":194:195   */\n      dup1\n        /* \"#utility.yul\":187:199   */\n      revert\n        /* \"#utility.yul\":211:328   */\n    tag_53:\n        /* \"#utility.yul\":320:321   */\n      0x00\n        /* \"#utility.yul\":317:318   */\n      dup1\n        /* \"#utility.yul\":310:322   */\n      revert\n        /* \"#utility.yul\":334:451   */\n    tag_54:\n        /* \"#utility.yul\":443:444   */\n      0x00\n        /* \"#utility.yul\":440:441   */\n      dup1\n        /* \"#utility.yul\":433:445   */\n      revert\n        /* \"#utility.yul\":457:574   */\n    tag_55:\n        /* \"#utility.yul\":566:567   */\n      0x00\n        /* \"#utility.yul\":563:564   */\n      dup1\n        /* \"#utility.yul\":556:568   */\n      revert\n        /* \"#utility.yul\":580:682   */\n    tag_56:\n        /* \"#utility.yul\":621:627   */\n      0x00\n        /* \"#utility.yul\":672:674   */\n      0x1f\n        /* \"#utility.yul\":668:675   */\n      not\n        /* \"#utility.yul\":663:665   */\n      0x1f\n        /* \"#utility.yul\":656:661   */\n      dup4\n        /* \"#utility.yul\":652:666   */\n      add\n        /* \"#utility.yul\":648:676   */\n      and\n        /* \"#utility.yul\":638:676   */\n      swap1\n      pop\n        /* \"#utility.yul\":580:682   */\n      swap2\n      swap1\n      pop\n      jump\t// out\n        /* \"#utility.yul\":688:868   */\n    tag_57:\n        /* \"#utility.yul\":736:813   */\n      0x4e487b7100000000000000000000000000000000000000000000000000000000\n        /* \"#utility.yul\":733:734   */\n      0x00\n        /* \"#utility.yul\":726:814   */\n      mstore\n        /* \"#utility.yul\":833:837   */\n      0x41\n        /* \"#utility.yul\":830:831   */\n      0x04\n        /* \"#utility.yul\":823:838   */\n      mstore\n        /* \"#utility.yul\":857:861   */\n      0x24\n        /* \"#utility.yul\":854:855   */\n      0x00\n        /* \"#utility.yul\":847:862   */\n      revert\n        /* \"#utility.yul\":874:1155   */\n    tag_58:\n        /* \"#utility.yul\":957:984   */\n      tag_101\n        /* \"#utility.yul\":979:983   */\n      dup3\n        /* \"#utility.yul\":957:984   */\n      tag_56\n      jump\t// in\n    tag_101:\n        /* \"#utility.yul\":949:955   */\n      dup2\n        /* \"#utility.yul\":945:985   */\n      add\n        /* \"#utility.yul\":1087:1093   */\n      dup2\n        /* \"#utility.yul\":1075:1085   */\n      dup2\n        /* \"#utility.yul\":1072:1094   */\n      lt\n        /* \"#utility.yul\":1051:1069   */\n      0xffffffffffffffff\n        /* \"#utility.yul\":1039:1049   */\n      dup3\n        /* \"#utility.yul\":1036:1070   */\n      gt\n        /* \"#utility.yul\":1033:1095   */\n      or\n        /* \"#utility.yul\":1030:1118   */\n      iszero\n      tag_102\n      jumpi\n        /* \"#utility.yul\":1098:1116   */\n      tag_103\n      tag_57\n      jump\t// in\n    tag_103:\n        /* \"#utility.yul\":1030:1118   */\n    tag_102:\n        /* \"#utility.yul\":1138:1148   */\n      dup1\n        /* \"#utility.yul\":1134:1136   */\n      0x40\n        /* \"#utility.yul\":1127:1149   */\n      mstore\n        /* \"#utility.yul\":917:1155   */\n      pop\n        /* \"#utility.yul\":874:1155   */\n      pop\n      pop\n      jump\t// out\n        /* \"#utility.yul\":1161:1290   */\n    tag_59:\n        /* \"#utility.yul\":1195:1201   */\n      0x00\n        /* \"#utility.yul\":1222:1242   */\n      tag_105\n      tag_51\n      jump\t// in\n    tag_105:\n        /* \"#utility.yul\":1212:1242   */\n      swap1\n      pop\n        /* \"#utility.yul\":1251:1284   */\n      tag_106\n        /* \"#utility.yul\":1279:1283   */\n      dup3\n        /* \"#utility.yul\":1271:1277   */\n      dup3\n        /* \"#utility.yul\":1251:1284   */\n      tag_58\n      jump\t// in\n    tag_106:\n        /* \"#utility.yul\":1161:1290   */\n      swap2\n      swap1\n      pop\n      jump\t// out\n        /* \"#utility.yul\":1296:1604   */\n    tag_60:\n        /* \"#utility.yul\":1358:1362   */\n      0x00\n        /* \"#utility.yul\":1448:1466   */\n      0xffffffffffffffff\n        /* \"#utility.yul\":1440:1446   */\n      dup3\n        /* \"#utility.yul\":1437:1467   */\n      gt\n        /* \"#utility.yul\":1434:1490   */\n      iszero\n      tag_108\n      jumpi\n        /* \"#utility.yul\":1470:1488   */\n      tag_109\n      tag_57\n      jump\t// in\n    tag_109:\n        /* \"#utility.yul\":1434:1490   */\n    tag_108:\n        /* \"#utility.yul\":1508:1537   */\n      tag_110\n        /* \"#utility.yul\":1530:1536   */\n      dup3\n        /* \"#utility.yul\":1508:1537   */\n      tag_56\n      jump\t// in\n    tag_110:\n        /* \"#utility.yul\":1500:1537   */\n      swap1\n      pop\n        /* \"#utility.yul\":1592:1596   */\n      0x20\n        /* \"#utility.yul\":1586:1590   */\n      dup2\n        /* \"#utility.yul\":1582:1597   */\n      add\n        /* \"#utility.yul\":1574:1597   */\n      swap1\n      pop\n        /* \"#utility.yul\":1296:1604   */\n      swap2\n      swap1\n      pop\n      jump\t// out\n        /* \"#utility.yul\":1610:1756   */\n    tag_61:\n        /* \"#utility.yul\":1707:1713   */\n      dup3\n        /* \"#utility.yul\":1702:1705   */\n      dup2\n        /* \"#utility.yul\":1697:1700   */\n      dup4\n        /* \"#utility.yul\":1684:1714   */\n      calldatacopy\n        /* \"#utility.yul\":1748:1749   */\n      0x00\n        /* \"#utility.yul\":1739:1745   */\n      dup4\n        /* \"#utility.yul\":1734:1737   */\n      dup4\n        /* \"#utility.yul\":1730:1746   */\n      add\n        /* \"#utility.yul\":1723:1750   */\n      mstore\n        /* \"#utility.yul\":1610:1756   */\n      pop\n      pop\n      pop\n      jump\t// out\n        /* \"#utility.yul\":1762:2187   */\n    tag_62:\n        /* \"#utility.yul\":1840:1845   */\n      0x00\n        /* \"#utility.yul\":1865:1931   */\n      tag_113\n        /* \"#utility.yul\":1881:1930   */\n      tag_114\n        /* \"#utility.yul\":1923:1929   */\n      dup5\n        /* \"#utility.yul\":1881:1930   */\n      tag_60\n      jump\t// in\n    tag_114:\n        /* \"#utility.yul\":1865:1931   */\n      tag_59\n      jump\t// in\n    tag_113:\n        /* \"#utility.yul\":1856:1931   */\n      swap1\n      pop\n        /* \"#utility.yul\":1954:1960   */\n      dup3\n        /* \"#utility.yul\":1947:1952   */\n      dup2\n        /* \"#utility.yul\":1940:1961   */\n      mstore\n        /* \"#utility.yul\":1992:1996   */\n      0x20\n        /* \"#utility.yul\":1985:1990   */\n      dup2\n        /* \"#utility.yul\":1981:1997   */\n      add\n        /* \"#utility.yul\":2030:2033   */\n      dup5\n        /* \"#utility.yul\":2021:2027   */\n      dup5\n        /* \"#utility.yul\":2016:2019   */\n      dup5\n        /* \"#utility.yul\":2012:2028   */\n      add\n        /* \"#utility.yul\":2009:2034   */\n      gt\n        /* \"#utility.yul\":2006:2118   */\n      iszero\n      tag_115\n      jumpi\n        /* \"#utility.yul\":2037:2116   */\n      tag_116\n      tag_55\n      jump\t// in\n    tag_116:\n        /* \"#utility.yul\":2006:2118   */\n    tag_115:\n        /* \"#utility.yul\":2127:2181   */\n      tag_117\n        /* \"#utility.yul\":2174:2180   */\n      dup5\n        /* \"#utility.yul\":2169:2172   */\n      dup3\n        /* \"#utility.yul\":2164:2167   */\n      dup6\n        /* \"#utility.yul\":2127:2181   */\n      tag_61\n      jump\t// in\n    tag_117:\n        /* \"#utility.yul\":1846:2187   */\n      pop\n        /* \"#utility.yul\":1762:2187   */\n      swap4\n      swap3\n      pop\n      pop\n      pop\n      jump\t// out\n        /* \"#utility.yul\":2207:2547   */\n    tag_63:\n        /* \"#utility.yul\":2263:2268   */\n      0x00\n        /* \"#utility.yul\":2312:2315   */\n      dup3\n        /* \"#utility.yul\":2305:2309   */\n      0x1f\n        /* \"#utility.yul\":2297:2303   */\n      dup4\n        /* \"#utility.yul\":2293:2310   */\n      add\n        /* \"#utility.yul\":2289:2316   */\n      slt\n        /* \"#utility.yul\":2279:2401   */\n      tag_119\n      jumpi\n        /* \"#utility.yul\":2320:2399   */\n      tag_120\n      tag_54\n      jump\t// in\n    tag_120:\n        /* \"#utility.yul\":2279:2401   */\n    tag_119:\n        /* \"#utility.yul\":2437:2443   */\n      dup2\n        /* \"#utility.yul\":2424:2444   */\n      calldataload\n        /* \"#utility.yul\":2462:2541   */\n      tag_121\n        /* \"#utility.yul\":2537:2540   */\n      dup5\n        /* \"#utility.yul\":2529:2535   */\n      dup3\n        /* \"#utility.yul\":2522:2526   */\n      0x20\n        /* \"#utility.yul\":2514:2520   */\n      dup7\n        /* \"#utility.yul\":2510:2527   */\n      add\n        /* \"#utility.yul\":2462:2541   */\n      tag_62\n      jump\t// in\n    tag_121:\n        /* \"#utility.yul\":2453:2541   */\n      swap2\n      pop\n        /* \"#utility.yul\":2269:2547   */\n      pop\n        /* \"#utility.yul\":2207:2547   */\n      swap3\n      swap2\n      pop\n      pop\n      jump\t// out\n        /* \"#utility.yul\":2553:3062   */\n    tag_10:\n        /* \"#utility.yul\":2622:2628   */\n      0x00\n        /* \"#utility.yul\":2671:2673   */\n      0x20\n        /* \"#utility.yul\":2659:2668   */\n      dup3\n        /* \"#utility.yul\":2650:2657   */\n      dup5\n        /* \"#utility.yul\":2646:2669   */\n      sub\n        /* \"#utility.yul\":2642:2674   */\n      slt\n        /* \"#utility.yul\":2639:2758   */\n      iszero\n      tag_123\n      jumpi\n        /* \"#utility.yul\":2677:2756   */\n      tag_124\n      tag_52\n      jump\t// in\n    tag_124:\n        /* \"#utility.yul\":2639:2758   */\n    tag_123:\n        /* \"#utility.yul\":2825:2826   */\n      0x00\n        /* \"#utility.yul\":2814:2823   */\n      dup3\n        /* \"#utility.yul\":2810:2827   */\n      add\n        /* \"#utility.yul\":2797:2828   */\n      calldataload\n        /* \"#utility.yul\":2855:2873   */\n      0xffffffffffffffff\n        /* \"#utility.yul\":2847:2853   */\n      dup2\n        /* \"#utility.yul\":2844:2874   */\n      gt\n        /* \"#utility.yul\":2841:2958   */\n      iszero\n      tag_125\n      jumpi\n        /* \"#utility.yul\":2877:2956   */\n      tag_126\n      tag_53\n      jump\t// in\n    tag_126:\n        /* \"#utility.yul\":2841:2958   */\n    tag_125:\n        /* \"#utility.yul\":2982:3045   */\n      tag_127\n        /* \"#utility.yul\":3037:3044   */\n      dup5\n        /* \"#utility.yul\":3028:3034   */\n      dup3\n        /* \"#utility.yul\":3017:3026   */\n      dup6\n        /* \"#utility.yul\":3013:3035   */\n      add\n        /* \"#utility.yul\":2982:3045   */\n      tag_63\n      jump\t// in\n    tag_127:\n        /* \"#utility.yul\":2972:3045   */\n      swap2\n      pop\n        /* \"#utility.yul\":2768:3055   */\n      pop\n        /* \"#utility.yul\":2553:3062   */\n      swap3\n      swap2\n      pop\n      pop\n      jump\t// out\n        /* \"#utility.yul\":3068:3154   */\n    tag_64:\n        /* \"#utility.yul\":3103:3110   */\n      0x00\n        /* \"#utility.yul\":3143:3147   */\n      0xff\n        /* \"#utility.yul\":3136:3141   */\n      dup3\n        /* \"#utility.yul\":3132:3148   */\n      and\n        /* \"#utility.yul\":3121:3148   */\n      swap1\n      pop\n        /* \"#utility.yul\":3068:3154   */\n      swap2\n      swap1\n      pop\n      jump\t// out\n        /* \"#utility.yul\":3160:3278   */\n    tag_65:\n        /* \"#utility.yul\":3231:3253   */\n      tag_130\n        /* \"#utility.yul\":3247:3252   */\n      dup2\n        /* \"#utility.yul\":3231:3253   */\n      tag_64\n      jump\t// in\n    tag_130:\n        /* \"#utility.yul\":3224:3229   */\n      dup2\n        /* \"#utility.yul\":3221:3254   */\n      eq\n        /* \"#utility.yul\":3211:3272   */\n      tag_131\n      jumpi\n        /* \"#utility.yul\":3268:3269   */\n      0x00\n        /* \"#utility.yul\":3265:3266   */\n      dup1\n        /* \"#utility.yul\":3258:3270   */\n      revert\n        /* \"#utility.yul\":3211:3272   */\n    tag_131:\n        /* \"#utility.yul\":3160:3278   */\n      pop\n      jump\t// out\n        /* \"#utility.yul\":3284:3419   */\n    tag_66:\n        /* \"#utility.yul\":3328:3333   */\n      0x00\n        /* \"#utility.yul\":3366:3372   */\n      dup2\n        /* \"#utility.yul\":3353:3373   */\n      calldataload\n        /* \"#utility.yul\":3344:3373   */\n      swap1\n      pop\n        /* \"#utility.yul\":3382:3413   */\n      tag_133\n        /* \"#utility.yul\":3407:3412   */\n      dup2\n        /* \"#utility.yul\":3382:3413   */\n      tag_65\n      jump\t// in\n    tag_133:\n        /* \"#utility.yul\":3284:3419   */\n      swap3\n      swap2\n      pop\n      pop\n      jump\t// out\n        /* \"#utility.yul\":3425:3750   */\n    tag_14:\n        /* \"#utility.yul\":3482:3488   */\n      0x00\n        /* \"#utility.yul\":3531:3533   */\n      0x20\n        /* \"#utility.yul\":3519:3528   */\n      dup3\n        /* \"#utility.yul\":3510:3517   */\n      dup5\n        /* \"#utility.yul\":3506:3529   */\n      sub\n        /* \"#utility.yul\":3502:3534   */\n      slt\n        /* \"#utility.yul\":3499:3618   */\n      iszero\n      tag_135\n      jumpi\n        /* \"#utility.yul\":3537:3616   */\n      tag_136\n      tag_52\n      jump\t// in\n    tag_136:\n        /* \"#utility.yul\":3499:3618   */\n    tag_135:\n        /* \"#utility.yul\":3657:3658   */\n      0x00\n        /* \"#utility.yul\":3682:3733   */\n      tag_137\n        /* \"#utility.yul\":3725:3732   */\n      dup5\n        /* \"#utility.yul\":3716:3722   */\n      dup3\n        /* \"#utility.yul\":3705:3714   */\n      dup6\n        /* \"#utility.yul\":3701:3723   */\n      add\n        /* \"#utility.yul\":3682:3733   */\n      tag_66\n      jump\t// in\n    tag_137:\n        /* \"#utility.yul\":3672:3733   */\n      swap2\n      pop\n        /* \"#utility.yul\":3628:3743   */\n      pop\n        /* \"#utility.yul\":3425:3750   */\n      swap3\n      swap2\n      pop\n      pop\n      jump\t// out\n        /* \"#utility.yul\":3756:3833   */\n    tag_67:\n        /* \"#utility.yul\":3793:3800   */\n      0x00\n        /* \"#utility.yul\":3822:3827   */\n      dup2\n        /* \"#utility.yul\":3811:3827   */\n      swap1\n      pop\n        /* \"#utility.yul\":3756:3833   */\n      swap2\n      swap1\n      pop\n      jump\t// out\n        /* \"#utility.yul\":3839:3961   */\n    tag_68:\n        /* \"#utility.yul\":3912:3936   */\n      tag_140\n        /* \"#utility.yul\":3930:3935   */\n      dup2\n        /* \"#utility.yul\":3912:3936   */\n      tag_67\n      jump\t// in\n    tag_140:\n        /* \"#utility.yul\":3905:3910   */\n      dup2\n        /* \"#utility.yul\":3902:3937   */\n      eq\n        /* \"#utility.yul\":3892:3955   */\n      tag_141\n      jumpi\n        /* \"#utility.yul\":3951:3952   */\n      0x00\n        /* \"#utility.yul\":3948:3949   */\n      dup1\n        /* \"#utility.yul\":3941:3953   */\n      revert\n        /* \"#utility.yul\":3892:3955   */\n    tag_141:\n        /* \"#utility.yul\":3839:3961   */\n      pop\n      jump\t// out\n        /* \"#utility.yul\":3967:4106   */\n    tag_69:\n        /* \"#utility.yul\":4013:4018   */\n      0x00\n        /* \"#utility.yul\":4051:4057   */\n      dup2\n        /* \"#utility.yul\":4038:4058   */\n      calldataload\n        /* \"#utility.yul\":4029:4058   */\n      swap1\n      pop\n        /* \"#utility.yul\":4067:4100   */\n      tag_143\n        /* \"#utility.yul\":4094:4099   */\n      dup2\n        /* \"#utility.yul\":4067:4100   */\n      tag_68\n      jump\t// in\n    tag_143:\n        /* \"#utility.yul\":3967:4106   */\n      swap3\n      swap2\n      pop\n      pop\n      jump\t// out\n        /* \"#utility.yul\":4112:4441   */\n    tag_18:\n        /* \"#utility.yul\":4171:4177   */\n      0x00\n        /* \"#utility.yul\":4220:4222   */\n      0x20\n        /* \"#utility.yul\":4208:4217   */\n      dup3\n        /* \"#utility.yul\":4199:4206   */\n      dup5\n        /* \"#utility.yul\":4195:4218   */\n      sub\n        /* \"#utility.yul\":4191:4223   */\n      slt\n        /* \"#utility.yul\":4188:4307   */\n      iszero\n      tag_145\n      jumpi\n        /* \"#utility.yul\":4226:4305   */\n      tag_146\n      tag_52\n      jump\t// in\n    tag_146:\n        /* \"#utility.yul\":4188:4307   */\n    tag_145:\n        /* \"#utility.yul\":4346:4347   */\n      0x00\n        /* \"#utility.yul\":4371:4424   */\n      tag_147\n        /* \"#utility.yul\":4416:4423   */\n      dup5\n        /* \"#utility.yul\":4407:4413   */\n      dup3\n        /* \"#utility.yul\":4396:4405   */\n      dup6\n        /* \"#utility.yul\":4392:4414   */\n      add\n        /* \"#utility.yul\":4371:4424   */\n      tag_69\n      jump\t// in\n    tag_147:\n        /* \"#utility.yul\":4361:4424   */\n      swap2\n      pop\n        /* \"#utility.yul\":4317:4434   */\n      pop\n        /* \"#utility.yul\":4112:4441   */\n      swap3\n      swap2\n      pop\n      pop\n      jump\t// out\n        /* \"#utility.yul\":4447:4546   */\n    tag_70:\n        /* \"#utility.yul\":4499:4505   */\n      0x00\n        /* \"#utility.yul\":4533:4538   */\n      dup2\n        /* \"#utility.yul\":4527:4539   */\n      mload\n        /* \"#utility.yul\":4517:4539   */\n      swap1\n      pop\n        /* \"#utility.yul\":4447:4546   */\n      swap2\n      swap1\n      pop\n      jump\t// out\n        /* \"#utility.yul\":4552:4721   */\n    tag_71:\n        /* \"#utility.yul\":4636:4647   */\n      0x00\n        /* \"#utility.yul\":4670:4676   */\n      dup3\n        /* \"#utility.yul\":4665:4668   */\n      dup3\n        /* \"#utility.yul\":4658:4677   */\n      mstore\n        /* \"#utility.yul\":4710:4714   */\n      0x20\n        /* \"#utility.yul\":4705:4708   */\n      dup3\n        /* \"#utility.yul\":4701:4715   */\n      add\n        /* \"#utility.yul\":4686:4715   */\n      swap1\n      pop\n        /* \"#utility.yul\":4552:4721   */\n      swap3\n      swap2\n      pop\n      pop\n      jump\t// out\n        /* \"#utility.yul\":4727:4973   */\n    tag_72:\n        /* \"#utility.yul\":4808:4809   */\n      0x00\n        /* \"#utility.yul\":4818:4931   */\n    tag_151:\n        /* \"#utility.yul\":4832:4838   */\n      dup4\n        /* \"#utility.yul\":4829:4830   */\n      dup2\n        /* \"#utility.yul\":4826:4839   */\n      lt\n        /* \"#utility.yul\":4818:4931   */\n      iszero\n      tag_153\n      jumpi\n        /* \"#utility.yul\":4917:4918   */\n      dup1\n        /* \"#utility.yul\":4912:4915   */\n      dup3\n        /* \"#utility.yul\":4908:4919   */\n      add\n        /* \"#utility.yul\":4902:4920   */\n      mload\n        /* \"#utility.yul\":4898:4899   */\n      dup2\n        /* \"#utility.yul\":4893:4896   */\n      dup5\n        /* \"#utility.yul\":4889:4900   */\n      add\n        /* \"#utility.yul\":4882:4921   */\n      mstore\n        /* \"#utility.yul\":4854:4856   */\n      0x20\n        /* \"#utility.yul\":4851:4852   */\n      dup2\n        /* \"#utility.yul\":4847:4857   */\n      add\n        /* \"#utility.yul\":4842:4857   */\n      swap1\n      pop\n        /* \"#utility.yul\":4818:4931   */\n      jump(tag_151)\n    tag_153:\n        /* \"#utility.yul\":4965:4966   */\n      0x00\n        /* \"#utility.yul\":4956:4962   */\n      dup5\n        /* \"#utility.yul\":4951:4954   */\n      dup5\n        /* \"#utility.yul\":4947:4963   */\n      add\n        /* \"#utility.yul\":4940:4967   */\n      mstore\n        /* \"#utility.yul\":4789:4973   */\n      pop\n        /* \"#utility.yul\":4727:4973   */\n      pop\n      pop\n      pop\n      jump\t// out\n        /* \"#utility.yul\":4979:5356   */\n    tag_73:\n        /* \"#utility.yul\":5067:5070   */\n      0x00\n        /* \"#utility.yul\":5095:5134   */\n      tag_155\n        /* \"#utility.yul\":5128:5133   */\n      dup3\n        /* \"#utility.yul\":5095:5134   */\n      tag_70\n      jump\t// in\n    tag_155:\n        /* \"#utility.yul\":5150:5221   */\n      tag_156\n        /* \"#utility.yul\":5214:5220   */\n      dup2\n        /* \"#utility.yul\":5209:5212   */\n      dup6\n        /* \"#utility.yul\":5150:5221   */\n      tag_71\n      jump\t// in\n    tag_156:\n        /* \"#utility.yul\":5143:5221   */\n      swap4\n      pop\n        /* \"#utility.yul\":5230:5295   */\n      tag_157\n        /* \"#utility.yul\":5288:5294   */\n      dup2\n        /* \"#utility.yul\":5283:5286   */\n      dup6\n        /* \"#utility.yul\":5276:5280   */\n      0x20\n        /* \"#utility.yul\":5269:5274   */\n      dup7\n        /* \"#utility.yul\":5265:5281   */\n      add\n        /* \"#utility.yul\":5230:5295   */\n      tag_72\n      jump\t// in\n    tag_157:\n        /* \"#utility.yul\":5320:5349   */\n      tag_158\n        /* \"#utility.yul\":5342:5348   */\n      dup2\n        /* \"#utility.yul\":5320:5349   */\n      tag_56\n      jump\t// in\n    tag_158:\n        /* \"#utility.yul\":5315:5318   */\n      dup5\n        /* \"#utility.yul\":5311:5350   */\n      add\n        /* \"#utility.yul\":5304:5350   */\n      swap2\n      pop\n        /* \"#utility.yul\":5071:5356   */\n      pop\n        /* \"#utility.yul\":4979:5356   */\n      swap3\n      swap2\n      pop\n      pop\n      jump\t// out\n        /* \"#utility.yul\":5362:5675   */\n    tag_21:\n        /* \"#utility.yul\":5475:5479   */\n      0x00\n        /* \"#utility.yul\":5513:5515   */\n      0x20\n        /* \"#utility.yul\":5502:5511   */\n      dup3\n        /* \"#utility.yul\":5498:5516   */\n      add\n        /* \"#utility.yul\":5490:5516   */\n      swap1\n      pop\n        /* \"#utility.yul\":5562:5571   */\n      dup2\n        /* \"#utility.yul\":5556:5560   */\n      dup2\n        /* \"#utility.yul\":5552:5572   */\n      sub\n        /* \"#utility.yul\":5548:5549   */\n      0x00\n        /* \"#utility.yul\":5537:5546   */\n      dup4\n        /* \"#utility.yul\":5533:5550   */\n      add\n        /* \"#utility.yul\":5526:5573   */\n      mstore\n        /* \"#utility.yul\":5590:5668   */\n      tag_160\n        /* \"#utility.yul\":5663:5667   */\n      dup2\n        /* \"#utility.yul\":5654:5660   */\n      dup5\n        /* \"#utility.yul\":5590:5668   */\n      tag_73\n      jump\t// in\n    tag_160:\n        /* \"#utility.yul\":5582:5668   */\n      swap1\n      pop\n        /* \"#utility.yul\":5362:5675   */\n      swap3\n      swap2\n      pop\n      pop\n      jump\t// out\n        /* \"#utility.yul\":5681:5799   */\n    tag_74:\n        /* \"#utility.yul\":5768:5792   */\n      tag_162\n        /* \"#utility.yul\":5786:5791   */\n      dup2\n        /* \"#utility.yul\":5768:5792   */\n      tag_67\n      jump\t// in\n    tag_162:\n        /* \"#utility.yul\":5763:5766   */\n      dup3\n        /* \"#utility.yul\":5756:5793   */\n      mstore\n        /* \"#utility.yul\":5681:5799   */\n      pop\n      pop\n      jump\t// out\n        /* \"#utility.yul\":5805:6137   */\n    tag_25:\n        /* \"#utility.yul\":5926:5930   */\n      0x00\n        /* \"#utility.yul\":5964:5966   */\n      0x40\n        /* \"#utility.yul\":5953:5962   */\n      dup3\n        /* \"#utility.yul\":5949:5967   */\n      add\n        /* \"#utility.yul\":5941:5967   */\n      swap1\n      pop\n        /* \"#utility.yul\":5977:6048   */\n      tag_164\n        /* \"#utility.yul\":6045:6046   */\n      0x00\n        /* \"#utility.yul\":6034:6043   */\n      dup4\n        /* \"#utility.yul\":6030:6047   */\n      add\n        /* \"#utility.yul\":6021:6027   */\n      dup6\n        /* \"#utility.yul\":5977:6048   */\n      tag_74\n      jump\t// in\n    tag_164:\n        /* \"#utility.yul\":6058:6130   */\n      tag_165\n        /* \"#utility.yul\":6126:6128   */\n      0x20\n        /* \"#utility.yul\":6115:6124   */\n      dup4\n        /* \"#utility.yul\":6111:6129   */\n      add\n        /* \"#utility.yul\":6102:6108   */\n      dup5\n        /* \"#utility.yul\":6058:6130   */\n      tag_74\n      jump\t// in\n    tag_165:\n        /* \"#utility.yul\":5805:6137   */\n      swap4\n      swap3\n      pop\n      pop\n      pop\n      jump\t// out\n        /* \"#utility.yul\":6143:6255   */\n    tag_75:\n        /* \"#utility.yul\":6226:6248   */\n      tag_167\n        /* \"#utility.yul\":6242:6247   */\n      dup2\n        /* \"#utility.yul\":6226:6248   */\n      tag_64\n      jump\t// in\n    tag_167:\n        /* \"#utility.yul\":6221:6224   */\n      dup3\n        /* \"#utility.yul\":6214:6249   */\n      mstore\n        /* \"#utility.yul\":6143:6255   */\n      pop\n      pop\n      jump\t// out\n        /* \"#utility.yul\":6261:6475   */\n    tag_30:\n        /* \"#utility.yul\":6350:6354   */\n      0x00\n        /* \"#utility.yul\":6388:6390   */\n      0x20\n        /* \"#utility.yul\":6377:6386   */\n      dup3\n        /* \"#utility.yul\":6373:6391   */\n      add\n        /* \"#utility.yul\":6365:6391   */\n      swap1\n      pop\n        /* \"#utility.yul\":6401:6468   */\n      tag_169\n        /* \"#utility.yul\":6465:6466   */\n      0x00\n        /* \"#utility.yul\":6454:6463   */\n      dup4\n        /* \"#utility.yul\":6450:6467   */\n      add\n        /* \"#utility.yul\":6441:6447   */\n      dup5\n        /* \"#utility.yul\":6401:6468   */\n      tag_75\n      jump\t// in\n    tag_169:\n        /* \"#utility.yul\":6261:6475   */\n      swap3\n      swap2\n      pop\n      pop\n      jump\t// out\n        /* \"#utility.yul\":6481:6661   */\n    tag_34:\n        /* \"#utility.yul\":6529:6606   */\n      0x4e487b7100000000000000000000000000000000000000000000000000000000\n        /* \"#utility.yul\":6526:6527   */\n      0x00\n        /* \"#utility.yul\":6519:6607   */\n      mstore\n        /* \"#utility.yul\":6626:6630   */\n      0x32\n        /* \"#utility.yul\":6623:6624   */\n      0x04\n        /* \"#utility.yul\":6616:6631   */\n      mstore\n        /* \"#utility.yul\":6650:6654   */\n      0x24\n        /* \"#utility.yul\":6647:6648   */\n      0x00\n        /* \"#utility.yul\":6640:6655   */\n      revert\n        /* \"#utility.yul\":6667:6847   */\n    tag_76:\n        /* \"#utility.yul\":6715:6792   */\n      0x4e487b7100000000000000000000000000000000000000000000000000000000\n        /* \"#utility.yul\":6712:6713   */\n      0x00\n        /* \"#utility.yul\":6705:6793   */\n      mstore\n        /* \"#utility.yul\":6812:6816   */\n      0x22\n        /* \"#utility.yul\":6809:6810   */\n      0x04\n        /* \"#utility.yul\":6802:6817   */\n      mstore\n        /* \"#utility.yul\":6836:6840   */\n      0x24\n        /* \"#utility.yul\":6833:6834   */\n      0x00\n        /* \"#utility.yul\":6826:6841   */\n      revert\n        /* \"#utility.yul\":6853:7173   */\n    tag_43:\n        /* \"#utility.yul\":6897:6903   */\n      0x00\n        /* \"#utility.yul\":6934:6935   */\n      0x02\n        /* \"#utility.yul\":6928:6932   */\n      dup3\n        /* \"#utility.yul\":6924:6936   */\n      div\n        /* \"#utility.yul\":6914:6936   */\n      swap1\n      pop\n        /* \"#utility.yul\":6981:6982   */\n      0x01\n        /* \"#utility.yul\":6975:6979   */\n      dup3\n        /* \"#utility.yul\":6971:6983   */\n      and\n        /* \"#utility.yul\":7002:7020   */\n      dup1\n        /* \"#utility.yul\":6992:7073   */\n      tag_173\n      jumpi\n        /* \"#utility.yul\":7058:7062   */\n      0x7f\n        /* \"#utility.yul\":7050:7056   */\n      dup3\n        /* \"#utility.yul\":7046:7063   */\n      and\n        /* \"#utility.yul\":7036:7063   */\n      swap2\n      pop\n        /* \"#utility.yul\":6992:7073   */\n    tag_173:\n        /* \"#utility.yul\":7120:7122   */\n      0x20\n        /* \"#utility.yul\":7112:7118   */\n      dup3\n        /* \"#utility.yul\":7109:7123   */\n      lt\n        /* \"#utility.yul\":7089:7107   */\n      dup2\n        /* \"#utility.yul\":7086:7124   */\n      sub\n        /* \"#utility.yul\":7083:7167   */\n      tag_174\n      jumpi\n        /* \"#utility.yul\":7139:7157   */\n      tag_175\n      tag_76\n      jump\t// in\n    tag_175:\n        /* \"#utility.yul\":7083:7167   */\n    tag_174:\n        /* \"#utility.yul\":6904:7173   */\n      pop\n        /* \"#utility.yul\":6853:7173   */\n      swap2\n      swap1\n      pop\n      jump\t// out\n        /* \"#utility.yul\":7179:7320   */\n    tag_77:\n        /* \"#utility.yul\":7228:7232   */\n      0x00\n        /* \"#utility.yul\":7251:7254   */\n      dup2\n        /* \"#utility.yul\":7243:7254   */\n      swap1\n      pop\n        /* \"#utility.yul\":7274:7277   */\n      dup2\n        /* \"#utility.yul\":7271:7272   */\n      0x00\n        /* \"#utility.yul\":7264:7278   */\n      mstore\n        /* \"#utility.yul\":7308:7312   */\n      0x20\n        /* \"#utility.yul\":7305:7306   */\n      0x00\n        /* \"#utility.yul\":7295:7313   */\n      keccak256\n        /* \"#utility.yul\":7287:7313   */\n      swap1\n      pop\n        /* \"#utility.yul\":7179:7320   */\n      swap2\n      swap1\n      pop\n      jump\t// out\n        /* \"#utility.yul\":7326:7419   */\n    tag_78:\n        /* \"#utility.yul\":7363:7369   */\n      0x00\n        /* \"#utility.yul\":7410:7412   */\n      0x20\n        /* \"#utility.yul\":7405:7407   */\n      0x1f\n        /* \"#utility.yul\":7398:7403   */\n      dup4\n        /* \"#utility.yul\":7394:7408   */\n      add\n        /* \"#utility.yul\":7390:7413   */\n      div\n        /* \"#utility.yul\":7380:7413   */\n      swap1\n      pop\n        /* \"#utility.yul\":7326:7419   */\n      swap2\n      swap1\n      pop\n      jump\t// out\n        /* \"#utility.yul\":7425:7532   */\n    tag_79:\n        /* \"#utility.yul\":7469:7477   */\n      0x00\n        /* \"#utility.yul\":7519:7524   */\n      dup3\n        /* \"#utility.yul\":7513:7517   */\n      dup3\n        /* \"#utility.yul\":7509:7525   */\n      shl\n        /* \"#utility.yul\":7488:7525   */\n      swap1\n      pop\n        /* \"#utility.yul\":7425:7532   */\n      swap3\n      swap2\n      pop\n      pop\n      jump\t// out\n        /* \"#utility.yul\":7538:7931   */\n    tag_80:\n        /* \"#utility.yul\":7607:7613   */\n      0x00\n        /* \"#utility.yul\":7657:7658   */\n      0x08\n        /* \"#utility.yul\":7645:7655   */\n      dup4\n        /* \"#utility.yul\":7641:7659   */\n      mul\n        /* \"#utility.yul\":7680:7777   */\n      tag_180\n        /* \"#utility.yul\":7710:7776   */\n      0xffffffffffffffffffffffffffffffffffffffffffffffffffffffffffffffff\n        /* \"#utility.yul\":7699:7708   */\n      dup3\n        /* \"#utility.yul\":7680:7777   */\n      tag_79\n      jump\t// in\n    tag_180:\n        /* \"#utility.yul\":7798:7837   */\n      tag_181\n        /* \"#utility.yul\":7828:7836   */\n      dup7\n        /* \"#utility.yul\":7817:7826   */\n      dup4\n        /* \"#utility.yul\":7798:7837   */\n      tag_79\n      jump\t// in\n    tag_181:\n        /* \"#utility.yul\":7786:7837   */\n      swap6\n      pop\n        /* \"#utility.yul\":7870:7874   */\n      dup1\n        /* \"#utility.yul\":7866:7875   */\n      not\n        /* \"#utility.yul\":7859:7864   */\n      dup5\n        /* \"#utility.yul\":7855:7876   */\n      and\n        /* \"#utility.yul\":7846:7876   */\n      swap4\n      pop\n        /* \"#utility.yul\":7919:7923   */\n      dup1\n        /* \"#utility.yul\":7909:7917   */\n      dup7\n        /* \"#utility.yul\":7905:7924   */\n      and\n        /* \"#utility.yul\":7898:7903   */\n      dup5\n        /* \"#utility.yul\":7895:7925   */\n      or\n        /* \"#utility.yul\":7885:7925   */\n      swap3\n      pop\n        /* \"#utility.yul\":7614:7931   */\n      pop\n      pop\n        /* \"#utility.yul\":7538:7931   */\n      swap4\n      swap3\n      pop\n      pop\n      pop\n      jump\t// out\n        /* \"#utility.yul\":7937:7997   */\n    tag_81:\n        /* \"#utility.yul\":7965:7968   */\n      0x00\n        /* \"#utility.yul\":7986:7991   */\n      dup2\n        /* \"#utility.yul\":7979:7991   */\n      swap1\n      pop\n        /* \"#utility.yul\":7937:7997   */\n      swap2\n      swap1\n      pop\n      jump\t// out\n        /* \"#utility.yul\":8003:8145   */\n    tag_82:\n        /* \"#utility.yul\":8053:8062   */\n      0x00\n        /* \"#utility.yul\":8086:8139   */\n      tag_184\n        /* \"#utility.yul\":8104:8138   */\n      tag_185\n        /* \"#utility.yul\":8113:8137   */\n      tag_186\n        /* \"#utility.yul\":8131:8136   */\n      dup5\n        /* \"#utility.yul\":8113:8137   */\n      tag_67\n      jump\t// in\n    tag_186:\n        /* \"#utility.yul\":8104:8138   */\n      tag_81\n      jump\t// in\n    tag_185:\n        /* \"#utility.yul\":8086:8139   */\n      tag_67\n      jump\t// in\n    tag_184:\n        /* \"#utility.yul\":8073:8139   */\n      swap1\n      pop\n        /* \"#utility.yul\":8003:8145   */\n      swap2\n      swap1\n      pop\n      jump\t// out\n        /* \"#utility.yul\":8151:8226   */\n    tag_83:\n        /* \"#utility.yul\":8194:8197   */\n      0x00\n        /* \"#utility.yul\":8215:8220   */\n      dup2\n        /* \"#utility.yul\":8208:8220   */\n      swap1\n      pop\n        /* \"#utility.yul\":8151:8226   */\n      swap2\n      swap1\n      pop\n      jump\t// out\n        /* \"#utility.yul\":8232:8501   */\n    tag_84:\n        /* \"#utility.yul\":8342:8381   */\n      tag_189\n        /* \"#utility.yul\":8373:8380   */\n      dup4\n        /* \"#utility.yul\":8342:8381   */\n      tag_82\n      jump\t// in\n    tag_189:\n        /* \"#utility.yul\":8403:8494   */\n      tag_190\n        /* \"#utility.yul\":8452:8493   */\n      tag_191\n        /* \"#utility.yul\":8476:8492   */\n      dup3\n        /* \"#utility.yul\":8452:8493   */\n      tag_83\n      jump\t// in\n    tag_191:\n        /* \"#utility.yul\":8444:8450   */\n      dup5\n        /* \"#utility.yul\":8437:8441   */\n      dup5\n        /* \"#utility.yul\":8431:8442   */\n      sload\n        /* \"#utility.yul\":8403:8494   */\n      tag_80\n      jump\t// in\n    tag_190:\n        /* \"#utility.yul\":8397:8401   */\n      dup3\n        /* \"#utility.yul\":8390:8495   */\n      sstore\n        /* \"#utility.yul\":8308:8501   */\n      pop\n        /* \"#utility.yul\":8232:8501   */\n      pop\n      pop\n      pop\n      jump\t// out\n        /* \"#utility.yul\":8507:8580   */\n    tag_85:\n        /* \"#utility.yul\":8552:8555   */\n      0x00\n        /* \"#utility.yul\":8507:8580   */\n      swap1\n      jump\t// out\n        /* \"#utility.yul\":8586:8775   */\n    tag_86:\n        /* \"#utility.yul\":8663:8695   */\n      tag_194\n      tag_85\n      jump\t// in\n    tag_194:\n        /* \"#utility.yul\":8704:8769   */\n      tag_195\n        /* \"#utility.yul\":8762:8768   */\n      dup2\n        /* \"#utility.yul\":8754:8760   */\n      dup5\n        /* \"#utility.yul\":8748:8752   */\n      dup5\n        /* \"#utility.yul\":8704:8769   */\n      tag_84\n      jump\t// in\n    tag_195:\n        /* \"#utility.yul\":8639:8775   */\n      pop\n        /* \"#utility.yul\":8586:8775   */\n      pop\n      pop\n      jump\t// out\n        /* \"#utility.yul\":8781:8967   */\n    tag_87:\n        /* \"#utility.yul\":8841:8961   */\n    tag_197:\n        /* \"#utility.yul\":8858:8861   */\n      dup2\n        /* \"#utility.yul\":8851:8856   */\n      dup2\n        /* \"#utility.yul\":8848:8862   */\n      lt\n        /* \"#utility.yul\":8841:8961   */\n      iszero\n      tag_199\n      jumpi\n        /* \"#utility.yul\":8912:8951   */\n      tag_200\n        /* \"#utility.yul\":8949:8950   */\n      0x00\n        /* \"#utility.yul\":8942:8947   */\n      dup3\n        /* \"#utility.yul\":8912:8951   */\n      tag_86\n      jump\t// in\n    tag_200:\n        /* \"#utility.yul\":8885:8886   */\n      0x01\n        /* \"#utility.yul\":8878:8883   */\n      dup2\n        /* \"#utility.yul\":8874:8887   */\n      add\n        /* \"#utility.yul\":8865:8887   */\n      swap1\n      pop\n        /* \"#utility.yul\":8841:8961   */\n      jump(tag_197)\n    tag_199:\n        /* \"#utility.yul\":8781:8967   */\n      pop\n      pop\n      jump\t// out\n        /* \"#utility.yul\":8973:9516   */\n    tag_88:\n        /* \"#utility.yul\":9074:9076   */\n      0x1f\n        /* \"#utility.yul\":9069:9072   */\n      dup3\n        /* \"#utility.yul\":9066:9077   */\n      gt\n        /* \"#utility.yul\":9063:9509   */\n      iszero\n      tag_202\n      jumpi\n        /* \"#utility.yul\":9108:9146   */\n      tag_203\n        /* \"#utility.yul\":9140:9145   */\n      dup2\n        /* \"#utility.yul\":9108:9146   */\n      tag_77\n      jump\t// in\n    tag_203:\n        /* \"#utility.yul\":9192:9221   */\n      tag_204\n        /* \"#utility.yul\":9210:9220   */\n      dup5\n        /* \"#utility.yul\":9192:9221   */\n      tag_78\n      jump\t// in\n    tag_204:\n        /* \"#utility.yul\":9182:9190   */\n      dup2\n        /* \"#utility.yul\":9178:9222   */\n      add\n        /* \"#utility.yul\":9375:9377   */\n      0x20\n        /* \"#utility.yul\":9363:9373   */\n      dup6\n        /* \"#utility.yul\":9360:9378   */\n      lt\n        /* \"#utility.yul\":9357:9406   */\n      iszero\n      tag_205\n      jumpi\n        /* \"#utility.yul\":9396:9404   */\n      dup2\n        /* \"#utility.yul\":9381:9404   */\n      swap1\n      pop\n        /* \"#utility.yul\":9357:9406   */\n    tag_205:\n        /* \"#utility.yul\":9419:9499   */\n      tag_206\n        /* \"#utility.yul\":9475:9497   */\n      tag_207\n        /* \"#utility.yul\":9493:9496   */\n      dup6\n        /* \"#utility.yul\":9475:9497   */\n      tag_78\n      jump\t// in\n    tag_207:\n        /* \"#utility.yul\":9465:9473   */\n      dup4\n        /* \"#utility.yul\":9461:9498   */\n      add\n        /* \"#utility.yul\":9448:9459   */\n      dup3\n        /* \"#utility.yul\":9419:9499   */\n      tag_87\n      jump\t// in\n    tag_206:\n        /* \"#utility.yul\":9078:9509   */\n      pop\n      pop\n        /* \"#utility.yul\":9063:9509   */\n    tag_202:\n        /* \"#utility.yul\":8973:9516   */\n      pop\n      pop\n      pop\n      jump\t// out\n        /* \"#utility.yul\":9522:9639   */\n    tag_89:\n        /* \"#utility.yul\":9576:9584   */\n      0x00\n        /* \"#utility.yul\":9626:9631   */\n      dup3\n        /* \"#utility.yul\":9620:9624   */\n      dup3\n        /* \"#utility.yul\":9616:9632   */\n      shr\n        /* \"#utility.yul\":9595:9632   */\n      swap1\n      pop\n        /* \"#utility.yul\":9522:9639   */\n      swap3\n      swap2\n      pop\n      pop\n      jump\t// out\n        /* \"#utility.yul\":9645:9814   */\n    tag_90:\n        /* \"#utility.yul\":9689:9695   */\n      0x00\n        /* \"#utility.yul\":9722:9773   */\n      tag_210\n        /* \"#utility.yul\":9770:9771   */\n      0x00\n        /* \"#utility.yul\":9766:9772   */\n      not\n        /* \"#utility.yul\":9758:9763   */\n      dup5\n        /* \"#utility.yul\":9755:9756   */\n      0x08\n        /* \"#utility.yul\":9751:9764   */\n      mul\n        /* \"#utility.yul\":9722:9773   */\n      tag_89\n      jump\t// in\n    tag_210:\n        /* \"#utility.yul\":9718:9774   */\n      not\n        /* \"#utility.yul\":9803:9807   */\n      dup1\n        /* \"#utility.yul\":9797:9801   */\n      dup4\n        /* \"#utility.yul\":9793:9808   */\n      and\n        /* \"#utility.yul\":9783:9808   */\n      swap2\n      pop\n        /* \"#utility.yul\":9696:9814   */\n      pop\n        /* \"#utility.yul\":9645:9814   */\n      swap3\n      swap2\n      pop\n      pop\n      jump\t// out\n        /* \"#utility.yul\":9819:10114   */\n    tag_91:\n        /* \"#utility.yul\":9895:9899   */\n      0x00\n        /* \"#utility.yul\":10041:10070   */\n      tag_212\n        /* \"#utility.yul\":10066:10069   */\n      dup4\n        /* \"#utility.yul\":10060:10064   */\n      dup4\n        /* \"#utility.yul\":10041:10070   */\n      tag_90\n      jump\t// in\n    tag_212:\n        /* \"#utility.yul\":10033:10070   */\n      swap2\n      pop\n        /* \"#utility.yul\":10103:10106   */\n      dup3\n        /* \"#utility.yul\":10100:10101   */\n      0x02\n        /* \"#utility.yul\":10096:10107   */\n      mul\n        /* \"#utility.yul\":10090:10094   */\n      dup3\n        /* \"#utility.yul\":10087:10108   */\n      or\n        /* \"#utility.yul\":10079:10108   */\n      swap1\n      pop\n        /* \"#utility.yul\":9819:10114   */\n      swap3\n      swap2\n      pop\n      pop\n      jump\t// out\n        /* \"#utility.yul\":10119:11514   */\n    tag_37:\n        /* \"#utility.yul\":10236:10273   */\n      tag_214\n        /* \"#utility.yul\":10269:10272   */\n      dup3\n        /* \"#utility.yul\":10236:10273   */\n      tag_70\n      jump\t// in\n    tag_214:\n        /* \"#utility.yul\":10338:10356   */\n      0xffffffffffffffff\n        /* \"#utility.yul\":10330:10336   */\n      dup2\n        /* \"#utility.yul\":10327:10357   */\n      gt\n        /* \"#utility.yul\":10324:10380   */\n      iszero\n      tag_215\n      jumpi\n        /* \"#utility.yul\":10360:10378   */\n      tag_216\n      tag_57\n      jump\t// in\n    tag_216:\n        /* \"#utility.yul\":10324:10380   */\n    tag_215:\n        /* \"#utility.yul\":10404:10442   */\n      tag_217\n        /* \"#utility.yul\":10436:10440   */\n      dup3\n        /* \"#utility.yul\":10430:10441   */\n      sload\n        /* \"#utility.yul\":10404:10442   */\n      tag_43\n      jump\t// in\n    tag_217:\n        /* \"#utility.yul\":10489:10556   */\n      tag_218\n        /* \"#utility.yul\":10549:10555   */\n      dup3\n        /* \"#utility.yul\":10541:10547   */\n      dup3\n        /* \"#utility.yul\":10535:10539   */\n      dup6\n        /* \"#utility.yul\":10489:10556   */\n      tag_88\n      jump\t// in\n    tag_218:\n        /* \"#utility.yul\":10583:10584   */\n      0x00\n        /* \"#utility.yul\":10607:10611   */\n      0x20\n        /* \"#utility.yul\":10594:10611   */\n      swap1\n      pop\n        /* \"#utility.yul\":10639:10641   */\n      0x1f\n        /* \"#utility.yul\":10631:10637   */\n      dup4\n        /* \"#utility.yul\":10628:10642   */\n      gt\n        /* \"#utility.yul\":10656:10657   */\n      0x01\n        /* \"#utility.yul\":10651:11269   */\n      dup2\n      eq\n      tag_220\n      jumpi\n        /* \"#utility.yul\":11313:11314   */\n      0x00\n        /* \"#utility.yul\":11330:11336   */\n      dup5\n        /* \"#utility.yul\":11327:11404   */\n      iszero\n      tag_221\n      jumpi\n        /* \"#utility.yul\":11379:11388   */\n      dup3\n        /* \"#utility.yul\":11374:11377   */\n      dup8\n        /* \"#utility.yul\":11370:11389   */\n      add\n        /* \"#utility.yul\":11364:11390   */\n      mload\n        /* \"#utility.yul\":11355:11390   */\n      swap1\n      pop\n        /* \"#utility.yul\":11327:11404   */\n    tag_221:\n        /* \"#utility.yul\":11430:11497   */\n      tag_222\n        /* \"#utility.yul\":11490:11496   */\n      dup6\n        /* \"#utility.yul\":11483:11488   */\n      dup3\n        /* \"#utility.yul\":11430:11497   */\n      tag_91\n      jump\t// in\n    tag_222:\n        /* \"#utility.yul\":11424:11428   */\n      dup7\n        /* \"#utility.yul\":11417:11498   */\n      sstore\n        /* \"#utility.yul\":11286:11508   */\n      pop\n        /* \"#utility.yul\":10621:11508   */\n      jump(tag_219)\n        /* \"#utility.yul\":10651:11269   */\n    tag_220:\n        /* \"#utility.yul\":10703:10707   */\n      0x1f\n        /* \"#utility.yul\":10699:10708   */\n      not\n        /* \"#utility.yul\":10691:10697   */\n      dup5\n        /* \"#utility.yul\":10687:10709   */\n      and\n        /* \"#utility.yul\":10737:10774   */\n      tag_223\n        /* \"#utility.yul\":10769:10773   */\n      dup7\n        /* \"#utility.yul\":10737:10774   */\n      tag_77\n      jump\t// in\n    tag_223:\n        /* \"#utility.yul\":10796:10797   */\n      0x00\n        /* \"#utility.yul\":10810:11018   */\n    tag_224:\n        /* \"#utility.yul\":10824:10831   */\n      dup3\n        /* \"#utility.yul\":10821:10822   */\n      dup2\n        /* \"#utility.yul\":10818:10832   */\n      lt\n        /* \"#utility.yul\":10810:11018   */\n      iszero\n      tag_226\n      jumpi\n        /* \"#utility.yul\":10903:10912   */\n      dup5\n        /* \"#utility.yul\":10898:10901   */\n      dup10\n        /* \"#utility.yul\":10894:10913   */\n      add\n        /* \"#utility.yul\":10888:10914   */\n      mload\n        /* \"#utility.yul\":10880:10886   */\n      dup3\n        /* \"#utility.yul\":10873:10915   */\n      sstore\n        /* \"#utility.yul\":10954:10955   */\n      0x01\n        /* \"#utility.yul\":10946:10952   */\n      dup3\n        /* \"#utility.yul\":10942:10956   */\n      add\n        /* \"#utility.yul\":10932:10956   */\n      swap2\n      pop\n        /* \"#utility.yul\":11001:11003   */\n      0x20\n        /* \"#utility.yul\":10990:10999   */\n      dup6\n        /* \"#utility.yul\":10986:11004   */\n      add\n        /* \"#utility.yul\":10973:11004   */\n      swap5\n      pop\n        /* \"#utility.yul\":10847:10851   */\n      0x20\n        /* \"#utility.yul\":10844:10845   */\n      dup2\n        /* \"#utility.yul\":10840:10852   */\n      add\n        /* \"#utility.yul\":10835:10852   */\n      swap1\n      pop\n        /* \"#utility.yul\":10810:11018   */\n      jump(tag_224)\n    tag_226:\n        /* \"#utility.yul\":11046:11052   */\n      dup7\n        /* \"#utility.yul\":11037:11044   */\n      dup4\n        /* \"#utility.yul\":11034:11053   */\n      lt\n        /* \"#utility.yul\":11031:11210   */\n      iszero\n      tag_227\n      jumpi\n        /* \"#utility.yul\":11104:11113   */\n      dup5\n        /* \"#utility.yul\":11099:11102   */\n      dup10\n        /* \"#utility.yul\":11095:11114   */\n      add\n        /* \"#utility.yul\":11089:11115   */\n      mload\n        /* \"#utility.yul\":11147:11195   */\n      tag_228\n        /* \"#utility.yul\":11189:11193   */\n      0x1f\n        /* \"#utility.yul\":11181:11187   */\n      dup10\n        /* \"#utility.yul\":11177:11194   */\n      and\n        /* \"#utility.yul\":11166:11175   */\n      dup3\n        /* \"#utility.yul\":11147:11195   */\n      tag_90\n      jump\t// in\n    tag_228:\n        /* \"#utility.yul\":11139:11145   */\n      dup4\n        /* \"#utility.yul\":11132:11196   */\n      sstore\n        /* \"#utility.yul\":11054:11210   */\n      pop\n        /* \"#utility.yul\":11031:11210   */\n    tag_227:\n        /* \"#utility.yul\":11256:11257   */\n      0x01\n        /* \"#utility.yul\":11252:11253   */\n      0x02\n        /* \"#utility.yul\":11244:11250   */\n      dup9\n        /* \"#utility.yul\":11240:11254   */\n      mul\n        /* \"#utility.yul\":11236:11258   */\n      add\n        /* \"#utility.yul\":11230:11234   */\n      dup9\n        /* \"#utility.yul\":11223:11259   */\n      sstore\n        /* \"#utility.yul\":10658:11269   */\n      pop\n      pop\n      pop\n        /* \"#utility.yul\":10621:11508   */\n    tag_219:\n      pop\n        /* \"#utility.yul\":10211:11514   */\n      pop\n      pop\n      pop\n        /* \"#utility.yul\":10119:11514   */\n      pop\n      pop\n      jump\t// out\n\n    auxdata: 0xa2646970667358221220bb3ccb820120a68662d6f821851b3813a13357c5062fc50c501444359ee8edc864736f6c63430008120033\n}\n",
				"bytecode": {
					"linkReferences": {},
					"object": "60806040523480156200001157600080fd5b506040518060400160405280600881526020017f7a68616e6773616e000000000000000000000000000000000000000000000000815250600080600581106200005f576200005e62000177565b5b0190816200006e919062000420565b506040518060400160405280600481526020017f6c697369000000000000000000000000000000000000000000000000000000008152506000600160058110620000bd57620000bc62000177565b5b019081620000cc919062000420565b506040518060400160405280600b81526020017f73756e7a68656e6e696e6700000000000000000000000000000000000000000081525060006002600581106200011b576200011a62000177565b5b0190816200012a919062000420565b506005601490806001815401808255809150506001900390600052602060002090602091828204019190069091909190916101000a81548160ff021916908360ff16021790555062000507565b7f4e487b7100000000000000000000000000000000000000000000000000000000600052603260045260246000fd5b600081519050919050565b7f4e487b7100000000000000000000000000000000000000000000000000000000600052604160045260246000fd5b7f4e487b7100000000000000000000000000000000000000000000000000000000600052602260045260246000fd5b600060028204905060018216806200022857607f821691505b6020821081036200023e576200023d620001e0565b5b50919050565b60008190508160005260206000209050919050565b60006020601f8301049050919050565b600082821b905092915050565b600060088302620002a87fffffffffffffffffffffffffffffffffffffffffffffffffffffffffffffffff8262000269565b620002b4868362000269565b95508019841693508086168417925050509392505050565b6000819050919050565b6000819050919050565b600062000301620002fb620002f584620002cc565b620002d6565b620002cc565b9050919050565b6000819050919050565b6200031d83620002e0565b620003356200032c8262000308565b84845462000276565b825550505050565b600090565b6200034c6200033d565b6200035981848462000312565b505050565b5b8181101562000381576200037560008262000342565b6001810190506200035f565b5050565b601f821115620003d0576200039a8162000244565b620003a58462000259565b81016020851015620003b5578190505b620003cd620003c48562000259565b8301826200035e565b50505b505050565b600082821c905092915050565b6000620003f560001984600802620003d5565b1980831691505092915050565b6000620004108383620003e2565b9150826002028217905092915050565b6200042b82620001a6565b67ffffffffffffffff811115620004475762000446620001b1565b5b6200045382546200020f565b6200046082828562000385565b600060209050601f83116001811462000498576000841562000483578287015190505b6200048f858262000402565b865550620004ff565b601f198416620004a88662000244565b60005b82811015620004d257848901518255600182019150602085019450602081019050620004ab565b86831015620004f25784890151620004ee601f891682620003e2565b8355505b6001600288020188555050505b505050505050565b61091d80620005176000396000f3fe608060405234801561001057600080fd5b50600436106100575760003560e01c806311456b471461005c5780632f7b8d26146100785780634622ab0314610094578063be1c766b146100c4578063c4a1a8db146100e3575b600080fd5b610076600480360381019061007191906103c5565b610113565b005b610092600480360381019061008d9190610447565b61013a565b005b6100ae60048036038101906100a991906104aa565b610182565b6040516100bb9190610556565b60405180910390f35b6100cc610225565b6040516100da929190610587565b60405180910390f35b6100fd60048036038101906100f891906104aa565b610237565b60405161010a91906105bf565b60405180910390f35b806000600360058110610129576101286105da565b5b0190816101369190610815565b5050565b60058190806001815401808255809150506001900390600052602060002090602091828204019190069091909190916101000a81548160ff021916908360ff16021790555050565b6000816005811061019257600080fd5b0160009150905080546101a490610638565b80601f01602080910402602001604051908101604052809291908181526020018280546101d090610638565b801561021d5780601f106101f25761010080835404028352916020019161021d565b820191906000526020600020905b81548152906001019060200180831161020057829003601f168201915b505050505081565b60008060058080549050915091509091565b6005818154811061024757600080fd5b9060005260206000209060209182820401919006915054906101000a900460ff1681565b6000604051905090565b600080fd5b600080fd5b600080fd5b600080fd5b6000601f19601f8301169050919050565b7f4e487b7100000000000000000000000000000000000000000000000000000000600052604160045260246000fd5b6102d282610289565b810181811067ffffffffffffffff821117156102f1576102f061029a565b5b80604052505050565b600061030461026b565b905061031082826102c9565b919050565b600067ffffffffffffffff8211156103305761032f61029a565b5b61033982610289565b9050602081019050919050565b82818337600083830152505050565b600061036861036384610315565b6102fa565b90508281526020810184848401111561038457610383610284565b5b61038f848285610346565b509392505050565b600082601f8301126103ac576103ab61027f565b5b81356103bc848260208601610355565b91505092915050565b6000602082840312156103db576103da610275565b5b600082013567ffffffffffffffff8111156103f9576103f861027a565b5b61040584828501610397565b91505092915050565b600060ff82169050919050565b6104248161040e565b811461042f57600080fd5b50565b6000813590506104418161041b565b92915050565b60006020828403121561045d5761045c610275565b5b600061046b84828501610432565b91505092915050565b6000819050919050565b61048781610474565b811461049257600080fd5b50565b6000813590506104a48161047e565b92915050565b6000602082840312156104c0576104bf610275565b5b60006104ce84828501610495565b91505092915050565b600081519050919050565b600082825260208201905092915050565b60005b838110156105115780820151818401526020810190506104f6565b60008484015250505050565b6000610528826104d7565b61053281856104e2565b93506105428185602086016104f3565b61054b81610289565b840191505092915050565b60006020820190508181036000830152610570818461051d565b905092915050565b61058181610474565b82525050565b600060408201905061059c6000830185610578565b6105a96020830184610578565b9392505050565b6105b98161040e565b82525050565b60006020820190506105d460008301846105b0565b92915050565b7f4e487b7100000000000000000000000000000000000000000000000000000000600052603260045260246000fd5b7f4e487b7100000000000000000000000000000000000000000000000000000000600052602260045260246000fd5b6000600282049050600182168061065057607f821691505b60208210810361066357610662610609565b5b50919050565b60008190508160005260206000209050919050565b60006020601f8301049050919050565b600082821b905092915050565b6000600883026106cb7fffffffffffffffffffffffffffffffffffffffffffffffffffffffffffffffff8261068e565b6106d5868361068e565b95508019841693508086168417925050509392505050565b6000819050919050565b600061071261070d61070884610474565b6106ed565b610474565b9050919050565b6000819050919050565b61072c836106f7565b61074061073882610719565b84845461069b565b825550505050565b600090565b610755610748565b610760818484610723565b505050565b5b818110156107845761077960008261074d565b600181019050610766565b5050565b601f8211156107c95761079a81610669565b6107a38461067e565b810160208510156107b2578190505b6107c66107be8561067e565b830182610765565b50505b505050565b600082821c905092915050565b60006107ec600019846008026107ce565b1980831691505092915050565b600061080583836107db565b9150826002028217905092915050565b61081e826104d7565b67ffffffffffffffff8111156108375761083661029a565b5b6108418254610638565b61084c828285610788565b600060209050601f83116001811461087f576000841561086d578287015190505b61087785826107f9565b8655506108df565b601f19841661088d86610669565b60005b828110156108b557848901518255600182019150602085019450602081019050610890565b868310156108d257848901516108ce601f8916826107db565b8355505b6001600288020188555050505b50505050505056fea2646970667358221220bb3ccb820120a68662d6f821851b3813a13357c5062fc50c501444359ee8edc864736f6c63430008120033",
					"opcodes": "PUSH1 0x80 PUSH1 0x40 MSTORE CALLVALUE DUP1 ISZERO PUSH3 0x11 JUMPI PUSH1 0x0 DUP1 REVERT JUMPDEST POP PUSH1 0x40 MLOAD DUP1 PUSH1 0x40 ADD PUSH1 0x40 MSTORE DUP1 PUSH1 0x8 DUP2 MSTORE PUSH1 0x20 ADD PUSH32 0x7A68616E6773616E000000000000000000000000000000000000000000000000 DUP2 MSTORE POP PUSH1 0x0 DUP1 PUSH1 0x5 DUP2 LT PUSH3 0x5F JUMPI PUSH3 0x5E PUSH3 0x177 JUMP JUMPDEST JUMPDEST ADD SWAP1 DUP2 PUSH3 0x6E SWAP2 SWAP1 PUSH3 0x420 JUMP JUMPDEST POP PUSH1 0x40 MLOAD DUP1 PUSH1 0x40 ADD PUSH1 0x40 MSTORE DUP1 PUSH1 0x4 DUP2 MSTORE PUSH1 0x20 ADD PUSH32 0x6C69736900000000000000000000000000000000000000000000000000000000 DUP2 MSTORE POP PUSH1 0x0 PUSH1 0x1 PUSH1 0x5 DUP2 LT PUSH3 0xBD JUMPI PUSH3 0xBC PUSH3 0x177 JUMP JUMPDEST JUMPDEST ADD SWAP1 DUP2 PUSH3 0xCC SWAP2 SWAP1 PUSH3 0x420 JUMP JUMPDEST POP PUSH1 0x40 MLOAD DUP1 PUSH1 0x40 ADD PUSH1 0x40 MSTORE DUP1 PUSH1 0xB DUP2 MSTORE PUSH1 0x20 ADD PUSH32 0x73756E7A68656E6E696E67000000000000000000000000000000000000000000 DUP2 MSTORE POP PUSH1 0x0 PUSH1 0x2 PUSH1 0x5 DUP2 LT PUSH3 0x11B JUMPI PUSH3 0x11A PUSH3 0x177 JUMP JUMPDEST JUMPDEST ADD SWAP1 DUP2 PUSH3 0x12A SWAP2 SWAP1 PUSH3 0x420 JUMP JUMPDEST POP PUSH1 0x5 PUSH1 0x14 SWAP1 DUP1 PUSH1 0x1 DUP2 SLOAD ADD DUP1 DUP3 SSTORE DUP1 SWAP2 POP POP PUSH1 0x1 SWAP1 SUB SWAP1 PUSH1 0x0 MSTORE PUSH1 0x20 PUSH1 0x0 KECCAK256 SWAP1 PUSH1 0x20 SWAP2 DUP3 DUP3 DIV ADD SWAP2 SWAP1 MOD SWAP1 SWAP2 SWAP1 SWAP2 SWAP1 SWAP2 PUSH2 0x100 EXP DUP2 SLOAD DUP2 PUSH1 0xFF MUL NOT AND SWAP1 DUP4 PUSH1 0xFF AND MUL OR SWAP1 SSTORE POP PUSH3 0x507 JUMP JUMPDEST PUSH32 0x4E487B7100000000000000000000000000000000000000000000000000000000 PUSH1 0x0 MSTORE PUSH1 0x32 PUSH1 0x4 MSTORE PUSH1 0x24 PUSH1 0x0 REVERT JUMPDEST PUSH1 0x0 DUP2 MLOAD SWAP1 POP SWAP2 SWAP1 POP JUMP JUMPDEST PUSH32 0x4E487B7100000000000000000000000000000000000000000000000000000000 PUSH1 0x0 MSTORE PUSH1 0x41 PUSH1 0x4 MSTORE PUSH1 0x24 PUSH1 0x0 REVERT JUMPDEST PUSH32 0x4E487B7100000000000000000000000000000000000000000000000000000000 PUSH1 0x0 MSTORE PUSH1 0x22 PUSH1 0x4 MSTORE PUSH1 0x24 PUSH1 0x0 REVERT JUMPDEST PUSH1 0x0 PUSH1 0x2 DUP3 DIV SWAP1 POP PUSH1 0x1 DUP3 AND DUP1 PUSH3 0x228 JUMPI PUSH1 0x7F DUP3 AND SWAP2 POP JUMPDEST PUSH1 0x20 DUP3 LT DUP2 SUB PUSH3 0x23E JUMPI PUSH3 0x23D PUSH3 0x1E0 JUMP JUMPDEST JUMPDEST POP SWAP2 SWAP1 POP JUMP JUMPDEST PUSH1 0x0 DUP2 SWAP1 POP DUP2 PUSH1 0x0 MSTORE PUSH1 0x20 PUSH1 0x0 KECCAK256 SWAP1 POP SWAP2 SWAP1 POP JUMP JUMPDEST PUSH1 0x0 PUSH1 0x20 PUSH1 0x1F DUP4 ADD DIV SWAP1 POP SWAP2 SWAP1 POP JUMP JUMPDEST PUSH1 0x0 DUP3 DUP3 SHL SWAP1 POP SWAP3 SWAP2 POP POP JUMP JUMPDEST PUSH1 0x0 PUSH1 0x8 DUP4 MUL PUSH3 0x2A8 PUSH32 0xFFFFFFFFFFFFFFFFFFFFFFFFFFFFFFFFFFFFFFFFFFFFFFFFFFFFFFFFFFFFFFFF DUP3 PUSH3 0x269 JUMP JUMPDEST PUSH3 0x2B4 DUP7 DUP4 PUSH3 0x269 JUMP JUMPDEST SWAP6 POP DUP1 NOT DUP5 AND SWAP4 POP DUP1 DUP7 AND DUP5 OR SWAP3 POP POP POP SWAP4 SWAP3 POP POP POP JUMP JUMPDEST PUSH1 0x0 DUP2 SWAP1 POP SWAP2 SWAP1 POP JUMP JUMPDEST PUSH1 0x0 DUP2 SWAP1 POP SWAP2 SWAP1 POP JUMP JUMPDEST PUSH1 0x0 PUSH3 0x301 PUSH3 0x2FB PUSH3 0x2F5 DUP5 PUSH3 0x2CC JUMP JUMPDEST PUSH3 0x2D6 JUMP JUMPDEST PUSH3 0x2CC JUMP JUMPDEST SWAP1 POP SWAP2 SWAP1 POP JUMP JUMPDEST PUSH1 0x0 DUP2 SWAP1 POP SWAP2 SWAP1 POP JUMP JUMPDEST PUSH3 0x31D DUP4 PUSH3 0x2E0 JUMP JUMPDEST PUSH3 0x335 PUSH3 0x32C DUP3 PUSH3 0x308 JUMP JUMPDEST DUP5 DUP5 SLOAD PUSH3 0x276 JUMP JUMPDEST DUP3 SSTORE POP POP POP POP JUMP JUMPDEST PUSH1 0x0 SWAP1 JUMP JUMPDEST PUSH3 0x34C PUSH3 0x33D JUMP JUMPDEST PUSH3 0x359 DUP2 DUP5 DUP5 PUSH3 0x312 JUMP JUMPDEST POP POP POP JUMP JUMPDEST JUMPDEST DUP2 DUP2 LT ISZERO PUSH3 0x381 JUMPI PUSH3 0x375 PUSH1 0x0 DUP3 PUSH3 0x342 JUMP JUMPDEST PUSH1 0x1 DUP2 ADD SWAP1 POP PUSH3 0x35F JUMP JUMPDEST POP POP JUMP JUMPDEST PUSH1 0x1F DUP3 GT ISZERO PUSH3 0x3D0 JUMPI PUSH3 0x39A DUP2 PUSH3 0x244 JUMP JUMPDEST PUSH3 0x3A5 DUP5 PUSH3 0x259 JUMP JUMPDEST DUP2 ADD PUSH1 0x20 DUP6 LT ISZERO PUSH3 0x3B5 JUMPI DUP2 SWAP1 POP JUMPDEST PUSH3 0x3CD PUSH3 0x3C4 DUP6 PUSH3 0x259 JUMP JUMPDEST DUP4 ADD DUP3 PUSH3 0x35E JUMP JUMPDEST POP POP JUMPDEST POP POP POP JUMP JUMPDEST PUSH1 0x0 DUP3 DUP3 SHR SWAP1 POP SWAP3 SWAP2 POP POP JUMP JUMPDEST PUSH1 0x0 PUSH3 0x3F5 PUSH1 0x0 NOT DUP5 PUSH1 0x8 MUL PUSH3 0x3D5 JUMP JUMPDEST NOT DUP1 DUP4 AND SWAP2 POP POP SWAP3 SWAP2 POP POP JUMP JUMPDEST PUSH1 0x0 PUSH3 0x410 DUP4 DUP4 PUSH3 0x3E2 JUMP JUMPDEST SWAP2 POP DUP3 PUSH1 0x2 MUL DUP3 OR SWAP1 POP SWAP3 SWAP2 POP POP JUMP JUMPDEST PUSH3 0x42B DUP3 PUSH3 0x1A6 JUMP JUMPDEST PUSH8 0xFFFFFFFFFFFFFFFF DUP2 GT ISZERO PUSH3 0x447 JUMPI PUSH3 0x446 PUSH3 0x1B1 JUMP JUMPDEST JUMPDEST PUSH3 0x453 DUP3 SLOAD PUSH3 0x20F JUMP JUMPDEST PUSH3 0x460 DUP3 DUP3 DUP6 PUSH3 0x385 JUMP JUMPDEST PUSH1 0x0 PUSH1 0x20 SWAP1 POP PUSH1 0x1F DUP4 GT PUSH1 0x1 DUP2 EQ PUSH3 0x498 JUMPI PUSH1 0x0 DUP5 ISZERO PUSH3 0x483 JUMPI DUP3 DUP8 ADD MLOAD SWAP1 POP JUMPDEST PUSH3 0x48F DUP6 DUP3 PUSH3 0x402 JUMP JUMPDEST DUP7 SSTORE POP PUSH3 0x4FF JUMP JUMPDEST PUSH1 0x1F NOT DUP5 AND PUSH3 0x4A8 DUP7 PUSH3 0x244 JUMP JUMPDEST PUSH1 0x0 JUMPDEST DUP3 DUP2 LT ISZERO PUSH3 0x4D2 JUMPI DUP5 DUP10 ADD MLOAD DUP3 SSTORE PUSH1 0x1 DUP3 ADD SWAP2 POP PUSH1 0x20 DUP6 ADD SWAP5 POP PUSH1 0x20 DUP2 ADD SWAP1 POP PUSH3 0x4AB JUMP JUMPDEST DUP7 DUP4 LT ISZERO PUSH3 0x4F2 JUMPI DUP5 DUP10 ADD MLOAD PUSH3 0x4EE PUSH1 0x1F DUP10 AND DUP3 PUSH3 0x3E2 JUMP JUMPDEST DUP4 SSTORE POP JUMPDEST PUSH1 0x1 PUSH1 0x2 DUP9 MUL ADD DUP9 SSTORE POP POP POP JUMPDEST POP POP POP POP POP POP JUMP JUMPDEST PUSH2 0x91D DUP1 PUSH3 0x517 PUSH1 0x0 CODECOPY PUSH1 0x0 RETURN INVALID PUSH1 0x80 PUSH1 0x40 MSTORE CALLVALUE DUP1 ISZERO PUSH2 0x10 JUMPI PUSH1 0x0 DUP1 REVERT JUMPDEST POP PUSH1 0x4 CALLDATASIZE LT PUSH2 0x57 JUMPI PUSH1 0x0 CALLDATALOAD PUSH1 0xE0 SHR DUP1 PUSH4 0x11456B47 EQ PUSH2 0x5C JUMPI DUP1 PUSH4 0x2F7B8D26 EQ PUSH2 0x78 JUMPI DUP1 PUSH4 0x4622AB03 EQ PUSH2 0x94 JUMPI DUP1 PUSH4 0xBE1C766B EQ PUSH2 0xC4 JUMPI DUP1 PUSH4 0xC4A1A8DB EQ PUSH2 0xE3 JUMPI JUMPDEST PUSH1 0x0 DUP1 REVERT JUMPDEST PUSH2 0x76 PUSH1 0x4 DUP1 CALLDATASIZE SUB DUP2 ADD SWAP1 PUSH2 0x71 SWAP2 SWAP1 PUSH2 0x3C5 JUMP JUMPDEST PUSH2 0x113 JUMP JUMPDEST STOP JUMPDEST PUSH2 0x92 PUSH1 0x4 DUP1 CALLDATASIZE SUB DUP2 ADD SWAP1 PUSH2 0x8D SWAP2 SWAP1 PUSH2 0x447 JUMP JUMPDEST PUSH2 0x13A JUMP JUMPDEST STOP JUMPDEST PUSH2 0xAE PUSH1 0x4 DUP1 CALLDATASIZE SUB DUP2 ADD SWAP1 PUSH2 0xA9 SWAP2 SWAP1 PUSH2 0x4AA JUMP JUMPDEST PUSH2 0x182 JUMP JUMPDEST PUSH1 0x40 MLOAD PUSH2 0xBB SWAP2 SWAP1 PUSH2 0x556 JUMP JUMPDEST PUSH1 0x40 MLOAD DUP1 SWAP2 SUB SWAP1 RETURN JUMPDEST PUSH2 0xCC PUSH2 0x225 JUMP JUMPDEST PUSH1 0x40 MLOAD PUSH2 0xDA SWAP3 SWAP2 SWAP1 PUSH2 0x587 JUMP JUMPDEST PUSH1 0x40 MLOAD DUP1 SWAP2 SUB SWAP1 RETURN JUMPDEST PUSH2 0xFD PUSH1 0x4 DUP1 CALLDATASIZE SUB DUP2 ADD SWAP1 PUSH2 0xF8 SWAP2 SWAP1 PUSH2 0x4AA JUMP JUMPDEST PUSH2 0x237 JUMP JUMPDEST PUSH1 0x40 MLOAD PUSH2 0x10A SWAP2 SWAP1 PUSH2 0x5BF JUMP JUMPDEST PUSH1 0x40 MLOAD DUP1 SWAP2 SUB SWAP1 RETURN JUMPDEST DUP1 PUSH1 0x0 PUSH1 0x3 PUSH1 0x5 DUP2 LT PUSH2 0x129 JUMPI PUSH2 0x128 PUSH2 0x5DA JUMP JUMPDEST JUMPDEST ADD SWAP1 DUP2 PUSH2 0x136 SWAP2 SWAP1 PUSH2 0x815 JUMP JUMPDEST POP POP JUMP JUMPDEST PUSH1 0x5 DUP2 SWAP1 DUP1 PUSH1 0x1 DUP2 SLOAD ADD DUP1 DUP3 SSTORE DUP1 SWAP2 POP POP PUSH1 0x1 SWAP1 SUB SWAP1 PUSH1 0x0 MSTORE PUSH1 0x20 PUSH1 0x0 KECCAK256 SWAP1 PUSH1 0x20 SWAP2 DUP3 DUP3 DIV ADD SWAP2 SWAP1 MOD SWAP1 SWAP2 SWAP1 SWAP2 SWAP1 SWAP2 PUSH2 0x100 EXP DUP2 SLOAD DUP2 PUSH1 0xFF MUL NOT AND SWAP1 DUP4 PUSH1 0xFF AND MUL OR SWAP1 SSTORE POP POP JUMP JUMPDEST PUSH1 0x0 DUP2 PUSH1 0x5 DUP2 LT PUSH2 0x192 JUMPI PUSH1 0x0 DUP1 REVERT JUMPDEST ADD PUSH1 0x0 SWAP2 POP SWAP1 POP DUP1 SLOAD PUSH2 0x1A4 SWAP1 PUSH2 0x638 JUMP JUMPDEST DUP1 PUSH1 0x1F ADD PUSH1 0x20 DUP1 SWAP2 DIV MUL PUSH1 0x20 ADD PUSH1 0x40 MLOAD SWAP1 DUP2 ADD PUSH1 0x40 MSTORE DUP1 SWAP3 SWAP2 SWAP1 DUP2 DUP2 MSTORE PUSH1 0x20 ADD DUP3 DUP1 SLOAD PUSH2 0x1D0 SWAP1 PUSH2 0x638 JUMP JUMPDEST DUP1 ISZERO PUSH2 0x21D JUMPI DUP1 PUSH1 0x1F LT PUSH2 0x1F2 JUMPI PUSH2 0x100 DUP1 DUP4 SLOAD DIV MUL DUP4 MSTORE SWAP2 PUSH1 0x20 ADD SWAP2 PUSH2 0x21D JUMP JUMPDEST DUP3 ADD SWAP2 SWAP1 PUSH1 0x0 MSTORE PUSH1 0x20 PUSH1 0x0 KECCAK256 SWAP1 JUMPDEST DUP2 SLOAD DUP2 MSTORE SWAP1 PUSH1 0x1 ADD SWAP1 PUSH1 0x20 ADD DUP1 DUP4 GT PUSH2 0x200 JUMPI DUP3 SWAP1 SUB PUSH1 0x1F AND DUP3 ADD SWAP2 JUMPDEST POP POP POP POP POP DUP2 JUMP JUMPDEST PUSH1 0x0 DUP1 PUSH1 0x5 DUP1 DUP1 SLOAD SWAP1 POP SWAP2 POP SWAP2 POP SWAP1 SWAP2 JUMP JUMPDEST PUSH1 0x5 DUP2 DUP2 SLOAD DUP2 LT PUSH2 0x247 JUMPI PUSH1 0x0 DUP1 REVERT JUMPDEST SWAP1 PUSH1 0x0 MSTORE PUSH1 0x20 PUSH1 0x0 KECCAK256 SWAP1 PUSH1 0x20 SWAP2 DUP3 DUP3 DIV ADD SWAP2 SWAP1 MOD SWAP2 POP SLOAD SWAP1 PUSH2 0x100 EXP SWAP1 DIV PUSH1 0xFF AND DUP2 JUMP JUMPDEST PUSH1 0x0 PUSH1 0x40 MLOAD SWAP1 POP SWAP1 JUMP JUMPDEST PUSH1 0x0 DUP1 REVERT JUMPDEST PUSH1 0x0 DUP1 REVERT JUMPDEST PUSH1 0x0 DUP1 REVERT JUMPDEST PUSH1 0x0 DUP1 REVERT JUMPDEST PUSH1 0x0 PUSH1 0x1F NOT PUSH1 0x1F DUP4 ADD AND SWAP1 POP SWAP2 SWAP1 POP JUMP JUMPDEST PUSH32 0x4E487B7100000000000000000000000000000000000000000000000000000000 PUSH1 0x0 MSTORE PUSH1 0x41 PUSH1 0x4 MSTORE PUSH1 0x24 PUSH1 0x0 REVERT JUMPDEST PUSH2 0x2D2 DUP3 PUSH2 0x289 JUMP JUMPDEST DUP2 ADD DUP2 DUP2 LT PUSH8 0xFFFFFFFFFFFFFFFF DUP3 GT OR ISZERO PUSH2 0x2F1 JUMPI PUSH2 0x2F0 PUSH2 0x29A JUMP JUMPDEST JUMPDEST DUP1 PUSH1 0x40 MSTORE POP POP POP JUMP JUMPDEST PUSH1 0x0 PUSH2 0x304 PUSH2 0x26B JUMP JUMPDEST SWAP1 POP PUSH2 0x310 DUP3 DUP3 PUSH2 0x2C9 JUMP JUMPDEST SWAP2 SWAP1 POP JUMP JUMPDEST PUSH1 0x0 PUSH8 0xFFFFFFFFFFFFFFFF DUP3 GT ISZERO PUSH2 0x330 JUMPI PUSH2 0x32F PUSH2 0x29A JUMP JUMPDEST JUMPDEST PUSH2 0x339 DUP3 PUSH2 0x289 JUMP JUMPDEST SWAP1 POP PUSH1 0x20 DUP2 ADD SWAP1 POP SWAP2 SWAP1 POP JUMP JUMPDEST DUP3 DUP2 DUP4 CALLDATACOPY PUSH1 0x0 DUP4 DUP4 ADD MSTORE POP POP POP JUMP JUMPDEST PUSH1 0x0 PUSH2 0x368 PUSH2 0x363 DUP5 PUSH2 0x315 JUMP JUMPDEST PUSH2 0x2FA JUMP JUMPDEST SWAP1 POP DUP3 DUP2 MSTORE PUSH1 0x20 DUP2 ADD DUP5 DUP5 DUP5 ADD GT ISZERO PUSH2 0x384 JUMPI PUSH2 0x383 PUSH2 0x284 JUMP JUMPDEST JUMPDEST PUSH2 0x38F DUP5 DUP3 DUP6 PUSH2 0x346 JUMP JUMPDEST POP SWAP4 SWAP3 POP POP POP JUMP JUMPDEST PUSH1 0x0 DUP3 PUSH1 0x1F DUP4 ADD SLT PUSH2 0x3AC JUMPI PUSH2 0x3AB PUSH2 0x27F JUMP JUMPDEST JUMPDEST DUP2 CALLDATALOAD PUSH2 0x3BC DUP5 DUP3 PUSH1 0x20 DUP7 ADD PUSH2 0x355 JUMP JUMPDEST SWAP2 POP POP SWAP3 SWAP2 POP POP JUMP JUMPDEST PUSH1 0x0 PUSH1 0x20 DUP3 DUP5 SUB SLT ISZERO PUSH2 0x3DB JUMPI PUSH2 0x3DA PUSH2 0x275 JUMP JUMPDEST JUMPDEST PUSH1 0x0 DUP3 ADD CALLDATALOAD PUSH8 0xFFFFFFFFFFFFFFFF DUP2 GT ISZERO PUSH2 0x3F9 JUMPI PUSH2 0x3F8 PUSH2 0x27A JUMP JUMPDEST JUMPDEST PUSH2 0x405 DUP5 DUP3 DUP6 ADD PUSH2 0x397 JUMP JUMPDEST SWAP2 POP POP SWAP3 SWAP2 POP POP JUMP JUMPDEST PUSH1 0x0 PUSH1 0xFF DUP3 AND SWAP1 POP SWAP2 SWAP1 POP JUMP JUMPDEST PUSH2 0x424 DUP2 PUSH2 0x40E JUMP JUMPDEST DUP2 EQ PUSH2 0x42F JUMPI PUSH1 0x0 DUP1 REVERT JUMPDEST POP JUMP JUMPDEST PUSH1 0x0 DUP2 CALLDATALOAD SWAP1 POP PUSH2 0x441 DUP2 PUSH2 0x41B JUMP JUMPDEST SWAP3 SWAP2 POP POP JUMP JUMPDEST PUSH1 0x0 PUSH1 0x20 DUP3 DUP5 SUB SLT ISZERO PUSH2 0x45D JUMPI PUSH2 0x45C PUSH2 0x275 JUMP JUMPDEST JUMPDEST PUSH1 0x0 PUSH2 0x46B DUP5 DUP3 DUP6 ADD PUSH2 0x432 JUMP JUMPDEST SWAP2 POP POP SWAP3 SWAP2 POP POP JUMP JUMPDEST PUSH1 0x0 DUP2 SWAP1 POP SWAP2 SWAP1 POP JUMP JUMPDEST PUSH2 0x487 DUP2 PUSH2 0x474 JUMP JUMPDEST DUP2 EQ PUSH2 0x492 JUMPI PUSH1 0x0 DUP1 REVERT JUMPDEST POP JUMP JUMPDEST PUSH1 0x0 DUP2 CALLDATALOAD SWAP1 POP PUSH2 0x4A4 DUP2 PUSH2 0x47E JUMP JUMPDEST SWAP3 SWAP2 POP POP JUMP JUMPDEST PUSH1 0x0 PUSH1 0x20 DUP3 DUP5 SUB SLT ISZERO PUSH2 0x4C0 JUMPI PUSH2 0x4BF PUSH2 0x275 JUMP JUMPDEST JUMPDEST PUSH1 0x0 PUSH2 0x4CE DUP5 DUP3 DUP6 ADD PUSH2 0x495 JUMP JUMPDEST SWAP2 POP POP SWAP3 SWAP2 POP POP JUMP JUMPDEST PUSH1 0x0 DUP2 MLOAD SWAP1 POP SWAP2 SWAP1 POP JUMP JUMPDEST PUSH1 0x0 DUP3 DUP3 MSTORE PUSH1 0x20 DUP3 ADD SWAP1 POP SWAP3 SWAP2 POP POP JUMP JUMPDEST PUSH1 0x0 JUMPDEST DUP4 DUP2 LT ISZERO PUSH2 0x511 JUMPI DUP1 DUP3 ADD MLOAD DUP2 DUP5 ADD MSTORE PUSH1 0x20 DUP2 ADD SWAP1 POP PUSH2 0x4F6 JUMP JUMPDEST PUSH1 0x0 DUP5 DUP5 ADD MSTORE POP POP POP POP JUMP JUMPDEST PUSH1 0x0 PUSH2 0x528 DUP3 PUSH2 0x4D7 JUMP JUMPDEST PUSH2 0x532 DUP2 DUP6 PUSH2 0x4E2 JUMP JUMPDEST SWAP4 POP PUSH2 0x542 DUP2 DUP6 PUSH1 0x20 DUP7 ADD PUSH2 0x4F3 JUMP JUMPDEST PUSH2 0x54B DUP2 PUSH2 0x289 JUMP JUMPDEST DUP5 ADD SWAP2 POP POP SWAP3 SWAP2 POP POP JUMP JUMPDEST PUSH1 0x0 PUSH1 0x20 DUP3 ADD SWAP1 POP DUP2 DUP2 SUB PUSH1 0x0 DUP4 ADD MSTORE PUSH2 0x570 DUP2 DUP5 PUSH2 0x51D JUMP JUMPDEST SWAP1 POP SWAP3 SWAP2 POP POP JUMP JUMPDEST PUSH2 0x581 DUP2 PUSH2 0x474 JUMP JUMPDEST DUP3 MSTORE POP POP JUMP JUMPDEST PUSH1 0x0 PUSH1 0x40 DUP3 ADD SWAP1 POP PUSH2 0x59C PUSH1 0x0 DUP4 ADD DUP6 PUSH2 0x578 JUMP JUMPDEST PUSH2 0x5A9 PUSH1 0x20 DUP4 ADD DUP5 PUSH2 0x578 JUMP JUMPDEST SWAP4 SWAP3 POP POP POP JUMP JUMPDEST PUSH2 0x5B9 DUP2 PUSH2 0x40E JUMP JUMPDEST DUP3 MSTORE POP POP JUMP JUMPDEST PUSH1 0x0 PUSH1 0x20 DUP3 ADD SWAP1 POP PUSH2 0x5D4 PUSH1 0x0 DUP4 ADD DUP5 PUSH2 0x5B0 JUMP JUMPDEST SWAP3 SWAP2 POP POP JUMP JUMPDEST PUSH32 0x4E487B7100000000000000000000000000000000000000000000000000000000 PUSH1 0x0 MSTORE PUSH1 0x32 PUSH1 0x4 MSTORE PUSH1 0x24 PUSH1 0x0 REVERT JUMPDEST PUSH32 0x4E487B7100000000000000000000000000000000000000000000000000000000 PUSH1 0x0 MSTORE PUSH1 0x22 PUSH1 0x4 MSTORE PUSH1 0x24 PUSH1 0x0 REVERT JUMPDEST PUSH1 0x0 PUSH1 0x2 DUP3 DIV SWAP1 POP PUSH1 0x1 DUP3 AND DUP1 PUSH2 0x650 JUMPI PUSH1 0x7F DUP3 AND SWAP2 POP JUMPDEST PUSH1 0x20 DUP3 LT DUP2 SUB PUSH2 0x663 JUMPI PUSH2 0x662 PUSH2 0x609 JUMP JUMPDEST JUMPDEST POP SWAP2 SWAP1 POP JUMP JUMPDEST PUSH1 0x0 DUP2 SWAP1 POP DUP2 PUSH1 0x0 MSTORE PUSH1 0x20 PUSH1 0x0 KECCAK256 SWAP1 POP SWAP2 SWAP1 POP JUMP JUMPDEST PUSH1 0x0 PUSH1 0x20 PUSH1 0x1F DUP4 ADD DIV SWAP1 POP SWAP2 SWAP1 POP JUMP JUMPDEST PUSH1 0x0 DUP3 DUP3 SHL SWAP1 POP SWAP3 SWAP2 POP POP JUMP JUMPDEST PUSH1 0x0 PUSH1 0x8 DUP4 MUL PUSH2 0x6CB PUSH32 0xFFFFFFFFFFFFFFFFFFFFFFFFFFFFFFFFFFFFFFFFFFFFFFFFFFFFFFFFFFFFFFFF DUP3 PUSH2 0x68E JUMP JUMPDEST PUSH2 0x6D5 DUP7 DUP4 PUSH2 0x68E JUMP JUMPDEST SWAP6 POP DUP1 NOT DUP5 AND SWAP4 POP DUP1 DUP7 AND DUP5 OR SWAP3 POP POP POP SWAP4 SWAP3 POP POP POP JUMP JUMPDEST PUSH1 0x0 DUP2 SWAP1 POP SWAP2 SWAP1 POP JUMP JUMPDEST PUSH1 0x0 PUSH2 0x712 PUSH2 0x70D PUSH2 0x708 DUP5 PUSH2 0x474 JUMP JUMPDEST PUSH2 0x6ED JUMP JUMPDEST PUSH2 0x474 JUMP JUMPDEST SWAP1 POP SWAP2 SWAP1 POP JUMP JUMPDEST PUSH1 0x0 DUP2 SWAP1 POP SWAP2 SWAP1 POP JUMP JUMPDEST PUSH2 0x72C DUP4 PUSH2 0x6F7 JUMP JUMPDEST PUSH2 0x740 PUSH2 0x738 DUP3 PUSH2 0x719 JUMP JUMPDEST DUP5 DUP5 SLOAD PUSH2 0x69B JUMP JUMPDEST DUP3 SSTORE POP POP POP POP JUMP JUMPDEST PUSH1 0x0 SWAP1 JUMP JUMPDEST PUSH2 0x755 PUSH2 0x748 JUMP JUMPDEST PUSH2 0x760 DUP2 DUP5 DUP5 PUSH2 0x723 JUMP JUMPDEST POP POP POP JUMP JUMPDEST JUMPDEST DUP2 DUP2 LT ISZERO PUSH2 0x784 JUMPI PUSH2 0x779 PUSH1 0x0 DUP3 PUSH2 0x74D JUMP JUMPDEST PUSH1 0x1 DUP2 ADD SWAP1 POP PUSH2 0x766 JUMP JUMPDEST POP POP JUMP JUMPDEST PUSH1 0x1F DUP3 GT ISZERO PUSH2 0x7C9 JUMPI PUSH2 0x79A DUP2 PUSH2 0x669 JUMP JUMPDEST PUSH2 0x7A3 DUP5 PUSH2 0x67E JUMP JUMPDEST DUP2 ADD PUSH1 0x20 DUP6 LT ISZERO PUSH2 0x7B2 JUMPI DUP2 SWAP1 POP JUMPDEST PUSH2 0x7C6 PUSH2 0x7BE DUP6 PUSH2 0x67E JUMP JUMPDEST DUP4 ADD DUP3 PUSH2 0x765 JUMP JUMPDEST POP POP JUMPDEST POP POP POP JUMP JUMPDEST PUSH1 0x0 DUP3 DUP3 SHR SWAP1 POP SWAP3 SWAP2 POP POP JUMP JUMPDEST PUSH1 0x0 PUSH2 0x7EC PUSH1 0x0 NOT DUP5 PUSH1 0x8 MUL PUSH2 0x7CE JUMP JUMPDEST NOT DUP1 DUP4 AND SWAP2 POP POP SWAP3 SWAP2 POP POP JUMP JUMPDEST PUSH1 0x0 PUSH2 0x805 DUP4 DUP4 PUSH2 0x7DB JUMP JUMPDEST SWAP2 POP DUP3 PUSH1 0x2 MUL DUP3 OR SWAP1 POP SWAP3 SWAP2 POP POP JUMP JUMPDEST PUSH2 0x81E DUP3 PUSH2 0x4D7 JUMP JUMPDEST PUSH8 0xFFFFFFFFFFFFFFFF DUP2 GT ISZERO PUSH2 0x837 JUMPI PUSH2 0x836 PUSH2 0x29A JUMP JUMPDEST JUMPDEST PUSH2 0x841 DUP3 SLOAD PUSH2 0x638 JUMP JUMPDEST PUSH2 0x84C DUP3 DUP3 DUP6 PUSH2 0x788 JUMP JUMPDEST PUSH1 0x0 PUSH1 0x20 SWAP1 POP PUSH1 0x1F DUP4 GT PUSH1 0x1 DUP2 EQ PUSH2 0x87F JUMPI PUSH1 0x0 DUP5 ISZERO PUSH2 0x86D JUMPI DUP3 DUP8 ADD MLOAD SWAP1 POP JUMPDEST PUSH2 0x877 DUP6 DUP3 PUSH2 0x7F9 JUMP JUMPDEST DUP7 SSTORE POP PUSH2 0x8DF JUMP JUMPDEST PUSH1 0x1F NOT DUP5 AND PUSH2 0x88D DUP7 PUSH2 0x669 JUMP JUMPDEST PUSH1 0x0 JUMPDEST DUP3 DUP2 LT ISZERO PUSH2 0x8B5 JUMPI DUP5 DUP10 ADD MLOAD DUP3 SSTORE PUSH1 0x1 DUP3 ADD SWAP2 POP PUSH1 0x20 DUP6 ADD SWAP5 POP PUSH1 0x20 DUP2 ADD SWAP1 POP PUSH2 0x890 JUMP JUMPDEST DUP7 DUP4 LT ISZERO PUSH2 0x8D2 JUMPI DUP5 DUP10 ADD MLOAD PUSH2 0x8CE PUSH1 0x1F DUP10 AND DUP3 PUSH2 0x7DB JUMP JUMPDEST DUP4 SSTORE POP JUMPDEST PUSH1 0x1 PUSH1 0x2 DUP9 MUL ADD DUP9 SSTORE POP POP POP JUMPDEST POP POP POP POP POP POP JUMP INVALID LOG2 PUSH5 0x6970667358 0x22 SLT KECCAK256 0xBB EXTCODECOPY 0xCB DUP3 ADD KECCAK256 0xA6 DUP7 PUSH3 0xD6F821 DUP6 SHL CODESIZE SGT LOG1 CALLER JUMPI 0xC5 MOD 0x2F 0xC5 0xC POP EQ PREVRANDAO CALLDATALOAD SWAP15 0xE8 0xED 0xC8 PUSH5 0x736F6C6343 STOP ADDMOD SLT STOP CALLER "
				},
				"gasEstimates": {
					"creation": {
						"codeDepositCost": "466600",
						"executionCost": "infinite",
						"totalCost": "infinite"
					},
					"external": {
						"addAge(uint8)": "50619",
						"addName(string)": "infinite",
						"ages(uint256)": "6607",
						"getLength()": "infinite",
						"names(uint256)": "infinite"
					}
				},
				"methodIdentifiers": {
					"addAge(uint8)": "2f7b8d26",
					"addName(string)": "11456b47",
					"ages(uint256)": "c4a1a8db",
					"getLength()": "be1c766b",
					"names(uint256)": "4622ab03"
				}
			},
			"storageLayout": {
				"storage": [
					{
						"astId": 5,
						"contract": "baisc/07-array-demo.sol:array_demo",
						"label": "names",
						"offset": 0,
						"slot": "0",
						"type": "t_array(t_string_storage)5_storage"
					},
					{
						"astId": 8,
						"contract": "baisc/07-array-demo.sol:array_demo",
						"label": "ages",
						"offset": 0,
						"slot": "5",
						"type": "t_array(t_uint8)dyn_storage"
					}
				],
				"types": {
					"t_array(t_string_storage)5_storage": {
						"base": "t_string_storage",
						"encoding": "inplace",
						"label": "string[5]",
						"numberOfBytes": "160"
					},
					"t_array(t_uint8)dyn_storage": {
						"base": "t_uint8",
						"encoding": "dynamic_array",
						"label": "uint8[]",
						"numberOfBytes": "32"
					},
					"t_string_storage": {
						"encoding": "bytes",
						"label": "string",
						"numberOfBytes": "32"
					},
					"t_uint8": {
						"encoding": "inplace",
						"label": "uint8",
						"numberOfBytes": "1"
					}
				}
			},
			"userdoc": {
				"kind": "user",
				"methods": {},
				"version": 1
			}
		}
	}
}