{
	"baisc/09-struct.sol": {
		"struct_demo": {
			"abi": [
				{
					"inputs": [],
					"name": "getUserInfo",
					"outputs": [
						{
							"internalType": "string",
							"name": "",
							"type": "string"
						},
						{
							"internalType": "uint8",
							"name": "",
							"type": "uint8"
						},
						{
							"internalType": "string",
							"name": "",
							"type": "string"
						}
					],
					"stateMutability": "view",
					"type": "function"
				},
				{
					"inputs": [
						{
							"internalType": "string",
							"name": "_name",
							"type": "string"
						},
						{
							"internalType": "uint8",
							"name": "_age",
							"type": "uint8"
						},
						{
							"internalType": "string",
							"name": "_sex",
							"type": "string"
						}
					],
					"name": "setUser",
					"outputs": [],
					"stateMutability": "nonpayable",
					"type": "function"
				}
			],
			"devdoc": {
				"kind": "dev",
				"methods": {},
				"version": 1
			},
			"evm": {
				"assembly": "    /* \"baisc/09-struct.sol\":285:992  contract struct_demo {... */\n  mstore(0x40, 0x80)\n  callvalue\n  dup1\n  iszero\n  tag_1\n  jumpi\n  0x00\n  dup1\n  revert\ntag_1:\n  pop\n  dataSize(sub_0)\n  dup1\n  dataOffset(sub_0)\n  0x00\n  codecopy\n  0x00\n  return\nstop\n\nsub_0: assembly {\n        /* \"baisc/09-struct.sol\":285:992  contract struct_demo {... */\n      mstore(0x40, 0x80)\n      callvalue\n      dup1\n      iszero\n      tag_1\n      jumpi\n      0x00\n      dup1\n      revert\n    tag_1:\n      pop\n      jumpi(tag_2, lt(calldatasize, 0x04))\n      shr(0xe0, calldataload(0x00))\n      dup1\n      0x2d1ca992\n      eq\n      tag_3\n      jumpi\n      dup1\n      0x5d8d1585\n      eq\n      tag_4\n      jumpi\n    tag_2:\n      0x00\n      dup1\n      revert\n        /* \"baisc/09-struct.sol\":563:727  function setUser(string memory _name,uint8 _age, string memory _sex) public {... */\n    tag_3:\n      tag_5\n      0x04\n      dup1\n      calldatasize\n      sub\n      dup2\n      add\n      swap1\n      tag_6\n      swap2\n      swap1\n      tag_7\n      jump\t// in\n    tag_6:\n      tag_8\n      jump\t// in\n    tag_5:\n      stop\n        /* \"baisc/09-struct.sol\":845:977  function getUserInfo() public view returns(string memory,uint8,string memory){... */\n    tag_4:\n      tag_9\n      tag_10\n      jump\t// in\n    tag_9:\n      mload(0x40)\n      tag_11\n      swap4\n      swap3\n      swap2\n      swap1\n      tag_12\n      jump\t// in\n    tag_11:\n      mload(0x40)\n      dup1\n      swap2\n      sub\n      swap1\n      return\n        /* \"baisc/09-struct.sol\":563:727  function setUser(string memory _name,uint8 _age, string memory _sex) public {... */\n    tag_8:\n        /* \"baisc/09-struct.sol\":662:667  _name */\n      dup3\n        /* \"baisc/09-struct.sol\":650:654  user */\n      0x00\n        /* \"baisc/09-struct.sol\":650:659  user.name */\n      dup1\n      add\n        /* \"baisc/09-struct.sol\":650:667  user.name = _name */\n      swap1\n      dup2\n      tag_14\n      swap2\n      swap1\n      tag_15\n      jump\t// in\n    tag_14:\n      pop\n        /* \"baisc/09-struct.sol\":689:693  _age */\n      dup2\n        /* \"baisc/09-struct.sol\":678:682  user */\n      0x00\n        /* \"baisc/09-struct.sol\":678:686  user.age */\n      0x01\n      add\n      0x00\n        /* \"baisc/09-struct.sol\":678:693  user.age = _age */\n      0x0100\n      exp\n      dup2\n      sload\n      dup2\n      0xff\n      mul\n      not\n      and\n      swap1\n      dup4\n      0xff\n      and\n      mul\n      or\n      swap1\n      sstore\n      pop\n        /* \"baisc/09-struct.sol\":715:719  _sex */\n      dup1\n        /* \"baisc/09-struct.sol\":704:708  user */\n      0x00\n        /* \"baisc/09-struct.sol\":704:712  user.sex */\n      0x02\n      add\n        /* \"baisc/09-struct.sol\":704:719  user.sex = _sex */\n      swap1\n      dup2\n      tag_16\n      swap2\n      swap1\n      tag_15\n      jump\t// in\n    tag_16:\n      pop\n        /* \"baisc/09-struct.sol\":563:727  function setUser(string memory _name,uint8 _age, string memory _sex) public {... */\n      pop\n      pop\n      pop\n      jump\t// out\n        /* \"baisc/09-struct.sol\":845:977  function getUserInfo() public view returns(string memory,uint8,string memory){... */\n    tag_10:\n        /* \"baisc/09-struct.sol\":888:901  string memory */\n      0x60\n        /* \"baisc/09-struct.sol\":902:907  uint8 */\n      0x00\n        /* \"baisc/09-struct.sol\":908:921  string memory */\n      0x60\n        /* \"baisc/09-struct.sol\":941:945  user */\n      0x00\n        /* \"baisc/09-struct.sol\":941:950  user.name */\n      dup1\n      add\n        /* \"baisc/09-struct.sol\":951:955  user */\n      0x00\n        /* \"baisc/09-struct.sol\":951:959  user.age */\n      0x01\n      add\n      0x00\n      swap1\n      sload\n      swap1\n      0x0100\n      exp\n      swap1\n      div\n      0xff\n      and\n        /* \"baisc/09-struct.sol\":960:964  user */\n      0x00\n        /* \"baisc/09-struct.sol\":960:968  user.sex */\n      0x02\n      add\n        /* \"baisc/09-struct.sol\":933:969  return (user.name,user.age,user.sex) */\n      dup3\n      dup1\n      sload\n      tag_18\n      swap1\n      tag_19\n      jump\t// in\n    tag_18:\n      dup1\n      0x1f\n      add\n      0x20\n      dup1\n      swap2\n      div\n      mul\n      0x20\n      add\n      mload(0x40)\n      swap1\n      dup2\n      add\n      0x40\n      mstore\n      dup1\n      swap3\n      swap2\n      swap1\n      dup2\n      dup2\n      mstore\n      0x20\n      add\n      dup3\n      dup1\n      sload\n      tag_20\n      swap1\n      tag_19\n      jump\t// in\n    tag_20:\n      dup1\n      iszero\n      tag_21\n      jumpi\n      dup1\n      0x1f\n      lt\n      tag_22\n      jumpi\n      0x0100\n      dup1\n      dup4\n      sload\n      div\n      mul\n      dup4\n      mstore\n      swap2\n      0x20\n      add\n      swap2\n      jump(tag_21)\n    tag_22:\n      dup3\n      add\n      swap2\n      swap1\n      0x00\n      mstore\n      keccak256(0x00, 0x20)\n      swap1\n    tag_23:\n      dup2\n      sload\n      dup2\n      mstore\n      swap1\n      0x01\n      add\n      swap1\n      0x20\n      add\n      dup1\n      dup4\n      gt\n      tag_23\n      jumpi\n      dup3\n      swap1\n      sub\n      0x1f\n      and\n      dup3\n      add\n      swap2\n    tag_21:\n      pop\n      pop\n      pop\n      pop\n      pop\n      swap3\n      pop\n      dup1\n      dup1\n      sload\n      tag_24\n      swap1\n      tag_19\n      jump\t// in\n    tag_24:\n      dup1\n      0x1f\n      add\n      0x20\n      dup1\n      swap2\n      div\n      mul\n      0x20\n      add\n      mload(0x40)\n      swap1\n      dup2\n      add\n      0x40\n      mstore\n      dup1\n      swap3\n      swap2\n      swap1\n      dup2\n      dup2\n      mstore\n      0x20\n      add\n      dup3\n      dup1\n      sload\n      tag_25\n      swap1\n      tag_19\n      jump\t// in\n    tag_25:\n      dup1\n      iszero\n      tag_26\n      jumpi\n      dup1\n      0x1f\n      lt\n      tag_27\n      jumpi\n      0x0100\n      dup1\n      dup4\n      sload\n      div\n      mul\n      dup4\n      mstore\n      swap2\n      0x20\n      add\n      swap2\n      jump(tag_26)\n    tag_27:\n      dup3\n      add\n      swap2\n      swap1\n      0x00\n      mstore\n      keccak256(0x00, 0x20)\n      swap1\n    tag_28:\n      dup2\n      sload\n      dup2\n      mstore\n      swap1\n      0x01\n      add\n      swap1\n      0x20\n      add\n      dup1\n      dup4\n      gt\n      tag_28\n      jumpi\n      dup3\n      swap1\n      sub\n      0x1f\n      and\n      dup3\n      add\n      swap2\n    tag_26:\n      pop\n      pop\n      pop\n      pop\n      pop\n      swap1\n      pop\n      swap3\n      pop\n      swap3\n      pop\n      swap3\n      pop\n        /* \"baisc/09-struct.sol\":845:977  function getUserInfo() public view returns(string memory,uint8,string memory){... */\n      swap1\n      swap2\n      swap3\n      jump\t// out\n        /* \"#utility.yul\":7:82   */\n    tag_29:\n        /* \"#utility.yul\":40:46   */\n      0x00\n        /* \"#utility.yul\":73:75   */\n      0x40\n        /* \"#utility.yul\":67:76   */\n      mload\n        /* \"#utility.yul\":57:76   */\n      swap1\n      pop\n        /* \"#utility.yul\":7:82   */\n      swap1\n      jump\t// out\n        /* \"#utility.yul\":88:205   */\n    tag_30:\n        /* \"#utility.yul\":197:198   */\n      0x00\n        /* \"#utility.yul\":194:195   */\n      dup1\n        /* \"#utility.yul\":187:199   */\n      revert\n        /* \"#utility.yul\":211:328   */\n    tag_31:\n        /* \"#utility.yul\":320:321   */\n      0x00\n        /* \"#utility.yul\":317:318   */\n      dup1\n        /* \"#utility.yul\":310:322   */\n      revert\n        /* \"#utility.yul\":334:451   */\n    tag_32:\n        /* \"#utility.yul\":443:444   */\n      0x00\n        /* \"#utility.yul\":440:441   */\n      dup1\n        /* \"#utility.yul\":433:445   */\n      revert\n        /* \"#utility.yul\":457:574   */\n    tag_33:\n        /* \"#utility.yul\":566:567   */\n      0x00\n        /* \"#utility.yul\":563:564   */\n      dup1\n        /* \"#utility.yul\":556:568   */\n      revert\n        /* \"#utility.yul\":580:682   */\n    tag_34:\n        /* \"#utility.yul\":621:627   */\n      0x00\n        /* \"#utility.yul\":672:674   */\n      0x1f\n        /* \"#utility.yul\":668:675   */\n      not\n        /* \"#utility.yul\":663:665   */\n      0x1f\n        /* \"#utility.yul\":656:661   */\n      dup4\n        /* \"#utility.yul\":652:666   */\n      add\n        /* \"#utility.yul\":648:676   */\n      and\n        /* \"#utility.yul\":638:676   */\n      swap1\n      pop\n        /* \"#utility.yul\":580:682   */\n      swap2\n      swap1\n      pop\n      jump\t// out\n        /* \"#utility.yul\":688:868   */\n    tag_35:\n        /* \"#utility.yul\":736:813   */\n      0x4e487b7100000000000000000000000000000000000000000000000000000000\n        /* \"#utility.yul\":733:734   */\n      0x00\n        /* \"#utility.yul\":726:814   */\n      mstore\n        /* \"#utility.yul\":833:837   */\n      0x41\n        /* \"#utility.yul\":830:831   */\n      0x04\n        /* \"#utility.yul\":823:838   */\n      mstore\n        /* \"#utility.yul\":857:861   */\n      0x24\n        /* \"#utility.yul\":854:855   */\n      0x00\n        /* \"#utility.yul\":847:862   */\n      revert\n        /* \"#utility.yul\":874:1155   */\n    tag_36:\n        /* \"#utility.yul\":957:984   */\n      tag_76\n        /* \"#utility.yul\":979:983   */\n      dup3\n        /* \"#utility.yul\":957:984   */\n      tag_34\n      jump\t// in\n    tag_76:\n        /* \"#utility.yul\":949:955   */\n      dup2\n        /* \"#utility.yul\":945:985   */\n      add\n        /* \"#utility.yul\":1087:1093   */\n      dup2\n        /* \"#utility.yul\":1075:1085   */\n      dup2\n        /* \"#utility.yul\":1072:1094   */\n      lt\n        /* \"#utility.yul\":1051:1069   */\n      0xffffffffffffffff\n        /* \"#utility.yul\":1039:1049   */\n      dup3\n        /* \"#utility.yul\":1036:1070   */\n      gt\n        /* \"#utility.yul\":1033:1095   */\n      or\n        /* \"#utility.yul\":1030:1118   */\n      iszero\n      tag_77\n      jumpi\n        /* \"#utility.yul\":1098:1116   */\n      tag_78\n      tag_35\n      jump\t// in\n    tag_78:\n        /* \"#utility.yul\":1030:1118   */\n    tag_77:\n        /* \"#utility.yul\":1138:1148   */\n      dup1\n        /* \"#utility.yul\":1134:1136   */\n      0x40\n        /* \"#utility.yul\":1127:1149   */\n      mstore\n        /* \"#utility.yul\":917:1155   */\n      pop\n        /* \"#utility.yul\":874:1155   */\n      pop\n      pop\n      jump\t// out\n        /* \"#utility.yul\":1161:1290   */\n    tag_37:\n        /* \"#utility.yul\":1195:1201   */\n      0x00\n        /* \"#utility.yul\":1222:1242   */\n      tag_80\n      tag_29\n      jump\t// in\n    tag_80:\n        /* \"#utility.yul\":1212:1242   */\n      swap1\n      pop\n        /* \"#utility.yul\":1251:1284   */\n      tag_81\n        /* \"#utility.yul\":1279:1283   */\n      dup3\n        /* \"#utility.yul\":1271:1277   */\n      dup3\n        /* \"#utility.yul\":1251:1284   */\n      tag_36\n      jump\t// in\n    tag_81:\n        /* \"#utility.yul\":1161:1290   */\n      swap2\n      swap1\n      pop\n      jump\t// out\n        /* \"#utility.yul\":1296:1604   */\n    tag_38:\n        /* \"#utility.yul\":1358:1362   */\n      0x00\n        /* \"#utility.yul\":1448:1466   */\n      0xffffffffffffffff\n        /* \"#utility.yul\":1440:1446   */\n      dup3\n        /* \"#utility.yul\":1437:1467   */\n      gt\n        /* \"#utility.yul\":1434:1490   */\n      iszero\n      tag_83\n      jumpi\n        /* \"#utility.yul\":1470:1488   */\n      tag_84\n      tag_35\n      jump\t// in\n    tag_84:\n        /* \"#utility.yul\":1434:1490   */\n    tag_83:\n        /* \"#utility.yul\":1508:1537   */\n      tag_85\n        /* \"#utility.yul\":1530:1536   */\n      dup3\n        /* \"#utility.yul\":1508:1537   */\n      tag_34\n      jump\t// in\n    tag_85:\n        /* \"#utility.yul\":1500:1537   */\n      swap1\n      pop\n        /* \"#utility.yul\":1592:1596   */\n      0x20\n        /* \"#utility.yul\":1586:1590   */\n      dup2\n        /* \"#utility.yul\":1582:1597   */\n      add\n        /* \"#utility.yul\":1574:1597   */\n      swap1\n      pop\n        /* \"#utility.yul\":1296:1604   */\n      swap2\n      swap1\n      pop\n      jump\t// out\n        /* \"#utility.yul\":1610:1756   */\n    tag_39:\n        /* \"#utility.yul\":1707:1713   */\n      dup3\n        /* \"#utility.yul\":1702:1705   */\n      dup2\n        /* \"#utility.yul\":1697:1700   */\n      dup4\n        /* \"#utility.yul\":1684:1714   */\n      calldatacopy\n        /* \"#utility.yul\":1748:1749   */\n      0x00\n        /* \"#utility.yul\":1739:1745   */\n      dup4\n        /* \"#utility.yul\":1734:1737   */\n      dup4\n        /* \"#utility.yul\":1730:1746   */\n      add\n        /* \"#utility.yul\":1723:1750   */\n      mstore\n        /* \"#utility.yul\":1610:1756   */\n      pop\n      pop\n      pop\n      jump\t// out\n        /* \"#utility.yul\":1762:2187   */\n    tag_40:\n        /* \"#utility.yul\":1840:1845   */\n      0x00\n        /* \"#utility.yul\":1865:1931   */\n      tag_88\n        /* \"#utility.yul\":1881:1930   */\n      tag_89\n        /* \"#utility.yul\":1923:1929   */\n      dup5\n        /* \"#utility.yul\":1881:1930   */\n      tag_38\n      jump\t// in\n    tag_89:\n        /* \"#utility.yul\":1865:1931   */\n      tag_37\n      jump\t// in\n    tag_88:\n        /* \"#utility.yul\":1856:1931   */\n      swap1\n      pop\n        /* \"#utility.yul\":1954:1960   */\n      dup3\n        /* \"#utility.yul\":1947:1952   */\n      dup2\n        /* \"#utility.yul\":1940:1961   */\n      mstore\n        /* \"#utility.yul\":1992:1996   */\n      0x20\n        /* \"#utility.yul\":1985:1990   */\n      dup2\n        /* \"#utility.yul\":1981:1997   */\n      add\n        /* \"#utility.yul\":2030:2033   */\n      dup5\n        /* \"#utility.yul\":2021:2027   */\n      dup5\n        /* \"#utility.yul\":2016:2019   */\n      dup5\n        /* \"#utility.yul\":2012:2028   */\n      add\n        /* \"#utility.yul\":2009:2034   */\n      gt\n        /* \"#utility.yul\":2006:2118   */\n      iszero\n      tag_90\n      jumpi\n        /* \"#utility.yul\":2037:2116   */\n      tag_91\n      tag_33\n      jump\t// in\n    tag_91:\n        /* \"#utility.yul\":2006:2118   */\n    tag_90:\n        /* \"#utility.yul\":2127:2181   */\n      tag_92\n        /* \"#utility.yul\":2174:2180   */\n      dup5\n        /* \"#utility.yul\":2169:2172   */\n      dup3\n        /* \"#utility.yul\":2164:2167   */\n      dup6\n        /* \"#utility.yul\":2127:2181   */\n      tag_39\n      jump\t// in\n    tag_92:\n        /* \"#utility.yul\":1846:2187   */\n      pop\n        /* \"#utility.yul\":1762:2187   */\n      swap4\n      swap3\n      pop\n      pop\n      pop\n      jump\t// out\n        /* \"#utility.yul\":2207:2547   */\n    tag_41:\n        /* \"#utility.yul\":2263:2268   */\n      0x00\n        /* \"#utility.yul\":2312:2315   */\n      dup3\n        /* \"#utility.yul\":2305:2309   */\n      0x1f\n        /* \"#utility.yul\":2297:2303   */\n      dup4\n        /* \"#utility.yul\":2293:2310   */\n      add\n        /* \"#utility.yul\":2289:2316   */\n      slt\n        /* \"#utility.yul\":2279:2401   */\n      tag_94\n      jumpi\n        /* \"#utility.yul\":2320:2399   */\n      tag_95\n      tag_32\n      jump\t// in\n    tag_95:\n        /* \"#utility.yul\":2279:2401   */\n    tag_94:\n        /* \"#utility.yul\":2437:2443   */\n      dup2\n        /* \"#utility.yul\":2424:2444   */\n      calldataload\n        /* \"#utility.yul\":2462:2541   */\n      tag_96\n        /* \"#utility.yul\":2537:2540   */\n      dup5\n        /* \"#utility.yul\":2529:2535   */\n      dup3\n        /* \"#utility.yul\":2522:2526   */\n      0x20\n        /* \"#utility.yul\":2514:2520   */\n      dup7\n        /* \"#utility.yul\":2510:2527   */\n      add\n        /* \"#utility.yul\":2462:2541   */\n      tag_40\n      jump\t// in\n    tag_96:\n        /* \"#utility.yul\":2453:2541   */\n      swap2\n      pop\n        /* \"#utility.yul\":2269:2547   */\n      pop\n        /* \"#utility.yul\":2207:2547   */\n      swap3\n      swap2\n      pop\n      pop\n      jump\t// out\n        /* \"#utility.yul\":2553:2639   */\n    tag_42:\n        /* \"#utility.yul\":2588:2595   */\n      0x00\n        /* \"#utility.yul\":2628:2632   */\n      0xff\n        /* \"#utility.yul\":2621:2626   */\n      dup3\n        /* \"#utility.yul\":2617:2633   */\n      and\n        /* \"#utility.yul\":2606:2633   */\n      swap1\n      pop\n        /* \"#utility.yul\":2553:2639   */\n      swap2\n      swap1\n      pop\n      jump\t// out\n        /* \"#utility.yul\":2645:2763   */\n    tag_43:\n        /* \"#utility.yul\":2716:2738   */\n      tag_99\n        /* \"#utility.yul\":2732:2737   */\n      dup2\n        /* \"#utility.yul\":2716:2738   */\n      tag_42\n      jump\t// in\n    tag_99:\n        /* \"#utility.yul\":2709:2714   */\n      dup2\n        /* \"#utility.yul\":2706:2739   */\n      eq\n        /* \"#utility.yul\":2696:2757   */\n      tag_100\n      jumpi\n        /* \"#utility.yul\":2753:2754   */\n      0x00\n        /* \"#utility.yul\":2750:2751   */\n      dup1\n        /* \"#utility.yul\":2743:2755   */\n      revert\n        /* \"#utility.yul\":2696:2757   */\n    tag_100:\n        /* \"#utility.yul\":2645:2763   */\n      pop\n      jump\t// out\n        /* \"#utility.yul\":2769:2904   */\n    tag_44:\n        /* \"#utility.yul\":2813:2818   */\n      0x00\n        /* \"#utility.yul\":2851:2857   */\n      dup2\n        /* \"#utility.yul\":2838:2858   */\n      calldataload\n        /* \"#utility.yul\":2829:2858   */\n      swap1\n      pop\n        /* \"#utility.yul\":2867:2898   */\n      tag_102\n        /* \"#utility.yul\":2892:2897   */\n      dup2\n        /* \"#utility.yul\":2867:2898   */\n      tag_43\n      jump\t// in\n    tag_102:\n        /* \"#utility.yul\":2769:2904   */\n      swap3\n      swap2\n      pop\n      pop\n      jump\t// out\n        /* \"#utility.yul\":2910:3885   */\n    tag_7:\n        /* \"#utility.yul\":3005:3011   */\n      0x00\n        /* \"#utility.yul\":3013:3019   */\n      dup1\n        /* \"#utility.yul\":3021:3027   */\n      0x00\n        /* \"#utility.yul\":3070:3072   */\n      0x60\n        /* \"#utility.yul\":3058:3067   */\n      dup5\n        /* \"#utility.yul\":3049:3056   */\n      dup7\n        /* \"#utility.yul\":3045:3068   */\n      sub\n        /* \"#utility.yul\":3041:3073   */\n      slt\n        /* \"#utility.yul\":3038:3157   */\n      iszero\n      tag_104\n      jumpi\n        /* \"#utility.yul\":3076:3155   */\n      tag_105\n      tag_30\n      jump\t// in\n    tag_105:\n        /* \"#utility.yul\":3038:3157   */\n    tag_104:\n        /* \"#utility.yul\":3224:3225   */\n      0x00\n        /* \"#utility.yul\":3213:3222   */\n      dup5\n        /* \"#utility.yul\":3209:3226   */\n      add\n        /* \"#utility.yul\":3196:3227   */\n      calldataload\n        /* \"#utility.yul\":3254:3272   */\n      0xffffffffffffffff\n        /* \"#utility.yul\":3246:3252   */\n      dup2\n        /* \"#utility.yul\":3243:3273   */\n      gt\n        /* \"#utility.yul\":3240:3357   */\n      iszero\n      tag_106\n      jumpi\n        /* \"#utility.yul\":3276:3355   */\n      tag_107\n      tag_31\n      jump\t// in\n    tag_107:\n        /* \"#utility.yul\":3240:3357   */\n    tag_106:\n        /* \"#utility.yul\":3381:3444   */\n      tag_108\n        /* \"#utility.yul\":3436:3443   */\n      dup7\n        /* \"#utility.yul\":3427:3433   */\n      dup3\n        /* \"#utility.yul\":3416:3425   */\n      dup8\n        /* \"#utility.yul\":3412:3434   */\n      add\n        /* \"#utility.yul\":3381:3444   */\n      tag_41\n      jump\t// in\n    tag_108:\n        /* \"#utility.yul\":3371:3444   */\n      swap4\n      pop\n        /* \"#utility.yul\":3167:3454   */\n      pop\n        /* \"#utility.yul\":3493:3495   */\n      0x20\n        /* \"#utility.yul\":3519:3570   */\n      tag_109\n        /* \"#utility.yul\":3562:3569   */\n      dup7\n        /* \"#utility.yul\":3553:3559   */\n      dup3\n        /* \"#utility.yul\":3542:3551   */\n      dup8\n        /* \"#utility.yul\":3538:3560   */\n      add\n        /* \"#utility.yul\":3519:3570   */\n      tag_44\n      jump\t// in\n    tag_109:\n        /* \"#utility.yul\":3509:3570   */\n      swap3\n      pop\n        /* \"#utility.yul\":3464:3580   */\n      pop\n        /* \"#utility.yul\":3647:3649   */\n      0x40\n        /* \"#utility.yul\":3636:3645   */\n      dup5\n        /* \"#utility.yul\":3632:3650   */\n      add\n        /* \"#utility.yul\":3619:3651   */\n      calldataload\n        /* \"#utility.yul\":3678:3696   */\n      0xffffffffffffffff\n        /* \"#utility.yul\":3670:3676   */\n      dup2\n        /* \"#utility.yul\":3667:3697   */\n      gt\n        /* \"#utility.yul\":3664:3781   */\n      iszero\n      tag_110\n      jumpi\n        /* \"#utility.yul\":3700:3779   */\n      tag_111\n      tag_31\n      jump\t// in\n    tag_111:\n        /* \"#utility.yul\":3664:3781   */\n    tag_110:\n        /* \"#utility.yul\":3805:3868   */\n      tag_112\n        /* \"#utility.yul\":3860:3867   */\n      dup7\n        /* \"#utility.yul\":3851:3857   */\n      dup3\n        /* \"#utility.yul\":3840:3849   */\n      dup8\n        /* \"#utility.yul\":3836:3858   */\n      add\n        /* \"#utility.yul\":3805:3868   */\n      tag_41\n      jump\t// in\n    tag_112:\n        /* \"#utility.yul\":3795:3868   */\n      swap2\n      pop\n        /* \"#utility.yul\":3590:3878   */\n      pop\n        /* \"#utility.yul\":2910:3885   */\n      swap3\n      pop\n      swap3\n      pop\n      swap3\n      jump\t// out\n        /* \"#utility.yul\":3891:3990   */\n    tag_45:\n        /* \"#utility.yul\":3943:3949   */\n      0x00\n        /* \"#utility.yul\":3977:3982   */\n      dup2\n        /* \"#utility.yul\":3971:3983   */\n      mload\n        /* \"#utility.yul\":3961:3983   */\n      swap1\n      pop\n        /* \"#utility.yul\":3891:3990   */\n      swap2\n      swap1\n      pop\n      jump\t// out\n        /* \"#utility.yul\":3996:4165   */\n    tag_46:\n        /* \"#utility.yul\":4080:4091   */\n      0x00\n        /* \"#utility.yul\":4114:4120   */\n      dup3\n        /* \"#utility.yul\":4109:4112   */\n      dup3\n        /* \"#utility.yul\":4102:4121   */\n      mstore\n        /* \"#utility.yul\":4154:4158   */\n      0x20\n        /* \"#utility.yul\":4149:4152   */\n      dup3\n        /* \"#utility.yul\":4145:4159   */\n      add\n        /* \"#utility.yul\":4130:4159   */\n      swap1\n      pop\n        /* \"#utility.yul\":3996:4165   */\n      swap3\n      swap2\n      pop\n      pop\n      jump\t// out\n        /* \"#utility.yul\":4171:4417   */\n    tag_47:\n        /* \"#utility.yul\":4252:4253   */\n      0x00\n        /* \"#utility.yul\":4262:4375   */\n    tag_116:\n        /* \"#utility.yul\":4276:4282   */\n      dup4\n        /* \"#utility.yul\":4273:4274   */\n      dup2\n        /* \"#utility.yul\":4270:4283   */\n      lt\n        /* \"#utility.yul\":4262:4375   */\n      iszero\n      tag_118\n      jumpi\n        /* \"#utility.yul\":4361:4362   */\n      dup1\n        /* \"#utility.yul\":4356:4359   */\n      dup3\n        /* \"#utility.yul\":4352:4363   */\n      add\n        /* \"#utility.yul\":4346:4364   */\n      mload\n        /* \"#utility.yul\":4342:4343   */\n      dup2\n        /* \"#utility.yul\":4337:4340   */\n      dup5\n        /* \"#utility.yul\":4333:4344   */\n      add\n        /* \"#utility.yul\":4326:4365   */\n      mstore\n        /* \"#utility.yul\":4298:4300   */\n      0x20\n        /* \"#utility.yul\":4295:4296   */\n      dup2\n        /* \"#utility.yul\":4291:4301   */\n      add\n        /* \"#utility.yul\":4286:4301   */\n      swap1\n      pop\n        /* \"#utility.yul\":4262:4375   */\n      jump(tag_116)\n    tag_118:\n        /* \"#utility.yul\":4409:4410   */\n      0x00\n        /* \"#utility.yul\":4400:4406   */\n      dup5\n        /* \"#utility.yul\":4395:4398   */\n      dup5\n        /* \"#utility.yul\":4391:4407   */\n      add\n        /* \"#utility.yul\":4384:4411   */\n      mstore\n        /* \"#utility.yul\":4233:4417   */\n      pop\n        /* \"#utility.yul\":4171:4417   */\n      pop\n      pop\n      pop\n      jump\t// out\n        /* \"#utility.yul\":4423:4800   */\n    tag_48:\n        /* \"#utility.yul\":4511:4514   */\n      0x00\n        /* \"#utility.yul\":4539:4578   */\n      tag_120\n        /* \"#utility.yul\":4572:4577   */\n      dup3\n        /* \"#utility.yul\":4539:4578   */\n      tag_45\n      jump\t// in\n    tag_120:\n        /* \"#utility.yul\":4594:4665   */\n      tag_121\n        /* \"#utility.yul\":4658:4664   */\n      dup2\n        /* \"#utility.yul\":4653:4656   */\n      dup6\n        /* \"#utility.yul\":4594:4665   */\n      tag_46\n      jump\t// in\n    tag_121:\n        /* \"#utility.yul\":4587:4665   */\n      swap4\n      pop\n        /* \"#utility.yul\":4674:4739   */\n      tag_122\n        /* \"#utility.yul\":4732:4738   */\n      dup2\n        /* \"#utility.yul\":4727:4730   */\n      dup6\n        /* \"#utility.yul\":4720:4724   */\n      0x20\n        /* \"#utility.yul\":4713:4718   */\n      dup7\n        /* \"#utility.yul\":4709:4725   */\n      add\n        /* \"#utility.yul\":4674:4739   */\n      tag_47\n      jump\t// in\n    tag_122:\n        /* \"#utility.yul\":4764:4793   */\n      tag_123\n        /* \"#utility.yul\":4786:4792   */\n      dup2\n        /* \"#utility.yul\":4764:4793   */\n      tag_34\n      jump\t// in\n    tag_123:\n        /* \"#utility.yul\":4759:4762   */\n      dup5\n        /* \"#utility.yul\":4755:4794   */\n      add\n        /* \"#utility.yul\":4748:4794   */\n      swap2\n      pop\n        /* \"#utility.yul\":4515:4800   */\n      pop\n        /* \"#utility.yul\":4423:4800   */\n      swap3\n      swap2\n      pop\n      pop\n      jump\t// out\n        /* \"#utility.yul\":4806:4918   */\n    tag_49:\n        /* \"#utility.yul\":4889:4911   */\n      tag_125\n        /* \"#utility.yul\":4905:4910   */\n      dup2\n        /* \"#utility.yul\":4889:4911   */\n      tag_42\n      jump\t// in\n    tag_125:\n        /* \"#utility.yul\":4884:4887   */\n      dup3\n        /* \"#utility.yul\":4877:4912   */\n      mstore\n        /* \"#utility.yul\":4806:4918   */\n      pop\n      pop\n      jump\t// out\n        /* \"#utility.yul\":4924:5540   */\n    tag_12:\n        /* \"#utility.yul\":5109:5113   */\n      0x00\n        /* \"#utility.yul\":5147:5149   */\n      0x60\n        /* \"#utility.yul\":5136:5145   */\n      dup3\n        /* \"#utility.yul\":5132:5150   */\n      add\n        /* \"#utility.yul\":5124:5150   */\n      swap1\n      pop\n        /* \"#utility.yul\":5196:5205   */\n      dup2\n        /* \"#utility.yul\":5190:5194   */\n      dup2\n        /* \"#utility.yul\":5186:5206   */\n      sub\n        /* \"#utility.yul\":5182:5183   */\n      0x00\n        /* \"#utility.yul\":5171:5180   */\n      dup4\n        /* \"#utility.yul\":5167:5184   */\n      add\n        /* \"#utility.yul\":5160:5207   */\n      mstore\n        /* \"#utility.yul\":5224:5302   */\n      tag_127\n        /* \"#utility.yul\":5297:5301   */\n      dup2\n        /* \"#utility.yul\":5288:5294   */\n      dup7\n        /* \"#utility.yul\":5224:5302   */\n      tag_48\n      jump\t// in\n    tag_127:\n        /* \"#utility.yul\":5216:5302   */\n      swap1\n      pop\n        /* \"#utility.yul\":5312:5380   */\n      tag_128\n        /* \"#utility.yul\":5376:5378   */\n      0x20\n        /* \"#utility.yul\":5365:5374   */\n      dup4\n        /* \"#utility.yul\":5361:5379   */\n      add\n        /* \"#utility.yul\":5352:5358   */\n      dup6\n        /* \"#utility.yul\":5312:5380   */\n      tag_49\n      jump\t// in\n    tag_128:\n        /* \"#utility.yul\":5427:5436   */\n      dup2\n        /* \"#utility.yul\":5421:5425   */\n      dup2\n        /* \"#utility.yul\":5417:5437   */\n      sub\n        /* \"#utility.yul\":5412:5414   */\n      0x40\n        /* \"#utility.yul\":5401:5410   */\n      dup4\n        /* \"#utility.yul\":5397:5415   */\n      add\n        /* \"#utility.yul\":5390:5438   */\n      mstore\n        /* \"#utility.yul\":5455:5533   */\n      tag_129\n        /* \"#utility.yul\":5528:5532   */\n      dup2\n        /* \"#utility.yul\":5519:5525   */\n      dup5\n        /* \"#utility.yul\":5455:5533   */\n      tag_48\n      jump\t// in\n    tag_129:\n        /* \"#utility.yul\":5447:5533   */\n      swap1\n      pop\n        /* \"#utility.yul\":4924:5540   */\n      swap5\n      swap4\n      pop\n      pop\n      pop\n      pop\n      jump\t// out\n        /* \"#utility.yul\":5546:5726   */\n    tag_50:\n        /* \"#utility.yul\":5594:5671   */\n      0x4e487b7100000000000000000000000000000000000000000000000000000000\n        /* \"#utility.yul\":5591:5592   */\n      0x00\n        /* \"#utility.yul\":5584:5672   */\n      mstore\n        /* \"#utility.yul\":5691:5695   */\n      0x22\n        /* \"#utility.yul\":5688:5689   */\n      0x04\n        /* \"#utility.yul\":5681:5696   */\n      mstore\n        /* \"#utility.yul\":5715:5719   */\n      0x24\n        /* \"#utility.yul\":5712:5713   */\n      0x00\n        /* \"#utility.yul\":5705:5720   */\n      revert\n        /* \"#utility.yul\":5732:6052   */\n    tag_19:\n        /* \"#utility.yul\":5776:5782   */\n      0x00\n        /* \"#utility.yul\":5813:5814   */\n      0x02\n        /* \"#utility.yul\":5807:5811   */\n      dup3\n        /* \"#utility.yul\":5803:5815   */\n      div\n        /* \"#utility.yul\":5793:5815   */\n      swap1\n      pop\n        /* \"#utility.yul\":5860:5861   */\n      0x01\n        /* \"#utility.yul\":5854:5858   */\n      dup3\n        /* \"#utility.yul\":5850:5862   */\n      and\n        /* \"#utility.yul\":5881:5899   */\n      dup1\n        /* \"#utility.yul\":5871:5952   */\n      tag_132\n      jumpi\n        /* \"#utility.yul\":5937:5941   */\n      0x7f\n        /* \"#utility.yul\":5929:5935   */\n      dup3\n        /* \"#utility.yul\":5925:5942   */\n      and\n        /* \"#utility.yul\":5915:5942   */\n      swap2\n      pop\n        /* \"#utility.yul\":5871:5952   */\n    tag_132:\n        /* \"#utility.yul\":5999:6001   */\n      0x20\n        /* \"#utility.yul\":5991:5997   */\n      dup3\n        /* \"#utility.yul\":5988:6002   */\n      lt\n        /* \"#utility.yul\":5968:5986   */\n      dup2\n        /* \"#utility.yul\":5965:6003   */\n      sub\n        /* \"#utility.yul\":5962:6046   */\n      tag_133\n      jumpi\n        /* \"#utility.yul\":6018:6036   */\n      tag_134\n      tag_50\n      jump\t// in\n    tag_134:\n        /* \"#utility.yul\":5962:6046   */\n    tag_133:\n        /* \"#utility.yul\":5783:6052   */\n      pop\n        /* \"#utility.yul\":5732:6052   */\n      swap2\n      swap1\n      pop\n      jump\t// out\n        /* \"#utility.yul\":6058:6199   */\n    tag_51:\n        /* \"#utility.yul\":6107:6111   */\n      0x00\n        /* \"#utility.yul\":6130:6133   */\n      dup2\n        /* \"#utility.yul\":6122:6133   */\n      swap1\n      pop\n        /* \"#utility.yul\":6153:6156   */\n      dup2\n        /* \"#utility.yul\":6150:6151   */\n      0x00\n        /* \"#utility.yul\":6143:6157   */\n      mstore\n        /* \"#utility.yul\":6187:6191   */\n      0x20\n        /* \"#utility.yul\":6184:6185   */\n      0x00\n        /* \"#utility.yul\":6174:6192   */\n      keccak256\n        /* \"#utility.yul\":6166:6192   */\n      swap1\n      pop\n        /* \"#utility.yul\":6058:6199   */\n      swap2\n      swap1\n      pop\n      jump\t// out\n        /* \"#utility.yul\":6205:6298   */\n    tag_52:\n        /* \"#utility.yul\":6242:6248   */\n      0x00\n        /* \"#utility.yul\":6289:6291   */\n      0x20\n        /* \"#utility.yul\":6284:6286   */\n      0x1f\n        /* \"#utility.yul\":6277:6282   */\n      dup4\n        /* \"#utility.yul\":6273:6287   */\n      add\n        /* \"#utility.yul\":6269:6292   */\n      div\n        /* \"#utility.yul\":6259:6292   */\n      swap1\n      pop\n        /* \"#utility.yul\":6205:6298   */\n      swap2\n      swap1\n      pop\n      jump\t// out\n        /* \"#utility.yul\":6304:6411   */\n    tag_53:\n        /* \"#utility.yul\":6348:6356   */\n      0x00\n        /* \"#utility.yul\":6398:6403   */\n      dup3\n        /* \"#utility.yul\":6392:6396   */\n      dup3\n        /* \"#utility.yul\":6388:6404   */\n      shl\n        /* \"#utility.yul\":6367:6404   */\n      swap1\n      pop\n        /* \"#utility.yul\":6304:6411   */\n      swap3\n      swap2\n      pop\n      pop\n      jump\t// out\n        /* \"#utility.yul\":6417:6810   */\n    tag_54:\n        /* \"#utility.yul\":6486:6492   */\n      0x00\n        /* \"#utility.yul\":6536:6537   */\n      0x08\n        /* \"#utility.yul\":6524:6534   */\n      dup4\n        /* \"#utility.yul\":6520:6538   */\n      mul\n        /* \"#utility.yul\":6559:6656   */\n      tag_139\n        /* \"#utility.yul\":6589:6655   */\n      0xffffffffffffffffffffffffffffffffffffffffffffffffffffffffffffffff\n        /* \"#utility.yul\":6578:6587   */\n      dup3\n        /* \"#utility.yul\":6559:6656   */\n      tag_53\n      jump\t// in\n    tag_139:\n        /* \"#utility.yul\":6677:6716   */\n      tag_140\n        /* \"#utility.yul\":6707:6715   */\n      dup7\n        /* \"#utility.yul\":6696:6705   */\n      dup4\n        /* \"#utility.yul\":6677:6716   */\n      tag_53\n      jump\t// in\n    tag_140:\n        /* \"#utility.yul\":6665:6716   */\n      swap6\n      pop\n        /* \"#utility.yul\":6749:6753   */\n      dup1\n        /* \"#utility.yul\":6745:6754   */\n      not\n        /* \"#utility.yul\":6738:6743   */\n      dup5\n        /* \"#utility.yul\":6734:6755   */\n      and\n        /* \"#utility.yul\":6725:6755   */\n      swap4\n      pop\n        /* \"#utility.yul\":6798:6802   */\n      dup1\n        /* \"#utility.yul\":6788:6796   */\n      dup7\n        /* \"#utility.yul\":6784:6803   */\n      and\n        /* \"#utility.yul\":6777:6782   */\n      dup5\n        /* \"#utility.yul\":6774:6804   */\n      or\n        /* \"#utility.yul\":6764:6804   */\n      swap3\n      pop\n        /* \"#utility.yul\":6493:6810   */\n      pop\n      pop\n        /* \"#utility.yul\":6417:6810   */\n      swap4\n      swap3\n      pop\n      pop\n      pop\n      jump\t// out\n        /* \"#utility.yul\":6816:6893   */\n    tag_55:\n        /* \"#utility.yul\":6853:6860   */\n      0x00\n        /* \"#utility.yul\":6882:6887   */\n      dup2\n        /* \"#utility.yul\":6871:6887   */\n      swap1\n      pop\n        /* \"#utility.yul\":6816:6893   */\n      swap2\n      swap1\n      pop\n      jump\t// out\n        /* \"#utility.yul\":6899:6959   */\n    tag_56:\n        /* \"#utility.yul\":6927:6930   */\n      0x00\n        /* \"#utility.yul\":6948:6953   */\n      dup2\n        /* \"#utility.yul\":6941:6953   */\n      swap1\n      pop\n        /* \"#utility.yul\":6899:6959   */\n      swap2\n      swap1\n      pop\n      jump\t// out\n        /* \"#utility.yul\":6965:7107   */\n    tag_57:\n        /* \"#utility.yul\":7015:7024   */\n      0x00\n        /* \"#utility.yul\":7048:7101   */\n      tag_144\n        /* \"#utility.yul\":7066:7100   */\n      tag_145\n        /* \"#utility.yul\":7075:7099   */\n      tag_146\n        /* \"#utility.yul\":7093:7098   */\n      dup5\n        /* \"#utility.yul\":7075:7099   */\n      tag_55\n      jump\t// in\n    tag_146:\n        /* \"#utility.yul\":7066:7100   */\n      tag_56\n      jump\t// in\n    tag_145:\n        /* \"#utility.yul\":7048:7101   */\n      tag_55\n      jump\t// in\n    tag_144:\n        /* \"#utility.yul\":7035:7101   */\n      swap1\n      pop\n        /* \"#utility.yul\":6965:7107   */\n      swap2\n      swap1\n      pop\n      jump\t// out\n        /* \"#utility.yul\":7113:7188   */\n    tag_58:\n        /* \"#utility.yul\":7156:7159   */\n      0x00\n        /* \"#utility.yul\":7177:7182   */\n      dup2\n        /* \"#utility.yul\":7170:7182   */\n      swap1\n      pop\n        /* \"#utility.yul\":7113:7188   */\n      swap2\n      swap1\n      pop\n      jump\t// out\n        /* \"#utility.yul\":7194:7463   */\n    tag_59:\n        /* \"#utility.yul\":7304:7343   */\n      tag_149\n        /* \"#utility.yul\":7335:7342   */\n      dup4\n        /* \"#utility.yul\":7304:7343   */\n      tag_57\n      jump\t// in\n    tag_149:\n        /* \"#utility.yul\":7365:7456   */\n      tag_150\n        /* \"#utility.yul\":7414:7455   */\n      tag_151\n        /* \"#utility.yul\":7438:7454   */\n      dup3\n        /* \"#utility.yul\":7414:7455   */\n      tag_58\n      jump\t// in\n    tag_151:\n        /* \"#utility.yul\":7406:7412   */\n      dup5\n        /* \"#utility.yul\":7399:7403   */\n      dup5\n        /* \"#utility.yul\":7393:7404   */\n      sload\n        /* \"#utility.yul\":7365:7456   */\n      tag_54\n      jump\t// in\n    tag_150:\n        /* \"#utility.yul\":7359:7363   */\n      dup3\n        /* \"#utility.yul\":7352:7457   */\n      sstore\n        /* \"#utility.yul\":7270:7463   */\n      pop\n        /* \"#utility.yul\":7194:7463   */\n      pop\n      pop\n      pop\n      jump\t// out\n        /* \"#utility.yul\":7469:7542   */\n    tag_60:\n        /* \"#utility.yul\":7514:7517   */\n      0x00\n        /* \"#utility.yul\":7469:7542   */\n      swap1\n      jump\t// out\n        /* \"#utility.yul\":7548:7737   */\n    tag_61:\n        /* \"#utility.yul\":7625:7657   */\n      tag_154\n      tag_60\n      jump\t// in\n    tag_154:\n        /* \"#utility.yul\":7666:7731   */\n      tag_155\n        /* \"#utility.yul\":7724:7730   */\n      dup2\n        /* \"#utility.yul\":7716:7722   */\n      dup5\n        /* \"#utility.yul\":7710:7714   */\n      dup5\n        /* \"#utility.yul\":7666:7731   */\n      tag_59\n      jump\t// in\n    tag_155:\n        /* \"#utility.yul\":7601:7737   */\n      pop\n        /* \"#utility.yul\":7548:7737   */\n      pop\n      pop\n      jump\t// out\n        /* \"#utility.yul\":7743:7929   */\n    tag_62:\n        /* \"#utility.yul\":7803:7923   */\n    tag_157:\n        /* \"#utility.yul\":7820:7823   */\n      dup2\n        /* \"#utility.yul\":7813:7818   */\n      dup2\n        /* \"#utility.yul\":7810:7824   */\n      lt\n        /* \"#utility.yul\":7803:7923   */\n      iszero\n      tag_159\n      jumpi\n        /* \"#utility.yul\":7874:7913   */\n      tag_160\n        /* \"#utility.yul\":7911:7912   */\n      0x00\n        /* \"#utility.yul\":7904:7909   */\n      dup3\n        /* \"#utility.yul\":7874:7913   */\n      tag_61\n      jump\t// in\n    tag_160:\n        /* \"#utility.yul\":7847:7848   */\n      0x01\n        /* \"#utility.yul\":7840:7845   */\n      dup2\n        /* \"#utility.yul\":7836:7849   */\n      add\n        /* \"#utility.yul\":7827:7849   */\n      swap1\n      pop\n        /* \"#utility.yul\":7803:7923   */\n      jump(tag_157)\n    tag_159:\n        /* \"#utility.yul\":7743:7929   */\n      pop\n      pop\n      jump\t// out\n        /* \"#utility.yul\":7935:8478   */\n    tag_63:\n        /* \"#utility.yul\":8036:8038   */\n      0x1f\n        /* \"#utility.yul\":8031:8034   */\n      dup3\n        /* \"#utility.yul\":8028:8039   */\n      gt\n        /* \"#utility.yul\":8025:8471   */\n      iszero\n      tag_162\n      jumpi\n        /* \"#utility.yul\":8070:8108   */\n      tag_163\n        /* \"#utility.yul\":8102:8107   */\n      dup2\n        /* \"#utility.yul\":8070:8108   */\n      tag_51\n      jump\t// in\n    tag_163:\n        /* \"#utility.yul\":8154:8183   */\n      tag_164\n        /* \"#utility.yul\":8172:8182   */\n      dup5\n        /* \"#utility.yul\":8154:8183   */\n      tag_52\n      jump\t// in\n    tag_164:\n        /* \"#utility.yul\":8144:8152   */\n      dup2\n        /* \"#utility.yul\":8140:8184   */\n      add\n        /* \"#utility.yul\":8337:8339   */\n      0x20\n        /* \"#utility.yul\":8325:8335   */\n      dup6\n        /* \"#utility.yul\":8322:8340   */\n      lt\n        /* \"#utility.yul\":8319:8368   */\n      iszero\n      tag_165\n      jumpi\n        /* \"#utility.yul\":8358:8366   */\n      dup2\n        /* \"#utility.yul\":8343:8366   */\n      swap1\n      pop\n        /* \"#utility.yul\":8319:8368   */\n    tag_165:\n        /* \"#utility.yul\":8381:8461   */\n      tag_166\n        /* \"#utility.yul\":8437:8459   */\n      tag_167\n        /* \"#utility.yul\":8455:8458   */\n      dup6\n        /* \"#utility.yul\":8437:8459   */\n      tag_52\n      jump\t// in\n    tag_167:\n        /* \"#utility.yul\":8427:8435   */\n      dup4\n        /* \"#utility.yul\":8423:8460   */\n      add\n        /* \"#utility.yul\":8410:8421   */\n      dup3\n        /* \"#utility.yul\":8381:8461   */\n      tag_62\n      jump\t// in\n    tag_166:\n        /* \"#utility.yul\":8040:8471   */\n      pop\n      pop\n        /* \"#utility.yul\":8025:8471   */\n    tag_162:\n        /* \"#utility.yul\":7935:8478   */\n      pop\n      pop\n      pop\n      jump\t// out\n        /* \"#utility.yul\":8484:8601   */\n    tag_64:\n        /* \"#utility.yul\":8538:8546   */\n      0x00\n        /* \"#utility.yul\":8588:8593   */\n      dup3\n        /* \"#utility.yul\":8582:8586   */\n      dup3\n        /* \"#utility.yul\":8578:8594   */\n      shr\n        /* \"#utility.yul\":8557:8594   */\n      swap1\n      pop\n        /* \"#utility.yul\":8484:8601   */\n      swap3\n      swap2\n      pop\n      pop\n      jump\t// out\n        /* \"#utility.yul\":8607:8776   */\n    tag_65:\n        /* \"#utility.yul\":8651:8657   */\n      0x00\n        /* \"#utility.yul\":8684:8735   */\n      tag_170\n        /* \"#utility.yul\":8732:8733   */\n      0x00\n        /* \"#utility.yul\":8728:8734   */\n      not\n        /* \"#utility.yul\":8720:8725   */\n      dup5\n        /* \"#utility.yul\":8717:8718   */\n      0x08\n        /* \"#utility.yul\":8713:8726   */\n      mul\n        /* \"#utility.yul\":8684:8735   */\n      tag_64\n      jump\t// in\n    tag_170:\n        /* \"#utility.yul\":8680:8736   */\n      not\n        /* \"#utility.yul\":8765:8769   */\n      dup1\n        /* \"#utility.yul\":8759:8763   */\n      dup4\n        /* \"#utility.yul\":8755:8770   */\n      and\n        /* \"#utility.yul\":8745:8770   */\n      swap2\n      pop\n        /* \"#utility.yul\":8658:8776   */\n      pop\n        /* \"#utility.yul\":8607:8776   */\n      swap3\n      swap2\n      pop\n      pop\n      jump\t// out\n        /* \"#utility.yul\":8781:9076   */\n    tag_66:\n        /* \"#utility.yul\":8857:8861   */\n      0x00\n        /* \"#utility.yul\":9003:9032   */\n      tag_172\n        /* \"#utility.yul\":9028:9031   */\n      dup4\n        /* \"#utility.yul\":9022:9026   */\n      dup4\n        /* \"#utility.yul\":9003:9032   */\n      tag_65\n      jump\t// in\n    tag_172:\n        /* \"#utility.yul\":8995:9032   */\n      swap2\n      pop\n        /* \"#utility.yul\":9065:9068   */\n      dup3\n        /* \"#utility.yul\":9062:9063   */\n      0x02\n        /* \"#utility.yul\":9058:9069   */\n      mul\n        /* \"#utility.yul\":9052:9056   */\n      dup3\n        /* \"#utility.yul\":9049:9070   */\n      or\n        /* \"#utility.yul\":9041:9070   */\n      swap1\n      pop\n        /* \"#utility.yul\":8781:9076   */\n      swap3\n      swap2\n      pop\n      pop\n      jump\t// out\n        /* \"#utility.yul\":9081:10476   */\n    tag_15:\n        /* \"#utility.yul\":9198:9235   */\n      tag_174\n        /* \"#utility.yul\":9231:9234   */\n      dup3\n        /* \"#utility.yul\":9198:9235   */\n      tag_45\n      jump\t// in\n    tag_174:\n        /* \"#utility.yul\":9300:9318   */\n      0xffffffffffffffff\n        /* \"#utility.yul\":9292:9298   */\n      dup2\n        /* \"#utility.yul\":9289:9319   */\n      gt\n        /* \"#utility.yul\":9286:9342   */\n      iszero\n      tag_175\n      jumpi\n        /* \"#utility.yul\":9322:9340   */\n      tag_176\n      tag_35\n      jump\t// in\n    tag_176:\n        /* \"#utility.yul\":9286:9342   */\n    tag_175:\n        /* \"#utility.yul\":9366:9404   */\n      tag_177\n        /* \"#utility.yul\":9398:9402   */\n      dup3\n        /* \"#utility.yul\":9392:9403   */\n      sload\n        /* \"#utility.yul\":9366:9404   */\n      tag_19\n      jump\t// in\n    tag_177:\n        /* \"#utility.yul\":9451:9518   */\n      tag_178\n        /* \"#utility.yul\":9511:9517   */\n      dup3\n        /* \"#utility.yul\":9503:9509   */\n      dup3\n        /* \"#utility.yul\":9497:9501   */\n      dup6\n        /* \"#utility.yul\":9451:9518   */\n      tag_63\n      jump\t// in\n    tag_178:\n        /* \"#utility.yul\":9545:9546   */\n      0x00\n        /* \"#utility.yul\":9569:9573   */\n      0x20\n        /* \"#utility.yul\":9556:9573   */\n      swap1\n      pop\n        /* \"#utility.yul\":9601:9603   */\n      0x1f\n        /* \"#utility.yul\":9593:9599   */\n      dup4\n        /* \"#utility.yul\":9590:9604   */\n      gt\n        /* \"#utility.yul\":9618:9619   */\n      0x01\n        /* \"#utility.yul\":9613:10231   */\n      dup2\n      eq\n      tag_180\n      jumpi\n        /* \"#utility.yul\":10275:10276   */\n      0x00\n        /* \"#utility.yul\":10292:10298   */\n      dup5\n        /* \"#utility.yul\":10289:10366   */\n      iszero\n      tag_181\n      jumpi\n        /* \"#utility.yul\":10341:10350   */\n      dup3\n        /* \"#utility.yul\":10336:10339   */\n      dup8\n        /* \"#utility.yul\":10332:10351   */\n      add\n        /* \"#utility.yul\":10326:10352   */\n      mload\n        /* \"#utility.yul\":10317:10352   */\n      swap1\n      pop\n        /* \"#utility.yul\":10289:10366   */\n    tag_181:\n        /* \"#utility.yul\":10392:10459   */\n      tag_182\n        /* \"#utility.yul\":10452:10458   */\n      dup6\n        /* \"#utility.yul\":10445:10450   */\n      dup3\n        /* \"#utility.yul\":10392:10459   */\n      tag_66\n      jump\t// in\n    tag_182:\n        /* \"#utility.yul\":10386:10390   */\n      dup7\n        /* \"#utility.yul\":10379:10460   */\n      sstore\n        /* \"#utility.yul\":10248:10470   */\n      pop\n        /* \"#utility.yul\":9583:10470   */\n      jump(tag_179)\n        /* \"#utility.yul\":9613:10231   */\n    tag_180:\n        /* \"#utility.yul\":9665:9669   */\n      0x1f\n        /* \"#utility.yul\":9661:9670   */\n      not\n        /* \"#utility.yul\":9653:9659   */\n      dup5\n        /* \"#utility.yul\":9649:9671   */\n      and\n        /* \"#utility.yul\":9699:9736   */\n      tag_183\n        /* \"#utility.yul\":9731:9735   */\n      dup7\n        /* \"#utility.yul\":9699:9736   */\n      tag_51\n      jump\t// in\n    tag_183:\n        /* \"#utility.yul\":9758:9759   */\n      0x00\n        /* \"#utility.yul\":9772:9980   */\n    tag_184:\n        /* \"#utility.yul\":9786:9793   */\n      dup3\n        /* \"#utility.yul\":9783:9784   */\n      dup2\n        /* \"#utility.yul\":9780:9794   */\n      lt\n        /* \"#utility.yul\":9772:9980   */\n      iszero\n      tag_186\n      jumpi\n        /* \"#utility.yul\":9865:9874   */\n      dup5\n        /* \"#utility.yul\":9860:9863   */\n      dup10\n        /* \"#utility.yul\":9856:9875   */\n      add\n        /* \"#utility.yul\":9850:9876   */\n      mload\n        /* \"#utility.yul\":9842:9848   */\n      dup3\n        /* \"#utility.yul\":9835:9877   */\n      sstore\n        /* \"#utility.yul\":9916:9917   */\n      0x01\n        /* \"#utility.yul\":9908:9914   */\n      dup3\n        /* \"#utility.yul\":9904:9918   */\n      add\n        /* \"#utility.yul\":9894:9918   */\n      swap2\n      pop\n        /* \"#utility.yul\":9963:9965   */\n      0x20\n        /* \"#utility.yul\":9952:9961   */\n      dup6\n        /* \"#utility.yul\":9948:9966   */\n      add\n        /* \"#utility.yul\":9935:9966   */\n      swap5\n      pop\n        /* \"#utility.yul\":9809:9813   */\n      0x20\n        /* \"#utility.yul\":9806:9807   */\n      dup2\n        /* \"#utility.yul\":9802:9814   */\n      add\n        /* \"#utility.yul\":9797:9814   */\n      swap1\n      pop\n        /* \"#utility.yul\":9772:9980   */\n      jump(tag_184)\n    tag_186:\n        /* \"#utility.yul\":10008:10014   */\n      dup7\n        /* \"#utility.yul\":9999:10006   */\n      dup4\n        /* \"#utility.yul\":9996:10015   */\n      lt\n        /* \"#utility.yul\":9993:10172   */\n      iszero\n      tag_187\n      jumpi\n        /* \"#utility.yul\":10066:10075   */\n      dup5\n        /* \"#utility.yul\":10061:10064   */\n      dup10\n        /* \"#utility.yul\":10057:10076   */\n      add\n        /* \"#utility.yul\":10051:10077   */\n      mload\n        /* \"#utility.yul\":10109:10157   */\n      tag_188\n        /* \"#utility.yul\":10151:10155   */\n      0x1f\n        /* \"#utility.yul\":10143:10149   */\n      dup10\n        /* \"#utility.yul\":10139:10156   */\n      and\n        /* \"#utility.yul\":10128:10137   */\n      dup3\n        /* \"#utility.yul\":10109:10157   */\n      tag_65\n      jump\t// in\n    tag_188:\n        /* \"#utility.yul\":10101:10107   */\n      dup4\n        /* \"#utility.yul\":10094:10158   */\n      sstore\n        /* \"#utility.yul\":10016:10172   */\n      pop\n        /* \"#utility.yul\":9993:10172   */\n    tag_187:\n        /* \"#utility.yul\":10218:10219   */\n      0x01\n        /* \"#utility.yul\":10214:10215   */\n      0x02\n        /* \"#utility.yul\":10206:10212   */\n      dup9\n        /* \"#utility.yul\":10202:10216   */\n      mul\n        /* \"#utility.yul\":10198:10220   */\n      add\n        /* \"#utility.yul\":10192:10196   */\n      dup9\n        /* \"#utility.yul\":10185:10221   */\n      sstore\n        /* \"#utility.yul\":9620:10231   */\n      pop\n      pop\n      pop\n        /* \"#utility.yul\":9583:10470   */\n    tag_179:\n      pop\n        /* \"#utility.yul\":9173:10476   */\n      pop\n      pop\n      pop\n        /* \"#utility.yul\":9081:10476   */\n      pop\n      pop\n      jump\t// out\n\n    auxdata: 0xa2646970667358221220ab9b4062579f610f047bd22ce613c9c67f014978e4b2da43ba3312f12e32f5f964736f6c63430008120033\n}\n",
				"bytecode": {
					"linkReferences": {},
					"object": "608060405234801561001057600080fd5b50610813806100206000396000f3fe608060405234801561001057600080fd5b50600436106100365760003560e01c80632d1ca9921461003b5780635d8d158514610057575b600080fd5b61005560048036038101906100509190610397565b610077565b005b61005f6100bf565b60405161006e939291906104b0565b60405180910390f35b82600080019081610088919061070b565b5081600060010160006101000a81548160ff021916908360ff16021790555080600060020190816100b9919061070b565b50505050565b60606000606060008001600060010160009054906101000a900460ff1660006002018280546100ed90610524565b80601f016020809104026020016040519081016040528092919081815260200182805461011990610524565b80156101665780601f1061013b57610100808354040283529160200191610166565b820191906000526020600020905b81548152906001019060200180831161014957829003601f168201915b5050505050925080805461017990610524565b80601f01602080910402602001604051908101604052809291908181526020018280546101a590610524565b80156101f25780601f106101c7576101008083540402835291602001916101f2565b820191906000526020600020905b8154815290600101906020018083116101d557829003601f168201915b50505050509050925092509250909192565b6000604051905090565b600080fd5b600080fd5b600080fd5b600080fd5b6000601f19601f8301169050919050565b7f4e487b7100000000000000000000000000000000000000000000000000000000600052604160045260246000fd5b61026b82610222565b810181811067ffffffffffffffff8211171561028a57610289610233565b5b80604052505050565b600061029d610204565b90506102a98282610262565b919050565b600067ffffffffffffffff8211156102c9576102c8610233565b5b6102d282610222565b9050602081019050919050565b82818337600083830152505050565b60006103016102fc846102ae565b610293565b90508281526020810184848401111561031d5761031c61021d565b5b6103288482856102df565b509392505050565b600082601f83011261034557610344610218565b5b81356103558482602086016102ee565b91505092915050565b600060ff82169050919050565b6103748161035e565b811461037f57600080fd5b50565b6000813590506103918161036b565b92915050565b6000806000606084860312156103b0576103af61020e565b5b600084013567ffffffffffffffff8111156103ce576103cd610213565b5b6103da86828701610330565b93505060206103eb86828701610382565b925050604084013567ffffffffffffffff81111561040c5761040b610213565b5b61041886828701610330565b9150509250925092565b600081519050919050565b600082825260208201905092915050565b60005b8381101561045c578082015181840152602081019050610441565b60008484015250505050565b600061047382610422565b61047d818561042d565b935061048d81856020860161043e565b61049681610222565b840191505092915050565b6104aa8161035e565b82525050565b600060608201905081810360008301526104ca8186610468565b90506104d960208301856104a1565b81810360408301526104eb8184610468565b9050949350505050565b7f4e487b7100000000000000000000000000000000000000000000000000000000600052602260045260246000fd5b6000600282049050600182168061053c57607f821691505b60208210810361054f5761054e6104f5565b5b50919050565b60008190508160005260206000209050919050565b60006020601f8301049050919050565b600082821b905092915050565b6000600883026105b77fffffffffffffffffffffffffffffffffffffffffffffffffffffffffffffffff8261057a565b6105c1868361057a565b95508019841693508086168417925050509392505050565b6000819050919050565b6000819050919050565b60006106086106036105fe846105d9565b6105e3565b6105d9565b9050919050565b6000819050919050565b610622836105ed565b61063661062e8261060f565b848454610587565b825550505050565b600090565b61064b61063e565b610656818484610619565b505050565b5b8181101561067a5761066f600082610643565b60018101905061065c565b5050565b601f8211156106bf5761069081610555565b6106998461056a565b810160208510156106a8578190505b6106bc6106b48561056a565b83018261065b565b50505b505050565b600082821c905092915050565b60006106e2600019846008026106c4565b1980831691505092915050565b60006106fb83836106d1565b9150826002028217905092915050565b61071482610422565b67ffffffffffffffff81111561072d5761072c610233565b5b6107378254610524565b61074282828561067e565b600060209050601f8311600181146107755760008415610763578287015190505b61076d85826106ef565b8655506107d5565b601f19841661078386610555565b60005b828110156107ab57848901518255600182019150602085019450602081019050610786565b868310156107c857848901516107c4601f8916826106d1565b8355505b6001600288020188555050505b50505050505056fea2646970667358221220ab9b4062579f610f047bd22ce613c9c67f014978e4b2da43ba3312f12e32f5f964736f6c63430008120033",
					"opcodes": "PUSH1 0x80 PUSH1 0x40 MSTORE CALLVALUE DUP1 ISZERO PUSH2 0x10 JUMPI PUSH1 0x0 DUP1 REVERT JUMPDEST POP PUSH2 0x813 DUP1 PUSH2 0x20 PUSH1 0x0 CODECOPY PUSH1 0x0 RETURN INVALID PUSH1 0x80 PUSH1 0x40 MSTORE CALLVALUE DUP1 ISZERO PUSH2 0x10 JUMPI PUSH1 0x0 DUP1 REVERT JUMPDEST POP PUSH1 0x4 CALLDATASIZE LT PUSH2 0x36 JUMPI PUSH1 0x0 CALLDATALOAD PUSH1 0xE0 SHR DUP1 PUSH4 0x2D1CA992 EQ PUSH2 0x3B JUMPI DUP1 PUSH4 0x5D8D1585 EQ PUSH2 0x57 JUMPI JUMPDEST PUSH1 0x0 DUP1 REVERT JUMPDEST PUSH2 0x55 PUSH1 0x4 DUP1 CALLDATASIZE SUB DUP2 ADD SWAP1 PUSH2 0x50 SWAP2 SWAP1 PUSH2 0x397 JUMP JUMPDEST PUSH2 0x77 JUMP JUMPDEST STOP JUMPDEST PUSH2 0x5F PUSH2 0xBF JUMP JUMPDEST PUSH1 0x40 MLOAD PUSH2 0x6E SWAP4 SWAP3 SWAP2 SWAP1 PUSH2 0x4B0 JUMP JUMPDEST PUSH1 0x40 MLOAD DUP1 SWAP2 SUB SWAP1 RETURN JUMPDEST DUP3 PUSH1 0x0 DUP1 ADD SWAP1 DUP2 PUSH2 0x88 SWAP2 SWAP1 PUSH2 0x70B JUMP JUMPDEST POP DUP2 PUSH1 0x0 PUSH1 0x1 ADD PUSH1 0x0 PUSH2 0x100 EXP DUP2 SLOAD DUP2 PUSH1 0xFF MUL NOT AND SWAP1 DUP4 PUSH1 0xFF AND MUL OR SWAP1 SSTORE POP DUP1 PUSH1 0x0 PUSH1 0x2 ADD SWAP1 DUP2 PUSH2 0xB9 SWAP2 SWAP1 PUSH2 0x70B JUMP JUMPDEST POP POP POP POP JUMP JUMPDEST PUSH1 0x60 PUSH1 0x0 PUSH1 0x60 PUSH1 0x0 DUP1 ADD PUSH1 0x0 PUSH1 0x1 ADD PUSH1 0x0 SWAP1 SLOAD SWAP1 PUSH2 0x100 EXP SWAP1 DIV PUSH1 0xFF AND PUSH1 0x0 PUSH1 0x2 ADD DUP3 DUP1 SLOAD PUSH2 0xED SWAP1 PUSH2 0x524 JUMP JUMPDEST DUP1 PUSH1 0x1F ADD PUSH1 0x20 DUP1 SWAP2 DIV MUL PUSH1 0x20 ADD PUSH1 0x40 MLOAD SWAP1 DUP2 ADD PUSH1 0x40 MSTORE DUP1 SWAP3 SWAP2 SWAP1 DUP2 DUP2 MSTORE PUSH1 0x20 ADD DUP3 DUP1 SLOAD PUSH2 0x119 SWAP1 PUSH2 0x524 JUMP JUMPDEST DUP1 ISZERO PUSH2 0x166 JUMPI DUP1 PUSH1 0x1F LT PUSH2 0x13B JUMPI PUSH2 0x100 DUP1 DUP4 SLOAD DIV MUL DUP4 MSTORE SWAP2 PUSH1 0x20 ADD SWAP2 PUSH2 0x166 JUMP JUMPDEST DUP3 ADD SWAP2 SWAP1 PUSH1 0x0 MSTORE PUSH1 0x20 PUSH1 0x0 KECCAK256 SWAP1 JUMPDEST DUP2 SLOAD DUP2 MSTORE SWAP1 PUSH1 0x1 ADD SWAP1 PUSH1 0x20 ADD DUP1 DUP4 GT PUSH2 0x149 JUMPI DUP3 SWAP1 SUB PUSH1 0x1F AND DUP3 ADD SWAP2 JUMPDEST POP POP POP POP POP SWAP3 POP DUP1 DUP1 SLOAD PUSH2 0x179 SWAP1 PUSH2 0x524 JUMP JUMPDEST DUP1 PUSH1 0x1F ADD PUSH1 0x20 DUP1 SWAP2 DIV MUL PUSH1 0x20 ADD PUSH1 0x40 MLOAD SWAP1 DUP2 ADD PUSH1 0x40 MSTORE DUP1 SWAP3 SWAP2 SWAP1 DUP2 DUP2 MSTORE PUSH1 0x20 ADD DUP3 DUP1 SLOAD PUSH2 0x1A5 SWAP1 PUSH2 0x524 JUMP JUMPDEST DUP1 ISZERO PUSH2 0x1F2 JUMPI DUP1 PUSH1 0x1F LT PUSH2 0x1C7 JUMPI PUSH2 0x100 DUP1 DUP4 SLOAD DIV MUL DUP4 MSTORE SWAP2 PUSH1 0x20 ADD SWAP2 PUSH2 0x1F2 JUMP JUMPDEST DUP3 ADD SWAP2 SWAP1 PUSH1 0x0 MSTORE PUSH1 0x20 PUSH1 0x0 KECCAK256 SWAP1 JUMPDEST DUP2 SLOAD DUP2 MSTORE SWAP1 PUSH1 0x1 ADD SWAP1 PUSH1 0x20 ADD DUP1 DUP4 GT PUSH2 0x1D5 JUMPI DUP3 SWAP1 SUB PUSH1 0x1F AND DUP3 ADD SWAP2 JUMPDEST POP POP POP POP POP SWAP1 POP SWAP3 POP SWAP3 POP SWAP3 POP SWAP1 SWAP2 SWAP3 JUMP JUMPDEST PUSH1 0x0 PUSH1 0x40 MLOAD SWAP1 POP SWAP1 JUMP JUMPDEST PUSH1 0x0 DUP1 REVERT JUMPDEST PUSH1 0x0 DUP1 REVERT JUMPDEST PUSH1 0x0 DUP1 REVERT JUMPDEST PUSH1 0x0 DUP1 REVERT JUMPDEST PUSH1 0x0 PUSH1 0x1F NOT PUSH1 0x1F DUP4 ADD AND SWAP1 POP SWAP2 SWAP1 POP JUMP JUMPDEST PUSH32 0x4E487B7100000000000000000000000000000000000000000000000000000000 PUSH1 0x0 MSTORE PUSH1 0x41 PUSH1 0x4 MSTORE PUSH1 0x24 PUSH1 0x0 REVERT JUMPDEST PUSH2 0x26B DUP3 PUSH2 0x222 JUMP JUMPDEST DUP2 ADD DUP2 DUP2 LT PUSH8 0xFFFFFFFFFFFFFFFF DUP3 GT OR ISZERO PUSH2 0x28A JUMPI PUSH2 0x289 PUSH2 0x233 JUMP JUMPDEST JUMPDEST DUP1 PUSH1 0x40 MSTORE POP POP POP JUMP JUMPDEST PUSH1 0x0 PUSH2 0x29D PUSH2 0x204 JUMP JUMPDEST SWAP1 POP PUSH2 0x2A9 DUP3 DUP3 PUSH2 0x262 JUMP JUMPDEST SWAP2 SWAP1 POP JUMP JUMPDEST PUSH1 0x0 PUSH8 0xFFFFFFFFFFFFFFFF DUP3 GT ISZERO PUSH2 0x2C9 JUMPI PUSH2 0x2C8 PUSH2 0x233 JUMP JUMPDEST JUMPDEST PUSH2 0x2D2 DUP3 PUSH2 0x222 JUMP JUMPDEST SWAP1 POP PUSH1 0x20 DUP2 ADD SWAP1 POP SWAP2 SWAP1 POP JUMP JUMPDEST DUP3 DUP2 DUP4 CALLDATACOPY PUSH1 0x0 DUP4 DUP4 ADD MSTORE POP POP POP JUMP JUMPDEST PUSH1 0x0 PUSH2 0x301 PUSH2 0x2FC DUP5 PUSH2 0x2AE JUMP JUMPDEST PUSH2 0x293 JUMP JUMPDEST SWAP1 POP DUP3 DUP2 MSTORE PUSH1 0x20 DUP2 ADD DUP5 DUP5 DUP5 ADD GT ISZERO PUSH2 0x31D JUMPI PUSH2 0x31C PUSH2 0x21D JUMP JUMPDEST JUMPDEST PUSH2 0x328 DUP5 DUP3 DUP6 PUSH2 0x2DF JUMP JUMPDEST POP SWAP4 SWAP3 POP POP POP JUMP JUMPDEST PUSH1 0x0 DUP3 PUSH1 0x1F DUP4 ADD SLT PUSH2 0x345 JUMPI PUSH2 0x344 PUSH2 0x218 JUMP JUMPDEST JUMPDEST DUP2 CALLDATALOAD PUSH2 0x355 DUP5 DUP3 PUSH1 0x20 DUP7 ADD PUSH2 0x2EE JUMP JUMPDEST SWAP2 POP POP SWAP3 SWAP2 POP POP JUMP JUMPDEST PUSH1 0x0 PUSH1 0xFF DUP3 AND SWAP1 POP SWAP2 SWAP1 POP JUMP JUMPDEST PUSH2 0x374 DUP2 PUSH2 0x35E JUMP JUMPDEST DUP2 EQ PUSH2 0x37F JUMPI PUSH1 0x0 DUP1 REVERT JUMPDEST POP JUMP JUMPDEST PUSH1 0x0 DUP2 CALLDATALOAD SWAP1 POP PUSH2 0x391 DUP2 PUSH2 0x36B JUMP JUMPDEST SWAP3 SWAP2 POP POP JUMP JUMPDEST PUSH1 0x0 DUP1 PUSH1 0x0 PUSH1 0x60 DUP5 DUP7 SUB SLT ISZERO PUSH2 0x3B0 JUMPI PUSH2 0x3AF PUSH2 0x20E JUMP JUMPDEST JUMPDEST PUSH1 0x0 DUP5 ADD CALLDATALOAD PUSH8 0xFFFFFFFFFFFFFFFF DUP2 GT ISZERO PUSH2 0x3CE JUMPI PUSH2 0x3CD PUSH2 0x213 JUMP JUMPDEST JUMPDEST PUSH2 0x3DA DUP7 DUP3 DUP8 ADD PUSH2 0x330 JUMP JUMPDEST SWAP4 POP POP PUSH1 0x20 PUSH2 0x3EB DUP7 DUP3 DUP8 ADD PUSH2 0x382 JUMP JUMPDEST SWAP3 POP POP PUSH1 0x40 DUP5 ADD CALLDATALOAD PUSH8 0xFFFFFFFFFFFFFFFF DUP2 GT ISZERO PUSH2 0x40C JUMPI PUSH2 0x40B PUSH2 0x213 JUMP JUMPDEST JUMPDEST PUSH2 0x418 DUP7 DUP3 DUP8 ADD PUSH2 0x330 JUMP JUMPDEST SWAP2 POP POP SWAP3 POP SWAP3 POP SWAP3 JUMP JUMPDEST PUSH1 0x0 DUP2 MLOAD SWAP1 POP SWAP2 SWAP1 POP JUMP JUMPDEST PUSH1 0x0 DUP3 DUP3 MSTORE PUSH1 0x20 DUP3 ADD SWAP1 POP SWAP3 SWAP2 POP POP JUMP JUMPDEST PUSH1 0x0 JUMPDEST DUP4 DUP2 LT ISZERO PUSH2 0x45C JUMPI DUP1 DUP3 ADD MLOAD DUP2 DUP5 ADD MSTORE PUSH1 0x20 DUP2 ADD SWAP1 POP PUSH2 0x441 JUMP JUMPDEST PUSH1 0x0 DUP5 DUP5 ADD MSTORE POP POP POP POP JUMP JUMPDEST PUSH1 0x0 PUSH2 0x473 DUP3 PUSH2 0x422 JUMP JUMPDEST PUSH2 0x47D DUP2 DUP6 PUSH2 0x42D JUMP JUMPDEST SWAP4 POP PUSH2 0x48D DUP2 DUP6 PUSH1 0x20 DUP7 ADD PUSH2 0x43E JUMP JUMPDEST PUSH2 0x496 DUP2 PUSH2 0x222 JUMP JUMPDEST DUP5 ADD SWAP2 POP POP SWAP3 SWAP2 POP POP JUMP JUMPDEST PUSH2 0x4AA DUP2 PUSH2 0x35E JUMP JUMPDEST DUP3 MSTORE POP POP JUMP JUMPDEST PUSH1 0x0 PUSH1 0x60 DUP3 ADD SWAP1 POP DUP2 DUP2 SUB PUSH1 0x0 DUP4 ADD MSTORE PUSH2 0x4CA DUP2 DUP7 PUSH2 0x468 JUMP JUMPDEST SWAP1 POP PUSH2 0x4D9 PUSH1 0x20 DUP4 ADD DUP6 PUSH2 0x4A1 JUMP JUMPDEST DUP2 DUP2 SUB PUSH1 0x40 DUP4 ADD MSTORE PUSH2 0x4EB DUP2 DUP5 PUSH2 0x468 JUMP JUMPDEST SWAP1 POP SWAP5 SWAP4 POP POP POP POP JUMP JUMPDEST PUSH32 0x4E487B7100000000000000000000000000000000000000000000000000000000 PUSH1 0x0 MSTORE PUSH1 0x22 PUSH1 0x4 MSTORE PUSH1 0x24 PUSH1 0x0 REVERT JUMPDEST PUSH1 0x0 PUSH1 0x2 DUP3 DIV SWAP1 POP PUSH1 0x1 DUP3 AND DUP1 PUSH2 0x53C JUMPI PUSH1 0x7F DUP3 AND SWAP2 POP JUMPDEST PUSH1 0x20 DUP3 LT DUP2 SUB PUSH2 0x54F JUMPI PUSH2 0x54E PUSH2 0x4F5 JUMP JUMPDEST JUMPDEST POP SWAP2 SWAP1 POP JUMP JUMPDEST PUSH1 0x0 DUP2 SWAP1 POP DUP2 PUSH1 0x0 MSTORE PUSH1 0x20 PUSH1 0x0 KECCAK256 SWAP1 POP SWAP2 SWAP1 POP JUMP JUMPDEST PUSH1 0x0 PUSH1 0x20 PUSH1 0x1F DUP4 ADD DIV SWAP1 POP SWAP2 SWAP1 POP JUMP JUMPDEST PUSH1 0x0 DUP3 DUP3 SHL SWAP1 POP SWAP3 SWAP2 POP POP JUMP JUMPDEST PUSH1 0x0 PUSH1 0x8 DUP4 MUL PUSH2 0x5B7 PUSH32 0xFFFFFFFFFFFFFFFFFFFFFFFFFFFFFFFFFFFFFFFFFFFFFFFFFFFFFFFFFFFFFFFF DUP3 PUSH2 0x57A JUMP JUMPDEST PUSH2 0x5C1 DUP7 DUP4 PUSH2 0x57A JUMP JUMPDEST SWAP6 POP DUP1 NOT DUP5 AND SWAP4 POP DUP1 DUP7 AND DUP5 OR SWAP3 POP POP POP SWAP4 SWAP3 POP POP POP JUMP JUMPDEST PUSH1 0x0 DUP2 SWAP1 POP SWAP2 SWAP1 POP JUMP JUMPDEST PUSH1 0x0 DUP2 SWAP1 POP SWAP2 SWAP1 POP JUMP JUMPDEST PUSH1 0x0 PUSH2 0x608 PUSH2 0x603 PUSH2 0x5FE DUP5 PUSH2 0x5D9 JUMP JUMPDEST PUSH2 0x5E3 JUMP JUMPDEST PUSH2 0x5D9 JUMP JUMPDEST SWAP1 POP SWAP2 SWAP1 POP JUMP JUMPDEST PUSH1 0x0 DUP2 SWAP1 POP SWAP2 SWAP1 POP JUMP JUMPDEST PUSH2 0x622 DUP4 PUSH2 0x5ED JUMP JUMPDEST PUSH2 0x636 PUSH2 0x62E DUP3 PUSH2 0x60F JUMP JUMPDEST DUP5 DUP5 SLOAD PUSH2 0x587 JUMP JUMPDEST DUP3 SSTORE POP POP POP POP JUMP JUMPDEST PUSH1 0x0 SWAP1 JUMP JUMPDEST PUSH2 0x64B PUSH2 0x63E JUMP JUMPDEST PUSH2 0x656 DUP2 DUP5 DUP5 PUSH2 0x619 JUMP JUMPDEST POP POP POP JUMP JUMPDEST JUMPDEST DUP2 DUP2 LT ISZERO PUSH2 0x67A JUMPI PUSH2 0x66F PUSH1 0x0 DUP3 PUSH2 0x643 JUMP JUMPDEST PUSH1 0x1 DUP2 ADD SWAP1 POP PUSH2 0x65C JUMP JUMPDEST POP POP JUMP JUMPDEST PUSH1 0x1F DUP3 GT ISZERO PUSH2 0x6BF JUMPI PUSH2 0x690 DUP2 PUSH2 0x555 JUMP JUMPDEST PUSH2 0x699 DUP5 PUSH2 0x56A JUMP JUMPDEST DUP2 ADD PUSH1 0x20 DUP6 LT ISZERO PUSH2 0x6A8 JUMPI DUP2 SWAP1 POP JUMPDEST PUSH2 0x6BC PUSH2 0x6B4 DUP6 PUSH2 0x56A JUMP JUMPDEST DUP4 ADD DUP3 PUSH2 0x65B JUMP JUMPDEST POP POP JUMPDEST POP POP POP JUMP JUMPDEST PUSH1 0x0 DUP3 DUP3 SHR SWAP1 POP SWAP3 SWAP2 POP POP JUMP JUMPDEST PUSH1 0x0 PUSH2 0x6E2 PUSH1 0x0 NOT DUP5 PUSH1 0x8 MUL PUSH2 0x6C4 JUMP JUMPDEST NOT DUP1 DUP4 AND SWAP2 POP POP SWAP3 SWAP2 POP POP JUMP JUMPDEST PUSH1 0x0 PUSH2 0x6FB DUP4 DUP4 PUSH2 0x6D1 JUMP JUMPDEST SWAP2 POP DUP3 PUSH1 0x2 MUL DUP3 OR SWAP1 POP SWAP3 SWAP2 POP POP JUMP JUMPDEST PUSH2 0x714 DUP3 PUSH2 0x422 JUMP JUMPDEST PUSH8 0xFFFFFFFFFFFFFFFF DUP2 GT ISZERO PUSH2 0x72D JUMPI PUSH2 0x72C PUSH2 0x233 JUMP JUMPDEST JUMPDEST PUSH2 0x737 DUP3 SLOAD PUSH2 0x524 JUMP JUMPDEST PUSH2 0x742 DUP3 DUP3 DUP6 PUSH2 0x67E JUMP JUMPDEST PUSH1 0x0 PUSH1 0x20 SWAP1 POP PUSH1 0x1F DUP4 GT PUSH1 0x1 DUP2 EQ PUSH2 0x775 JUMPI PUSH1 0x0 DUP5 ISZERO PUSH2 0x763 JUMPI DUP3 DUP8 ADD MLOAD SWAP1 POP JUMPDEST PUSH2 0x76D DUP6 DUP3 PUSH2 0x6EF JUMP JUMPDEST DUP7 SSTORE POP PUSH2 0x7D5 JUMP JUMPDEST PUSH1 0x1F NOT DUP5 AND PUSH2 0x783 DUP7 PUSH2 0x555 JUMP JUMPDEST PUSH1 0x0 JUMPDEST DUP3 DUP2 LT ISZERO PUSH2 0x7AB JUMPI DUP5 DUP10 ADD MLOAD DUP3 SSTORE PUSH1 0x1 DUP3 ADD SWAP2 POP PUSH1 0x20 DUP6 ADD SWAP5 POP PUSH1 0x20 DUP2 ADD SWAP1 POP PUSH2 0x786 JUMP JUMPDEST DUP7 DUP4 LT ISZERO PUSH2 0x7C8 JUMPI DUP5 DUP10 ADD MLOAD PUSH2 0x7C4 PUSH1 0x1F DUP10 AND DUP3 PUSH2 0x6D1 JUMP JUMPDEST DUP4 SSTORE POP JUMPDEST PUSH1 0x1 PUSH1 0x2 DUP9 MUL ADD DUP9 SSTORE POP POP POP JUMPDEST POP POP POP POP POP POP JUMP INVALID LOG2 PUSH5 0x6970667358 0x22 SLT KECCAK256 0xAB SWAP12 BLOCKHASH PUSH3 0x579F61 0xF DIV PUSH28 0xD22CE613C9C67F014978E4B2DA43BA3312F12E32F5F964736F6C6343 STOP ADDMOD SLT STOP CALLER "
				},
				"gasEstimates": {
					"creation": {
						"codeDepositCost": "413400",
						"executionCost": "449",
						"totalCost": "413849"
					},
					"external": {
						"getUserInfo()": "infinite",
						"setUser(string,uint8,string)": "infinite"
					}
				},
				"methodIdentifiers": {
					"getUserInfo()": "5d8d1585",
					"setUser(string,uint8,string)": "2d1ca992"
				}
			},
			"storageLayout": {
				"storage": [
					{
						"astId": 11,
						"contract": "baisc/09-struct.sol:struct_demo",
						"label": "user",
						"offset": 0,
						"slot": "0",
						"type": "t_struct(User)8_storage"
					}
				],
				"types": {
					"t_string_storage": {
						"encoding": "bytes",
						"label": "string",
						"numberOfBytes": "32"
					},
					"t_struct(User)8_storage": {
						"encoding": "inplace",
						"label": "struct struct_demo.User",
						"members": [
							{
								"astId": 3,
								"contract": "baisc/09-struct.sol:struct_demo",
								"label": "name",
								"offset": 0,
								"slot": "0",
								"type": "t_string_storage"
							},
							{
								"astId": 5,
								"contract": "baisc/09-struct.sol:struct_demo",
								"label": "age",
								"offset": 0,
								"slot": "1",
								"type": "t_uint8"
							},
							{
								"astId": 7,
								"contract": "baisc/09-struct.sol:struct_demo",
								"label": "sex",
								"offset": 0,
								"slot": "2",
								"type": "t_string_storage"
							}
						],
						"numberOfBytes": "96"
					},
					"t_uint8": {
						"encoding": "inplace",
						"label": "uint8",
						"numberOfBytes": "1"
					}
				}
			},
			"userdoc": {
				"kind": "user",
				"methods": {},
				"version": 1
			}
		}
	}
}