{
	"baisc/10-storage-demo.sol": {
		"storage_demo": {
			"abi": [
				{
					"inputs": [],
					"name": "adminUser",
					"outputs": [
						{
							"internalType": "string",
							"name": "name",
							"type": "string"
						},
						{
							"internalType": "uint8",
							"name": "age",
							"type": "uint8"
						},
						{
							"internalType": "string",
							"name": "sex",
							"type": "string"
						}
					],
					"stateMutability": "view",
					"type": "function"
				},
				{
					"inputs": [],
					"name": "getUser",
					"outputs": [
						{
							"components": [
								{
									"internalType": "string",
									"name": "name",
									"type": "string"
								},
								{
									"internalType": "uint8",
									"name": "age",
									"type": "uint8"
								},
								{
									"internalType": "string",
									"name": "sex",
									"type": "string"
								}
							],
							"internalType": "struct storage_demo.User",
							"name": "",
							"type": "tuple"
						}
					],
					"stateMutability": "view",
					"type": "function"
				},
				{
					"inputs": [
						{
							"internalType": "uint8",
							"name": "_age",
							"type": "uint8"
						}
					],
					"name": "setAge1",
					"outputs": [],
					"stateMutability": "nonpayable",
					"type": "function"
				},
				{
					"inputs": [
						{
							"internalType": "uint8",
							"name": "_age",
							"type": "uint8"
						}
					],
					"name": "setAge2",
					"outputs": [],
					"stateMutability": "nonpayable",
					"type": "function"
				},
				{
					"inputs": [
						{
							"internalType": "uint8",
							"name": "_age",
							"type": "uint8"
						}
					],
					"name": "setAge4",
					"outputs": [],
					"stateMutability": "nonpayable",
					"type": "function"
				},
				{
					"inputs": [
						{
							"internalType": "string",
							"name": "_name",
							"type": "string"
						},
						{
							"internalType": "uint8",
							"name": "_age",
							"type": "uint8"
						},
						{
							"internalType": "string",
							"name": "_sex",
							"type": "string"
						}
					],
					"name": "setUser",
					"outputs": [],
					"stateMutability": "nonpayable",
					"type": "function"
				}
			],
			"devdoc": {
				"kind": "dev",
				"methods": {},
				"version": 1
			},
			"evm": {
				"assembly": "    /* \"baisc/10-storage-demo.sol\":275:1888  contract storage_demo {... */\n  mstore(0x40, 0x80)\n  callvalue\n  dup1\n  iszero\n  tag_1\n  jumpi\n  0x00\n  dup1\n  revert\ntag_1:\n  pop\n  dataSize(sub_0)\n  dup1\n  dataOffset(sub_0)\n  0x00\n  codecopy\n  0x00\n  return\nstop\n\nsub_0: assembly {\n        /* \"baisc/10-storage-demo.sol\":275:1888  contract storage_demo {... */\n      mstore(0x40, 0x80)\n      callvalue\n      dup1\n      iszero\n      tag_1\n      jumpi\n      0x00\n      dup1\n      revert\n    tag_1:\n      pop\n      jumpi(tag_2, lt(calldatasize, 0x04))\n      shr(0xe0, calldataload(0x00))\n      dup1\n      0x16a23956\n      eq\n      tag_3\n      jumpi\n      dup1\n      0x2d1ca992\n      eq\n      tag_4\n      jumpi\n      dup1\n      0x6835d01e\n      eq\n      tag_5\n      jumpi\n      dup1\n      0x832880e7\n      eq\n      tag_6\n      jumpi\n      dup1\n      0x8f779ceb\n      eq\n      tag_7\n      jumpi\n      dup1\n      0xd75eb684\n      eq\n      tag_8\n      jumpi\n    tag_2:\n      0x00\n      dup1\n      revert\n        /* \"baisc/10-storage-demo.sol\":1174:1488  function setAge2(uint8 _age) public {... */\n    tag_3:\n      tag_9\n      0x04\n      dup1\n      calldatasize\n      sub\n      dup2\n      add\n      swap1\n      tag_10\n      swap2\n      swap1\n      tag_11\n      jump\t// in\n    tag_10:\n      tag_12\n      jump\t// in\n    tag_9:\n      stop\n        /* \"baisc/10-storage-demo.sol\":566:745  function setUser(string memory _name,uint8 _age, string memory _sex) public {... */\n    tag_4:\n      tag_13\n      0x04\n      dup1\n      calldatasize\n      sub\n      dup2\n      add\n      swap1\n      tag_14\n      swap2\n      swap1\n      tag_15\n      jump\t// in\n    tag_14:\n      tag_16\n      jump\t// in\n    tag_13:\n      stop\n        /* \"baisc/10-storage-demo.sol\":896:1146  function setAge1(uint8 _age) public {... */\n    tag_5:\n      tag_17\n      0x04\n      dup1\n      calldatasize\n      sub\n      dup2\n      add\n      swap1\n      tag_18\n      swap2\n      swap1\n      tag_11\n      jump\t// in\n    tag_18:\n      tag_19\n      jump\t// in\n    tag_17:\n      stop\n        /* \"baisc/10-storage-demo.sol\":781:868  function getUser() public view returns (User memory){... */\n    tag_6:\n      tag_20\n      tag_21\n      jump\t// in\n    tag_20:\n      mload(0x40)\n      tag_22\n      swap2\n      swap1\n      tag_23\n      jump\t// in\n    tag_22:\n      mload(0x40)\n      dup1\n      swap2\n      sub\n      swap1\n      return\n        /* \"baisc/10-storage-demo.sol\":1800:1879  function setAge4(uint8 _age) public {... */\n    tag_7:\n      tag_24\n      0x04\n      dup1\n      calldatasize\n      sub\n      dup2\n      add\n      swap1\n      tag_25\n      swap2\n      swap1\n      tag_11\n      jump\t// in\n    tag_25:\n      tag_26\n      jump\t// in\n    tag_24:\n      stop\n        /* \"baisc/10-storage-demo.sol\":504:525  User public adminUser */\n    tag_8:\n      tag_27\n      tag_28\n      jump\t// in\n    tag_27:\n      mload(0x40)\n      tag_29\n      swap4\n      swap3\n      swap2\n      swap1\n      tag_30\n      jump\t// in\n    tag_29:\n      mload(0x40)\n      dup1\n      swap2\n      sub\n      swap1\n      return\n        /* \"baisc/10-storage-demo.sol\":1174:1488  function setAge2(uint8 _age) public {... */\n    tag_12:\n        /* \"baisc/10-storage-demo.sol\":1425:1442  User storage user */\n      0x00\n        /* \"baisc/10-storage-demo.sol\":1476:1480  _age */\n      dup2\n        /* \"baisc/10-storage-demo.sol\":1465:1469  user */\n      dup2\n        /* \"baisc/10-storage-demo.sol\":1465:1473  user.age */\n      0x01\n      add\n      0x00\n        /* \"baisc/10-storage-demo.sol\":1465:1480  user.age = _age */\n      0x0100\n      exp\n      dup2\n      sload\n      dup2\n      0xff\n      mul\n      not\n      and\n      swap1\n      dup4\n      0xff\n      and\n      mul\n      or\n      swap1\n      sstore\n      pop\n        /* \"baisc/10-storage-demo.sol\":1210:1488  {... */\n      pop\n        /* \"baisc/10-storage-demo.sol\":1174:1488  function setAge2(uint8 _age) public {... */\n      pop\n      jump\t// out\n        /* \"baisc/10-storage-demo.sol\":566:745  function setUser(string memory _name,uint8 _age, string memory _sex) public {... */\n    tag_16:\n        /* \"baisc/10-storage-demo.sol\":670:675  _name */\n      dup3\n        /* \"baisc/10-storage-demo.sol\":653:662  adminUser */\n      0x00\n        /* \"baisc/10-storage-demo.sol\":653:667  adminUser.name */\n      dup1\n      add\n        /* \"baisc/10-storage-demo.sol\":653:675  adminUser.name = _name */\n      swap1\n      dup2\n      tag_33\n      swap2\n      swap1\n      tag_34\n      jump\t// in\n    tag_33:\n      pop\n        /* \"baisc/10-storage-demo.sol\":702:706  _age */\n      dup2\n        /* \"baisc/10-storage-demo.sol\":686:695  adminUser */\n      0x00\n        /* \"baisc/10-storage-demo.sol\":686:699  adminUser.age */\n      0x01\n      add\n      0x00\n        /* \"baisc/10-storage-demo.sol\":686:706  adminUser.age = _age */\n      0x0100\n      exp\n      dup2\n      sload\n      dup2\n      0xff\n      mul\n      not\n      and\n      swap1\n      dup4\n      0xff\n      and\n      mul\n      or\n      swap1\n      sstore\n      pop\n        /* \"baisc/10-storage-demo.sol\":733:737  _sex */\n      dup1\n        /* \"baisc/10-storage-demo.sol\":717:726  adminUser */\n      0x00\n        /* \"baisc/10-storage-demo.sol\":717:730  adminUser.sex */\n      0x02\n      add\n        /* \"baisc/10-storage-demo.sol\":717:737  adminUser.sex = _sex */\n      swap1\n      dup2\n      tag_35\n      swap2\n      swap1\n      tag_34\n      jump\t// in\n    tag_35:\n      pop\n        /* \"baisc/10-storage-demo.sol\":566:745  function setUser(string memory _name,uint8 _age, string memory _sex) public {... */\n      pop\n      pop\n      pop\n      jump\t// out\n        /* \"baisc/10-storage-demo.sol\":896:1146  function setAge1(uint8 _age) public {... */\n    tag_19:\n        /* \"baisc/10-storage-demo.sol\":1084:1100  User memory user */\n      0x00\n        /* \"baisc/10-storage-demo.sol\":1103:1112  adminUser */\n      dup1\n        /* \"baisc/10-storage-demo.sol\":1084:1112  User memory user = adminUser */\n      mload(0x40)\n      dup1\n      0x60\n      add\n      0x40\n      mstore\n      swap1\n      dup2\n      0x00\n      dup3\n      add\n      dup1\n      sload\n      tag_37\n      swap1\n      tag_38\n      jump\t// in\n    tag_37:\n      dup1\n      0x1f\n      add\n      0x20\n      dup1\n      swap2\n      div\n      mul\n      0x20\n      add\n      mload(0x40)\n      swap1\n      dup2\n      add\n      0x40\n      mstore\n      dup1\n      swap3\n      swap2\n      swap1\n      dup2\n      dup2\n      mstore\n      0x20\n      add\n      dup3\n      dup1\n      sload\n      tag_39\n      swap1\n      tag_38\n      jump\t// in\n    tag_39:\n      dup1\n      iszero\n      tag_40\n      jumpi\n      dup1\n      0x1f\n      lt\n      tag_41\n      jumpi\n      0x0100\n      dup1\n      dup4\n      sload\n      div\n      mul\n      dup4\n      mstore\n      swap2\n      0x20\n      add\n      swap2\n      jump(tag_40)\n    tag_41:\n      dup3\n      add\n      swap2\n      swap1\n      0x00\n      mstore\n      keccak256(0x00, 0x20)\n      swap1\n    tag_42:\n      dup2\n      sload\n      dup2\n      mstore\n      swap1\n      0x01\n      add\n      swap1\n      0x20\n      add\n      dup1\n      dup4\n      gt\n      tag_42\n      jumpi\n      dup3\n      swap1\n      sub\n      0x1f\n      and\n      dup3\n      add\n      swap2\n    tag_40:\n      pop\n      pop\n      pop\n      pop\n      pop\n      dup2\n      mstore\n      0x20\n      add\n      0x01\n      dup3\n      add\n      0x00\n      swap1\n      sload\n      swap1\n      0x0100\n      exp\n      swap1\n      div\n      0xff\n      and\n      0xff\n      and\n      0xff\n      and\n      dup2\n      mstore\n      0x20\n      add\n      0x02\n      dup3\n      add\n      dup1\n      sload\n      tag_43\n      swap1\n      tag_38\n      jump\t// in\n    tag_43:\n      dup1\n      0x1f\n      add\n      0x20\n      dup1\n      swap2\n      div\n      mul\n      0x20\n      add\n      mload(0x40)\n      swap1\n      dup2\n      add\n      0x40\n      mstore\n      dup1\n      swap3\n      swap2\n      swap1\n      dup2\n      dup2\n      mstore\n      0x20\n      add\n      dup3\n      dup1\n      sload\n      tag_44\n      swap1\n      tag_38\n      jump\t// in\n    tag_44:\n      dup1\n      iszero\n      tag_45\n      jumpi\n      dup1\n      0x1f\n      lt\n      tag_46\n      jumpi\n      0x0100\n      dup1\n      dup4\n      sload\n      div\n      mul\n      dup4\n      mstore\n      swap2\n      0x20\n      add\n      swap2\n      jump(tag_45)\n    tag_46:\n      dup3\n      add\n      swap2\n      swap1\n      0x00\n      mstore\n      keccak256(0x00, 0x20)\n      swap1\n    tag_47:\n      dup2\n      sload\n      dup2\n      mstore\n      swap1\n      0x01\n      add\n      swap1\n      0x20\n      add\n      dup1\n      dup4\n      gt\n      tag_47\n      jumpi\n      dup3\n      swap1\n      sub\n      0x1f\n      and\n      dup3\n      add\n      swap2\n    tag_45:\n      pop\n      pop\n      pop\n      pop\n      pop\n      dup2\n      mstore\n      pop\n      pop\n      swap1\n      pop\n        /* \"baisc/10-storage-demo.sol\":1134:1138  _age */\n      dup2\n        /* \"baisc/10-storage-demo.sol\":1123:1127  user */\n      dup2\n        /* \"baisc/10-storage-demo.sol\":1123:1131  user.age */\n      0x20\n      add\n        /* \"baisc/10-storage-demo.sol\":1123:1138  user.age = _age */\n      swap1\n      0xff\n      and\n      swap1\n      dup2\n      0xff\n      and\n      dup2\n      mstore\n      pop\n      pop\n        /* \"baisc/10-storage-demo.sol\":932:1146  {... */\n      pop\n        /* \"baisc/10-storage-demo.sol\":896:1146  function setAge1(uint8 _age) public {... */\n      pop\n      jump\t// out\n        /* \"baisc/10-storage-demo.sol\":781:868  function getUser() public view returns (User memory){... */\n    tag_21:\n        /* \"baisc/10-storage-demo.sol\":821:832  User memory */\n      tag_48\n      tag_49\n      jump\t// in\n    tag_48:\n        /* \"baisc/10-storage-demo.sol\":851:860  adminUser */\n      0x00\n        /* \"baisc/10-storage-demo.sol\":844:860  return adminUser */\n      mload(0x40)\n      dup1\n      0x60\n      add\n      0x40\n      mstore\n      swap1\n      dup2\n      0x00\n      dup3\n      add\n      dup1\n      sload\n      tag_51\n      swap1\n      tag_38\n      jump\t// in\n    tag_51:\n      dup1\n      0x1f\n      add\n      0x20\n      dup1\n      swap2\n      div\n      mul\n      0x20\n      add\n      mload(0x40)\n      swap1\n      dup2\n      add\n      0x40\n      mstore\n      dup1\n      swap3\n      swap2\n      swap1\n      dup2\n      dup2\n      mstore\n      0x20\n      add\n      dup3\n      dup1\n      sload\n      tag_52\n      swap1\n      tag_38\n      jump\t// in\n    tag_52:\n      dup1\n      iszero\n      tag_53\n      jumpi\n      dup1\n      0x1f\n      lt\n      tag_54\n      jumpi\n      0x0100\n      dup1\n      dup4\n      sload\n      div\n      mul\n      dup4\n      mstore\n      swap2\n      0x20\n      add\n      swap2\n      jump(tag_53)\n    tag_54:\n      dup3\n      add\n      swap2\n      swap1\n      0x00\n      mstore\n      keccak256(0x00, 0x20)\n      swap1\n    tag_55:\n      dup2\n      sload\n      dup2\n      mstore\n      swap1\n      0x01\n      add\n      swap1\n      0x20\n      add\n      dup1\n      dup4\n      gt\n      tag_55\n      jumpi\n      dup3\n      swap1\n      sub\n      0x1f\n      and\n      dup3\n      add\n      swap2\n    tag_53:\n      pop\n      pop\n      pop\n      pop\n      pop\n      dup2\n      mstore\n      0x20\n      add\n      0x01\n      dup3\n      add\n      0x00\n      swap1\n      sload\n      swap1\n      0x0100\n      exp\n      swap1\n      div\n      0xff\n      and\n      0xff\n      and\n      0xff\n      and\n      dup2\n      mstore\n      0x20\n      add\n      0x02\n      dup3\n      add\n      dup1\n      sload\n      tag_56\n      swap1\n      tag_38\n      jump\t// in\n    tag_56:\n      dup1\n      0x1f\n      add\n      0x20\n      dup1\n      swap2\n      div\n      mul\n      0x20\n      add\n      mload(0x40)\n      swap1\n      dup2\n      add\n      0x40\n      mstore\n      dup1\n      swap3\n      swap2\n      swap1\n      dup2\n      dup2\n      mstore\n      0x20\n      add\n      dup3\n      dup1\n      sload\n      tag_57\n      swap1\n      tag_38\n      jump\t// in\n    tag_57:\n      dup1\n      iszero\n      tag_58\n      jumpi\n      dup1\n      0x1f\n      lt\n      tag_59\n      jumpi\n      0x0100\n      dup1\n      dup4\n      sload\n      div\n      mul\n      dup4\n      mstore\n      swap2\n      0x20\n      add\n      swap2\n      jump(tag_58)\n    tag_59:\n      dup3\n      add\n      swap2\n      swap1\n      0x00\n      mstore\n      keccak256(0x00, 0x20)\n      swap1\n    tag_60:\n      dup2\n      sload\n      dup2\n      mstore\n      swap1\n      0x01\n      add\n      swap1\n      0x20\n      add\n      dup1\n      dup4\n      gt\n      tag_60\n      jumpi\n      dup3\n      swap1\n      sub\n      0x1f\n      and\n      dup3\n      add\n      swap2\n    tag_58:\n      pop\n      pop\n      pop\n      pop\n      pop\n      dup2\n      mstore\n      pop\n      pop\n      swap1\n      pop\n        /* \"baisc/10-storage-demo.sol\":781:868  function getUser() public view returns (User memory){... */\n      swap1\n      jump\t// out\n        /* \"baisc/10-storage-demo.sol\":1800:1879  function setAge4(uint8 _age) public {... */\n    tag_26:\n        /* \"baisc/10-storage-demo.sol\":1847:1871  setAge3(adminUser, _age) */\n      tag_62\n        /* \"baisc/10-storage-demo.sol\":1855:1864  adminUser */\n      0x00\n        /* \"baisc/10-storage-demo.sol\":1866:1870  _age */\n      dup3\n        /* \"baisc/10-storage-demo.sol\":1847:1854  setAge3 */\n      tag_63\n        /* \"baisc/10-storage-demo.sol\":1847:1871  setAge3(adminUser, _age) */\n      jump\t// in\n    tag_62:\n        /* \"baisc/10-storage-demo.sol\":1800:1879  function setAge4(uint8 _age) public {... */\n      pop\n      jump\t// out\n        /* \"baisc/10-storage-demo.sol\":504:525  User public adminUser */\n    tag_28:\n      0x00\n      dup1\n      0x00\n      add\n      dup1\n      sload\n      tag_64\n      swap1\n      tag_38\n      jump\t// in\n    tag_64:\n      dup1\n      0x1f\n      add\n      0x20\n      dup1\n      swap2\n      div\n      mul\n      0x20\n      add\n      mload(0x40)\n      swap1\n      dup2\n      add\n      0x40\n      mstore\n      dup1\n      swap3\n      swap2\n      swap1\n      dup2\n      dup2\n      mstore\n      0x20\n      add\n      dup3\n      dup1\n      sload\n      tag_65\n      swap1\n      tag_38\n      jump\t// in\n    tag_65:\n      dup1\n      iszero\n      tag_66\n      jumpi\n      dup1\n      0x1f\n      lt\n      tag_67\n      jumpi\n      0x0100\n      dup1\n      dup4\n      sload\n      div\n      mul\n      dup4\n      mstore\n      swap2\n      0x20\n      add\n      swap2\n      jump(tag_66)\n    tag_67:\n      dup3\n      add\n      swap2\n      swap1\n      0x00\n      mstore\n      keccak256(0x00, 0x20)\n      swap1\n    tag_68:\n      dup2\n      sload\n      dup2\n      mstore\n      swap1\n      0x01\n      add\n      swap1\n      0x20\n      add\n      dup1\n      dup4\n      gt\n      tag_68\n      jumpi\n      dup3\n      swap1\n      sub\n      0x1f\n      and\n      dup3\n      add\n      swap2\n    tag_66:\n      pop\n      pop\n      pop\n      pop\n      pop\n      swap1\n      dup1\n      0x01\n      add\n      0x00\n      swap1\n      sload\n      swap1\n      0x0100\n      exp\n      swap1\n      div\n      0xff\n      and\n      swap1\n      dup1\n      0x02\n      add\n      dup1\n      sload\n      tag_69\n      swap1\n      tag_38\n      jump\t// in\n    tag_69:\n      dup1\n      0x1f\n      add\n      0x20\n      dup1\n      swap2\n      div\n      mul\n      0x20\n      add\n      mload(0x40)\n      swap1\n      dup2\n      add\n      0x40\n      mstore\n      dup1\n      swap3\n      swap2\n      swap1\n      dup2\n      dup2\n      mstore\n      0x20\n      add\n      dup3\n      dup1\n      sload\n      tag_70\n      swap1\n      tag_38\n      jump\t// in\n    tag_70:\n      dup1\n      iszero\n      tag_71\n      jumpi\n      dup1\n      0x1f\n      lt\n      tag_72\n      jumpi\n      0x0100\n      dup1\n      dup4\n      sload\n      div\n      mul\n      dup4\n      mstore\n      swap2\n      0x20\n      add\n      swap2\n      jump(tag_71)\n    tag_72:\n      dup3\n      add\n      swap2\n      swap1\n      0x00\n      mstore\n      keccak256(0x00, 0x20)\n      swap1\n    tag_73:\n      dup2\n      sload\n      dup2\n      mstore\n      swap1\n      0x01\n      add\n      swap1\n      0x20\n      add\n      dup1\n      dup4\n      gt\n      tag_73\n      jumpi\n      dup3\n      swap1\n      sub\n      0x1f\n      and\n      dup3\n      add\n      swap2\n    tag_71:\n      pop\n      pop\n      pop\n      pop\n      pop\n      swap1\n      pop\n      dup4\n      jump\t// out\n        /* \"baisc/10-storage-demo.sol\":1663:1755  function setAge3(User storage _user, uint8 _age) internal {... */\n    tag_63:\n        /* \"baisc/10-storage-demo.sol\":1743:1747  _age */\n      dup1\n        /* \"baisc/10-storage-demo.sol\":1731:1736  _user */\n      dup3\n        /* \"baisc/10-storage-demo.sol\":1731:1740  _user.age */\n      0x01\n      add\n      0x00\n        /* \"baisc/10-storage-demo.sol\":1731:1747  _user.age = _age */\n      0x0100\n      exp\n      dup2\n      sload\n      dup2\n      0xff\n      mul\n      not\n      and\n      swap1\n      dup4\n      0xff\n      and\n      mul\n      or\n      swap1\n      sstore\n      pop\n        /* \"baisc/10-storage-demo.sol\":1663:1755  function setAge3(User storage _user, uint8 _age) internal {... */\n      pop\n      pop\n      jump\t// out\n    tag_49:\n      mload(0x40)\n      dup1\n      0x60\n      add\n      0x40\n      mstore\n      dup1\n      0x60\n      dup2\n      mstore\n      0x20\n      add\n      and(0xff, 0x00)\n      dup2\n      mstore\n      0x20\n      add\n      0x60\n      dup2\n      mstore\n      pop\n      swap1\n      jump\t// out\n        /* \"#utility.yul\":7:82   */\n    tag_75:\n        /* \"#utility.yul\":40:46   */\n      0x00\n        /* \"#utility.yul\":73:75   */\n      0x40\n        /* \"#utility.yul\":67:76   */\n      mload\n        /* \"#utility.yul\":57:76   */\n      swap1\n      pop\n        /* \"#utility.yul\":7:82   */\n      swap1\n      jump\t// out\n        /* \"#utility.yul\":88:205   */\n    tag_76:\n        /* \"#utility.yul\":197:198   */\n      0x00\n        /* \"#utility.yul\":194:195   */\n      dup1\n        /* \"#utility.yul\":187:199   */\n      revert\n        /* \"#utility.yul\":211:328   */\n    tag_77:\n        /* \"#utility.yul\":320:321   */\n      0x00\n        /* \"#utility.yul\":317:318   */\n      dup1\n        /* \"#utility.yul\":310:322   */\n      revert\n        /* \"#utility.yul\":334:420   */\n    tag_78:\n        /* \"#utility.yul\":369:376   */\n      0x00\n        /* \"#utility.yul\":409:413   */\n      0xff\n        /* \"#utility.yul\":402:407   */\n      dup3\n        /* \"#utility.yul\":398:414   */\n      and\n        /* \"#utility.yul\":387:414   */\n      swap1\n      pop\n        /* \"#utility.yul\":334:420   */\n      swap2\n      swap1\n      pop\n      jump\t// out\n        /* \"#utility.yul\":426:544   */\n    tag_79:\n        /* \"#utility.yul\":497:519   */\n      tag_123\n        /* \"#utility.yul\":513:518   */\n      dup2\n        /* \"#utility.yul\":497:519   */\n      tag_78\n      jump\t// in\n    tag_123:\n        /* \"#utility.yul\":490:495   */\n      dup2\n        /* \"#utility.yul\":487:520   */\n      eq\n        /* \"#utility.yul\":477:538   */\n      tag_124\n      jumpi\n        /* \"#utility.yul\":534:535   */\n      0x00\n        /* \"#utility.yul\":531:532   */\n      dup1\n        /* \"#utility.yul\":524:536   */\n      revert\n        /* \"#utility.yul\":477:538   */\n    tag_124:\n        /* \"#utility.yul\":426:544   */\n      pop\n      jump\t// out\n        /* \"#utility.yul\":550:685   */\n    tag_80:\n        /* \"#utility.yul\":594:599   */\n      0x00\n        /* \"#utility.yul\":632:638   */\n      dup2\n        /* \"#utility.yul\":619:639   */\n      calldataload\n        /* \"#utility.yul\":610:639   */\n      swap1\n      pop\n        /* \"#utility.yul\":648:679   */\n      tag_126\n        /* \"#utility.yul\":673:678   */\n      dup2\n        /* \"#utility.yul\":648:679   */\n      tag_79\n      jump\t// in\n    tag_126:\n        /* \"#utility.yul\":550:685   */\n      swap3\n      swap2\n      pop\n      pop\n      jump\t// out\n        /* \"#utility.yul\":691:1016   */\n    tag_11:\n        /* \"#utility.yul\":748:754   */\n      0x00\n        /* \"#utility.yul\":797:799   */\n      0x20\n        /* \"#utility.yul\":785:794   */\n      dup3\n        /* \"#utility.yul\":776:783   */\n      dup5\n        /* \"#utility.yul\":772:795   */\n      sub\n        /* \"#utility.yul\":768:800   */\n      slt\n        /* \"#utility.yul\":765:884   */\n      iszero\n      tag_128\n      jumpi\n        /* \"#utility.yul\":803:882   */\n      tag_129\n      tag_76\n      jump\t// in\n    tag_129:\n        /* \"#utility.yul\":765:884   */\n    tag_128:\n        /* \"#utility.yul\":923:924   */\n      0x00\n        /* \"#utility.yul\":948:999   */\n      tag_130\n        /* \"#utility.yul\":991:998   */\n      dup5\n        /* \"#utility.yul\":982:988   */\n      dup3\n        /* \"#utility.yul\":971:980   */\n      dup6\n        /* \"#utility.yul\":967:989   */\n      add\n        /* \"#utility.yul\":948:999   */\n      tag_80\n      jump\t// in\n    tag_130:\n        /* \"#utility.yul\":938:999   */\n      swap2\n      pop\n        /* \"#utility.yul\":894:1009   */\n      pop\n        /* \"#utility.yul\":691:1016   */\n      swap3\n      swap2\n      pop\n      pop\n      jump\t// out\n        /* \"#utility.yul\":1022:1139   */\n    tag_81:\n        /* \"#utility.yul\":1131:1132   */\n      0x00\n        /* \"#utility.yul\":1128:1129   */\n      dup1\n        /* \"#utility.yul\":1121:1133   */\n      revert\n        /* \"#utility.yul\":1145:1262   */\n    tag_82:\n        /* \"#utility.yul\":1254:1255   */\n      0x00\n        /* \"#utility.yul\":1251:1252   */\n      dup1\n        /* \"#utility.yul\":1244:1256   */\n      revert\n        /* \"#utility.yul\":1268:1370   */\n    tag_83:\n        /* \"#utility.yul\":1309:1315   */\n      0x00\n        /* \"#utility.yul\":1360:1362   */\n      0x1f\n        /* \"#utility.yul\":1356:1363   */\n      not\n        /* \"#utility.yul\":1351:1353   */\n      0x1f\n        /* \"#utility.yul\":1344:1349   */\n      dup4\n        /* \"#utility.yul\":1340:1354   */\n      add\n        /* \"#utility.yul\":1336:1364   */\n      and\n        /* \"#utility.yul\":1326:1364   */\n      swap1\n      pop\n        /* \"#utility.yul\":1268:1370   */\n      swap2\n      swap1\n      pop\n      jump\t// out\n        /* \"#utility.yul\":1376:1556   */\n    tag_84:\n        /* \"#utility.yul\":1424:1501   */\n      0x4e487b7100000000000000000000000000000000000000000000000000000000\n        /* \"#utility.yul\":1421:1422   */\n      0x00\n        /* \"#utility.yul\":1414:1502   */\n      mstore\n        /* \"#utility.yul\":1521:1525   */\n      0x41\n        /* \"#utility.yul\":1518:1519   */\n      0x04\n        /* \"#utility.yul\":1511:1526   */\n      mstore\n        /* \"#utility.yul\":1545:1549   */\n      0x24\n        /* \"#utility.yul\":1542:1543   */\n      0x00\n        /* \"#utility.yul\":1535:1550   */\n      revert\n        /* \"#utility.yul\":1562:1843   */\n    tag_85:\n        /* \"#utility.yul\":1645:1672   */\n      tag_136\n        /* \"#utility.yul\":1667:1671   */\n      dup3\n        /* \"#utility.yul\":1645:1672   */\n      tag_83\n      jump\t// in\n    tag_136:\n        /* \"#utility.yul\":1637:1643   */\n      dup2\n        /* \"#utility.yul\":1633:1673   */\n      add\n        /* \"#utility.yul\":1775:1781   */\n      dup2\n        /* \"#utility.yul\":1763:1773   */\n      dup2\n        /* \"#utility.yul\":1760:1782   */\n      lt\n        /* \"#utility.yul\":1739:1757   */\n      0xffffffffffffffff\n        /* \"#utility.yul\":1727:1737   */\n      dup3\n        /* \"#utility.yul\":1724:1758   */\n      gt\n        /* \"#utility.yul\":1721:1783   */\n      or\n        /* \"#utility.yul\":1718:1806   */\n      iszero\n      tag_137\n      jumpi\n        /* \"#utility.yul\":1786:1804   */\n      tag_138\n      tag_84\n      jump\t// in\n    tag_138:\n        /* \"#utility.yul\":1718:1806   */\n    tag_137:\n        /* \"#utility.yul\":1826:1836   */\n      dup1\n        /* \"#utility.yul\":1822:1824   */\n      0x40\n        /* \"#utility.yul\":1815:1837   */\n      mstore\n        /* \"#utility.yul\":1605:1843   */\n      pop\n        /* \"#utility.yul\":1562:1843   */\n      pop\n      pop\n      jump\t// out\n        /* \"#utility.yul\":1849:1978   */\n    tag_86:\n        /* \"#utility.yul\":1883:1889   */\n      0x00\n        /* \"#utility.yul\":1910:1930   */\n      tag_140\n      tag_75\n      jump\t// in\n    tag_140:\n        /* \"#utility.yul\":1900:1930   */\n      swap1\n      pop\n        /* \"#utility.yul\":1939:1972   */\n      tag_141\n        /* \"#utility.yul\":1967:1971   */\n      dup3\n        /* \"#utility.yul\":1959:1965   */\n      dup3\n        /* \"#utility.yul\":1939:1972   */\n      tag_85\n      jump\t// in\n    tag_141:\n        /* \"#utility.yul\":1849:1978   */\n      swap2\n      swap1\n      pop\n      jump\t// out\n        /* \"#utility.yul\":1984:2292   */\n    tag_87:\n        /* \"#utility.yul\":2046:2050   */\n      0x00\n        /* \"#utility.yul\":2136:2154   */\n      0xffffffffffffffff\n        /* \"#utility.yul\":2128:2134   */\n      dup3\n        /* \"#utility.yul\":2125:2155   */\n      gt\n        /* \"#utility.yul\":2122:2178   */\n      iszero\n      tag_143\n      jumpi\n        /* \"#utility.yul\":2158:2176   */\n      tag_144\n      tag_84\n      jump\t// in\n    tag_144:\n        /* \"#utility.yul\":2122:2178   */\n    tag_143:\n        /* \"#utility.yul\":2196:2225   */\n      tag_145\n        /* \"#utility.yul\":2218:2224   */\n      dup3\n        /* \"#utility.yul\":2196:2225   */\n      tag_83\n      jump\t// in\n    tag_145:\n        /* \"#utility.yul\":2188:2225   */\n      swap1\n      pop\n        /* \"#utility.yul\":2280:2284   */\n      0x20\n        /* \"#utility.yul\":2274:2278   */\n      dup2\n        /* \"#utility.yul\":2270:2285   */\n      add\n        /* \"#utility.yul\":2262:2285   */\n      swap1\n      pop\n        /* \"#utility.yul\":1984:2292   */\n      swap2\n      swap1\n      pop\n      jump\t// out\n        /* \"#utility.yul\":2298:2444   */\n    tag_88:\n        /* \"#utility.yul\":2395:2401   */\n      dup3\n        /* \"#utility.yul\":2390:2393   */\n      dup2\n        /* \"#utility.yul\":2385:2388   */\n      dup4\n        /* \"#utility.yul\":2372:2402   */\n      calldatacopy\n        /* \"#utility.yul\":2436:2437   */\n      0x00\n        /* \"#utility.yul\":2427:2433   */\n      dup4\n        /* \"#utility.yul\":2422:2425   */\n      dup4\n        /* \"#utility.yul\":2418:2434   */\n      add\n        /* \"#utility.yul\":2411:2438   */\n      mstore\n        /* \"#utility.yul\":2298:2444   */\n      pop\n      pop\n      pop\n      jump\t// out\n        /* \"#utility.yul\":2450:2875   */\n    tag_89:\n        /* \"#utility.yul\":2528:2533   */\n      0x00\n        /* \"#utility.yul\":2553:2619   */\n      tag_148\n        /* \"#utility.yul\":2569:2618   */\n      tag_149\n        /* \"#utility.yul\":2611:2617   */\n      dup5\n        /* \"#utility.yul\":2569:2618   */\n      tag_87\n      jump\t// in\n    tag_149:\n        /* \"#utility.yul\":2553:2619   */\n      tag_86\n      jump\t// in\n    tag_148:\n        /* \"#utility.yul\":2544:2619   */\n      swap1\n      pop\n        /* \"#utility.yul\":2642:2648   */\n      dup3\n        /* \"#utility.yul\":2635:2640   */\n      dup2\n        /* \"#utility.yul\":2628:2649   */\n      mstore\n        /* \"#utility.yul\":2680:2684   */\n      0x20\n        /* \"#utility.yul\":2673:2678   */\n      dup2\n        /* \"#utility.yul\":2669:2685   */\n      add\n        /* \"#utility.yul\":2718:2721   */\n      dup5\n        /* \"#utility.yul\":2709:2715   */\n      dup5\n        /* \"#utility.yul\":2704:2707   */\n      dup5\n        /* \"#utility.yul\":2700:2716   */\n      add\n        /* \"#utility.yul\":2697:2722   */\n      gt\n        /* \"#utility.yul\":2694:2806   */\n      iszero\n      tag_150\n      jumpi\n        /* \"#utility.yul\":2725:2804   */\n      tag_151\n      tag_82\n      jump\t// in\n    tag_151:\n        /* \"#utility.yul\":2694:2806   */\n    tag_150:\n        /* \"#utility.yul\":2815:2869   */\n      tag_152\n        /* \"#utility.yul\":2862:2868   */\n      dup5\n        /* \"#utility.yul\":2857:2860   */\n      dup3\n        /* \"#utility.yul\":2852:2855   */\n      dup6\n        /* \"#utility.yul\":2815:2869   */\n      tag_88\n      jump\t// in\n    tag_152:\n        /* \"#utility.yul\":2534:2875   */\n      pop\n        /* \"#utility.yul\":2450:2875   */\n      swap4\n      swap3\n      pop\n      pop\n      pop\n      jump\t// out\n        /* \"#utility.yul\":2895:3235   */\n    tag_90:\n        /* \"#utility.yul\":2951:2956   */\n      0x00\n        /* \"#utility.yul\":3000:3003   */\n      dup3\n        /* \"#utility.yul\":2993:2997   */\n      0x1f\n        /* \"#utility.yul\":2985:2991   */\n      dup4\n        /* \"#utility.yul\":2981:2998   */\n      add\n        /* \"#utility.yul\":2977:3004   */\n      slt\n        /* \"#utility.yul\":2967:3089   */\n      tag_154\n      jumpi\n        /* \"#utility.yul\":3008:3087   */\n      tag_155\n      tag_81\n      jump\t// in\n    tag_155:\n        /* \"#utility.yul\":2967:3089   */\n    tag_154:\n        /* \"#utility.yul\":3125:3131   */\n      dup2\n        /* \"#utility.yul\":3112:3132   */\n      calldataload\n        /* \"#utility.yul\":3150:3229   */\n      tag_156\n        /* \"#utility.yul\":3225:3228   */\n      dup5\n        /* \"#utility.yul\":3217:3223   */\n      dup3\n        /* \"#utility.yul\":3210:3214   */\n      0x20\n        /* \"#utility.yul\":3202:3208   */\n      dup7\n        /* \"#utility.yul\":3198:3215   */\n      add\n        /* \"#utility.yul\":3150:3229   */\n      tag_89\n      jump\t// in\n    tag_156:\n        /* \"#utility.yul\":3141:3229   */\n      swap2\n      pop\n        /* \"#utility.yul\":2957:3235   */\n      pop\n        /* \"#utility.yul\":2895:3235   */\n      swap3\n      swap2\n      pop\n      pop\n      jump\t// out\n        /* \"#utility.yul\":3241:4216   */\n    tag_15:\n        /* \"#utility.yul\":3336:3342   */\n      0x00\n        /* \"#utility.yul\":3344:3350   */\n      dup1\n        /* \"#utility.yul\":3352:3358   */\n      0x00\n        /* \"#utility.yul\":3401:3403   */\n      0x60\n        /* \"#utility.yul\":3389:3398   */\n      dup5\n        /* \"#utility.yul\":3380:3387   */\n      dup7\n        /* \"#utility.yul\":3376:3399   */\n      sub\n        /* \"#utility.yul\":3372:3404   */\n      slt\n        /* \"#utility.yul\":3369:3488   */\n      iszero\n      tag_158\n      jumpi\n        /* \"#utility.yul\":3407:3486   */\n      tag_159\n      tag_76\n      jump\t// in\n    tag_159:\n        /* \"#utility.yul\":3369:3488   */\n    tag_158:\n        /* \"#utility.yul\":3555:3556   */\n      0x00\n        /* \"#utility.yul\":3544:3553   */\n      dup5\n        /* \"#utility.yul\":3540:3557   */\n      add\n        /* \"#utility.yul\":3527:3558   */\n      calldataload\n        /* \"#utility.yul\":3585:3603   */\n      0xffffffffffffffff\n        /* \"#utility.yul\":3577:3583   */\n      dup2\n        /* \"#utility.yul\":3574:3604   */\n      gt\n        /* \"#utility.yul\":3571:3688   */\n      iszero\n      tag_160\n      jumpi\n        /* \"#utility.yul\":3607:3686   */\n      tag_161\n      tag_77\n      jump\t// in\n    tag_161:\n        /* \"#utility.yul\":3571:3688   */\n    tag_160:\n        /* \"#utility.yul\":3712:3775   */\n      tag_162\n        /* \"#utility.yul\":3767:3774   */\n      dup7\n        /* \"#utility.yul\":3758:3764   */\n      dup3\n        /* \"#utility.yul\":3747:3756   */\n      dup8\n        /* \"#utility.yul\":3743:3765   */\n      add\n        /* \"#utility.yul\":3712:3775   */\n      tag_90\n      jump\t// in\n    tag_162:\n        /* \"#utility.yul\":3702:3775   */\n      swap4\n      pop\n        /* \"#utility.yul\":3498:3785   */\n      pop\n        /* \"#utility.yul\":3824:3826   */\n      0x20\n        /* \"#utility.yul\":3850:3901   */\n      tag_163\n        /* \"#utility.yul\":3893:3900   */\n      dup7\n        /* \"#utility.yul\":3884:3890   */\n      dup3\n        /* \"#utility.yul\":3873:3882   */\n      dup8\n        /* \"#utility.yul\":3869:3891   */\n      add\n        /* \"#utility.yul\":3850:3901   */\n      tag_80\n      jump\t// in\n    tag_163:\n        /* \"#utility.yul\":3840:3901   */\n      swap3\n      pop\n        /* \"#utility.yul\":3795:3911   */\n      pop\n        /* \"#utility.yul\":3978:3980   */\n      0x40\n        /* \"#utility.yul\":3967:3976   */\n      dup5\n        /* \"#utility.yul\":3963:3981   */\n      add\n        /* \"#utility.yul\":3950:3982   */\n      calldataload\n        /* \"#utility.yul\":4009:4027   */\n      0xffffffffffffffff\n        /* \"#utility.yul\":4001:4007   */\n      dup2\n        /* \"#utility.yul\":3998:4028   */\n      gt\n        /* \"#utility.yul\":3995:4112   */\n      iszero\n      tag_164\n      jumpi\n        /* \"#utility.yul\":4031:4110   */\n      tag_165\n      tag_77\n      jump\t// in\n    tag_165:\n        /* \"#utility.yul\":3995:4112   */\n    tag_164:\n        /* \"#utility.yul\":4136:4199   */\n      tag_166\n        /* \"#utility.yul\":4191:4198   */\n      dup7\n        /* \"#utility.yul\":4182:4188   */\n      dup3\n        /* \"#utility.yul\":4171:4180   */\n      dup8\n        /* \"#utility.yul\":4167:4189   */\n      add\n        /* \"#utility.yul\":4136:4199   */\n      tag_90\n      jump\t// in\n    tag_166:\n        /* \"#utility.yul\":4126:4199   */\n      swap2\n      pop\n        /* \"#utility.yul\":3921:4209   */\n      pop\n        /* \"#utility.yul\":3241:4216   */\n      swap3\n      pop\n      swap3\n      pop\n      swap3\n      jump\t// out\n        /* \"#utility.yul\":4222:4321   */\n    tag_91:\n        /* \"#utility.yul\":4274:4280   */\n      0x00\n        /* \"#utility.yul\":4308:4313   */\n      dup2\n        /* \"#utility.yul\":4302:4314   */\n      mload\n        /* \"#utility.yul\":4292:4314   */\n      swap1\n      pop\n        /* \"#utility.yul\":4222:4321   */\n      swap2\n      swap1\n      pop\n      jump\t// out\n        /* \"#utility.yul\":4327:4486   */\n    tag_92:\n        /* \"#utility.yul\":4401:4412   */\n      0x00\n        /* \"#utility.yul\":4435:4441   */\n      dup3\n        /* \"#utility.yul\":4430:4433   */\n      dup3\n        /* \"#utility.yul\":4423:4442   */\n      mstore\n        /* \"#utility.yul\":4475:4479   */\n      0x20\n        /* \"#utility.yul\":4470:4473   */\n      dup3\n        /* \"#utility.yul\":4466:4480   */\n      add\n        /* \"#utility.yul\":4451:4480   */\n      swap1\n      pop\n        /* \"#utility.yul\":4327:4486   */\n      swap3\n      swap2\n      pop\n      pop\n      jump\t// out\n        /* \"#utility.yul\":4492:4738   */\n    tag_93:\n        /* \"#utility.yul\":4573:4574   */\n      0x00\n        /* \"#utility.yul\":4583:4696   */\n    tag_170:\n        /* \"#utility.yul\":4597:4603   */\n      dup4\n        /* \"#utility.yul\":4594:4595   */\n      dup2\n        /* \"#utility.yul\":4591:4604   */\n      lt\n        /* \"#utility.yul\":4583:4696   */\n      iszero\n      tag_172\n      jumpi\n        /* \"#utility.yul\":4682:4683   */\n      dup1\n        /* \"#utility.yul\":4677:4680   */\n      dup3\n        /* \"#utility.yul\":4673:4684   */\n      add\n        /* \"#utility.yul\":4667:4685   */\n      mload\n        /* \"#utility.yul\":4663:4664   */\n      dup2\n        /* \"#utility.yul\":4658:4661   */\n      dup5\n        /* \"#utility.yul\":4654:4665   */\n      add\n        /* \"#utility.yul\":4647:4686   */\n      mstore\n        /* \"#utility.yul\":4619:4621   */\n      0x20\n        /* \"#utility.yul\":4616:4617   */\n      dup2\n        /* \"#utility.yul\":4612:4622   */\n      add\n        /* \"#utility.yul\":4607:4622   */\n      swap1\n      pop\n        /* \"#utility.yul\":4583:4696   */\n      jump(tag_170)\n    tag_172:\n        /* \"#utility.yul\":4730:4731   */\n      0x00\n        /* \"#utility.yul\":4721:4727   */\n      dup5\n        /* \"#utility.yul\":4716:4719   */\n      dup5\n        /* \"#utility.yul\":4712:4728   */\n      add\n        /* \"#utility.yul\":4705:4732   */\n      mstore\n        /* \"#utility.yul\":4554:4738   */\n      pop\n        /* \"#utility.yul\":4492:4738   */\n      pop\n      pop\n      pop\n      jump\t// out\n        /* \"#utility.yul\":4744:5101   */\n    tag_94:\n        /* \"#utility.yul\":4822:4825   */\n      0x00\n        /* \"#utility.yul\":4850:4889   */\n      tag_174\n        /* \"#utility.yul\":4883:4888   */\n      dup3\n        /* \"#utility.yul\":4850:4889   */\n      tag_91\n      jump\t// in\n    tag_174:\n        /* \"#utility.yul\":4905:4966   */\n      tag_175\n        /* \"#utility.yul\":4959:4965   */\n      dup2\n        /* \"#utility.yul\":4954:4957   */\n      dup6\n        /* \"#utility.yul\":4905:4966   */\n      tag_92\n      jump\t// in\n    tag_175:\n        /* \"#utility.yul\":4898:4966   */\n      swap4\n      pop\n        /* \"#utility.yul\":4975:5040   */\n      tag_176\n        /* \"#utility.yul\":5033:5039   */\n      dup2\n        /* \"#utility.yul\":5028:5031   */\n      dup6\n        /* \"#utility.yul\":5021:5025   */\n      0x20\n        /* \"#utility.yul\":5014:5019   */\n      dup7\n        /* \"#utility.yul\":5010:5026   */\n      add\n        /* \"#utility.yul\":4975:5040   */\n      tag_93\n      jump\t// in\n    tag_176:\n        /* \"#utility.yul\":5065:5094   */\n      tag_177\n        /* \"#utility.yul\":5087:5093   */\n      dup2\n        /* \"#utility.yul\":5065:5094   */\n      tag_83\n      jump\t// in\n    tag_177:\n        /* \"#utility.yul\":5060:5063   */\n      dup5\n        /* \"#utility.yul\":5056:5095   */\n      add\n        /* \"#utility.yul\":5049:5095   */\n      swap2\n      pop\n        /* \"#utility.yul\":4826:5101   */\n      pop\n        /* \"#utility.yul\":4744:5101   */\n      swap3\n      swap2\n      pop\n      pop\n      jump\t// out\n        /* \"#utility.yul\":5107:5209   */\n    tag_95:\n        /* \"#utility.yul\":5180:5202   */\n      tag_179\n        /* \"#utility.yul\":5196:5201   */\n      dup2\n        /* \"#utility.yul\":5180:5202   */\n      tag_78\n      jump\t// in\n    tag_179:\n        /* \"#utility.yul\":5175:5178   */\n      dup3\n        /* \"#utility.yul\":5168:5203   */\n      mstore\n        /* \"#utility.yul\":5107:5209   */\n      pop\n      pop\n      jump\t// out\n        /* \"#utility.yul\":5275:6108   */\n    tag_96:\n        /* \"#utility.yul\":5382:5385   */\n      0x00\n        /* \"#utility.yul\":5418:5422   */\n      0x60\n        /* \"#utility.yul\":5413:5416   */\n      dup4\n        /* \"#utility.yul\":5409:5423   */\n      add\n        /* \"#utility.yul\":5505:5509   */\n      0x00\n        /* \"#utility.yul\":5498:5503   */\n      dup4\n        /* \"#utility.yul\":5494:5510   */\n      add\n        /* \"#utility.yul\":5488:5511   */\n      mload\n        /* \"#utility.yul\":5558:5561   */\n      dup5\n        /* \"#utility.yul\":5552:5556   */\n      dup3\n        /* \"#utility.yul\":5548:5562   */\n      sub\n        /* \"#utility.yul\":5541:5545   */\n      0x00\n        /* \"#utility.yul\":5536:5539   */\n      dup7\n        /* \"#utility.yul\":5532:5546   */\n      add\n        /* \"#utility.yul\":5525:5563   */\n      mstore\n        /* \"#utility.yul\":5584:5657   */\n      tag_181\n        /* \"#utility.yul\":5652:5656   */\n      dup3\n        /* \"#utility.yul\":5638:5650   */\n      dup3\n        /* \"#utility.yul\":5584:5657   */\n      tag_94\n      jump\t// in\n    tag_181:\n        /* \"#utility.yul\":5576:5657   */\n      swap2\n      pop\n        /* \"#utility.yul\":5433:5668   */\n      pop\n        /* \"#utility.yul\":5749:5753   */\n      0x20\n        /* \"#utility.yul\":5742:5747   */\n      dup4\n        /* \"#utility.yul\":5738:5754   */\n      add\n        /* \"#utility.yul\":5732:5755   */\n      mload\n        /* \"#utility.yul\":5768:5827   */\n      tag_182\n        /* \"#utility.yul\":5821:5825   */\n      0x20\n        /* \"#utility.yul\":5816:5819   */\n      dup7\n        /* \"#utility.yul\":5812:5826   */\n      add\n        /* \"#utility.yul\":5798:5810   */\n      dup3\n        /* \"#utility.yul\":5768:5827   */\n      tag_95\n      jump\t// in\n    tag_182:\n        /* \"#utility.yul\":5678:5837   */\n      pop\n        /* \"#utility.yul\":5918:5922   */\n      0x40\n        /* \"#utility.yul\":5911:5916   */\n      dup4\n        /* \"#utility.yul\":5907:5923   */\n      add\n        /* \"#utility.yul\":5901:5924   */\n      mload\n        /* \"#utility.yul\":5971:5974   */\n      dup5\n        /* \"#utility.yul\":5965:5969   */\n      dup3\n        /* \"#utility.yul\":5961:5975   */\n      sub\n        /* \"#utility.yul\":5954:5958   */\n      0x40\n        /* \"#utility.yul\":5949:5952   */\n      dup7\n        /* \"#utility.yul\":5945:5959   */\n      add\n        /* \"#utility.yul\":5938:5976   */\n      mstore\n        /* \"#utility.yul\":5997:6070   */\n      tag_183\n        /* \"#utility.yul\":6065:6069   */\n      dup3\n        /* \"#utility.yul\":6051:6063   */\n      dup3\n        /* \"#utility.yul\":5997:6070   */\n      tag_94\n      jump\t// in\n    tag_183:\n        /* \"#utility.yul\":5989:6070   */\n      swap2\n      pop\n        /* \"#utility.yul\":5847:6081   */\n      pop\n        /* \"#utility.yul\":6098:6102   */\n      dup1\n        /* \"#utility.yul\":6091:6102   */\n      swap2\n      pop\n        /* \"#utility.yul\":5387:6108   */\n      pop\n        /* \"#utility.yul\":5275:6108   */\n      swap3\n      swap2\n      pop\n      pop\n      jump\t// out\n        /* \"#utility.yul\":6114:6463   */\n    tag_23:\n        /* \"#utility.yul\":6245:6249   */\n      0x00\n        /* \"#utility.yul\":6283:6285   */\n      0x20\n        /* \"#utility.yul\":6272:6281   */\n      dup3\n        /* \"#utility.yul\":6268:6286   */\n      add\n        /* \"#utility.yul\":6260:6286   */\n      swap1\n      pop\n        /* \"#utility.yul\":6332:6341   */\n      dup2\n        /* \"#utility.yul\":6326:6330   */\n      dup2\n        /* \"#utility.yul\":6322:6342   */\n      sub\n        /* \"#utility.yul\":6318:6319   */\n      0x00\n        /* \"#utility.yul\":6307:6316   */\n      dup4\n        /* \"#utility.yul\":6303:6320   */\n      add\n        /* \"#utility.yul\":6296:6343   */\n      mstore\n        /* \"#utility.yul\":6360:6456   */\n      tag_185\n        /* \"#utility.yul\":6451:6455   */\n      dup2\n        /* \"#utility.yul\":6442:6448   */\n      dup5\n        /* \"#utility.yul\":6360:6456   */\n      tag_96\n      jump\t// in\n    tag_185:\n        /* \"#utility.yul\":6352:6456   */\n      swap1\n      pop\n        /* \"#utility.yul\":6114:6463   */\n      swap3\n      swap2\n      pop\n      pop\n      jump\t// out\n        /* \"#utility.yul\":6469:6638   */\n    tag_97:\n        /* \"#utility.yul\":6553:6564   */\n      0x00\n        /* \"#utility.yul\":6587:6593   */\n      dup3\n        /* \"#utility.yul\":6582:6585   */\n      dup3\n        /* \"#utility.yul\":6575:6594   */\n      mstore\n        /* \"#utility.yul\":6627:6631   */\n      0x20\n        /* \"#utility.yul\":6622:6625   */\n      dup3\n        /* \"#utility.yul\":6618:6632   */\n      add\n        /* \"#utility.yul\":6603:6632   */\n      swap1\n      pop\n        /* \"#utility.yul\":6469:6638   */\n      swap3\n      swap2\n      pop\n      pop\n      jump\t// out\n        /* \"#utility.yul\":6644:7021   */\n    tag_98:\n        /* \"#utility.yul\":6732:6735   */\n      0x00\n        /* \"#utility.yul\":6760:6799   */\n      tag_188\n        /* \"#utility.yul\":6793:6798   */\n      dup3\n        /* \"#utility.yul\":6760:6799   */\n      tag_91\n      jump\t// in\n    tag_188:\n        /* \"#utility.yul\":6815:6886   */\n      tag_189\n        /* \"#utility.yul\":6879:6885   */\n      dup2\n        /* \"#utility.yul\":6874:6877   */\n      dup6\n        /* \"#utility.yul\":6815:6886   */\n      tag_97\n      jump\t// in\n    tag_189:\n        /* \"#utility.yul\":6808:6886   */\n      swap4\n      pop\n        /* \"#utility.yul\":6895:6960   */\n      tag_190\n        /* \"#utility.yul\":6953:6959   */\n      dup2\n        /* \"#utility.yul\":6948:6951   */\n      dup6\n        /* \"#utility.yul\":6941:6945   */\n      0x20\n        /* \"#utility.yul\":6934:6939   */\n      dup7\n        /* \"#utility.yul\":6930:6946   */\n      add\n        /* \"#utility.yul\":6895:6960   */\n      tag_93\n      jump\t// in\n    tag_190:\n        /* \"#utility.yul\":6985:7014   */\n      tag_191\n        /* \"#utility.yul\":7007:7013   */\n      dup2\n        /* \"#utility.yul\":6985:7014   */\n      tag_83\n      jump\t// in\n    tag_191:\n        /* \"#utility.yul\":6980:6983   */\n      dup5\n        /* \"#utility.yul\":6976:7015   */\n      add\n        /* \"#utility.yul\":6969:7015   */\n      swap2\n      pop\n        /* \"#utility.yul\":6736:7021   */\n      pop\n        /* \"#utility.yul\":6644:7021   */\n      swap3\n      swap2\n      pop\n      pop\n      jump\t// out\n        /* \"#utility.yul\":7027:7139   */\n    tag_99:\n        /* \"#utility.yul\":7110:7132   */\n      tag_193\n        /* \"#utility.yul\":7126:7131   */\n      dup2\n        /* \"#utility.yul\":7110:7132   */\n      tag_78\n      jump\t// in\n    tag_193:\n        /* \"#utility.yul\":7105:7108   */\n      dup3\n        /* \"#utility.yul\":7098:7133   */\n      mstore\n        /* \"#utility.yul\":7027:7139   */\n      pop\n      pop\n      jump\t// out\n        /* \"#utility.yul\":7145:7761   */\n    tag_30:\n        /* \"#utility.yul\":7330:7334   */\n      0x00\n        /* \"#utility.yul\":7368:7370   */\n      0x60\n        /* \"#utility.yul\":7357:7366   */\n      dup3\n        /* \"#utility.yul\":7353:7371   */\n      add\n        /* \"#utility.yul\":7345:7371   */\n      swap1\n      pop\n        /* \"#utility.yul\":7417:7426   */\n      dup2\n        /* \"#utility.yul\":7411:7415   */\n      dup2\n        /* \"#utility.yul\":7407:7427   */\n      sub\n        /* \"#utility.yul\":7403:7404   */\n      0x00\n        /* \"#utility.yul\":7392:7401   */\n      dup4\n        /* \"#utility.yul\":7388:7405   */\n      add\n        /* \"#utility.yul\":7381:7428   */\n      mstore\n        /* \"#utility.yul\":7445:7523   */\n      tag_195\n        /* \"#utility.yul\":7518:7522   */\n      dup2\n        /* \"#utility.yul\":7509:7515   */\n      dup7\n        /* \"#utility.yul\":7445:7523   */\n      tag_98\n      jump\t// in\n    tag_195:\n        /* \"#utility.yul\":7437:7523   */\n      swap1\n      pop\n        /* \"#utility.yul\":7533:7601   */\n      tag_196\n        /* \"#utility.yul\":7597:7599   */\n      0x20\n        /* \"#utility.yul\":7586:7595   */\n      dup4\n        /* \"#utility.yul\":7582:7600   */\n      add\n        /* \"#utility.yul\":7573:7579   */\n      dup6\n        /* \"#utility.yul\":7533:7601   */\n      tag_99\n      jump\t// in\n    tag_196:\n        /* \"#utility.yul\":7648:7657   */\n      dup2\n        /* \"#utility.yul\":7642:7646   */\n      dup2\n        /* \"#utility.yul\":7638:7658   */\n      sub\n        /* \"#utility.yul\":7633:7635   */\n      0x40\n        /* \"#utility.yul\":7622:7631   */\n      dup4\n        /* \"#utility.yul\":7618:7636   */\n      add\n        /* \"#utility.yul\":7611:7659   */\n      mstore\n        /* \"#utility.yul\":7676:7754   */\n      tag_197\n        /* \"#utility.yul\":7749:7753   */\n      dup2\n        /* \"#utility.yul\":7740:7746   */\n      dup5\n        /* \"#utility.yul\":7676:7754   */\n      tag_98\n      jump\t// in\n    tag_197:\n        /* \"#utility.yul\":7668:7754   */\n      swap1\n      pop\n        /* \"#utility.yul\":7145:7761   */\n      swap5\n      swap4\n      pop\n      pop\n      pop\n      pop\n      jump\t// out\n        /* \"#utility.yul\":7767:7947   */\n    tag_100:\n        /* \"#utility.yul\":7815:7892   */\n      0x4e487b7100000000000000000000000000000000000000000000000000000000\n        /* \"#utility.yul\":7812:7813   */\n      0x00\n        /* \"#utility.yul\":7805:7893   */\n      mstore\n        /* \"#utility.yul\":7912:7916   */\n      0x22\n        /* \"#utility.yul\":7909:7910   */\n      0x04\n        /* \"#utility.yul\":7902:7917   */\n      mstore\n        /* \"#utility.yul\":7936:7940   */\n      0x24\n        /* \"#utility.yul\":7933:7934   */\n      0x00\n        /* \"#utility.yul\":7926:7941   */\n      revert\n        /* \"#utility.yul\":7953:8273   */\n    tag_38:\n        /* \"#utility.yul\":7997:8003   */\n      0x00\n        /* \"#utility.yul\":8034:8035   */\n      0x02\n        /* \"#utility.yul\":8028:8032   */\n      dup3\n        /* \"#utility.yul\":8024:8036   */\n      div\n        /* \"#utility.yul\":8014:8036   */\n      swap1\n      pop\n        /* \"#utility.yul\":8081:8082   */\n      0x01\n        /* \"#utility.yul\":8075:8079   */\n      dup3\n        /* \"#utility.yul\":8071:8083   */\n      and\n        /* \"#utility.yul\":8102:8120   */\n      dup1\n        /* \"#utility.yul\":8092:8173   */\n      tag_200\n      jumpi\n        /* \"#utility.yul\":8158:8162   */\n      0x7f\n        /* \"#utility.yul\":8150:8156   */\n      dup3\n        /* \"#utility.yul\":8146:8163   */\n      and\n        /* \"#utility.yul\":8136:8163   */\n      swap2\n      pop\n        /* \"#utility.yul\":8092:8173   */\n    tag_200:\n        /* \"#utility.yul\":8220:8222   */\n      0x20\n        /* \"#utility.yul\":8212:8218   */\n      dup3\n        /* \"#utility.yul\":8209:8223   */\n      lt\n        /* \"#utility.yul\":8189:8207   */\n      dup2\n        /* \"#utility.yul\":8186:8224   */\n      sub\n        /* \"#utility.yul\":8183:8267   */\n      tag_201\n      jumpi\n        /* \"#utility.yul\":8239:8257   */\n      tag_202\n      tag_100\n      jump\t// in\n    tag_202:\n        /* \"#utility.yul\":8183:8267   */\n    tag_201:\n        /* \"#utility.yul\":8004:8273   */\n      pop\n        /* \"#utility.yul\":7953:8273   */\n      swap2\n      swap1\n      pop\n      jump\t// out\n        /* \"#utility.yul\":8279:8420   */\n    tag_101:\n        /* \"#utility.yul\":8328:8332   */\n      0x00\n        /* \"#utility.yul\":8351:8354   */\n      dup2\n        /* \"#utility.yul\":8343:8354   */\n      swap1\n      pop\n        /* \"#utility.yul\":8374:8377   */\n      dup2\n        /* \"#utility.yul\":8371:8372   */\n      0x00\n        /* \"#utility.yul\":8364:8378   */\n      mstore\n        /* \"#utility.yul\":8408:8412   */\n      0x20\n        /* \"#utility.yul\":8405:8406   */\n      0x00\n        /* \"#utility.yul\":8395:8413   */\n      keccak256\n        /* \"#utility.yul\":8387:8413   */\n      swap1\n      pop\n        /* \"#utility.yul\":8279:8420   */\n      swap2\n      swap1\n      pop\n      jump\t// out\n        /* \"#utility.yul\":8426:8519   */\n    tag_102:\n        /* \"#utility.yul\":8463:8469   */\n      0x00\n        /* \"#utility.yul\":8510:8512   */\n      0x20\n        /* \"#utility.yul\":8505:8507   */\n      0x1f\n        /* \"#utility.yul\":8498:8503   */\n      dup4\n        /* \"#utility.yul\":8494:8508   */\n      add\n        /* \"#utility.yul\":8490:8513   */\n      div\n        /* \"#utility.yul\":8480:8513   */\n      swap1\n      pop\n        /* \"#utility.yul\":8426:8519   */\n      swap2\n      swap1\n      pop\n      jump\t// out\n        /* \"#utility.yul\":8525:8632   */\n    tag_103:\n        /* \"#utility.yul\":8569:8577   */\n      0x00\n        /* \"#utility.yul\":8619:8624   */\n      dup3\n        /* \"#utility.yul\":8613:8617   */\n      dup3\n        /* \"#utility.yul\":8609:8625   */\n      shl\n        /* \"#utility.yul\":8588:8625   */\n      swap1\n      pop\n        /* \"#utility.yul\":8525:8632   */\n      swap3\n      swap2\n      pop\n      pop\n      jump\t// out\n        /* \"#utility.yul\":8638:9031   */\n    tag_104:\n        /* \"#utility.yul\":8707:8713   */\n      0x00\n        /* \"#utility.yul\":8757:8758   */\n      0x08\n        /* \"#utility.yul\":8745:8755   */\n      dup4\n        /* \"#utility.yul\":8741:8759   */\n      mul\n        /* \"#utility.yul\":8780:8877   */\n      tag_207\n        /* \"#utility.yul\":8810:8876   */\n      0xffffffffffffffffffffffffffffffffffffffffffffffffffffffffffffffff\n        /* \"#utility.yul\":8799:8808   */\n      dup3\n        /* \"#utility.yul\":8780:8877   */\n      tag_103\n      jump\t// in\n    tag_207:\n        /* \"#utility.yul\":8898:8937   */\n      tag_208\n        /* \"#utility.yul\":8928:8936   */\n      dup7\n        /* \"#utility.yul\":8917:8926   */\n      dup4\n        /* \"#utility.yul\":8898:8937   */\n      tag_103\n      jump\t// in\n    tag_208:\n        /* \"#utility.yul\":8886:8937   */\n      swap6\n      pop\n        /* \"#utility.yul\":8970:8974   */\n      dup1\n        /* \"#utility.yul\":8966:8975   */\n      not\n        /* \"#utility.yul\":8959:8964   */\n      dup5\n        /* \"#utility.yul\":8955:8976   */\n      and\n        /* \"#utility.yul\":8946:8976   */\n      swap4\n      pop\n        /* \"#utility.yul\":9019:9023   */\n      dup1\n        /* \"#utility.yul\":9009:9017   */\n      dup7\n        /* \"#utility.yul\":9005:9024   */\n      and\n        /* \"#utility.yul\":8998:9003   */\n      dup5\n        /* \"#utility.yul\":8995:9025   */\n      or\n        /* \"#utility.yul\":8985:9025   */\n      swap3\n      pop\n        /* \"#utility.yul\":8714:9031   */\n      pop\n      pop\n        /* \"#utility.yul\":8638:9031   */\n      swap4\n      swap3\n      pop\n      pop\n      pop\n      jump\t// out\n        /* \"#utility.yul\":9037:9114   */\n    tag_105:\n        /* \"#utility.yul\":9074:9081   */\n      0x00\n        /* \"#utility.yul\":9103:9108   */\n      dup2\n        /* \"#utility.yul\":9092:9108   */\n      swap1\n      pop\n        /* \"#utility.yul\":9037:9114   */\n      swap2\n      swap1\n      pop\n      jump\t// out\n        /* \"#utility.yul\":9120:9180   */\n    tag_106:\n        /* \"#utility.yul\":9148:9151   */\n      0x00\n        /* \"#utility.yul\":9169:9174   */\n      dup2\n        /* \"#utility.yul\":9162:9174   */\n      swap1\n      pop\n        /* \"#utility.yul\":9120:9180   */\n      swap2\n      swap1\n      pop\n      jump\t// out\n        /* \"#utility.yul\":9186:9328   */\n    tag_107:\n        /* \"#utility.yul\":9236:9245   */\n      0x00\n        /* \"#utility.yul\":9269:9322   */\n      tag_212\n        /* \"#utility.yul\":9287:9321   */\n      tag_213\n        /* \"#utility.yul\":9296:9320   */\n      tag_214\n        /* \"#utility.yul\":9314:9319   */\n      dup5\n        /* \"#utility.yul\":9296:9320   */\n      tag_105\n      jump\t// in\n    tag_214:\n        /* \"#utility.yul\":9287:9321   */\n      tag_106\n      jump\t// in\n    tag_213:\n        /* \"#utility.yul\":9269:9322   */\n      tag_105\n      jump\t// in\n    tag_212:\n        /* \"#utility.yul\":9256:9322   */\n      swap1\n      pop\n        /* \"#utility.yul\":9186:9328   */\n      swap2\n      swap1\n      pop\n      jump\t// out\n        /* \"#utility.yul\":9334:9409   */\n    tag_108:\n        /* \"#utility.yul\":9377:9380   */\n      0x00\n        /* \"#utility.yul\":9398:9403   */\n      dup2\n        /* \"#utility.yul\":9391:9403   */\n      swap1\n      pop\n        /* \"#utility.yul\":9334:9409   */\n      swap2\n      swap1\n      pop\n      jump\t// out\n        /* \"#utility.yul\":9415:9684   */\n    tag_109:\n        /* \"#utility.yul\":9525:9564   */\n      tag_217\n        /* \"#utility.yul\":9556:9563   */\n      dup4\n        /* \"#utility.yul\":9525:9564   */\n      tag_107\n      jump\t// in\n    tag_217:\n        /* \"#utility.yul\":9586:9677   */\n      tag_218\n        /* \"#utility.yul\":9635:9676   */\n      tag_219\n        /* \"#utility.yul\":9659:9675   */\n      dup3\n        /* \"#utility.yul\":9635:9676   */\n      tag_108\n      jump\t// in\n    tag_219:\n        /* \"#utility.yul\":9627:9633   */\n      dup5\n        /* \"#utility.yul\":9620:9624   */\n      dup5\n        /* \"#utility.yul\":9614:9625   */\n      sload\n        /* \"#utility.yul\":9586:9677   */\n      tag_104\n      jump\t// in\n    tag_218:\n        /* \"#utility.yul\":9580:9584   */\n      dup3\n        /* \"#utility.yul\":9573:9678   */\n      sstore\n        /* \"#utility.yul\":9491:9684   */\n      pop\n        /* \"#utility.yul\":9415:9684   */\n      pop\n      pop\n      pop\n      jump\t// out\n        /* \"#utility.yul\":9690:9763   */\n    tag_110:\n        /* \"#utility.yul\":9735:9738   */\n      0x00\n        /* \"#utility.yul\":9690:9763   */\n      swap1\n      jump\t// out\n        /* \"#utility.yul\":9769:9958   */\n    tag_111:\n        /* \"#utility.yul\":9846:9878   */\n      tag_222\n      tag_110\n      jump\t// in\n    tag_222:\n        /* \"#utility.yul\":9887:9952   */\n      tag_223\n        /* \"#utility.yul\":9945:9951   */\n      dup2\n        /* \"#utility.yul\":9937:9943   */\n      dup5\n        /* \"#utility.yul\":9931:9935   */\n      dup5\n        /* \"#utility.yul\":9887:9952   */\n      tag_109\n      jump\t// in\n    tag_223:\n        /* \"#utility.yul\":9822:9958   */\n      pop\n        /* \"#utility.yul\":9769:9958   */\n      pop\n      pop\n      jump\t// out\n        /* \"#utility.yul\":9964:10150   */\n    tag_112:\n        /* \"#utility.yul\":10024:10144   */\n    tag_225:\n        /* \"#utility.yul\":10041:10044   */\n      dup2\n        /* \"#utility.yul\":10034:10039   */\n      dup2\n        /* \"#utility.yul\":10031:10045   */\n      lt\n        /* \"#utility.yul\":10024:10144   */\n      iszero\n      tag_227\n      jumpi\n        /* \"#utility.yul\":10095:10134   */\n      tag_228\n        /* \"#utility.yul\":10132:10133   */\n      0x00\n        /* \"#utility.yul\":10125:10130   */\n      dup3\n        /* \"#utility.yul\":10095:10134   */\n      tag_111\n      jump\t// in\n    tag_228:\n        /* \"#utility.yul\":10068:10069   */\n      0x01\n        /* \"#utility.yul\":10061:10066   */\n      dup2\n        /* \"#utility.yul\":10057:10070   */\n      add\n        /* \"#utility.yul\":10048:10070   */\n      swap1\n      pop\n        /* \"#utility.yul\":10024:10144   */\n      jump(tag_225)\n    tag_227:\n        /* \"#utility.yul\":9964:10150   */\n      pop\n      pop\n      jump\t// out\n        /* \"#utility.yul\":10156:10699   */\n    tag_113:\n        /* \"#utility.yul\":10257:10259   */\n      0x1f\n        /* \"#utility.yul\":10252:10255   */\n      dup3\n        /* \"#utility.yul\":10249:10260   */\n      gt\n        /* \"#utility.yul\":10246:10692   */\n      iszero\n      tag_230\n      jumpi\n        /* \"#utility.yul\":10291:10329   */\n      tag_231\n        /* \"#utility.yul\":10323:10328   */\n      dup2\n        /* \"#utility.yul\":10291:10329   */\n      tag_101\n      jump\t// in\n    tag_231:\n        /* \"#utility.yul\":10375:10404   */\n      tag_232\n        /* \"#utility.yul\":10393:10403   */\n      dup5\n        /* \"#utility.yul\":10375:10404   */\n      tag_102\n      jump\t// in\n    tag_232:\n        /* \"#utility.yul\":10365:10373   */\n      dup2\n        /* \"#utility.yul\":10361:10405   */\n      add\n        /* \"#utility.yul\":10558:10560   */\n      0x20\n        /* \"#utility.yul\":10546:10556   */\n      dup6\n        /* \"#utility.yul\":10543:10561   */\n      lt\n        /* \"#utility.yul\":10540:10589   */\n      iszero\n      tag_233\n      jumpi\n        /* \"#utility.yul\":10579:10587   */\n      dup2\n        /* \"#utility.yul\":10564:10587   */\n      swap1\n      pop\n        /* \"#utility.yul\":10540:10589   */\n    tag_233:\n        /* \"#utility.yul\":10602:10682   */\n      tag_234\n        /* \"#utility.yul\":10658:10680   */\n      tag_235\n        /* \"#utility.yul\":10676:10679   */\n      dup6\n        /* \"#utility.yul\":10658:10680   */\n      tag_102\n      jump\t// in\n    tag_235:\n        /* \"#utility.yul\":10648:10656   */\n      dup4\n        /* \"#utility.yul\":10644:10681   */\n      add\n        /* \"#utility.yul\":10631:10642   */\n      dup3\n        /* \"#utility.yul\":10602:10682   */\n      tag_112\n      jump\t// in\n    tag_234:\n        /* \"#utility.yul\":10261:10692   */\n      pop\n      pop\n        /* \"#utility.yul\":10246:10692   */\n    tag_230:\n        /* \"#utility.yul\":10156:10699   */\n      pop\n      pop\n      pop\n      jump\t// out\n        /* \"#utility.yul\":10705:10822   */\n    tag_114:\n        /* \"#utility.yul\":10759:10767   */\n      0x00\n        /* \"#utility.yul\":10809:10814   */\n      dup3\n        /* \"#utility.yul\":10803:10807   */\n      dup3\n        /* \"#utility.yul\":10799:10815   */\n      shr\n        /* \"#utility.yul\":10778:10815   */\n      swap1\n      pop\n        /* \"#utility.yul\":10705:10822   */\n      swap3\n      swap2\n      pop\n      pop\n      jump\t// out\n        /* \"#utility.yul\":10828:10997   */\n    tag_115:\n        /* \"#utility.yul\":10872:10878   */\n      0x00\n        /* \"#utility.yul\":10905:10956   */\n      tag_238\n        /* \"#utility.yul\":10953:10954   */\n      0x00\n        /* \"#utility.yul\":10949:10955   */\n      not\n        /* \"#utility.yul\":10941:10946   */\n      dup5\n        /* \"#utility.yul\":10938:10939   */\n      0x08\n        /* \"#utility.yul\":10934:10947   */\n      mul\n        /* \"#utility.yul\":10905:10956   */\n      tag_114\n      jump\t// in\n    tag_238:\n        /* \"#utility.yul\":10901:10957   */\n      not\n        /* \"#utility.yul\":10986:10990   */\n      dup1\n        /* \"#utility.yul\":10980:10984   */\n      dup4\n        /* \"#utility.yul\":10976:10991   */\n      and\n        /* \"#utility.yul\":10966:10991   */\n      swap2\n      pop\n        /* \"#utility.yul\":10879:10997   */\n      pop\n        /* \"#utility.yul\":10828:10997   */\n      swap3\n      swap2\n      pop\n      pop\n      jump\t// out\n        /* \"#utility.yul\":11002:11297   */\n    tag_116:\n        /* \"#utility.yul\":11078:11082   */\n      0x00\n        /* \"#utility.yul\":11224:11253   */\n      tag_240\n        /* \"#utility.yul\":11249:11252   */\n      dup4\n        /* \"#utility.yul\":11243:11247   */\n      dup4\n        /* \"#utility.yul\":11224:11253   */\n      tag_115\n      jump\t// in\n    tag_240:\n        /* \"#utility.yul\":11216:11253   */\n      swap2\n      pop\n        /* \"#utility.yul\":11286:11289   */\n      dup3\n        /* \"#utility.yul\":11283:11284   */\n      0x02\n        /* \"#utility.yul\":11279:11290   */\n      mul\n        /* \"#utility.yul\":11273:11277   */\n      dup3\n        /* \"#utility.yul\":11270:11291   */\n      or\n        /* \"#utility.yul\":11262:11291   */\n      swap1\n      pop\n        /* \"#utility.yul\":11002:11297   */\n      swap3\n      swap2\n      pop\n      pop\n      jump\t// out\n        /* \"#utility.yul\":11302:12697   */\n    tag_34:\n        /* \"#utility.yul\":11419:11456   */\n      tag_242\n        /* \"#utility.yul\":11452:11455   */\n      dup3\n        /* \"#utility.yul\":11419:11456   */\n      tag_91\n      jump\t// in\n    tag_242:\n        /* \"#utility.yul\":11521:11539   */\n      0xffffffffffffffff\n        /* \"#utility.yul\":11513:11519   */\n      dup2\n        /* \"#utility.yul\":11510:11540   */\n      gt\n        /* \"#utility.yul\":11507:11563   */\n      iszero\n      tag_243\n      jumpi\n        /* \"#utility.yul\":11543:11561   */\n      tag_244\n      tag_84\n      jump\t// in\n    tag_244:\n        /* \"#utility.yul\":11507:11563   */\n    tag_243:\n        /* \"#utility.yul\":11587:11625   */\n      tag_245\n        /* \"#utility.yul\":11619:11623   */\n      dup3\n        /* \"#utility.yul\":11613:11624   */\n      sload\n        /* \"#utility.yul\":11587:11625   */\n      tag_38\n      jump\t// in\n    tag_245:\n        /* \"#utility.yul\":11672:11739   */\n      tag_246\n        /* \"#utility.yul\":11732:11738   */\n      dup3\n        /* \"#utility.yul\":11724:11730   */\n      dup3\n        /* \"#utility.yul\":11718:11722   */\n      dup6\n        /* \"#utility.yul\":11672:11739   */\n      tag_113\n      jump\t// in\n    tag_246:\n        /* \"#utility.yul\":11766:11767   */\n      0x00\n        /* \"#utility.yul\":11790:11794   */\n      0x20\n        /* \"#utility.yul\":11777:11794   */\n      swap1\n      pop\n        /* \"#utility.yul\":11822:11824   */\n      0x1f\n        /* \"#utility.yul\":11814:11820   */\n      dup4\n        /* \"#utility.yul\":11811:11825   */\n      gt\n        /* \"#utility.yul\":11839:11840   */\n      0x01\n        /* \"#utility.yul\":11834:12452   */\n      dup2\n      eq\n      tag_248\n      jumpi\n        /* \"#utility.yul\":12496:12497   */\n      0x00\n        /* \"#utility.yul\":12513:12519   */\n      dup5\n        /* \"#utility.yul\":12510:12587   */\n      iszero\n      tag_249\n      jumpi\n        /* \"#utility.yul\":12562:12571   */\n      dup3\n        /* \"#utility.yul\":12557:12560   */\n      dup8\n        /* \"#utility.yul\":12553:12572   */\n      add\n        /* \"#utility.yul\":12547:12573   */\n      mload\n        /* \"#utility.yul\":12538:12573   */\n      swap1\n      pop\n        /* \"#utility.yul\":12510:12587   */\n    tag_249:\n        /* \"#utility.yul\":12613:12680   */\n      tag_250\n        /* \"#utility.yul\":12673:12679   */\n      dup6\n        /* \"#utility.yul\":12666:12671   */\n      dup3\n        /* \"#utility.yul\":12613:12680   */\n      tag_116\n      jump\t// in\n    tag_250:\n        /* \"#utility.yul\":12607:12611   */\n      dup7\n        /* \"#utility.yul\":12600:12681   */\n      sstore\n        /* \"#utility.yul\":12469:12691   */\n      pop\n        /* \"#utility.yul\":11804:12691   */\n      jump(tag_247)\n        /* \"#utility.yul\":11834:12452   */\n    tag_248:\n        /* \"#utility.yul\":11886:11890   */\n      0x1f\n        /* \"#utility.yul\":11882:11891   */\n      not\n        /* \"#utility.yul\":11874:11880   */\n      dup5\n        /* \"#utility.yul\":11870:11892   */\n      and\n        /* \"#utility.yul\":11920:11957   */\n      tag_251\n        /* \"#utility.yul\":11952:11956   */\n      dup7\n        /* \"#utility.yul\":11920:11957   */\n      tag_101\n      jump\t// in\n    tag_251:\n        /* \"#utility.yul\":11979:11980   */\n      0x00\n        /* \"#utility.yul\":11993:12201   */\n    tag_252:\n        /* \"#utility.yul\":12007:12014   */\n      dup3\n        /* \"#utility.yul\":12004:12005   */\n      dup2\n        /* \"#utility.yul\":12001:12015   */\n      lt\n        /* \"#utility.yul\":11993:12201   */\n      iszero\n      tag_254\n      jumpi\n        /* \"#utility.yul\":12086:12095   */\n      dup5\n        /* \"#utility.yul\":12081:12084   */\n      dup10\n        /* \"#utility.yul\":12077:12096   */\n      add\n        /* \"#utility.yul\":12071:12097   */\n      mload\n        /* \"#utility.yul\":12063:12069   */\n      dup3\n        /* \"#utility.yul\":12056:12098   */\n      sstore\n        /* \"#utility.yul\":12137:12138   */\n      0x01\n        /* \"#utility.yul\":12129:12135   */\n      dup3\n        /* \"#utility.yul\":12125:12139   */\n      add\n        /* \"#utility.yul\":12115:12139   */\n      swap2\n      pop\n        /* \"#utility.yul\":12184:12186   */\n      0x20\n        /* \"#utility.yul\":12173:12182   */\n      dup6\n        /* \"#utility.yul\":12169:12187   */\n      add\n        /* \"#utility.yul\":12156:12187   */\n      swap5\n      pop\n        /* \"#utility.yul\":12030:12034   */\n      0x20\n        /* \"#utility.yul\":12027:12028   */\n      dup2\n        /* \"#utility.yul\":12023:12035   */\n      add\n        /* \"#utility.yul\":12018:12035   */\n      swap1\n      pop\n        /* \"#utility.yul\":11993:12201   */\n      jump(tag_252)\n    tag_254:\n        /* \"#utility.yul\":12229:12235   */\n      dup7\n        /* \"#utility.yul\":12220:12227   */\n      dup4\n        /* \"#utility.yul\":12217:12236   */\n      lt\n        /* \"#utility.yul\":12214:12393   */\n      iszero\n      tag_255\n      jumpi\n        /* \"#utility.yul\":12287:12296   */\n      dup5\n        /* \"#utility.yul\":12282:12285   */\n      dup10\n        /* \"#utility.yul\":12278:12297   */\n      add\n        /* \"#utility.yul\":12272:12298   */\n      mload\n        /* \"#utility.yul\":12330:12378   */\n      tag_256\n        /* \"#utility.yul\":12372:12376   */\n      0x1f\n        /* \"#utility.yul\":12364:12370   */\n      dup10\n        /* \"#utility.yul\":12360:12377   */\n      and\n        /* \"#utility.yul\":12349:12358   */\n      dup3\n        /* \"#utility.yul\":12330:12378   */\n      tag_115\n      jump\t// in\n    tag_256:\n        /* \"#utility.yul\":12322:12328   */\n      dup4\n        /* \"#utility.yul\":12315:12379   */\n      sstore\n        /* \"#utility.yul\":12237:12393   */\n      pop\n        /* \"#utility.yul\":12214:12393   */\n    tag_255:\n        /* \"#utility.yul\":12439:12440   */\n      0x01\n        /* \"#utility.yul\":12435:12436   */\n      0x02\n        /* \"#utility.yul\":12427:12433   */\n      dup9\n        /* \"#utility.yul\":12423:12437   */\n      mul\n        /* \"#utility.yul\":12419:12441   */\n      add\n        /* \"#utility.yul\":12413:12417   */\n      dup9\n        /* \"#utility.yul\":12406:12442   */\n      sstore\n        /* \"#utility.yul\":11841:12452   */\n      pop\n      pop\n      pop\n        /* \"#utility.yul\":11804:12691   */\n    tag_247:\n      pop\n        /* \"#utility.yul\":11394:12697   */\n      pop\n      pop\n      pop\n        /* \"#utility.yul\":11302:12697   */\n      pop\n      pop\n      jump\t// out\n\n    auxdata: 0xa26469706673582212206577925817443ea25b7628b0cd64035d18c7f00d7d366938e9eddfcc797c168464736f6c63430008120033\n}\n",
				"bytecode": {
					"linkReferences": {},
					"object": "608060405234801561001057600080fd5b50610cd8806100206000396000f3fe608060405234801561001057600080fd5b50600436106100625760003560e01c806316a23956146100675780632d1ca992146100835780636835d01e1461009f578063832880e7146100bb5780638f779ceb146100d9578063d75eb684146100f5575b600080fd5b610081600480360381019061007c9190610617565b610115565b005b61009d6004803603810190610098919061078a565b610138565b005b6100b960048036038101906100b49190610617565b610180565b005b6100c36102e7565b6040516100d091906108fa565b60405180910390f35b6100f360048036038101906100ee9190610617565b610442565b005b6100fd610450565b60405161010c93929190610975565b60405180910390f35b6000818160010160006101000a81548160ff021916908360ff1602179055505050565b826000800190816101499190610bd0565b5081600060010160006101000a81548160ff021916908360ff160217905550806000600201908161017a9190610bd0565b50505050565b60008060405180606001604052908160008201805461019e906109e9565b80601f01602080910402602001604051908101604052809291908181526020018280546101ca906109e9565b80156102175780601f106101ec57610100808354040283529160200191610217565b820191906000526020600020905b8154815290600101906020018083116101fa57829003601f168201915b505050505081526020016001820160009054906101000a900460ff1660ff1660ff16815260200160028201805461024d906109e9565b80601f0160208091040260200160405190810160405280929190818152602001828054610279906109e9565b80156102c65780601f1061029b576101008083540402835291602001916102c6565b820191906000526020600020905b8154815290600101906020018083116102a957829003601f168201915b505050505081525050905081816020019060ff16908160ff16815250505050565b6102ef6105a6565b600060405180606001604052908160008201805461030c906109e9565b80601f0160208091040260200160405190810160405280929190818152602001828054610338906109e9565b80156103855780601f1061035a57610100808354040283529160200191610385565b820191906000526020600020905b81548152906001019060200180831161036857829003601f168201915b505050505081526020016001820160009054906101000a900460ff1660ff1660ff1681526020016002820180546103bb906109e9565b80601f01602080910402602001604051908101604052809291908181526020018280546103e7906109e9565b80156104345780601f1061040957610100808354040283529160200191610434565b820191906000526020600020905b81548152906001019060200180831161041757829003601f168201915b505050505081525050905090565b61044d600082610585565b50565b6000806000018054610461906109e9565b80601f016020809104026020016040519081016040528092919081815260200182805461048d906109e9565b80156104da5780601f106104af576101008083540402835291602001916104da565b820191906000526020600020905b8154815290600101906020018083116104bd57829003601f168201915b5050505050908060010160009054906101000a900460ff1690806002018054610502906109e9565b80601f016020809104026020016040519081016040528092919081815260200182805461052e906109e9565b801561057b5780601f106105505761010080835404028352916020019161057b565b820191906000526020600020905b81548152906001019060200180831161055e57829003601f168201915b5050505050905083565b808260010160006101000a81548160ff021916908360ff1602179055505050565b604051806060016040528060608152602001600060ff168152602001606081525090565b6000604051905090565b600080fd5b600080fd5b600060ff82169050919050565b6105f4816105de565b81146105ff57600080fd5b50565b600081359050610611816105eb565b92915050565b60006020828403121561062d5761062c6105d4565b5b600061063b84828501610602565b91505092915050565b600080fd5b600080fd5b6000601f19601f8301169050919050565b7f4e487b7100000000000000000000000000000000000000000000000000000000600052604160045260246000fd5b6106978261064e565b810181811067ffffffffffffffff821117156106b6576106b561065f565b5b80604052505050565b60006106c96105ca565b90506106d5828261068e565b919050565b600067ffffffffffffffff8211156106f5576106f461065f565b5b6106fe8261064e565b9050602081019050919050565b82818337600083830152505050565b600061072d610728846106da565b6106bf565b90508281526020810184848401111561074957610748610649565b5b61075484828561070b565b509392505050565b600082601f83011261077157610770610644565b5b813561078184826020860161071a565b91505092915050565b6000806000606084860312156107a3576107a26105d4565b5b600084013567ffffffffffffffff8111156107c1576107c06105d9565b5b6107cd8682870161075c565b93505060206107de86828701610602565b925050604084013567ffffffffffffffff8111156107ff576107fe6105d9565b5b61080b8682870161075c565b9150509250925092565b600081519050919050565b600082825260208201905092915050565b60005b8381101561084f578082015181840152602081019050610834565b60008484015250505050565b600061086682610815565b6108708185610820565b9350610880818560208601610831565b6108898161064e565b840191505092915050565b61089d816105de565b82525050565b600060608301600083015184820360008601526108c0828261085b565b91505060208301516108d56020860182610894565b50604083015184820360408601526108ed828261085b565b9150508091505092915050565b6000602082019050818103600083015261091481846108a3565b905092915050565b600082825260208201905092915050565b600061093882610815565b610942818561091c565b9350610952818560208601610831565b61095b8161064e565b840191505092915050565b61096f816105de565b82525050565b6000606082019050818103600083015261098f818661092d565b905061099e6020830185610966565b81810360408301526109b0818461092d565b9050949350505050565b7f4e487b7100000000000000000000000000000000000000000000000000000000600052602260045260246000fd5b60006002820490506001821680610a0157607f821691505b602082108103610a1457610a136109ba565b5b50919050565b60008190508160005260206000209050919050565b60006020601f8301049050919050565b600082821b905092915050565b600060088302610a7c7fffffffffffffffffffffffffffffffffffffffffffffffffffffffffffffffff82610a3f565b610a868683610a3f565b95508019841693508086168417925050509392505050565b6000819050919050565b6000819050919050565b6000610acd610ac8610ac384610a9e565b610aa8565b610a9e565b9050919050565b6000819050919050565b610ae783610ab2565b610afb610af382610ad4565b848454610a4c565b825550505050565b600090565b610b10610b03565b610b1b818484610ade565b505050565b5b81811015610b3f57610b34600082610b08565b600181019050610b21565b5050565b601f821115610b8457610b5581610a1a565b610b5e84610a2f565b81016020851015610b6d578190505b610b81610b7985610a2f565b830182610b20565b50505b505050565b600082821c905092915050565b6000610ba760001984600802610b89565b1980831691505092915050565b6000610bc08383610b96565b9150826002028217905092915050565b610bd982610815565b67ffffffffffffffff811115610bf257610bf161065f565b5b610bfc82546109e9565b610c07828285610b43565b600060209050601f831160018114610c3a5760008415610c28578287015190505b610c328582610bb4565b865550610c9a565b601f198416610c4886610a1a565b60005b82811015610c7057848901518255600182019150602085019450602081019050610c4b565b86831015610c8d5784890151610c89601f891682610b96565b8355505b6001600288020188555050505b50505050505056fea26469706673582212206577925817443ea25b7628b0cd64035d18c7f00d7d366938e9eddfcc797c168464736f6c63430008120033",
					"opcodes": "PUSH1 0x80 PUSH1 0x40 MSTORE CALLVALUE DUP1 ISZERO PUSH2 0x10 JUMPI PUSH1 0x0 DUP1 REVERT JUMPDEST POP PUSH2 0xCD8 DUP1 PUSH2 0x20 PUSH1 0x0 CODECOPY PUSH1 0x0 RETURN INVALID PUSH1 0x80 PUSH1 0x40 MSTORE CALLVALUE DUP1 ISZERO PUSH2 0x10 JUMPI PUSH1 0x0 DUP1 REVERT JUMPDEST POP PUSH1 0x4 CALLDATASIZE LT PUSH2 0x62 JUMPI PUSH1 0x0 CALLDATALOAD PUSH1 0xE0 SHR DUP1 PUSH4 0x16A23956 EQ PUSH2 0x67 JUMPI DUP1 PUSH4 0x2D1CA992 EQ PUSH2 0x83 JUMPI DUP1 PUSH4 0x6835D01E EQ PUSH2 0x9F JUMPI DUP1 PUSH4 0x832880E7 EQ PUSH2 0xBB JUMPI DUP1 PUSH4 0x8F779CEB EQ PUSH2 0xD9 JUMPI DUP1 PUSH4 0xD75EB684 EQ PUSH2 0xF5 JUMPI JUMPDEST PUSH1 0x0 DUP1 REVERT JUMPDEST PUSH2 0x81 PUSH1 0x4 DUP1 CALLDATASIZE SUB DUP2 ADD SWAP1 PUSH2 0x7C SWAP2 SWAP1 PUSH2 0x617 JUMP JUMPDEST PUSH2 0x115 JUMP JUMPDEST STOP JUMPDEST PUSH2 0x9D PUSH1 0x4 DUP1 CALLDATASIZE SUB DUP2 ADD SWAP1 PUSH2 0x98 SWAP2 SWAP1 PUSH2 0x78A JUMP JUMPDEST PUSH2 0x138 JUMP JUMPDEST STOP JUMPDEST PUSH2 0xB9 PUSH1 0x4 DUP1 CALLDATASIZE SUB DUP2 ADD SWAP1 PUSH2 0xB4 SWAP2 SWAP1 PUSH2 0x617 JUMP JUMPDEST PUSH2 0x180 JUMP JUMPDEST STOP JUMPDEST PUSH2 0xC3 PUSH2 0x2E7 JUMP JUMPDEST PUSH1 0x40 MLOAD PUSH2 0xD0 SWAP2 SWAP1 PUSH2 0x8FA JUMP JUMPDEST PUSH1 0x40 MLOAD DUP1 SWAP2 SUB SWAP1 RETURN JUMPDEST PUSH2 0xF3 PUSH1 0x4 DUP1 CALLDATASIZE SUB DUP2 ADD SWAP1 PUSH2 0xEE SWAP2 SWAP1 PUSH2 0x617 JUMP JUMPDEST PUSH2 0x442 JUMP JUMPDEST STOP JUMPDEST PUSH2 0xFD PUSH2 0x450 JUMP JUMPDEST PUSH1 0x40 MLOAD PUSH2 0x10C SWAP4 SWAP3 SWAP2 SWAP1 PUSH2 0x975 JUMP JUMPDEST PUSH1 0x40 MLOAD DUP1 SWAP2 SUB SWAP1 RETURN JUMPDEST PUSH1 0x0 DUP2 DUP2 PUSH1 0x1 ADD PUSH1 0x0 PUSH2 0x100 EXP DUP2 SLOAD DUP2 PUSH1 0xFF MUL NOT AND SWAP1 DUP4 PUSH1 0xFF AND MUL OR SWAP1 SSTORE POP POP POP JUMP JUMPDEST DUP3 PUSH1 0x0 DUP1 ADD SWAP1 DUP2 PUSH2 0x149 SWAP2 SWAP1 PUSH2 0xBD0 JUMP JUMPDEST POP DUP2 PUSH1 0x0 PUSH1 0x1 ADD PUSH1 0x0 PUSH2 0x100 EXP DUP2 SLOAD DUP2 PUSH1 0xFF MUL NOT AND SWAP1 DUP4 PUSH1 0xFF AND MUL OR SWAP1 SSTORE POP DUP1 PUSH1 0x0 PUSH1 0x2 ADD SWAP1 DUP2 PUSH2 0x17A SWAP2 SWAP1 PUSH2 0xBD0 JUMP JUMPDEST POP POP POP POP JUMP JUMPDEST PUSH1 0x0 DUP1 PUSH1 0x40 MLOAD DUP1 PUSH1 0x60 ADD PUSH1 0x40 MSTORE SWAP1 DUP2 PUSH1 0x0 DUP3 ADD DUP1 SLOAD PUSH2 0x19E SWAP1 PUSH2 0x9E9 JUMP JUMPDEST DUP1 PUSH1 0x1F ADD PUSH1 0x20 DUP1 SWAP2 DIV MUL PUSH1 0x20 ADD PUSH1 0x40 MLOAD SWAP1 DUP2 ADD PUSH1 0x40 MSTORE DUP1 SWAP3 SWAP2 SWAP1 DUP2 DUP2 MSTORE PUSH1 0x20 ADD DUP3 DUP1 SLOAD PUSH2 0x1CA SWAP1 PUSH2 0x9E9 JUMP JUMPDEST DUP1 ISZERO PUSH2 0x217 JUMPI DUP1 PUSH1 0x1F LT PUSH2 0x1EC JUMPI PUSH2 0x100 DUP1 DUP4 SLOAD DIV MUL DUP4 MSTORE SWAP2 PUSH1 0x20 ADD SWAP2 PUSH2 0x217 JUMP JUMPDEST DUP3 ADD SWAP2 SWAP1 PUSH1 0x0 MSTORE PUSH1 0x20 PUSH1 0x0 KECCAK256 SWAP1 JUMPDEST DUP2 SLOAD DUP2 MSTORE SWAP1 PUSH1 0x1 ADD SWAP1 PUSH1 0x20 ADD DUP1 DUP4 GT PUSH2 0x1FA JUMPI DUP3 SWAP1 SUB PUSH1 0x1F AND DUP3 ADD SWAP2 JUMPDEST POP POP POP POP POP DUP2 MSTORE PUSH1 0x20 ADD PUSH1 0x1 DUP3 ADD PUSH1 0x0 SWAP1 SLOAD SWAP1 PUSH2 0x100 EXP SWAP1 DIV PUSH1 0xFF AND PUSH1 0xFF AND PUSH1 0xFF AND DUP2 MSTORE PUSH1 0x20 ADD PUSH1 0x2 DUP3 ADD DUP1 SLOAD PUSH2 0x24D SWAP1 PUSH2 0x9E9 JUMP JUMPDEST DUP1 PUSH1 0x1F ADD PUSH1 0x20 DUP1 SWAP2 DIV MUL PUSH1 0x20 ADD PUSH1 0x40 MLOAD SWAP1 DUP2 ADD PUSH1 0x40 MSTORE DUP1 SWAP3 SWAP2 SWAP1 DUP2 DUP2 MSTORE PUSH1 0x20 ADD DUP3 DUP1 SLOAD PUSH2 0x279 SWAP1 PUSH2 0x9E9 JUMP JUMPDEST DUP1 ISZERO PUSH2 0x2C6 JUMPI DUP1 PUSH1 0x1F LT PUSH2 0x29B JUMPI PUSH2 0x100 DUP1 DUP4 SLOAD DIV MUL DUP4 MSTORE SWAP2 PUSH1 0x20 ADD SWAP2 PUSH2 0x2C6 JUMP JUMPDEST DUP3 ADD SWAP2 SWAP1 PUSH1 0x0 MSTORE PUSH1 0x20 PUSH1 0x0 KECCAK256 SWAP1 JUMPDEST DUP2 SLOAD DUP2 MSTORE SWAP1 PUSH1 0x1 ADD SWAP1 PUSH1 0x20 ADD DUP1 DUP4 GT PUSH2 0x2A9 JUMPI DUP3 SWAP1 SUB PUSH1 0x1F AND DUP3 ADD SWAP2 JUMPDEST POP POP POP POP POP DUP2 MSTORE POP POP SWAP1 POP DUP2 DUP2 PUSH1 0x20 ADD SWAP1 PUSH1 0xFF AND SWAP1 DUP2 PUSH1 0xFF AND DUP2 MSTORE POP POP POP POP JUMP JUMPDEST PUSH2 0x2EF PUSH2 0x5A6 JUMP JUMPDEST PUSH1 0x0 PUSH1 0x40 MLOAD DUP1 PUSH1 0x60 ADD PUSH1 0x40 MSTORE SWAP1 DUP2 PUSH1 0x0 DUP3 ADD DUP1 SLOAD PUSH2 0x30C SWAP1 PUSH2 0x9E9 JUMP JUMPDEST DUP1 PUSH1 0x1F ADD PUSH1 0x20 DUP1 SWAP2 DIV MUL PUSH1 0x20 ADD PUSH1 0x40 MLOAD SWAP1 DUP2 ADD PUSH1 0x40 MSTORE DUP1 SWAP3 SWAP2 SWAP1 DUP2 DUP2 MSTORE PUSH1 0x20 ADD DUP3 DUP1 SLOAD PUSH2 0x338 SWAP1 PUSH2 0x9E9 JUMP JUMPDEST DUP1 ISZERO PUSH2 0x385 JUMPI DUP1 PUSH1 0x1F LT PUSH2 0x35A JUMPI PUSH2 0x100 DUP1 DUP4 SLOAD DIV MUL DUP4 MSTORE SWAP2 PUSH1 0x20 ADD SWAP2 PUSH2 0x385 JUMP JUMPDEST DUP3 ADD SWAP2 SWAP1 PUSH1 0x0 MSTORE PUSH1 0x20 PUSH1 0x0 KECCAK256 SWAP1 JUMPDEST DUP2 SLOAD DUP2 MSTORE SWAP1 PUSH1 0x1 ADD SWAP1 PUSH1 0x20 ADD DUP1 DUP4 GT PUSH2 0x368 JUMPI DUP3 SWAP1 SUB PUSH1 0x1F AND DUP3 ADD SWAP2 JUMPDEST POP POP POP POP POP DUP2 MSTORE PUSH1 0x20 ADD PUSH1 0x1 DUP3 ADD PUSH1 0x0 SWAP1 SLOAD SWAP1 PUSH2 0x100 EXP SWAP1 DIV PUSH1 0xFF AND PUSH1 0xFF AND PUSH1 0xFF AND DUP2 MSTORE PUSH1 0x20 ADD PUSH1 0x2 DUP3 ADD DUP1 SLOAD PUSH2 0x3BB SWAP1 PUSH2 0x9E9 JUMP JUMPDEST DUP1 PUSH1 0x1F ADD PUSH1 0x20 DUP1 SWAP2 DIV MUL PUSH1 0x20 ADD PUSH1 0x40 MLOAD SWAP1 DUP2 ADD PUSH1 0x40 MSTORE DUP1 SWAP3 SWAP2 SWAP1 DUP2 DUP2 MSTORE PUSH1 0x20 ADD DUP3 DUP1 SLOAD PUSH2 0x3E7 SWAP1 PUSH2 0x9E9 JUMP JUMPDEST DUP1 ISZERO PUSH2 0x434 JUMPI DUP1 PUSH1 0x1F LT PUSH2 0x409 JUMPI PUSH2 0x100 DUP1 DUP4 SLOAD DIV MUL DUP4 MSTORE SWAP2 PUSH1 0x20 ADD SWAP2 PUSH2 0x434 JUMP JUMPDEST DUP3 ADD SWAP2 SWAP1 PUSH1 0x0 MSTORE PUSH1 0x20 PUSH1 0x0 KECCAK256 SWAP1 JUMPDEST DUP2 SLOAD DUP2 MSTORE SWAP1 PUSH1 0x1 ADD SWAP1 PUSH1 0x20 ADD DUP1 DUP4 GT PUSH2 0x417 JUMPI DUP3 SWAP1 SUB PUSH1 0x1F AND DUP3 ADD SWAP2 JUMPDEST POP POP POP POP POP DUP2 MSTORE POP POP SWAP1 POP SWAP1 JUMP JUMPDEST PUSH2 0x44D PUSH1 0x0 DUP3 PUSH2 0x585 JUMP JUMPDEST POP JUMP JUMPDEST PUSH1 0x0 DUP1 PUSH1 0x0 ADD DUP1 SLOAD PUSH2 0x461 SWAP1 PUSH2 0x9E9 JUMP JUMPDEST DUP1 PUSH1 0x1F ADD PUSH1 0x20 DUP1 SWAP2 DIV MUL PUSH1 0x20 ADD PUSH1 0x40 MLOAD SWAP1 DUP2 ADD PUSH1 0x40 MSTORE DUP1 SWAP3 SWAP2 SWAP1 DUP2 DUP2 MSTORE PUSH1 0x20 ADD DUP3 DUP1 SLOAD PUSH2 0x48D SWAP1 PUSH2 0x9E9 JUMP JUMPDEST DUP1 ISZERO PUSH2 0x4DA JUMPI DUP1 PUSH1 0x1F LT PUSH2 0x4AF JUMPI PUSH2 0x100 DUP1 DUP4 SLOAD DIV MUL DUP4 MSTORE SWAP2 PUSH1 0x20 ADD SWAP2 PUSH2 0x4DA JUMP JUMPDEST DUP3 ADD SWAP2 SWAP1 PUSH1 0x0 MSTORE PUSH1 0x20 PUSH1 0x0 KECCAK256 SWAP1 JUMPDEST DUP2 SLOAD DUP2 MSTORE SWAP1 PUSH1 0x1 ADD SWAP1 PUSH1 0x20 ADD DUP1 DUP4 GT PUSH2 0x4BD JUMPI DUP3 SWAP1 SUB PUSH1 0x1F AND DUP3 ADD SWAP2 JUMPDEST POP POP POP POP POP SWAP1 DUP1 PUSH1 0x1 ADD PUSH1 0x0 SWAP1 SLOAD SWAP1 PUSH2 0x100 EXP SWAP1 DIV PUSH1 0xFF AND SWAP1 DUP1 PUSH1 0x2 ADD DUP1 SLOAD PUSH2 0x502 SWAP1 PUSH2 0x9E9 JUMP JUMPDEST DUP1 PUSH1 0x1F ADD PUSH1 0x20 DUP1 SWAP2 DIV MUL PUSH1 0x20 ADD PUSH1 0x40 MLOAD SWAP1 DUP2 ADD PUSH1 0x40 MSTORE DUP1 SWAP3 SWAP2 SWAP1 DUP2 DUP2 MSTORE PUSH1 0x20 ADD DUP3 DUP1 SLOAD PUSH2 0x52E SWAP1 PUSH2 0x9E9 JUMP JUMPDEST DUP1 ISZERO PUSH2 0x57B JUMPI DUP1 PUSH1 0x1F LT PUSH2 0x550 JUMPI PUSH2 0x100 DUP1 DUP4 SLOAD DIV MUL DUP4 MSTORE SWAP2 PUSH1 0x20 ADD SWAP2 PUSH2 0x57B JUMP JUMPDEST DUP3 ADD SWAP2 SWAP1 PUSH1 0x0 MSTORE PUSH1 0x20 PUSH1 0x0 KECCAK256 SWAP1 JUMPDEST DUP2 SLOAD DUP2 MSTORE SWAP1 PUSH1 0x1 ADD SWAP1 PUSH1 0x20 ADD DUP1 DUP4 GT PUSH2 0x55E JUMPI DUP3 SWAP1 SUB PUSH1 0x1F AND DUP3 ADD SWAP2 JUMPDEST POP POP POP POP POP SWAP1 POP DUP4 JUMP JUMPDEST DUP1 DUP3 PUSH1 0x1 ADD PUSH1 0x0 PUSH2 0x100 EXP DUP2 SLOAD DUP2 PUSH1 0xFF MUL NOT AND SWAP1 DUP4 PUSH1 0xFF AND MUL OR SWAP1 SSTORE POP POP POP JUMP JUMPDEST PUSH1 0x40 MLOAD DUP1 PUSH1 0x60 ADD PUSH1 0x40 MSTORE DUP1 PUSH1 0x60 DUP2 MSTORE PUSH1 0x20 ADD PUSH1 0x0 PUSH1 0xFF AND DUP2 MSTORE PUSH1 0x20 ADD PUSH1 0x60 DUP2 MSTORE POP SWAP1 JUMP JUMPDEST PUSH1 0x0 PUSH1 0x40 MLOAD SWAP1 POP SWAP1 JUMP JUMPDEST PUSH1 0x0 DUP1 REVERT JUMPDEST PUSH1 0x0 DUP1 REVERT JUMPDEST PUSH1 0x0 PUSH1 0xFF DUP3 AND SWAP1 POP SWAP2 SWAP1 POP JUMP JUMPDEST PUSH2 0x5F4 DUP2 PUSH2 0x5DE JUMP JUMPDEST DUP2 EQ PUSH2 0x5FF JUMPI PUSH1 0x0 DUP1 REVERT JUMPDEST POP JUMP JUMPDEST PUSH1 0x0 DUP2 CALLDATALOAD SWAP1 POP PUSH2 0x611 DUP2 PUSH2 0x5EB JUMP JUMPDEST SWAP3 SWAP2 POP POP JUMP JUMPDEST PUSH1 0x0 PUSH1 0x20 DUP3 DUP5 SUB SLT ISZERO PUSH2 0x62D JUMPI PUSH2 0x62C PUSH2 0x5D4 JUMP JUMPDEST JUMPDEST PUSH1 0x0 PUSH2 0x63B DUP5 DUP3 DUP6 ADD PUSH2 0x602 JUMP JUMPDEST SWAP2 POP POP SWAP3 SWAP2 POP POP JUMP JUMPDEST PUSH1 0x0 DUP1 REVERT JUMPDEST PUSH1 0x0 DUP1 REVERT JUMPDEST PUSH1 0x0 PUSH1 0x1F NOT PUSH1 0x1F DUP4 ADD AND SWAP1 POP SWAP2 SWAP1 POP JUMP JUMPDEST PUSH32 0x4E487B7100000000000000000000000000000000000000000000000000000000 PUSH1 0x0 MSTORE PUSH1 0x41 PUSH1 0x4 MSTORE PUSH1 0x24 PUSH1 0x0 REVERT JUMPDEST PUSH2 0x697 DUP3 PUSH2 0x64E JUMP JUMPDEST DUP2 ADD DUP2 DUP2 LT PUSH8 0xFFFFFFFFFFFFFFFF DUP3 GT OR ISZERO PUSH2 0x6B6 JUMPI PUSH2 0x6B5 PUSH2 0x65F JUMP JUMPDEST JUMPDEST DUP1 PUSH1 0x40 MSTORE POP POP POP JUMP JUMPDEST PUSH1 0x0 PUSH2 0x6C9 PUSH2 0x5CA JUMP JUMPDEST SWAP1 POP PUSH2 0x6D5 DUP3 DUP3 PUSH2 0x68E JUMP JUMPDEST SWAP2 SWAP1 POP JUMP JUMPDEST PUSH1 0x0 PUSH8 0xFFFFFFFFFFFFFFFF DUP3 GT ISZERO PUSH2 0x6F5 JUMPI PUSH2 0x6F4 PUSH2 0x65F JUMP JUMPDEST JUMPDEST PUSH2 0x6FE DUP3 PUSH2 0x64E JUMP JUMPDEST SWAP1 POP PUSH1 0x20 DUP2 ADD SWAP1 POP SWAP2 SWAP1 POP JUMP JUMPDEST DUP3 DUP2 DUP4 CALLDATACOPY PUSH1 0x0 DUP4 DUP4 ADD MSTORE POP POP POP JUMP JUMPDEST PUSH1 0x0 PUSH2 0x72D PUSH2 0x728 DUP5 PUSH2 0x6DA JUMP JUMPDEST PUSH2 0x6BF JUMP JUMPDEST SWAP1 POP DUP3 DUP2 MSTORE PUSH1 0x20 DUP2 ADD DUP5 DUP5 DUP5 ADD GT ISZERO PUSH2 0x749 JUMPI PUSH2 0x748 PUSH2 0x649 JUMP JUMPDEST JUMPDEST PUSH2 0x754 DUP5 DUP3 DUP6 PUSH2 0x70B JUMP JUMPDEST POP SWAP4 SWAP3 POP POP POP JUMP JUMPDEST PUSH1 0x0 DUP3 PUSH1 0x1F DUP4 ADD SLT PUSH2 0x771 JUMPI PUSH2 0x770 PUSH2 0x644 JUMP JUMPDEST JUMPDEST DUP2 CALLDATALOAD PUSH2 0x781 DUP5 DUP3 PUSH1 0x20 DUP7 ADD PUSH2 0x71A JUMP JUMPDEST SWAP2 POP POP SWAP3 SWAP2 POP POP JUMP JUMPDEST PUSH1 0x0 DUP1 PUSH1 0x0 PUSH1 0x60 DUP5 DUP7 SUB SLT ISZERO PUSH2 0x7A3 JUMPI PUSH2 0x7A2 PUSH2 0x5D4 JUMP JUMPDEST JUMPDEST PUSH1 0x0 DUP5 ADD CALLDATALOAD PUSH8 0xFFFFFFFFFFFFFFFF DUP2 GT ISZERO PUSH2 0x7C1 JUMPI PUSH2 0x7C0 PUSH2 0x5D9 JUMP JUMPDEST JUMPDEST PUSH2 0x7CD DUP7 DUP3 DUP8 ADD PUSH2 0x75C JUMP JUMPDEST SWAP4 POP POP PUSH1 0x20 PUSH2 0x7DE DUP7 DUP3 DUP8 ADD PUSH2 0x602 JUMP JUMPDEST SWAP3 POP POP PUSH1 0x40 DUP5 ADD CALLDATALOAD PUSH8 0xFFFFFFFFFFFFFFFF DUP2 GT ISZERO PUSH2 0x7FF JUMPI PUSH2 0x7FE PUSH2 0x5D9 JUMP JUMPDEST JUMPDEST PUSH2 0x80B DUP7 DUP3 DUP8 ADD PUSH2 0x75C JUMP JUMPDEST SWAP2 POP POP SWAP3 POP SWAP3 POP SWAP3 JUMP JUMPDEST PUSH1 0x0 DUP2 MLOAD SWAP1 POP SWAP2 SWAP1 POP JUMP JUMPDEST PUSH1 0x0 DUP3 DUP3 MSTORE PUSH1 0x20 DUP3 ADD SWAP1 POP SWAP3 SWAP2 POP POP JUMP JUMPDEST PUSH1 0x0 JUMPDEST DUP4 DUP2 LT ISZERO PUSH2 0x84F JUMPI DUP1 DUP3 ADD MLOAD DUP2 DUP5 ADD MSTORE PUSH1 0x20 DUP2 ADD SWAP1 POP PUSH2 0x834 JUMP JUMPDEST PUSH1 0x0 DUP5 DUP5 ADD MSTORE POP POP POP POP JUMP JUMPDEST PUSH1 0x0 PUSH2 0x866 DUP3 PUSH2 0x815 JUMP JUMPDEST PUSH2 0x870 DUP2 DUP6 PUSH2 0x820 JUMP JUMPDEST SWAP4 POP PUSH2 0x880 DUP2 DUP6 PUSH1 0x20 DUP7 ADD PUSH2 0x831 JUMP JUMPDEST PUSH2 0x889 DUP2 PUSH2 0x64E JUMP JUMPDEST DUP5 ADD SWAP2 POP POP SWAP3 SWAP2 POP POP JUMP JUMPDEST PUSH2 0x89D DUP2 PUSH2 0x5DE JUMP JUMPDEST DUP3 MSTORE POP POP JUMP JUMPDEST PUSH1 0x0 PUSH1 0x60 DUP4 ADD PUSH1 0x0 DUP4 ADD MLOAD DUP5 DUP3 SUB PUSH1 0x0 DUP7 ADD MSTORE PUSH2 0x8C0 DUP3 DUP3 PUSH2 0x85B JUMP JUMPDEST SWAP2 POP POP PUSH1 0x20 DUP4 ADD MLOAD PUSH2 0x8D5 PUSH1 0x20 DUP7 ADD DUP3 PUSH2 0x894 JUMP JUMPDEST POP PUSH1 0x40 DUP4 ADD MLOAD DUP5 DUP3 SUB PUSH1 0x40 DUP7 ADD MSTORE PUSH2 0x8ED DUP3 DUP3 PUSH2 0x85B JUMP JUMPDEST SWAP2 POP POP DUP1 SWAP2 POP POP SWAP3 SWAP2 POP POP JUMP JUMPDEST PUSH1 0x0 PUSH1 0x20 DUP3 ADD SWAP1 POP DUP2 DUP2 SUB PUSH1 0x0 DUP4 ADD MSTORE PUSH2 0x914 DUP2 DUP5 PUSH2 0x8A3 JUMP JUMPDEST SWAP1 POP SWAP3 SWAP2 POP POP JUMP JUMPDEST PUSH1 0x0 DUP3 DUP3 MSTORE PUSH1 0x20 DUP3 ADD SWAP1 POP SWAP3 SWAP2 POP POP JUMP JUMPDEST PUSH1 0x0 PUSH2 0x938 DUP3 PUSH2 0x815 JUMP JUMPDEST PUSH2 0x942 DUP2 DUP6 PUSH2 0x91C JUMP JUMPDEST SWAP4 POP PUSH2 0x952 DUP2 DUP6 PUSH1 0x20 DUP7 ADD PUSH2 0x831 JUMP JUMPDEST PUSH2 0x95B DUP2 PUSH2 0x64E JUMP JUMPDEST DUP5 ADD SWAP2 POP POP SWAP3 SWAP2 POP POP JUMP JUMPDEST PUSH2 0x96F DUP2 PUSH2 0x5DE JUMP JUMPDEST DUP3 MSTORE POP POP JUMP JUMPDEST PUSH1 0x0 PUSH1 0x60 DUP3 ADD SWAP1 POP DUP2 DUP2 SUB PUSH1 0x0 DUP4 ADD MSTORE PUSH2 0x98F DUP2 DUP7 PUSH2 0x92D JUMP JUMPDEST SWAP1 POP PUSH2 0x99E PUSH1 0x20 DUP4 ADD DUP6 PUSH2 0x966 JUMP JUMPDEST DUP2 DUP2 SUB PUSH1 0x40 DUP4 ADD MSTORE PUSH2 0x9B0 DUP2 DUP5 PUSH2 0x92D JUMP JUMPDEST SWAP1 POP SWAP5 SWAP4 POP POP POP POP JUMP JUMPDEST PUSH32 0x4E487B7100000000000000000000000000000000000000000000000000000000 PUSH1 0x0 MSTORE PUSH1 0x22 PUSH1 0x4 MSTORE PUSH1 0x24 PUSH1 0x0 REVERT JUMPDEST PUSH1 0x0 PUSH1 0x2 DUP3 DIV SWAP1 POP PUSH1 0x1 DUP3 AND DUP1 PUSH2 0xA01 JUMPI PUSH1 0x7F DUP3 AND SWAP2 POP JUMPDEST PUSH1 0x20 DUP3 LT DUP2 SUB PUSH2 0xA14 JUMPI PUSH2 0xA13 PUSH2 0x9BA JUMP JUMPDEST JUMPDEST POP SWAP2 SWAP1 POP JUMP JUMPDEST PUSH1 0x0 DUP2 SWAP1 POP DUP2 PUSH1 0x0 MSTORE PUSH1 0x20 PUSH1 0x0 KECCAK256 SWAP1 POP SWAP2 SWAP1 POP JUMP JUMPDEST PUSH1 0x0 PUSH1 0x20 PUSH1 0x1F DUP4 ADD DIV SWAP1 POP SWAP2 SWAP1 POP JUMP JUMPDEST PUSH1 0x0 DUP3 DUP3 SHL SWAP1 POP SWAP3 SWAP2 POP POP JUMP JUMPDEST PUSH1 0x0 PUSH1 0x8 DUP4 MUL PUSH2 0xA7C PUSH32 0xFFFFFFFFFFFFFFFFFFFFFFFFFFFFFFFFFFFFFFFFFFFFFFFFFFFFFFFFFFFFFFFF DUP3 PUSH2 0xA3F JUMP JUMPDEST PUSH2 0xA86 DUP7 DUP4 PUSH2 0xA3F JUMP JUMPDEST SWAP6 POP DUP1 NOT DUP5 AND SWAP4 POP DUP1 DUP7 AND DUP5 OR SWAP3 POP POP POP SWAP4 SWAP3 POP POP POP JUMP JUMPDEST PUSH1 0x0 DUP2 SWAP1 POP SWAP2 SWAP1 POP JUMP JUMPDEST PUSH1 0x0 DUP2 SWAP1 POP SWAP2 SWAP1 POP JUMP JUMPDEST PUSH1 0x0 PUSH2 0xACD PUSH2 0xAC8 PUSH2 0xAC3 DUP5 PUSH2 0xA9E JUMP JUMPDEST PUSH2 0xAA8 JUMP JUMPDEST PUSH2 0xA9E JUMP JUMPDEST SWAP1 POP SWAP2 SWAP1 POP JUMP JUMPDEST PUSH1 0x0 DUP2 SWAP1 POP SWAP2 SWAP1 POP JUMP JUMPDEST PUSH2 0xAE7 DUP4 PUSH2 0xAB2 JUMP JUMPDEST PUSH2 0xAFB PUSH2 0xAF3 DUP3 PUSH2 0xAD4 JUMP JUMPDEST DUP5 DUP5 SLOAD PUSH2 0xA4C JUMP JUMPDEST DUP3 SSTORE POP POP POP POP JUMP JUMPDEST PUSH1 0x0 SWAP1 JUMP JUMPDEST PUSH2 0xB10 PUSH2 0xB03 JUMP JUMPDEST PUSH2 0xB1B DUP2 DUP5 DUP5 PUSH2 0xADE JUMP JUMPDEST POP POP POP JUMP JUMPDEST JUMPDEST DUP2 DUP2 LT ISZERO PUSH2 0xB3F JUMPI PUSH2 0xB34 PUSH1 0x0 DUP3 PUSH2 0xB08 JUMP JUMPDEST PUSH1 0x1 DUP2 ADD SWAP1 POP PUSH2 0xB21 JUMP JUMPDEST POP POP JUMP JUMPDEST PUSH1 0x1F DUP3 GT ISZERO PUSH2 0xB84 JUMPI PUSH2 0xB55 DUP2 PUSH2 0xA1A JUMP JUMPDEST PUSH2 0xB5E DUP5 PUSH2 0xA2F JUMP JUMPDEST DUP2 ADD PUSH1 0x20 DUP6 LT ISZERO PUSH2 0xB6D JUMPI DUP2 SWAP1 POP JUMPDEST PUSH2 0xB81 PUSH2 0xB79 DUP6 PUSH2 0xA2F JUMP JUMPDEST DUP4 ADD DUP3 PUSH2 0xB20 JUMP JUMPDEST POP POP JUMPDEST POP POP POP JUMP JUMPDEST PUSH1 0x0 DUP3 DUP3 SHR SWAP1 POP SWAP3 SWAP2 POP POP JUMP JUMPDEST PUSH1 0x0 PUSH2 0xBA7 PUSH1 0x0 NOT DUP5 PUSH1 0x8 MUL PUSH2 0xB89 JUMP JUMPDEST NOT DUP1 DUP4 AND SWAP2 POP POP SWAP3 SWAP2 POP POP JUMP JUMPDEST PUSH1 0x0 PUSH2 0xBC0 DUP4 DUP4 PUSH2 0xB96 JUMP JUMPDEST SWAP2 POP DUP3 PUSH1 0x2 MUL DUP3 OR SWAP1 POP SWAP3 SWAP2 POP POP JUMP JUMPDEST PUSH2 0xBD9 DUP3 PUSH2 0x815 JUMP JUMPDEST PUSH8 0xFFFFFFFFFFFFFFFF DUP2 GT ISZERO PUSH2 0xBF2 JUMPI PUSH2 0xBF1 PUSH2 0x65F JUMP JUMPDEST JUMPDEST PUSH2 0xBFC DUP3 SLOAD PUSH2 0x9E9 JUMP JUMPDEST PUSH2 0xC07 DUP3 DUP3 DUP6 PUSH2 0xB43 JUMP JUMPDEST PUSH1 0x0 PUSH1 0x20 SWAP1 POP PUSH1 0x1F DUP4 GT PUSH1 0x1 DUP2 EQ PUSH2 0xC3A JUMPI PUSH1 0x0 DUP5 ISZERO PUSH2 0xC28 JUMPI DUP3 DUP8 ADD MLOAD SWAP1 POP JUMPDEST PUSH2 0xC32 DUP6 DUP3 PUSH2 0xBB4 JUMP JUMPDEST DUP7 SSTORE POP PUSH2 0xC9A JUMP JUMPDEST PUSH1 0x1F NOT DUP5 AND PUSH2 0xC48 DUP7 PUSH2 0xA1A JUMP JUMPDEST PUSH1 0x0 JUMPDEST DUP3 DUP2 LT ISZERO PUSH2 0xC70 JUMPI DUP5 DUP10 ADD MLOAD DUP3 SSTORE PUSH1 0x1 DUP3 ADD SWAP2 POP PUSH1 0x20 DUP6 ADD SWAP5 POP PUSH1 0x20 DUP2 ADD SWAP1 POP PUSH2 0xC4B JUMP JUMPDEST DUP7 DUP4 LT ISZERO PUSH2 0xC8D JUMPI DUP5 DUP10 ADD MLOAD PUSH2 0xC89 PUSH1 0x1F DUP10 AND DUP3 PUSH2 0xB96 JUMP JUMPDEST DUP4 SSTORE POP JUMPDEST PUSH1 0x1 PUSH1 0x2 DUP9 MUL ADD DUP9 SSTORE POP POP POP JUMPDEST POP POP POP POP POP POP JUMP INVALID LOG2 PUSH5 0x6970667358 0x22 SLT KECCAK256 PUSH6 0x77925817443E LOG2 JUMPDEST PUSH23 0x28B0CD64035D18C7F00D7D366938E9EDDFCC797C168464 PUSH20 0x6F6C634300081200330000000000000000000000 "
				},
				"gasEstimates": {
					"creation": {
						"codeDepositCost": "657600",
						"executionCost": "689",
						"totalCost": "658289"
					},
					"external": {
						"adminUser()": "infinite",
						"getUser()": "infinite",
						"setAge1(uint8)": "infinite",
						"setAge2(uint8)": "24668",
						"setAge4(uint8)": "24785",
						"setUser(string,uint8,string)": "infinite"
					},
					"internal": {
						"setAge3(struct storage_demo.User storage pointer,uint8)": "24286"
					}
				},
				"methodIdentifiers": {
					"adminUser()": "d75eb684",
					"getUser()": "832880e7",
					"setAge1(uint8)": "6835d01e",
					"setAge2(uint8)": "16a23956",
					"setAge4(uint8)": "8f779ceb",
					"setUser(string,uint8,string)": "2d1ca992"
				}
			},
			"storageLayout": {
				"storage": [
					{
						"astId": 11,
						"contract": "baisc/10-storage-demo.sol:storage_demo",
						"label": "adminUser",
						"offset": 0,
						"slot": "0",
						"type": "t_struct(User)8_storage"
					}
				],
				"types": {
					"t_string_storage": {
						"encoding": "bytes",
						"label": "string",
						"numberOfBytes": "32"
					},
					"t_struct(User)8_storage": {
						"encoding": "inplace",
						"label": "struct storage_demo.User",
						"members": [
							{
								"astId": 3,
								"contract": "baisc/10-storage-demo.sol:storage_demo",
								"label": "name",
								"offset": 0,
								"slot": "0",
								"type": "t_string_storage"
							},
							{
								"astId": 5,
								"contract": "baisc/10-storage-demo.sol:storage_demo",
								"label": "age",
								"offset": 0,
								"slot": "1",
								"type": "t_uint8"
							},
							{
								"astId": 7,
								"contract": "baisc/10-storage-demo.sol:storage_demo",
								"label": "sex",
								"offset": 0,
								"slot": "2",
								"type": "t_string_storage"
							}
						],
						"numberOfBytes": "96"
					},
					"t_uint8": {
						"encoding": "inplace",
						"label": "uint8",
						"numberOfBytes": "1"
					}
				}
			},
			"userdoc": {
				"kind": "user",
				"methods": {},
				"version": 1
			}
		}
	}
}