{
	"chapter-4/my.sol": {
		"My": {
			"abi": [
				{
					"inputs": [],
					"name": "a",
					"outputs": [
						{
							"internalType": "address",
							"name": "",
							"type": "address"
						}
					],
					"stateMutability": "view",
					"type": "function"
				},
				{
					"inputs": [],
					"name": "name",
					"outputs": [
						{
							"internalType": "address payable",
							"name": "",
							"type": "address"
						}
					],
					"stateMutability": "view",
					"type": "function"
				},
				{
					"inputs": [],
					"name": "name2",
					"outputs": [
						{
							"internalType": "uint160",
							"name": "",
							"type": "uint160"
						}
					],
					"stateMutability": "view",
					"type": "function"
				},
				{
					"inputs": [
						{
							"internalType": "uint160",
							"name": "_a",
							"type": "uint160"
						}
					],
					"name": "name3",
					"outputs": [
						{
							"internalType": "address",
							"name": "",
							"type": "address"
						}
					],
					"stateMutability": "pure",
					"type": "function"
				},
				{
					"inputs": [],
					"name": "name4",
					"outputs": [
						{
							"internalType": "bytes20",
							"name": "",
							"type": "bytes20"
						}
					],
					"stateMutability": "view",
					"type": "function"
				},
				{
					"inputs": [
						{
							"internalType": "bytes20",
							"name": "_a",
							"type": "bytes20"
						}
					],
					"name": "name5",
					"outputs": [
						{
							"internalType": "address",
							"name": "",
							"type": "address"
						}
					],
					"stateMutability": "pure",
					"type": "function"
				}
			],
			"devdoc": {
				"kind": "dev",
				"methods": {},
				"version": 1
			},
			"evm": {
				"assembly": "    /* \"chapter-4/my.sol\":79:1165  contract My {... */\n  mstore(0x40, 0x80)\n    /* \"chapter-4/my.sol\":161:203  0x5B38Da6a701c568545dCfcB03FcB875f56beddC4 */\n  0x5b38da6a701c568545dcfcb03fcb875f56beddc4\n    /* \"chapter-4/my.sol\":142:203  address public a = 0x5B38Da6a701c568545dCfcB03FcB875f56beddC4 */\n  0x00\n  exp(0x0100, 0x00)\n  dup2\n  sload\n  dup2\n  0xffffffffffffffffffffffffffffffffffffffff\n  mul\n  not\n  and\n  swap1\n  dup4\n  0xffffffffffffffffffffffffffffffffffffffff\n  and\n  mul\n  or\n  swap1\n  sstore\n  pop\n    /* \"chapter-4/my.sol\":79:1165  contract My {... */\n  callvalue\n  dup1\n  iszero\n  tag_1\n  jumpi\n  revert(0x00, 0x00)\ntag_1:\n  pop\n  dataSize(sub_0)\n  dup1\n  dataOffset(sub_0)\n  0x00\n  codecopy\n  0x00\n  return\nstop\n\nsub_0: assembly {\n        /* \"chapter-4/my.sol\":79:1165  contract My {... */\n      mstore(0x40, 0x80)\n      callvalue\n      dup1\n      iszero\n      tag_1\n      jumpi\n      revert(0x00, 0x00)\n    tag_1:\n      pop\n      jumpi(tag_2, lt(calldatasize, 0x04))\n      shr(0xe0, calldataload(0x00))\n      dup1\n      0x06fdde03\n      eq\n      tag_3\n      jumpi\n      dup1\n      0x0dbe671f\n      eq\n      tag_4\n      jumpi\n      dup1\n      0x318ad8c7\n      eq\n      tag_5\n      jumpi\n      dup1\n      0x4b67f6af\n      eq\n      tag_6\n      jumpi\n      dup1\n      0x917051ed\n      eq\n      tag_7\n      jumpi\n      dup1\n      0xc742f7ef\n      eq\n      tag_8\n      jumpi\n    tag_2:\n      revert(0x00, 0x00)\n        /* \"chapter-4/my.sol\":313:401  function name() public view returns(address payable){... */\n    tag_3:\n      tag_9\n      tag_10\n      jump\t// in\n    tag_9:\n      mload(0x40)\n      tag_11\n      swap2\n      swap1\n      tag_12\n      jump\t// in\n    tag_11:\n      mload(0x40)\n      dup1\n      swap2\n      sub\n      swap1\n      return\n        /* \"chapter-4/my.sol\":142:203  address public a = 0x5B38Da6a701c568545dCfcB03FcB875f56beddC4 */\n    tag_4:\n      tag_13\n      tag_14\n      jump\t// in\n    tag_13:\n      mload(0x40)\n      tag_15\n      swap2\n      swap1\n      tag_16\n      jump\t// in\n    tag_15:\n      mload(0x40)\n      dup1\n      swap2\n      sub\n      swap1\n      return\n        /* \"chapter-4/my.sol\":669:762  function name3(uint160 _a) public pure returns (address){... */\n    tag_5:\n      tag_17\n      0x04\n      dup1\n      calldatasize\n      sub\n      dup2\n      add\n      swap1\n      tag_18\n      swap2\n      swap1\n      tag_19\n      jump\t// in\n    tag_18:\n      tag_20\n      jump\t// in\n    tag_17:\n      mload(0x40)\n      tag_21\n      swap2\n      swap1\n      tag_16\n      jump\t// in\n    tag_21:\n      mload(0x40)\n      dup1\n      swap2\n      sub\n      swap1\n      return\n        /* \"chapter-4/my.sol\":498:580  function name2() public view returns (uint160){... */\n    tag_6:\n      tag_22\n      tag_23\n      jump\t// in\n    tag_22:\n      mload(0x40)\n      tag_24\n      swap2\n      swap1\n      tag_25\n      jump\t// in\n    tag_24:\n      mload(0x40)\n      dup1\n      swap2\n      sub\n      swap1\n      return\n        /* \"chapter-4/my.sol\":812:895  function name4() public view returns (bytes20) {... */\n    tag_7:\n      tag_26\n      tag_27\n      jump\t// in\n    tag_26:\n      mload(0x40)\n      tag_28\n      swap2\n      swap1\n      tag_29\n      jump\t// in\n    tag_28:\n      mload(0x40)\n      dup1\n      swap2\n      sub\n      swap1\n      return\n        /* \"chapter-4/my.sol\":945:1039  function name5(bytes20 _a) public pure returns (address) {... */\n    tag_8:\n      tag_30\n      0x04\n      dup1\n      calldatasize\n      sub\n      dup2\n      add\n      swap1\n      tag_31\n      swap2\n      swap1\n      tag_32\n      jump\t// in\n    tag_31:\n      tag_33\n      jump\t// in\n    tag_30:\n      mload(0x40)\n      tag_34\n      swap2\n      swap1\n      tag_16\n      jump\t// in\n    tag_34:\n      mload(0x40)\n      dup1\n      swap2\n      sub\n      swap1\n      return\n        /* \"chapter-4/my.sol\":313:401  function name() public view returns(address payable){... */\n    tag_10:\n        /* \"chapter-4/my.sol\":349:364  address payable */\n      0x00\n        /* \"chapter-4/my.sol\":391:392  a */\n      0x00\n      0x00\n      swap1\n      sload\n      swap1\n      0x0100\n      exp\n      swap1\n      div\n      0xffffffffffffffffffffffffffffffffffffffff\n      and\n        /* \"chapter-4/my.sol\":376:393  return payable(a) */\n      swap1\n      pop\n        /* \"chapter-4/my.sol\":313:401  function name() public view returns(address payable){... */\n      swap1\n      jump\t// out\n        /* \"chapter-4/my.sol\":142:203  address public a = 0x5B38Da6a701c568545dCfcB03FcB875f56beddC4 */\n    tag_14:\n      0x00\n      0x00\n      swap1\n      sload\n      swap1\n      0x0100\n      exp\n      swap1\n      div\n      0xffffffffffffffffffffffffffffffffffffffff\n      and\n      dup2\n      jump\t// out\n        /* \"chapter-4/my.sol\":669:762  function name3(uint160 _a) public pure returns (address){... */\n    tag_20:\n        /* \"chapter-4/my.sol\":717:724  address */\n      0x00\n        /* \"chapter-4/my.sol\":751:753  _a */\n      dup2\n        /* \"chapter-4/my.sol\":736:754  return address(_a) */\n      swap1\n      pop\n        /* \"chapter-4/my.sol\":669:762  function name3(uint160 _a) public pure returns (address){... */\n      swap2\n      swap1\n      pop\n      jump\t// out\n        /* \"chapter-4/my.sol\":498:580  function name2() public view returns (uint160){... */\n    tag_23:\n        /* \"chapter-4/my.sol\":536:543  uint160 */\n      0x00\n        /* \"chapter-4/my.sol\":570:571  a */\n      0x00\n      0x00\n      swap1\n      sload\n      swap1\n      0x0100\n      exp\n      swap1\n      div\n      0xffffffffffffffffffffffffffffffffffffffff\n      and\n        /* \"chapter-4/my.sol\":555:572  return uint160(a) */\n      swap1\n      pop\n        /* \"chapter-4/my.sol\":498:580  function name2() public view returns (uint160){... */\n      swap1\n      jump\t// out\n        /* \"chapter-4/my.sol\":812:895  function name4() public view returns (bytes20) {... */\n    tag_27:\n        /* \"chapter-4/my.sol\":850:857  bytes20 */\n      0x00\n        /* \"chapter-4/my.sol\":885:886  a */\n      0x00\n      0x00\n      swap1\n      sload\n      swap1\n      0x0100\n      exp\n      swap1\n      div\n      0xffffffffffffffffffffffffffffffffffffffff\n      and\n        /* \"chapter-4/my.sol\":877:887  bytes20(a) */\n      0x60\n      shl\n        /* \"chapter-4/my.sol\":870:887  return bytes20(a) */\n      swap1\n      pop\n        /* \"chapter-4/my.sol\":812:895  function name4() public view returns (bytes20) {... */\n      swap1\n      jump\t// out\n        /* \"chapter-4/my.sol\":945:1039  function name5(bytes20 _a) public pure returns (address) {... */\n    tag_33:\n        /* \"chapter-4/my.sol\":993:1000  address */\n      0x00\n        /* \"chapter-4/my.sol\":1028:1030  _a */\n      dup2\n        /* \"chapter-4/my.sol\":1020:1031  address(_a) */\n      0x60\n      shr\n        /* \"chapter-4/my.sol\":1013:1031  return address(_a) */\n      swap1\n      pop\n        /* \"chapter-4/my.sol\":945:1039  function name5(bytes20 _a) public pure returns (address) {... */\n      swap2\n      swap1\n      pop\n      jump\t// out\n        /* \"#utility.yul\":7:133   */\n    tag_40:\n        /* \"#utility.yul\":44:51   */\n      0x00\n        /* \"#utility.yul\":84:126   */\n      0xffffffffffffffffffffffffffffffffffffffff\n        /* \"#utility.yul\":77:82   */\n      dup3\n        /* \"#utility.yul\":73:127   */\n      and\n        /* \"#utility.yul\":62:127   */\n      swap1\n      pop\n        /* \"#utility.yul\":7:133   */\n      swap2\n      swap1\n      pop\n      jump\t// out\n        /* \"#utility.yul\":139:243   */\n    tag_41:\n        /* \"#utility.yul\":184:191   */\n      0x00\n        /* \"#utility.yul\":213:237   */\n      tag_58\n        /* \"#utility.yul\":231:236   */\n      dup3\n        /* \"#utility.yul\":213:237   */\n      tag_40\n      jump\t// in\n    tag_58:\n        /* \"#utility.yul\":202:237   */\n      swap1\n      pop\n        /* \"#utility.yul\":139:243   */\n      swap2\n      swap1\n      pop\n      jump\t// out\n        /* \"#utility.yul\":249:391   */\n    tag_42:\n        /* \"#utility.yul\":352:384   */\n      tag_60\n        /* \"#utility.yul\":378:383   */\n      dup2\n        /* \"#utility.yul\":352:384   */\n      tag_41\n      jump\t// in\n    tag_60:\n        /* \"#utility.yul\":347:350   */\n      dup3\n        /* \"#utility.yul\":340:385   */\n      mstore\n        /* \"#utility.yul\":249:391   */\n      pop\n      pop\n      jump\t// out\n        /* \"#utility.yul\":397:651   */\n    tag_12:\n        /* \"#utility.yul\":506:510   */\n      0x00\n        /* \"#utility.yul\":544:546   */\n      0x20\n        /* \"#utility.yul\":533:542   */\n      dup3\n        /* \"#utility.yul\":529:547   */\n      add\n        /* \"#utility.yul\":521:547   */\n      swap1\n      pop\n        /* \"#utility.yul\":557:644   */\n      tag_62\n        /* \"#utility.yul\":641:642   */\n      0x00\n        /* \"#utility.yul\":630:639   */\n      dup4\n        /* \"#utility.yul\":626:643   */\n      add\n        /* \"#utility.yul\":617:623   */\n      dup5\n        /* \"#utility.yul\":557:644   */\n      tag_42\n      jump\t// in\n    tag_62:\n        /* \"#utility.yul\":397:651   */\n      swap3\n      swap2\n      pop\n      pop\n      jump\t// out\n        /* \"#utility.yul\":657:753   */\n    tag_43:\n        /* \"#utility.yul\":694:701   */\n      0x00\n        /* \"#utility.yul\":723:747   */\n      tag_64\n        /* \"#utility.yul\":741:746   */\n      dup3\n        /* \"#utility.yul\":723:747   */\n      tag_40\n      jump\t// in\n    tag_64:\n        /* \"#utility.yul\":712:747   */\n      swap1\n      pop\n        /* \"#utility.yul\":657:753   */\n      swap2\n      swap1\n      pop\n      jump\t// out\n        /* \"#utility.yul\":759:877   */\n    tag_44:\n        /* \"#utility.yul\":846:870   */\n      tag_66\n        /* \"#utility.yul\":864:869   */\n      dup2\n        /* \"#utility.yul\":846:870   */\n      tag_43\n      jump\t// in\n    tag_66:\n        /* \"#utility.yul\":841:844   */\n      dup3\n        /* \"#utility.yul\":834:871   */\n      mstore\n        /* \"#utility.yul\":759:877   */\n      pop\n      pop\n      jump\t// out\n        /* \"#utility.yul\":883:1105   */\n    tag_16:\n        /* \"#utility.yul\":976:980   */\n      0x00\n        /* \"#utility.yul\":1014:1016   */\n      0x20\n        /* \"#utility.yul\":1003:1012   */\n      dup3\n        /* \"#utility.yul\":999:1017   */\n      add\n        /* \"#utility.yul\":991:1017   */\n      swap1\n      pop\n        /* \"#utility.yul\":1027:1098   */\n      tag_68\n        /* \"#utility.yul\":1095:1096   */\n      0x00\n        /* \"#utility.yul\":1084:1093   */\n      dup4\n        /* \"#utility.yul\":1080:1097   */\n      add\n        /* \"#utility.yul\":1071:1077   */\n      dup5\n        /* \"#utility.yul\":1027:1098   */\n      tag_44\n      jump\t// in\n    tag_68:\n        /* \"#utility.yul\":883:1105   */\n      swap3\n      swap2\n      pop\n      pop\n      jump\t// out\n        /* \"#utility.yul\":1192:1309   */\n    tag_46:\n        /* \"#utility.yul\":1301:1302   */\n      0x00\n        /* \"#utility.yul\":1298:1299   */\n      0x00\n        /* \"#utility.yul\":1291:1303   */\n      revert\n        /* \"#utility.yul\":1438:1560   */\n    tag_48:\n        /* \"#utility.yul\":1511:1535   */\n      tag_73\n        /* \"#utility.yul\":1529:1534   */\n      dup2\n        /* \"#utility.yul\":1511:1535   */\n      tag_40\n      jump\t// in\n    tag_73:\n        /* \"#utility.yul\":1504:1509   */\n      dup2\n        /* \"#utility.yul\":1501:1536   */\n      eq\n        /* \"#utility.yul\":1491:1554   */\n      tag_74\n      jumpi\n        /* \"#utility.yul\":1550:1551   */\n      0x00\n        /* \"#utility.yul\":1547:1548   */\n      0x00\n        /* \"#utility.yul\":1540:1552   */\n      revert\n        /* \"#utility.yul\":1491:1554   */\n    tag_74:\n        /* \"#utility.yul\":1438:1560   */\n      pop\n      jump\t// out\n        /* \"#utility.yul\":1566:1705   */\n    tag_49:\n        /* \"#utility.yul\":1612:1617   */\n      0x00\n        /* \"#utility.yul\":1650:1656   */\n      dup2\n        /* \"#utility.yul\":1637:1657   */\n      calldataload\n        /* \"#utility.yul\":1628:1657   */\n      swap1\n      pop\n        /* \"#utility.yul\":1666:1699   */\n      tag_76\n        /* \"#utility.yul\":1693:1698   */\n      dup2\n        /* \"#utility.yul\":1666:1699   */\n      tag_48\n      jump\t// in\n    tag_76:\n        /* \"#utility.yul\":1566:1705   */\n      swap3\n      swap2\n      pop\n      pop\n      jump\t// out\n        /* \"#utility.yul\":1711:2040   */\n    tag_19:\n        /* \"#utility.yul\":1770:1776   */\n      0x00\n        /* \"#utility.yul\":1819:1821   */\n      0x20\n        /* \"#utility.yul\":1807:1816   */\n      dup3\n        /* \"#utility.yul\":1798:1805   */\n      dup5\n        /* \"#utility.yul\":1794:1817   */\n      sub\n        /* \"#utility.yul\":1790:1822   */\n      slt\n        /* \"#utility.yul\":1787:1906   */\n      iszero\n      tag_78\n      jumpi\n        /* \"#utility.yul\":1825:1904   */\n      tag_79\n      tag_46\n      jump\t// in\n    tag_79:\n        /* \"#utility.yul\":1787:1906   */\n    tag_78:\n        /* \"#utility.yul\":1945:1946   */\n      0x00\n        /* \"#utility.yul\":1970:2023   */\n      tag_80\n        /* \"#utility.yul\":2015:2022   */\n      dup5\n        /* \"#utility.yul\":2006:2012   */\n      dup3\n        /* \"#utility.yul\":1995:2004   */\n      dup6\n        /* \"#utility.yul\":1991:2013   */\n      add\n        /* \"#utility.yul\":1970:2023   */\n      tag_49\n      jump\t// in\n    tag_80:\n        /* \"#utility.yul\":1960:2023   */\n      swap2\n      pop\n        /* \"#utility.yul\":1916:2033   */\n      pop\n        /* \"#utility.yul\":1711:2040   */\n      swap3\n      swap2\n      pop\n      pop\n      jump\t// out\n        /* \"#utility.yul\":2046:2164   */\n    tag_50:\n        /* \"#utility.yul\":2133:2157   */\n      tag_82\n        /* \"#utility.yul\":2151:2156   */\n      dup2\n        /* \"#utility.yul\":2133:2157   */\n      tag_40\n      jump\t// in\n    tag_82:\n        /* \"#utility.yul\":2128:2131   */\n      dup3\n        /* \"#utility.yul\":2121:2158   */\n      mstore\n        /* \"#utility.yul\":2046:2164   */\n      pop\n      pop\n      jump\t// out\n        /* \"#utility.yul\":2170:2392   */\n    tag_25:\n        /* \"#utility.yul\":2263:2267   */\n      0x00\n        /* \"#utility.yul\":2301:2303   */\n      0x20\n        /* \"#utility.yul\":2290:2299   */\n      dup3\n        /* \"#utility.yul\":2286:2304   */\n      add\n        /* \"#utility.yul\":2278:2304   */\n      swap1\n      pop\n        /* \"#utility.yul\":2314:2385   */\n      tag_84\n        /* \"#utility.yul\":2382:2383   */\n      0x00\n        /* \"#utility.yul\":2371:2380   */\n      dup4\n        /* \"#utility.yul\":2367:2384   */\n      add\n        /* \"#utility.yul\":2358:2364   */\n      dup5\n        /* \"#utility.yul\":2314:2385   */\n      tag_50\n      jump\t// in\n    tag_84:\n        /* \"#utility.yul\":2170:2392   */\n      swap3\n      swap2\n      pop\n      pop\n      jump\t// out\n        /* \"#utility.yul\":2398:2548   */\n    tag_51:\n        /* \"#utility.yul\":2435:2442   */\n      0x00\n        /* \"#utility.yul\":2475:2541   */\n      0xffffffffffffffffffffffffffffffffffffffff000000000000000000000000\n        /* \"#utility.yul\":2468:2473   */\n      dup3\n        /* \"#utility.yul\":2464:2542   */\n      and\n        /* \"#utility.yul\":2453:2542   */\n      swap1\n      pop\n        /* \"#utility.yul\":2398:2548   */\n      swap2\n      swap1\n      pop\n      jump\t// out\n        /* \"#utility.yul\":2554:2672   */\n    tag_52:\n        /* \"#utility.yul\":2641:2665   */\n      tag_87\n        /* \"#utility.yul\":2659:2664   */\n      dup2\n        /* \"#utility.yul\":2641:2665   */\n      tag_51\n      jump\t// in\n    tag_87:\n        /* \"#utility.yul\":2636:2639   */\n      dup3\n        /* \"#utility.yul\":2629:2666   */\n      mstore\n        /* \"#utility.yul\":2554:2672   */\n      pop\n      pop\n      jump\t// out\n        /* \"#utility.yul\":2678:2900   */\n    tag_29:\n        /* \"#utility.yul\":2771:2775   */\n      0x00\n        /* \"#utility.yul\":2809:2811   */\n      0x20\n        /* \"#utility.yul\":2798:2807   */\n      dup3\n        /* \"#utility.yul\":2794:2812   */\n      add\n        /* \"#utility.yul\":2786:2812   */\n      swap1\n      pop\n        /* \"#utility.yul\":2822:2893   */\n      tag_89\n        /* \"#utility.yul\":2890:2891   */\n      0x00\n        /* \"#utility.yul\":2879:2888   */\n      dup4\n        /* \"#utility.yul\":2875:2892   */\n      add\n        /* \"#utility.yul\":2866:2872   */\n      dup5\n        /* \"#utility.yul\":2822:2893   */\n      tag_52\n      jump\t// in\n    tag_89:\n        /* \"#utility.yul\":2678:2900   */\n      swap3\n      swap2\n      pop\n      pop\n      jump\t// out\n        /* \"#utility.yul\":2906:3028   */\n    tag_53:\n        /* \"#utility.yul\":2979:3003   */\n      tag_91\n        /* \"#utility.yul\":2997:3002   */\n      dup2\n        /* \"#utility.yul\":2979:3003   */\n      tag_51\n      jump\t// in\n    tag_91:\n        /* \"#utility.yul\":2972:2977   */\n      dup2\n        /* \"#utility.yul\":2969:3004   */\n      eq\n        /* \"#utility.yul\":2959:3022   */\n      tag_92\n      jumpi\n        /* \"#utility.yul\":3018:3019   */\n      0x00\n        /* \"#utility.yul\":3015:3016   */\n      0x00\n        /* \"#utility.yul\":3008:3020   */\n      revert\n        /* \"#utility.yul\":2959:3022   */\n    tag_92:\n        /* \"#utility.yul\":2906:3028   */\n      pop\n      jump\t// out\n        /* \"#utility.yul\":3034:3173   */\n    tag_54:\n        /* \"#utility.yul\":3080:3085   */\n      0x00\n        /* \"#utility.yul\":3118:3124   */\n      dup2\n        /* \"#utility.yul\":3105:3125   */\n      calldataload\n        /* \"#utility.yul\":3096:3125   */\n      swap1\n      pop\n        /* \"#utility.yul\":3134:3167   */\n      tag_94\n        /* \"#utility.yul\":3161:3166   */\n      dup2\n        /* \"#utility.yul\":3134:3167   */\n      tag_53\n      jump\t// in\n    tag_94:\n        /* \"#utility.yul\":3034:3173   */\n      swap3\n      swap2\n      pop\n      pop\n      jump\t// out\n        /* \"#utility.yul\":3179:3508   */\n    tag_32:\n        /* \"#utility.yul\":3238:3244   */\n      0x00\n        /* \"#utility.yul\":3287:3289   */\n      0x20\n        /* \"#utility.yul\":3275:3284   */\n      dup3\n        /* \"#utility.yul\":3266:3273   */\n      dup5\n        /* \"#utility.yul\":3262:3285   */\n      sub\n        /* \"#utility.yul\":3258:3290   */\n      slt\n        /* \"#utility.yul\":3255:3374   */\n      iszero\n      tag_96\n      jumpi\n        /* \"#utility.yul\":3293:3372   */\n      tag_97\n      tag_46\n      jump\t// in\n    tag_97:\n        /* \"#utility.yul\":3255:3374   */\n    tag_96:\n        /* \"#utility.yul\":3413:3414   */\n      0x00\n        /* \"#utility.yul\":3438:3491   */\n      tag_98\n        /* \"#utility.yul\":3483:3490   */\n      dup5\n        /* \"#utility.yul\":3474:3480   */\n      dup3\n        /* \"#utility.yul\":3463:3472   */\n      dup6\n        /* \"#utility.yul\":3459:3481   */\n      add\n        /* \"#utility.yul\":3438:3491   */\n      tag_54\n      jump\t// in\n    tag_98:\n        /* \"#utility.yul\":3428:3491   */\n      swap2\n      pop\n        /* \"#utility.yul\":3384:3501   */\n      pop\n        /* \"#utility.yul\":3179:3508   */\n      swap3\n      swap2\n      pop\n      pop\n      jump\t// out\n\n    auxdata: 0xa2646970667358221220982c1564220b8692cc88ba159e42eab7d73e82eab02509a62bd45cbe1fae465464736f6c634300081e0033\n}\n",
				"bytecode": {
					"linkReferences": {},
					"object": "6080604052735b38da6a701c568545dcfcb03fcb875f56beddc45f5f6101000a81548173ffffffffffffffffffffffffffffffffffffffff021916908373ffffffffffffffffffffffffffffffffffffffff1602179055503480156061575f5ffd5b506103dd8061006f5f395ff3fe608060405234801561000f575f5ffd5b5060043610610060575f3560e01c806306fdde03146100645780630dbe671f14610082578063318ad8c7146100a05780634b67f6af146100d0578063917051ed146100ee578063c742f7ef1461010c575b5f5ffd5b61006c61013c565b604051610079919061022c565b60405180910390f35b61008a610163565b6040516100979190610265565b60405180910390f35b6100ba60048036038101906100b591906102ac565b610187565b6040516100c79190610265565b60405180910390f35b6100d8610190565b6040516100e591906102e6565b60405180910390f35b6100f66101b7565b6040516101039190610339565b60405180910390f35b6101266004803603810190610121919061037c565b6101e1565b6040516101339190610265565b60405180910390f35b5f5f5f9054906101000a900473ffffffffffffffffffffffffffffffffffffffff16905090565b5f5f9054906101000a900473ffffffffffffffffffffffffffffffffffffffff1681565b5f819050919050565b5f5f5f9054906101000a900473ffffffffffffffffffffffffffffffffffffffff16905090565b5f5f5f9054906101000a900473ffffffffffffffffffffffffffffffffffffffff1660601b905090565b5f8160601c9050919050565b5f73ffffffffffffffffffffffffffffffffffffffff82169050919050565b5f610216826101ed565b9050919050565b6102268161020c565b82525050565b5f60208201905061023f5f83018461021d565b92915050565b5f61024f826101ed565b9050919050565b61025f81610245565b82525050565b5f6020820190506102785f830184610256565b92915050565b5f5ffd5b61028b816101ed565b8114610295575f5ffd5b50565b5f813590506102a681610282565b92915050565b5f602082840312156102c1576102c061027e565b5b5f6102ce84828501610298565b91505092915050565b6102e0816101ed565b82525050565b5f6020820190506102f95f8301846102d7565b92915050565b5f7fffffffffffffffffffffffffffffffffffffffff00000000000000000000000082169050919050565b610333816102ff565b82525050565b5f60208201905061034c5f83018461032a565b92915050565b61035b816102ff565b8114610365575f5ffd5b50565b5f8135905061037681610352565b92915050565b5f602082840312156103915761039061027e565b5b5f61039e84828501610368565b9150509291505056fea2646970667358221220982c1564220b8692cc88ba159e42eab7d73e82eab02509a62bd45cbe1fae465464736f6c634300081e0033",
					"opcodes": "PUSH1 0x80 PUSH1 0x40 MSTORE PUSH20 0x5B38DA6A701C568545DCFCB03FCB875F56BEDDC4 PUSH0 PUSH0 PUSH2 0x100 EXP DUP2 SLOAD DUP2 PUSH20 0xFFFFFFFFFFFFFFFFFFFFFFFFFFFFFFFFFFFFFFFF MUL NOT AND SWAP1 DUP4 PUSH20 0xFFFFFFFFFFFFFFFFFFFFFFFFFFFFFFFFFFFFFFFF AND MUL OR SWAP1 SSTORE POP CALLVALUE DUP1 ISZERO PUSH1 0x61 JUMPI PUSH0 PUSH0 REVERT JUMPDEST POP PUSH2 0x3DD DUP1 PUSH2 0x6F PUSH0 CODECOPY PUSH0 RETURN INVALID PUSH1 0x80 PUSH1 0x40 MSTORE CALLVALUE DUP1 ISZERO PUSH2 0xF JUMPI PUSH0 PUSH0 REVERT JUMPDEST POP PUSH1 0x4 CALLDATASIZE LT PUSH2 0x60 JUMPI PUSH0 CALLDATALOAD PUSH1 0xE0 SHR DUP1 PUSH4 0x6FDDE03 EQ PUSH2 0x64 JUMPI DUP1 PUSH4 0xDBE671F EQ PUSH2 0x82 JUMPI DUP1 PUSH4 0x318AD8C7 EQ PUSH2 0xA0 JUMPI DUP1 PUSH4 0x4B67F6AF EQ PUSH2 0xD0 JUMPI DUP1 PUSH4 0x917051ED EQ PUSH2 0xEE JUMPI DUP1 PUSH4 0xC742F7EF EQ PUSH2 0x10C JUMPI JUMPDEST PUSH0 PUSH0 REVERT JUMPDEST PUSH2 0x6C PUSH2 0x13C JUMP JUMPDEST PUSH1 0x40 MLOAD PUSH2 0x79 SWAP2 SWAP1 PUSH2 0x22C JUMP JUMPDEST PUSH1 0x40 MLOAD DUP1 SWAP2 SUB SWAP1 RETURN JUMPDEST PUSH2 0x8A PUSH2 0x163 JUMP JUMPDEST PUSH1 0x40 MLOAD PUSH2 0x97 SWAP2 SWAP1 PUSH2 0x265 JUMP JUMPDEST PUSH1 0x40 MLOAD DUP1 SWAP2 SUB SWAP1 RETURN JUMPDEST PUSH2 0xBA PUSH1 0x4 DUP1 CALLDATASIZE SUB DUP2 ADD SWAP1 PUSH2 0xB5 SWAP2 SWAP1 PUSH2 0x2AC JUMP JUMPDEST PUSH2 0x187 JUMP JUMPDEST PUSH1 0x40 MLOAD PUSH2 0xC7 SWAP2 SWAP1 PUSH2 0x265 JUMP JUMPDEST PUSH1 0x40 MLOAD DUP1 SWAP2 SUB SWAP1 RETURN JUMPDEST PUSH2 0xD8 PUSH2 0x190 JUMP JUMPDEST PUSH1 0x40 MLOAD PUSH2 0xE5 SWAP2 SWAP1 PUSH2 0x2E6 JUMP JUMPDEST PUSH1 0x40 MLOAD DUP1 SWAP2 SUB SWAP1 RETURN JUMPDEST PUSH2 0xF6 PUSH2 0x1B7 JUMP JUMPDEST PUSH1 0x40 MLOAD PUSH2 0x103 SWAP2 SWAP1 PUSH2 0x339 JUMP JUMPDEST PUSH1 0x40 MLOAD DUP1 SWAP2 SUB SWAP1 RETURN JUMPDEST PUSH2 0x126 PUSH1 0x4 DUP1 CALLDATASIZE SUB DUP2 ADD SWAP1 PUSH2 0x121 SWAP2 SWAP1 PUSH2 0x37C JUMP JUMPDEST PUSH2 0x1E1 JUMP JUMPDEST PUSH1 0x40 MLOAD PUSH2 0x133 SWAP2 SWAP1 PUSH2 0x265 JUMP JUMPDEST PUSH1 0x40 MLOAD DUP1 SWAP2 SUB SWAP1 RETURN JUMPDEST PUSH0 PUSH0 PUSH0 SWAP1 SLOAD SWAP1 PUSH2 0x100 EXP SWAP1 DIV PUSH20 0xFFFFFFFFFFFFFFFFFFFFFFFFFFFFFFFFFFFFFFFF AND SWAP1 POP SWAP1 JUMP JUMPDEST PUSH0 PUSH0 SWAP1 SLOAD SWAP1 PUSH2 0x100 EXP SWAP1 DIV PUSH20 0xFFFFFFFFFFFFFFFFFFFFFFFFFFFFFFFFFFFFFFFF AND DUP2 JUMP JUMPDEST PUSH0 DUP2 SWAP1 POP SWAP2 SWAP1 POP JUMP JUMPDEST PUSH0 PUSH0 PUSH0 SWAP1 SLOAD SWAP1 PUSH2 0x100 EXP SWAP1 DIV PUSH20 0xFFFFFFFFFFFFFFFFFFFFFFFFFFFFFFFFFFFFFFFF AND SWAP1 POP SWAP1 JUMP JUMPDEST PUSH0 PUSH0 PUSH0 SWAP1 SLOAD SWAP1 PUSH2 0x100 EXP SWAP1 DIV PUSH20 0xFFFFFFFFFFFFFFFFFFFFFFFFFFFFFFFFFFFFFFFF AND PUSH1 0x60 SHL SWAP1 POP SWAP1 JUMP JUMPDEST PUSH0 DUP2 PUSH1 0x60 SHR SWAP1 POP SWAP2 SWAP1 POP JUMP JUMPDEST PUSH0 PUSH20 0xFFFFFFFFFFFFFFFFFFFFFFFFFFFFFFFFFFFFFFFF DUP3 AND SWAP1 POP SWAP2 SWAP1 POP JUMP JUMPDEST PUSH0 PUSH2 0x216 DUP3 PUSH2 0x1ED JUMP JUMPDEST SWAP1 POP SWAP2 SWAP1 POP JUMP JUMPDEST PUSH2 0x226 DUP2 PUSH2 0x20C JUMP JUMPDEST DUP3 MSTORE POP POP JUMP JUMPDEST PUSH0 PUSH1 0x20 DUP3 ADD SWAP1 POP PUSH2 0x23F PUSH0 DUP4 ADD DUP5 PUSH2 0x21D JUMP JUMPDEST SWAP3 SWAP2 POP POP JUMP JUMPDEST PUSH0 PUSH2 0x24F DUP3 PUSH2 0x1ED JUMP JUMPDEST SWAP1 POP SWAP2 SWAP1 POP JUMP JUMPDEST PUSH2 0x25F DUP2 PUSH2 0x245 JUMP JUMPDEST DUP3 MSTORE POP POP JUMP JUMPDEST PUSH0 PUSH1 0x20 DUP3 ADD SWAP1 POP PUSH2 0x278 PUSH0 DUP4 ADD DUP5 PUSH2 0x256 JUMP JUMPDEST SWAP3 SWAP2 POP POP JUMP JUMPDEST PUSH0 PUSH0 REVERT JUMPDEST PUSH2 0x28B DUP2 PUSH2 0x1ED JUMP JUMPDEST DUP2 EQ PUSH2 0x295 JUMPI PUSH0 PUSH0 REVERT JUMPDEST POP JUMP JUMPDEST PUSH0 DUP2 CALLDATALOAD SWAP1 POP PUSH2 0x2A6 DUP2 PUSH2 0x282 JUMP JUMPDEST SWAP3 SWAP2 POP POP JUMP JUMPDEST PUSH0 PUSH1 0x20 DUP3 DUP5 SUB SLT ISZERO PUSH2 0x2C1 JUMPI PUSH2 0x2C0 PUSH2 0x27E JUMP JUMPDEST JUMPDEST PUSH0 PUSH2 0x2CE DUP5 DUP3 DUP6 ADD PUSH2 0x298 JUMP JUMPDEST SWAP2 POP POP SWAP3 SWAP2 POP POP JUMP JUMPDEST PUSH2 0x2E0 DUP2 PUSH2 0x1ED JUMP JUMPDEST DUP3 MSTORE POP POP JUMP JUMPDEST PUSH0 PUSH1 0x20 DUP3 ADD SWAP1 POP PUSH2 0x2F9 PUSH0 DUP4 ADD DUP5 PUSH2 0x2D7 JUMP JUMPDEST SWAP3 SWAP2 POP POP JUMP JUMPDEST PUSH0 PUSH32 0xFFFFFFFFFFFFFFFFFFFFFFFFFFFFFFFFFFFFFFFF000000000000000000000000 DUP3 AND SWAP1 POP SWAP2 SWAP1 POP JUMP JUMPDEST PUSH2 0x333 DUP2 PUSH2 0x2FF JUMP JUMPDEST DUP3 MSTORE POP POP JUMP JUMPDEST PUSH0 PUSH1 0x20 DUP3 ADD SWAP1 POP PUSH2 0x34C PUSH0 DUP4 ADD DUP5 PUSH2 0x32A JUMP JUMPDEST SWAP3 SWAP2 POP POP JUMP JUMPDEST PUSH2 0x35B DUP2 PUSH2 0x2FF JUMP JUMPDEST DUP2 EQ PUSH2 0x365 JUMPI PUSH0 PUSH0 REVERT JUMPDEST POP JUMP JUMPDEST PUSH0 DUP2 CALLDATALOAD SWAP1 POP PUSH2 0x376 DUP2 PUSH2 0x352 JUMP JUMPDEST SWAP3 SWAP2 POP POP JUMP JUMPDEST PUSH0 PUSH1 0x20 DUP3 DUP5 SUB SLT ISZERO PUSH2 0x391 JUMPI PUSH2 0x390 PUSH2 0x27E JUMP JUMPDEST JUMPDEST PUSH0 PUSH2 0x39E DUP5 DUP3 DUP6 ADD PUSH2 0x368 JUMP JUMPDEST SWAP2 POP POP SWAP3 SWAP2 POP POP JUMP INVALID LOG2 PUSH5 0x6970667358 0x22 SLT KECCAK256 SWAP9 0x2C ISZERO PUSH5 0x220B8692CC DUP9 0xBA ISZERO SWAP15 TIMESTAMP 0xEA 0xB7 0xD7 RETURNDATACOPY DUP3 0xEA 0xB0 0x25 MULMOD 0xA6 0x2B 0xD4 TLOAD 0xBE 0x1F 0xAE CHAINID SLOAD PUSH5 0x736F6C6343 STOP ADDMOD 0x1E STOP CALLER "
				},
				"gasEstimates": {
					"creation": {
						"codeDepositCost": "197800",
						"executionCost": "24501",
						"totalCost": "222301"
					},
					"external": {
						"a()": "2507",
						"name()": "2492",
						"name2()": "2516",
						"name3(uint160)": "infinite",
						"name4()": "2544",
						"name5(bytes20)": "741"
					}
				},
				"methodIdentifiers": {
					"a()": "0dbe671f",
					"name()": "06fdde03",
					"name2()": "4b67f6af",
					"name3(uint160)": "318ad8c7",
					"name4()": "917051ed",
					"name5(bytes20)": "c742f7ef"
				}
			},
			"storageLayout": {
				"storage": [
					{
						"astId": 4,
						"contract": "chapter-4/my.sol:My",
						"label": "a",
						"offset": 0,
						"slot": "0",
						"type": "t_address"
					}
				],
				"types": {
					"t_address": {
						"encoding": "inplace",
						"label": "address",
						"numberOfBytes": "20"
					}
				}
			},
			"userdoc": {
				"kind": "user",
				"methods": {},
				"version": 1
			}
		}
	}
}