{
	"chapter-4/my3.sol": {
		"My2": {
			"abi": [
				{
					"inputs": [],
					"name": "name",
					"outputs": [
						{
							"internalType": "bool",
							"name": "",
							"type": "bool"
						}
					],
					"stateMutability": "view",
					"type": "function"
				},
				{
					"inputs": [
						{
							"internalType": "address",
							"name": "_addr",
							"type": "address"
						}
					],
					"name": "name2",
					"outputs": [],
					"stateMutability": "payable",
					"type": "function"
				},
				{
					"inputs": [
						{
							"internalType": "address",
							"name": "_addr",
							"type": "address"
						}
					],
					"name": "name3",
					"outputs": [],
					"stateMutability": "payable",
					"type": "function"
				},
				{
					"inputs": [
						{
							"internalType": "address",
							"name": "_addr",
							"type": "address"
						}
					],
					"name": "name4",
					"outputs": [],
					"stateMutability": "payable",
					"type": "function"
				}
			],
			"devdoc": {
				"kind": "dev",
				"methods": {},
				"version": 1
			},
			"evm": {
				"assembly": "    /* \"chapter-4/my3.sol\":62:1066  contract My2 {... */\n  mstore(0x40, 0x80)\n    /* \"chapter-4/my3.sol\":147:154  1 ether */\n  0x0de0b6b3a7640000\n    /* \"chapter-4/my3.sol\":135:154  uint256 a = 1 ether */\n  0x00\n  sstore\n    /* \"chapter-4/my3.sol\":173:189  10 ** 9 * 1 gwei */\n  0x0de0b6b3a7640000\n    /* \"chapter-4/my3.sol\":161:189  uint256 b = 10 ** 9 * 1 gwei */\n  0x01\n  sstore\n    /* \"chapter-4/my3.sol\":208:224  10 ** 18 * 1 wei */\n  0x0de0b6b3a7640000\n    /* \"chapter-4/my3.sol\":196:224  uint256 c = 10 ** 18 * 1 wei */\n  0x02\n  sstore\n    /* \"chapter-4/my3.sol\":62:1066  contract My2 {... */\n  callvalue\n  dup1\n  iszero\n  tag_1\n  jumpi\n  revert(0x00, 0x00)\ntag_1:\n  pop\n  dataSize(sub_0)\n  dup1\n  dataOffset(sub_0)\n  0x00\n  codecopy\n  0x00\n  return\nstop\n\nsub_0: assembly {\n        /* \"chapter-4/my3.sol\":62:1066  contract My2 {... */\n      mstore(0x40, 0x80)\n      jumpi(tag_1, lt(calldatasize, 0x04))\n      shr(0xe0, calldataload(0x00))\n      dup1\n      0x06fdde03\n      eq\n      tag_2\n      jumpi\n      dup1\n      0x339da59a\n      eq\n      tag_3\n      jumpi\n      dup1\n      0xd356661c\n      eq\n      tag_4\n      jumpi\n      dup1\n      0xd654f2b1\n      eq\n      tag_5\n      jumpi\n    tag_1:\n      revert(0x00, 0x00)\n        /* \"chapter-4/my3.sol\":254:328  function name() public view returns (bool){... */\n    tag_2:\n      callvalue\n      dup1\n      iszero\n      tag_6\n      jumpi\n      revert(0x00, 0x00)\n    tag_6:\n      pop\n      tag_7\n      tag_8\n      jump\t// in\n    tag_7:\n      mload(0x40)\n      tag_9\n      swap2\n      swap1\n      tag_10\n      jump\t// in\n    tag_9:\n      mload(0x40)\n      dup1\n      swap2\n      sub\n      swap1\n      return\n        /* \"chapter-4/my3.sol\":390:633  function name2(address _addr) public payable {... */\n    tag_3:\n      tag_11\n      0x04\n      dup1\n      calldatasize\n      sub\n      dup2\n      add\n      swap1\n      tag_12\n      swap2\n      swap1\n      tag_13\n      jump\t// in\n    tag_12:\n      tag_14\n      jump\t// in\n    tag_11:\n      stop\n        /* \"chapter-4/my3.sol\":866:1061  function name4(address _addr) public payable {... */\n    tag_4:\n      tag_15\n      0x04\n      dup1\n      calldatasize\n      sub\n      dup2\n      add\n      swap1\n      tag_16\n      swap2\n      swap1\n      tag_13\n      jump\t// in\n    tag_16:\n      tag_17\n      jump\t// in\n    tag_15:\n      stop\n        /* \"chapter-4/my3.sol\":641:827  function name3(address _addr) public payable {... */\n    tag_5:\n      tag_18\n      0x04\n      dup1\n      calldatasize\n      sub\n      dup2\n      add\n      swap1\n      tag_19\n      swap2\n      swap1\n      tag_13\n      jump\t// in\n    tag_19:\n      tag_20\n      jump\t// in\n    tag_18:\n      stop\n        /* \"chapter-4/my3.sol\":254:328  function name() public view returns (bool){... */\n    tag_8:\n        /* \"chapter-4/my3.sol\":291:295  bool */\n      0x00\n        /* \"chapter-4/my3.sol\":319:320  c */\n      sload(0x02)\n        /* \"chapter-4/my3.sol\":314:315  b */\n      sload(0x01)\n        /* \"chapter-4/my3.sol\":314:320  b == c */\n      eq\n        /* \"chapter-4/my3.sol\":307:320  return b == c */\n      swap1\n      pop\n        /* \"chapter-4/my3.sol\":254:328  function name() public view returns (bool){... */\n      swap1\n      jump\t// out\n        /* \"chapter-4/my3.sol\":390:633  function name2(address _addr) public payable {... */\n    tag_14:\n        /* \"chapter-4/my3.sol\":501:519  address payable ap */\n      0x00\n        /* \"chapter-4/my3.sol\":530:535  _addr */\n      dup2\n        /* \"chapter-4/my3.sol\":501:536  address payable ap = payable(_addr) */\n      swap1\n      pop\n        /* \"chapter-4/my3.sol\":568:575  10 gwei */\n      0x02540be400\n        /* \"chapter-4/my3.sol\":555:564  msg.value */\n      callvalue\n        /* \"chapter-4/my3.sol\":555:575  msg.value == 10 gwei */\n      eq\n        /* \"chapter-4/my3.sol\":547:592  require(msg.value == 10 gwei, \"must 10 gwei\") */\n      tag_23\n      jumpi\n      mload(0x40)\n      0x08c379a000000000000000000000000000000000000000000000000000000000\n      dup2\n      mstore\n      0x04\n      add\n      tag_24\n      swap1\n      tag_25\n      jump\t// in\n    tag_24:\n      mload(0x40)\n      dup1\n      swap2\n      sub\n      swap1\n      revert\n    tag_23:\n        /* \"chapter-4/my3.sol\":603:605  ap */\n      dup1\n        /* \"chapter-4/my3.sol\":603:614  ap.transfer */\n      0xffffffffffffffffffffffffffffffffffffffff\n      and\n        /* \"chapter-4/my3.sol\":603:625  ap.transfer(msg.value) */\n      0x08fc\n        /* \"chapter-4/my3.sol\":615:624  msg.value */\n      callvalue\n        /* \"chapter-4/my3.sol\":603:625  ap.transfer(msg.value) */\n      swap1\n      dup2\n      iszero\n      mul\n      swap1\n      mload(0x40)\n      0x00\n      mload(0x40)\n      dup1\n      dup4\n      sub\n      dup2\n      dup6\n      dup9\n      dup9\n      call\n      swap4\n      pop\n      pop\n      pop\n      pop\n      iszero\n      dup1\n      iszero\n      tag_27\n      jumpi\n      returndatacopy(0x00, 0x00, returndatasize)\n      revert(0x00, returndatasize)\n    tag_27:\n      pop\n        /* \"chapter-4/my3.sol\":435:633  {... */\n      pop\n        /* \"chapter-4/my3.sol\":390:633  function name2(address _addr) public payable {... */\n      pop\n      jump\t// out\n        /* \"chapter-4/my3.sol\":866:1061  function name4(address _addr) public payable {... */\n    tag_17:\n        /* \"chapter-4/my3.sol\":922:940  address payable ap */\n      0x00\n        /* \"chapter-4/my3.sol\":951:956  _addr */\n      dup2\n        /* \"chapter-4/my3.sol\":922:957  address payable ap = payable(_addr) */\n      swap1\n      pop\n        /* \"chapter-4/my3.sol\":989:999  0.01 ether */\n      0x2386f26fc10000\n        /* \"chapter-4/my3.sol\":976:985  msg.value */\n      callvalue\n        /* \"chapter-4/my3.sol\":976:999  msg.value == 0.01 ether */\n      eq\n        /* \"chapter-4/my3.sol\":968:1020  require(msg.value == 0.01 ether, \"must 0.001 ether\") */\n      tag_29\n      jumpi\n      mload(0x40)\n      0x08c379a000000000000000000000000000000000000000000000000000000000\n      dup2\n      mstore\n      0x04\n      add\n      tag_30\n      swap1\n      tag_31\n      jump\t// in\n    tag_30:\n      mload(0x40)\n      dup1\n      swap2\n      sub\n      swap1\n      revert\n    tag_29:\n        /* \"chapter-4/my3.sol\":1031:1033  ap */\n      dup1\n        /* \"chapter-4/my3.sol\":1031:1042  ap.transfer */\n      0xffffffffffffffffffffffffffffffffffffffff\n      and\n        /* \"chapter-4/my3.sol\":1031:1053  ap.transfer(msg.value) */\n      0x08fc\n        /* \"chapter-4/my3.sol\":1043:1052  msg.value */\n      callvalue\n        /* \"chapter-4/my3.sol\":1031:1053  ap.transfer(msg.value) */\n      swap1\n      dup2\n      iszero\n      mul\n      swap1\n      mload(0x40)\n      0x00\n      mload(0x40)\n      dup1\n      dup4\n      sub\n      dup2\n      dup6\n      dup9\n      dup9\n      call\n      swap4\n      pop\n      pop\n      pop\n      pop\n      iszero\n      dup1\n      iszero\n      tag_33\n      jumpi\n      returndatacopy(0x00, 0x00, returndatasize)\n      revert(0x00, returndatasize)\n    tag_33:\n      pop\n        /* \"chapter-4/my3.sol\":911:1061  {... */\n      pop\n        /* \"chapter-4/my3.sol\":866:1061  function name4(address _addr) public payable {... */\n      pop\n      jump\t// out\n        /* \"chapter-4/my3.sol\":641:827  function name3(address _addr) public payable {... */\n    tag_20:\n        /* \"chapter-4/my3.sol\":697:715  address payable ap */\n      0x00\n        /* \"chapter-4/my3.sol\":726:731  _addr */\n      dup2\n        /* \"chapter-4/my3.sol\":697:732  address payable ap = payable(_addr) */\n      swap1\n      pop\n        /* \"chapter-4/my3.sol\":764:770  10 wei */\n      0x0a\n        /* \"chapter-4/my3.sol\":751:760  msg.value */\n      callvalue\n        /* \"chapter-4/my3.sol\":751:770  msg.value == 10 wei */\n      eq\n        /* \"chapter-4/my3.sol\":743:786  require(msg.value == 10 wei, \"must 10 wei\") */\n      tag_35\n      jumpi\n      mload(0x40)\n      0x08c379a000000000000000000000000000000000000000000000000000000000\n      dup2\n      mstore\n      0x04\n      add\n      tag_36\n      swap1\n      tag_37\n      jump\t// in\n    tag_36:\n      mload(0x40)\n      dup1\n      swap2\n      sub\n      swap1\n      revert\n    tag_35:\n        /* \"chapter-4/my3.sol\":797:799  ap */\n      dup1\n        /* \"chapter-4/my3.sol\":797:808  ap.transfer */\n      0xffffffffffffffffffffffffffffffffffffffff\n      and\n        /* \"chapter-4/my3.sol\":797:819  ap.transfer(msg.value) */\n      0x08fc\n        /* \"chapter-4/my3.sol\":809:818  msg.value */\n      callvalue\n        /* \"chapter-4/my3.sol\":797:819  ap.transfer(msg.value) */\n      swap1\n      dup2\n      iszero\n      mul\n      swap1\n      mload(0x40)\n      0x00\n      mload(0x40)\n      dup1\n      dup4\n      sub\n      dup2\n      dup6\n      dup9\n      dup9\n      call\n      swap4\n      pop\n      pop\n      pop\n      pop\n      iszero\n      dup1\n      iszero\n      tag_39\n      jumpi\n      returndatacopy(0x00, 0x00, returndatasize)\n      revert(0x00, returndatasize)\n    tag_39:\n      pop\n        /* \"chapter-4/my3.sol\":686:827  {... */\n      pop\n        /* \"chapter-4/my3.sol\":641:827  function name3(address _addr) public payable {... */\n      pop\n      jump\t// out\n        /* \"#utility.yul\":7:97   */\n    tag_40:\n        /* \"#utility.yul\":41:48   */\n      0x00\n        /* \"#utility.yul\":84:89   */\n      dup2\n        /* \"#utility.yul\":77:90   */\n      iszero\n        /* \"#utility.yul\":70:91   */\n      iszero\n        /* \"#utility.yul\":59:91   */\n      swap1\n      pop\n        /* \"#utility.yul\":7:97   */\n      swap2\n      swap1\n      pop\n      jump\t// out\n        /* \"#utility.yul\":103:212   */\n    tag_41:\n        /* \"#utility.yul\":184:205   */\n      tag_59\n        /* \"#utility.yul\":199:204   */\n      dup2\n        /* \"#utility.yul\":184:205   */\n      tag_40\n      jump\t// in\n    tag_59:\n        /* \"#utility.yul\":179:182   */\n      dup3\n        /* \"#utility.yul\":172:206   */\n      mstore\n        /* \"#utility.yul\":103:212   */\n      pop\n      pop\n      jump\t// out\n        /* \"#utility.yul\":218:428   */\n    tag_10:\n        /* \"#utility.yul\":305:309   */\n      0x00\n        /* \"#utility.yul\":343:345   */\n      0x20\n        /* \"#utility.yul\":332:341   */\n      dup3\n        /* \"#utility.yul\":328:346   */\n      add\n        /* \"#utility.yul\":320:346   */\n      swap1\n      pop\n        /* \"#utility.yul\":356:421   */\n      tag_61\n        /* \"#utility.yul\":418:419   */\n      0x00\n        /* \"#utility.yul\":407:416   */\n      dup4\n        /* \"#utility.yul\":403:420   */\n      add\n        /* \"#utility.yul\":394:400   */\n      dup5\n        /* \"#utility.yul\":356:421   */\n      tag_41\n      jump\t// in\n    tag_61:\n        /* \"#utility.yul\":218:428   */\n      swap3\n      swap2\n      pop\n      pop\n      jump\t// out\n        /* \"#utility.yul\":515:632   */\n    tag_43:\n        /* \"#utility.yul\":624:625   */\n      0x00\n        /* \"#utility.yul\":621:622   */\n      0x00\n        /* \"#utility.yul\":614:626   */\n      revert\n        /* \"#utility.yul\":761:887   */\n    tag_45:\n        /* \"#utility.yul\":798:805   */\n      0x00\n        /* \"#utility.yul\":838:880   */\n      0xffffffffffffffffffffffffffffffffffffffff\n        /* \"#utility.yul\":831:836   */\n      dup3\n        /* \"#utility.yul\":827:881   */\n      and\n        /* \"#utility.yul\":816:881   */\n      swap1\n      pop\n        /* \"#utility.yul\":761:887   */\n      swap2\n      swap1\n      pop\n      jump\t// out\n        /* \"#utility.yul\":893:989   */\n    tag_46:\n        /* \"#utility.yul\":930:937   */\n      0x00\n        /* \"#utility.yul\":959:983   */\n      tag_67\n        /* \"#utility.yul\":977:982   */\n      dup3\n        /* \"#utility.yul\":959:983   */\n      tag_45\n      jump\t// in\n    tag_67:\n        /* \"#utility.yul\":948:983   */\n      swap1\n      pop\n        /* \"#utility.yul\":893:989   */\n      swap2\n      swap1\n      pop\n      jump\t// out\n        /* \"#utility.yul\":995:1117   */\n    tag_47:\n        /* \"#utility.yul\":1068:1092   */\n      tag_69\n        /* \"#utility.yul\":1086:1091   */\n      dup2\n        /* \"#utility.yul\":1068:1092   */\n      tag_46\n      jump\t// in\n    tag_69:\n        /* \"#utility.yul\":1061:1066   */\n      dup2\n        /* \"#utility.yul\":1058:1093   */\n      eq\n        /* \"#utility.yul\":1048:1111   */\n      tag_70\n      jumpi\n        /* \"#utility.yul\":1107:1108   */\n      0x00\n        /* \"#utility.yul\":1104:1105   */\n      0x00\n        /* \"#utility.yul\":1097:1109   */\n      revert\n        /* \"#utility.yul\":1048:1111   */\n    tag_70:\n        /* \"#utility.yul\":995:1117   */\n      pop\n      jump\t// out\n        /* \"#utility.yul\":1123:1262   */\n    tag_48:\n        /* \"#utility.yul\":1169:1174   */\n      0x00\n        /* \"#utility.yul\":1207:1213   */\n      dup2\n        /* \"#utility.yul\":1194:1214   */\n      calldataload\n        /* \"#utility.yul\":1185:1214   */\n      swap1\n      pop\n        /* \"#utility.yul\":1223:1256   */\n      tag_72\n        /* \"#utility.yul\":1250:1255   */\n      dup2\n        /* \"#utility.yul\":1223:1256   */\n      tag_47\n      jump\t// in\n    tag_72:\n        /* \"#utility.yul\":1123:1262   */\n      swap3\n      swap2\n      pop\n      pop\n      jump\t// out\n        /* \"#utility.yul\":1268:1597   */\n    tag_13:\n        /* \"#utility.yul\":1327:1333   */\n      0x00\n        /* \"#utility.yul\":1376:1378   */\n      0x20\n        /* \"#utility.yul\":1364:1373   */\n      dup3\n        /* \"#utility.yul\":1355:1362   */\n      dup5\n        /* \"#utility.yul\":1351:1374   */\n      sub\n        /* \"#utility.yul\":1347:1379   */\n      slt\n        /* \"#utility.yul\":1344:1463   */\n      iszero\n      tag_74\n      jumpi\n        /* \"#utility.yul\":1382:1461   */\n      tag_75\n      tag_43\n      jump\t// in\n    tag_75:\n        /* \"#utility.yul\":1344:1463   */\n    tag_74:\n        /* \"#utility.yul\":1502:1503   */\n      0x00\n        /* \"#utility.yul\":1527:1580   */\n      tag_76\n        /* \"#utility.yul\":1572:1579   */\n      dup5\n        /* \"#utility.yul\":1563:1569   */\n      dup3\n        /* \"#utility.yul\":1552:1561   */\n      dup6\n        /* \"#utility.yul\":1548:1570   */\n      add\n        /* \"#utility.yul\":1527:1580   */\n      tag_48\n      jump\t// in\n    tag_76:\n        /* \"#utility.yul\":1517:1580   */\n      swap2\n      pop\n        /* \"#utility.yul\":1473:1590   */\n      pop\n        /* \"#utility.yul\":1268:1597   */\n      swap3\n      swap2\n      pop\n      pop\n      jump\t// out\n        /* \"#utility.yul\":1603:1772   */\n    tag_49:\n        /* \"#utility.yul\":1687:1698   */\n      0x00\n        /* \"#utility.yul\":1721:1727   */\n      dup3\n        /* \"#utility.yul\":1716:1719   */\n      dup3\n        /* \"#utility.yul\":1709:1728   */\n      mstore\n        /* \"#utility.yul\":1761:1765   */\n      0x20\n        /* \"#utility.yul\":1756:1759   */\n      dup3\n        /* \"#utility.yul\":1752:1766   */\n      add\n        /* \"#utility.yul\":1737:1766   */\n      swap1\n      pop\n        /* \"#utility.yul\":1603:1772   */\n      swap3\n      swap2\n      pop\n      pop\n      jump\t// out\n        /* \"#utility.yul\":1778:1940   */\n    tag_50:\n        /* \"#utility.yul\":1918:1932   */\n      0x6d75737420313020677765690000000000000000000000000000000000000000\n        /* \"#utility.yul\":1914:1915   */\n      0x00\n        /* \"#utility.yul\":1906:1912   */\n      dup3\n        /* \"#utility.yul\":1902:1916   */\n      add\n        /* \"#utility.yul\":1895:1933   */\n      mstore\n        /* \"#utility.yul\":1778:1940   */\n      pop\n      jump\t// out\n        /* \"#utility.yul\":1946:2312   */\n    tag_51:\n        /* \"#utility.yul\":2088:2091   */\n      0x00\n        /* \"#utility.yul\":2109:2176   */\n      tag_80\n        /* \"#utility.yul\":2173:2175   */\n      0x0c\n        /* \"#utility.yul\":2168:2171   */\n      dup4\n        /* \"#utility.yul\":2109:2176   */\n      tag_49\n      jump\t// in\n    tag_80:\n        /* \"#utility.yul\":2102:2176   */\n      swap2\n      pop\n        /* \"#utility.yul\":2185:2278   */\n      tag_81\n        /* \"#utility.yul\":2274:2277   */\n      dup3\n        /* \"#utility.yul\":2185:2278   */\n      tag_50\n      jump\t// in\n    tag_81:\n        /* \"#utility.yul\":2303:2305   */\n      0x20\n        /* \"#utility.yul\":2298:2301   */\n      dup3\n        /* \"#utility.yul\":2294:2306   */\n      add\n        /* \"#utility.yul\":2287:2306   */\n      swap1\n      pop\n        /* \"#utility.yul\":1946:2312   */\n      swap2\n      swap1\n      pop\n      jump\t// out\n        /* \"#utility.yul\":2318:2737   */\n    tag_25:\n        /* \"#utility.yul\":2484:2488   */\n      0x00\n        /* \"#utility.yul\":2522:2524   */\n      0x20\n        /* \"#utility.yul\":2511:2520   */\n      dup3\n        /* \"#utility.yul\":2507:2525   */\n      add\n        /* \"#utility.yul\":2499:2525   */\n      swap1\n      pop\n        /* \"#utility.yul\":2571:2580   */\n      dup2\n        /* \"#utility.yul\":2565:2569   */\n      dup2\n        /* \"#utility.yul\":2561:2581   */\n      sub\n        /* \"#utility.yul\":2557:2558   */\n      0x00\n        /* \"#utility.yul\":2546:2555   */\n      dup4\n        /* \"#utility.yul\":2542:2559   */\n      add\n        /* \"#utility.yul\":2535:2582   */\n      mstore\n        /* \"#utility.yul\":2599:2730   */\n      tag_83\n        /* \"#utility.yul\":2725:2729   */\n      dup2\n        /* \"#utility.yul\":2599:2730   */\n      tag_51\n      jump\t// in\n    tag_83:\n        /* \"#utility.yul\":2591:2730   */\n      swap1\n      pop\n        /* \"#utility.yul\":2318:2737   */\n      swap2\n      swap1\n      pop\n      jump\t// out\n        /* \"#utility.yul\":2743:2909   */\n    tag_52:\n        /* \"#utility.yul\":2883:2901   */\n      0x6d75737420302e30303120657468657200000000000000000000000000000000\n        /* \"#utility.yul\":2879:2880   */\n      0x00\n        /* \"#utility.yul\":2871:2877   */\n      dup3\n        /* \"#utility.yul\":2867:2881   */\n      add\n        /* \"#utility.yul\":2860:2902   */\n      mstore\n        /* \"#utility.yul\":2743:2909   */\n      pop\n      jump\t// out\n        /* \"#utility.yul\":2915:3281   */\n    tag_53:\n        /* \"#utility.yul\":3057:3060   */\n      0x00\n        /* \"#utility.yul\":3078:3145   */\n      tag_86\n        /* \"#utility.yul\":3142:3144   */\n      0x10\n        /* \"#utility.yul\":3137:3140   */\n      dup4\n        /* \"#utility.yul\":3078:3145   */\n      tag_49\n      jump\t// in\n    tag_86:\n        /* \"#utility.yul\":3071:3145   */\n      swap2\n      pop\n        /* \"#utility.yul\":3154:3247   */\n      tag_87\n        /* \"#utility.yul\":3243:3246   */\n      dup3\n        /* \"#utility.yul\":3154:3247   */\n      tag_52\n      jump\t// in\n    tag_87:\n        /* \"#utility.yul\":3272:3274   */\n      0x20\n        /* \"#utility.yul\":3267:3270   */\n      dup3\n        /* \"#utility.yul\":3263:3275   */\n      add\n        /* \"#utility.yul\":3256:3275   */\n      swap1\n      pop\n        /* \"#utility.yul\":2915:3281   */\n      swap2\n      swap1\n      pop\n      jump\t// out\n        /* \"#utility.yul\":3287:3706   */\n    tag_31:\n        /* \"#utility.yul\":3453:3457   */\n      0x00\n        /* \"#utility.yul\":3491:3493   */\n      0x20\n        /* \"#utility.yul\":3480:3489   */\n      dup3\n        /* \"#utility.yul\":3476:3494   */\n      add\n        /* \"#utility.yul\":3468:3494   */\n      swap1\n      pop\n        /* \"#utility.yul\":3540:3549   */\n      dup2\n        /* \"#utility.yul\":3534:3538   */\n      dup2\n        /* \"#utility.yul\":3530:3550   */\n      sub\n        /* \"#utility.yul\":3526:3527   */\n      0x00\n        /* \"#utility.yul\":3515:3524   */\n      dup4\n        /* \"#utility.yul\":3511:3528   */\n      add\n        /* \"#utility.yul\":3504:3551   */\n      mstore\n        /* \"#utility.yul\":3568:3699   */\n      tag_89\n        /* \"#utility.yul\":3694:3698   */\n      dup2\n        /* \"#utility.yul\":3568:3699   */\n      tag_53\n      jump\t// in\n    tag_89:\n        /* \"#utility.yul\":3560:3699   */\n      swap1\n      pop\n        /* \"#utility.yul\":3287:3706   */\n      swap2\n      swap1\n      pop\n      jump\t// out\n        /* \"#utility.yul\":3712:3873   */\n    tag_54:\n        /* \"#utility.yul\":3852:3865   */\n      0x6d75737420313020776569000000000000000000000000000000000000000000\n        /* \"#utility.yul\":3848:3849   */\n      0x00\n        /* \"#utility.yul\":3840:3846   */\n      dup3\n        /* \"#utility.yul\":3836:3850   */\n      add\n        /* \"#utility.yul\":3829:3866   */\n      mstore\n        /* \"#utility.yul\":3712:3873   */\n      pop\n      jump\t// out\n        /* \"#utility.yul\":3879:4245   */\n    tag_55:\n        /* \"#utility.yul\":4021:4024   */\n      0x00\n        /* \"#utility.yul\":4042:4109   */\n      tag_92\n        /* \"#utility.yul\":4106:4108   */\n      0x0b\n        /* \"#utility.yul\":4101:4104   */\n      dup4\n        /* \"#utility.yul\":4042:4109   */\n      tag_49\n      jump\t// in\n    tag_92:\n        /* \"#utility.yul\":4035:4109   */\n      swap2\n      pop\n        /* \"#utility.yul\":4118:4211   */\n      tag_93\n        /* \"#utility.yul\":4207:4210   */\n      dup3\n        /* \"#utility.yul\":4118:4211   */\n      tag_54\n      jump\t// in\n    tag_93:\n        /* \"#utility.yul\":4236:4238   */\n      0x20\n        /* \"#utility.yul\":4231:4234   */\n      dup3\n        /* \"#utility.yul\":4227:4239   */\n      add\n        /* \"#utility.yul\":4220:4239   */\n      swap1\n      pop\n        /* \"#utility.yul\":3879:4245   */\n      swap2\n      swap1\n      pop\n      jump\t// out\n        /* \"#utility.yul\":4251:4670   */\n    tag_37:\n        /* \"#utility.yul\":4417:4421   */\n      0x00\n        /* \"#utility.yul\":4455:4457   */\n      0x20\n        /* \"#utility.yul\":4444:4453   */\n      dup3\n        /* \"#utility.yul\":4440:4458   */\n      add\n        /* \"#utility.yul\":4432:4458   */\n      swap1\n      pop\n        /* \"#utility.yul\":4504:4513   */\n      dup2\n        /* \"#utility.yul\":4498:4502   */\n      dup2\n        /* \"#utility.yul\":4494:4514   */\n      sub\n        /* \"#utility.yul\":4490:4491   */\n      0x00\n        /* \"#utility.yul\":4479:4488   */\n      dup4\n        /* \"#utility.yul\":4475:4492   */\n      add\n        /* \"#utility.yul\":4468:4515   */\n      mstore\n        /* \"#utility.yul\":4532:4663   */\n      tag_95\n        /* \"#utility.yul\":4658:4662   */\n      dup2\n        /* \"#utility.yul\":4532:4663   */\n      tag_55\n      jump\t// in\n    tag_95:\n        /* \"#utility.yul\":4524:4663   */\n      swap1\n      pop\n        /* \"#utility.yul\":4251:4670   */\n      swap2\n      swap1\n      pop\n      jump\t// out\n\n    auxdata: 0xa26469706673582212208222a3ab51f588e1e39d36e1114ddb102bcbfd5f7bb8759b061911046f8826f964736f6c634300081e0033\n}\n",
				"bytecode": {
					"linkReferences": {},
					"object": "6080604052670de0b6b3a76400005f55670de0b6b3a7640000600155670de0b6b3a76400006002553480156031575f5ffd5b506104be8061003f5f395ff3fe60806040526004361061003e575f3560e01c806306fdde0314610042578063339da59a1461006c578063d356661c14610088578063d654f2b1146100a4575b5f5ffd5b34801561004d575f5ffd5b506100566100c0565b604051610063919061029e565b60405180910390f35b61008660048036038101906100819190610315565b6100cd565b005b6100a2600480360381019061009d9190610315565b610160565b005b6100be60048036038101906100b99190610315565b6101f5565b005b5f60025460015414905090565b5f8190506402540be4003414610118576040517f08c379a000000000000000000000000000000000000000000000000000000000815260040161010f9061039a565b60405180910390fd5b8073ffffffffffffffffffffffffffffffffffffffff166108fc3490811502906040515f60405180830381858888f1935050505015801561015b573d5f5f3e3d5ffd5b505050565b5f819050662386f26fc1000034146101ad576040517f08c379a00000000000000000000000000000000000000000000000000000000081526004016101a490610402565b60405180910390fd5b8073ffffffffffffffffffffffffffffffffffffffff166108fc3490811502906040515f60405180830381858888f193505050501580156101f0573d5f5f3e3d5ffd5b505050565b5f819050600a341461023c576040517f08c379a00000000000000000000000000000000000000000000000000000000081526004016102339061046a565b60405180910390fd5b8073ffffffffffffffffffffffffffffffffffffffff166108fc3490811502906040515f60405180830381858888f1935050505015801561027f573d5f5f3e3d5ffd5b505050565b5f8115159050919050565b61029881610284565b82525050565b5f6020820190506102b15f83018461028f565b92915050565b5f5ffd5b5f73ffffffffffffffffffffffffffffffffffffffff82169050919050565b5f6102e4826102bb565b9050919050565b6102f4816102da565b81146102fe575f5ffd5b50565b5f8135905061030f816102eb565b92915050565b5f6020828403121561032a576103296102b7565b5b5f61033784828501610301565b91505092915050565b5f82825260208201905092915050565b7f6d757374203130206777656900000000000000000000000000000000000000005f82015250565b5f610384600c83610340565b915061038f82610350565b602082019050919050565b5f6020820190508181035f8301526103b181610378565b9050919050565b7f6d75737420302e303031206574686572000000000000000000000000000000005f82015250565b5f6103ec601083610340565b91506103f7826103b8565b602082019050919050565b5f6020820190508181035f830152610419816103e0565b9050919050565b7f6d757374203130207765690000000000000000000000000000000000000000005f82015250565b5f610454600b83610340565b915061045f82610420565b602082019050919050565b5f6020820190508181035f83015261048181610448565b905091905056fea26469706673582212208222a3ab51f588e1e39d36e1114ddb102bcbfd5f7bb8759b061911046f8826f964736f6c634300081e0033",
					"opcodes": "PUSH1 0x80 PUSH1 0x40 MSTORE PUSH8 0xDE0B6B3A7640000 PUSH0 SSTORE PUSH8 0xDE0B6B3A7640000 PUSH1 0x1 SSTORE PUSH8 0xDE0B6B3A7640000 PUSH1 0x2 SSTORE CALLVALUE DUP1 ISZERO PUSH1 0x31 JUMPI PUSH0 PUSH0 REVERT JUMPDEST POP PUSH2 0x4BE DUP1 PUSH2 0x3F PUSH0 CODECOPY PUSH0 RETURN INVALID PUSH1 0x80 PUSH1 0x40 MSTORE PUSH1 0x4 CALLDATASIZE LT PUSH2 0x3E JUMPI PUSH0 CALLDATALOAD PUSH1 0xE0 SHR DUP1 PUSH4 0x6FDDE03 EQ PUSH2 0x42 JUMPI DUP1 PUSH4 0x339DA59A EQ PUSH2 0x6C JUMPI DUP1 PUSH4 0xD356661C EQ PUSH2 0x88 JUMPI DUP1 PUSH4 0xD654F2B1 EQ PUSH2 0xA4 JUMPI JUMPDEST PUSH0 PUSH0 REVERT JUMPDEST CALLVALUE DUP1 ISZERO PUSH2 0x4D JUMPI PUSH0 PUSH0 REVERT JUMPDEST POP PUSH2 0x56 PUSH2 0xC0 JUMP JUMPDEST PUSH1 0x40 MLOAD PUSH2 0x63 SWAP2 SWAP1 PUSH2 0x29E JUMP JUMPDEST PUSH1 0x40 MLOAD DUP1 SWAP2 SUB SWAP1 RETURN JUMPDEST PUSH2 0x86 PUSH1 0x4 DUP1 CALLDATASIZE SUB DUP2 ADD SWAP1 PUSH2 0x81 SWAP2 SWAP1 PUSH2 0x315 JUMP JUMPDEST PUSH2 0xCD JUMP JUMPDEST STOP JUMPDEST PUSH2 0xA2 PUSH1 0x4 DUP1 CALLDATASIZE SUB DUP2 ADD SWAP1 PUSH2 0x9D SWAP2 SWAP1 PUSH2 0x315 JUMP JUMPDEST PUSH2 0x160 JUMP JUMPDEST STOP JUMPDEST PUSH2 0xBE PUSH1 0x4 DUP1 CALLDATASIZE SUB DUP2 ADD SWAP1 PUSH2 0xB9 SWAP2 SWAP1 PUSH2 0x315 JUMP JUMPDEST PUSH2 0x1F5 JUMP JUMPDEST STOP JUMPDEST PUSH0 PUSH1 0x2 SLOAD PUSH1 0x1 SLOAD EQ SWAP1 POP SWAP1 JUMP JUMPDEST PUSH0 DUP2 SWAP1 POP PUSH5 0x2540BE400 CALLVALUE EQ PUSH2 0x118 JUMPI PUSH1 0x40 MLOAD PUSH32 0x8C379A000000000000000000000000000000000000000000000000000000000 DUP2 MSTORE PUSH1 0x4 ADD PUSH2 0x10F SWAP1 PUSH2 0x39A JUMP JUMPDEST PUSH1 0x40 MLOAD DUP1 SWAP2 SUB SWAP1 REVERT JUMPDEST DUP1 PUSH20 0xFFFFFFFFFFFFFFFFFFFFFFFFFFFFFFFFFFFFFFFF AND PUSH2 0x8FC CALLVALUE SWAP1 DUP2 ISZERO MUL SWAP1 PUSH1 0x40 MLOAD PUSH0 PUSH1 0x40 MLOAD DUP1 DUP4 SUB DUP2 DUP6 DUP9 DUP9 CALL SWAP4 POP POP POP POP ISZERO DUP1 ISZERO PUSH2 0x15B JUMPI RETURNDATASIZE PUSH0 PUSH0 RETURNDATACOPY RETURNDATASIZE PUSH0 REVERT JUMPDEST POP POP POP JUMP JUMPDEST PUSH0 DUP2 SWAP1 POP PUSH7 0x2386F26FC10000 CALLVALUE EQ PUSH2 0x1AD JUMPI PUSH1 0x40 MLOAD PUSH32 0x8C379A000000000000000000000000000000000000000000000000000000000 DUP2 MSTORE PUSH1 0x4 ADD PUSH2 0x1A4 SWAP1 PUSH2 0x402 JUMP JUMPDEST PUSH1 0x40 MLOAD DUP1 SWAP2 SUB SWAP1 REVERT JUMPDEST DUP1 PUSH20 0xFFFFFFFFFFFFFFFFFFFFFFFFFFFFFFFFFFFFFFFF AND PUSH2 0x8FC CALLVALUE SWAP1 DUP2 ISZERO MUL SWAP1 PUSH1 0x40 MLOAD PUSH0 PUSH1 0x40 MLOAD DUP1 DUP4 SUB DUP2 DUP6 DUP9 DUP9 CALL SWAP4 POP POP POP POP ISZERO DUP1 ISZERO PUSH2 0x1F0 JUMPI RETURNDATASIZE PUSH0 PUSH0 RETURNDATACOPY RETURNDATASIZE PUSH0 REVERT JUMPDEST POP POP POP JUMP JUMPDEST PUSH0 DUP2 SWAP1 POP PUSH1 0xA CALLVALUE EQ PUSH2 0x23C JUMPI PUSH1 0x40 MLOAD PUSH32 0x8C379A000000000000000000000000000000000000000000000000000000000 DUP2 MSTORE PUSH1 0x4 ADD PUSH2 0x233 SWAP1 PUSH2 0x46A JUMP JUMPDEST PUSH1 0x40 MLOAD DUP1 SWAP2 SUB SWAP1 REVERT JUMPDEST DUP1 PUSH20 0xFFFFFFFFFFFFFFFFFFFFFFFFFFFFFFFFFFFFFFFF AND PUSH2 0x8FC CALLVALUE SWAP1 DUP2 ISZERO MUL SWAP1 PUSH1 0x40 MLOAD PUSH0 PUSH1 0x40 MLOAD DUP1 DUP4 SUB DUP2 DUP6 DUP9 DUP9 CALL SWAP4 POP POP POP POP ISZERO DUP1 ISZERO PUSH2 0x27F JUMPI RETURNDATASIZE PUSH0 PUSH0 RETURNDATACOPY RETURNDATASIZE PUSH0 REVERT JUMPDEST POP POP POP JUMP JUMPDEST PUSH0 DUP2 ISZERO ISZERO SWAP1 POP SWAP2 SWAP1 POP JUMP JUMPDEST PUSH2 0x298 DUP2 PUSH2 0x284 JUMP JUMPDEST DUP3 MSTORE POP POP JUMP JUMPDEST PUSH0 PUSH1 0x20 DUP3 ADD SWAP1 POP PUSH2 0x2B1 PUSH0 DUP4 ADD DUP5 PUSH2 0x28F JUMP JUMPDEST SWAP3 SWAP2 POP POP JUMP JUMPDEST PUSH0 PUSH0 REVERT JUMPDEST PUSH0 PUSH20 0xFFFFFFFFFFFFFFFFFFFFFFFFFFFFFFFFFFFFFFFF DUP3 AND SWAP1 POP SWAP2 SWAP1 POP JUMP JUMPDEST PUSH0 PUSH2 0x2E4 DUP3 PUSH2 0x2BB JUMP JUMPDEST SWAP1 POP SWAP2 SWAP1 POP JUMP JUMPDEST PUSH2 0x2F4 DUP2 PUSH2 0x2DA JUMP JUMPDEST DUP2 EQ PUSH2 0x2FE JUMPI PUSH0 PUSH0 REVERT JUMPDEST POP JUMP JUMPDEST PUSH0 DUP2 CALLDATALOAD SWAP1 POP PUSH2 0x30F DUP2 PUSH2 0x2EB JUMP JUMPDEST SWAP3 SWAP2 POP POP JUMP JUMPDEST PUSH0 PUSH1 0x20 DUP3 DUP5 SUB SLT ISZERO PUSH2 0x32A JUMPI PUSH2 0x329 PUSH2 0x2B7 JUMP JUMPDEST JUMPDEST PUSH0 PUSH2 0x337 DUP5 DUP3 DUP6 ADD PUSH2 0x301 JUMP JUMPDEST SWAP2 POP POP SWAP3 SWAP2 POP POP JUMP JUMPDEST PUSH0 DUP3 DUP3 MSTORE PUSH1 0x20 DUP3 ADD SWAP1 POP SWAP3 SWAP2 POP POP JUMP JUMPDEST PUSH32 0x6D75737420313020677765690000000000000000000000000000000000000000 PUSH0 DUP3 ADD MSTORE POP JUMP JUMPDEST PUSH0 PUSH2 0x384 PUSH1 0xC DUP4 PUSH2 0x340 JUMP JUMPDEST SWAP2 POP PUSH2 0x38F DUP3 PUSH2 0x350 JUMP JUMPDEST PUSH1 0x20 DUP3 ADD SWAP1 POP SWAP2 SWAP1 POP JUMP JUMPDEST PUSH0 PUSH1 0x20 DUP3 ADD SWAP1 POP DUP2 DUP2 SUB PUSH0 DUP4 ADD MSTORE PUSH2 0x3B1 DUP2 PUSH2 0x378 JUMP JUMPDEST SWAP1 POP SWAP2 SWAP1 POP JUMP JUMPDEST PUSH32 0x6D75737420302E30303120657468657200000000000000000000000000000000 PUSH0 DUP3 ADD MSTORE POP JUMP JUMPDEST PUSH0 PUSH2 0x3EC PUSH1 0x10 DUP4 PUSH2 0x340 JUMP JUMPDEST SWAP2 POP PUSH2 0x3F7 DUP3 PUSH2 0x3B8 JUMP JUMPDEST PUSH1 0x20 DUP3 ADD SWAP1 POP SWAP2 SWAP1 POP JUMP JUMPDEST PUSH0 PUSH1 0x20 DUP3 ADD SWAP1 POP DUP2 DUP2 SUB PUSH0 DUP4 ADD MSTORE PUSH2 0x419 DUP2 PUSH2 0x3E0 JUMP JUMPDEST SWAP1 POP SWAP2 SWAP1 POP JUMP JUMPDEST PUSH32 0x6D75737420313020776569000000000000000000000000000000000000000000 PUSH0 DUP3 ADD MSTORE POP JUMP JUMPDEST PUSH0 PUSH2 0x454 PUSH1 0xB DUP4 PUSH2 0x340 JUMP JUMPDEST SWAP2 POP PUSH2 0x45F DUP3 PUSH2 0x420 JUMP JUMPDEST PUSH1 0x20 DUP3 ADD SWAP1 POP SWAP2 SWAP1 POP JUMP JUMPDEST PUSH0 PUSH1 0x20 DUP3 ADD SWAP1 POP DUP2 DUP2 SUB PUSH0 DUP4 ADD MSTORE PUSH2 0x481 DUP2 PUSH2 0x448 JUMP JUMPDEST SWAP1 POP SWAP2 SWAP1 POP JUMP INVALID LOG2 PUSH5 0x6970667358 0x22 SLT KECCAK256 DUP3 0x22 LOG3 0xAB MLOAD CREATE2 DUP9 RJUMPI 0xE39D CALLDATASIZE RJUMPI 0x114D 0xDB LT 0x2B 0xCB REVERT PUSH0 PUSH28 0xB8759B061911046F8826F964736F6C634300081E0033000000000000 "
				},
				"gasEstimates": {
					"creation": {
						"codeDepositCost": "242800",
						"executionCost": "66596",
						"totalCost": "309396"
					},
					"external": {
						"name()": "4522",
						"name2(address)": "infinite",
						"name3(address)": "infinite",
						"name4(address)": "infinite"
					}
				},
				"methodIdentifiers": {
					"name()": "06fdde03",
					"name2(address)": "339da59a",
					"name3(address)": "d654f2b1",
					"name4(address)": "d356661c"
				}
			},
			"storageLayout": {
				"storage": [
					{
						"astId": 4,
						"contract": "chapter-4/my3.sol:My2",
						"label": "a",
						"offset": 0,
						"slot": "0",
						"type": "t_uint256"
					},
					{
						"astId": 11,
						"contract": "chapter-4/my3.sol:My2",
						"label": "b",
						"offset": 0,
						"slot": "1",
						"type": "t_uint256"
					},
					{
						"astId": 18,
						"contract": "chapter-4/my3.sol:My2",
						"label": "c",
						"offset": 0,
						"slot": "2",
						"type": "t_uint256"
					}
				],
				"types": {
					"t_uint256": {
						"encoding": "inplace",
						"label": "uint256",
						"numberOfBytes": "32"
					}
				}
			},
			"userdoc": {
				"kind": "user",
				"methods": {},
				"version": 1
			}
		}
	}
}