{
	"data": {
		"bytecode": {
			"linkReferences": {},
			"object": "6080604052348015600e575f5ffd5b5061029a8061001c5f395ff3fe608060405234801561000f575f5ffd5b5060043610610055575f3560e01c8063262330b41461005957806345ee763b146100775780639363efff14610095578063c36631b4146100b3578063c983af84146100bd575b5f5ffd5b6100616100db565b60405161006e9190610178565b60405180910390f35b61007f6100e7565b60405161008c91906101cb565b60405180910390f35b61009d6100f9565b6040516100aa919061021e565b60405180910390f35b6100bb610126565b005b6100c561012d565b6040516100d29190610178565b60405180910390f35b5f5f3390508091505090565b5f5f6211000060e81b90508091505090565b5f5f6211111160e81b90505f815f6003811061011857610117610237565b5b1a60f81b9050809250505090565b5f30905050565b5f5f3090508091505090565b5f73ffffffffffffffffffffffffffffffffffffffff82169050919050565b5f61016282610139565b9050919050565b61017281610158565b82525050565b5f60208201905061018b5f830184610169565b92915050565b5f7fffffff000000000000000000000000000000000000000000000000000000000082169050919050565b6101c581610191565b82525050565b5f6020820190506101de5f8301846101bc565b92915050565b5f7fff0000000000000000000000000000000000000000000000000000000000000082169050919050565b610218816101e4565b82525050565b5f6020820190506102315f83018461020f565b92915050565b7f4e487b71000000000000000000000000000000000000000000000000000000005f52603260045260245ffdfea2646970667358221220d41b875f4ae78afa308c0e6df65ae7678f74ca13e57fb5e3dee518835e50057264736f6c634300081c0033",
			"opcodes": "PUSH1 0x80 PUSH1 0x40 MSTORE CALLVALUE DUP1 ISZERO PUSH1 0xE JUMPI PUSH0 PUSH0 REVERT JUMPDEST POP PUSH2 0x29A DUP1 PUSH2 0x1C PUSH0 CODECOPY PUSH0 RETURN INVALID PUSH1 0x80 PUSH1 0x40 MSTORE CALLVALUE DUP1 ISZERO PUSH2 0xF JUMPI PUSH0 PUSH0 REVERT JUMPDEST POP PUSH1 0x4 CALLDATASIZE LT PUSH2 0x55 JUMPI PUSH0 CALLDATALOAD PUSH1 0xE0 SHR DUP1 PUSH4 0x262330B4 EQ PUSH2 0x59 JUMPI DUP1 PUSH4 0x45EE763B EQ PUSH2 0x77 JUMPI DUP1 PUSH4 0x9363EFFF EQ PUSH2 0x95 JUMPI DUP1 PUSH4 0xC36631B4 EQ PUSH2 0xB3 JUMPI DUP1 PUSH4 0xC983AF84 EQ PUSH2 0xBD JUMPI JUMPDEST PUSH0 PUSH0 REVERT JUMPDEST PUSH2 0x61 PUSH2 0xDB JUMP JUMPDEST PUSH1 0x40 MLOAD PUSH2 0x6E SWAP2 SWAP1 PUSH2 0x178 JUMP JUMPDEST PUSH1 0x40 MLOAD DUP1 SWAP2 SUB SWAP1 RETURN JUMPDEST PUSH2 0x7F PUSH2 0xE7 JUMP JUMPDEST PUSH1 0x40 MLOAD PUSH2 0x8C SWAP2 SWAP1 PUSH2 0x1CB JUMP JUMPDEST PUSH1 0x40 MLOAD DUP1 SWAP2 SUB SWAP1 RETURN JUMPDEST PUSH2 0x9D PUSH2 0xF9 JUMP JUMPDEST PUSH1 0x40 MLOAD PUSH2 0xAA SWAP2 SWAP1 PUSH2 0x21E JUMP JUMPDEST PUSH1 0x40 MLOAD DUP1 SWAP2 SUB SWAP1 RETURN JUMPDEST PUSH2 0xBB PUSH2 0x126 JUMP JUMPDEST STOP JUMPDEST PUSH2 0xC5 PUSH2 0x12D JUMP JUMPDEST PUSH1 0x40 MLOAD PUSH2 0xD2 SWAP2 SWAP1 PUSH2 0x178 JUMP JUMPDEST PUSH1 0x40 MLOAD DUP1 SWAP2 SUB SWAP1 RETURN JUMPDEST PUSH0 PUSH0 CALLER SWAP1 POP DUP1 SWAP2 POP POP SWAP1 JUMP JUMPDEST PUSH0 PUSH0 PUSH3 0x110000 PUSH1 0xE8 SHL SWAP1 POP DUP1 SWAP2 POP POP SWAP1 JUMP JUMPDEST PUSH0 PUSH0 PUSH3 0x111111 PUSH1 0xE8 SHL SWAP1 POP PUSH0 DUP2 PUSH0 PUSH1 0x3 DUP2 LT PUSH2 0x118 JUMPI PUSH2 0x117 PUSH2 0x237 JUMP JUMPDEST JUMPDEST BYTE PUSH1 0xF8 SHL SWAP1 POP DUP1 SWAP3 POP POP POP SWAP1 JUMP JUMPDEST PUSH0 ADDRESS SWAP1 POP POP JUMP JUMPDEST PUSH0 PUSH0 ADDRESS SWAP1 POP DUP1 SWAP2 POP POP SWAP1 JUMP JUMPDEST PUSH0 PUSH20 0xFFFFFFFFFFFFFFFFFFFFFFFFFFFFFFFFFFFFFFFF DUP3 AND SWAP1 POP SWAP2 SWAP1 POP JUMP JUMPDEST PUSH0 PUSH2 0x162 DUP3 PUSH2 0x139 JUMP JUMPDEST SWAP1 POP SWAP2 SWAP1 POP JUMP JUMPDEST PUSH2 0x172 DUP2 PUSH2 0x158 JUMP JUMPDEST DUP3 MSTORE POP POP JUMP JUMPDEST PUSH0 PUSH1 0x20 DUP3 ADD SWAP1 POP PUSH2 0x18B PUSH0 DUP4 ADD DUP5 PUSH2 0x169 JUMP JUMPDEST SWAP3 SWAP2 POP POP JUMP JUMPDEST PUSH0 PUSH32 0xFFFFFF0000000000000000000000000000000000000000000000000000000000 DUP3 AND SWAP1 POP SWAP2 SWAP1 POP JUMP JUMPDEST PUSH2 0x1C5 DUP2 PUSH2 0x191 JUMP JUMPDEST DUP3 MSTORE POP POP JUMP JUMPDEST PUSH0 PUSH1 0x20 DUP3 ADD SWAP1 POP PUSH2 0x1DE PUSH0 DUP4 ADD DUP5 PUSH2 0x1BC JUMP JUMPDEST SWAP3 SWAP2 POP POP JUMP JUMPDEST PUSH0 PUSH32 0xFF00000000000000000000000000000000000000000000000000000000000000 DUP3 AND SWAP1 POP SWAP2 SWAP1 POP JUMP JUMPDEST PUSH2 0x218 DUP2 PUSH2 0x1E4 JUMP JUMPDEST DUP3 MSTORE POP POP JUMP JUMPDEST PUSH0 PUSH1 0x20 DUP3 ADD SWAP1 POP PUSH2 0x231 PUSH0 DUP4 ADD DUP5 PUSH2 0x20F JUMP JUMPDEST SWAP3 SWAP2 POP POP JUMP JUMPDEST PUSH32 0x4E487B7100000000000000000000000000000000000000000000000000000000 PUSH0 MSTORE PUSH1 0x32 PUSH1 0x4 MSTORE PUSH1 0x24 PUSH0 REVERT INVALID LOG2 PUSH5 0x6970667358 0x22 SLT KECCAK256 0xD4 SHL DUP8 PUSH0 BLOBBASEFEE 0xE7 DUP11 STATICCALL ADDRESS DUP13 0xE PUSH14 0xF65AE7678F74CA13E57FB5E3DEE5 XOR DUP4 MCOPY POP SDIV PUSH19 0x64736F6C634300081C00330000000000000000 "
		},
		"gasEstimates": {
			"creation": {
				"codeDepositCost": "133200",
				"executionCost": "175",
				"totalCost": "133375"
			},
			"external": {
				"testAddress()": "369",
				"testContract()": "198",
				"testFixedByteArray()": "356",
				"testFixedByteArray1()": "424",
				"testMyAdddress()": "457"
			}
		},
		"methodIdentifiers": {
			"testAddress()": "262330b4",
			"testContract()": "c36631b4",
			"testFixedByteArray()": "45ee763b",
			"testFixedByteArray1()": "9363efff",
			"testMyAdddress()": "c983af84"
		}
	},
	"abi": [
		{
			"inputs": [],
			"name": "testAddress",
			"outputs": [
				{
					"internalType": "address",
					"name": "",
					"type": "address"
				}
			],
			"stateMutability": "view",
			"type": "function"
		},
		{
			"inputs": [],
			"name": "testContract",
			"outputs": [],
			"stateMutability": "view",
			"type": "function"
		},
		{
			"inputs": [],
			"name": "testFixedByteArray",
			"outputs": [
				{
					"internalType": "bytes3",
					"name": "",
					"type": "bytes3"
				}
			],
			"stateMutability": "pure",
			"type": "function"
		},
		{
			"inputs": [],
			"name": "testFixedByteArray1",
			"outputs": [
				{
					"internalType": "bytes1",
					"name": "",
					"type": "bytes1"
				}
			],
			"stateMutability": "pure",
			"type": "function"
		},
		{
			"inputs": [],
			"name": "testMyAdddress",
			"outputs": [
				{
					"internalType": "address",
					"name": "",
					"type": "address"
				}
			],
			"stateMutability": "view",
			"type": "function"
		}
	]
}