{
    "abi": [
        {
            "type": "constructor",
            "inputs": [
                {
                    "name": "_tokenAddress",
                    "type": "address",
                    "internalType": "address"
                }
            ],
            "stateMutability": "nonpayable"
        },
        {
            "type": "function",
            "name": "buyNFT",
            "inputs": [
                {
                    "name": "nftContract",
                    "type": "address",
                    "internalType": "address"
                },
                {
                    "name": "tokenId",
                    "type": "uint256",
                    "internalType": "uint256"
                }
            ],
            "outputs": [],
            "stateMutability": "nonpayable"
        },
        {
            "type": "function",
            "name": "getListing",
            "inputs": [
                {
                    "name": "nftContract",
                    "type": "address",
                    "internalType": "address"
                },
                {
                    "name": "tokenId",
                    "type": "uint256",
                    "internalType": "uint256"
                }
            ],
            "outputs": [
                {
                    "name": "",
                    "type": "tuple",
                    "internalType": "struct NFTMarket.Listing",
                    "components": [
                        {
                            "name": "seller",
                            "type": "address",
                            "internalType": "address"
                        },
                        {
                            "name": "price",
                            "type": "uint256",
                            "internalType": "uint256"
                        }
                    ]
                }
            ],
            "stateMutability": "view"
        },
        {
            "type": "function",
            "name": "list",
            "inputs": [
                {
                    "name": "nftContract",
                    "type": "address",
                    "internalType": "address"
                },
                {
                    "name": "tokenId",
                    "type": "uint256",
                    "internalType": "uint256"
                },
                {
                    "name": "price",
                    "type": "uint256",
                    "internalType": "uint256"
                }
            ],
            "outputs": [],
            "stateMutability": "nonpayable"
        },
        {
            "type": "function",
            "name": "listings",
            "inputs": [
                {
                    "name": "",
                    "type": "address",
                    "internalType": "address"
                },
                {
                    "name": "",
                    "type": "uint256",
                    "internalType": "uint256"
                }
            ],
            "outputs": [
                {
                    "name": "seller",
                    "type": "address",
                    "internalType": "address"
                },
                {
                    "name": "price",
                    "type": "uint256",
                    "internalType": "uint256"
                }
            ],
            "stateMutability": "view"
        },
        {
            "type": "function",
            "name": "myERC20",
            "inputs": [],
            "outputs": [
                {
                    "name": "",
                    "type": "address",
                    "internalType": "contract MyERC20"
                }
            ],
            "stateMutability": "view"
        },
        {
            "type": "function",
            "name": "unlist",
            "inputs": [
                {
                    "name": "nftContract",
                    "type": "address",
                    "internalType": "address"
                },
                {
                    "name": "tokenId",
                    "type": "uint256",
                    "internalType": "uint256"
                }
            ],
            "outputs": [],
            "stateMutability": "nonpayable"
        },
        {
            "type": "event",
            "name": "NFTListed",
            "inputs": [
                {
                    "name": "nftContract",
                    "type": "address",
                    "indexed": true,
                    "internalType": "address"
                },
                {
                    "name": "tokenId",
                    "type": "uint256",
                    "indexed": true,
                    "internalType": "uint256"
                },
                {
                    "name": "seller",
                    "type": "address",
                    "indexed": false,
                    "internalType": "address"
                },
                {
                    "name": "price",
                    "type": "uint256",
                    "indexed": false,
                    "internalType": "uint256"
                }
            ],
            "anonymous": false
        },
        {
            "type": "event",
            "name": "NFTSold",
            "inputs": [
                {
                    "name": "nftContract",
                    "type": "address",
                    "indexed": true,
                    "internalType": "address"
                },
                {
                    "name": "tokenId",
                    "type": "uint256",
                    "indexed": true,
                    "internalType": "uint256"
                },
                {
                    "name": "seller",
                    "type": "address",
                    "indexed": false,
                    "internalType": "address"
                },
                {
                    "name": "buyer",
                    "type": "address",
                    "indexed": true,
                    "internalType": "address"
                },
                {
                    "name": "price",
                    "type": "uint256",
                    "indexed": false,
                    "internalType": "uint256"
                }
            ],
            "anonymous": false
        },
        {
            "type": "event",
            "name": "NFTUnlisted",
            "inputs": [
                {
                    "name": "nftContract",
                    "type": "address",
                    "indexed": true,
                    "internalType": "address"
                },
                {
                    "name": "tokenId",
                    "type": "uint256",
                    "indexed": true,
                    "internalType": "uint256"
                },
                {
                    "name": "seller",
                    "type": "address",
                    "indexed": true,
                    "internalType": "address"
                }
            ],
            "anonymous": false
        }
    ],
    "bytecode": {
        "object": "0x60a060405234801561000f575f5ffd5b50604051611605380380611605833981810160405281019061003191906100c9565b8073ffffffffffffffffffffffffffffffffffffffff1660808173ffffffffffffffffffffffffffffffffffffffff1681525050506100f4565b5f5ffd5b5f73ffffffffffffffffffffffffffffffffffffffff82169050919050565b5f6100988261006f565b9050919050565b6100a88161008e565b81146100b2575f5ffd5b50565b5f815190506100c38161009f565b92915050565b5f602082840312156100de576100dd61006b565b5b5f6100eb848285016100b5565b91505092915050565b6080516114eb61011a5f395f81816103390152818161060f015261075901526114eb5ff3fe608060405234801561000f575f5ffd5b506004361061005f575f3560e01c806207df301461006357806349c83e86146100945780636d3739c4146100b057806388700d1c146100ce578063a82ba76f146100fe578063dda342bb1461011a575b5f5ffd5b61007d60048036038101906100789190610d45565b610136565b60405161008b929190610da1565b60405180910390f35b6100ae60048036038101906100a99190610d45565b61017f565b005b6100b8610337565b6040516100c59190610e23565b60405180910390f35b6100e860048036038101906100e39190610d45565b61035b565b6040516100f59190610e87565b60405180910390f35b61011860048036038101906101139190610d45565b61041f565b005b610134600480360381019061012f9190610ea0565b610958565b005b5f602052815f5260405f20602052805f5260405f205f9150915050805f015f9054906101000a900473ffffffffffffffffffffffffffffffffffffffff16908060010154905082565b5f5f5f8473ffffffffffffffffffffffffffffffffffffffff1673ffffffffffffffffffffffffffffffffffffffff1681526020019081526020015f205f8381526020019081526020015f2090503373ffffffffffffffffffffffffffffffffffffffff16815f015f9054906101000a900473ffffffffffffffffffffffffffffffffffffffff1673ffffffffffffffffffffffffffffffffffffffff161461025d576040517f08c379a000000000000000000000000000000000000000000000000000000000815260040161025490610f70565b60405180910390fd5b5f5f8473ffffffffffffffffffffffffffffffffffffffff1673ffffffffffffffffffffffffffffffffffffffff1681526020019081526020015f205f8381526020019081526020015f205f5f82015f6101000a81549073ffffffffffffffffffffffffffffffffffffffff0219169055600182015f905550503373ffffffffffffffffffffffffffffffffffffffff16828473ffffffffffffffffffffffffffffffffffffffff167f3eaee2cf135d2081ea16420f16d7d6c90a5b1e1789302efb7f87c541b29f133260405160405180910390a4505050565b7f000000000000000000000000000000000000000000000000000000000000000081565b610363610c86565b5f5f8473ffffffffffffffffffffffffffffffffffffffff1673ffffffffffffffffffffffffffffffffffffffff1681526020019081526020015f205f8381526020019081526020015f206040518060400160405290815f82015f9054906101000a900473ffffffffffffffffffffffffffffffffffffffff1673ffffffffffffffffffffffffffffffffffffffff1673ffffffffffffffffffffffffffffffffffffffff168152602001600182015481525050905092915050565b5f5f5f8473ffffffffffffffffffffffffffffffffffffffff1673ffffffffffffffffffffffffffffffffffffffff1681526020019081526020015f205f8381526020019081526020015f206040518060400160405290815f82015f9054906101000a900473ffffffffffffffffffffffffffffffffffffffff1673ffffffffffffffffffffffffffffffffffffffff1673ffffffffffffffffffffffffffffffffffffffff16815260200160018201548152505090505f8390505f826020015111610520576040517f08c379a000000000000000000000000000000000000000000000000000000000815260040161051790610ffe565b60405180910390fd5b815f015173ffffffffffffffffffffffffffffffffffffffff168173ffffffffffffffffffffffffffffffffffffffff16636352211e856040518263ffffffff1660e01b8152600401610573919061101c565b602060405180830381865afa15801561058e573d5f5f3e3d5ffd5b505050506040513d601f19601f820116820180604052508101906105b29190611049565b73ffffffffffffffffffffffffffffffffffffffff1614610608576040517f08c379a00000000000000000000000000000000000000000000000000000000081526004016105ff906110e4565b60405180910390fd5b81602001517f000000000000000000000000000000000000000000000000000000000000000073ffffffffffffffffffffffffffffffffffffffff166370a08231336040518263ffffffff1660e01b81526004016106669190611102565b602060405180830381865afa158015610681573d5f5f3e3d5ffd5b505050506040513d601f19601f820116820180604052508101906106a5919061112f565b10156106e6576040517f08c379a00000000000000000000000000000000000000000000000000000000081526004016106dd906111ca565b60405180910390fd5b815f015173ffffffffffffffffffffffffffffffffffffffff163373ffffffffffffffffffffffffffffffffffffffff1603610757576040517f08c379a000000000000000000000000000000000000000000000000000000000815260040161074e90611258565b60405180910390fd5b7f000000000000000000000000000000000000000000000000000000000000000073ffffffffffffffffffffffffffffffffffffffff166323b872dd33845f015185602001516040518463ffffffff1660e01b81526004016107bb93929190611276565b6020604051808303815f875af11580156107d7573d5f5f3e3d5ffd5b505050506040513d601f19601f820116820180604052508101906107fb91906112e0565b508073ffffffffffffffffffffffffffffffffffffffff166323b872dd835f015133866040518463ffffffff1660e01b815260040161083c93929190611276565b5f604051808303815f87803b158015610853575f5ffd5b505af1158015610865573d5f5f3e3d5ffd5b505050505f5f8573ffffffffffffffffffffffffffffffffffffffff1673ffffffffffffffffffffffffffffffffffffffff1681526020019081526020015f205f8481526020019081526020015f205f5f82015f6101000a81549073ffffffffffffffffffffffffffffffffffffffff0219169055600182015f905550503373ffffffffffffffffffffffffffffffffffffffff16838573ffffffffffffffffffffffffffffffffffffffff167f16f1dbd97e6bf646d429ed186cce832f1f7fd9907814293b83181e9970ab7bd2855f0151866020015160405161094a929190610da1565b60405180910390a450505050565b5f8390503373ffffffffffffffffffffffffffffffffffffffff168173ffffffffffffffffffffffffffffffffffffffff16636352211e856040518263ffffffff1660e01b81526004016109ac919061101c565b602060405180830381865afa1580156109c7573d5f5f3e3d5ffd5b505050506040513d601f19601f820116820180604052508101906109eb9190611049565b73ffffffffffffffffffffffffffffffffffffffff1614610a41576040517f08c379a0000000000000000000000000000000000000000000000000000000008152600401610a389061137b565b60405180910390fd5b5f8211610a83576040517f08c379a0000000000000000000000000000000000000000000000000000000008152600401610a7a90611409565b60405180910390fd5b3073ffffffffffffffffffffffffffffffffffffffff168173ffffffffffffffffffffffffffffffffffffffff1663081812fc856040518263ffffffff1660e01b8152600401610ad3919061101c565b602060405180830381865afa158015610aee573d5f5f3e3d5ffd5b505050506040513d601f19601f82011682018060405250810190610b129190611049565b73ffffffffffffffffffffffffffffffffffffffff1614610b68576040517f08c379a0000000000000000000000000000000000000000000000000000000008152600401610b5f90611497565b60405180910390fd5b60405180604001604052803373ffffffffffffffffffffffffffffffffffffffff168152602001838152505f5f8673ffffffffffffffffffffffffffffffffffffffff1673ffffffffffffffffffffffffffffffffffffffff1681526020019081526020015f205f8581526020019081526020015f205f820151815f015f6101000a81548173ffffffffffffffffffffffffffffffffffffffff021916908373ffffffffffffffffffffffffffffffffffffffff16021790555060208201518160010155905050828473ffffffffffffffffffffffffffffffffffffffff167f392a0f172cb29479635d0b2219b2f96ef24f74dfdf328cb09f1496efe6cfddbe3385604051610c78929190610da1565b60405180910390a350505050565b60405180604001604052805f73ffffffffffffffffffffffffffffffffffffffff1681526020015f81525090565b5f5ffd5b5f73ffffffffffffffffffffffffffffffffffffffff82169050919050565b5f610ce182610cb8565b9050919050565b610cf181610cd7565b8114610cfb575f5ffd5b50565b5f81359050610d0c81610ce8565b92915050565b5f819050919050565b610d2481610d12565b8114610d2e575f5ffd5b50565b5f81359050610d3f81610d1b565b92915050565b5f5f60408385031215610d5b57610d5a610cb4565b5b5f610d6885828601610cfe565b9250506020610d7985828601610d31565b9150509250929050565b610d8c81610cd7565b82525050565b610d9b81610d12565b82525050565b5f604082019050610db45f830185610d83565b610dc16020830184610d92565b9392505050565b5f819050919050565b5f610deb610de6610de184610cb8565b610dc8565b610cb8565b9050919050565b5f610dfc82610dd1565b9050919050565b5f610e0d82610df2565b9050919050565b610e1d81610e03565b82525050565b5f602082019050610e365f830184610e14565b92915050565b610e4581610cd7565b82525050565b610e5481610d12565b82525050565b604082015f820151610e6e5f850182610e3c565b506020820151610e816020850182610e4b565b50505050565b5f604082019050610e9a5f830184610e5a565b92915050565b5f5f5f60608486031215610eb757610eb6610cb4565b5b5f610ec486828701610cfe565b9350506020610ed586828701610d31565b9250506040610ee686828701610d31565b9150509250925092565b5f82825260208201905092915050565b7f4e46544d61726b65743a20596f7520617265206e6f74207468652073656c6c655f8201527f72206f662074686973204e46542e000000000000000000000000000000000000602082015250565b5f610f5a602e83610ef0565b9150610f6582610f00565b604082019050919050565b5f6020820190508181035f830152610f8781610f4e565b9050919050565b7f4e46544d61726b65743a2054686973204e4654206973206e6f74206c697374655f8201527f6420666f722073616c652e000000000000000000000000000000000000000000602082015250565b5f610fe8602b83610ef0565b9150610ff382610f8e565b604082019050919050565b5f6020820190508181035f83015261101581610fdc565b9050919050565b5f60208201905061102f5f830184610d92565b92915050565b5f8151905061104381610ce8565b92915050565b5f6020828403121561105e5761105d610cb4565b5b5f61106b84828501611035565b91505092915050565b7f4e46544d61726b65743a2053656c6c6572206e6f206c6f6e676572206f776e735f8201527f2074686973204e46542e00000000000000000000000000000000000000000000602082015250565b5f6110ce602a83610ef0565b91506110d982611074565b604082019050919050565b5f6020820190508181035f8301526110fb816110c2565b9050919050565b5f6020820190506111155f830184610d83565b92915050565b5f8151905061112981610d1b565b92915050565b5f6020828403121561114457611143610cb4565b5b5f6111518482850161111b565b91505092915050565b7f4e46544d61726b65743a20496e73756666696369656e7420746f6b656e2062615f8201527f6c616e636520746f206275792074686973204e46542e00000000000000000000602082015250565b5f6111b4603683610ef0565b91506111bf8261115a565b604082019050919050565b5f6020820190508181035f8301526111e1816111a8565b9050919050565b7f4e46544d61726b65743a20596f752063616e6e6f742062757920796f7572206f5f8201527f776e204e46542e00000000000000000000000000000000000000000000000000602082015250565b5f611242602783610ef0565b915061124d826111e8565b604082019050919050565b5f6020820190508181035f83015261126f81611236565b9050919050565b5f6060820190506112895f830186610d83565b6112966020830185610d83565b6112a36040830184610d92565b949350505050565b5f8115159050919050565b6112bf816112ab565b81146112c9575f5ffd5b50565b5f815190506112da816112b6565b92915050565b5f602082840312156112f5576112f4610cb4565b5b5f611302848285016112cc565b91505092915050565b7f4e46544d61726b65743a20596f7520617265206e6f7420746865206f776e65725f8201527f206f662074686973204e46542e00000000000000000000000000000000000000602082015250565b5f611365602d83610ef0565b91506113708261130b565b604082019050919050565b5f6020820190508181035f83015261139281611359565b9050919050565b7f4e46544d61726b65743a205072696365206d75737420626520677265617465725f8201527f207468616e207a65726f2e000000000000000000000000000000000000000000602082015250565b5f6113f3602b83610ef0565b91506113fe82611399565b604082019050919050565b5f6020820190508181035f830152611420816113e7565b9050919050565b7f4e46544d61726b65743a20546865206d61726b6574206d7573742062652061705f8201527f70726f76656420746f207472616e7366657220746865204e46542e0000000000602082015250565b5f611481603b83610ef0565b915061148c82611427565b604082019050919050565b5f6020820190508181035f8301526114ae81611475565b905091905056fea2646970667358221220d25bcc58c7b4f9072e375d56095ca49319039e17a58a74e739fd0e7f1d03817164736f6c634300081e0033",
        "linkReferences": {}
    },
    "methodIdentifiers": {
        "buyNFT(address,uint256)": "a82ba76f",
        "getListing(address,uint256)": "88700d1c",
        "list(address,uint256,uint256)": "dda342bb",
        "listings(address,uint256)": "0007df30",
        "myERC20()": "6d3739c4",
        "unlist(address,uint256)": "49c83e86"
    },
    "id": 40
}