{
    "abi": [
        {
            "type": "constructor",
            "inputs": [
                {
                    "name": "_tokenAddress",
                    "type": "address",
                    "internalType": "address"
                }
            ],
            "stateMutability": "nonpayable"
        },
        {
            "type": "function",
            "name": "balances",
            "inputs": [
                {
                    "name": "",
                    "type": "address",
                    "internalType": "address"
                }
            ],
            "outputs": [
                {
                    "name": "",
                    "type": "uint256",
                    "internalType": "uint256"
                }
            ],
            "stateMutability": "view"
        },
        {
            "type": "function",
            "name": "deposit",
            "inputs": [
                {
                    "name": "_amount",
                    "type": "uint256",
                    "internalType": "uint256"
                }
            ],
            "outputs": [],
            "stateMutability": "nonpayable"
        },
        {
            "type": "function",
            "name": "getBalance",
            "inputs": [
                {
                    "name": "_user",
                    "type": "address",
                    "internalType": "address"
                }
            ],
            "outputs": [
                {
                    "name": "",
                    "type": "uint256",
                    "internalType": "uint256"
                }
            ],
            "stateMutability": "view"
        },
        {
            "type": "function",
            "name": "permitDeposit",
            "inputs": [
                {
                    "name": "owner",
                    "type": "address",
                    "internalType": "address"
                },
                {
                    "name": "amount",
                    "type": "uint256",
                    "internalType": "uint256"
                },
                {
                    "name": "deadline",
                    "type": "uint256",
                    "internalType": "uint256"
                },
                {
                    "name": "v",
                    "type": "uint8",
                    "internalType": "uint8"
                },
                {
                    "name": "r",
                    "type": "bytes32",
                    "internalType": "bytes32"
                },
                {
                    "name": "s",
                    "type": "bytes32",
                    "internalType": "bytes32"
                }
            ],
            "outputs": [],
            "stateMutability": "nonpayable"
        },
        {
            "type": "function",
            "name": "token",
            "inputs": [],
            "outputs": [
                {
                    "name": "",
                    "type": "address",
                    "internalType": "contract MyERC20Permit"
                }
            ],
            "stateMutability": "view"
        },
        {
            "type": "function",
            "name": "withdraw",
            "inputs": [
                {
                    "name": "_amount",
                    "type": "uint256",
                    "internalType": "uint256"
                }
            ],
            "outputs": [],
            "stateMutability": "payable"
        }
    ],
    "bytecode": {
        "object": "0x608060405234801561000f575f5ffd5b5060405161107538038061107583398181016040528101906100319190610142565b5f73ffffffffffffffffffffffffffffffffffffffff168173ffffffffffffffffffffffffffffffffffffffff160361009f576040517f08c379a0000000000000000000000000000000000000000000000000000000008152600401610096906101c7565b60405180910390fd5b805f5f6101000a81548173ffffffffffffffffffffffffffffffffffffffff021916908373ffffffffffffffffffffffffffffffffffffffff160217905550506101e5565b5f5ffd5b5f73ffffffffffffffffffffffffffffffffffffffff82169050919050565b5f610111826100e8565b9050919050565b61012181610107565b811461012b575f5ffd5b50565b5f8151905061013c81610118565b92915050565b5f60208284031215610157576101566100e4565b5b5f6101648482850161012e565b91505092915050565b5f82825260208201905092915050565b7f546f6b656e20616464726573732063616e6e6f74206265207a65726f000000005f82015250565b5f6101b1601c8361016d565b91506101bc8261017d565b602082019050919050565b5f6020820190508181035f8301526101de816101a5565b9050919050565b610e83806101f25f395ff3fe608060405260043610610054575f3560e01c806327e235e3146100585780632e1a7d4d146100945780638f7b1bca146100b0578063b6b55f25146100d8578063f8b2cb4f14610100578063fc0c546a1461013c575b5f5ffd5b348015610063575f5ffd5b5061007e600480360381019061007991906107c3565b610166565b60405161008b9190610806565b60405180910390f35b6100ae60048036038101906100a99190610849565b61017b565b005b3480156100bb575f5ffd5b506100d660048036038101906100d191906108dd565b610372565b005b3480156100e3575f5ffd5b506100fe60048036038101906100f99190610849565b610582565b005b34801561010b575f5ffd5b50610126600480360381019061012191906107c3565b6106fb565b6040516101339190610806565b60405180910390f35b348015610147575f5ffd5b50610150610741565b60405161015d91906109c1565b60405180910390f35b6001602052805f5260405f205f915090505481565b5f81116101bd576040517f08c379a00000000000000000000000000000000000000000000000000000000081526004016101b490610a5a565b60405180910390fd5b8060015f3373ffffffffffffffffffffffffffffffffffffffff1673ffffffffffffffffffffffffffffffffffffffff1681526020019081526020015f2054101561023d576040517f08c379a000000000000000000000000000000000000000000000000000000000815260040161023490610ac2565b60405180910390fd5b8060015f3373ffffffffffffffffffffffffffffffffffffffff1673ffffffffffffffffffffffffffffffffffffffff1681526020019081526020015f205f8282546102899190610b0d565b925050819055505f5f5f9054906101000a900473ffffffffffffffffffffffffffffffffffffffff1673ffffffffffffffffffffffffffffffffffffffff1663a9059cbb33846040518363ffffffff1660e01b81526004016102ec929190610b4f565b6020604051808303815f875af1158015610308573d5f5f3e3d5ffd5b505050506040513d601f19601f8201168201806040525081019061032c9190610bab565b90508061036e576040517f08c379a000000000000000000000000000000000000000000000000000000000815260040161036590610c20565b60405180910390fd5b5050565b5f85116103b4576040517f08c379a00000000000000000000000000000000000000000000000000000000081526004016103ab90610cae565b60405180910390fd5b5f5f9054906101000a900473ffffffffffffffffffffffffffffffffffffffff1673ffffffffffffffffffffffffffffffffffffffff1663d505accf873088888888886040518863ffffffff1660e01b81526004016104199796959493929190610cea565b5f604051808303815f87803b158015610430575f5ffd5b505af1158015610442573d5f5f3e3d5ffd5b505050505f5f5f9054906101000a900473ffffffffffffffffffffffffffffffffffffffff1673ffffffffffffffffffffffffffffffffffffffff166323b872dd8830896040518463ffffffff1660e01b81526004016104a493929190610d57565b6020604051808303815f875af11580156104c0573d5f5f3e3d5ffd5b505050506040513d601f19601f820116820180604052508101906104e49190610bab565b905080610526576040517f08c379a000000000000000000000000000000000000000000000000000000000815260040161051d90610c20565b60405180910390fd5b8560015f8973ffffffffffffffffffffffffffffffffffffffff1673ffffffffffffffffffffffffffffffffffffffff1681526020019081526020015f205f8282546105729190610d8c565b9250508190555050505050505050565b5f81116105c4576040517f08c379a00000000000000000000000000000000000000000000000000000000081526004016105bb90610cae565b60405180910390fd5b5f5f5f9054906101000a900473ffffffffffffffffffffffffffffffffffffffff1673ffffffffffffffffffffffffffffffffffffffff166323b872dd3330856040518463ffffffff1660e01b815260040161062293929190610d57565b6020604051808303815f875af115801561063e573d5f5f3e3d5ffd5b505050506040513d601f19601f820116820180604052508101906106629190610bab565b9050806106a4576040517f08c379a000000000000000000000000000000000000000000000000000000000815260040161069b90610e2f565b60405180910390fd5b8160015f3373ffffffffffffffffffffffffffffffffffffffff1673ffffffffffffffffffffffffffffffffffffffff1681526020019081526020015f205f8282546106f09190610d8c565b925050819055505050565b5f60015f8373ffffffffffffffffffffffffffffffffffffffff1673ffffffffffffffffffffffffffffffffffffffff1681526020019081526020015f20549050919050565b5f5f9054906101000a900473ffffffffffffffffffffffffffffffffffffffff1681565b5f5ffd5b5f73ffffffffffffffffffffffffffffffffffffffff82169050919050565b5f61079282610769565b9050919050565b6107a281610788565b81146107ac575f5ffd5b50565b5f813590506107bd81610799565b92915050565b5f602082840312156107d8576107d7610765565b5b5f6107e5848285016107af565b91505092915050565b5f819050919050565b610800816107ee565b82525050565b5f6020820190506108195f8301846107f7565b92915050565b610828816107ee565b8114610832575f5ffd5b50565b5f813590506108438161081f565b92915050565b5f6020828403121561085e5761085d610765565b5b5f61086b84828501610835565b91505092915050565b5f60ff82169050919050565b61088981610874565b8114610893575f5ffd5b50565b5f813590506108a481610880565b92915050565b5f819050919050565b6108bc816108aa565b81146108c6575f5ffd5b50565b5f813590506108d7816108b3565b92915050565b5f5f5f5f5f5f60c087890312156108f7576108f6610765565b5b5f61090489828a016107af565b965050602061091589828a01610835565b955050604061092689828a01610835565b945050606061093789828a01610896565b935050608061094889828a016108c9565b92505060a061095989828a016108c9565b9150509295509295509295565b5f819050919050565b5f61098961098461097f84610769565b610966565b610769565b9050919050565b5f61099a8261096f565b9050919050565b5f6109ab82610990565b9050919050565b6109bb816109a1565b82525050565b5f6020820190506109d45f8301846109b2565b92915050565b5f82825260208201905092915050565b7f576974686472617720616d6f756e74206d7573742062652067726561746572205f8201527f7468616e207a65726f2021000000000000000000000000000000000000000000602082015250565b5f610a44602b836109da565b9150610a4f826109ea565b604082019050919050565b5f6020820190508181035f830152610a7181610a38565b9050919050565b7f496e73756666696369656e742062616c616e636520696e2062616e6b000000005f82015250565b5f610aac601c836109da565b9150610ab782610a78565b602082019050919050565b5f6020820190508181035f830152610ad981610aa0565b9050919050565b7f4e487b71000000000000000000000000000000000000000000000000000000005f52601160045260245ffd5b5f610b17826107ee565b9150610b22836107ee565b9250828203905081811115610b3a57610b39610ae0565b5b92915050565b610b4981610788565b82525050565b5f604082019050610b625f830185610b40565b610b6f60208301846107f7565b9392505050565b5f8115159050919050565b610b8a81610b76565b8114610b94575f5ffd5b50565b5f81519050610ba581610b81565b92915050565b5f60208284031215610bc057610bbf610765565b5b5f610bcd84828501610b97565b91505092915050565b7f546f6b656e207472616e73666572206661696c656400000000000000000000005f82015250565b5f610c0a6015836109da565b9150610c1582610bd6565b602082019050919050565b5f6020820190508181035f830152610c3781610bfe565b9050919050565b7f4465706f73697420616d6f756e74206d757374206265206772656174657220745f8201527f68616e207a65726f000000000000000000000000000000000000000000000000602082015250565b5f610c986028836109da565b9150610ca382610c3e565b604082019050919050565b5f6020820190508181035f830152610cc581610c8c565b9050919050565b610cd581610874565b82525050565b610ce4816108aa565b82525050565b5f60e082019050610cfd5f83018a610b40565b610d0a6020830189610b40565b610d1760408301886107f7565b610d2460608301876107f7565b610d316080830186610ccc565b610d3e60a0830185610cdb565b610d4b60c0830184610cdb565b98975050505050505050565b5f606082019050610d6a5f830186610b40565b610d776020830185610b40565b610d8460408301846107f7565b949350505050565b5f610d96826107ee565b9150610da1836107ee565b9250828201905080821115610db957610db8610ae0565b5b92915050565b7f546f6b656e207472616e73666572206661696c65642028636865636b20616c6c5f8201527f6f77616e63652900000000000000000000000000000000000000000000000000602082015250565b5f610e196027836109da565b9150610e2482610dbf565b604082019050919050565b5f6020820190508181035f830152610e4681610e0d565b905091905056fea2646970667358221220992b302e501327b749bbed9c2d6df2058e45a0148a8f7611c72e9fb6bf3e6c2964736f6c634300081e0033",
        "linkReferences": {}
    },
    "methodIdentifiers": {
        "balances(address)": "27e235e3",
        "deposit(uint256)": "b6b55f25",
        "getBalance(address)": "f8b2cb4f",
        "permitDeposit(address,uint256,uint256,uint8,bytes32,bytes32)": "8f7b1bca",
        "token()": "fc0c546a",
        "withdraw(uint256)": "2e1a7d4d"
    },
    "id": 39
}